{
    "contractName": "CampaignFactory",
    "abi": [
        {
            "anonymous": false,
            "inputs": [
                {
                    "indexed": true,
                    "internalType": "uint256",
                    "name": "campaignId",
                    "type": "uint256"
                },
                {
                    "indexed": false,
                    "internalType": "bool",
                    "name": "active",
                    "type": "bool"
                }
            ],
            "name": "CampaignActiveToggle",
            "type": "event"
        },
        {
            "anonymous": false,
            "inputs": [
                {
                    "indexed": true,
                    "internalType": "uint256",
                    "name": "campaignId",
                    "type": "uint256"
                },
                {
                    "indexed": false,
                    "internalType": "bool",
                    "name": "approval",
                    "type": "bool"
                }
            ],
            "name": "CampaignApproval",
            "type": "event"
        },
        {
            "anonymous": false,
            "inputs": [
                {
                    "indexed": false,
                    "internalType": "uint256",
                    "name": "campaignId",
                    "type": "uint256"
                }
            ],
            "name": "CampaignApprovalRequest",
            "type": "event"
        },
        {
            "anonymous": false,
            "inputs": [
                {
                    "indexed": true,
                    "internalType": "uint256",
                    "name": "campaignId",
                    "type": "uint256"
                },
                {
                    "indexed": false,
                    "internalType": "uint256",
                    "name": "newCategory",
                    "type": "uint256"
                }
            ],
            "name": "CampaignCategoryChange",
            "type": "event"
        },
        {
            "anonymous": false,
            "inputs": [
                {
                    "indexed": true,
                    "internalType": "uint256",
                    "name": "campaignId",
                    "type": "uint256"
                },
                {
                    "indexed": false,
                    "internalType": "uint256",
                    "name": "userId",
                    "type": "uint256"
                },
                {
                    "indexed": false,
                    "internalType": "uint256",
                    "name": "category",
                    "type": "uint256"
                }
            ],
            "name": "CampaignDeployed",
            "type": "event"
        },
        {
            "anonymous": false,
            "inputs": [
                {
                    "indexed": true,
                    "internalType": "uint256",
                    "name": "campaignId",
                    "type": "uint256"
                }
            ],
            "name": "CampaignDestroyed",
            "type": "event"
        },
        {
            "anonymous": false,
            "inputs": [
                {
                    "indexed": true,
                    "internalType": "uint256",
                    "name": "campaignId",
                    "type": "uint256"
                }
            ],
            "name": "CampaignFeaturePaused",
            "type": "event"
        },
        {
            "anonymous": false,
            "inputs": [
                {
                    "indexed": true,
                    "internalType": "uint256",
                    "name": "campaignId",
                    "type": "uint256"
                },
                {
                    "indexed": false,
                    "internalType": "uint256",
                    "name": "timeLeft",
                    "type": "uint256"
                }
            ],
            "name": "CampaignFeatureUnpaused",
            "type": "event"
        },
        {
            "anonymous": false,
            "inputs": [
                {
                    "indexed": true,
                    "internalType": "uint256",
                    "name": "campaignId",
                    "type": "uint256"
                },
                {
                    "indexed": false,
                    "internalType": "uint256",
                    "name": "featurePackageId",
                    "type": "uint256"
                },
                {
                    "indexed": false,
                    "internalType": "uint256",
                    "name": "amount",
                    "type": "uint256"
                }
            ],
            "name": "CampaignFeatured",
            "type": "event"
        },
        {
            "anonymous": false,
            "inputs": [
                {
                    "indexed": true,
                    "internalType": "address",
                    "name": "newOwner",
                    "type": "address"
                }
            ],
            "name": "CampaignOwnershipTransferred",
            "type": "event"
        },
        {
            "anonymous": false,
            "inputs": [
                {
                    "indexed": true,
                    "internalType": "uint256",
                    "name": "categoryId",
                    "type": "uint256"
                },
                {
                    "indexed": false,
                    "internalType": "bool",
                    "name": "active",
                    "type": "bool"
                }
            ],
            "name": "CategoryAdded",
            "type": "event"
        },
        {
            "anonymous": false,
            "inputs": [
                {
                    "indexed": true,
                    "internalType": "uint256",
                    "name": "categoryId",
                    "type": "uint256"
                }
            ],
            "name": "CategoryDestroyed",
            "type": "event"
        },
        {
            "anonymous": false,
            "inputs": [
                {
                    "indexed": true,
                    "internalType": "uint256",
                    "name": "categoryId",
                    "type": "uint256"
                },
                {
                    "indexed": false,
                    "internalType": "bool",
                    "name": "active",
                    "type": "bool"
                }
            ],
            "name": "CategoryModified",
            "type": "event"
        },
        {
            "anonymous": false,
            "inputs": [
                {
                    "indexed": true,
                    "internalType": "uint256",
                    "name": "packageId",
                    "type": "uint256"
                },
                {
                    "indexed": false,
                    "internalType": "uint256",
                    "name": "cost",
                    "type": "uint256"
                },
                {
                    "indexed": false,
                    "internalType": "uint256",
                    "name": "time",
                    "type": "uint256"
                }
            ],
            "name": "FeaturePackageAdded",
            "type": "event"
        },
        {
            "anonymous": false,
            "inputs": [
                {
                    "indexed": true,
                    "internalType": "uint256",
                    "name": "packageId",
                    "type": "uint256"
                }
            ],
            "name": "FeaturePackageDestroyed",
            "type": "event"
        },
        {
            "anonymous": false,
            "inputs": [
                {
                    "indexed": true,
                    "internalType": "uint256",
                    "name": "packageId",
                    "type": "uint256"
                },
                {
                    "indexed": false,
                    "internalType": "uint256",
                    "name": "cost",
                    "type": "uint256"
                },
                {
                    "indexed": false,
                    "internalType": "uint256",
                    "name": "time",
                    "type": "uint256"
                }
            ],
            "name": "FeaturePackageModified",
            "type": "event"
        },
        {
            "anonymous": false,
            "inputs": [
                {
                    "indexed": false,
                    "internalType": "address",
                    "name": "account",
                    "type": "address"
                }
            ],
            "name": "Paused",
            "type": "event"
        },
        {
            "anonymous": false,
            "inputs": [
                {
                    "indexed": true,
                    "internalType": "bytes32",
                    "name": "role",
                    "type": "bytes32"
                },
                {
                    "indexed": true,
                    "internalType": "bytes32",
                    "name": "previousAdminRole",
                    "type": "bytes32"
                },
                {
                    "indexed": true,
                    "internalType": "bytes32",
                    "name": "newAdminRole",
                    "type": "bytes32"
                }
            ],
            "name": "RoleAdminChanged",
            "type": "event"
        },
        {
            "anonymous": false,
            "inputs": [
                {
                    "indexed": true,
                    "internalType": "bytes32",
                    "name": "role",
                    "type": "bytes32"
                },
                {
                    "indexed": true,
                    "internalType": "address",
                    "name": "account",
                    "type": "address"
                },
                {
                    "indexed": true,
                    "internalType": "address",
                    "name": "sender",
                    "type": "address"
                }
            ],
            "name": "RoleGranted",
            "type": "event"
        },
        {
            "anonymous": false,
            "inputs": [
                {
                    "indexed": true,
                    "internalType": "bytes32",
                    "name": "role",
                    "type": "bytes32"
                },
                {
                    "indexed": true,
                    "internalType": "address",
                    "name": "account",
                    "type": "address"
                },
                {
                    "indexed": true,
                    "internalType": "address",
                    "name": "sender",
                    "type": "address"
                }
            ],
            "name": "RoleRevoked",
            "type": "event"
        },
        {
            "anonymous": false,
            "inputs": [
                {
                    "indexed": false,
                    "internalType": "address",
                    "name": "account",
                    "type": "address"
                }
            ],
            "name": "Unpaused",
            "type": "event"
        },
        {
            "anonymous": false,
            "inputs": [
                {
                    "indexed": true,
                    "internalType": "uint256",
                    "name": "userId",
                    "type": "uint256"
                }
            ],
            "name": "UserAdded",
            "type": "event"
        },
        {
            "anonymous": false,
            "inputs": [
                {
                    "indexed": true,
                    "internalType": "uint256",
                    "name": "userId",
                    "type": "uint256"
                },
                {
                    "indexed": false,
                    "internalType": "bool",
                    "name": "approval",
                    "type": "bool"
                }
            ],
            "name": "UserApproval",
            "type": "event"
        },
        {
            "anonymous": false,
            "inputs": [
                {
                    "indexed": true,
                    "internalType": "uint256",
                    "name": "userId",
                    "type": "uint256"
                }
            ],
            "name": "UserModified",
            "type": "event"
        },
        {
            "anonymous": false,
            "inputs": [
                {
                    "indexed": true,
                    "internalType": "uint256",
                    "name": "userId",
                    "type": "uint256"
                }
            ],
            "name": "UserRemoved",
            "type": "event"
        },
        {
            "inputs": [],
            "name": "DEFAULT_ADMIN_ROLE",
            "outputs": [
                {
                    "internalType": "bytes32",
                    "name": "",
                    "type": "bytes32"
                }
            ],
            "stateMutability": "view",
            "type": "function"
        },
        {
            "inputs": [],
            "name": "MANAGE_CAMPAIGNS",
            "outputs": [
                {
                    "internalType": "bytes32",
                    "name": "",
                    "type": "bytes32"
                }
            ],
            "stateMutability": "view",
            "type": "function"
        },
        {
            "inputs": [],
            "name": "MANAGE_CATEGORIES",
            "outputs": [
                {
                    "internalType": "bytes32",
                    "name": "",
                    "type": "bytes32"
                }
            ],
            "stateMutability": "view",
            "type": "function"
        },
        {
            "inputs": [],
            "name": "MANAGE_USERS",
            "outputs": [
                {
                    "internalType": "bytes32",
                    "name": "",
                    "type": "bytes32"
                }
            ],
            "stateMutability": "view",
            "type": "function"
        },
        {
            "inputs": [
                {
                    "internalType": "address payable",
                    "name": "_wallet",
                    "type": "address"
                }
            ],
            "name": "__CampaignFactory_init",
            "outputs": [],
            "stateMutability": "nonpayable",
            "type": "function"
        },
        {
            "inputs": [
                {
                    "internalType": "address",
                    "name": "_account",
                    "type": "address"
                },
                {
                    "internalType": "bytes32",
                    "name": "_role",
                    "type": "bytes32"
                }
            ],
            "name": "addRole",
            "outputs": [],
            "stateMutability": "nonpayable",
            "type": "function"
        },
        {
            "inputs": [
                {
                    "internalType": "address",
                    "name": "_token",
                    "type": "address"
                }
            ],
            "name": "addToken",
            "outputs": [],
            "stateMutability": "nonpayable",
            "type": "function"
        },
        {
            "inputs": [
                {
                    "internalType": "address",
                    "name": "_campaign",
                    "type": "address"
                }
            ],
            "name": "campaignApprovalRequest",
            "outputs": [],
            "stateMutability": "nonpayable",
            "type": "function"
        },
        {
            "inputs": [
                {
                    "internalType": "uint256",
                    "name": "",
                    "type": "uint256"
                }
            ],
            "name": "campaignCategories",
            "outputs": [
                {
                    "internalType": "uint256",
                    "name": "campaignCount",
                    "type": "uint256"
                },
                {
                    "internalType": "uint256",
                    "name": "createdAt",
                    "type": "uint256"
                },
                {
                    "internalType": "uint256",
                    "name": "updatedAt",
                    "type": "uint256"
                },
                {
                    "internalType": "bool",
                    "name": "active",
                    "type": "bool"
                },
                {
                    "internalType": "bool",
                    "name": "exists",
                    "type": "bool"
                }
            ],
            "stateMutability": "view",
            "type": "function"
        },
        {
            "inputs": [],
            "name": "campaignCount",
            "outputs": [
                {
                    "internalType": "uint256",
                    "name": "",
                    "type": "uint256"
                }
            ],
            "stateMutability": "view",
            "type": "function"
        },
        {
            "inputs": [],
            "name": "campaignImplementation",
            "outputs": [
                {
                    "internalType": "address",
                    "name": "",
                    "type": "address"
                }
            ],
            "stateMutability": "view",
            "type": "function"
        },
        {
            "inputs": [
                {
                    "internalType": "uint256",
                    "name": "",
                    "type": "uint256"
                }
            ],
            "name": "campaignRevenueFromCommissions",
            "outputs": [
                {
                    "internalType": "uint256",
                    "name": "",
                    "type": "uint256"
                }
            ],
            "stateMutability": "view",
            "type": "function"
        },
        {
            "inputs": [
                {
                    "internalType": "uint256",
                    "name": "",
                    "type": "uint256"
                }
            ],
            "name": "campaignRevenueFromFeatures",
            "outputs": [
                {
                    "internalType": "uint256",
                    "name": "",
                    "type": "uint256"
                }
            ],
            "stateMutability": "view",
            "type": "function"
        },
        {
            "inputs": [
                {
                    "internalType": "address",
                    "name": "",
                    "type": "address"
                }
            ],
            "name": "campaignToID",
            "outputs": [
                {
                    "internalType": "uint256",
                    "name": "",
                    "type": "uint256"
                }
            ],
            "stateMutability": "view",
            "type": "function"
        },
        {
            "inputs": [
                {
                    "internalType": "address",
                    "name": "",
                    "type": "address"
                }
            ],
            "name": "campaignToOwner",
            "outputs": [
                {
                    "internalType": "address",
                    "name": "",
                    "type": "address"
                }
            ],
            "stateMutability": "view",
            "type": "function"
        },
        {
            "inputs": [
                {
                    "internalType": "address",
                    "name": "_user",
                    "type": "address"
                }
            ],
            "name": "canManageCampaigns",
            "outputs": [
                {
                    "internalType": "bool",
                    "name": "",
                    "type": "bool"
                }
            ],
            "stateMutability": "view",
            "type": "function"
        },
        {
            "inputs": [
                {
                    "internalType": "uint256",
                    "name": "",
                    "type": "uint256"
                }
            ],
            "name": "categoryCommission",
            "outputs": [
                {
                    "internalType": "uint256",
                    "name": "",
                    "type": "uint256"
                }
            ],
            "stateMutability": "view",
            "type": "function"
        },
        {
            "inputs": [],
            "name": "categoryCount",
            "outputs": [
                {
                    "internalType": "uint256",
                    "name": "",
                    "type": "uint256"
                }
            ],
            "stateMutability": "view",
            "type": "function"
        },
        {
            "inputs": [
                {
                    "internalType": "uint256",
                    "name": "_categoryId",
                    "type": "uint256"
                }
            ],
            "name": "createCampaign",
            "outputs": [],
            "stateMutability": "nonpayable",
            "type": "function"
        },
        {
            "inputs": [
                {
                    "internalType": "bool",
                    "name": "_active",
                    "type": "bool"
                }
            ],
            "name": "createCategory",
            "outputs": [],
            "stateMutability": "nonpayable",
            "type": "function"
        },
        {
            "inputs": [
                {
                    "internalType": "uint256",
                    "name": "_cost",
                    "type": "uint256"
                },
                {
                    "internalType": "uint256",
                    "name": "_time",
                    "type": "uint256"
                }
            ],
            "name": "createFeaturePackage",
            "outputs": [],
            "stateMutability": "nonpayable",
            "type": "function"
        },
        {
            "inputs": [],
            "name": "deadlineStrikesAllowed",
            "outputs": [
                {
                    "internalType": "uint256",
                    "name": "",
                    "type": "uint256"
                }
            ],
            "stateMutability": "view",
            "type": "function"
        },
        {
            "inputs": [],
            "name": "defaultCommission",
            "outputs": [
                {
                    "internalType": "uint256",
                    "name": "",
                    "type": "uint256"
                }
            ],
            "stateMutability": "view",
            "type": "function"
        },
        {
            "inputs": [
                {
                    "internalType": "uint256",
                    "name": "",
                    "type": "uint256"
                }
            ],
            "name": "deployedCampaigns",
            "outputs": [
                {
                    "internalType": "address",
                    "name": "campaign",
                    "type": "address"
                },
                {
                    "internalType": "address",
                    "name": "owner",
                    "type": "address"
                },
                {
                    "internalType": "uint256",
                    "name": "createdAt",
                    "type": "uint256"
                },
                {
                    "internalType": "uint256",
                    "name": "updatedAt",
                    "type": "uint256"
                },
                {
                    "internalType": "uint256",
                    "name": "category",
                    "type": "uint256"
                },
                {
                    "internalType": "uint256",
                    "name": "featureFor",
                    "type": "uint256"
                },
                {
                    "internalType": "bool",
                    "name": "active",
                    "type": "bool"
                },
                {
                    "internalType": "bool",
                    "name": "approved",
                    "type": "bool"
                },
                {
                    "internalType": "bool",
                    "name": "exists",
                    "type": "bool"
                }
            ],
            "stateMutability": "view",
            "type": "function"
        },
        {
            "inputs": [
                {
                    "internalType": "uint256",
                    "name": "_campaignId",
                    "type": "uint256"
                }
            ],
            "name": "destroyCampaign",
            "outputs": [],
            "stateMutability": "nonpayable",
            "type": "function"
        },
        {
            "inputs": [
                {
                    "internalType": "uint256",
                    "name": "_categoryId",
                    "type": "uint256"
                }
            ],
            "name": "destroyCategory",
            "outputs": [],
            "stateMutability": "nonpayable",
            "type": "function"
        },
        {
            "inputs": [
                {
                    "internalType": "uint256",
                    "name": "_packageId",
                    "type": "uint256"
                }
            ],
            "name": "destroyFeaturedPackage",
            "outputs": [],
            "stateMutability": "nonpayable",
            "type": "function"
        },
        {
            "inputs": [
                {
                    "internalType": "uint256",
                    "name": "_userId",
                    "type": "uint256"
                }
            ],
            "name": "destroyUser",
            "outputs": [],
            "stateMutability": "nonpayable",
            "type": "function"
        },
        {
            "inputs": [],
            "name": "factoryRevenue",
            "outputs": [
                {
                    "internalType": "uint256",
                    "name": "",
                    "type": "uint256"
                }
            ],
            "stateMutability": "view",
            "type": "function"
        },
        {
            "inputs": [],
            "name": "factoryWallet",
            "outputs": [
                {
                    "internalType": "address payable",
                    "name": "",
                    "type": "address"
                }
            ],
            "stateMutability": "view",
            "type": "function"
        },
        {
            "inputs": [
                {
                    "internalType": "uint256",
                    "name": "_campaignId",
                    "type": "uint256"
                },
                {
                    "internalType": "uint256",
                    "name": "_featurePackageId",
                    "type": "uint256"
                },
                {
                    "internalType": "address",
                    "name": "_token",
                    "type": "address"
                }
            ],
            "name": "featureCampaign",
            "outputs": [],
            "stateMutability": "payable",
            "type": "function"
        },
        {
            "inputs": [],
            "name": "featurePackageCount",
            "outputs": [
                {
                    "internalType": "uint256",
                    "name": "",
                    "type": "uint256"
                }
            ],
            "stateMutability": "view",
            "type": "function"
        },
        {
            "inputs": [
                {
                    "internalType": "uint256",
                    "name": "",
                    "type": "uint256"
                }
            ],
            "name": "featurePackages",
            "outputs": [
                {
                    "internalType": "uint256",
                    "name": "createdAt",
                    "type": "uint256"
                },
                {
                    "internalType": "uint256",
                    "name": "updatedAt",
                    "type": "uint256"
                },
                {
                    "internalType": "uint256",
                    "name": "time",
                    "type": "uint256"
                },
                {
                    "internalType": "uint256",
                    "name": "cost",
                    "type": "uint256"
                },
                {
                    "internalType": "bool",
                    "name": "exists",
                    "type": "bool"
                }
            ],
            "stateMutability": "view",
            "type": "function"
        },
        {
            "inputs": [
                {
                    "internalType": "uint256",
                    "name": "",
                    "type": "uint256"
                }
            ],
            "name": "featuredCampaignIsPaused",
            "outputs": [
                {
                    "internalType": "bool",
                    "name": "",
                    "type": "bool"
                }
            ],
            "stateMutability": "view",
            "type": "function"
        },
        {
            "inputs": [
                {
                    "internalType": "bytes32",
                    "name": "role",
                    "type": "bytes32"
                }
            ],
            "name": "getRoleAdmin",
            "outputs": [
                {
                    "internalType": "bytes32",
                    "name": "",
                    "type": "bytes32"
                }
            ],
            "stateMutability": "view",
            "type": "function"
        },
        {
            "inputs": [
                {
                    "internalType": "bytes32",
                    "name": "role",
                    "type": "bytes32"
                },
                {
                    "internalType": "address",
                    "name": "account",
                    "type": "address"
                }
            ],
            "name": "grantRole",
            "outputs": [],
            "stateMutability": "nonpayable",
            "type": "function"
        },
        {
            "inputs": [
                {
                    "internalType": "bytes32",
                    "name": "role",
                    "type": "bytes32"
                },
                {
                    "internalType": "address",
                    "name": "account",
                    "type": "address"
                }
            ],
            "name": "hasRole",
            "outputs": [
                {
                    "internalType": "bool",
                    "name": "",
                    "type": "bool"
                }
            ],
            "stateMutability": "view",
            "type": "function"
        },
        {
            "inputs": [],
            "name": "maxDeadline",
            "outputs": [
                {
                    "internalType": "uint256",
                    "name": "",
                    "type": "uint256"
                }
            ],
            "stateMutability": "view",
            "type": "function"
        },
        {
            "inputs": [],
            "name": "maxRequestDuration",
            "outputs": [
                {
                    "internalType": "uint256",
                    "name": "",
                    "type": "uint256"
                }
            ],
            "stateMutability": "view",
            "type": "function"
        },
        {
            "inputs": [],
            "name": "maximumContributionAllowed",
            "outputs": [
                {
                    "internalType": "uint256",
                    "name": "",
                    "type": "uint256"
                }
            ],
            "stateMutability": "view",
            "type": "function"
        },
        {
            "inputs": [],
            "name": "minDeadline",
            "outputs": [
                {
                    "internalType": "uint256",
                    "name": "",
                    "type": "uint256"
                }
            ],
            "stateMutability": "view",
            "type": "function"
        },
        {
            "inputs": [],
            "name": "minRequestDuration",
            "outputs": [
                {
                    "internalType": "uint256",
                    "name": "",
                    "type": "uint256"
                }
            ],
            "stateMutability": "view",
            "type": "function"
        },
        {
            "inputs": [],
            "name": "minimumContributionAllowed",
            "outputs": [
                {
                    "internalType": "uint256",
                    "name": "",
                    "type": "uint256"
                }
            ],
            "stateMutability": "view",
            "type": "function"
        },
        {
            "inputs": [
                {
                    "internalType": "uint256",
                    "name": "_campaignId",
                    "type": "uint256"
                },
                {
                    "internalType": "uint256",
                    "name": "_newCategoryId",
                    "type": "uint256"
                }
            ],
            "name": "modifyCampaignCategory",
            "outputs": [],
            "stateMutability": "nonpayable",
            "type": "function"
        },
        {
            "inputs": [
                {
                    "internalType": "contract Campaign",
                    "name": "_campaign",
                    "type": "address"
                },
                {
                    "internalType": "uint256",
                    "name": "_target",
                    "type": "uint256"
                },
                {
                    "internalType": "uint256",
                    "name": "_minimumContribution",
                    "type": "uint256"
                },
                {
                    "internalType": "uint256",
                    "name": "_duration",
                    "type": "uint256"
                },
                {
                    "internalType": "uint256",
                    "name": "_goalType",
                    "type": "uint256"
                },
                {
                    "internalType": "address",
                    "name": "_token",
                    "type": "address"
                }
            ],
            "name": "modifyCampaignSettings",
            "outputs": [],
            "stateMutability": "nonpayable",
            "type": "function"
        },
        {
            "inputs": [
                {
                    "internalType": "uint256",
                    "name": "_categoryId",
                    "type": "uint256"
                },
                {
                    "internalType": "bool",
                    "name": "_active",
                    "type": "bool"
                }
            ],
            "name": "modifyCategory",
            "outputs": [],
            "stateMutability": "nonpayable",
            "type": "function"
        },
        {
            "inputs": [
                {
                    "internalType": "uint256",
                    "name": "_packageId",
                    "type": "uint256"
                },
                {
                    "internalType": "uint256",
                    "name": "_cost",
                    "type": "uint256"
                },
                {
                    "internalType": "uint256",
                    "name": "_time",
                    "type": "uint256"
                }
            ],
            "name": "modifyFeaturedPackage",
            "outputs": [],
            "stateMutability": "nonpayable",
            "type": "function"
        },
        {
            "inputs": [],
            "name": "pauseCampaign",
            "outputs": [],
            "stateMutability": "nonpayable",
            "type": "function"
        },
        {
            "inputs": [
                {
                    "internalType": "uint256",
                    "name": "_campaignId",
                    "type": "uint256"
                }
            ],
            "name": "pauseCampaignFeatured",
            "outputs": [],
            "stateMutability": "nonpayable",
            "type": "function"
        },
        {
            "inputs": [],
            "name": "paused",
            "outputs": [
                {
                    "internalType": "bool",
                    "name": "",
                    "type": "bool"
                }
            ],
            "stateMutability": "view",
            "type": "function"
        },
        {
            "inputs": [
                {
                    "internalType": "uint256",
                    "name": "",
                    "type": "uint256"
                }
            ],
            "name": "pausedFeaturedCampaignTimeLeft",
            "outputs": [
                {
                    "internalType": "uint256",
                    "name": "",
                    "type": "uint256"
                }
            ],
            "stateMutability": "view",
            "type": "function"
        },
        {
            "inputs": [
                {
                    "internalType": "uint256",
                    "name": "_amount",
                    "type": "uint256"
                },
                {
                    "internalType": "contract Campaign",
                    "name": "_campaign",
                    "type": "address"
                }
            ],
            "name": "receiveCampaignCommission",
            "outputs": [],
            "stateMutability": "nonpayable",
            "type": "function"
        },
        {
            "inputs": [
                {
                    "internalType": "address",
                    "name": "_account",
                    "type": "address"
                },
                {
                    "internalType": "bytes32",
                    "name": "_role",
                    "type": "bytes32"
                }
            ],
            "name": "removeRole",
            "outputs": [],
            "stateMutability": "nonpayable",
            "type": "function"
        },
        {
            "inputs": [],
            "name": "renounceAdmin",
            "outputs": [],
            "stateMutability": "nonpayable",
            "type": "function"
        },
        {
            "inputs": [
                {
                    "internalType": "bytes32",
                    "name": "role",
                    "type": "bytes32"
                },
                {
                    "internalType": "address",
                    "name": "account",
                    "type": "address"
                }
            ],
            "name": "renounceRole",
            "outputs": [],
            "stateMutability": "nonpayable",
            "type": "function"
        },
        {
            "inputs": [
                {
                    "internalType": "bytes32",
                    "name": "role",
                    "type": "bytes32"
                },
                {
                    "internalType": "address",
                    "name": "account",
                    "type": "address"
                }
            ],
            "name": "revokeRole",
            "outputs": [],
            "stateMutability": "nonpayable",
            "type": "function"
        },
        {
            "inputs": [],
            "name": "root",
            "outputs": [
                {
                    "internalType": "address",
                    "name": "",
                    "type": "address"
                }
            ],
            "stateMutability": "view",
            "type": "function"
        },
        {
            "inputs": [
                {
                    "internalType": "uint256",
                    "name": "_categoryId",
                    "type": "uint256"
                },
                {
                    "internalType": "uint256",
                    "name": "_commission",
                    "type": "uint256"
                }
            ],
            "name": "setCategoryCommission",
            "outputs": [],
            "stateMutability": "nonpayable",
            "type": "function"
        },
        {
            "inputs": [
                {
                    "internalType": "address payable",
                    "name": "_wallet",
                    "type": "address"
                },
                {
                    "internalType": "contract Campaign",
                    "name": "_implementation",
                    "type": "address"
                },
                {
                    "internalType": "uint256",
                    "name": "_commission",
                    "type": "uint256"
                },
                {
                    "internalType": "uint256",
                    "name": "_deadlineStrikesAllowed",
                    "type": "uint256"
                },
                {
                    "internalType": "uint256",
                    "name": "_maxDeadline",
                    "type": "uint256"
                },
                {
                    "internalType": "uint256",
                    "name": "_minDeadline",
                    "type": "uint256"
                },
                {
                    "internalType": "uint256",
                    "name": "_minimumContributionAllowed",
                    "type": "uint256"
                },
                {
                    "internalType": "uint256",
                    "name": "_maximumContributionAllowed",
                    "type": "uint256"
                },
                {
                    "internalType": "uint256",
                    "name": "_minRequestDuration",
                    "type": "uint256"
                },
                {
                    "internalType": "uint256",
                    "name": "_maxRequestDuration",
                    "type": "uint256"
                }
            ],
            "name": "setFactorySettings",
            "outputs": [],
            "stateMutability": "nonpayable",
            "type": "function"
        },
        {
            "inputs": [],
            "name": "signUp",
            "outputs": [],
            "stateMutability": "nonpayable",
            "type": "function"
        },
        {
            "inputs": [
                {
                    "internalType": "bytes4",
                    "name": "interfaceId",
                    "type": "bytes4"
                }
            ],
            "name": "supportsInterface",
            "outputs": [
                {
                    "internalType": "bool",
                    "name": "",
                    "type": "bool"
                }
            ],
            "stateMutability": "view",
            "type": "function"
        },
        {
            "inputs": [
                {
                    "internalType": "address",
                    "name": "_token",
                    "type": "address"
                },
                {
                    "internalType": "bool",
                    "name": "_state",
                    "type": "bool"
                }
            ],
            "name": "toggleAcceptedToken",
            "outputs": [],
            "stateMutability": "nonpayable",
            "type": "function"
        },
        {
            "inputs": [
                {
                    "internalType": "uint256",
                    "name": "_campaignId",
                    "type": "uint256"
                },
                {
                    "internalType": "bool",
                    "name": "_active",
                    "type": "bool"
                }
            ],
            "name": "toggleCampaignActive",
            "outputs": [],
            "stateMutability": "nonpayable",
            "type": "function"
        },
        {
            "inputs": [
                {
                    "internalType": "uint256",
                    "name": "_campaignId",
                    "type": "uint256"
                },
                {
                    "internalType": "bool",
                    "name": "_approval",
                    "type": "bool"
                }
            ],
            "name": "toggleCampaignApproval",
            "outputs": [],
            "stateMutability": "nonpayable",
            "type": "function"
        },
        {
            "inputs": [
                {
                    "internalType": "uint256",
                    "name": "_userId",
                    "type": "uint256"
                },
                {
                    "internalType": "bool",
                    "name": "_approval",
                    "type": "bool"
                }
            ],
            "name": "toggleUserApproval",
            "outputs": [],
            "stateMutability": "nonpayable",
            "type": "function"
        },
        {
            "inputs": [
                {
                    "internalType": "address",
                    "name": "",
                    "type": "address"
                }
            ],
            "name": "tokenInList",
            "outputs": [
                {
                    "internalType": "bool",
                    "name": "",
                    "type": "bool"
                }
            ],
            "stateMutability": "view",
            "type": "function"
        },
        {
            "inputs": [
                {
                    "internalType": "uint256",
                    "name": "",
                    "type": "uint256"
                }
            ],
            "name": "tokenList",
            "outputs": [
                {
                    "internalType": "address",
                    "name": "",
                    "type": "address"
                }
            ],
            "stateMutability": "view",
            "type": "function"
        },
        {
            "inputs": [
                {
                    "internalType": "address",
                    "name": "",
                    "type": "address"
                }
            ],
            "name": "tokensApproved",
            "outputs": [
                {
                    "internalType": "bool",
                    "name": "",
                    "type": "bool"
                }
            ],
            "stateMutability": "view",
            "type": "function"
        },
        {
            "inputs": [
                {
                    "internalType": "address",
                    "name": "_newOwner",
                    "type": "address"
                },
                {
                    "internalType": "contract Campaign",
                    "name": "_campaign",
                    "type": "address"
                }
            ],
            "name": "transferCampaignOwnership",
            "outputs": [],
            "stateMutability": "nonpayable",
            "type": "function"
        },
        {
            "inputs": [],
            "name": "unpauseCampaign",
            "outputs": [],
            "stateMutability": "nonpayable",
            "type": "function"
        },
        {
            "inputs": [
                {
                    "internalType": "uint256",
                    "name": "_campaignId",
                    "type": "uint256"
                }
            ],
            "name": "unpauseCampaignFeatured",
            "outputs": [],
            "stateMutability": "nonpayable",
            "type": "function"
        },
        {
            "inputs": [],
            "name": "userCount",
            "outputs": [
                {
                    "internalType": "uint256",
                    "name": "",
                    "type": "uint256"
                }
            ],
            "stateMutability": "view",
            "type": "function"
        },
        {
            "inputs": [
                {
                    "internalType": "address",
                    "name": "",
                    "type": "address"
                }
            ],
            "name": "userID",
            "outputs": [
                {
                    "internalType": "uint256",
                    "name": "",
                    "type": "uint256"
                }
            ],
            "stateMutability": "view",
            "type": "function"
        },
        {
            "inputs": [
                {
                    "internalType": "uint256",
                    "name": "",
                    "type": "uint256"
                }
            ],
            "name": "users",
            "outputs": [
                {
                    "internalType": "address",
                    "name": "userAddress",
                    "type": "address"
                },
                {
                    "internalType": "uint256",
                    "name": "joined",
                    "type": "uint256"
                },
                {
                    "internalType": "uint256",
                    "name": "updatedAt",
                    "type": "uint256"
                },
                {
                    "internalType": "bool",
                    "name": "verified",
                    "type": "bool"
                },
                {
                    "internalType": "bool",
                    "name": "exists",
                    "type": "bool"
                }
            ],
            "stateMutability": "view",
            "type": "function"
        }
    ],
    "bytecode": "608060405234801561001057600080fd5b50614622806100206000396000f3fe6080604052600436106104315760003560e01c806391d1485411610229578063bf96ae631161012e578063d5b6c20e116100b6578063e8147c691161007a578063e8147c6914610dd7578063ebf0c71714610df7578063eda7794e14610e17578063f2e9b87914610e45578063f7878c6914610e6557600080fd5b8063d5b6c20e14610d3b578063dc1a10c014610d5b578063de4e420114610d7b578063df46e21e14610d92578063dfef1f1f14610dc057600080fd5b8063ca68dfe4116100fd578063ca68dfe414610c9b578063cf8a84d014610cbb578063cfa4083014610cdb578063d48bfca714610cfb578063d547741f14610d1b57600080fd5b8063bf96ae6314610c21578063c5549cc014610c36578063c6c323fc14610c4d578063c9dc36fb14610c7b57600080fd5b8063a3303a75116101b1578063b1bba29b11610180578063b1bba29b14610b6a578063b30326db14610b81578063b444bba514610ba1578063b6e33abf14610bb7578063bc3d5a3014610c0157600080fd5b8063a3303a7514610ad9578063a55b3b3114610af9578063a73f7f8a14610b19578063a854274014610b3957600080fd5b80639ee25ae4116101f85780639ee25ae414610a345780639ff8466214610a4b578063a174743a14610a6b578063a217fddf14610aa2578063a313431914610ab757600080fd5b806391d14854146109b357806396a75664146109d357806398f11bce146109e65780639ead722214610a1457600080fd5b806336568abe1161033a5780635fd0b69f116102c25780636977aa34116102865780636977aa34146109395780637274e30d1461095057806381994d041461096757806384f77577146109875780638bad0c0a1461099e57600080fd5b80635fd0b69f146108445780636219fe3d1461089057806362a6e065146108c157806367480d35146108f95780636853920e1461091957600080fd5b806348b30e351161030957806348b30e351461079a5780634f9de6e2146107bc57806350450930146107de578063513b378b1461080c5780635c975abb1461082c57600080fd5b806336568abe146106e4578063365b98b2146107045780633a6ce95e1461075a5780633d693d1c1461077a57600080fd5b80631c8e541b116103bd57806324ba73a21161038c57806324ba73a2146105f85780632be32dbb146106185780632f2ff15d1461062f578063339d50a51461064f5780633523100c146106c457600080fd5b80631c8e541b1461056257806320966f22146105775780632188497e146105a8578063248a9ca3146105c857600080fd5b806308142b851161040457806308142b85146104c9578063088821b6146104df578063092093d8146104ff5780630d10f3b51461051f5780631aa2f9d71461053457600080fd5b806301ffc9a714610436578063035115741461046b57806304697b341461049057806307973ccf146104b2575b600080fd5b34801561044257600080fd5b50610456610451366004614243565b610e85565b60405190151581526020015b60405180910390f35b34801561047757600080fd5b506104826101045481565b604051908152602001610462565b34801561049c57600080fd5b506104b06104ab366004614080565b610ebc565b005b3480156104be57600080fd5b506104826101165481565b3480156104d557600080fd5b5061048260ff5481565b3480156104eb57600080fd5b506104b06104fa3660046142f0565b6110ad565b34801561050b57600080fd5b506104b061051a3660046142cb565b611110565b34801561052b57600080fd5b506104b0611239565b34801561054057600080fd5b5061048261054f366004614205565b6101126020526000908152604090205481565b34801561056e57600080fd5b506104b061127a565b34801561058357600080fd5b50610456610592366004614080565b61010a6020526000908152604090205460ff1681565b3480156105b457600080fd5b506104b06105c3366004614205565b6112b8565b3480156105d457600080fd5b506104826105e3366004614205565b60009081526065602052604090206001015490565b34801561060457600080fd5b506104b0610613366004614138565b6113a5565b34801561062457600080fd5b506104826101145481565b34801561063b57600080fd5b506104b061064a36600461421e565b61140b565b34801561065b57600080fd5b5061066f61066a366004614205565b611436565b604080516001600160a01b039a8b1681529990981660208a0152968801959095526060870193909352608086019190915260a0850152151560c0840152151560e0830152151561010082015261012001610462565b3480156106d057600080fd5b506104b06106df366004614205565b6114a9565b3480156106f057600080fd5b506104b06106ff36600461421e565b6115bf565b34801561071057600080fd5b5061072461071f366004614205565b611639565b604080516001600160a01b039096168652602086019490945292840191909152151560608301521515608082015260a001610462565b34801561076657600080fd5b506104b061077536600461426d565b61168a565b34801561078657600080fd5b506104b061079536600461434b565b61174f565b3480156107a657600080fd5b506104826000805160206145ad83398151915281565b3480156107c857600080fd5b506104826000805160206145cd83398151915281565b3480156107ea57600080fd5b506104826107f9366004614205565b61010b6020526000908152604090205481565b34801561081857600080fd5b506104b0610827366004614080565b611873565b34801561083857600080fd5b5060975460ff16610456565b34801561085057600080fd5b5061086461085f366004614205565b611a6b565b60408051958652602086019490945292840191909152151560608301521515608082015260a001610462565b34801561089c57600080fd5b506104566108ab366004614205565b6101116020526000908152604090205460ff1681565b3480156108cd57600080fd5b5060fd546108e1906001600160a01b031681565b6040516001600160a01b039091168152602001610462565b34801561090557600080fd5b506104b061091436600461419d565b611ab2565b34801561092557600080fd5b506104b0610934366004614171565b611c36565b34801561094557600080fd5b506104826101005481565b34801561095c57600080fd5b5061048261010e5481565b34801561097357600080fd5b5060fc546108e1906001600160a01b031681565b34801561099357600080fd5b506104826101015481565b3480156109aa57600080fd5b506104b0611c54565b3480156109bf57600080fd5b506104566109ce36600461421e565b611c5f565b6104b06109e1366004614312565b611c8a565b3480156109f257600080fd5b50610482610a01366004614205565b6101086020526000908152604090205481565b348015610a2057600080fd5b506108e1610a2f366004614205565b61205d565b348015610a4057600080fd5b506104826101065481565b348015610a5757600080fd5b506104b0610a66366004614205565b612088565b348015610a7757600080fd5b506108e1610a86366004614080565b61010f602052600090815260409020546001600160a01b031681565b348015610aae57600080fd5b50610482600081565b348015610ac357600080fd5b5061048260008051602061458d83398151915281565b348015610ae557600080fd5b506104b0610af4366004614205565b612164565b348015610b0557600080fd5b506104b0610b14366004614205565b612570565b348015610b2557600080fd5b506104b0610b34366004614171565b612770565b348015610b4557600080fd5b50610456610b54366004614080565b6101096020526000908152604090205460ff1681565b348015610b7657600080fd5b506104826101195481565b348015610b8d57600080fd5b506104b0610b9c3660046141cb565b61278e565b348015610bad57600080fd5b5061048260fe5481565b348015610bc357600080fd5b50610bd7610bd2366004614205565b612928565b6040805195865260208601949094529284019190915260608301521515608082015260a001610462565b348015610c0d57600080fd5b506104b0610c1c366004614205565b61296d565b348015610c2d57600080fd5b506104b0612b60565b348015610c4257600080fd5b506104826101035481565b348015610c5957600080fd5b50610482610c68366004614080565b6101106020526000908152604090205481565b348015610c8757600080fd5b506104b0610c963660046142cb565b612d07565b348015610ca757600080fd5b506104b0610cb63660046142f0565b612e24565b348015610cc757600080fd5b506104b0610cd6366004614205565b613095565b348015610ce757600080fd5b506104b0610cf63660046142cb565b613193565b348015610d0757600080fd5b506104b0610d16366004614080565b6132af565b348015610d2757600080fd5b506104b0610d3636600461421e565b613353565b348015610d4757600080fd5b506104b0610d563660046142cb565b613379565b348015610d6757600080fd5b506104b0610d763660046142f0565b6134f0565b348015610d8757600080fd5b506104826101025481565b348015610d9e57600080fd5b50610482610dad366004614205565b61010c6020526000908152604090205481565b348015610dcc57600080fd5b506104826101055481565b348015610de357600080fd5b506104b0610df236600461421e565b61368e565b348015610e0357600080fd5b5060fb546108e1906001600160a01b031681565b348015610e2357600080fd5b50610482610e32366004614080565b6101176020526000908152604090205481565b348015610e5157600080fd5b506104b0610e603660046140ba565b613854565b348015610e7157600080fd5b50610456610e80366004614080565b6138ed565b60006001600160e01b03198216637965db0b60e01b1480610eb657506301ffc9a760e01b6001600160e01b03198316145b92915050565b600054610100900460ff1680610ed5575060005460ff16155b610f3d5760405162461bcd60e51b815260206004820152602e60248201527f496e697469616c697a61626c653a20636f6e747261637420697320616c72656160448201526d191e481a5b9a5d1a585b1a5e995960921b60648201526084015b60405180910390fd5b600054610100900460ff16158015610f5f576000805461ffff19166101011790555b6001600160a01b038216610f7257600080fd5b60fb8054336001600160a01b0319918216811790925560fc80549091166001600160a01b0385161790556101f460fe55600360ff5562093a80610102556201518061010355610fa0610100556503a35294400061010155610fd590600090613907565b60fb54610ffa9060008051602061458d833981519152906001600160a01b0316613907565b60fb5461101f906000805160206145cd833981519152906001600160a01b0316613907565b60fb54611044906000805160206145ad833981519152906001600160a01b0316613907565b61105d60008051602061458d8339815191526000613911565b6110766000805160206145cd8339815191526000613911565b61108f6000805160206145ad8339815191526000613911565b611097612b60565b80156110a9576000805461ff00191690555b5050565b6110b8600033611c5f565b6110c157600080fd5b61011382815481106110d5576110d561453a565b906000526020600020906004020160030160019054906101000a900460ff166110fd57600080fd5b6000918252610108602052604090912055565b6000805160206145ad8339815191526111298133611c5f565b61113257600080fd5b60975460ff16156111555760405162461bcd60e51b8152600401610f3490614469565b61011583815481106111695761116961453a565b906000526020600020906004020160030160019054906101000a900460ff1661119157600080fd5b8161011584815481106111a6576111a661453a565b906000526020600020906004020160030160006101000a81548160ff0219169083151502179055504261011584815481106111e3576111e361453a565b906000526020600020906004020160020181905550827ff6d4cc61c27bf15b63009a422974ee13173b39d8d6fd4c612b7fa052b881508d8360405161122c911515815260200190565b60405180910390a2505050565b60975460ff161561125c5760405162461bcd60e51b8152600401610f3490614469565b611267600033611c5f565b61127057600080fd5b611278613965565b565b60975460ff1661129c5760405162461bcd60e51b8152600401610f349061443b565b6112a7600033611c5f565b6112b057600080fd5b6112786139da565b60008051602061458d8339815191526112d18133611c5f565b6112da57600080fd5b60975460ff16156112fd5760405162461bcd60e51b8152600401610f3490614469565b61011382815481106113115761131161453a565b906000526020600020906004020160030160019054906101000a900460ff1661133957600080fd5b610113828154811061134d5761134d61453a565b6000918252602082206004909102018181556001810182905560028101829055600301805461ffff1916905560405183917f8655e3bcdeed014f0450256d035679508fdbdabc14ae183d9115f8269b79792991a25050565b6113b0600033611c5f565b6113b957600080fd5b6001600160a01b0382166000908152610109602052604090205460ff166113df57600080fd5b6001600160a01b0391909116600090815261010a60205260409020805460ff1916911515919091179055565b6000828152606560205260409020600101546114278133613a2d565b6114318383613a91565b505050565b61010d818154811061144757600080fd5b600091825260209091206007909102018054600182015460028301546003840154600485015460058601546006909601546001600160a01b039586169750949093169491939092919060ff808216916101008104821691620100009091041689565b6000805160206145cd8339815191526114c28133611c5f565b6114cb57600080fd5b8161010d81815481106114e0576114e061453a565b906000526020600020906007020160060160029054906101000a900460ff1661150857600080fd5b60975460ff161561152b5760405162461bcd60e51b8152600401610f3490614469565b61010d838154811061153f5761153f61453a565b60009182526020822060079091020180546001600160a01b03199081168255600182018054909116905560028101829055600381018290556004810182905560058101829055600601805462ffffff1916905560405184917f95e5772afc2824be1c5259b0f29d08cd4bd894dbbdd4cf4746b77bd30aae9c2091a2505050565b6001600160a01b038116331461162f5760405162461bcd60e51b815260206004820152602f60248201527f416363657373436f6e74726f6c3a2063616e206f6e6c792072656e6f756e636560448201526e103937b632b9903337b91039b2b63360891b6064820152608401610f34565b6110a98282613b17565b610115818154811061164a57600080fd5b600091825260209091206004909102018054600182015460028301546003909301546001600160a01b039092169350919060ff8082169161010090041685565b6000805160206145cd8339815191526116a38133611c5f565b6116ac57600080fd5b60975460ff16156116cf5760405162461bcd60e51b8152600401610f3490614469565b604051630ef6373d60e01b8152600481018790526024810186905260448101859052606481018490526001600160a01b038381166084830152881690630ef6373d9060a401600060405180830381600087803b15801561172e57600080fd5b505af1158015611742573d6000803e3d6000fd5b5050505050505050505050565b61175a600033611c5f565b61176357600080fd5b60975460ff16156117865760405162461bcd60e51b8152600401610f3490614469565b610118838154811061179a5761179a61453a565b600091825260209091206004600590920201015460ff166117ba57600080fd5b8161011884815481106117cf576117cf61453a565b9060005260206000209060050201600301819055508061011884815481106117f9576117f961453a565b9060005260206000209060050201600201819055504261011884815481106118235761182361453a565b906000526020600020906005020160010181905550827fe17359f0c01c6d890cbb90a58af61a3557264370de81bb9cf10e7e81bd66bd29838360405161122c929190918252602082015260400190565b6001600160a01b0381166000908152610110602052604081205461010d80549192339261010f9290859081106118ab576118ab61453a565b600091825260208083206007909202909101546001600160a01b03908116845290830193909352604090910190205416146118e557600080fd5b6001600160a01b0382166000908152610110602052604090205461010d8054829081106119145761191461453a565b906000526020600020906007020160060160029054906101000a900460ff1661193c57600080fd5b3360008181526101176020526040902054610115805490919081106119635761196361453a565b600091825260209091206003600490920201015460ff1661198357600080fd5b60975460ff166119a55760405162461bcd60e51b8152600401610f349061443b565b6001600160a01b0384166000908152610110602052604090205461010d8054829081106119d4576119d461453a565b906000526020600020906007020160060160019054906101000a900460ff16158015611a28575061010d8181548110611a0f57611a0f61453a565b600091825260209091206006600790920201015460ff16155b611a3157600080fd5b6040518181527ff2da6265155ad3f6e63d56e8127dc7d540b864cd554e3d8ce964ec1bdace87009060200160405180910390a15050505050565b6101138181548110611a7c57600080fd5b60009182526020909120600490910201805460018201546002830154600390930154919350919060ff8082169161010090041685565b6000805160206145cd833981519152611acb8133611c5f565b611ad457600080fd5b60975460ff1615611af75760405162461bcd60e51b8152600401610f3490614469565b826001600160a01b0316826001600160a01b031663ebf0c7176040518163ffffffff1660e01b815260040160206040518083038186803b158015611b3a57600080fd5b505afa158015611b4e573d6000803e3d6000fd5b505050506040513d601f19601f82011682018060405250810190611b72919061409d565b6001600160a01b031614611b8557600080fd5b6001600160a01b0382166000908152610110602052604081205461010d80549091908110611bb557611bb561453a565b60009182526020808320600160079093020191820180546001600160a01b03808a166001600160a01b031992831681179093554260038601558816855261010f9092526040808520805490931682179092559051919350917fb8f4731f98dd4e7d1a4c4ca65b7350599fc98635b37196f3c0a79b684d34030f91a250505050565b611c41600033611c5f565b611c4a57600080fd5b6110a98183613353565b6112786000336115bf565b60009182526065602090815260408084206001600160a01b0393909316845291905290205460ff1690565b82336001600160a01b031661010f600061010d8481548110611cae57611cae61453a565b600091825260208083206007909202909101546001600160a01b039081168452908301939093526040909101902054161480611cfd5750611cfd6000805160206145cd83398151915233611c5f565b611d0657600080fd5b8361010d8181548110611d1b57611d1b61453a565b906000526020600020906007020160060160029054906101000a900460ff16611d4357600080fd5b8461010d8181548110611d5857611d5861453a565b906000526020600020906007020160060160019054906101000a900460ff168015611daa575061010d8181548110611d9257611d9261453a565b600091825260209091206006600790920201015460ff165b611db357600080fd5b336000818152610117602052604090205461011580549091908110611dda57611dda61453a565b600091825260209091206003600490920201015460ff16611dfa57600080fd5b60975460ff1615611e1d5760405162461bcd60e51b8152600401610f3490614469565b600260c9541415611e705760405162461bcd60e51b815260206004820152601f60248201527f5265656e7472616e637947756172643a207265656e7472616e742063616c6c006044820152606401610f34565b600260c9556001600160a01b038516600090815261010a602052604090205460ff16611e9b57600080fd5b6101188681548110611eaf57611eaf61453a565b600091825260209091206004600590920201015460ff16611ecf57600080fd5b6101188681548110611ee357611ee361453a565b906000526020600020906005020160030154341015611f0157600080fd5b61010654611f0f9034613b7e565b61010655600087815261010c6020526040902054611f2d9034613b7e565b600088815261010c60205260409020556101188054611fa9914291611fa391908a908110611f5d57611f5d61453a565b90600052602060002090600502016002015461010d8b81548110611f8357611f8361453a565b906000526020600020906007020160050154613b7e90919063ffffffff16565b90613b7e565b61010d8881548110611fbd57611fbd61453a565b9060005260206000209060070201600501819055504261010d8881548110611fe757611fe761453a565b600091825260209091206003600790920201015560fc5461201590869033906001600160a01b031634613b91565b6040805187815234602082015288917f3fe573245584c05c91c80efb913ec0d6fcfdd46dcffa3bc8c37dae9a5c1e5e50910160405180910390a25050600160c9555050505050565b610107818154811061206e57600080fd5b6000918252602090912001546001600160a01b0316905081565b612093600033611c5f565b61209c57600080fd5b60975460ff16156120bf5760405162461bcd60e51b8152600401610f3490614469565b61011881815481106120d3576120d361453a565b600091825260209091206004600590920201015460ff166120f357600080fd5b61011881815481106121075761210761453a565b600091825260208220600590910201818155600181018290556002810182905560038101829055600401805460ff1916905560405182917f83e318f8f48c60fdae5872a0b72651cd9aa76dd35e278073a419af2a02fe748b91a250565b33600081815261011760205260409020546101158054909190811061218b5761218b61453a565b600091825260209091206003600490920201015460ff166121ab57600080fd5b60975460ff16156121ce5760405162461bcd60e51b8152600401610f3490614469565b61011382815481106121e2576121e261453a565b906000526020600020906004020160030160019054906101000a900460ff1680156122345750610113828154811061221c5761221c61453a565b600091825260209091206003600490920201015460ff165b61223d57600080fd5b60fd54600090612255906001600160a01b0316613bf1565b90506000604051806101200160405280836001600160a01b03168152602001336001600160a01b03168152602001428152602001600081526020018581526020016000815260200160001515815260200160001515815260200160011515815250905061010d81908060018154018082558091505060019003906000526020600020906007020160009091909190915060008201518160000160006101000a8154816001600160a01b0302191690836001600160a01b0316021790555060208201518160010160006101000a8154816001600160a01b0302191690836001600160a01b0316021790555060408201518160020155606082015181600301556080820151816004015560a0820151816005015560c08201518160060160006101000a81548160ff02191690831515021790555060e08201518160060160016101000a81548160ff0219169083151502179055506101008201518160060160026101000a81548160ff02191690831515021790555050503361010f6000846001600160a01b03166001600160a01b0316815260200190815260200160002060006101000a8154816001600160a01b0302191690836001600160a01b031602179055506000612431600161010d80549050613c8e90919063ffffffff16565b6001600160a01b038416600090815261011060205260409020819055610113805491925061248491600191908890811061246d5761246d61453a565b600091825260209091206004909102015490613b7e565b61011386815481106124985761249861453a565b600091825260209091206004909102015561010e546124b8906001613b7e565b61010e55604051631488d77760e31b81523060048201523360248201526001600160a01b0384169063a446bbb890604401600060405180830381600087803b15801561250357600080fd5b505af1158015612517573d6000803e3d6000fd5b505033600090815261011760209081526040918290205482519081529081018990528493507f748930993db163c72a6ba21b8924b56908a54b4030f8d99a23458a819f6358da9250015b60405180910390a25050505050565b80336001600160a01b031661010f600061010d84815481106125945761259461453a565b600091825260208083206007909202909101546001600160a01b0390811684529083019390935260409091019020541614806125e357506125e36000805160206145cd83398151915233611c5f565b6125ec57600080fd5b8161010d81815481106126015761260161453a565b906000526020600020906007020160060160029054906101000a900460ff1661262957600080fd5b3360008181526101176020526040902054610115805490919081106126505761265061453a565b600091825260209091206003600490920201015460ff1661267057600080fd5b60975460ff16156126935760405162461bcd60e51b8152600401610f3490614469565b4261010d85815481106126a8576126a861453a565b90600052602060002090600702016005015410156126c557600080fd5b6000848152610111602052604090205460ff16156126e257600080fd5b61271a4261010d86815481106126fa576126fa61453a565b906000526020600020906007020160050154613c8e90919063ffffffff16565b600085815261011260209081526040808320939093556101119052818120805460ff19166001179055905185917f82d28f000cd4c874884b2707c023c6520d6e816216b64db2c9dc841607fb1bc891a250505050565b61277b600033611c5f565b61278457600080fd5b6110a9818361140b565b60008051602061458d8339815191526127a78133611c5f565b6127b057600080fd5b60975460ff16156127d35760405162461bcd60e51b8152600401610f3490614469565b6040805160a081018252600080825242602083019081529282018181528515156060840190815260016080850181815261011380548084018255955285517f1af827780c8eead77dc5a11451291f18043aa94313f832de8f85d1d7264809cc60049096029586015595517f1af827780c8eead77dc5a11451291f18043aa94313f832de8f85d1d7264809cd85015591517f1af827780c8eead77dc5a11451291f18043aa94313f832de8f85d1d7264809ce840155517f1af827780c8eead77dc5a11451291f18043aa94313f832de8f85d1d7264809cf9092018054945161ffff1990951692151561ff00191692909217610100941515949094029390931790556101145490916128e39190613b7e565b61011455610113546128f6906001613c8e565b60405184151581527fef8e5354aa4d7ec987c76ec8aa61eaaf4452bb146edd20fca8e52531b3dddbb89060200161122c565b610118818154811061293957600080fd5b6000918252602090912060059091020180546001820154600283015460038401546004909401549294509092909160ff1685565b80336001600160a01b031661010f600061010d84815481106129915761299161453a565b600091825260208083206007909202909101546001600160a01b0390811684529083019390935260409091019020541614806129e057506129e06000805160206145cd83398151915233611c5f565b6129e957600080fd5b8161010d81815481106129fe576129fe61453a565b906000526020600020906007020160060160029054906101000a900460ff16612a2657600080fd5b336000818152610117602052604090205461011580549091908110612a4d57612a4d61453a565b600091825260209091206003600490920201015460ff16612a6d57600080fd5b60975460ff1615612a905760405162461bcd60e51b8152600401610f3490614469565b6000848152610111602052604090205460ff16612aac57600080fd5b600084815261011160209081526040808320805460ff1916905561011290915290205461010d8054612aea92919087908110611f8357611f8361453a565b61010d8581548110612afe57612afe61453a565b6000918252602080832060079290920290910160050192909255858152610112825260408082208290555190815285917f927407ab4b40ffd5fb5377f8fbece3dc25b2b015996d2073ea0cb7d3d144501c91015b60405180910390a250505050565b60975460ff1615612b835760405162461bcd60e51b8152600401610f3490614469565b6040805160a0810182523381524260208201908152600092820183815260608301848152600160808501818152610115805480840182559781905295517f77886ee853a0f02c8259429c7bfca08679ca3ab8bdec2c3bd5cca8557e06493a600490980297880180546001600160a01b0319166001600160a01b0390921691909117905593517f77886ee853a0f02c8259429c7bfca08679ca3ab8bdec2c3bd5cca8557e06493b87015591517f77886ee853a0f02c8259429c7bfca08679ca3ab8bdec2c3bd5cca8557e06493c860155517f77886ee853a0f02c8259429c7bfca08679ca3ab8bdec2c3bd5cca8557e06493d9094018054925161ffff1990931694151561ff00191694909417610100921515929092029190911790925554612ca991613c8e565b336000908152610117602052604090205561011654612cc9906001613b7e565b6101165561011554612cdc906001613c8e565b6040517f27412bb19840b11057dee7c7019767312555c4497d8d4c2383fa6b7791bf014b90600090a2565b6000805160206145cd833981519152612d208133611c5f565b612d2957600080fd5b8261010d8181548110612d3e57612d3e61453a565b906000526020600020906007020160060160029054906101000a900460ff16612d6657600080fd5b60975460ff1615612d895760405162461bcd60e51b8152600401610f3490614469565b8261010d8581548110612d9e57612d9e61453a565b906000526020600020906007020160060160016101000a81548160ff0219169083151502179055504261010d8581548110612ddb57612ddb61453a565b906000526020600020906007020160030181905550837fb19793156c2b66d3cdcada0ec63ea2961a44bf70901294973cc2f7848970634e84604051612b52911515815260200190565b81336001600160a01b031661010f600061010d8481548110612e4857612e4861453a565b600091825260208083206007909202909101546001600160a01b039081168452908301939093526040909101902054161480612e975750612e976000805160206145cd83398151915233611c5f565b612ea057600080fd5b8261010d8181548110612eb557612eb561453a565b906000526020600020906007020160060160029054906101000a900460ff16612edd57600080fd5b60975460ff1615612f005760405162461bcd60e51b8152600401610f3490614469565b600061010d8581548110612f1657612f1661453a565b906000526020600020906007020160040154905083811461308e576101138481548110612f4557612f4561453a565b906000526020600020906004020160030160019054906101000a900460ff16612f6d57600080fd5b8361010d8681548110612f8257612f8261453a565b906000526020600020906007020160040181905550612fc760016101138381548110612fb057612fb061453a565b600091825260209091206004909102015490613c8e565b6101138281548110612fdb57612fdb61453a565b9060005260206000209060040201600001819055506130096001610113868154811061246d5761246d61453a565b610113858154811061301d5761301d61453a565b9060005260206000209060040201600001819055504261010d86815481106130475761304761453a565b906000526020600020906007020160030181905550847f766a4f113e498f514dcf4973e7b53c52d3f831566f24a46d16b6a9e60f0dcaf18560405161256191815260200190565b5050505050565b6000805160206145ad8339815191526130ae8133611c5f565b6130b757600080fd5b60975460ff16156130da5760405162461bcd60e51b8152600401610f3490614469565b600061011583815481106130f0576130f061453a565b906000526020600020906004020190508060030160019054906101000a900460ff1661311b57600080fd5b610115838154811061312f5761312f61453a565b60009182526020822060049091020180546001600160a01b03191681556001810182905560028101829055600301805461ffff1916905560405184917fab24b62fd8ab41107c600afaa5e4d6e14f64f253a96e231e221809b6cc7c46a691a2505050565b60008051602061458d8339815191526131ac8133611c5f565b6131b557600080fd5b60975460ff16156131d85760405162461bcd60e51b8152600401610f3490614469565b61011383815481106131ec576131ec61453a565b906000526020600020906004020160030160019054906101000a900460ff1661321457600080fd5b8161011384815481106132295761322961453a565b906000526020600020906004020160030160006101000a81548160ff0219169083151502179055504261011384815481106132665761326661453a565b906000526020600020906004020160020181905550827f1da4183068786bd796a4c72678cf3791931cb770a2092ad635254877a940ab9e8360405161122c911515815260200190565b6132ba600033611c5f565b6132c357600080fd5b6001600160a01b0381166000908152610109602052604090205460ff16156132ea57600080fd5b610107805460018181019092557f47c4908e245f386bfc1825973249847f4053a761ddb4880ad63c323a7b5a2a250180546001600160a01b039093166001600160a01b03199093168317905560009182526101096020526040909120805460ff19169091179055565b60008281526065602052604090206001015461336f8133613a2d565b6114318383613b17565b81336001600160a01b031661010f600061010d848154811061339d5761339d61453a565b600091825260208083206007909202909101546001600160a01b0390811684529083019390935260409091019020541614806133ec57506133ec6000805160206145cd83398151915233611c5f565b6133f557600080fd5b8261010d818154811061340a5761340a61453a565b906000526020600020906007020160060160029054906101000a900460ff1661343257600080fd5b60975460ff16156134555760405162461bcd60e51b8152600401610f3490614469565b8261010d858154811061346a5761346a61453a565b906000526020600020906007020160060160006101000a81548160ff0219169083151502179055504261010d85815481106134a7576134a761453a565b906000526020600020906007020160030181905550837f8e5684140bbc2280b632ddc33889d57f6105d80ad9b5e8042eea7ee2cdbf789584604051612b52911515815260200190565b6134fb600033611c5f565b61350457600080fd5b60975460ff16156135275760405162461bcd60e51b8152600401610f3490614469565b6040805160a0810182524281526000602082018181529282018481526060830186815260016080850181815261011880548084018255955294517f98e7deb247cc158d01ecf635e1727d4c1ad65177ed51d3c365b299b8a5e12e2460059095029485015594517f98e7deb247cc158d01ecf635e1727d4c1ad65177ed51d3c365b299b8a5e12e2584015590517f98e7deb247cc158d01ecf635e1727d4c1ad65177ed51d3c365b299b8a5e12e26830155517f98e7deb247cc158d01ecf635e1727d4c1ad65177ed51d3c365b299b8a5e12e2782015590517f98e7deb247cc158d01ecf635e1727d4c1ad65177ed51d3c365b299b8a5e12e28909101805460ff19169115159190911790556101195461363e91613b7e565b6101195561011854613651906001613c8e565b60408051848152602081018490527f1c879e94b1e18a1a756e3f54417588907394c58d3aa6a0cc5119e5fabc091bfc910160405180910390a25050565b6001600160a01b0381166000908152610110602052604081205461010d80549192339261010f9290859081106136c6576136c661453a565b600091825260208083206007909202909101546001600160a01b039081168452908301939093526040909101902054161461370057600080fd5b6001600160a01b0382166000908152610110602052604090205461010d80548290811061372f5761372f61453a565b906000526020600020906007020160060160019054906101000a900460ff168015613781575061010d81815481106137695761376961453a565b600091825260209091206006600790920201015460ff165b61378a57600080fd5b6001600160a01b0383166000908152610110602052604090205461010d8054829081106137b9576137b961453a565b906000526020600020906007020160060160029054906101000a900460ff166137e157600080fd5b6001600160a01b03841660009081526101106020908152604080832054835261010b9091529020546138139086613b7e565b6001600160a01b03851660009081526101106020908152604080832054835261010b909152902055610106546138499086613b7e565b610106555050505050565b61385f600033611c5f565b61386857600080fd5b6001600160a01b038a161580159061388857506001600160a01b03891615155b61389157600080fd5b60fc80546001600160a01b039b8c166001600160a01b03199182161790915560fd80549a909b1699169890981790985560fe9590955560ff93909355610102919091556101035561010055610101556101049190915561010555565b6000610eb66000805160206145cd83398151915283611c5f565b6110a98282613a91565b600082815260656020526040902060010154819060405184907fbd79b86ffe0ab8e8776151514217cd7cacd52c909f66475c3af44e129f0b00ff90600090a460009182526065602052604090912060010155565b60975460ff16156139885760405162461bcd60e51b8152600401610f3490614469565b6097805460ff191660011790557f62e78cea01bee320cd4e420270b5ea74000d11b0c9f74754ebdbfc544b05a2586139bd3390565b6040516001600160a01b03909116815260200160405180910390a1565b60975460ff166139fc5760405162461bcd60e51b8152600401610f349061443b565b6097805460ff191690557f5db9ee0a495bf2e6ff9c91a7834c1ba4fdd244a5e8aa4e537bd38aeae4b073aa336139bd565b613a378282611c5f565b6110a957613a4f816001600160a01b03166014613c9a565b613a5a836020613c9a565b604051602001613a6b929190614393565b60408051601f198184030181529082905262461bcd60e51b8252610f3491600401614408565b613a9b8282611c5f565b6110a95760008281526065602090815260408083206001600160a01b03851684529091529020805460ff19166001179055613ad33390565b6001600160a01b0316816001600160a01b0316837f2f8788117e7eff1d82e926ec794901d17c78024a50270940304540a733656f0d60405160405180910390a45050565b613b218282611c5f565b156110a95760008281526065602090815260408083206001600160a01b0385168085529252808320805460ff1916905551339285917ff6391f5c32d9c69d2a47ea670b442974b53935d1edc7fd64eb21e047a839171b9190a45050565b6000613b8a8284614493565b9392505050565b604080516001600160a01b0385811660248301528416604482015260648082018490528251808303909101815260849091019091526020810180516001600160e01b03166323b872dd60e01b179052613beb908590613e36565b50505050565b6000604051733d602d80600a3d3981f3363d3d373d3d3d363d7360601b81528260601b60148201526e5af43d82803e903d91602b57fd5bf360881b60288201526037816000f09150506001600160a01b038116613c895760405162461bcd60e51b8152602060048201526016602482015275115490cc4c4d8dce8818dc99585d194819985a5b195960521b6044820152606401610f34565b919050565b6000613b8a82846144ca565b60606000613ca98360026144ab565b613cb4906002614493565b67ffffffffffffffff811115613ccc57613ccc614550565b6040519080825280601f01601f191660200182016040528015613cf6576020820181803683370190505b509050600360fc1b81600081518110613d1157613d1161453a565b60200101906001600160f81b031916908160001a905350600f60fb1b81600181518110613d4057613d4061453a565b60200101906001600160f81b031916908160001a9053506000613d648460026144ab565b613d6f906001614493565b90505b6001811115613de7576f181899199a1a9b1b9c1cb0b131b232b360811b85600f1660108110613da357613da361453a565b1a60f81b828281518110613db957613db961453a565b60200101906001600160f81b031916908160001a90535060049490941c93613de08161450d565b9050613d72565b508315613b8a5760405162461bcd60e51b815260206004820181905260248201527f537472696e67733a20686578206c656e67746820696e73756666696369656e746044820152606401610f34565b6000613e8b826040518060400160405280602081526020017f5361666545524332303a206c6f772d6c6576656c2063616c6c206661696c6564815250856001600160a01b0316613f089092919063ffffffff16565b8051909150156114315780806020019051810190613ea991906141e8565b6114315760405162461bcd60e51b815260206004820152602a60248201527f5361666545524332303a204552433230206f7065726174696f6e20646964206e6044820152691bdd081cdd58d8d9595960b21b6064820152608401610f34565b6060613f178484600085613f1f565b949350505050565b606082471015613f805760405162461bcd60e51b815260206004820152602660248201527f416464726573733a20696e73756666696369656e742062616c616e636520666f6044820152651c8818d85b1b60d21b6064820152608401610f34565b843b613fce5760405162461bcd60e51b815260206004820152601d60248201527f416464726573733a2063616c6c20746f206e6f6e2d636f6e74726163740000006044820152606401610f34565b600080866001600160a01b03168587604051613fea9190614377565b60006040518083038185875af1925050503d8060008114614027576040519150601f19603f3d011682016040523d82523d6000602084013e61402c565b606091505b509150915061403c828286614047565b979650505050505050565b60608315614056575081613b8a565b8251156140665782518084602001fd5b8160405162461bcd60e51b8152600401610f349190614408565b60006020828403121561409257600080fd5b8135613b8a81614566565b6000602082840312156140af57600080fd5b8151613b8a81614566565b6000806000806000806000806000806101408b8d0312156140da57600080fd5b8a356140e581614566565b995060208b01356140f581614566565b999c999b505050506040880135976060810135976080820135975060a0820135965060c0820135955060e082013594506101008201359350610120909101359150565b6000806040838503121561414b57600080fd5b823561415681614566565b915060208301356141668161457e565b809150509250929050565b6000806040838503121561418457600080fd5b823561418f81614566565b946020939093013593505050565b600080604083850312156141b057600080fd5b82356141bb81614566565b9150602083013561416681614566565b6000602082840312156141dd57600080fd5b8135613b8a8161457e565b6000602082840312156141fa57600080fd5b8151613b8a8161457e565b60006020828403121561421757600080fd5b5035919050565b6000806040838503121561423157600080fd5b82359150602083013561416681614566565b60006020828403121561425557600080fd5b81356001600160e01b031981168114613b8a57600080fd5b60008060008060008060c0878903121561428657600080fd5b863561429181614566565b95506020870135945060408701359350606087013592506080870135915060a08701356142bd81614566565b809150509295509295509295565b600080604083850312156142de57600080fd5b8235915060208301356141668161457e565b6000806040838503121561430357600080fd5b50508035926020909101359150565b60008060006060848603121561432757600080fd5b8335925060208401359150604084013561434081614566565b809150509250925092565b60008060006060848603121561436057600080fd5b505081359360208301359350604090920135919050565b600082516143898184602087016144e1565b9190910192915050565b7f416363657373436f6e74726f6c3a206163636f756e74200000000000000000008152600083516143cb8160178501602088016144e1565b7001034b99036b4b9b9b4b733903937b6329607d1b60179184019182015283516143fc8160288401602088016144e1565b01602801949350505050565b60208152600082518060208401526144278160408501602087016144e1565b601f01601f19169190910160400192915050565b60208082526014908201527314185d5cd8589b194e881b9bdd081c185d5cd95960621b604082015260600190565b60208082526010908201526f14185d5cd8589b194e881c185d5cd95960821b604082015260600190565b600082198211156144a6576144a6614524565b500190565b60008160001904831182151516156144c5576144c5614524565b500290565b6000828210156144dc576144dc614524565b500390565b60005b838110156144fc5781810151838201526020016144e4565b83811115613beb5750506000910152565b60008161451c5761451c614524565b506000190190565b634e487b7160e01b600052601160045260246000fd5b634e487b7160e01b600052603260045260246000fd5b634e487b7160e01b600052604160045260246000fd5b6001600160a01b038116811461457b57600080fd5b50565b801515811461457b57600080fdfe2f48ac32db572e9fd979463d8692f03bd4eabb1f84bdfc70f736e3d2676cd74859c43de4b358bfa9c13f4bebb43cf699c69e54d2ce0694b006e9e1ac79c3c487b0d00cdca7af6ed7bd59bdc60d7090a56e20455c0a0ac7451ba6d10780ded9e3a26469706673582212202925e015634e98d922b674e67b412411be99e18b2be6298fb5b512fb5b2a2db964736f6c63430008060033",
    "sourcePath": "/Users/ngcx/Desktop/Web Dev/DApps/benevolent/contracts/CampaignFactory.sol",
    "compiler": {
        "name": "solc",
        "version": "0.8.6+commit.11564f7e"
    },
    "functionHashes": {
        "DEFAULT_ADMIN_ROLE()": "a217fddf",
        "MANAGE_CAMPAIGNS()": "4f9de6e2",
        "MANAGE_CATEGORIES()": "a3134319",
        "MANAGE_USERS()": "48b30e35",
        "__CampaignFactory_init(address)": "04697b34",
        "addRole(address,bytes32)": "a73f7f8a",
        "addToken(address)": "d48bfca7",
        "campaignApprovalRequest(address)": "513b378b",
        "campaignCategories(uint256)": "5fd0b69f",
        "campaignCount()": "7274e30d",
        "campaignImplementation()": "62a6e065",
        "campaignRevenueFromCommissions(uint256)": "50450930",
        "campaignRevenueFromFeatures(uint256)": "df46e21e",
        "campaignToID(address)": "c6c323fc",
        "campaignToOwner(address)": "a174743a",
        "canManageCampaigns(address)": "f7878c69",
        "categoryCommission(uint256)": "98f11bce",
        "categoryCount()": "2be32dbb",
        "createCampaign(uint256)": "a3303a75",
        "createCategory(bool)": "b30326db",
        "createFeaturePackage(uint256,uint256)": "dc1a10c0",
        "deadlineStrikesAllowed()": "08142b85",
        "defaultCommission()": "b444bba5",
        "deployedCampaigns(uint256)": "339d50a5",
        "destroyCampaign(uint256)": "3523100c",
        "destroyCategory(uint256)": "2188497e",
        "destroyFeaturedPackage(uint256)": "9ff84662",
        "destroyUser(uint256)": "cf8a84d0",
        "factoryRevenue()": "9ee25ae4",
        "factoryWallet()": "81994d04",
        "featureCampaign(uint256,uint256,address)": "96a75664",
        "featurePackageCount()": "b1bba29b",
        "featurePackages(uint256)": "b6e33abf",
        "featuredCampaignIsPaused(uint256)": "6219fe3d",
        "getRoleAdmin(bytes32)": "248a9ca3",
        "grantRole(bytes32,address)": "2f2ff15d",
        "hasRole(bytes32,address)": "91d14854",
        "maxDeadline()": "de4e4201",
        "maxRequestDuration()": "dfef1f1f",
        "maximumContributionAllowed()": "84f77577",
        "minDeadline()": "c5549cc0",
        "minRequestDuration()": "03511574",
        "minimumContributionAllowed()": "6977aa34",
        "modifyCampaignCategory(uint256,uint256)": "ca68dfe4",
        "modifyCampaignSettings(address,uint256,uint256,uint256,uint256,address)": "3a6ce95e",
        "modifyCategory(uint256,bool)": "cfa40830",
        "modifyFeaturedPackage(uint256,uint256,uint256)": "3d693d1c",
        "pauseCampaign()": "0d10f3b5",
        "pauseCampaignFeatured(uint256)": "a55b3b31",
        "paused()": "5c975abb",
        "pausedFeaturedCampaignTimeLeft(uint256)": "1aa2f9d7",
        "receiveCampaignCommission(uint256,address)": "e8147c69",
        "removeRole(address,bytes32)": "6853920e",
        "renounceAdmin()": "8bad0c0a",
        "renounceRole(bytes32,address)": "36568abe",
        "revokeRole(bytes32,address)": "d547741f",
        "root()": "ebf0c717",
        "setCategoryCommission(uint256,uint256)": "088821b6",
        "setFactorySettings(address,address,uint256,uint256,uint256,uint256,uint256,uint256,uint256,uint256)": "f2e9b879",
        "signUp()": "bf96ae63",
        "supportsInterface(bytes4)": "01ffc9a7",
        "toggleAcceptedToken(address,bool)": "24ba73a2",
        "toggleCampaignActive(uint256,bool)": "d5b6c20e",
        "toggleCampaignApproval(uint256,bool)": "c9dc36fb",
        "toggleUserApproval(uint256,bool)": "092093d8",
        "tokenInList(address)": "a8542740",
        "tokenList(uint256)": "9ead7222",
        "tokensApproved(address)": "20966f22",
        "transferCampaignOwnership(address,address)": "67480d35",
        "unpauseCampaign()": "1c8e541b",
        "unpauseCampaignFeatured(uint256)": "bc3d5a30",
        "userCount()": "07973ccf",
        "userID(address)": "eda7794e",
        "users(uint256)": "365b98b2"
    },
    "gasEstimates": {
        "creation": {
            "codeDepositCost": "3590800",
            "executionCost": "4039",
            "totalCost": "3594839"
        },
        "external": {
            "DEFAULT_ADMIN_ROLE()": "329",
            "MANAGE_CAMPAIGNS()": "infinite",
            "MANAGE_CATEGORIES()": "infinite",
            "MANAGE_USERS()": "infinite",
            "__CampaignFactory_init(address)": "infinite",
            "addRole(address,bytes32)": "infinite",
            "addToken(address)": "77748",
            "campaignApprovalRequest(address)": "36405",
            "campaignCategories(uint256)": "11121",
            "campaignCount()": "2384",
            "campaignImplementation()": "2449",
            "campaignRevenueFromCommissions(uint256)": "2550",
            "campaignRevenueFromFeatures(uint256)": "2571",
            "campaignToID(address)": "2625",
            "campaignToOwner(address)": "2664",
            "canManageCampaigns(address)": "infinite",
            "categoryCommission(uint256)": "2551",
            "categoryCount()": "2385",
            "createCampaign(uint256)": "infinite",
            "createCategory(bool)": "infinite",
            "createFeaturePackage(uint256,uint256)": "infinite",
            "deadlineStrikesAllowed()": "2364",
            "defaultCommission()": "2406",
            "deployedCampaigns(uint256)": "17693",
            "destroyCampaign(uint256)": "infinite",
            "destroyCategory(uint256)": "infinite",
            "destroyFeaturedPackage(uint256)": "56700",
            "destroyUser(uint256)": "infinite",
            "factoryRevenue()": "2363",
            "factoryWallet()": "2448",
            "featureCampaign(uint256,uint256,address)": "infinite",
            "featurePackageCount()": "2362",
            "featurePackages(uint256)": "13272",
            "featuredCampaignIsPaused(uint256)": "2529",
            "getRoleAdmin(bytes32)": "2579",
            "grantRole(bytes32,address)": "infinite",
            "hasRole(bytes32,address)": "2722",
            "maxDeadline()": "2406",
            "maxRequestDuration()": "2450",
            "maximumContributionAllowed()": "2428",
            "minDeadline()": "2385",
            "minRequestDuration()": "2387",
            "minimumContributionAllowed()": "2362",
            "modifyCampaignCategory(uint256,uint256)": "infinite",
            "modifyCampaignSettings(address,uint256,uint256,uint256,uint256,address)": "infinite",
            "modifyCategory(uint256,bool)": "infinite",
            "modifyFeaturedPackage(uint256,uint256,uint256)": "83845",
            "pauseCampaign()": "32188",
            "pauseCampaignFeatured(uint256)": "infinite",
            "paused()": "2449",
            "pausedFeaturedCampaignTimeLeft(uint256)": "2595",
            "receiveCampaignCommission(uint256,address)": "infinite",
            "removeRole(address,bytes32)": "infinite",
            "renounceAdmin()": "29001",
            "renounceRole(bytes32,address)": "29069",
            "revokeRole(bytes32,address)": "infinite",
            "root()": "2425",
            "setCategoryCommission(uint256,uint256)": "29224",
            "setFactorySettings(address,address,uint256,uint256,uint256,uint256,uint256,uint256,uint256,uint256)": "infinite",
            "signUp()": "infinite",
            "supportsInterface(bytes4)": "496",
            "toggleAcceptedToken(address,bool)": "infinite",
            "toggleCampaignActive(uint256,bool)": "infinite",
            "toggleCampaignApproval(uint256,bool)": "infinite",
            "toggleUserApproval(uint256,bool)": "infinite",
            "tokenInList(address)": "2648",
            "tokenList(uint256)": "4749",
            "tokensApproved(address)": "2605",
            "transferCampaignOwnership(address,address)": "infinite",
            "unpauseCampaign()": "32107",
            "unpauseCampaignFeatured(uint256)": "infinite",
            "userCount()": "2431",
            "userID(address)": "2623",
            "users(uint256)": "11186"
        }
    }
}