{
    "contractName": "Campaign",
    "abi": [
        {
            "anonymous": false,
            "inputs": [
                {
                    "indexed": true,
                    "internalType": "uint256",
                    "name": "campaignId",
                    "type": "uint256"
                },
                {
                    "indexed": false,
                    "internalType": "uint256",
                    "name": "time",
                    "type": "uint256"
                }
            ],
            "name": "CampaignDeadlineExtended",
            "type": "event"
        },
        {
            "anonymous": false,
            "inputs": [
                {
                    "indexed": true,
                    "internalType": "uint256",
                    "name": "campaignId",
                    "type": "uint256"
                },
                {
                    "indexed": false,
                    "internalType": "uint256",
                    "name": "minimumContribution",
                    "type": "uint256"
                },
                {
                    "indexed": false,
                    "internalType": "uint256",
                    "name": "deadline",
                    "type": "uint256"
                },
                {
                    "indexed": false,
                    "internalType": "uint256",
                    "name": "goalType",
                    "type": "uint256"
                },
                {
                    "indexed": false,
                    "internalType": "address",
                    "name": "token",
                    "type": "address"
                }
            ],
            "name": "CampaignDetailsModified",
            "type": "event"
        },
        {
            "anonymous": false,
            "inputs": [
                {
                    "indexed": true,
                    "internalType": "uint256",
                    "name": "campaignId",
                    "type": "uint256"
                },
                {
                    "indexed": false,
                    "internalType": "uint256",
                    "name": "goalType",
                    "type": "uint256"
                }
            ],
            "name": "CampaignGoalTypeChange",
            "type": "event"
        },
        {
            "anonymous": false,
            "inputs": [
                {
                    "indexed": true,
                    "internalType": "uint256",
                    "name": "campaignId",
                    "type": "uint256"
                }
            ],
            "name": "CampaignIDset",
            "type": "event"
        },
        {
            "anonymous": false,
            "inputs": [
                {
                    "indexed": false,
                    "internalType": "uint256",
                    "name": "campaignId",
                    "type": "uint256"
                },
                {
                    "indexed": false,
                    "internalType": "enum Campaign.CAMPAIGN_STATE",
                    "name": "state",
                    "type": "uint8"
                }
            ],
            "name": "CampaignStateChange",
            "type": "event"
        },
        {
            "anonymous": false,
            "inputs": [
                {
                    "indexed": true,
                    "internalType": "uint256",
                    "name": "campaignId",
                    "type": "uint256"
                },
                {
                    "indexed": false,
                    "internalType": "uint256",
                    "name": "userId",
                    "type": "uint256"
                },
                {
                    "indexed": false,
                    "internalType": "uint256",
                    "name": "amount",
                    "type": "uint256"
                }
            ],
            "name": "ContributionMade",
            "type": "event"
        },
        {
            "anonymous": false,
            "inputs": [
                {
                    "indexed": true,
                    "internalType": "uint256",
                    "name": "campaignId",
                    "type": "uint256"
                },
                {
                    "indexed": false,
                    "internalType": "uint256",
                    "name": "userId",
                    "type": "uint256"
                },
                {
                    "indexed": false,
                    "internalType": "uint256",
                    "name": "amount",
                    "type": "uint256"
                }
            ],
            "name": "ContributionWithdrawn",
            "type": "event"
        },
        {
            "anonymous": false,
            "inputs": [
                {
                    "indexed": false,
                    "internalType": "address",
                    "name": "account",
                    "type": "address"
                }
            ],
            "name": "Paused",
            "type": "event"
        },
        {
            "anonymous": false,
            "inputs": [
                {
                    "indexed": true,
                    "internalType": "uint256",
                    "name": "requestId",
                    "type": "uint256"
                },
                {
                    "indexed": false,
                    "internalType": "uint256",
                    "name": "campaignId",
                    "type": "uint256"
                },
                {
                    "indexed": false,
                    "internalType": "uint256",
                    "name": "duration",
                    "type": "uint256"
                },
                {
                    "indexed": false,
                    "internalType": "address",
                    "name": "recipient",
                    "type": "address"
                },
                {
                    "indexed": false,
                    "internalType": "uint256",
                    "name": "value",
                    "type": "uint256"
                }
            ],
            "name": "RequestAdded",
            "type": "event"
        },
        {
            "anonymous": false,
            "inputs": [
                {
                    "indexed": true,
                    "internalType": "uint256",
                    "name": "requestId",
                    "type": "uint256"
                },
                {
                    "indexed": false,
                    "internalType": "uint256",
                    "name": "campaignId",
                    "type": "uint256"
                }
            ],
            "name": "RequestComplete",
            "type": "event"
        },
        {
            "anonymous": false,
            "inputs": [
                {
                    "indexed": true,
                    "internalType": "uint256",
                    "name": "rewardId",
                    "type": "uint256"
                },
                {
                    "indexed": false,
                    "internalType": "uint256",
                    "name": "campaignId",
                    "type": "uint256"
                },
                {
                    "indexed": false,
                    "internalType": "uint256",
                    "name": "value",
                    "type": "uint256"
                },
                {
                    "indexed": false,
                    "internalType": "uint256",
                    "name": "deliveryDate",
                    "type": "uint256"
                },
                {
                    "indexed": false,
                    "internalType": "uint256",
                    "name": "stock",
                    "type": "uint256"
                },
                {
                    "indexed": false,
                    "internalType": "bool",
                    "name": "active",
                    "type": "bool"
                }
            ],
            "name": "RewardCreated",
            "type": "event"
        },
        {
            "anonymous": false,
            "inputs": [
                {
                    "indexed": false,
                    "internalType": "uint256",
                    "name": "rewardId",
                    "type": "uint256"
                }
            ],
            "name": "RewardDestroyed",
            "type": "event"
        },
        {
            "anonymous": false,
            "inputs": [
                {
                    "indexed": false,
                    "internalType": "uint256",
                    "name": "rewardId",
                    "type": "uint256"
                },
                {
                    "indexed": false,
                    "internalType": "uint256",
                    "name": "campaignId",
                    "type": "uint256"
                },
                {
                    "indexed": false,
                    "internalType": "uint256",
                    "name": "value",
                    "type": "uint256"
                },
                {
                    "indexed": false,
                    "internalType": "uint256",
                    "name": "deliveryDate",
                    "type": "uint256"
                },
                {
                    "indexed": false,
                    "internalType": "uint256",
                    "name": "stock",
                    "type": "uint256"
                },
                {
                    "indexed": false,
                    "internalType": "bool",
                    "name": "active",
                    "type": "bool"
                }
            ],
            "name": "RewardModified",
            "type": "event"
        },
        {
            "anonymous": false,
            "inputs": [
                {
                    "indexed": true,
                    "internalType": "uint256",
                    "name": "rewardId",
                    "type": "uint256"
                },
                {
                    "indexed": false,
                    "internalType": "uint256",
                    "name": "campaignId",
                    "type": "uint256"
                },
                {
                    "indexed": false,
                    "internalType": "uint256",
                    "name": "user",
                    "type": "uint256"
                },
                {
                    "indexed": false,
                    "internalType": "uint256",
                    "name": "amount",
                    "type": "uint256"
                }
            ],
            "name": "RewardeeAdded",
            "type": "event"
        },
        {
            "anonymous": false,
            "inputs": [
                {
                    "indexed": true,
                    "internalType": "uint256",
                    "name": "rewardeeId",
                    "type": "uint256"
                },
                {
                    "indexed": false,
                    "internalType": "uint256",
                    "name": "campaignId",
                    "type": "uint256"
                },
                {
                    "indexed": false,
                    "internalType": "bool",
                    "name": "status",
                    "type": "bool"
                }
            ],
            "name": "RewardeeApproval",
            "type": "event"
        },
        {
            "anonymous": false,
            "inputs": [
                {
                    "indexed": true,
                    "internalType": "bytes32",
                    "name": "role",
                    "type": "bytes32"
                },
                {
                    "indexed": true,
                    "internalType": "bytes32",
                    "name": "previousAdminRole",
                    "type": "bytes32"
                },
                {
                    "indexed": true,
                    "internalType": "bytes32",
                    "name": "newAdminRole",
                    "type": "bytes32"
                }
            ],
            "name": "RoleAdminChanged",
            "type": "event"
        },
        {
            "anonymous": false,
            "inputs": [
                {
                    "indexed": true,
                    "internalType": "bytes32",
                    "name": "role",
                    "type": "bytes32"
                },
                {
                    "indexed": true,
                    "internalType": "address",
                    "name": "account",
                    "type": "address"
                },
                {
                    "indexed": true,
                    "internalType": "address",
                    "name": "sender",
                    "type": "address"
                }
            ],
            "name": "RoleGranted",
            "type": "event"
        },
        {
            "anonymous": false,
            "inputs": [
                {
                    "indexed": true,
                    "internalType": "bytes32",
                    "name": "role",
                    "type": "bytes32"
                },
                {
                    "indexed": true,
                    "internalType": "address",
                    "name": "account",
                    "type": "address"
                },
                {
                    "indexed": true,
                    "internalType": "address",
                    "name": "sender",
                    "type": "address"
                }
            ],
            "name": "RoleRevoked",
            "type": "event"
        },
        {
            "anonymous": false,
            "inputs": [
                {
                    "indexed": true,
                    "internalType": "uint256",
                    "name": "campaignId",
                    "type": "uint256"
                },
                {
                    "indexed": false,
                    "internalType": "uint256",
                    "name": "amount",
                    "type": "uint256"
                }
            ],
            "name": "TargetMet",
            "type": "event"
        },
        {
            "anonymous": false,
            "inputs": [
                {
                    "indexed": false,
                    "internalType": "address",
                    "name": "account",
                    "type": "address"
                }
            ],
            "name": "Unpaused",
            "type": "event"
        },
        {
            "anonymous": false,
            "inputs": [
                {
                    "indexed": false,
                    "internalType": "uint256",
                    "name": "requestId",
                    "type": "uint256"
                }
            ],
            "name": "Voted",
            "type": "event"
        },
        {
            "inputs": [],
            "name": "DEFAULT_ADMIN_ROLE",
            "outputs": [
                {
                    "internalType": "bytes32",
                    "name": "",
                    "type": "bytes32"
                }
            ],
            "stateMutability": "view",
            "type": "function"
        },
        {
            "inputs": [
                {
                    "internalType": "address",
                    "name": "_campaignFactory",
                    "type": "address"
                },
                {
                    "internalType": "address",
                    "name": "_root",
                    "type": "address"
                }
            ],
            "name": "__Campaign_init",
            "outputs": [],
            "stateMutability": "nonpayable",
            "type": "function"
        },
        {
            "inputs": [],
            "name": "acceptedToken",
            "outputs": [
                {
                    "internalType": "address",
                    "name": "",
                    "type": "address"
                }
            ],
            "stateMutability": "view",
            "type": "function"
        },
        {
            "inputs": [
                {
                    "internalType": "address",
                    "name": "",
                    "type": "address"
                }
            ],
            "name": "approvers",
            "outputs": [
                {
                    "internalType": "bool",
                    "name": "",
                    "type": "bool"
                }
            ],
            "stateMutability": "view",
            "type": "function"
        },
        {
            "inputs": [],
            "name": "approversCount",
            "outputs": [
                {
                    "internalType": "uint256",
                    "name": "",
                    "type": "uint256"
                }
            ],
            "stateMutability": "view",
            "type": "function"
        },
        {
            "inputs": [],
            "name": "campaignID",
            "outputs": [
                {
                    "internalType": "uint256",
                    "name": "",
                    "type": "uint256"
                }
            ],
            "stateMutability": "view",
            "type": "function"
        },
        {
            "inputs": [
                {
                    "internalType": "uint256",
                    "name": "_rewardeeId",
                    "type": "uint256"
                },
                {
                    "internalType": "bool",
                    "name": "_status",
                    "type": "bool"
                }
            ],
            "name": "campaignSentReward",
            "outputs": [],
            "stateMutability": "nonpayable",
            "type": "function"
        },
        {
            "inputs": [],
            "name": "campaignState",
            "outputs": [
                {
                    "internalType": "enum Campaign.CAMPAIGN_STATE",
                    "name": "",
                    "type": "uint8"
                }
            ],
            "stateMutability": "view",
            "type": "function"
        },
        {
            "inputs": [
                {
                    "internalType": "address",
                    "name": "_token",
                    "type": "address"
                },
                {
                    "internalType": "uint256",
                    "name": "_rewardId",
                    "type": "uint256"
                },
                {
                    "internalType": "bool",
                    "name": "_withReward",
                    "type": "bool"
                }
            ],
            "name": "contribute",
            "outputs": [
                {
                    "internalType": "uint256",
                    "name": "targetCompletionValue",
                    "type": "uint256"
                }
            ],
            "stateMutability": "payable",
            "type": "function"
        },
        {
            "inputs": [
                {
                    "internalType": "address payable",
                    "name": "_recipient",
                    "type": "address"
                },
                {
                    "internalType": "uint256",
                    "name": "_value",
                    "type": "uint256"
                },
                {
                    "internalType": "uint256",
                    "name": "_duration",
                    "type": "uint256"
                }
            ],
            "name": "createRequest",
            "outputs": [],
            "stateMutability": "nonpayable",
            "type": "function"
        },
        {
            "inputs": [
                {
                    "internalType": "uint256",
                    "name": "_value",
                    "type": "uint256"
                },
                {
                    "internalType": "uint256",
                    "name": "_deliveryDate",
                    "type": "uint256"
                },
                {
                    "internalType": "uint256",
                    "name": "_stock",
                    "type": "uint256"
                },
                {
                    "internalType": "bool",
                    "name": "_active",
                    "type": "bool"
                }
            ],
            "name": "createReward",
            "outputs": [],
            "stateMutability": "nonpayable",
            "type": "function"
        },
        {
            "inputs": [],
            "name": "currentRunningRequest",
            "outputs": [
                {
                    "internalType": "uint256",
                    "name": "",
                    "type": "uint256"
                }
            ],
            "stateMutability": "view",
            "type": "function"
        },
        {
            "inputs": [],
            "name": "deadline",
            "outputs": [
                {
                    "internalType": "uint256",
                    "name": "",
                    "type": "uint256"
                }
            ],
            "stateMutability": "view",
            "type": "function"
        },
        {
            "inputs": [],
            "name": "deadlineSetTimes",
            "outputs": [
                {
                    "internalType": "uint256",
                    "name": "",
                    "type": "uint256"
                }
            ],
            "stateMutability": "view",
            "type": "function"
        },
        {
            "inputs": [
                {
                    "internalType": "uint256",
                    "name": "_rewardId",
                    "type": "uint256"
                }
            ],
            "name": "destroyReward",
            "outputs": [],
            "stateMutability": "nonpayable",
            "type": "function"
        },
        {
            "inputs": [
                {
                    "internalType": "uint256",
                    "name": "_time",
                    "type": "uint256"
                }
            ],
            "name": "extendDeadline",
            "outputs": [],
            "stateMutability": "nonpayable",
            "type": "function"
        },
        {
            "inputs": [
                {
                    "internalType": "uint256",
                    "name": "_requestId",
                    "type": "uint256"
                }
            ],
            "name": "finalizeRequest",
            "outputs": [],
            "stateMutability": "nonpayable",
            "type": "function"
        },
        {
            "inputs": [],
            "name": "finalizedRequestCount",
            "outputs": [
                {
                    "internalType": "uint256",
                    "name": "",
                    "type": "uint256"
                }
            ],
            "stateMutability": "view",
            "type": "function"
        },
        {
            "inputs": [
                {
                    "internalType": "bytes32",
                    "name": "role",
                    "type": "bytes32"
                }
            ],
            "name": "getRoleAdmin",
            "outputs": [
                {
                    "internalType": "bytes32",
                    "name": "",
                    "type": "bytes32"
                }
            ],
            "stateMutability": "view",
            "type": "function"
        },
        {
            "inputs": [],
            "name": "goalType",
            "outputs": [
                {
                    "internalType": "enum Campaign.GOALTYPE",
                    "name": "",
                    "type": "uint8"
                }
            ],
            "stateMutability": "view",
            "type": "function"
        },
        {
            "inputs": [
                {
                    "internalType": "bytes32",
                    "name": "role",
                    "type": "bytes32"
                },
                {
                    "internalType": "address",
                    "name": "account",
                    "type": "address"
                }
            ],
            "name": "grantRole",
            "outputs": [],
            "stateMutability": "nonpayable",
            "type": "function"
        },
        {
            "inputs": [
                {
                    "internalType": "bytes32",
                    "name": "role",
                    "type": "bytes32"
                },
                {
                    "internalType": "address",
                    "name": "account",
                    "type": "address"
                }
            ],
            "name": "hasRole",
            "outputs": [
                {
                    "internalType": "bool",
                    "name": "",
                    "type": "bool"
                }
            ],
            "stateMutability": "view",
            "type": "function"
        },
        {
            "inputs": [],
            "name": "markCampaignComplete",
            "outputs": [],
            "stateMutability": "nonpayable",
            "type": "function"
        },
        {
            "inputs": [],
            "name": "maximumContribution",
            "outputs": [
                {
                    "internalType": "uint256",
                    "name": "",
                    "type": "uint256"
                }
            ],
            "stateMutability": "view",
            "type": "function"
        },
        {
            "inputs": [],
            "name": "minimumContribution",
            "outputs": [
                {
                    "internalType": "uint256",
                    "name": "",
                    "type": "uint256"
                }
            ],
            "stateMutability": "view",
            "type": "function"
        },
        {
            "inputs": [
                {
                    "internalType": "uint256",
                    "name": "_id",
                    "type": "uint256"
                },
                {
                    "internalType": "uint256",
                    "name": "_value",
                    "type": "uint256"
                },
                {
                    "internalType": "uint256",
                    "name": "_deliveryDate",
                    "type": "uint256"
                },
                {
                    "internalType": "uint256",
                    "name": "_stock",
                    "type": "uint256"
                },
                {
                    "internalType": "bool",
                    "name": "_active",
                    "type": "bool"
                }
            ],
            "name": "modifyReward",
            "outputs": [],
            "stateMutability": "nonpayable",
            "type": "function"
        },
        {
            "inputs": [],
            "name": "pauseCampaign",
            "outputs": [],
            "stateMutability": "nonpayable",
            "type": "function"
        },
        {
            "inputs": [],
            "name": "paused",
            "outputs": [
                {
                    "internalType": "bool",
                    "name": "",
                    "type": "bool"
                }
            ],
            "stateMutability": "view",
            "type": "function"
        },
        {
            "inputs": [
                {
                    "internalType": "bytes32",
                    "name": "role",
                    "type": "bytes32"
                },
                {
                    "internalType": "address",
                    "name": "account",
                    "type": "address"
                }
            ],
            "name": "renounceRole",
            "outputs": [],
            "stateMutability": "nonpayable",
            "type": "function"
        },
        {
            "inputs": [],
            "name": "requestCount",
            "outputs": [
                {
                    "internalType": "uint256",
                    "name": "",
                    "type": "uint256"
                }
            ],
            "stateMutability": "view",
            "type": "function"
        },
        {
            "inputs": [
                {
                    "internalType": "uint256",
                    "name": "",
                    "type": "uint256"
                }
            ],
            "name": "requests",
            "outputs": [
                {
                    "internalType": "address payable",
                    "name": "recepient",
                    "type": "address"
                },
                {
                    "internalType": "bool",
                    "name": "complete",
                    "type": "bool"
                },
                {
                    "internalType": "uint256",
                    "name": "value",
                    "type": "uint256"
                },
                {
                    "internalType": "uint256",
                    "name": "approvalCount",
                    "type": "uint256"
                },
                {
                    "internalType": "uint256",
                    "name": "disapprovalCount",
                    "type": "uint256"
                },
                {
                    "internalType": "uint256",
                    "name": "duration",
                    "type": "uint256"
                }
            ],
            "stateMutability": "view",
            "type": "function"
        },
        {
            "inputs": [
                {
                    "internalType": "uint256",
                    "name": "_count",
                    "type": "uint256"
                }
            ],
            "name": "resetDeadlineSetTimes",
            "outputs": [],
            "stateMutability": "nonpayable",
            "type": "function"
        },
        {
            "inputs": [],
            "name": "reviewCampaignPerformance",
            "outputs": [],
            "stateMutability": "nonpayable",
            "type": "function"
        },
        {
            "inputs": [],
            "name": "reviewCount",
            "outputs": [
                {
                    "internalType": "uint256",
                    "name": "",
                    "type": "uint256"
                }
            ],
            "stateMutability": "view",
            "type": "function"
        },
        {
            "inputs": [],
            "name": "reviewMode",
            "outputs": [],
            "stateMutability": "nonpayable",
            "type": "function"
        },
        {
            "inputs": [
                {
                    "internalType": "address",
                    "name": "",
                    "type": "address"
                }
            ],
            "name": "reviewed",
            "outputs": [
                {
                    "internalType": "bool",
                    "name": "",
                    "type": "bool"
                }
            ],
            "stateMutability": "view",
            "type": "function"
        },
        {
            "inputs": [
                {
                    "internalType": "uint256",
                    "name": "",
                    "type": "uint256"
                }
            ],
            "name": "reviews",
            "outputs": [
                {
                    "internalType": "address",
                    "name": "user",
                    "type": "address"
                },
                {
                    "internalType": "uint256",
                    "name": "rating",
                    "type": "uint256"
                },
                {
                    "internalType": "uint256",
                    "name": "createdAt",
                    "type": "uint256"
                }
            ],
            "stateMutability": "view",
            "type": "function"
        },
        {
            "inputs": [
                {
                    "internalType": "bytes32",
                    "name": "role",
                    "type": "bytes32"
                },
                {
                    "internalType": "address",
                    "name": "account",
                    "type": "address"
                }
            ],
            "name": "revokeRole",
            "outputs": [],
            "stateMutability": "nonpayable",
            "type": "function"
        },
        {
            "inputs": [
                {
                    "internalType": "uint256",
                    "name": "",
                    "type": "uint256"
                }
            ],
            "name": "rewardees",
            "outputs": [
                {
                    "internalType": "uint256",
                    "name": "rewardId",
                    "type": "uint256"
                },
                {
                    "internalType": "address",
                    "name": "user",
                    "type": "address"
                },
                {
                    "internalType": "bool",
                    "name": "deliveryConfirmedByCampaign",
                    "type": "bool"
                },
                {
                    "internalType": "bool",
                    "name": "deliveryConfirmedByUser",
                    "type": "bool"
                }
            ],
            "stateMutability": "view",
            "type": "function"
        },
        {
            "inputs": [
                {
                    "internalType": "uint256",
                    "name": "",
                    "type": "uint256"
                }
            ],
            "name": "rewards",
            "outputs": [
                {
                    "internalType": "uint256",
                    "name": "value",
                    "type": "uint256"
                },
                {
                    "internalType": "uint256",
                    "name": "deliveryDate",
                    "type": "uint256"
                },
                {
                    "internalType": "uint256",
                    "name": "stock",
                    "type": "uint256"
                },
                {
                    "internalType": "bool",
                    "name": "exists",
                    "type": "bool"
                },
                {
                    "internalType": "bool",
                    "name": "active",
                    "type": "bool"
                }
            ],
            "stateMutability": "view",
            "type": "function"
        },
        {
            "inputs": [],
            "name": "root",
            "outputs": [
                {
                    "internalType": "address",
                    "name": "",
                    "type": "address"
                }
            ],
            "stateMutability": "view",
            "type": "function"
        },
        {
            "inputs": [
                {
                    "internalType": "uint256",
                    "name": "_target",
                    "type": "uint256"
                },
                {
                    "internalType": "uint256",
                    "name": "_minimumContribution",
                    "type": "uint256"
                },
                {
                    "internalType": "uint256",
                    "name": "_duration",
                    "type": "uint256"
                },
                {
                    "internalType": "uint256",
                    "name": "_goalType",
                    "type": "uint256"
                },
                {
                    "internalType": "address",
                    "name": "_token",
                    "type": "address"
                }
            ],
            "name": "setCampaignSettings",
            "outputs": [],
            "stateMutability": "nonpayable",
            "type": "function"
        },
        {
            "inputs": [
                {
                    "internalType": "uint256",
                    "name": "_state",
                    "type": "uint256"
                }
            ],
            "name": "setCampaignState",
            "outputs": [],
            "stateMutability": "nonpayable",
            "type": "function"
        },
        {
            "inputs": [
                {
                    "internalType": "uint256",
                    "name": "_type",
                    "type": "uint256"
                }
            ],
            "name": "setGoalType",
            "outputs": [],
            "stateMutability": "nonpayable",
            "type": "function"
        },
        {
            "inputs": [
                {
                    "internalType": "bytes4",
                    "name": "interfaceId",
                    "type": "bytes4"
                }
            ],
            "name": "supportsInterface",
            "outputs": [
                {
                    "internalType": "bool",
                    "name": "",
                    "type": "bool"
                }
            ],
            "stateMutability": "view",
            "type": "function"
        },
        {
            "inputs": [],
            "name": "target",
            "outputs": [
                {
                    "internalType": "uint256",
                    "name": "",
                    "type": "uint256"
                }
            ],
            "stateMutability": "view",
            "type": "function"
        },
        {
            "inputs": [],
            "name": "totalCampaignContribution",
            "outputs": [
                {
                    "internalType": "uint256",
                    "name": "",
                    "type": "uint256"
                }
            ],
            "stateMutability": "view",
            "type": "function"
        },
        {
            "inputs": [
                {
                    "internalType": "address",
                    "name": "_newOwner",
                    "type": "address"
                }
            ],
            "name": "transferCampaignOwnership",
            "outputs": [],
            "stateMutability": "nonpayable",
            "type": "function"
        },
        {
            "inputs": [],
            "name": "unpauseCampaign",
            "outputs": [],
            "stateMutability": "nonpayable",
            "type": "function"
        },
        {
            "inputs": [
                {
                    "internalType": "uint256",
                    "name": "_rewardeeId",
                    "type": "uint256"
                },
                {
                    "internalType": "bool",
                    "name": "_status",
                    "type": "bool"
                }
            ],
            "name": "userReceivedCampaignReward",
            "outputs": [],
            "stateMutability": "nonpayable",
            "type": "function"
        },
        {
            "inputs": [
                {
                    "internalType": "address",
                    "name": "",
                    "type": "address"
                }
            ],
            "name": "userTotalContribution",
            "outputs": [
                {
                    "internalType": "uint256",
                    "name": "",
                    "type": "uint256"
                }
            ],
            "stateMutability": "view",
            "type": "function"
        },
        {
            "inputs": [
                {
                    "internalType": "uint256",
                    "name": "_requestId",
                    "type": "uint256"
                }
            ],
            "name": "voteOnRequest",
            "outputs": [],
            "stateMutability": "nonpayable",
            "type": "function"
        },
        {
            "inputs": [
                {
                    "internalType": "address",
                    "name": "_user",
                    "type": "address"
                },
                {
                    "internalType": "uint256",
                    "name": "_amount",
                    "type": "uint256"
                },
                {
                    "internalType": "address payable",
                    "name": "_wallet",
                    "type": "address"
                }
            ],
            "name": "withdrawContributionForUser",
            "outputs": [],
            "stateMutability": "nonpayable",
            "type": "function"
        },
        {
            "inputs": [
                {
                    "internalType": "uint256",
                    "name": "_amount",
                    "type": "uint256"
                },
                {
                    "internalType": "address payable",
                    "name": "_wallet",
                    "type": "address"
                }
            ],
            "name": "withdrawOwnContribution",
            "outputs": [],
            "stateMutability": "nonpayable",
            "type": "function"
        }
    ],
    "bytecode": "608060405234801561001057600080fd5b50614fea806100206000396000f3fe6080604052600436106103355760003560e01c806391d14854116101ab578063d4b83992116100f7578063ebf5240911610095578063f3f080151161006f578063f3f08015146109c2578063f4c9b1fd146109e2578063f5c75ede14610a0e578063f87770f514610a2e57600080fd5b8063ebf524091461094a578063eff5924f1461095f578063f301af421461097657600080fd5b8063e007832c116100d1578063e007832c146108a5578063e2274075146108c5578063e83ddcea146108e5578063ebf0c7171461092a57600080fd5b8063d4b8399214610840578063d547741f14610857578063d753ca7c1461087757600080fd5b8063a217fddf11610164578063b4e34fd81161013e578063b4e34fd8146107d4578063d222aba5146107f4578063d2411d1914610814578063d2a8f6a41461082b57600080fd5b8063a217fddf1461077f578063a446bbb814610794578063aaee6a1f146107b457600080fd5b806391d14854146106d7578063937e09b1146106f757806394a91de81461070e57806395cbd1571461072157806398407647146107485780639c2fcd451461076857600080fd5b8063389b7533116102855780636bbc5c4c1161022357806381d12c58116101fd57806381d12c581461063257806382fde093146106895780638632e966146106a05780638ef9af72146106c057600080fd5b80636bbc5c4c146105c1578063714bf908146105e1578063794c10181461061257600080fd5b806349ed2fa91161025f57806349ed2fa91461056557806357414c371461057c5780635badbe4c146105935780635c975abb146105a957600080fd5b8063389b7533146104ed578063451c3d801461050d57806348db7f231461054557600080fd5b80631f93da25116102f25780632f2ff15d116102cc5780632f2ff15d1461047857806334d71e171461049857806336568abe146104ad57806336cb9588146104cd57600080fd5b80631f93da251461040c578063248a9ca31461043157806329dcb0cf1461046157600080fd5b806301ffc9a71461033a578063034410061461036f5780630a144391146103915780630d10f3b5146103c25780630ef6373d146103d75780631c8e541b146103f7575b600080fd5b34801561034657600080fd5b5061035a610355366004614b9b565b610a7e565b60405190151581526020015b60405180910390f35b34801561037b57600080fd5b5061038f61038a366004614b5d565b610ab5565b005b34801561039d57600080fd5b5061035a6103ac36600461499b565b6101106020526000908152604090205460ff1681565b3480156103ce57600080fd5b5061038f610eee565b3480156103e357600080fd5b5061038f6103f2366004614c39565b610fa4565b34801561040357600080fd5b5061038f611363565b34801561041857600080fd5b5061042361010e5481565b604051908152602001610366565b34801561043d57600080fd5b5061042361044c366004614b5d565b60009081526065602052604090206001015490565b34801561046d57600080fd5b5061042361010b5481565b34801561048457600080fd5b5061038f610493366004614b76565b611416565b3480156104a457600080fd5b5061038f611441565b3480156104b957600080fd5b5061038f6104c8366004614b76565b611632565b3480156104d957600080fd5b5061038f6104e8366004614b5d565b6116b0565b3480156104f957600080fd5b5061038f610508366004614b5d565b6117be565b34801561051957600080fd5b5060fd5461052d906001600160a01b031681565b6040516001600160a01b039091168152602001610366565b34801561055157600080fd5b5061038f610560366004614b5d565b611b08565b34801561057157600080fd5b506104236101055481565b34801561058857600080fd5b5061042361010c5481565b34801561059f57600080fd5b5061042360ff5481565b3480156105b557600080fd5b5060975460ff1661035a565b3480156105cd57600080fd5b5061038f6105dc366004614a72565b611c78565b3480156105ed57600080fd5b5061035a6105fc36600461499b565b6101046020526000908152604090205460ff1681565b34801561061e57600080fd5b5061038f61062d366004614bde565b611d61565b34801561063e57600080fd5b5061065261064d366004614b5d565b611f2a565b604080516001600160a01b0390971687529415156020870152938501929092526060840152608083015260a082015260c001610366565b34801561069557600080fd5b506104236101095481565b3480156106ac57600080fd5b5061038f6106bb366004614c03565b611f81565b3480156106cc57600080fd5b506104236101065481565b3480156106e357600080fd5b5061035a6106f2366004614b76565b612333565b34801561070357600080fd5b506104236101075481565b61042361071c366004614ab4565b61235e565b34801561072d57600080fd5b5060fb5461073b9060ff1681565b6040516103669190614d78565b34801561075457600080fd5b5061038f61076336600461499b565b612806565b34801561077457600080fd5b506104236101085481565b34801561078b57600080fd5b50610423600081565b3480156107a057600080fd5b5061038f6107af366004614a0a565b612969565b3480156107c057600080fd5b5061038f6107cf366004614bde565b612b33565b3480156107e057600080fd5b5061038f6107ef366004614c86565b612c60565b34801561080057600080fd5b5061038f61080f366004614b5d565b612ee4565b34801561082057600080fd5b5061042361010f5481565b34801561083757600080fd5b5061038f6130c7565b34801561084c57600080fd5b5061042361010a5481565b34801561086357600080fd5b5061038f610872366004614b76565b6131ef565b34801561088357600080fd5b5061042361089236600461499b565b6101116020526000908152604090205481565b3480156108b157600080fd5b5061038f6108c0366004614b76565b613215565b3480156108d157600080fd5b5061038f6108e0366004614b5d565b6132e8565b3480156108f157600080fd5b50610905610900366004614b5d565b6134f0565b604080516001600160a01b039094168452602084019290925290820152606001610366565b34801561093657600080fd5b5060fc5461052d906001600160a01b031681565b34801561095657600080fd5b5061038f61352e565b34801561096b57600080fd5b5061042361010d5481565b34801561098257600080fd5b50610996610991366004614b5d565b6136f0565b60408051958652602086019490945292840191909152151560608301521515608082015260a001610366565b3480156109ce57600080fd5b5061038f6109dd3660046149d5565b613737565b3480156109ee57600080fd5b5060fb54610a0190610100900460ff1681565b6040516103669190614d6a565b348015610a1a57600080fd5b5061038f610a29366004614b5d565b613b2f565b348015610a3a57600080fd5b50610a4e610a49366004614b5d565b613c23565b604080519485526001600160a01b0390931660208501529015159183019190915215156060820152608001610366565b60006001600160e01b03198216637965db0b60e01b1480610aaf57506301ffc9a760e01b6001600160e01b03198316145b92915050565b60fb5460405163f7878c6960e01b8152336004820152620100009091046001600160a01b03169063f7878c699060240160206040518083038186803b158015610afd57600080fd5b505afa158015610b11573d6000803e3d6000fd5b505050506040513d601f19601f82011682018060405250810190610b359190614b40565b80610b465750610b46600033612333565b610b4f57600080fd5b600080610b7460fb60029054906101000a90046001600160a01b031661010554613c71565b9094509250839150508015610b865750805b610b8f57600080fd5b336000610bb160fb60029054906101000a90046001600160a01b031683613d0f565b9150819050610bbf57600080fd5b60975460ff1615610beb5760405162461bcd60e51b8152600401610be290614df3565b60405180910390fd5b600260c9541415610c0e5760405162461bcd60e51b8152600401610be290614e1d565b600260c981905550600060fe8681548110610c2b57610c2b614f62565b90600052602060002090600602019050610c52600261010954613e2590919063ffffffff16565b8160020154118015610c6d57508054600160a01b900460ff16155b610c7657600080fd5b6000610c9a60fb60029054906101000a90046001600160a01b031661010554613e38565b90506000610cc1612710610cbb848660010154613fbc90919063ffffffff16565b90613e25565b905060006040518060400160405280610ce7848760010154613fc890919063ffffffff16565b8152602090810184905260408051808201825287546001600160a01b03908116825260fb548351632066534160e21b8152935195965060009592948581019462010000909204909216926381994d0492600480840193919291829003018186803b158015610d5457600080fd5b505afa158015610d68573d6000803e3d6000fd5b505050506040513d601f19601f82011682018060405250810190610d8c91906149b8565b6001600160a01b03169052855460ff60a01b1916600160a01b17865561010e54909150610dba906001613fd4565b61010e55600185015461010654610dd091613fc8565b6101065560fb5460405163e8147c6960e01b815260048101859052306024820152620100009091046001600160a01b03169063e8147c6990604401600060405180830381600087803b158015610e2557600080fd5b505af1158015610e39573d6000803e3d6000fd5b5050505060005b6002811015610e9f5760fd54610e8d906001600160a01b031630848460028110610e6c57610e6c614f62565b6020020151868560028110610e8357610e83614f62565b6020020151613fe0565b80610e9781614f1b565b915050610e40565b50897fe0306580e174b721f93a4736fbb1cf897fcad9ddb89f57bd1a8419ec3ae6b9a261010554604051610ed591815260200190565b60405180910390a25050600160c9555050505050505050565b60975460ff1615610f115760405162461bcd60e51b8152600401610be290614df3565b60fb5460405163f7878c6960e01b8152336004820152620100009091046001600160a01b03169063f7878c699060240160206040518083038186803b158015610f5957600080fd5b505afa158015610f6d573d6000803e3d6000fd5b505050506040513d601f19601f82011682018060405250810190610f919190614b40565b610f9a57600080fd5b610fa2614040565b565b60fb5460405163f7878c6960e01b8152336004820152620100009091046001600160a01b03169063f7878c699060240160206040518083038186803b158015610fec57600080fd5b505afa158015611000573d6000803e3d6000fd5b505050506040513d601f19601f820116820180604052508101906110249190614b40565b806110355750611035600033612333565b61103e57600080fd5b600061106260fb60029054906101000a90046001600160a01b031661010554613c71565b935050821591505080156110f3575060fb5460405163f7878c6960e01b8152336004820152620100009091046001600160a01b03169063f7878c699060240160206040518083038186803b1580156110b957600080fd5b505afa1580156110cd573d6000803e3d6000fd5b505050506040513d601f19601f820116820180604052508101906110f19190614b40565b155b6110fc57600080fd5b60fb60029054906101000a90046001600160a01b03166001600160a01b0316636977aa346040518163ffffffff1660e01b815260040160206040518083038186803b15801561114a57600080fd5b505afa15801561115e573d6000803e3d6000fd5b505050506040513d601f19601f820116820180604052508101906111829190614bc5565b8510158015611216575060fb60029054906101000a90046001600160a01b03166001600160a01b03166384f775776040518163ffffffff1660e01b815260040160206040518083038186803b1580156111da57600080fd5b505afa1580156111ee573d6000803e3d6000fd5b505050506040513d601f19601f820116820180604052508101906112129190614bc5565b8511155b80156112a1575060fb5460405163104b379160e11b81526001600160a01b03848116600483015262010000909204909116906320966f229060240160206040518083038186803b15801561126957600080fd5b505afa15801561127d573d6000803e3d6000fd5b505050506040513d601f19601f820116820180604052508101906112a19190614b40565b6112aa57600080fd5b61010a86905561010785905561010b8490558260018111156112ce576112ce614f4c565b60fb805460ff1916600183818111156112e9576112e9614f4c565b021790555060fd80546001600160a01b0319166001600160a01b0384169081179091556101055460408051888152602081018890529081018690526060810192909252907f341c174a159499e44294b546b0fee7036e11f279dbab08d8abd46165954cb94d906080015b60405180910390a2505050505050565b60975460ff166113855760405162461bcd60e51b8152600401610be290614dc5565b60fb5460405163f7878c6960e01b8152336004820152620100009091046001600160a01b03169063f7878c699060240160206040518083038186803b1580156113cd57600080fd5b505afa1580156113e1573d6000803e3d6000fd5b505050506040513d601f19601f820116820180604052508101906114059190614b40565b61140e57600080fd5b610fa26140b5565b6000828152606560205260409020600101546114328133614108565b61143c838361416c565b505050565b60fb5460405163f7878c6960e01b8152336004820152620100009091046001600160a01b03169063f7878c699060240160206040518083038186803b15801561148957600080fd5b505afa15801561149d573d6000803e3d6000fd5b505050506040513d601f19601f820116820180604052508101906114c19190614b40565b806114d257506114d2600033612333565b6114db57600080fd5b60008061150060fb60029054906101000a90046001600160a01b031661010554613c71565b90945092508391505080156115125750805b61151b57600080fd5b33600061153d60fb60029054906101000a90046001600160a01b031683613d0f565b915081905061154b57600080fd5b60975460ff161561156e5760405162461bcd60e51b8152600401610be290614df3565b600260fb54610100900460ff16600481111561158c5761158c614f4c565b1461159657600080fd5b60fe5460011080156115cf57504260fe61010f54815481106115ba576115ba614f62565b90600052602060002090600602016004015411155b6115d857600080fd5b60fb805461ff0019166103001790556115ef614040565b7f769fe02ad955196068a57b86253ea47b981f52918e04cd477b187c5858914904610105546003604051611624929190614e54565b60405180910390a150505050565b6001600160a01b03811633146116a25760405162461bcd60e51b815260206004820152602f60248201527f416363657373436f6e74726f6c3a2063616e206f6e6c792072656e6f756e636560448201526e103937b632b9903337b91039b2b63360891b6064820152608401610be2565b6116ac82826141f2565b5050565b60fb5460405163f7878c6960e01b8152336004820152620100009091046001600160a01b03169063f7878c699060240160206040518083038186803b1580156116f857600080fd5b505afa15801561170c573d6000803e3d6000fd5b505050506040513d601f19601f820116820180604052508101906117309190614b40565b61173957600080fd5b80600481111561174b5761174b614f4c565b60fb805461ff00191661010083600481111561176957611769614f4c565b02179055507f769fe02ad955196068a57b86253ea47b981f52918e04cd477b187c5858914904610105548260048111156117a5576117a5614f4c565b6040516117b3929190614e54565b60405180910390a150565b60fb5460405163f7878c6960e01b8152336004820152620100009091046001600160a01b03169063f7878c699060240160206040518083038186803b15801561180657600080fd5b505afa15801561181a573d6000803e3d6000fd5b505050506040513d601f19601f8201168201806040525081019061183e9190614b40565b8061184f575061184f600033612333565b61185857600080fd5b33600061187a60fb60029054906101000a90046001600160a01b031683613d0f565b915081905061188857600080fd5b6000806118ad60fb60029054906101000a90046001600160a01b031661010554613c71565b90945092508391505080156118bf5750805b6118c857600080fd5b60975460ff16156118eb5760405162461bcd60e51b8152600401610be290614df3565b61010b5442118015611985575060fb60029054906101000a90046001600160a01b03166001600160a01b03166308142b856040518163ffffffff1660e01b815260040160206040518083038186803b15801561194657600080fd5b505afa15801561195a573d6000803e3d6000fd5b505050506040513d601f19601f8201168201806040525081019061197e9190614bc5565b61010c5411155b8015611a16575060fb60029054906101000a90046001600160a01b03166001600160a01b031663de4e42016040518163ffffffff1660e01b815260040160206040518083038186803b1580156119da57600080fd5b505afa1580156119ee573d6000803e3d6000fd5b505050506040513d601f19601f82011682018060405250810190611a129190614bc5565b8511155b8015611aa7575060fb60029054906101000a90046001600160a01b03166001600160a01b031663c5549cc06040518163ffffffff1660e01b815260040160206040518083038186803b158015611a6b57600080fd5b505afa158015611a7f573d6000803e3d6000fd5b505050506040513d601f19601f82011682018060405250810190611aa39190614bc5565b8510155b611ab057600080fd5b61010b85905561010c54611ac5906001613fd4565b61010c55610105546040518681527fe56455a7135d95bc2c0e151523d78eaaac4bf098fcc5dcfc15db81e162480c2a906020015b60405180910390a25050505050565b60fb5460405163f7878c6960e01b8152336004820152620100009091046001600160a01b03169063f7878c699060240160206040518083038186803b158015611b5057600080fd5b505afa158015611b64573d6000803e3d6000fd5b505050506040513d601f19601f82011682018060405250810190611b889190614b40565b80611b995750611b99600033612333565b611ba257600080fd5b336000611bc460fb60029054906101000a90046001600160a01b031683613d0f565b9150819050611bd257600080fd5b600080611bf760fb60029054906101000a90046001600160a01b031661010554613c71565b9094509250839150508015611c095750805b611c1257600080fd5b846001811115611c2457611c24614f4c565b60fb805460ff191660018381811115611c3f57611c3f614f4c565b0217905550610105546040518681527f64930d980b9ba8b13843c3c0151e5c5007b609fd8d678362c59502df4dbe921790602001611af9565b60fb5460405163f7878c6960e01b8152336004820152620100009091046001600160a01b03169063f7878c699060240160206040518083038186803b158015611cc057600080fd5b505afa158015611cd4573d6000803e3d6000fd5b505050506040513d601f19601f82011682018060405250810190611cf89190614b40565b611d0157600080fd5b600260c9541415611d245760405162461bcd60e51b8152600401610be290614e1d565b600260c95560975460ff1615611d4c5760405162461bcd60e51b8152600401610be290614df3565b611d57838284614259565b5050600160c95550565b600080611d8660fb60029054906101000a90046001600160a01b031661010554613c71565b9094509250839150508015611d985750805b611da157600080fd5b336000611dc360fb60029054906101000a90046001600160a01b031683613d0f565b9150819050611dd157600080fd5b60975460ff1615611df45760405162461bcd60e51b8152600401610be290614df3565b6101018681548110611e0857611e08614f62565b906000526020600020906002020160010160149054906101000a900460ff16611e3057600080fd5b336001600160a01b03166101018781548110611e4e57611e4e614f62565b60009182526020909120600160029092020101546001600160a01b0316148015611e885750336000908152610102602052604090205460ff165b8015611ea45750336000908152610110602052604090205460ff165b611ead57600080fd5b846101018781548110611ec257611ec2614f62565b906000526020600020906002020160010160146101000a81548160ff021916908315150217905550857f693dd74b0031adcd76227f30e0ff8fd8c32da74887cc14801ffabc26bf28126961010554876040516113539291909182521515602082015260400190565b60fe8181548110611f3a57600080fd5b6000918252602090912060069091020180546001820154600283015460038401546004909401546001600160a01b0384169550600160a01b90930460ff1693919290919086565b60fb5460405163f7878c6960e01b8152336004820152620100009091046001600160a01b03169063f7878c699060240160206040518083038186803b158015611fc957600080fd5b505afa158015611fdd573d6000803e3d6000fd5b505050506040513d601f19601f820116820180604052508101906120019190614b40565b806120125750612012600033612333565b61201b57600080fd5b60008061204060fb60029054906101000a90046001600160a01b031661010554613c71565b90945092508391505080156120525750805b61205b57600080fd5b33600061207d60fb60029054906101000a90046001600160a01b031683613d0f565b915081905061208b57600080fd5b60975460ff16156120ae5760405162461bcd60e51b8152600401610be290614df3565b60fb60029054906101000a90046001600160a01b03166001600160a01b0316636977aa346040518163ffffffff1660e01b815260040160206040518083038186803b1580156120fc57600080fd5b505afa158015612110573d6000803e3d6000fd5b505050506040513d601f19601f820116820180604052508101906121349190614bc5565b881180156121c6575060fb60029054906101000a90046001600160a01b03166001600160a01b03166384f775776040518163ffffffff1660e01b815260040160206040518083038186803b15801561218b57600080fd5b505afa15801561219f573d6000803e3d6000fd5b505050506040513d601f19601f820116820180604052508101906121c39190614bc5565b88105b6121cf57600080fd5b6040805160a081018252898152602081018981529181018881526001606083018181528915156080850190815261010080548085018255600082905295517f45e010b9ae401e2eb71529478da8bd513a9bdc2d095a111e324f5b95c09ed87b60049097029687015595517f45e010b9ae401e2eb71529478da8bd513a9bdc2d095a111e324f5b95c09ed87c86015592517f45e010b9ae401e2eb71529478da8bd513a9bdc2d095a111e324f5b95c09ed87d850155517f45e010b9ae401e2eb71529478da8bd513a9bdc2d095a111e324f5b95c09ed87e9093018054925161ffff1990931693151561ff0019169390931791151584029190911790915590546122d691613fc8565b6101055460408051918252602082018b905281018990526060810188905286151560808201527f40b61abba35e1f57f79e5b58a215778745844c5b1915468ce8d5d3152d6352479060a00160405180910390a25050505050505050565b60009182526065602090815260408084206001600160a01b0393909316845291905290205460ff1690565b600080600061238560fb60029054906101000a90046001600160a01b031661010554613c71565b90945092508391505080156123975750805b6123a057600080fd5b3360006123c260fb60029054906101000a90046001600160a01b031683613d0f565b91508190506123d057600080fd5b600060fb5460ff1660018111156123e9576123e9614f4c565b14156123ff5761010b544211156123ff57600080fd5b60975460ff16156124225760405162461bcd60e51b8152600401610be290614df3565b600260c95414156124455760405162461bcd60e51b8152600401610be290614e1d565b600260c95560fd546001600160a01b03898116911614801561246a5750610107543410155b80156124fb575060fb60029054906101000a90046001600160a01b03166001600160a01b03166384f775776040518163ffffffff1660e01b815260040160206040518083038186803b1580156124bf57600080fd5b505afa1580156124d3573d6000803e3d6000fd5b505050506040513d601f19601f820116820180604052508101906124f79190614bc5565b3411155b61250457600080fd5b610106546000906125159034613fd4565b9050600060fb5460ff16600181111561253057612530614f4c565b14801561253f57506101065481115b1561255b5761010654612553908290613fc8565b9550506127f5565b86156127eb57610100888154811061257557612575614f62565b90600052602060002090600402016000015434101580156125bb5750600061010089815481106125a7576125a7614f62565b906000526020600020906004020160020154115b80156125ee575061010088815481106125d6576125d6614f62565b600091825260209091206003600490920201015460ff165b80156126295750610100888154811061260957612609614f62565b906000526020600020906004020160030160019054906101000a900460ff165b61263257600080fd5b60408051608081018252898152336020808301828152600084860181815260608601828152610101805460018181018355918552975160029098027f109ea3cebb188b9c1b9fc5bb3920be60dfdc8699098dff92f3d80daaca74768981019890985593517f109ea3cebb188b9c1b9fc5bb3920be60dfdc8699098dff92f3d80daaca74768a9097018054925191511515600160a81b0260ff60a81b19921515600160a01b026001600160a81b03199094166001600160a01b03998a1617939093179190911691909117905583815261010290925290849020805460ff191690911790556101055460fb5493516376d3bca760e11b81528c947ff6db7806da8881826fb74329ff39f277cd5ae5bf2e80d108044862fdaf12c03c949293620100009091049092169163eda7794e9161277b91906004016001600160a01b0391909116815260200190565b60206040518083038186803b15801561279357600080fd5b505afa1580156127a7573d6000803e3d6000fd5b505050506040513d601f19601f820116820180604052508101906127cb9190614bc5565b604080519283526020830191909152349082015260600160405180910390a25b6127f361448e565b505b5050600160c9555090949350505050565b80600061282860fb60029054906101000a90046001600160a01b031683613d0f565b915081905061283657600080fd5b60fb5460405163f7878c6960e01b8152336004820152620100009091046001600160a01b03169063f7878c699060240160206040518083038186803b15801561287e57600080fd5b505afa158015612892573d6000803e3d6000fd5b505050506040513d601f19601f820116820180604052508101906128b69190614b40565b6128bf57600080fd5b60fc546128d7906000906001600160a01b03166131ef565b6128e2600084614618565b60fc80546001600160a01b0319166001600160a01b0385811691821790925560fb546040516367480d3560e01b81526004810192909252306024830152620100009004909116906367480d3590604401600060405180830381600087803b15801561294c57600080fd5b505af1158015612960573d6000803e3d6000fd5b50505050505050565b600054610100900460ff1680612982575060005460ff16155b6129e55760405162461bcd60e51b815260206004820152602e60248201527f496e697469616c697a61626c653a20636f6e747261637420697320616c72656160448201526d191e481a5b9a5d1a585b1a5e995960921b6064820152608401610be2565b600054610100900460ff16158015612a07576000805461ffff19166101011790555b6001600160a01b038216612a1a57600080fd5b612a25600083614618565b60fb805460fc80546001600160a01b038681166001600160a01b03199092169190911790915561ff00198682166201000090810291909116610100600160b01b031990931692909217928390556040516331b0c8ff60e21b8152306004820152919092049091169063c6c323fc9060240160206040518083038186803b158015612aae57600080fd5b505afa158015612ac2573d6000803e3d6000fd5b505050506040513d601f19601f82011682018060405250810190612ae69190614bc5565b6101058190556040517fe1926f6dd46837fe59306098ef2779d8e412232f2c497f80b46b7283c6138d4d90600090a2612b1d614040565b801561143c576000805461ff0019169055505050565b600080612b5860fb60029054906101000a90046001600160a01b031661010554613c71565b9094509250839150508015612b6a5750805b612b7357600080fd5b336000612b9560fb60029054906101000a90046001600160a01b031683613d0f565b9150819050612ba357600080fd5b60fb5460405163f7878c6960e01b8152336004820152620100009091046001600160a01b03169063f7878c699060240160206040518083038186803b158015612beb57600080fd5b505afa158015612bff573d6000803e3d6000fd5b505050506040513d601f19601f82011682018060405250810190612c239190614b40565b80612c345750612c34600033612333565b612c3d57600080fd5b60975460ff1615611ead5760405162461bcd60e51b8152600401610be290614df3565b60fb5460405163f7878c6960e01b8152336004820152620100009091046001600160a01b03169063f7878c699060240160206040518083038186803b158015612ca857600080fd5b505afa158015612cbc573d6000803e3d6000fd5b505050506040513d601f19601f82011682018060405250810190612ce09190614b40565b80612cf15750612cf1600033612333565b612cfa57600080fd5b600080612d1f60fb60029054906101000a90046001600160a01b031661010554613c71565b9094509250839150508015612d315750805b612d3a57600080fd5b336000612d5c60fb60029054906101000a90046001600160a01b031683613d0f565b9150819050612d6a57600080fd5b60975460ff1615612d8d5760405162461bcd60e51b8152600401610be290614df3565b6101008981548110612da157612da1614f62565b600091825260209091206003600490920201015460ff16612dc157600080fd5b876101008a81548110612dd657612dd6614f62565b906000526020600020906004020160000181905550866101008a81548110612e0057612e00614f62565b906000526020600020906004020160010181905550856101008a81548110612e2a57612e2a614f62565b906000526020600020906004020160020181905550846101008a81548110612e5457612e54614f62565b600091825260209182902060036004909202010180549215156101000261ff00199093169290921790915561010554604080518c8152928301919091528101899052606081018890526080810187905285151560a08201527fcf748295ad8db10a7feb1837f65de7b13f80501d9720452d7f3732858e057d5d9060c00160405180910390a1505050505050505050565b60fb5460405163f7878c6960e01b8152336004820152620100009091046001600160a01b03169063f7878c699060240160206040518083038186803b158015612f2c57600080fd5b505afa158015612f40573d6000803e3d6000fd5b505050506040513d601f19601f82011682018060405250810190612f649190614b40565b80612f755750612f75600033612333565b612f7e57600080fd5b600080612fa360fb60029054906101000a90046001600160a01b031661010554613c71565b9094509250839150508015612fb55750805b612fbe57600080fd5b336000612fe060fb60029054906101000a90046001600160a01b031683613d0f565b9150819050612fee57600080fd5b60975460ff16156130115760405162461bcd60e51b8152600401610be290614df3565b610100858154811061302557613025614f62565b600091825260209091206003600490920201015460ff1661304557600080fd5b610100858154811061305957613059614f62565b600091825260208220600490910201818155600181018290556002810191909155600301805461ffff191690556040517f41180eac7821509b09c187e6116a43cc97aa2b97ce4e20c974c2c7646eabf9ec906130b89087815260200190565b60405180910390a15050505050565b3360006130e960fb60029054906101000a90046001600160a01b031683613d0f565b91508190506130f757600080fd5b60008061311c60fb60029054906101000a90046001600160a01b031661010554613c71565b909450925083915050801561312e5750805b61313757600080fd5b60975460ff166131595760405162461bcd60e51b8152600401610be290614dc5565b600360fb54610100900460ff16600481111561317757613177614f4c565b1480156131955750336000908152610104602052604090205460ff16155b80156131b15750336000908152610110602052604090205460ff165b6131ba57600080fd5b33600090815261010460205260409020805460ff1916600190811790915561010d546131e591613fd4565b61010d5550505050565b60008281526065602052604090206001015461320b8133614108565b61143c83836141f2565b60008061323a60fb60029054906101000a90046001600160a01b031661010554613c71565b909450925083915050801561324c5750805b61325557600080fd5b33600061327760fb60029054906101000a90046001600160a01b031683613d0f565b915081905061328557600080fd5b60975460ff16156132a85760405162461bcd60e51b8152600401610be290614df3565b600260c95414156132cb5760405162461bcd60e51b8152600401610be290614e1d565b600260c9556132db338688614259565b5050600160c95550505050565b60008061330d60fb60029054906101000a90046001600160a01b031661010554613c71565b909450925083915050801561331f5750805b61332857600080fd5b3360009081526101106020526040902054839060ff16801561337d575060fe818154811061335857613358614f62565b600091825260208083203384526005600690930201919091019052604090205460ff16155b80156133ad575060fe818154811061339757613397614f62565b9060005260206000209060060201600401544211155b6133b657600080fd5b3360006133d860fb60029054906101000a90046001600160a01b031683613d0f565b91508190506133e657600080fd5b60975460ff16156134095760405162461bcd60e51b8152600401610be290614df3565b600160fe878154811061341e5761341e614f62565b60009182526020808320338452600692909202909101600501905260409020805460ff191691151591909117905560fe8054613487916001918990811061346757613467614f62565b906000526020600020906006020160020154613fd490919063ffffffff16565b60fe878154811061349a5761349a614f62565b9060005260206000209060060201600201819055507f7f511e347bf51eed3be100b3194247d5207f05f3b33de7d31e3e8ee73199a049866040516134e091815260200190565b60405180910390a1505050505050565b610103818154811061350157600080fd5b60009182526020909120600390910201805460018201546002909201546001600160a01b03909116925083565b33600061355060fb60029054906101000a90046001600160a01b031683613d0f565b915081905061355e57600080fd5b60fb5460405163f7878c6960e01b8152336004820152620100009091046001600160a01b03169063f7878c699060240160206040518083038186803b1580156135a657600080fd5b505afa1580156135ba573d6000803e3d6000fd5b505050506040513d601f19601f820116820180604052508101906135de9190614b40565b806135ef57506135ef600033612333565b6135f857600080fd5b60008061361d60fb60029054906101000a90046001600160a01b031661010554613c71565b909450925083915050801561362f5750805b61363857600080fd5b60975460ff1661365a5760405162461bcd60e51b8152600401610be290614dc5565b6136766064610cbb605061010954613fbc90919063ffffffff16565b61010d54101580156136a35750600360fb54610100900460ff1660048111156136a1576136a1614f4c565b145b6136ac57600080fd5b60fb805461ff001916610400179055610105546040517f769fe02ad955196068a57b86253ea47b981f52918e04cd477b187c58589149049161162491600490614e54565b610100818154811061370157600080fd5b60009182526020909120600490910201805460018201546002830154600390930154919350919060ff8082169161010090041685565b60fb5460405163f7878c6960e01b8152336004820152620100009091046001600160a01b03169063f7878c699060240160206040518083038186803b15801561377f57600080fd5b505afa158015613793573d6000803e3d6000fd5b505050506040513d601f19601f820116820180604052508101906137b79190614b40565b806137c857506137c8600033612333565b6137d157600080fd5b6000806137f660fb60029054906101000a90046001600160a01b031661010554613c71565b90945092508391505080156138085750805b61381157600080fd5b33600061383360fb60029054906101000a90046001600160a01b031683613d0f565b915081905061384157600080fd5b60975460ff16156138645760405162461bcd60e51b8152600401610be290614df3565b600061388860fb60029054906101000a90046001600160a01b031661010554613e38565b90506001600160a01b03881661389d57600080fd5b600260fb54610100900460ff1660048111156138bb576138bb614f4c565b146138c557600080fd5b6127106138d28883613fbc565b10156138dd57600080fd5b60fb60029054906101000a90046001600160a01b03166001600160a01b031663035115746040518163ffffffff1660e01b815260040160206040518083038186803b15801561392b57600080fd5b505afa15801561393f573d6000803e3d6000fd5b505050506040513d601f19601f820116820180604052508101906139639190614bc5565b86101580156139f7575060fb60029054906101000a90046001600160a01b03166001600160a01b031663dfef1f1f6040518163ffffffff1660e01b815260040160206040518083038186803b1580156139bb57600080fd5b505afa1580156139cf573d6000803e3d6000fd5b505050506040513d601f19601f820116820180604052508101906139f39190614bc5565b8611155b613a0057600080fd5b60fe54600111613a3e574260fe61010f5481548110613a2157613a21614f62565b9060005260206000209060060201600401541115613a3e57600080fd5b60fe805460009190613a51906001613fd4565b81548110613a6157613a61614f62565b60009182526020822060069091020180546001600160a81b0319166001600160a01b038c1617815560018082018b9055600482018a9055600282019290925560ff54909250613aaf91613fd4565b60ff5560fe54613ac0906001613fd4565b61010f5560fe54613ad2906001613fc8565b6101055460408051918252602082018a90526001600160a01b038c1682820152606082018b9052517f92b0b16b2af0d04e9225ed4cfd315b60059f7011453bce12e2cbf29a93f00daa9181900360800190a2505050505050505050565b60fb5460405163f7878c6960e01b8152336004820152620100009091046001600160a01b03169063f7878c699060240160206040518083038186803b158015613b7757600080fd5b505afa158015613b8b573d6000803e3d6000fd5b505050506040513d601f19601f82011682018060405250810190613baf9190614b40565b613bb857600080fd5b600080613bdd60fb60029054906101000a90046001600160a01b031661010554613c71565b9094509250839150508015613bef5750805b613bf857600080fd5b60975460ff1615613c1b5760405162461bcd60e51b8152600401610be290614df3565b505061010c55565b6101018181548110613c3457600080fd5b6000918252602090912060029091020180546001909101549091506001600160a01b0381169060ff600160a01b8204811691600160a81b90041684565b600080600080600080600080896001600160a01b031663339d50a58a6040518263ffffffff1660e01b8152600401613cab91815260200190565b60806040518083038186803b158015613cc357600080fd5b505afa158015613cd7573d6000803e3d6000fd5b505050506040513d601f19601f82011682018060405250810190613cfb9190614aeb565b929d919c509a509098509650505050505050565b6000806001600160a01b038316613d2557600080fd5b6040516376d3bca760e11b81526001600160a01b038481166004830152600091829187169063365b98b290829063eda7794e9060240160206040518083038186803b158015613d7357600080fd5b505afa158015613d87573d6000803e3d6000fd5b505050506040513d601f19601f82011682018060405250810190613dab9190614bc5565b6040518263ffffffff1660e01b8152600401613dc991815260200190565b604080518083038186803b158015613de057600080fd5b505afa158015613df4573d6000803e3d6000fd5b505050506040513d601f19601f82011682018060405250810190613e189190614a43565b9097909650945050505050565b6000613e318284614e80565b9392505050565b6000806000846001600160a01b031663339d50a5856040518263ffffffff1660e01b8152600401613e6b91815260200190565b60806040518083038186803b158015613e8357600080fd5b505afa158015613e97573d6000803e3d6000fd5b505050506040513d601f19601f82011682018060405250810190613ebb9190614aeb565b5050604051634c788de760e11b8152600481018290529093506001600160a01b03871691506398f11bce9060240160206040518083038186803b158015613f0157600080fd5b505afa158015613f15573d6000803e3d6000fd5b505050506040513d601f19601f82011682018060405250810190613f399190614bc5565b905080613fb457846001600160a01b031663b444bba56040518163ffffffff1660e01b815260040160206040518083038186803b158015613f7957600080fd5b505afa158015613f8d573d6000803e3d6000fd5b505050506040513d601f19601f82011682018060405250810190613fb19190614bc5565b90505b949350505050565b6000613e318284614ea2565b6000613e318284614ec1565b6000613e318284614e68565b604080516001600160a01b0385811660248301528416604482015260648082018490528251808303909101815260849091019091526020810180516001600160e01b03166323b872dd60e01b17905261403a908590614622565b50505050565b60975460ff16156140635760405162461bcd60e51b8152600401610be290614df3565b6097805460ff191660011790557f62e78cea01bee320cd4e420270b5ea74000d11b0c9f74754ebdbfc544b05a2586140983390565b6040516001600160a01b03909116815260200160405180910390a1565b60975460ff166140d75760405162461bcd60e51b8152600401610be290614dc5565b6097805460ff191690557f5db9ee0a495bf2e6ff9c91a7834c1ba4fdd244a5e8aa4e537bd38aeae4b073aa33614098565b6141128282612333565b6116ac5761412a816001600160a01b031660146146f4565b6141358360206146f4565b604051602001614146929190614cf5565b60408051601f198184030181529082905262461bcd60e51b8252610be291600401614d92565b6141768282612333565b6116ac5760008281526065602090815260408083206001600160a01b03851684529091529020805460ff191660011790556141ae3390565b6001600160a01b0316816001600160a01b0316837f2f8788117e7eff1d82e926ec794901d17c78024a50270940304540a733656f0d60405160405180910390a45050565b6141fc8282612333565b156116ac5760008281526065602090815260408083206001600160a01b0385168085529252808320805460ff1916905551339285917ff6391f5c32d9c69d2a47ea670b442974b53935d1edc7fd64eb21e047a839171b9190a45050565b600160fb54610100900460ff16600481111561427757614277614f4c565b1480156142875750600161010e54105b61429057600080fd5b6001600160a01b0383166000908152610110602052604090205460ff1680156142d257506001600160a01b038316600090815261011160205260409020548111155b80156142e657506001600160a01b03821615155b6142ef57600080fd5b6001600160a01b0383166000908152610102602052604090205460ff1615614333576001600160a01b038316600090815261010260205260409020805460ff191690555b6001600160a01b038316600090815261011060205260409020805460ff1916905561010954614363906001613fc8565b61010955610106546143759082613fc8565b610106556001600160a01b0383166000908152610111602052604090205461439d9082613fc8565b6001600160a01b038085166000908152610111602052604090209190915560fd546143cb9116308484613fe0565b6101055460fb546040516376d3bca760e11b81526001600160a01b0386811660048301527f5408b247afe85fbbb951cb76cd7bbc4c7c859497848cada887f5803c625e546392620100009004169063eda7794e9060240160206040518083038186803b15801561443a57600080fd5b505afa15801561444e573d6000803e3d6000fd5b505050506040513d601f19601f820116820180604052508101906144729190614bc5565b60408051918252602082018590520160405180910390a2505050565b33600090815261011060205260409020805460ff19166001179055610106546144b79034613fd4565b6101065533600090815261011160205260409020546144d69034613fd4565b336000818152610111602052604090209190915560fd54614504916001600160a01b03909116903034613fe0565b6101055460fb546040516376d3bca760e11b81523360048201527f6f4c06be47b1bef37c7a0c2e2242486905f2213810fbe7031e61d46fc600ef28916201000090046001600160a01b03169063eda7794e9060240160206040518083038186803b15801561457157600080fd5b505afa158015614585573d6000803e3d6000fd5b505050506040513d601f19601f820116820180604052508101906145a99190614bc5565b604080519182523460208301520160405180910390a261010a546101065410610fa25760fb805461ff00191661020017905561010554610106546040519081527fc995a56db91318a340f1db055a11f0f64825467cfba425ec7b26b03fc4843e3e9060200160405180910390a2565b6116ac828261416c565b6000614677826040518060400160405280602081526020017f5361666545524332303a206c6f772d6c6576656c2063616c6c206661696c6564815250856001600160a01b03166148909092919063ffffffff16565b80519091501561143c57808060200190518101906146959190614b40565b61143c5760405162461bcd60e51b815260206004820152602a60248201527f5361666545524332303a204552433230206f7065726174696f6e20646964206e6044820152691bdd081cdd58d8d9595960b21b6064820152608401610be2565b60606000614703836002614ea2565b61470e906002614e68565b67ffffffffffffffff81111561472657614726614f78565b6040519080825280601f01601f191660200182016040528015614750576020820181803683370190505b509050600360fc1b8160008151811061476b5761476b614f62565b60200101906001600160f81b031916908160001a905350600f60fb1b8160018151811061479a5761479a614f62565b60200101906001600160f81b031916908160001a90535060006147be846002614ea2565b6147c9906001614e68565b90505b6001811115614841576f181899199a1a9b1b9c1cb0b131b232b360811b85600f16601081106147fd576147fd614f62565b1a60f81b82828151811061481357614813614f62565b60200101906001600160f81b031916908160001a90535060049490941c9361483a81614f04565b90506147cc565b508315613e315760405162461bcd60e51b815260206004820181905260248201527f537472696e67733a20686578206c656e67746820696e73756666696369656e746044820152606401610be2565b6060613fb4848460008585843b6148e95760405162461bcd60e51b815260206004820152601d60248201527f416464726573733a2063616c6c20746f206e6f6e2d636f6e74726163740000006044820152606401610be2565b600080866001600160a01b031685876040516149059190614cd9565b60006040518083038185875af1925050503d8060008114614942576040519150601f19603f3d011682016040523d82523d6000602084013e614947565b606091505b5091509150614957828286614962565b979650505050505050565b60608315614971575081613e31565b8251156149815782518084602001fd5b8160405162461bcd60e51b8152600401610be29190614d92565b6000602082840312156149ad57600080fd5b8135613e3181614f8e565b6000602082840312156149ca57600080fd5b8151613e3181614f8e565b6000806000606084860312156149ea57600080fd5b83356149f581614f8e565b95602085013595506040909401359392505050565b60008060408385031215614a1d57600080fd5b8235614a2881614f8e565b91506020830135614a3881614f8e565b809150509250929050565b60008060408385031215614a5657600080fd5b8251614a6181614f8e565b6020840151909250614a3881614fa6565b600080600060608486031215614a8757600080fd5b8335614a9281614f8e565b9250602084013591506040840135614aa981614f8e565b809150509250925092565b600080600060608486031215614ac957600080fd5b8335614ad481614f8e565b9250602084013591506040840135614aa981614fa6565b60008060008060808587031215614b0157600080fd5b8451614b0c81614f8e565b602086015160408701519195509350614b2481614fa6565b6060860151909250614b3581614fa6565b939692955090935050565b600060208284031215614b5257600080fd5b8151613e3181614fa6565b600060208284031215614b6f57600080fd5b5035919050565b60008060408385031215614b8957600080fd5b823591506020830135614a3881614f8e565b600060208284031215614bad57600080fd5b81356001600160e01b031981168114613e3157600080fd5b600060208284031215614bd757600080fd5b5051919050565b60008060408385031215614bf157600080fd5b823591506020830135614a3881614fa6565b60008060008060808587031215614c1957600080fd5b8435935060208501359250604085013591506060850135614b3581614fa6565b600080600080600060a08688031215614c5157600080fd5b853594506020860135935060408601359250606086013591506080860135614c7881614f8e565b809150509295509295909350565b600080600080600060a08688031215614c9e57600080fd5b853594506020860135935060408601359250606086013591506080860135614c7881614fa6565b60058110614cd557614cd5614f4c565b9052565b60008251614ceb818460208701614ed8565b9190910192915050565b7f416363657373436f6e74726f6c3a206163636f756e7420000000000000000000815260008351614d2d816017850160208801614ed8565b7001034b99036b4b9b9b4b733903937b6329607d1b6017918401918201528351614d5e816028840160208801614ed8565b01602801949350505050565b60208101610aaf8284614cc5565b6020810160028310614d8c57614d8c614f4c565b91905290565b6020815260008251806020840152614db1816040850160208701614ed8565b601f01601f19169190910160400192915050565b60208082526014908201527314185d5cd8589b194e881b9bdd081c185d5cd95960621b604082015260600190565b60208082526010908201526f14185d5cd8589b194e881c185d5cd95960821b604082015260600190565b6020808252601f908201527f5265656e7472616e637947756172643a207265656e7472616e742063616c6c00604082015260600190565b82815260408101613e316020830184614cc5565b60008219821115614e7b57614e7b614f36565b500190565b600082614e9d57634e487b7160e01b600052601260045260246000fd5b500490565b6000816000190483118215151615614ebc57614ebc614f36565b500290565b600082821015614ed357614ed3614f36565b500390565b60005b83811015614ef3578181015183820152602001614edb565b8381111561403a5750506000910152565b600081614f1357614f13614f36565b506000190190565b6000600019821415614f2f57614f2f614f36565b5060010190565b634e487b7160e01b600052601160045260246000fd5b634e487b7160e01b600052602160045260246000fd5b634e487b7160e01b600052603260045260246000fd5b634e487b7160e01b600052604160045260246000fd5b6001600160a01b0381168114614fa357600080fd5b50565b8015158114614fa357600080fdfea2646970667358221220601d85f4bc12f6c9c62cd61faeea3072e6b2ecb758b0935895c101c7b40dd60064736f6c63430008060033",
    "sourcePath": "/Users/ngcx/Desktop/Web Dev/DApps/benevolent/contracts/Campaign.sol",
    "compiler": {
        "name": "solc",
        "version": "0.8.6+commit.11564f7e"
    },
    "functionHashes": {
        "DEFAULT_ADMIN_ROLE()": "a217fddf",
        "__Campaign_init(address,address)": "a446bbb8",
        "acceptedToken()": "451c3d80",
        "approvers(address)": "0a144391",
        "approversCount()": "82fde093",
        "campaignID()": "49ed2fa9",
        "campaignSentReward(uint256,bool)": "aaee6a1f",
        "campaignState()": "f4c9b1fd",
        "contribute(address,uint256,bool)": "94a91de8",
        "createRequest(address,uint256,uint256)": "f3f08015",
        "createReward(uint256,uint256,uint256,bool)": "8632e966",
        "currentRunningRequest()": "d2411d19",
        "deadline()": "29dcb0cf",
        "deadlineSetTimes()": "57414c37",
        "destroyReward(uint256)": "d222aba5",
        "extendDeadline(uint256)": "389b7533",
        "finalizeRequest(uint256)": "03441006",
        "finalizedRequestCount()": "1f93da25",
        "getRoleAdmin(bytes32)": "248a9ca3",
        "goalType()": "95cbd157",
        "grantRole(bytes32,address)": "2f2ff15d",
        "hasRole(bytes32,address)": "91d14854",
        "markCampaignComplete()": "ebf52409",
        "maximumContribution()": "9c2fcd45",
        "minimumContribution()": "937e09b1",
        "modifyReward(uint256,uint256,uint256,uint256,bool)": "b4e34fd8",
        "pauseCampaign()": "0d10f3b5",
        "paused()": "5c975abb",
        "renounceRole(bytes32,address)": "36568abe",
        "requestCount()": "5badbe4c",
        "requests(uint256)": "81d12c58",
        "resetDeadlineSetTimes(uint256)": "f5c75ede",
        "reviewCampaignPerformance()": "d2a8f6a4",
        "reviewCount()": "eff5924f",
        "reviewMode()": "34d71e17",
        "reviewed(address)": "714bf908",
        "reviews(uint256)": "e83ddcea",
        "revokeRole(bytes32,address)": "d547741f",
        "rewardees(uint256)": "f87770f5",
        "rewards(uint256)": "f301af42",
        "root()": "ebf0c717",
        "setCampaignSettings(uint256,uint256,uint256,uint256,address)": "0ef6373d",
        "setCampaignState(uint256)": "36cb9588",
        "setGoalType(uint256)": "48db7f23",
        "supportsInterface(bytes4)": "01ffc9a7",
        "target()": "d4b83992",
        "totalCampaignContribution()": "8ef9af72",
        "transferCampaignOwnership(address)": "98407647",
        "unpauseCampaign()": "1c8e541b",
        "userReceivedCampaignReward(uint256,bool)": "794c1018",
        "userTotalContribution(address)": "d753ca7c",
        "voteOnRequest(uint256)": "e2274075",
        "withdrawContributionForUser(address,uint256,address)": "6bbc5c4c",
        "withdrawOwnContribution(uint256,address)": "e007832c"
    },
    "gasEstimates": {
        "creation": {
            "codeDepositCost": "4091600",
            "executionCost": "4691",
            "totalCost": "4096291"
        },
        "external": {
            "DEFAULT_ADMIN_ROLE()": "263",
            "__Campaign_init(address,address)": "infinite",
            "acceptedToken()": "2428",
            "approvers(address)": "2605",
            "approversCount()": "2384",
            "campaignID()": "2363",
            "campaignSentReward(uint256,bool)": "infinite",
            "campaignState()": "2484",
            "contribute(address,uint256,bool)": "infinite",
            "createRequest(address,uint256,uint256)": "infinite",
            "createReward(uint256,uint256,uint256,bool)": "infinite",
            "currentRunningRequest()": "2406",
            "deadline()": "2408",
            "deadlineSetTimes()": "2385",
            "destroyReward(uint256)": "infinite",
            "extendDeadline(uint256)": "infinite",
            "finalizeRequest(uint256)": "infinite",
            "finalizedRequestCount()": "2364",
            "getRoleAdmin(bytes32)": "2535",
            "goalType()": "2463",
            "grantRole(bytes32,address)": "infinite",
            "hasRole(bytes32,address)": "2699",
            "markCampaignComplete()": "infinite",
            "maximumContribution()": "2451",
            "minimumContribution()": "2363",
            "modifyReward(uint256,uint256,uint256,uint256,bool)": "infinite",
            "pauseCampaign()": "infinite",
            "paused()": "2427",
            "renounceRole(bytes32,address)": "29112",
            "requestCount()": "2407",
            "requests(uint256)": "13280",
            "resetDeadlineSetTimes(uint256)": "infinite",
            "reviewCampaignPerformance()": "infinite",
            "reviewCount()": "2384",
            "reviewMode()": "infinite",
            "reviewed(address)": "2604",
            "reviews(uint256)": "9011",
            "revokeRole(bytes32,address)": "infinite",
            "rewardees(uint256)": "7008",
            "rewards(uint256)": "11164",
            "root()": "2470",
            "setCampaignSettings(uint256,uint256,uint256,uint256,address)": "infinite",
            "setCampaignState(uint256)": "infinite",
            "setGoalType(uint256)": "infinite",
            "supportsInterface(bytes4)": "473",
            "target()": "2363",
            "totalCampaignContribution()": "2428",
            "transferCampaignOwnership(address)": "infinite",
            "unpauseCampaign()": "infinite",
            "userReceivedCampaignReward(uint256,bool)": "infinite",
            "userTotalContribution(address)": "2625",
            "voteOnRequest(uint256)": "infinite",
            "withdrawContributionForUser(address,uint256,address)": "infinite",
            "withdrawOwnContribution(uint256,address)": "infinite"
        },
        "internal": {
            "_contribute()": "infinite",
            "_withdrawContribution(address,address,uint256)": "infinite"
        }
    }
}