{
	"data": {
		"bytecode": {
			"linkReferences": {},
			"object": "608060405234801561001057600080fd5b50615c7780620000216000396000f3fe6080604052600436106102bd5760003560e01c806301ffc9a7146102c257806303441006146102f85780630a1443911461031a5780630d10f3b51461033a578063185c6f841461034f5780631c8e541b146103715780631f93da2514610386578063248a9ca31461039b57806329dcb0cf146103bb5780632f2ff15d146103d057806334d71e17146103f057806336568abe1461040557806336cb958814610425578063389b75331461044557806338c21911146104655780633eaa91f51461049257806343519c48146104b257806343859632146104d257806343a1a776146104f2578063451c3d801461050757806349ed2fa91461052957806357414c371461053e5780635a4a7939146105535780635badbe4c146105735780635c975abb146105885780636853920e1461059d5780636c0ddc12146105bd578063714bf908146105d25780637178f036146105f25780637e0f9dd11461061257806381d12c581461062757806382fde0931461065b57806383bcbc4b14610670578063883c46f01461069057806388a31541146106b05780638bad0c0a146106d05780638ef9af72146106e557806391d14854146106fa578063937e09b11461071a57806394a91de81461072f57806395cbd157146107425780639840764714610764578063a217fddf14610784578063a32d646914610799578063a364008a146107b9578063a73f7f8a146107d9578063b3035efa146107f9578063bacbe2da14610819578063d2411d1914610839578063d2a8f6a41461084e578063d4b8399214610863578063d547741f14610878578063d753ca7c14610898578063d75c3cb7146108b8578063e9f2838e146108d8578063ebf0c717146108ed578063ebf5240914610902578063efbb53c914610917578063eff5924f14610937578063f3f080151461094c578063f4c9b1fd1461096c578063fc7a96a01461098e575b600080fd5b3480156102ce57600080fd5b506102e26102dd366004614d98565b6109a3565b6040516102ef919061503a565b60405180910390f35b34801561030457600080fd5b50610318610313366004614d5c565b6109d0565b005b34801561032657600080fd5b506102e2610335366004614b17565b610dd9565b34801561034657600080fd5b50610318610def565b34801561035b57600080fd5b50610364610e89565b6040516102ef9190615045565b34801561037d57600080fd5b50610318610e90565b34801561039257600080fd5b50610364610f26565b3480156103a757600080fd5b506103646103b6366004614d5c565b610f2d565b3480156103c757600080fd5b50610364610f42565b3480156103dc57600080fd5b506103186103eb366004614d74565b610f49565b3480156103fc57600080fd5b50610318610f72565b34801561041157600080fd5b50610318610420366004614d74565b611137565b34801561043157600080fd5b50610318610440366004614d5c565b61117d565b34801561045157600080fd5b50610318610460366004614d5c565b611277565b34801561047157600080fd5b50610485610480366004614d74565b6114b3565b6040516102ef9190615abe565b34801561049e57600080fd5b506102e26104ad366004614b17565b6114d3565b3480156104be57600080fd5b506103186104cd366004614b83565b6114e9565b3480156104de57600080fd5b506102e26104ed366004614d74565b6115a7565b3480156104fe57600080fd5b506103646115c7565b34801561051357600080fd5b5061051c6115ce565b6040516102ef9190614f69565b34801561053557600080fd5b506103646115de565b34801561054a57600080fd5b506103646115e5565b34801561055f57600080fd5b5061031861056e366004614eb0565b6115ec565b34801561057f57600080fd5b506103646116b1565b34801561059457600080fd5b506102e26116b8565b3480156105a957600080fd5b506103186105b8366004614c57565b6116c1565b3480156105c957600080fd5b506103186116df565b3480156105de57600080fd5b506102e26105ed366004614b17565b61194e565b3480156105fe57600080fd5b5061031861060d366004614e85565b611964565b34801561061e57600080fd5b5061051c611cfd565b34801561063357600080fd5b50610647610642366004614d5c565b611d12565b6040516102ef989796959493929190614f7d565b34801561066757600080fd5b50610364611d79565b34801561067c57600080fd5b5061031861068b366004614dc0565b611d80565b34801561069c57600080fd5b506103186106ab366004614d24565b611efd565b3480156106bc57600080fd5b506103186106cb366004614b83565b611f87565b3480156106dc57600080fd5b506103186121c6565b3480156106f157600080fd5b506103646121d3565b34801561070657600080fd5b506102e2610715366004614d74565b6121da565b34801561072657600080fd5b50610364612207565b61031861073d366004614c82565b61220e565b34801561074e57600080fd5b50610757612577565b6040516102ef9190615082565b34801561077057600080fd5b5061031861077f366004614b17565b612580565b34801561079057600080fd5b50610364612669565b3480156107a557600080fd5b506102e26107b4366004614b17565b61266e565b3480156107c557600080fd5b506103186107d4366004614d5c565b612684565b3480156107e557600080fd5b506103186107f4366004614c57565b612839565b34801561080557600080fd5b50610318610814366004614e28565b612857565b34801561082557600080fd5b50610318610834366004614d5c565b612bd8565b34801561084557600080fd5b50610364612f2e565b34801561085a57600080fd5b50610318612f35565b34801561086f57600080fd5b506103646130a7565b34801561088457600080fd5b50610318610893366004614d74565b6130ae565b3480156108a457600080fd5b506103646108b3366004614b17565b6130cd565b3480156108c457600080fd5b506103646108d3366004614b17565b6130e0565b3480156108e457600080fd5b506102e261318c565b3480156108f957600080fd5b5061051c61319d565b34801561090e57600080fd5b506103186131ad565b34801561092357600080fd5b50610318610932366004614b17565b613332565b34801561094357600080fd5b506103646133bf565b34801561095857600080fd5b50610318610967366004614b4f565b6133c6565b34801561097857600080fd5b50610981613885565b6040516102ef919061504e565b34801561099a57600080fd5b506102e2613893565b60006001600160e01b03198216637965db0b60e01b14806109c857506109c8826138a4565b90505b919050565b6109db6000336121da565b6109e457600080fd5b336000610a0660fb60029054906101000a90046001600160a01b0316836138bd565b9150819050610a305760405162461bcd60e51b8152600401610a27906150cf565b60405180910390fd5b610a386116b8565b15610a555760405162461bcd60e51b8152600401610a2790615461565b600260c9541415610a785760405162461bcd60e51b8152600401610a279061591c565b600260c981905550600060ff8481548110610aa357634e487b7160e01b600052603260045260246000fd5b906000526020600020906007020190506000610ae2610ad9610ac88460020154613a0c565b610ad461010a54613a0c565b613a26565b61010554613a50565b9050610b4c676765c793fa10079d601b1b610b4660fb60029054906101000a90046001600160a01b03166040518060400160405280601c81526020017b1c995c5d595cdd119a5b985b1a5e985d1a5bdb951a1c995cda1bdb1960221b815250613a71565b90613af0565b81511015610b6c5760405162461bcd60e51b8152600401610a2790615722565b8154600160a01b900460ff1615610b955760405162461bcd60e51b8152600401610a279061543e565b6000610bd2610bc8610bbf60fb60029054906101000a90046001600160a01b031661010654613afc565b61010554613c8f565b8460010154613a50565b905060006040518060400160405280610bfc84600001518760010154613ca990919063ffffffff16565b8152835160209182015260408051808201825287546001600160a01b03908116825260fb548351632066534160e21b8152935195965060009592948581019462010000909204909216926381994d0492600480840193919291829003018186803b158015610c6957600080fd5b505afa158015610c7d573d6000803e3d6000fd5b505050506040513d601f19601f82011682018060405250810190610ca19190614b33565b6001600160a01b03169052855460ff60a01b1916600160a01b17865561010e54909150610ccf906001613cb5565b61010e55600185015461010854610ce591613ca9565b6101085560fb548351610d09916201000090046001600160a01b0316903090613cc1565b60005b6002811015610d875761010454610d75906001600160a01b0316838360028110610d4657634e487b7160e01b600052603260045260246000fd5b6020020151858460028110610d6b57634e487b7160e01b600052603260045260246000fd5b6020020151613d26565b80610d7f81615b8d565b915050610d0c565b50306001600160a01b0316887fe559d259d098ebbfbb482cbf5ee3dc8452f8bc546a17e55414ce84db017338d633604051610dc29190614f69565b60405180910390a35050600160c955505050505050565b6101116020526000908152604090205460ff1681565b610df76116b8565b15610e145760405162461bcd60e51b8152600401610a2790615461565b6000610e3860fb60029054906101000a90046001600160a01b031661010654613d7c565b5093505082159150610e7e90505760fb54610e62906201000090046001600160a01b031633613e4f565b610e7e5760405162461bcd60e51b8152600401610a279061535b565b610e86613ece565b50565b6101105481565b610e986116b8565b610eb45760405162461bcd60e51b8152600401610a2790615177565b6000610ed860fb60029054906101000a90046001600160a01b031661010654613d7c565b5093505082159150610f1e90505760fb54610f02906201000090046001600160a01b031633613e4f565b610f1e5760405162461bcd60e51b8152600401610a279061535b565b610e86613f40565b61010e5481565b60009081526065602052604090206001015490565b61010c5481565b610f5282610f2d565b610f6381610f5e613f93565b613f97565b610f6d8383613ffb565b505050565b610f7d6000336121da565b610f8657600080fd5b336000610fa860fb60029054906101000a90046001600160a01b0316836138bd565b9150819050610fc95760405162461bcd60e51b8152600401610a27906150cf565b610fd16116b8565b15610fee5760405162461bcd60e51b8152600401610a2790615461565b600160fb54610100900460ff16600481111561101a57634e487b7160e01b600052602160045260246000fd5b148061104f5750600060fb54610100900460ff16600481111561104d57634e487b7160e01b600052602160045260246000fd5b145b61106b5760405162461bcd60e51b8152600401610a2790615600565b600161010e54101561108f5760405162461bcd60e51b8152600401610a2790615237565b60ff61010f54815481106110b357634e487b7160e01b600052603260045260246000fd5b6000918252602090912060079091020154600160a01b900460ff166110ea5760405162461bcd60e51b8152600401610a2790615625565b60fb805461ff001916610200179055611101613ece565b306001600160a01b0316600080516020615c2283398151915260023360405161112b92919061505c565b60405180910390a25050565b61113f613f93565b6001600160a01b0316816001600160a01b03161461116f5760405162461bcd60e51b8152600401610a27906159a5565b6111798282614082565b5050565b60006111a160fb60029054906101000a90046001600160a01b031661010654613d7c565b50935050821591506111e790505760fb546111cb906201000090046001600160a01b031633613e4f565b6111e75760405162461bcd60e51b8152600401610a279061535b565b81600481111561120757634e487b7160e01b600052602160045260246000fd5b60fb805461ff00191661010083600481111561123357634e487b7160e01b600052602160045260246000fd5b021790555030600080516020615c2283398151915283600481111561126857634e487b7160e01b600052602160045260246000fd5b3360405161112b92919061505c565b6112826000336121da565b61128b57600080fd5b3360006112ad60fb60029054906101000a90046001600160a01b0316836138bd565b91508190506112ce5760405162461bcd60e51b8152600401610a27906150cf565b600260c95414156112f15760405162461bcd60e51b8152600401610a279061591c565b600260c9556112fe6116b8565b1561131b5760405162461bcd60e51b8152600401610a2790615461565b61010c54421161132a57600080fd5b60fb54604080518082019091526016815275191958591b1a5b9954dd1c9a5ad95cd05b1b1bddd95960521b6020820152611373916201000090046001600160a01b031690613a71565b61010d54106113945760405162461bcd60e51b8152600401610a279061557a565b60fb5460408051808201909152601481527336b0bc2232b0b23634b732a2bc3a32b739b4b7b760611b60208201526113db916201000090046001600160a01b031690613a71565b8311158015611430575060fb5460408051808201909152601481527336b4b72232b0b23634b732a2bc3a32b739b4b7b760611b602082015261142c916201000090046001600160a01b031690613a71565b8310155b61144c5760405162461bcd60e51b8152600401610a2790615128565b6114564284613cb5565b61010c5561010d54611469906001613cb5565b61010d5560405130907fbc83650d6cbec3f5ee93329a41a9d99cd0cea4b67f37bc51b15daf7fdf43f3d2906114a190869033906159f4565b60405180910390a25050600160c95550565b60fd60209081526000928352604080842090915290825290205460ff1681565b6101146020526000908152604090205460ff1681565b600061150d60fb60029054906101000a90046001600160a01b031661010654613d7c565b509350508215915061155390505760fb54611537906201000090046001600160a01b031633613e4f565b6115535760405162461bcd60e51b8152600401610a279061535b565b600260c95414156115765760405162461bcd60e51b8152600401610a279061591c565b600260c95561010454600160a81b900460ff161561159357600080fd5b61159d8383614107565b5050600160c95550565b60fe60209081526000928352604080842090915290825290205460ff1681565b6101085481565b610104546001600160a01b031681565b6101065481565b61010d5481565b600061161060fb60029054906101000a90046001600160a01b031661010654613d7c565b509350508215915061165690505760fb5461163a906201000090046001600160a01b031633613e4f565b6116565760405162461bcd60e51b8152600401610a2790615337565b80611682576116666000336121da565b6116825760405162461bcd60e51b8152600401610a2790615337565b61168a6116b8565b156116a75760405162461bcd60e51b8152600401610a2790615461565b5060ff1661010d55565b6101005481565b60975460ff1690565b6116cc6000336121da565b6116d557600080fd5b61117981836130ae565b33600061170160fb60029054906101000a90046001600160a01b0316836138bd565b91508190506117225760405162461bcd60e51b8152600401610a27906150cf565b61172a6116b8565b156117475760405162461bcd60e51b8152600401610a2790615461565b600161010054101561176b5760405162461bcd60e51b8152600401610a27906156fd565b336000908152610111602052604090205460ff1661179b5760405162461bcd60e51b8152600401610a2790615774565b600060fb54610100900460ff1660048111156117c757634e487b7160e01b600052602160045260246000fd5b14806117fc5750600160fb54610100900460ff1660048111156117fa57634e487b7160e01b600052602160045260246000fd5b145b6118185760405162461bcd60e51b8152600401610a27906157c8565b336000908152610114602052604090205460ff16156118495760405162461bcd60e51b8152600401610a27906158fa565b33600090815261011460205260409020805460ff191660019081179091556101105461187491613cb5565b61011081905550600061188f610ad9610ac861011054613a0c565b90506118ea676765c793fa10079d601b1b610b4660fb60029054906101000a90046001600160a01b0316604051806040016040528060138152602001727265706f72745468726573686f6c644d61726b60681b815250613a71565b8151106119085760fb805461ff001916610400179055611908613ece565b306001600160a01b03167f756bbf5988586c885742d6c7a25b152c72c45455e4bd728cbaf2d52efd58f72f336040516119419190614f69565b60405180910390a2505050565b6101026020526000908152604090205460ff1681565b33600061198660fb60029054906101000a90046001600160a01b0316836138bd565b91508190506119a75760405162461bcd60e51b8152600401610a27906150cf565b6119af6116b8565b156119cc5760405162461bcd60e51b8152600401610a2790615461565b336000908152610111602052604090205460ff166119fc5760405162461bcd60e51b8152600401610a2790615774565b600084815260fe6020908152604080832033845290915290205460ff1615611a365760405162461bcd60e51b8152600401610a27906156b6565b60ff8481548110611a5757634e487b7160e01b600052603260045260246000fd5b906000526020600020906007020160050154421115611a885760405162461bcd60e51b8152600401610a279061514e565b60ff8481548110611aa957634e487b7160e01b600052603260045260246000fd5b600091825260209091206006600790920201015460ff1615611add5760405162461bcd60e51b8152600401610a27906152c3565b600084815260fe6020908152604080832033808552908352818420805460ff1990811660011790915588855260fd84528285209185529252909120805460ff8616921682179055611ba957611b6e600160ff8681548110611b4e57634e487b7160e01b600052603260045260246000fd5b906000526020600020906007020160030154613cb590919063ffffffff16565b60ff8581548110611b8f57634e487b7160e01b600052603260045260246000fd5b906000526020600020906007020160030181905550611cb3565b8260ff1660011415611c3657611bfb600160ff8681548110611bdb57634e487b7160e01b600052603260045260246000fd5b906000526020600020906007020160020154613cb590919063ffffffff16565b60ff8581548110611c1c57634e487b7160e01b600052603260045260246000fd5b906000526020600020906007020160020181905550611cb3565b611c7c600160ff8681548110611c5c57634e487b7160e01b600052603260045260246000fd5b906000526020600020906007020160040154613cb590919063ffffffff16565b60ff8581548110611c9d57634e487b7160e01b600052603260045260246000fd5b9060005260206000209060070201600401819055505b306001600160a01b0316847fa1525ad3caeaab4dbbaf5b41894a2a846e20eb6aa4192d33d1962221ff5945598533604051611cef929190615acc565b60405180910390a350505050565b60fb546201000090046001600160a01b031681565b60ff8181548110611d2257600080fd5b600091825260209091206007909102018054600182015460028301546003840154600485015460058601546006909601546001600160a01b038616975060ff600160a01b9096048616969495939492939192911688565b61010a5481565b600054610100900460ff1680611d99575060005460ff16155b611db55760405162461bcd60e51b8152600401610a279061552c565b600054610100900460ff16158015611de0576000805460ff1961ff0019909116610100171660011790555b6001600160a01b038316611df357600080fd5b611dfe600084614448565b60fb805460fc80546001600160a01b038881166001600160a01b031992831617909255610103805488841692169190911790558716620100000262010000600160b01b03199091161761ff0019169055610106829055610104805460ff60b01b1916601960b21b1790819055611e8a9060ff600160b01b90910416676765c793fa10079d601b1b613af0565b61010555610104805460ff60a81b191690556101035460405130917f712ca2b562e5fd2535ba18bbc1475ee1bde55964591339ee2fad68b36ac6774691611edc916001600160a01b0316903390614fc0565b60405180910390a28015611ef6576000805461ff00191690555b5050505050565b6000611f2160fb60029054906101000a90046001600160a01b031661010654613d7c565b5093505082159150611f6790505760fb54611f4b906201000090046001600160a01b031633613e4f565b611f675760405162461bcd60e51b8152600401610a279061535b565b506101048054911515600160a81b0260ff60a81b19909216919091179055565b6000611fab60fb60029054906101000a90046001600160a01b031661010654613d7c565b5093505082159150611ff190505760fb54611fd5906201000090046001600160a01b031633613e4f565b611ff15760405162461bcd60e51b8152600401610a279061535b565b600260c95414156120145760405162461bcd60e51b8152600401610a279061591c565b600260c9556120216116b8565b1561203e5760405162461bcd60e51b8152600401610a2790615461565b81600061206060fb60029054906101000a90046001600160a01b0316836138bd565b91508190506120815760405162461bcd60e51b8152600401610a27906150cf565b600060fb54610100900460ff1660048111156120ad57634e487b7160e01b600052602160045260246000fd5b14806120e25750600160fb54610100900460ff1660048111156120e057634e487b7160e01b600052602160045260246000fd5b145b6120eb57600080fd5b6001600160a01b0385166000908152610111602052604090205460ff1661211157600080fd5b6001600160a01b0380861660008181526101126020908152604080832080548a871680865283862091909155948452839055610111909152808220805460ff1990811690915592825290208054909116600117905560fc5461217591168686614452565b306001600160a01b03167f6d5d641d4f3b60587bbb1d2cd115656d1b67435b06bd6aa4ce9480284fc30a0d8686336040516121b293929190614fda565b60405180910390a25050600160c955505050565b6121d1600033611137565b565b6101075481565b60008281526065602090815260408083206001600160a01b038516845290915290205460ff165b92915050565b6101095481565b33600061223060fb60029054906101000a90046001600160a01b0316836138bd565b91508190506122515760405162461bcd60e51b8152600401610a27906150cf565b6122596116b8565b156122765760405162461bcd60e51b8152600401610a2790615461565b600260c95414156122995760405162461bcd60e51b8152600401610a279061591c565b600260c95561010c544211156122c15760405162461bcd60e51b8152600401610a2790615836565b610103546001600160a01b03163314156122ed5760405162461bcd60e51b8152600401610a2790615381565b610104546001600160a01b0386811691161461231b5760405162461bcd60e51b8152600401610a279061568f565b6101095434101561233e5760405162461bcd60e51b8152600401610a2790615310565b60fb5460408051808201909152601a8152791b585e1a5b5d5b50dbdb9d1c9a589d5d1a5bdb905b1b1bddd95960321b602082015261238b916201000090046001600160a01b031690613a71565b3411156123aa5760405162461bcd60e51b8152600401610a27906154dd565b61010454600160a01b900460ff166123fb5761010b5434111580156123df575061010b54610107546123dc9034613cb5565b11155b6123fb5760405162461bcd60e51b8152600401610a27906153eb565b82156124195760fc54612419906001600160a01b0316853433614480565b336000908152610111602052604090205460ff166124605761010a54612440906001613cb5565b61010a5533600090815261011160205260409020805460ff191660011790555b6101075461246e9034613cb5565b61010755610108546124809034613cb5565b61010855336000908152610112602052604090205461249f9034613cb5565b336000908152610112602052604090205561010b54610107541061250c5760fb805461ff0019166101001790556101075460405130917f542013525cd36b6c89e081fa3ce8a34f81d547f7ff83cd0605c6d427e3481f7591612503919033906159f4565b60405180910390a25b61010454612525906001600160a01b03163330346144e8565b83306001600160a01b03167fe285af0ba100526ab18835463cd8ac114bfad3a7293999cd51079ef823231fde34863360405161256393929190615a2a565b60405180910390a35050600160c955505050565b60fb5460ff1681565b61258b6000336121da565b61259457600080fd5b61259c6116b8565b156125b95760405162461bcd60e51b8152600401610a2790615461565b8060006125db60fb60029054906101000a90046001600160a01b0316836138bd565b91508190506125fc5760405162461bcd60e51b8152600401610a27906150cf565b61010380546001600160a01b0319166001600160a01b038516179055612623600084614448565b61262e600033611137565b306001600160a01b03167f141d8d77155f69472beb7fd1ffae79c4fba5c6f2253d4278afd5949015ffc15c8433604051611941929190614fc0565b600081565b6101136020526000908152604090205460ff1681565b61268f6000336121da565b61269857600080fd5b3360006126ba60fb60029054906101000a90046001600160a01b0316836138bd565b91508190506126db5760405162461bcd60e51b8152600401610a27906150cf565b6126e36116b8565b156127005760405162461bcd60e51b8152600401610a2790615461565b60ff838154811061272157634e487b7160e01b600052603260045260246000fd5b600091825260209091206006600790920201015460ff16156127555760405162461bcd60e51b8152600401610a27906152c3565b600160ff848154811061277857634e487b7160e01b600052603260045260246000fd5b906000526020600020906007020160020154106127a75760405162461bcd60e51b8152600401610a2790615505565b600160ff84815481106127ca57634e487b7160e01b600052603260045260246000fd5b906000526020600020906007020160060160006101000a81548160ff021916908315150217905550306001600160a01b0316837fa440c7dcd286ffe63b8f5d96dac11739f23cfc0f2b258f7dd4f2ef9b4d600e8f3360405161282c9190614f69565b60405180910390a3505050565b6128446000336121da565b61284d57600080fd5b6111798183610f49565b6128626000336121da565b61286b57600080fd5b33600061288d60fb60029054906101000a90046001600160a01b0316836138bd565b91508190506128ae5760405162461bcd60e51b8152600401610a27906150cf565b600161010a54106128d15760405162461bcd60e51b8152600401610a27906151d0565b60fb5460408051808201909152601a8152791b5a5b9a5b5d5b50dbdb9d1c9a589d5d1a5bdb905b1b1bddd95960321b602082015261291e916201000090046001600160a01b031690613a71565b8710158015612979575060fb5460408051808201909152601a8152791b585e1a5b5d5b50dbdb9d1c9a589d5d1a5bdb905b1b1bddd95960321b6020820152612975916201000090046001600160a01b031690613a71565b8711155b6129955760405162461bcd60e51b8152600401610a279061579a565b60fb5460405163104b379160e11b8152620100009091046001600160a01b0316906320966f22906129ca908790600401614f69565b60206040518083038186803b1580156129e257600080fd5b505afa1580156129f6573d6000803e3d6000fd5b505050506040513d601f19601f82011682018060405250810190612a1a9190614d40565b612a365760405162461bcd60e51b8152600401610a279061568f565b60fb546040805180820190915260158152741b5a5b9a5b5d5b50d85b5c185a59db95185c99d95d605a1b6020820152612a7e916201000090046001600160a01b031690613a71565b8810158015612ad4575060fb546040805180820190915260158152741b585e1a5b5d5b50d85b5c185a59db95185c99d95d605a1b6020820152612ad0916201000090046001600160a01b031690613a71565b8811155b612af05760405162461bcd60e51b8152600401610a279061574c565b61010b889055610109879055612b064287613cb5565b61010c5561010480546001600160a01b0319166001600160a01b0386161760ff60a01b1916600160a01b85151502179055846001811115612b5757634e487b7160e01b600052602160045260246000fd5b60fb805460ff191660018381811115612b8057634e487b7160e01b600052602160045260246000fd5b0217905550306001600160a01b03167fee25c218d9eb150f6dd11682b54758c9c90c22a68acea789d36d74cdf65c26718888888833604051612bc6959493929190615a8f565b60405180910390a25050505050505050565b336000612bfa60fb60029054906101000a90046001600160a01b0316836138bd565b9150819050612c1b5760405162461bcd60e51b8152600401610a27906150cf565b612c236116b8565b15612c405760405162461bcd60e51b8152600401610a2790615461565b336000908152610111602052604090205460ff16612c705760405162461bcd60e51b8152600401610a2790615774565b60ff8381548110612c9157634e487b7160e01b600052603260045260246000fd5b906000526020600020906007020160050154421115612cc25760405162461bcd60e51b8152600401610a279061514e565b600083815260fe6020908152604080832033845290915290205460ff16612cfb5760405162461bcd60e51b8152600401610a279061548b565b600083815260fe6020908152604080832033808552908352818420805460ff1916905586845260fd835281842090845290915290205460ff16612db957612d7e600160ff8581548110612d5e57634e487b7160e01b600052603260045260246000fd5b906000526020600020906007020160030154613ca990919063ffffffff16565b60ff8481548110612d9f57634e487b7160e01b600052603260045260246000fd5b906000526020600020906007020160030181905550612edc565b600083815260fd6020908152604080832033845290915290205460ff1660011415612e5f57612e24600160ff8581548110612e0457634e487b7160e01b600052603260045260246000fd5b906000526020600020906007020160020154613ca990919063ffffffff16565b60ff8481548110612e4557634e487b7160e01b600052603260045260246000fd5b906000526020600020906007020160020181905550612edc565b612ea5600160ff8581548110612e8557634e487b7160e01b600052603260045260246000fd5b906000526020600020906007020160040154613ca990919063ffffffff16565b60ff8481548110612ec657634e487b7160e01b600052603260045260246000fd5b9060005260206000209060070201600401819055505b600083815260fd6020908152604080832033808552925291829020549151309286927fd406d34b059d067de2d7bcdc71ba7271ff7549a4766a8625671b2e165b443cf59261282c9260ff169190615acc565b61010f5481565b336000612f5760fb60029054906101000a90046001600160a01b0316836138bd565b9150819050612f785760405162461bcd60e51b8152600401610a27906150cf565b612f806116b8565b612f9c5760405162461bcd60e51b8152600401610a2790615177565b600260fb54610100900460ff166004811115612fc857634e487b7160e01b600052602160045260246000fd5b14612fe55760405162461bcd60e51b8152600401610a27906155d9565b336000908152610102602052604090205460ff16156130165760405162461bcd60e51b8152600401610a279061588e565b336000908152610111602052604090205460ff166130465760405162461bcd60e51b8152600401610a2790615774565b33600090815261010260205260409020805460ff191660019081179091556101015461307191613cb5565b6101015560405130907fa35479bbef3bc560431afd3db39f242663c9c60a88edff87bc0a5b7f5393fc8b9061112b903390614f69565b61010b5481565b6130b782610f2d565b6130c381610f5e613f93565b610f6d8383614082565b6101126020526000908152604090205481565b6001600160a01b0381166000908152610113602052604081205460ff161561311a5760405162461bcd60e51b8152600401610a27906151a5565b6000613144610ad961313b6101085461010754613ca990919063ffffffff16565b61010754613c8f565b905060006131846101126000866001600160a01b03166001600160a01b031681526020019081526020016000205461317f846101055461450f565b614524565b949350505050565b61010454600160a81b900460ff1681565b610103546001600160a01b031681565b3360006131cf60fb60029054906101000a90046001600160a01b0316836138bd565b91508190506131f05760405162461bcd60e51b8152600401610a27906150cf565b6131fb6000336121da565b61320457600080fd5b61320c6116b8565b6132285760405162461bcd60e51b8152600401610a2790615177565b600061323c610ad9610ac861010154613a0c565b9050600260fb54610100900460ff16600481111561326a57634e487b7160e01b600052602160045260246000fd5b146132875760405162461bcd60e51b8152600401610a27906155d9565b6132e0676765c793fa10079d601b1b610b4660fb60029054906101000a90046001600160a01b0316604051806040016040528060138152602001727265766965775468726573686f6c644d61726b60681b815250613a71565b815110156133005760405162461bcd60e51b8152600401610a2790615953565b60fb805461ff0019166103001790556040513090600080516020615c228339815191529061194190600390339061505c565b33600061335460fb60029054906101000a90046001600160a01b0316836138bd565b91508190506133755760405162461bcd60e51b8152600401610a27906150cf565b600260c95414156133985760405162461bcd60e51b8152600401610a279061591c565b600260c95561010454600160a81b900460ff16156133b557600080fd5b61159d3384614107565b6101015481565b6133d16000336121da565b6133da57600080fd5b3360006133fc60fb60029054906101000a90046001600160a01b0316836138bd565b915081905061341d5760405162461bcd60e51b8152600401610a27906150cf565b6134256116b8565b156134425760405162461bcd60e51b8152600401610a2790615461565b6001600160a01b03851661345557600080fd5b61010b546101075410156134865761010c544210156134865760405162461bcd60e51b8152600401610a27906154af565b600060fb5460ff1660018111156134ad57634e487b7160e01b600052602160045260246000fd5b141561350e5761010b5461010754101580156134f25750600160fb54610100900460ff1660048111156134f057634e487b7160e01b600052602160045260246000fd5b145b61350e5760405162461bcd60e51b8152600401610a2790615266565b60fb5460408051808201909152601b81527a1b5a5b9a5b5d5b54995c5d595cdd105b5bdd5b9d105b1b1bddd959602a1b602082015261355c916201000090046001600160a01b031690613a71565b84101580156135b8575060fb5460408051808201909152601b81527a1b585e1a5b5d5b54995c5d595cdd105b5bdd5b9d105b1b1bddd959602a1b60208201526135b4916201000090046001600160a01b031690613a71565b8411155b6135d45760405162461bcd60e51b8152600401610a27906156d5565b610108548411156135f75760405162461bcd60e51b8152600401610a27906155a5565b60fb5460408051808201909152601281527136b4b72932b8bab2b9ba223ab930ba34b7b760711b602082015261363c916201000090046001600160a01b031690613a71565b831015801561368f575060fb5460408051808201909152601281527136b0bc2932b8bab2b9ba223ab930ba34b7b760711b602082015261368b916201000090046001600160a01b031690613a71565b8311155b6136ab5760405162461bcd60e51b8152600401610a279061597b565b600161010054106137115760ff61010f54815481106136da57634e487b7160e01b600052603260045260246000fd5b6000918252602090912060079091020154600160a01b900460ff166137115760405162461bcd60e51b8152600401610a2790615625565b60ff604051806101000160405280876001600160a01b031681526020016000151581526020018681526020016000815260200160008152602001600081526020016137658642613cb590919063ffffffff16565b8152600060209182018190528354600180820186559482529082902083516007909202018054928401516001600160a01b03199093166001600160a01b039092169190911760ff60a01b1916600160a01b92151592909202919091178155604082015181840155606082015160028201556080820151600382015560a0820151600482015560c0820151600582015560e0909101516006909101805460ff19169115159190911790556101005461381b91613cb5565b6101005560ff5461382d906001613ca9565b61010f5560ff543090613841906001613ca9565b7f823dc9736a56a564db1ee4e6689052f2cb7b486ad859872ba53dd5c13d2c8c71858789336040516138769493929190615a68565b60405180910390a35050505050565b60fb54610100900460ff1681565b61010454600160a01b900460ff1681565b6001600160e01b031981166301ffc9a760e01b14919050565b6000806001600160a01b0383166138d357600080fd5b600080856001600160a01b031663365b98b2876001600160a01b031663eda7794e886040518263ffffffff1660e01b81526004016139119190614f69565b60206040518083038186803b15801561392957600080fd5b505afa15801561393d573d6000803e3d6000fd5b505050506040513d601f19601f820116820180604052508101906139619190614e10565b6040518263ffffffff1660e01b815260040161397d9190615045565b60a06040518083038186803b15801561399557600080fd5b505afa1580156139a9573d6000803e3d6000fd5b505050506040513d601f19601f820116820180604052508101906139cd9190614cc3565b5092945091925050506001600160a01b0380831690861614613a015760405162461bcd60e51b8152600401610a27906152e3565b909590945092505050565b613a14614af3565b50604080516020810190915290815290565b613a2e614af3565b6040518060200160405280613a4785600001518561458c565b90529392505050565b613a58614af3565b613a6a83613a6584613a0c565b6145b0565b9392505050565b6040516314f7ea9960e01b81526000906001600160a01b038416906314f7ea9990613aa090859060040161509c565b60206040518083038186803b158015613ab857600080fd5b505afa158015613acc573d6000803e3d6000fd5b505050506040513d601f19601f82011682018060405250810190613a6a9190614e10565b6000613a6a8284615b14565b6000806000846001600160a01b031663339d50a5856040518263ffffffff1660e01b8152600401613b2d9190615045565b6101206040518083038186803b158015613b4657600080fd5b505afa158015613b5a573d6000803e3d6000fd5b505050506040513d601f19601f82011682018060405250810190613b7e9190614bbb565b5050604051634c788de760e11b8152929850506001600160a01b038b1695506398f11bce9450613bb5935087925050600401615045565b60206040518083038186803b158015613bcd57600080fd5b505afa158015613be1573d6000803e3d6000fd5b505050506040513d601f19601f82011682018060405250810190613c059190614e10565b905080613184576040516314f7ea9960e01b81526001600160a01b038616906314f7ea9990613c3690600401615413565b60206040518083038186803b158015613c4e57600080fd5b505afa158015613c62573d6000803e3d6000fd5b505050506040513d601f19601f82011682018060405250810190613c869190614e10565b95945050505050565b613c97614af3565b613a6a613ca384613a0c565b8361450f565b6000613a6a8284615b33565b6000613a6a8284615ae8565b60405163e128c96960e01b81526001600160a01b0384169063e128c96990613cef9085908590600401615021565b600060405180830381600087803b158015613d0957600080fd5b505af1158015613d1d573d6000803e3d6000fd5b50505050505050565b610f6d8363a9059cbb60e01b8484604051602401613d45929190615021565b60408051601f198184030181529190526020810180516001600160e01b03166001600160e01b0319909316929092179091526145d1565b6000806000806000806000806000808b6001600160a01b031663339d50a58c6040518263ffffffff1660e01b8152600401613db79190615045565b6101206040518083038186803b158015613dd057600080fd5b505afa158015613de4573d6000803e3d6000fd5b505050506040513d601f19601f82011682018060405250810190613e089190614bbb565b909192939495509091929394509091929350909150809850819950829550839650849750505050505082828287879950995099509950995050505050509295509295909350565b60405163f7878c6960e01b81526000906001600160a01b0384169063f7878c6990613e7e908590600401614f69565b60206040518083038186803b158015613e9657600080fd5b505afa158015613eaa573d6000803e3d6000fd5b505050506040513d601f19601f82011682018060405250810190613a6a9190614d40565b613ed66116b8565b15613ef35760405162461bcd60e51b8152600401610a2790615461565b6097805460ff191660011790557f62e78cea01bee320cd4e420270b5ea74000d11b0c9f74754ebdbfc544b05a258613f29613f93565b604051613f369190614f69565b60405180910390a1565b613f486116b8565b613f645760405162461bcd60e51b8152600401610a2790615177565b6097805460ff191690557f5db9ee0a495bf2e6ff9c91a7834c1ba4fdd244a5e8aa4e537bd38aeae4b073aa613f295b3390565b613fa182826121da565b61117957613fb9816001600160a01b03166014614660565b613fc4836020614660565b604051602001613fd5929190614efa565b60408051601f198184030181529082905262461bcd60e51b8252610a279160040161509c565b61400582826121da565b6111795760008281526065602090815260408083206001600160a01b03851684529091529020805460ff1916600117905561403e613f93565b6001600160a01b0316816001600160a01b0316837f2f8788117e7eff1d82e926ec794901d17c78024a50270940304540a733656f0d60405160405180910390a45050565b61408c82826121da565b156111795760008281526065602090815260408083206001600160a01b03851684529091529020805460ff191690556140c3613f93565b6001600160a01b0316816001600160a01b0316837ff6391f5c32d9c69d2a47ea670b442974b53935d1edc7fd64eb21e047a839171b60405160405180910390a45050565b6001600160a01b03811661411a57600080fd5b6001600160a01b0382166000908152610113602052604090205460ff16156141545760405162461bcd60e51b8152600401610a27906151a5565b6001600160a01b0382166000908152610111602052604090205460ff1661418d5760405162461bcd60e51b8152600401610a2790615774565b600460fb54610100900460ff1660048111156141b957634e487b7160e01b600052602160045260246000fd5b141580156141f15750600260fb54610100900460ff1660048111156141ee57634e487b7160e01b600052602160045260246000fd5b14155b80156142005750600161010154105b1561427157600060fb54610100900460ff16600481111561423157634e487b7160e01b600052602160045260246000fd5b1461424e5760405162461bcd60e51b8152600401610a2790615200565b600161010e54106142715760405162461bcd60e51b8152600401610a2790615860565b600061429f61427f846130e0565b6001600160a01b0385166000908152610112602052604090205490613ca9565b9050600460fb54610100900460ff1660048111156142cd57634e487b7160e01b600052602160045260246000fd5b141580156143055750600260fb54610100900460ff16600481111561430257634e487b7160e01b600052602160045260246000fd5b14155b156143975760fc54614320906001600160a01b031684614811565b6101085461432e9082613ca9565b61010855610107546143409082613ca9565b610107556001600160a01b038316600090815261011160205260409020805460ff1916905561010a54614374906001613ca9565b61010a556001600160a01b038316600090815261011260205260408120556143d6565b6001600160a01b038316600090815261011260205260409020546143bb9082613ca9565b6001600160a01b038416600090815261011260205260409020555b6001600160a01b03808416600090815261011360205260409020805460ff191660011790556101045461440b91168383613d26565b306001600160a01b03167fc3667c052e3c8a2b050dc9c5fd98873be15e93f9f935ce07b572ca8ab934234182853360405161194193929190615a0b565b6111798282613ffb565b6040516374dc32b960e11b81526001600160a01b0384169063e9b8657290613cef9085908590600401614fc0565b604051630e9709bf60e41b81526001600160a01b0385169063e9709bf0906144b090869086908690600401615a49565b600060405180830381600087803b1580156144ca57600080fd5b505af11580156144de573d6000803e3d6000fd5b5050505050505050565b614509846323b872dd60e01b858585604051602401613d4593929190614ffd565b50505050565b614517614af3565b613a6a83610ad484613a0c565b80516000908190614536908590614873565b905061454d81676765c793fa10079d601b1b6148b8565b1561457757614572600161456c83676765c793fa10079d601b1b6148f5565b90614934565b613184565b61318481676765c793fa10079d601b1b6148f5565b8051600090613a6a906145aa85676765c793fa10079d601b1b614873565b906148f5565b6145b8614af3565b6040518060200160405280613a47856000015185614963565b6000614626826040518060400160405280602081526020017f5361666545524332303a206c6f772d6c6576656c2063616c6c206661696c6564815250856001600160a01b031661498b9092919063ffffffff16565b805190915015610f6d57808060200190518101906146449190614d40565b610f6d5760405162461bcd60e51b8152600401610a27906158b0565b6060600061466f836002615b14565b61467a906002615ae8565b6001600160401b0381111561469f57634e487b7160e01b600052604160045260246000fd5b6040519080825280601f01601f1916602001820160405280156146c9576020820181803683370190505b509050600360fc1b816000815181106146f257634e487b7160e01b600052603260045260246000fd5b60200101906001600160f81b031916908160001a905350600f60fb1b8160018151811061472f57634e487b7160e01b600052603260045260246000fd5b60200101906001600160f81b031916908160001a9053506000614753846002615b14565b61475e906001615ae8565b90505b60018111156147f2576f181899199a1a9b1b9c1cb0b131b232b360811b85600f16601081106147a057634e487b7160e01b600052603260045260246000fd5b1a60f81b8282815181106147c457634e487b7160e01b600052603260045260246000fd5b60200101906001600160f81b031916908160001a90535060049490941c936147eb81615b76565b9050614761565b508315613a6a5760405162461bcd60e51b8152600401610a27906150f3565b604051630eaf305760e21b81526001600160a01b03831690633abcc15c9061483d908490600401614f69565b600060405180830381600087803b15801561485757600080fd5b505af115801561486b573d6000803e3d6000fd5b505050505050565b60008261488257506000612201565b600061488e8385615b14565b90508261489b8583615b00565b14613a6a5760405162461bcd60e51b8152600401610a279061564e565b6000613a6a838360405180604001604052806018815260200177536166654d6174683a206d6f64756c6f206279207a65726f60401b81525061499a565b6000613a6a83836040518060400160405280601a815260200179536166654d6174683a206469766973696f6e206279207a65726f60301b8152506149c6565b6000806149418385615ae8565b905083811015613a6a5760405162461bcd60e51b8152600401610a279061528e565b6000613a6a676765c793fa10079d601b1b6145aa84600001518661487390919063ffffffff16565b606061318484846000856149f4565b600081836149bb5760405162461bcd60e51b8152600401610a27919061509c565b506131848385615ba8565b600081836149e75760405162461bcd60e51b8152600401610a27919061509c565b506000613c868486615b00565b606082471015614a165760405162461bcd60e51b8152600401610a27906153a5565b614a1f85614ab4565b614a3b5760405162461bcd60e51b8152600401610a27906157ff565b600080866001600160a01b03168587604051614a579190614ede565b60006040518083038185875af1925050503d8060008114614a94576040519150601f19603f3d011682016040523d82523d6000602084013e614a99565b606091505b5091509150614aa9828286614aba565b979650505050505050565b3b151590565b60608315614ac9575081613a6a565b825115614ad95782518084602001fd5b8160405162461bcd60e51b8152600401610a27919061509c565b6040518060200160405280600081525090565b803560ff811681146109cb57600080fd5b600060208284031215614b28578081fd5b8135613a6a81615bfe565b600060208284031215614b44578081fd5b8151613a6a81615bfe565b600080600060608486031215614b63578182fd5b8335614b6e81615bfe565b95602085013595506040909401359392505050565b60008060408385031215614b95578182fd5b8235614ba081615bfe565b91506020830135614bb081615bfe565b809150509250929050565b60008060008060008060008060006101208a8c031215614bd9578485fd5b8951614be481615bfe565b60208b0151909950614bf581615bfe565b8098505060408a0151965060608a0151955060808a0151945060a08a0151935060c08a0151614c2381615c13565b60e08b0151909350614c3481615c13565b6101008b0151909250614c4681615c13565b809150509295985092959850929598565b60008060408385031215614c69578182fd5b8235614c7481615bfe565b946020939093013593505050565b600080600060608486031215614c96578283fd5b8335614ca181615bfe565b9250602084013591506040840135614cb881615c13565b809150509250925092565b600080600080600060a08688031215614cda578081fd5b8551614ce581615bfe565b8095505060208601519350604086015192506060860151614d0581615c13565b6080870151909250614d1681615c13565b809150509295509295909350565b600060208284031215614d35578081fd5b8135613a6a81615c13565b600060208284031215614d51578081fd5b8151613a6a81615c13565b600060208284031215614d6d578081fd5b5035919050565b60008060408385031215614d86578182fd5b823591506020830135614bb081615bfe565b600060208284031215614da9578081fd5b81356001600160e01b031981168114613a6a578182fd5b60008060008060808587031215614dd5578182fd5b8435614de081615bfe565b93506020850135614df081615bfe565b92506040850135614e0081615bfe565b9396929550929360600135925050565b600060208284031215614e21578081fd5b5051919050565b60008060008060008060c08789031215614e40578384fd5b863595506020870135945060408701359350606087013592506080870135614e6781615bfe565b915060a0870135614e7781615c13565b809150509295509295509295565b60008060408385031215614e97578182fd5b82359150614ea760208401614b06565b90509250929050565b600060208284031215614ec1578081fd5b613a6a82614b06565b60058110614eda57614eda615be8565b9052565b60008251614ef0818460208701615b4a565b9190910192915050565b600076020b1b1b2b9b9a1b7b73a3937b61d1030b1b1b7bab73a1604d1b82528351614f2c816017850160208801615b4a565b7001034b99036b4b9b9b4b733903937b6329607d1b6017918401918201528351614f5d816028840160208801615b4a565b01602801949350505050565b6001600160a01b0391909116815260200190565b6001600160a01b03989098168852951515602088015260408701949094526060860192909252608085015260a084015260c0830152151560e08201526101000190565b6001600160a01b0392831681529116602082015260400190565b6001600160a01b0393841681529183166020830152909116604082015260600190565b6001600160a01b039384168152919092166020820152604081019190915260600190565b6001600160a01b03929092168252602082015260400190565b901515815260200190565b90815260200190565b602081016122018284614eca565b6040810161506a8285614eca565b6001600160a01b039290921660209190910152919050565b602081016002831061509657615096615be8565b91905290565b60006020825282518060208401526150bb816040850160208701615b4a565b601f01601f19169190910160400192915050565b6020808252600a90820152691d5b9d995c9a599a595960b21b604082015260600190565b6020808252818101527f537472696e67733a20686578206c656e67746820696e73756666696369656e74604082015260600190565b6020808252600c908201526b1d1a5b59481919599a58da5d60a21b604082015260600190565b6020808252600f908201526e1c995c5d595cdd08195e1c1a5c9959608a1b604082015260600190565b60208082526014908201527314185d5cd8589b194e881b9bdd081c185d5cd95960621b604082015260600190565b6020808252601190820152703130b630b731b2903bb4ba34323930bbb760791b604082015260600190565b60208082526016908201527563616d706169676e2068617320617070726f7665727360501b604082015260600190565b6020808252601d908201527f6e6f206c6f6e67657220696e20636f6c6c656374696f6e207374616765000000604082015260600190565b6020808252601590820152746e6f2066696e616c697a656420726571756573747360581b604082015260600190565b6020808252600e908201526d1d185c99d95d081b9bdd081b595d60921b604082015260600190565b6020808252601b908201527a536166654d6174683a206164646974696f6e206f766572666c6f7760281b604082015260600190565b6020808252600690820152651d9bda59195960d21b604082015260600190565b6020808252601390820152721d5cd95c88191bd95cc81b9bdd08195e1a5cdd606a1b604082015260600190565b6020808252600d908201526c76616c756520746f6f206c6f7760981b604082015260600190565b6020808252600a908201526937b7363c9030b236b4b760b11b604082015260600190565b6020808252600c908201526b6f6e6c7920666163746f727960a01b604082015260600190565b6020808252600a90820152693937b7ba1037bbb732b960b11b604082015260600190565b60208082526026908201527f416464726573733a20696e73756666696369656e742062616c616e636520666f6040820152651c8818d85b1b60d21b606082015260800190565b6020808252600e908201526d195e18d959591cc81d185c99d95d60921b604082015260600190565b6020808252601190820152703232b330bab63a21b7b6b6b4b9b9b4b7b760791b604082015260600190565b602080825260099082015268199a5b985b1a5e995960ba1b604082015260600190565b60208082526010908201526f14185d5cd8589b194e881c185d5cd95960821b604082015260600190565b6020808252600a90820152691d9bdd1948199a5c9cdd60b21b604082015260600190565b602080825260149082015273191958591b1a5b99481b9bdd08195e1c1a5c995960621b604082015260600190565b6020808252600e908201526d0ecc2d8eaca40e8dede40d0d2ced60931b604082015260600190565b6020808252600d908201526c68617320617070726f76616c7360981b604082015260600190565b6020808252602e908201527f496e697469616c697a61626c653a20636f6e747261637420697320616c72656160408201526d191e481a5b9a5d1a585b1a5e995960921b606082015260800190565b60208082526011908201527065786861757374656420737472696b657360781b604082015260600190565b6020808252601a9082015279616d6f756e7420686967686572207468616e2062616c616e636560301b604082015260600190565b6020808252600d908201526c6e6f7420696e2072657669657760981b604082015260600190565b6020808252600b908201526a6e6f74206f6e676f696e6760a81b604082015260600190565b6020808252600f908201526e72657175657374206f6e676f696e6760881b604082015260600190565b60208082526021908201527f536166654d6174683a206d756c7469706c69636174696f6e206f766572666c6f6040820152607760f81b606082015260800190565b6020808252600d908201526c34b73b30b634b2103a37b5b2b760991b604082015260600190565b6020808252600590820152641d9bdd195960da1b604082015260600190565b6020808252600e908201526d185b5bdd5b9d081919599a58da5d60921b604082015260600190565b6020808252600b908201526a6e6f20726571756573747360a81b604082015260600190565b60208082526010908201526f185c1c1c9bdd985b081919599a58da5d60821b604082015260600190565b6020808252600e908201526d1d185c99d95d081919599a58da5d60921b604082015260600190565b6020808252600c908201526b3737b71030b8383937bb32b960a11b604082015260600190565b60208082526014908201527318dbdb9d1c9a589d5d1a5bdb881919599a58da5d60621b604082015260600190565b6020808252601f908201527f6e6f7420696e20636f6c6c656374696f6e206f72206c69766520737461746500604082015260600190565b6020808252601d908201527f416464726573733a2063616c6c20746f206e6f6e2d636f6e7472616374000000604082015260600190565b60208082526010908201526f191958591b1a5b9948195e1c1a5c995960821b604082015260600190565b6020808252601490820152731c995c5d595cdd0a1cca48199a5b985b1a5e995960621b604082015260600190565b6020808252600890820152671c995d9a595dd95960c21b604082015260600190565b6020808252602a908201527f5361666545524332303a204552433230206f7065726174696f6e20646964206e6040820152691bdd081cdd58d8d9595960b21b606082015260800190565b6020808252600890820152671c995c1bdc9d195960c21b604082015260600190565b6020808252601f908201527f5265656e7472616e637947756172643a207265656e7472616e742063616c6c00604082015260600190565b6020808252600e908201526d1c995d9a595dc81919599a58da5d60921b604082015260600190565b60208082526010908201526f191d5c985d1a5bdb881919599a58da5d60821b604082015260600190565b6020808252602f908201527f416363657373436f6e74726f6c3a2063616e206f6e6c792072656e6f756e636560408201526e103937b632b9903337b91039b2b63360891b606082015260800190565b9182526001600160a01b0316602082015260400190565b9283526001600160a01b03918216602084015216604082015260600190565b92835290151560208301526001600160a01b0316604082015260600190565b92835260208301919091526001600160a01b0316604082015260600190565b93845260208401929092526001600160a01b03908116604084015216606082015260800190565b948552602085019390935260408401919091526001600160a01b03908116606084015216608082015260a00190565b60ff91909116815260200190565b60ff9290921682526001600160a01b0316602082015260400190565b60008219821115615afb57615afb615bbc565b500190565b600082615b0f57615b0f615bd2565b500490565b6000816000190483118215151615615b2e57615b2e615bbc565b500290565b600082821015615b4557615b45615bbc565b500390565b60005b83811015615b65578181015183820152602001615b4d565b838111156145095750506000910152565b600081615b8557615b85615bbc565b506000190190565b6000600019821415615ba157615ba1615bbc565b5060010190565b600082615bb757615bb7615bd2565b500690565b634e487b7160e01b600052601160045260246000fd5b634e487b7160e01b600052601260045260246000fd5b634e487b7160e01b600052602160045260246000fd5b6001600160a01b0381168114610e8657600080fd5b8015158114610e8657600080fdfeedd12f30896969d8a3bde82810a795aeddadc9236a165e3c9833988bff36c5e1a26469706673582212207eb1eb8b3c240b8a9dc4bc69cced18aeda99ec0134cea5d7de7c438c6d5a15b764736f6c63430008000033",
			"opcodes": "PUSH1 0x80 PUSH1 0x40 MSTORE CALLVALUE DUP1 ISZERO PUSH2 0x10 JUMPI PUSH1 0x0 DUP1 REVERT JUMPDEST POP PUSH2 0x5C77 DUP1 PUSH3 0x21 PUSH1 0x0 CODECOPY PUSH1 0x0 RETURN INVALID PUSH1 0x80 PUSH1 0x40 MSTORE PUSH1 0x4 CALLDATASIZE LT PUSH2 0x2BD JUMPI PUSH1 0x0 CALLDATALOAD PUSH1 0xE0 SHR DUP1 PUSH4 0x1FFC9A7 EQ PUSH2 0x2C2 JUMPI DUP1 PUSH4 0x3441006 EQ PUSH2 0x2F8 JUMPI DUP1 PUSH4 0xA144391 EQ PUSH2 0x31A JUMPI DUP1 PUSH4 0xD10F3B5 EQ PUSH2 0x33A JUMPI DUP1 PUSH4 0x185C6F84 EQ PUSH2 0x34F JUMPI DUP1 PUSH4 0x1C8E541B EQ PUSH2 0x371 JUMPI DUP1 PUSH4 0x1F93DA25 EQ PUSH2 0x386 JUMPI DUP1 PUSH4 0x248A9CA3 EQ PUSH2 0x39B JUMPI DUP1 PUSH4 0x29DCB0CF EQ PUSH2 0x3BB JUMPI DUP1 PUSH4 0x2F2FF15D EQ PUSH2 0x3D0 JUMPI DUP1 PUSH4 0x34D71E17 EQ PUSH2 0x3F0 JUMPI DUP1 PUSH4 0x36568ABE EQ PUSH2 0x405 JUMPI DUP1 PUSH4 0x36CB9588 EQ PUSH2 0x425 JUMPI DUP1 PUSH4 0x389B7533 EQ PUSH2 0x445 JUMPI DUP1 PUSH4 0x38C21911 EQ PUSH2 0x465 JUMPI DUP1 PUSH4 0x3EAA91F5 EQ PUSH2 0x492 JUMPI DUP1 PUSH4 0x43519C48 EQ PUSH2 0x4B2 JUMPI DUP1 PUSH4 0x43859632 EQ PUSH2 0x4D2 JUMPI DUP1 PUSH4 0x43A1A776 EQ PUSH2 0x4F2 JUMPI DUP1 PUSH4 0x451C3D80 EQ PUSH2 0x507 JUMPI DUP1 PUSH4 0x49ED2FA9 EQ PUSH2 0x529 JUMPI DUP1 PUSH4 0x57414C37 EQ PUSH2 0x53E JUMPI DUP1 PUSH4 0x5A4A7939 EQ PUSH2 0x553 JUMPI DUP1 PUSH4 0x5BADBE4C EQ PUSH2 0x573 JUMPI DUP1 PUSH4 0x5C975ABB EQ PUSH2 0x588 JUMPI DUP1 PUSH4 0x6853920E EQ PUSH2 0x59D JUMPI DUP1 PUSH4 0x6C0DDC12 EQ PUSH2 0x5BD JUMPI DUP1 PUSH4 0x714BF908 EQ PUSH2 0x5D2 JUMPI DUP1 PUSH4 0x7178F036 EQ PUSH2 0x5F2 JUMPI DUP1 PUSH4 0x7E0F9DD1 EQ PUSH2 0x612 JUMPI DUP1 PUSH4 0x81D12C58 EQ PUSH2 0x627 JUMPI DUP1 PUSH4 0x82FDE093 EQ PUSH2 0x65B JUMPI DUP1 PUSH4 0x83BCBC4B EQ PUSH2 0x670 JUMPI DUP1 PUSH4 0x883C46F0 EQ PUSH2 0x690 JUMPI DUP1 PUSH4 0x88A31541 EQ PUSH2 0x6B0 JUMPI DUP1 PUSH4 0x8BAD0C0A EQ PUSH2 0x6D0 JUMPI DUP1 PUSH4 0x8EF9AF72 EQ PUSH2 0x6E5 JUMPI DUP1 PUSH4 0x91D14854 EQ PUSH2 0x6FA JUMPI DUP1 PUSH4 0x937E09B1 EQ PUSH2 0x71A JUMPI DUP1 PUSH4 0x94A91DE8 EQ PUSH2 0x72F JUMPI DUP1 PUSH4 0x95CBD157 EQ PUSH2 0x742 JUMPI DUP1 PUSH4 0x98407647 EQ PUSH2 0x764 JUMPI DUP1 PUSH4 0xA217FDDF EQ PUSH2 0x784 JUMPI DUP1 PUSH4 0xA32D6469 EQ PUSH2 0x799 JUMPI DUP1 PUSH4 0xA364008A EQ PUSH2 0x7B9 JUMPI DUP1 PUSH4 0xA73F7F8A EQ PUSH2 0x7D9 JUMPI DUP1 PUSH4 0xB3035EFA EQ PUSH2 0x7F9 JUMPI DUP1 PUSH4 0xBACBE2DA EQ PUSH2 0x819 JUMPI DUP1 PUSH4 0xD2411D19 EQ PUSH2 0x839 JUMPI DUP1 PUSH4 0xD2A8F6A4 EQ PUSH2 0x84E JUMPI DUP1 PUSH4 0xD4B83992 EQ PUSH2 0x863 JUMPI DUP1 PUSH4 0xD547741F EQ PUSH2 0x878 JUMPI DUP1 PUSH4 0xD753CA7C EQ PUSH2 0x898 JUMPI DUP1 PUSH4 0xD75C3CB7 EQ PUSH2 0x8B8 JUMPI DUP1 PUSH4 0xE9F2838E EQ PUSH2 0x8D8 JUMPI DUP1 PUSH4 0xEBF0C717 EQ PUSH2 0x8ED JUMPI DUP1 PUSH4 0xEBF52409 EQ PUSH2 0x902 JUMPI DUP1 PUSH4 0xEFBB53C9 EQ PUSH2 0x917 JUMPI DUP1 PUSH4 0xEFF5924F EQ PUSH2 0x937 JUMPI DUP1 PUSH4 0xF3F08015 EQ PUSH2 0x94C JUMPI DUP1 PUSH4 0xF4C9B1FD EQ PUSH2 0x96C JUMPI DUP1 PUSH4 0xFC7A96A0 EQ PUSH2 0x98E JUMPI JUMPDEST PUSH1 0x0 DUP1 REVERT JUMPDEST CALLVALUE DUP1 ISZERO PUSH2 0x2CE JUMPI PUSH1 0x0 DUP1 REVERT JUMPDEST POP PUSH2 0x2E2 PUSH2 0x2DD CALLDATASIZE PUSH1 0x4 PUSH2 0x4D98 JUMP JUMPDEST PUSH2 0x9A3 JUMP JUMPDEST PUSH1 0x40 MLOAD PUSH2 0x2EF SWAP2 SWAP1 PUSH2 0x503A JUMP JUMPDEST PUSH1 0x40 MLOAD DUP1 SWAP2 SUB SWAP1 RETURN JUMPDEST CALLVALUE DUP1 ISZERO PUSH2 0x304 JUMPI PUSH1 0x0 DUP1 REVERT JUMPDEST POP PUSH2 0x318 PUSH2 0x313 CALLDATASIZE PUSH1 0x4 PUSH2 0x4D5C JUMP JUMPDEST PUSH2 0x9D0 JUMP JUMPDEST STOP JUMPDEST CALLVALUE DUP1 ISZERO PUSH2 0x326 JUMPI PUSH1 0x0 DUP1 REVERT JUMPDEST POP PUSH2 0x2E2 PUSH2 0x335 CALLDATASIZE PUSH1 0x4 PUSH2 0x4B17 JUMP JUMPDEST PUSH2 0xDD9 JUMP JUMPDEST CALLVALUE DUP1 ISZERO PUSH2 0x346 JUMPI PUSH1 0x0 DUP1 REVERT JUMPDEST POP PUSH2 0x318 PUSH2 0xDEF JUMP JUMPDEST CALLVALUE DUP1 ISZERO PUSH2 0x35B JUMPI PUSH1 0x0 DUP1 REVERT JUMPDEST POP PUSH2 0x364 PUSH2 0xE89 JUMP JUMPDEST PUSH1 0x40 MLOAD PUSH2 0x2EF SWAP2 SWAP1 PUSH2 0x5045 JUMP JUMPDEST CALLVALUE DUP1 ISZERO PUSH2 0x37D JUMPI PUSH1 0x0 DUP1 REVERT JUMPDEST POP PUSH2 0x318 PUSH2 0xE90 JUMP JUMPDEST CALLVALUE DUP1 ISZERO PUSH2 0x392 JUMPI PUSH1 0x0 DUP1 REVERT JUMPDEST POP PUSH2 0x364 PUSH2 0xF26 JUMP JUMPDEST CALLVALUE DUP1 ISZERO PUSH2 0x3A7 JUMPI PUSH1 0x0 DUP1 REVERT JUMPDEST POP PUSH2 0x364 PUSH2 0x3B6 CALLDATASIZE PUSH1 0x4 PUSH2 0x4D5C JUMP JUMPDEST PUSH2 0xF2D JUMP JUMPDEST CALLVALUE DUP1 ISZERO PUSH2 0x3C7 JUMPI PUSH1 0x0 DUP1 REVERT JUMPDEST POP PUSH2 0x364 PUSH2 0xF42 JUMP JUMPDEST CALLVALUE DUP1 ISZERO PUSH2 0x3DC JUMPI PUSH1 0x0 DUP1 REVERT JUMPDEST POP PUSH2 0x318 PUSH2 0x3EB CALLDATASIZE PUSH1 0x4 PUSH2 0x4D74 JUMP JUMPDEST PUSH2 0xF49 JUMP JUMPDEST CALLVALUE DUP1 ISZERO PUSH2 0x3FC JUMPI PUSH1 0x0 DUP1 REVERT JUMPDEST POP PUSH2 0x318 PUSH2 0xF72 JUMP JUMPDEST CALLVALUE DUP1 ISZERO PUSH2 0x411 JUMPI PUSH1 0x0 DUP1 REVERT JUMPDEST POP PUSH2 0x318 PUSH2 0x420 CALLDATASIZE PUSH1 0x4 PUSH2 0x4D74 JUMP JUMPDEST PUSH2 0x1137 JUMP JUMPDEST CALLVALUE DUP1 ISZERO PUSH2 0x431 JUMPI PUSH1 0x0 DUP1 REVERT JUMPDEST POP PUSH2 0x318 PUSH2 0x440 CALLDATASIZE PUSH1 0x4 PUSH2 0x4D5C JUMP JUMPDEST PUSH2 0x117D JUMP JUMPDEST CALLVALUE DUP1 ISZERO PUSH2 0x451 JUMPI PUSH1 0x0 DUP1 REVERT JUMPDEST POP PUSH2 0x318 PUSH2 0x460 CALLDATASIZE PUSH1 0x4 PUSH2 0x4D5C JUMP JUMPDEST PUSH2 0x1277 JUMP JUMPDEST CALLVALUE DUP1 ISZERO PUSH2 0x471 JUMPI PUSH1 0x0 DUP1 REVERT JUMPDEST POP PUSH2 0x485 PUSH2 0x480 CALLDATASIZE PUSH1 0x4 PUSH2 0x4D74 JUMP JUMPDEST PUSH2 0x14B3 JUMP JUMPDEST PUSH1 0x40 MLOAD PUSH2 0x2EF SWAP2 SWAP1 PUSH2 0x5ABE JUMP JUMPDEST CALLVALUE DUP1 ISZERO PUSH2 0x49E JUMPI PUSH1 0x0 DUP1 REVERT JUMPDEST POP PUSH2 0x2E2 PUSH2 0x4AD CALLDATASIZE PUSH1 0x4 PUSH2 0x4B17 JUMP JUMPDEST PUSH2 0x14D3 JUMP JUMPDEST CALLVALUE DUP1 ISZERO PUSH2 0x4BE JUMPI PUSH1 0x0 DUP1 REVERT JUMPDEST POP PUSH2 0x318 PUSH2 0x4CD CALLDATASIZE PUSH1 0x4 PUSH2 0x4B83 JUMP JUMPDEST PUSH2 0x14E9 JUMP JUMPDEST CALLVALUE DUP1 ISZERO PUSH2 0x4DE JUMPI PUSH1 0x0 DUP1 REVERT JUMPDEST POP PUSH2 0x2E2 PUSH2 0x4ED CALLDATASIZE PUSH1 0x4 PUSH2 0x4D74 JUMP JUMPDEST PUSH2 0x15A7 JUMP JUMPDEST CALLVALUE DUP1 ISZERO PUSH2 0x4FE JUMPI PUSH1 0x0 DUP1 REVERT JUMPDEST POP PUSH2 0x364 PUSH2 0x15C7 JUMP JUMPDEST CALLVALUE DUP1 ISZERO PUSH2 0x513 JUMPI PUSH1 0x0 DUP1 REVERT JUMPDEST POP PUSH2 0x51C PUSH2 0x15CE JUMP JUMPDEST PUSH1 0x40 MLOAD PUSH2 0x2EF SWAP2 SWAP1 PUSH2 0x4F69 JUMP JUMPDEST CALLVALUE DUP1 ISZERO PUSH2 0x535 JUMPI PUSH1 0x0 DUP1 REVERT JUMPDEST POP PUSH2 0x364 PUSH2 0x15DE JUMP JUMPDEST CALLVALUE DUP1 ISZERO PUSH2 0x54A JUMPI PUSH1 0x0 DUP1 REVERT JUMPDEST POP PUSH2 0x364 PUSH2 0x15E5 JUMP JUMPDEST CALLVALUE DUP1 ISZERO PUSH2 0x55F JUMPI PUSH1 0x0 DUP1 REVERT JUMPDEST POP PUSH2 0x318 PUSH2 0x56E CALLDATASIZE PUSH1 0x4 PUSH2 0x4EB0 JUMP JUMPDEST PUSH2 0x15EC JUMP JUMPDEST CALLVALUE DUP1 ISZERO PUSH2 0x57F JUMPI PUSH1 0x0 DUP1 REVERT JUMPDEST POP PUSH2 0x364 PUSH2 0x16B1 JUMP JUMPDEST CALLVALUE DUP1 ISZERO PUSH2 0x594 JUMPI PUSH1 0x0 DUP1 REVERT JUMPDEST POP PUSH2 0x2E2 PUSH2 0x16B8 JUMP JUMPDEST CALLVALUE DUP1 ISZERO PUSH2 0x5A9 JUMPI PUSH1 0x0 DUP1 REVERT JUMPDEST POP PUSH2 0x318 PUSH2 0x5B8 CALLDATASIZE PUSH1 0x4 PUSH2 0x4C57 JUMP JUMPDEST PUSH2 0x16C1 JUMP JUMPDEST CALLVALUE DUP1 ISZERO PUSH2 0x5C9 JUMPI PUSH1 0x0 DUP1 REVERT JUMPDEST POP PUSH2 0x318 PUSH2 0x16DF JUMP JUMPDEST CALLVALUE DUP1 ISZERO PUSH2 0x5DE JUMPI PUSH1 0x0 DUP1 REVERT JUMPDEST POP PUSH2 0x2E2 PUSH2 0x5ED CALLDATASIZE PUSH1 0x4 PUSH2 0x4B17 JUMP JUMPDEST PUSH2 0x194E JUMP JUMPDEST CALLVALUE DUP1 ISZERO PUSH2 0x5FE JUMPI PUSH1 0x0 DUP1 REVERT JUMPDEST POP PUSH2 0x318 PUSH2 0x60D CALLDATASIZE PUSH1 0x4 PUSH2 0x4E85 JUMP JUMPDEST PUSH2 0x1964 JUMP JUMPDEST CALLVALUE DUP1 ISZERO PUSH2 0x61E JUMPI PUSH1 0x0 DUP1 REVERT JUMPDEST POP PUSH2 0x51C PUSH2 0x1CFD JUMP JUMPDEST CALLVALUE DUP1 ISZERO PUSH2 0x633 JUMPI PUSH1 0x0 DUP1 REVERT JUMPDEST POP PUSH2 0x647 PUSH2 0x642 CALLDATASIZE PUSH1 0x4 PUSH2 0x4D5C JUMP JUMPDEST PUSH2 0x1D12 JUMP JUMPDEST PUSH1 0x40 MLOAD PUSH2 0x2EF SWAP9 SWAP8 SWAP7 SWAP6 SWAP5 SWAP4 SWAP3 SWAP2 SWAP1 PUSH2 0x4F7D JUMP JUMPDEST CALLVALUE DUP1 ISZERO PUSH2 0x667 JUMPI PUSH1 0x0 DUP1 REVERT JUMPDEST POP PUSH2 0x364 PUSH2 0x1D79 JUMP JUMPDEST CALLVALUE DUP1 ISZERO PUSH2 0x67C JUMPI PUSH1 0x0 DUP1 REVERT JUMPDEST POP PUSH2 0x318 PUSH2 0x68B CALLDATASIZE PUSH1 0x4 PUSH2 0x4DC0 JUMP JUMPDEST PUSH2 0x1D80 JUMP JUMPDEST CALLVALUE DUP1 ISZERO PUSH2 0x69C JUMPI PUSH1 0x0 DUP1 REVERT JUMPDEST POP PUSH2 0x318 PUSH2 0x6AB CALLDATASIZE PUSH1 0x4 PUSH2 0x4D24 JUMP JUMPDEST PUSH2 0x1EFD JUMP JUMPDEST CALLVALUE DUP1 ISZERO PUSH2 0x6BC JUMPI PUSH1 0x0 DUP1 REVERT JUMPDEST POP PUSH2 0x318 PUSH2 0x6CB CALLDATASIZE PUSH1 0x4 PUSH2 0x4B83 JUMP JUMPDEST PUSH2 0x1F87 JUMP JUMPDEST CALLVALUE DUP1 ISZERO PUSH2 0x6DC JUMPI PUSH1 0x0 DUP1 REVERT JUMPDEST POP PUSH2 0x318 PUSH2 0x21C6 JUMP JUMPDEST CALLVALUE DUP1 ISZERO PUSH2 0x6F1 JUMPI PUSH1 0x0 DUP1 REVERT JUMPDEST POP PUSH2 0x364 PUSH2 0x21D3 JUMP JUMPDEST CALLVALUE DUP1 ISZERO PUSH2 0x706 JUMPI PUSH1 0x0 DUP1 REVERT JUMPDEST POP PUSH2 0x2E2 PUSH2 0x715 CALLDATASIZE PUSH1 0x4 PUSH2 0x4D74 JUMP JUMPDEST PUSH2 0x21DA JUMP JUMPDEST CALLVALUE DUP1 ISZERO PUSH2 0x726 JUMPI PUSH1 0x0 DUP1 REVERT JUMPDEST POP PUSH2 0x364 PUSH2 0x2207 JUMP JUMPDEST PUSH2 0x318 PUSH2 0x73D CALLDATASIZE PUSH1 0x4 PUSH2 0x4C82 JUMP JUMPDEST PUSH2 0x220E JUMP JUMPDEST CALLVALUE DUP1 ISZERO PUSH2 0x74E JUMPI PUSH1 0x0 DUP1 REVERT JUMPDEST POP PUSH2 0x757 PUSH2 0x2577 JUMP JUMPDEST PUSH1 0x40 MLOAD PUSH2 0x2EF SWAP2 SWAP1 PUSH2 0x5082 JUMP JUMPDEST CALLVALUE DUP1 ISZERO PUSH2 0x770 JUMPI PUSH1 0x0 DUP1 REVERT JUMPDEST POP PUSH2 0x318 PUSH2 0x77F CALLDATASIZE PUSH1 0x4 PUSH2 0x4B17 JUMP JUMPDEST PUSH2 0x2580 JUMP JUMPDEST CALLVALUE DUP1 ISZERO PUSH2 0x790 JUMPI PUSH1 0x0 DUP1 REVERT JUMPDEST POP PUSH2 0x364 PUSH2 0x2669 JUMP JUMPDEST CALLVALUE DUP1 ISZERO PUSH2 0x7A5 JUMPI PUSH1 0x0 DUP1 REVERT JUMPDEST POP PUSH2 0x2E2 PUSH2 0x7B4 CALLDATASIZE PUSH1 0x4 PUSH2 0x4B17 JUMP JUMPDEST PUSH2 0x266E JUMP JUMPDEST CALLVALUE DUP1 ISZERO PUSH2 0x7C5 JUMPI PUSH1 0x0 DUP1 REVERT JUMPDEST POP PUSH2 0x318 PUSH2 0x7D4 CALLDATASIZE PUSH1 0x4 PUSH2 0x4D5C JUMP JUMPDEST PUSH2 0x2684 JUMP JUMPDEST CALLVALUE DUP1 ISZERO PUSH2 0x7E5 JUMPI PUSH1 0x0 DUP1 REVERT JUMPDEST POP PUSH2 0x318 PUSH2 0x7F4 CALLDATASIZE PUSH1 0x4 PUSH2 0x4C57 JUMP JUMPDEST PUSH2 0x2839 JUMP JUMPDEST CALLVALUE DUP1 ISZERO PUSH2 0x805 JUMPI PUSH1 0x0 DUP1 REVERT JUMPDEST POP PUSH2 0x318 PUSH2 0x814 CALLDATASIZE PUSH1 0x4 PUSH2 0x4E28 JUMP JUMPDEST PUSH2 0x2857 JUMP JUMPDEST CALLVALUE DUP1 ISZERO PUSH2 0x825 JUMPI PUSH1 0x0 DUP1 REVERT JUMPDEST POP PUSH2 0x318 PUSH2 0x834 CALLDATASIZE PUSH1 0x4 PUSH2 0x4D5C JUMP JUMPDEST PUSH2 0x2BD8 JUMP JUMPDEST CALLVALUE DUP1 ISZERO PUSH2 0x845 JUMPI PUSH1 0x0 DUP1 REVERT JUMPDEST POP PUSH2 0x364 PUSH2 0x2F2E JUMP JUMPDEST CALLVALUE DUP1 ISZERO PUSH2 0x85A JUMPI PUSH1 0x0 DUP1 REVERT JUMPDEST POP PUSH2 0x318 PUSH2 0x2F35 JUMP JUMPDEST CALLVALUE DUP1 ISZERO PUSH2 0x86F JUMPI PUSH1 0x0 DUP1 REVERT JUMPDEST POP PUSH2 0x364 PUSH2 0x30A7 JUMP JUMPDEST CALLVALUE DUP1 ISZERO PUSH2 0x884 JUMPI PUSH1 0x0 DUP1 REVERT JUMPDEST POP PUSH2 0x318 PUSH2 0x893 CALLDATASIZE PUSH1 0x4 PUSH2 0x4D74 JUMP JUMPDEST PUSH2 0x30AE JUMP JUMPDEST CALLVALUE DUP1 ISZERO PUSH2 0x8A4 JUMPI PUSH1 0x0 DUP1 REVERT JUMPDEST POP PUSH2 0x364 PUSH2 0x8B3 CALLDATASIZE PUSH1 0x4 PUSH2 0x4B17 JUMP JUMPDEST PUSH2 0x30CD JUMP JUMPDEST CALLVALUE DUP1 ISZERO PUSH2 0x8C4 JUMPI PUSH1 0x0 DUP1 REVERT JUMPDEST POP PUSH2 0x364 PUSH2 0x8D3 CALLDATASIZE PUSH1 0x4 PUSH2 0x4B17 JUMP JUMPDEST PUSH2 0x30E0 JUMP JUMPDEST CALLVALUE DUP1 ISZERO PUSH2 0x8E4 JUMPI PUSH1 0x0 DUP1 REVERT JUMPDEST POP PUSH2 0x2E2 PUSH2 0x318C JUMP JUMPDEST CALLVALUE DUP1 ISZERO PUSH2 0x8F9 JUMPI PUSH1 0x0 DUP1 REVERT JUMPDEST POP PUSH2 0x51C PUSH2 0x319D JUMP JUMPDEST CALLVALUE DUP1 ISZERO PUSH2 0x90E JUMPI PUSH1 0x0 DUP1 REVERT JUMPDEST POP PUSH2 0x318 PUSH2 0x31AD JUMP JUMPDEST CALLVALUE DUP1 ISZERO PUSH2 0x923 JUMPI PUSH1 0x0 DUP1 REVERT JUMPDEST POP PUSH2 0x318 PUSH2 0x932 CALLDATASIZE PUSH1 0x4 PUSH2 0x4B17 JUMP JUMPDEST PUSH2 0x3332 JUMP JUMPDEST CALLVALUE DUP1 ISZERO PUSH2 0x943 JUMPI PUSH1 0x0 DUP1 REVERT JUMPDEST POP PUSH2 0x364 PUSH2 0x33BF JUMP JUMPDEST CALLVALUE DUP1 ISZERO PUSH2 0x958 JUMPI PUSH1 0x0 DUP1 REVERT JUMPDEST POP PUSH2 0x318 PUSH2 0x967 CALLDATASIZE PUSH1 0x4 PUSH2 0x4B4F JUMP JUMPDEST PUSH2 0x33C6 JUMP JUMPDEST CALLVALUE DUP1 ISZERO PUSH2 0x978 JUMPI PUSH1 0x0 DUP1 REVERT JUMPDEST POP PUSH2 0x981 PUSH2 0x3885 JUMP JUMPDEST PUSH1 0x40 MLOAD PUSH2 0x2EF SWAP2 SWAP1 PUSH2 0x504E JUMP JUMPDEST CALLVALUE DUP1 ISZERO PUSH2 0x99A JUMPI PUSH1 0x0 DUP1 REVERT JUMPDEST POP PUSH2 0x2E2 PUSH2 0x3893 JUMP JUMPDEST PUSH1 0x0 PUSH1 0x1 PUSH1 0x1 PUSH1 0xE0 SHL SUB NOT DUP3 AND PUSH4 0x7965DB0B PUSH1 0xE0 SHL EQ DUP1 PUSH2 0x9C8 JUMPI POP PUSH2 0x9C8 DUP3 PUSH2 0x38A4 JUMP JUMPDEST SWAP1 POP JUMPDEST SWAP2 SWAP1 POP JUMP JUMPDEST PUSH2 0x9DB PUSH1 0x0 CALLER PUSH2 0x21DA JUMP JUMPDEST PUSH2 0x9E4 JUMPI PUSH1 0x0 DUP1 REVERT JUMPDEST CALLER PUSH1 0x0 PUSH2 0xA06 PUSH1 0xFB PUSH1 0x2 SWAP1 SLOAD SWAP1 PUSH2 0x100 EXP SWAP1 DIV PUSH1 0x1 PUSH1 0x1 PUSH1 0xA0 SHL SUB AND DUP4 PUSH2 0x38BD JUMP JUMPDEST SWAP2 POP DUP2 SWAP1 POP PUSH2 0xA30 JUMPI PUSH1 0x40 MLOAD PUSH3 0x461BCD PUSH1 0xE5 SHL DUP2 MSTORE PUSH1 0x4 ADD PUSH2 0xA27 SWAP1 PUSH2 0x50CF JUMP JUMPDEST PUSH1 0x40 MLOAD DUP1 SWAP2 SUB SWAP1 REVERT JUMPDEST PUSH2 0xA38 PUSH2 0x16B8 JUMP JUMPDEST ISZERO PUSH2 0xA55 JUMPI PUSH1 0x40 MLOAD PUSH3 0x461BCD PUSH1 0xE5 SHL DUP2 MSTORE PUSH1 0x4 ADD PUSH2 0xA27 SWAP1 PUSH2 0x5461 JUMP JUMPDEST PUSH1 0x2 PUSH1 0xC9 SLOAD EQ ISZERO PUSH2 0xA78 JUMPI PUSH1 0x40 MLOAD PUSH3 0x461BCD PUSH1 0xE5 SHL DUP2 MSTORE PUSH1 0x4 ADD PUSH2 0xA27 SWAP1 PUSH2 0x591C JUMP JUMPDEST PUSH1 0x2 PUSH1 0xC9 DUP2 SWAP1 SSTORE POP PUSH1 0x0 PUSH1 0xFF DUP5 DUP2 SLOAD DUP2 LT PUSH2 0xAA3 JUMPI PUSH4 0x4E487B71 PUSH1 0xE0 SHL PUSH1 0x0 MSTORE PUSH1 0x32 PUSH1 0x4 MSTORE PUSH1 0x24 PUSH1 0x0 REVERT JUMPDEST SWAP1 PUSH1 0x0 MSTORE PUSH1 0x20 PUSH1 0x0 KECCAK256 SWAP1 PUSH1 0x7 MUL ADD SWAP1 POP PUSH1 0x0 PUSH2 0xAE2 PUSH2 0xAD9 PUSH2 0xAC8 DUP5 PUSH1 0x2 ADD SLOAD PUSH2 0x3A0C JUMP JUMPDEST PUSH2 0xAD4 PUSH2 0x10A SLOAD PUSH2 0x3A0C JUMP JUMPDEST PUSH2 0x3A26 JUMP JUMPDEST PUSH2 0x105 SLOAD PUSH2 0x3A50 JUMP JUMPDEST SWAP1 POP PUSH2 0xB4C PUSH8 0x6765C793FA10079D PUSH1 0x1B SHL PUSH2 0xB46 PUSH1 0xFB PUSH1 0x2 SWAP1 SLOAD SWAP1 PUSH2 0x100 EXP SWAP1 DIV PUSH1 0x1 PUSH1 0x1 PUSH1 0xA0 SHL SUB AND PUSH1 0x40 MLOAD DUP1 PUSH1 0x40 ADD PUSH1 0x40 MSTORE DUP1 PUSH1 0x1C DUP2 MSTORE PUSH1 0x20 ADD PUSH28 0x1C995C5D595CDD119A5B985B1A5E985D1A5BDB951A1C995CDA1BDB19 PUSH1 0x22 SHL DUP2 MSTORE POP PUSH2 0x3A71 JUMP JUMPDEST SWAP1 PUSH2 0x3AF0 JUMP JUMPDEST DUP2 MLOAD LT ISZERO PUSH2 0xB6C JUMPI PUSH1 0x40 MLOAD PUSH3 0x461BCD PUSH1 0xE5 SHL DUP2 MSTORE PUSH1 0x4 ADD PUSH2 0xA27 SWAP1 PUSH2 0x5722 JUMP JUMPDEST DUP2 SLOAD PUSH1 0x1 PUSH1 0xA0 SHL SWAP1 DIV PUSH1 0xFF AND ISZERO PUSH2 0xB95 JUMPI PUSH1 0x40 MLOAD PUSH3 0x461BCD PUSH1 0xE5 SHL DUP2 MSTORE PUSH1 0x4 ADD PUSH2 0xA27 SWAP1 PUSH2 0x543E JUMP JUMPDEST PUSH1 0x0 PUSH2 0xBD2 PUSH2 0xBC8 PUSH2 0xBBF PUSH1 0xFB PUSH1 0x2 SWAP1 SLOAD SWAP1 PUSH2 0x100 EXP SWAP1 DIV PUSH1 0x1 PUSH1 0x1 PUSH1 0xA0 SHL SUB AND PUSH2 0x106 SLOAD PUSH2 0x3AFC JUMP JUMPDEST PUSH2 0x105 SLOAD PUSH2 0x3C8F JUMP JUMPDEST DUP5 PUSH1 0x1 ADD SLOAD PUSH2 0x3A50 JUMP JUMPDEST SWAP1 POP PUSH1 0x0 PUSH1 0x40 MLOAD DUP1 PUSH1 0x40 ADD PUSH1 0x40 MSTORE DUP1 PUSH2 0xBFC DUP5 PUSH1 0x0 ADD MLOAD DUP8 PUSH1 0x1 ADD SLOAD PUSH2 0x3CA9 SWAP1 SWAP2 SWAP1 PUSH4 0xFFFFFFFF AND JUMP JUMPDEST DUP2 MSTORE DUP4 MLOAD PUSH1 0x20 SWAP2 DUP3 ADD MSTORE PUSH1 0x40 DUP1 MLOAD DUP1 DUP3 ADD DUP3 MSTORE DUP8 SLOAD PUSH1 0x1 PUSH1 0x1 PUSH1 0xA0 SHL SUB SWAP1 DUP2 AND DUP3 MSTORE PUSH1 0xFB SLOAD DUP4 MLOAD PUSH4 0x20665341 PUSH1 0xE2 SHL DUP2 MSTORE SWAP4 MLOAD SWAP6 SWAP7 POP PUSH1 0x0 SWAP6 SWAP3 SWAP5 DUP6 DUP2 ADD SWAP5 PUSH3 0x10000 SWAP1 SWAP3 DIV SWAP1 SWAP3 AND SWAP3 PUSH4 0x81994D04 SWAP3 PUSH1 0x4 DUP1 DUP5 ADD SWAP4 SWAP2 SWAP3 SWAP2 DUP3 SWAP1 SUB ADD DUP2 DUP7 DUP1 EXTCODESIZE ISZERO DUP1 ISZERO PUSH2 0xC69 JUMPI PUSH1 0x0 DUP1 REVERT JUMPDEST POP GAS STATICCALL ISZERO DUP1 ISZERO PUSH2 0xC7D JUMPI RETURNDATASIZE PUSH1 0x0 DUP1 RETURNDATACOPY RETURNDATASIZE PUSH1 0x0 REVERT JUMPDEST POP POP POP POP PUSH1 0x40 MLOAD RETURNDATASIZE PUSH1 0x1F NOT PUSH1 0x1F DUP3 ADD AND DUP3 ADD DUP1 PUSH1 0x40 MSTORE POP DUP2 ADD SWAP1 PUSH2 0xCA1 SWAP2 SWAP1 PUSH2 0x4B33 JUMP JUMPDEST PUSH1 0x1 PUSH1 0x1 PUSH1 0xA0 SHL SUB AND SWAP1 MSTORE DUP6 SLOAD PUSH1 0xFF PUSH1 0xA0 SHL NOT AND PUSH1 0x1 PUSH1 0xA0 SHL OR DUP7 SSTORE PUSH2 0x10E SLOAD SWAP1 SWAP2 POP PUSH2 0xCCF SWAP1 PUSH1 0x1 PUSH2 0x3CB5 JUMP JUMPDEST PUSH2 0x10E SSTORE PUSH1 0x1 DUP6 ADD SLOAD PUSH2 0x108 SLOAD PUSH2 0xCE5 SWAP2 PUSH2 0x3CA9 JUMP JUMPDEST PUSH2 0x108 SSTORE PUSH1 0xFB SLOAD DUP4 MLOAD PUSH2 0xD09 SWAP2 PUSH3 0x10000 SWAP1 DIV PUSH1 0x1 PUSH1 0x1 PUSH1 0xA0 SHL SUB AND SWAP1 ADDRESS SWAP1 PUSH2 0x3CC1 JUMP JUMPDEST PUSH1 0x0 JUMPDEST PUSH1 0x2 DUP2 LT ISZERO PUSH2 0xD87 JUMPI PUSH2 0x104 SLOAD PUSH2 0xD75 SWAP1 PUSH1 0x1 PUSH1 0x1 PUSH1 0xA0 SHL SUB AND DUP4 DUP4 PUSH1 0x2 DUP2 LT PUSH2 0xD46 JUMPI PUSH4 0x4E487B71 PUSH1 0xE0 SHL PUSH1 0x0 MSTORE PUSH1 0x32 PUSH1 0x4 MSTORE PUSH1 0x24 PUSH1 0x0 REVERT JUMPDEST PUSH1 0x20 MUL ADD MLOAD DUP6 DUP5 PUSH1 0x2 DUP2 LT PUSH2 0xD6B JUMPI PUSH4 0x4E487B71 PUSH1 0xE0 SHL PUSH1 0x0 MSTORE PUSH1 0x32 PUSH1 0x4 MSTORE PUSH1 0x24 PUSH1 0x0 REVERT JUMPDEST PUSH1 0x20 MUL ADD MLOAD PUSH2 0x3D26 JUMP JUMPDEST DUP1 PUSH2 0xD7F DUP2 PUSH2 0x5B8D JUMP JUMPDEST SWAP2 POP POP PUSH2 0xD0C JUMP JUMPDEST POP ADDRESS PUSH1 0x1 PUSH1 0x1 PUSH1 0xA0 SHL SUB AND DUP9 PUSH32 0xE559D259D098EBBFBB482CBF5EE3DC8452F8BC546A17E55414CE84DB017338D6 CALLER PUSH1 0x40 MLOAD PUSH2 0xDC2 SWAP2 SWAP1 PUSH2 0x4F69 JUMP JUMPDEST PUSH1 0x40 MLOAD DUP1 SWAP2 SUB SWAP1 LOG3 POP POP PUSH1 0x1 PUSH1 0xC9 SSTORE POP POP POP POP POP POP JUMP JUMPDEST PUSH2 0x111 PUSH1 0x20 MSTORE PUSH1 0x0 SWAP1 DUP2 MSTORE PUSH1 0x40 SWAP1 KECCAK256 SLOAD PUSH1 0xFF AND DUP2 JUMP JUMPDEST PUSH2 0xDF7 PUSH2 0x16B8 JUMP JUMPDEST ISZERO PUSH2 0xE14 JUMPI PUSH1 0x40 MLOAD PUSH3 0x461BCD PUSH1 0xE5 SHL DUP2 MSTORE PUSH1 0x4 ADD PUSH2 0xA27 SWAP1 PUSH2 0x5461 JUMP JUMPDEST PUSH1 0x0 PUSH2 0xE38 PUSH1 0xFB PUSH1 0x2 SWAP1 SLOAD SWAP1 PUSH2 0x100 EXP SWAP1 DIV PUSH1 0x1 PUSH1 0x1 PUSH1 0xA0 SHL SUB AND PUSH2 0x106 SLOAD PUSH2 0x3D7C JUMP JUMPDEST POP SWAP4 POP POP DUP3 ISZERO SWAP2 POP PUSH2 0xE7E SWAP1 POP JUMPI PUSH1 0xFB SLOAD PUSH2 0xE62 SWAP1 PUSH3 0x10000 SWAP1 DIV PUSH1 0x1 PUSH1 0x1 PUSH1 0xA0 SHL SUB AND CALLER PUSH2 0x3E4F JUMP JUMPDEST PUSH2 0xE7E JUMPI PUSH1 0x40 MLOAD PUSH3 0x461BCD PUSH1 0xE5 SHL DUP2 MSTORE PUSH1 0x4 ADD PUSH2 0xA27 SWAP1 PUSH2 0x535B JUMP JUMPDEST PUSH2 0xE86 PUSH2 0x3ECE JUMP JUMPDEST POP JUMP JUMPDEST PUSH2 0x110 SLOAD DUP2 JUMP JUMPDEST PUSH2 0xE98 PUSH2 0x16B8 JUMP JUMPDEST PUSH2 0xEB4 JUMPI PUSH1 0x40 MLOAD PUSH3 0x461BCD PUSH1 0xE5 SHL DUP2 MSTORE PUSH1 0x4 ADD PUSH2 0xA27 SWAP1 PUSH2 0x5177 JUMP JUMPDEST PUSH1 0x0 PUSH2 0xED8 PUSH1 0xFB PUSH1 0x2 SWAP1 SLOAD SWAP1 PUSH2 0x100 EXP SWAP1 DIV PUSH1 0x1 PUSH1 0x1 PUSH1 0xA0 SHL SUB AND PUSH2 0x106 SLOAD PUSH2 0x3D7C JUMP JUMPDEST POP SWAP4 POP POP DUP3 ISZERO SWAP2 POP PUSH2 0xF1E SWAP1 POP JUMPI PUSH1 0xFB SLOAD PUSH2 0xF02 SWAP1 PUSH3 0x10000 SWAP1 DIV PUSH1 0x1 PUSH1 0x1 PUSH1 0xA0 SHL SUB AND CALLER PUSH2 0x3E4F JUMP JUMPDEST PUSH2 0xF1E JUMPI PUSH1 0x40 MLOAD PUSH3 0x461BCD PUSH1 0xE5 SHL DUP2 MSTORE PUSH1 0x4 ADD PUSH2 0xA27 SWAP1 PUSH2 0x535B JUMP JUMPDEST PUSH2 0xE86 PUSH2 0x3F40 JUMP JUMPDEST PUSH2 0x10E SLOAD DUP2 JUMP JUMPDEST PUSH1 0x0 SWAP1 DUP2 MSTORE PUSH1 0x65 PUSH1 0x20 MSTORE PUSH1 0x40 SWAP1 KECCAK256 PUSH1 0x1 ADD SLOAD SWAP1 JUMP JUMPDEST PUSH2 0x10C SLOAD DUP2 JUMP JUMPDEST PUSH2 0xF52 DUP3 PUSH2 0xF2D JUMP JUMPDEST PUSH2 0xF63 DUP2 PUSH2 0xF5E PUSH2 0x3F93 JUMP JUMPDEST PUSH2 0x3F97 JUMP JUMPDEST PUSH2 0xF6D DUP4 DUP4 PUSH2 0x3FFB JUMP JUMPDEST POP POP POP JUMP JUMPDEST PUSH2 0xF7D PUSH1 0x0 CALLER PUSH2 0x21DA JUMP JUMPDEST PUSH2 0xF86 JUMPI PUSH1 0x0 DUP1 REVERT JUMPDEST CALLER PUSH1 0x0 PUSH2 0xFA8 PUSH1 0xFB PUSH1 0x2 SWAP1 SLOAD SWAP1 PUSH2 0x100 EXP SWAP1 DIV PUSH1 0x1 PUSH1 0x1 PUSH1 0xA0 SHL SUB AND DUP4 PUSH2 0x38BD JUMP JUMPDEST SWAP2 POP DUP2 SWAP1 POP PUSH2 0xFC9 JUMPI PUSH1 0x40 MLOAD PUSH3 0x461BCD PUSH1 0xE5 SHL DUP2 MSTORE PUSH1 0x4 ADD PUSH2 0xA27 SWAP1 PUSH2 0x50CF JUMP JUMPDEST PUSH2 0xFD1 PUSH2 0x16B8 JUMP JUMPDEST ISZERO PUSH2 0xFEE JUMPI PUSH1 0x40 MLOAD PUSH3 0x461BCD PUSH1 0xE5 SHL DUP2 MSTORE PUSH1 0x4 ADD PUSH2 0xA27 SWAP1 PUSH2 0x5461 JUMP JUMPDEST PUSH1 0x1 PUSH1 0xFB SLOAD PUSH2 0x100 SWAP1 DIV PUSH1 0xFF AND PUSH1 0x4 DUP2 GT ISZERO PUSH2 0x101A JUMPI PUSH4 0x4E487B71 PUSH1 0xE0 SHL PUSH1 0x0 MSTORE PUSH1 0x21 PUSH1 0x4 MSTORE PUSH1 0x24 PUSH1 0x0 REVERT JUMPDEST EQ DUP1 PUSH2 0x104F JUMPI POP PUSH1 0x0 PUSH1 0xFB SLOAD PUSH2 0x100 SWAP1 DIV PUSH1 0xFF AND PUSH1 0x4 DUP2 GT ISZERO PUSH2 0x104D JUMPI PUSH4 0x4E487B71 PUSH1 0xE0 SHL PUSH1 0x0 MSTORE PUSH1 0x21 PUSH1 0x4 MSTORE PUSH1 0x24 PUSH1 0x0 REVERT JUMPDEST EQ JUMPDEST PUSH2 0x106B JUMPI PUSH1 0x40 MLOAD PUSH3 0x461BCD PUSH1 0xE5 SHL DUP2 MSTORE PUSH1 0x4 ADD PUSH2 0xA27 SWAP1 PUSH2 0x5600 JUMP JUMPDEST PUSH1 0x1 PUSH2 0x10E SLOAD LT ISZERO PUSH2 0x108F JUMPI PUSH1 0x40 MLOAD PUSH3 0x461BCD PUSH1 0xE5 SHL DUP2 MSTORE PUSH1 0x4 ADD PUSH2 0xA27 SWAP1 PUSH2 0x5237 JUMP JUMPDEST PUSH1 0xFF PUSH2 0x10F SLOAD DUP2 SLOAD DUP2 LT PUSH2 0x10B3 JUMPI PUSH4 0x4E487B71 PUSH1 0xE0 SHL PUSH1 0x0 MSTORE PUSH1 0x32 PUSH1 0x4 MSTORE PUSH1 0x24 PUSH1 0x0 REVERT JUMPDEST PUSH1 0x0 SWAP2 DUP3 MSTORE PUSH1 0x20 SWAP1 SWAP2 KECCAK256 PUSH1 0x7 SWAP1 SWAP2 MUL ADD SLOAD PUSH1 0x1 PUSH1 0xA0 SHL SWAP1 DIV PUSH1 0xFF AND PUSH2 0x10EA JUMPI PUSH1 0x40 MLOAD PUSH3 0x461BCD PUSH1 0xE5 SHL DUP2 MSTORE PUSH1 0x4 ADD PUSH2 0xA27 SWAP1 PUSH2 0x5625 JUMP JUMPDEST PUSH1 0xFB DUP1 SLOAD PUSH2 0xFF00 NOT AND PUSH2 0x200 OR SWAP1 SSTORE PUSH2 0x1101 PUSH2 0x3ECE JUMP JUMPDEST ADDRESS PUSH1 0x1 PUSH1 0x1 PUSH1 0xA0 SHL SUB AND PUSH1 0x0 DUP1 MLOAD PUSH1 0x20 PUSH2 0x5C22 DUP4 CODECOPY DUP2 MLOAD SWAP2 MSTORE PUSH1 0x2 CALLER PUSH1 0x40 MLOAD PUSH2 0x112B SWAP3 SWAP2 SWAP1 PUSH2 0x505C JUMP JUMPDEST PUSH1 0x40 MLOAD DUP1 SWAP2 SUB SWAP1 LOG2 POP POP JUMP JUMPDEST PUSH2 0x113F PUSH2 0x3F93 JUMP JUMPDEST PUSH1 0x1 PUSH1 0x1 PUSH1 0xA0 SHL SUB AND DUP2 PUSH1 0x1 PUSH1 0x1 PUSH1 0xA0 SHL SUB AND EQ PUSH2 0x116F JUMPI PUSH1 0x40 MLOAD PUSH3 0x461BCD PUSH1 0xE5 SHL DUP2 MSTORE PUSH1 0x4 ADD PUSH2 0xA27 SWAP1 PUSH2 0x59A5 JUMP JUMPDEST PUSH2 0x1179 DUP3 DUP3 PUSH2 0x4082 JUMP JUMPDEST POP POP JUMP JUMPDEST PUSH1 0x0 PUSH2 0x11A1 PUSH1 0xFB PUSH1 0x2 SWAP1 SLOAD SWAP1 PUSH2 0x100 EXP SWAP1 DIV PUSH1 0x1 PUSH1 0x1 PUSH1 0xA0 SHL SUB AND PUSH2 0x106 SLOAD PUSH2 0x3D7C JUMP JUMPDEST POP SWAP4 POP POP DUP3 ISZERO SWAP2 POP PUSH2 0x11E7 SWAP1 POP JUMPI PUSH1 0xFB SLOAD PUSH2 0x11CB SWAP1 PUSH3 0x10000 SWAP1 DIV PUSH1 0x1 PUSH1 0x1 PUSH1 0xA0 SHL SUB AND CALLER PUSH2 0x3E4F JUMP JUMPDEST PUSH2 0x11E7 JUMPI PUSH1 0x40 MLOAD PUSH3 0x461BCD PUSH1 0xE5 SHL DUP2 MSTORE PUSH1 0x4 ADD PUSH2 0xA27 SWAP1 PUSH2 0x535B JUMP JUMPDEST DUP2 PUSH1 0x4 DUP2 GT ISZERO PUSH2 0x1207 JUMPI PUSH4 0x4E487B71 PUSH1 0xE0 SHL PUSH1 0x0 MSTORE PUSH1 0x21 PUSH1 0x4 MSTORE PUSH1 0x24 PUSH1 0x0 REVERT JUMPDEST PUSH1 0xFB DUP1 SLOAD PUSH2 0xFF00 NOT AND PUSH2 0x100 DUP4 PUSH1 0x4 DUP2 GT ISZERO PUSH2 0x1233 JUMPI PUSH4 0x4E487B71 PUSH1 0xE0 SHL PUSH1 0x0 MSTORE PUSH1 0x21 PUSH1 0x4 MSTORE PUSH1 0x24 PUSH1 0x0 REVERT JUMPDEST MUL OR SWAP1 SSTORE POP ADDRESS PUSH1 0x0 DUP1 MLOAD PUSH1 0x20 PUSH2 0x5C22 DUP4 CODECOPY DUP2 MLOAD SWAP2 MSTORE DUP4 PUSH1 0x4 DUP2 GT ISZERO PUSH2 0x1268 JUMPI PUSH4 0x4E487B71 PUSH1 0xE0 SHL PUSH1 0x0 MSTORE PUSH1 0x21 PUSH1 0x4 MSTORE PUSH1 0x24 PUSH1 0x0 REVERT JUMPDEST CALLER PUSH1 0x40 MLOAD PUSH2 0x112B SWAP3 SWAP2 SWAP1 PUSH2 0x505C JUMP JUMPDEST PUSH2 0x1282 PUSH1 0x0 CALLER PUSH2 0x21DA JUMP JUMPDEST PUSH2 0x128B JUMPI PUSH1 0x0 DUP1 REVERT JUMPDEST CALLER PUSH1 0x0 PUSH2 0x12AD PUSH1 0xFB PUSH1 0x2 SWAP1 SLOAD SWAP1 PUSH2 0x100 EXP SWAP1 DIV PUSH1 0x1 PUSH1 0x1 PUSH1 0xA0 SHL SUB AND DUP4 PUSH2 0x38BD JUMP JUMPDEST SWAP2 POP DUP2 SWAP1 POP PUSH2 0x12CE JUMPI PUSH1 0x40 MLOAD PUSH3 0x461BCD PUSH1 0xE5 SHL DUP2 MSTORE PUSH1 0x4 ADD PUSH2 0xA27 SWAP1 PUSH2 0x50CF JUMP JUMPDEST PUSH1 0x2 PUSH1 0xC9 SLOAD EQ ISZERO PUSH2 0x12F1 JUMPI PUSH1 0x40 MLOAD PUSH3 0x461BCD PUSH1 0xE5 SHL DUP2 MSTORE PUSH1 0x4 ADD PUSH2 0xA27 SWAP1 PUSH2 0x591C JUMP JUMPDEST PUSH1 0x2 PUSH1 0xC9 SSTORE PUSH2 0x12FE PUSH2 0x16B8 JUMP JUMPDEST ISZERO PUSH2 0x131B JUMPI PUSH1 0x40 MLOAD PUSH3 0x461BCD PUSH1 0xE5 SHL DUP2 MSTORE PUSH1 0x4 ADD PUSH2 0xA27 SWAP1 PUSH2 0x5461 JUMP JUMPDEST PUSH2 0x10C SLOAD TIMESTAMP GT PUSH2 0x132A JUMPI PUSH1 0x0 DUP1 REVERT JUMPDEST PUSH1 0xFB SLOAD PUSH1 0x40 DUP1 MLOAD DUP1 DUP3 ADD SWAP1 SWAP2 MSTORE PUSH1 0x16 DUP2 MSTORE PUSH22 0x191958591B1A5B9954DD1C9A5AD95CD05B1B1BDDD959 PUSH1 0x52 SHL PUSH1 0x20 DUP3 ADD MSTORE PUSH2 0x1373 SWAP2 PUSH3 0x10000 SWAP1 DIV PUSH1 0x1 PUSH1 0x1 PUSH1 0xA0 SHL SUB AND SWAP1 PUSH2 0x3A71 JUMP JUMPDEST PUSH2 0x10D SLOAD LT PUSH2 0x1394 JUMPI PUSH1 0x40 MLOAD PUSH3 0x461BCD PUSH1 0xE5 SHL DUP2 MSTORE PUSH1 0x4 ADD PUSH2 0xA27 SWAP1 PUSH2 0x557A JUMP JUMPDEST PUSH1 0xFB SLOAD PUSH1 0x40 DUP1 MLOAD DUP1 DUP3 ADD SWAP1 SWAP2 MSTORE PUSH1 0x14 DUP2 MSTORE PUSH20 0x36B0BC2232B0B23634B732A2BC3A32B739B4B7B7 PUSH1 0x61 SHL PUSH1 0x20 DUP3 ADD MSTORE PUSH2 0x13DB SWAP2 PUSH3 0x10000 SWAP1 DIV PUSH1 0x1 PUSH1 0x1 PUSH1 0xA0 SHL SUB AND SWAP1 PUSH2 0x3A71 JUMP JUMPDEST DUP4 GT ISZERO DUP1 ISZERO PUSH2 0x1430 JUMPI POP PUSH1 0xFB SLOAD PUSH1 0x40 DUP1 MLOAD DUP1 DUP3 ADD SWAP1 SWAP2 MSTORE PUSH1 0x14 DUP2 MSTORE PUSH20 0x36B4B72232B0B23634B732A2BC3A32B739B4B7B7 PUSH1 0x61 SHL PUSH1 0x20 DUP3 ADD MSTORE PUSH2 0x142C SWAP2 PUSH3 0x10000 SWAP1 DIV PUSH1 0x1 PUSH1 0x1 PUSH1 0xA0 SHL SUB AND SWAP1 PUSH2 0x3A71 JUMP JUMPDEST DUP4 LT ISZERO JUMPDEST PUSH2 0x144C JUMPI PUSH1 0x40 MLOAD PUSH3 0x461BCD PUSH1 0xE5 SHL DUP2 MSTORE PUSH1 0x4 ADD PUSH2 0xA27 SWAP1 PUSH2 0x5128 JUMP JUMPDEST PUSH2 0x1456 TIMESTAMP DUP5 PUSH2 0x3CB5 JUMP JUMPDEST PUSH2 0x10C SSTORE PUSH2 0x10D SLOAD PUSH2 0x1469 SWAP1 PUSH1 0x1 PUSH2 0x3CB5 JUMP JUMPDEST PUSH2 0x10D SSTORE PUSH1 0x40 MLOAD ADDRESS SWAP1 PUSH32 0xBC83650D6CBEC3F5EE93329A41A9D99CD0CEA4B67F37BC51B15DAF7FDF43F3D2 SWAP1 PUSH2 0x14A1 SWAP1 DUP7 SWAP1 CALLER SWAP1 PUSH2 0x59F4 JUMP JUMPDEST PUSH1 0x40 MLOAD DUP1 SWAP2 SUB SWAP1 LOG2 POP POP PUSH1 0x1 PUSH1 0xC9 SSTORE POP JUMP JUMPDEST PUSH1 0xFD PUSH1 0x20 SWAP1 DUP2 MSTORE PUSH1 0x0 SWAP3 DUP4 MSTORE PUSH1 0x40 DUP1 DUP5 KECCAK256 SWAP1 SWAP2 MSTORE SWAP1 DUP3 MSTORE SWAP1 KECCAK256 SLOAD PUSH1 0xFF AND DUP2 JUMP JUMPDEST PUSH2 0x114 PUSH1 0x20 MSTORE PUSH1 0x0 SWAP1 DUP2 MSTORE PUSH1 0x40 SWAP1 KECCAK256 SLOAD PUSH1 0xFF AND DUP2 JUMP JUMPDEST PUSH1 0x0 PUSH2 0x150D PUSH1 0xFB PUSH1 0x2 SWAP1 SLOAD SWAP1 PUSH2 0x100 EXP SWAP1 DIV PUSH1 0x1 PUSH1 0x1 PUSH1 0xA0 SHL SUB AND PUSH2 0x106 SLOAD PUSH2 0x3D7C JUMP JUMPDEST POP SWAP4 POP POP DUP3 ISZERO SWAP2 POP PUSH2 0x1553 SWAP1 POP JUMPI PUSH1 0xFB SLOAD PUSH2 0x1537 SWAP1 PUSH3 0x10000 SWAP1 DIV PUSH1 0x1 PUSH1 0x1 PUSH1 0xA0 SHL SUB AND CALLER PUSH2 0x3E4F JUMP JUMPDEST PUSH2 0x1553 JUMPI PUSH1 0x40 MLOAD PUSH3 0x461BCD PUSH1 0xE5 SHL DUP2 MSTORE PUSH1 0x4 ADD PUSH2 0xA27 SWAP1 PUSH2 0x535B JUMP JUMPDEST PUSH1 0x2 PUSH1 0xC9 SLOAD EQ ISZERO PUSH2 0x1576 JUMPI PUSH1 0x40 MLOAD PUSH3 0x461BCD PUSH1 0xE5 SHL DUP2 MSTORE PUSH1 0x4 ADD PUSH2 0xA27 SWAP1 PUSH2 0x591C JUMP JUMPDEST PUSH1 0x2 PUSH1 0xC9 SSTORE PUSH2 0x104 SLOAD PUSH1 0x1 PUSH1 0xA8 SHL SWAP1 DIV PUSH1 0xFF AND ISZERO PUSH2 0x1593 JUMPI PUSH1 0x0 DUP1 REVERT JUMPDEST PUSH2 0x159D DUP4 DUP4 PUSH2 0x4107 JUMP JUMPDEST POP POP PUSH1 0x1 PUSH1 0xC9 SSTORE POP JUMP JUMPDEST PUSH1 0xFE PUSH1 0x20 SWAP1 DUP2 MSTORE PUSH1 0x0 SWAP3 DUP4 MSTORE PUSH1 0x40 DUP1 DUP5 KECCAK256 SWAP1 SWAP2 MSTORE SWAP1 DUP3 MSTORE SWAP1 KECCAK256 SLOAD PUSH1 0xFF AND DUP2 JUMP JUMPDEST PUSH2 0x108 SLOAD DUP2 JUMP JUMPDEST PUSH2 0x104 SLOAD PUSH1 0x1 PUSH1 0x1 PUSH1 0xA0 SHL SUB AND DUP2 JUMP JUMPDEST PUSH2 0x106 SLOAD DUP2 JUMP JUMPDEST PUSH2 0x10D SLOAD DUP2 JUMP JUMPDEST PUSH1 0x0 PUSH2 0x1610 PUSH1 0xFB PUSH1 0x2 SWAP1 SLOAD SWAP1 PUSH2 0x100 EXP SWAP1 DIV PUSH1 0x1 PUSH1 0x1 PUSH1 0xA0 SHL SUB AND PUSH2 0x106 SLOAD PUSH2 0x3D7C JUMP JUMPDEST POP SWAP4 POP POP DUP3 ISZERO SWAP2 POP PUSH2 0x1656 SWAP1 POP JUMPI PUSH1 0xFB SLOAD PUSH2 0x163A SWAP1 PUSH3 0x10000 SWAP1 DIV PUSH1 0x1 PUSH1 0x1 PUSH1 0xA0 SHL SUB AND CALLER PUSH2 0x3E4F JUMP JUMPDEST PUSH2 0x1656 JUMPI PUSH1 0x40 MLOAD PUSH3 0x461BCD PUSH1 0xE5 SHL DUP2 MSTORE PUSH1 0x4 ADD PUSH2 0xA27 SWAP1 PUSH2 0x5337 JUMP JUMPDEST DUP1 PUSH2 0x1682 JUMPI PUSH2 0x1666 PUSH1 0x0 CALLER PUSH2 0x21DA JUMP JUMPDEST PUSH2 0x1682 JUMPI PUSH1 0x40 MLOAD PUSH3 0x461BCD PUSH1 0xE5 SHL DUP2 MSTORE PUSH1 0x4 ADD PUSH2 0xA27 SWAP1 PUSH2 0x5337 JUMP JUMPDEST PUSH2 0x168A PUSH2 0x16B8 JUMP JUMPDEST ISZERO PUSH2 0x16A7 JUMPI PUSH1 0x40 MLOAD PUSH3 0x461BCD PUSH1 0xE5 SHL DUP2 MSTORE PUSH1 0x4 ADD PUSH2 0xA27 SWAP1 PUSH2 0x5461 JUMP JUMPDEST POP PUSH1 0xFF AND PUSH2 0x10D SSTORE JUMP JUMPDEST PUSH2 0x100 SLOAD DUP2 JUMP JUMPDEST PUSH1 0x97 SLOAD PUSH1 0xFF AND SWAP1 JUMP JUMPDEST PUSH2 0x16CC PUSH1 0x0 CALLER PUSH2 0x21DA JUMP JUMPDEST PUSH2 0x16D5 JUMPI PUSH1 0x0 DUP1 REVERT JUMPDEST PUSH2 0x1179 DUP2 DUP4 PUSH2 0x30AE JUMP JUMPDEST CALLER PUSH1 0x0 PUSH2 0x1701 PUSH1 0xFB PUSH1 0x2 SWAP1 SLOAD SWAP1 PUSH2 0x100 EXP SWAP1 DIV PUSH1 0x1 PUSH1 0x1 PUSH1 0xA0 SHL SUB AND DUP4 PUSH2 0x38BD JUMP JUMPDEST SWAP2 POP DUP2 SWAP1 POP PUSH2 0x1722 JUMPI PUSH1 0x40 MLOAD PUSH3 0x461BCD PUSH1 0xE5 SHL DUP2 MSTORE PUSH1 0x4 ADD PUSH2 0xA27 SWAP1 PUSH2 0x50CF JUMP JUMPDEST PUSH2 0x172A PUSH2 0x16B8 JUMP JUMPDEST ISZERO PUSH2 0x1747 JUMPI PUSH1 0x40 MLOAD PUSH3 0x461BCD PUSH1 0xE5 SHL DUP2 MSTORE PUSH1 0x4 ADD PUSH2 0xA27 SWAP1 PUSH2 0x5461 JUMP JUMPDEST PUSH1 0x1 PUSH2 0x100 SLOAD LT ISZERO PUSH2 0x176B JUMPI PUSH1 0x40 MLOAD PUSH3 0x461BCD PUSH1 0xE5 SHL DUP2 MSTORE PUSH1 0x4 ADD PUSH2 0xA27 SWAP1 PUSH2 0x56FD JUMP JUMPDEST CALLER PUSH1 0x0 SWAP1 DUP2 MSTORE PUSH2 0x111 PUSH1 0x20 MSTORE PUSH1 0x40 SWAP1 KECCAK256 SLOAD PUSH1 0xFF AND PUSH2 0x179B JUMPI PUSH1 0x40 MLOAD PUSH3 0x461BCD PUSH1 0xE5 SHL DUP2 MSTORE PUSH1 0x4 ADD PUSH2 0xA27 SWAP1 PUSH2 0x5774 JUMP JUMPDEST PUSH1 0x0 PUSH1 0xFB SLOAD PUSH2 0x100 SWAP1 DIV PUSH1 0xFF AND PUSH1 0x4 DUP2 GT ISZERO PUSH2 0x17C7 JUMPI PUSH4 0x4E487B71 PUSH1 0xE0 SHL PUSH1 0x0 MSTORE PUSH1 0x21 PUSH1 0x4 MSTORE PUSH1 0x24 PUSH1 0x0 REVERT JUMPDEST EQ DUP1 PUSH2 0x17FC JUMPI POP PUSH1 0x1 PUSH1 0xFB SLOAD PUSH2 0x100 SWAP1 DIV PUSH1 0xFF AND PUSH1 0x4 DUP2 GT ISZERO PUSH2 0x17FA JUMPI PUSH4 0x4E487B71 PUSH1 0xE0 SHL PUSH1 0x0 MSTORE PUSH1 0x21 PUSH1 0x4 MSTORE PUSH1 0x24 PUSH1 0x0 REVERT JUMPDEST EQ JUMPDEST PUSH2 0x1818 JUMPI PUSH1 0x40 MLOAD PUSH3 0x461BCD PUSH1 0xE5 SHL DUP2 MSTORE PUSH1 0x4 ADD PUSH2 0xA27 SWAP1 PUSH2 0x57C8 JUMP JUMPDEST CALLER PUSH1 0x0 SWAP1 DUP2 MSTORE PUSH2 0x114 PUSH1 0x20 MSTORE PUSH1 0x40 SWAP1 KECCAK256 SLOAD PUSH1 0xFF AND ISZERO PUSH2 0x1849 JUMPI PUSH1 0x40 MLOAD PUSH3 0x461BCD PUSH1 0xE5 SHL DUP2 MSTORE PUSH1 0x4 ADD PUSH2 0xA27 SWAP1 PUSH2 0x58FA JUMP JUMPDEST CALLER PUSH1 0x0 SWAP1 DUP2 MSTORE PUSH2 0x114 PUSH1 0x20 MSTORE PUSH1 0x40 SWAP1 KECCAK256 DUP1 SLOAD PUSH1 0xFF NOT AND PUSH1 0x1 SWAP1 DUP2 OR SWAP1 SWAP2 SSTORE PUSH2 0x110 SLOAD PUSH2 0x1874 SWAP2 PUSH2 0x3CB5 JUMP JUMPDEST PUSH2 0x110 DUP2 SWAP1 SSTORE POP PUSH1 0x0 PUSH2 0x188F PUSH2 0xAD9 PUSH2 0xAC8 PUSH2 0x110 SLOAD PUSH2 0x3A0C JUMP JUMPDEST SWAP1 POP PUSH2 0x18EA PUSH8 0x6765C793FA10079D PUSH1 0x1B SHL PUSH2 0xB46 PUSH1 0xFB PUSH1 0x2 SWAP1 SLOAD SWAP1 PUSH2 0x100 EXP SWAP1 DIV PUSH1 0x1 PUSH1 0x1 PUSH1 0xA0 SHL SUB AND PUSH1 0x40 MLOAD DUP1 PUSH1 0x40 ADD PUSH1 0x40 MSTORE DUP1 PUSH1 0x13 DUP2 MSTORE PUSH1 0x20 ADD PUSH19 0x7265706F72745468726573686F6C644D61726B PUSH1 0x68 SHL DUP2 MSTORE POP PUSH2 0x3A71 JUMP JUMPDEST DUP2 MLOAD LT PUSH2 0x1908 JUMPI PUSH1 0xFB DUP1 SLOAD PUSH2 0xFF00 NOT AND PUSH2 0x400 OR SWAP1 SSTORE PUSH2 0x1908 PUSH2 0x3ECE JUMP JUMPDEST ADDRESS PUSH1 0x1 PUSH1 0x1 PUSH1 0xA0 SHL SUB AND PUSH32 0x756BBF5988586C885742D6C7A25B152C72C45455E4BD728CBAF2D52EFD58F72F CALLER PUSH1 0x40 MLOAD PUSH2 0x1941 SWAP2 SWAP1 PUSH2 0x4F69 JUMP JUMPDEST PUSH1 0x40 MLOAD DUP1 SWAP2 SUB SWAP1 LOG2 POP POP POP JUMP JUMPDEST PUSH2 0x102 PUSH1 0x20 MSTORE PUSH1 0x0 SWAP1 DUP2 MSTORE PUSH1 0x40 SWAP1 KECCAK256 SLOAD PUSH1 0xFF AND DUP2 JUMP JUMPDEST CALLER PUSH1 0x0 PUSH2 0x1986 PUSH1 0xFB PUSH1 0x2 SWAP1 SLOAD SWAP1 PUSH2 0x100 EXP SWAP1 DIV PUSH1 0x1 PUSH1 0x1 PUSH1 0xA0 SHL SUB AND DUP4 PUSH2 0x38BD JUMP JUMPDEST SWAP2 POP DUP2 SWAP1 POP PUSH2 0x19A7 JUMPI PUSH1 0x40 MLOAD PUSH3 0x461BCD PUSH1 0xE5 SHL DUP2 MSTORE PUSH1 0x4 ADD PUSH2 0xA27 SWAP1 PUSH2 0x50CF JUMP JUMPDEST PUSH2 0x19AF PUSH2 0x16B8 JUMP JUMPDEST ISZERO PUSH2 0x19CC JUMPI PUSH1 0x40 MLOAD PUSH3 0x461BCD PUSH1 0xE5 SHL DUP2 MSTORE PUSH1 0x4 ADD PUSH2 0xA27 SWAP1 PUSH2 0x5461 JUMP JUMPDEST CALLER PUSH1 0x0 SWAP1 DUP2 MSTORE PUSH2 0x111 PUSH1 0x20 MSTORE PUSH1 0x40 SWAP1 KECCAK256 SLOAD PUSH1 0xFF AND PUSH2 0x19FC JUMPI PUSH1 0x40 MLOAD PUSH3 0x461BCD PUSH1 0xE5 SHL DUP2 MSTORE PUSH1 0x4 ADD PUSH2 0xA27 SWAP1 PUSH2 0x5774 JUMP JUMPDEST PUSH1 0x0 DUP5 DUP2 MSTORE PUSH1 0xFE PUSH1 0x20 SWAP1 DUP2 MSTORE PUSH1 0x40 DUP1 DUP4 KECCAK256 CALLER DUP5 MSTORE SWAP1 SWAP2 MSTORE SWAP1 KECCAK256 SLOAD PUSH1 0xFF AND ISZERO PUSH2 0x1A36 JUMPI PUSH1 0x40 MLOAD PUSH3 0x461BCD PUSH1 0xE5 SHL DUP2 MSTORE PUSH1 0x4 ADD PUSH2 0xA27 SWAP1 PUSH2 0x56B6 JUMP JUMPDEST PUSH1 0xFF DUP5 DUP2 SLOAD DUP2 LT PUSH2 0x1A57 JUMPI PUSH4 0x4E487B71 PUSH1 0xE0 SHL PUSH1 0x0 MSTORE PUSH1 0x32 PUSH1 0x4 MSTORE PUSH1 0x24 PUSH1 0x0 REVERT JUMPDEST SWAP1 PUSH1 0x0 MSTORE PUSH1 0x20 PUSH1 0x0 KECCAK256 SWAP1 PUSH1 0x7 MUL ADD PUSH1 0x5 ADD SLOAD TIMESTAMP GT ISZERO PUSH2 0x1A88 JUMPI PUSH1 0x40 MLOAD PUSH3 0x461BCD PUSH1 0xE5 SHL DUP2 MSTORE PUSH1 0x4 ADD PUSH2 0xA27 SWAP1 PUSH2 0x514E JUMP JUMPDEST PUSH1 0xFF DUP5 DUP2 SLOAD DUP2 LT PUSH2 0x1AA9 JUMPI PUSH4 0x4E487B71 PUSH1 0xE0 SHL PUSH1 0x0 MSTORE PUSH1 0x32 PUSH1 0x4 MSTORE PUSH1 0x24 PUSH1 0x0 REVERT JUMPDEST PUSH1 0x0 SWAP2 DUP3 MSTORE PUSH1 0x20 SWAP1 SWAP2 KECCAK256 PUSH1 0x6 PUSH1 0x7 SWAP1 SWAP3 MUL ADD ADD SLOAD PUSH1 0xFF AND ISZERO PUSH2 0x1ADD JUMPI PUSH1 0x40 MLOAD PUSH3 0x461BCD PUSH1 0xE5 SHL DUP2 MSTORE PUSH1 0x4 ADD PUSH2 0xA27 SWAP1 PUSH2 0x52C3 JUMP JUMPDEST PUSH1 0x0 DUP5 DUP2 MSTORE PUSH1 0xFE PUSH1 0x20 SWAP1 DUP2 MSTORE PUSH1 0x40 DUP1 DUP4 KECCAK256 CALLER DUP1 DUP6 MSTORE SWAP1 DUP4 MSTORE DUP2 DUP5 KECCAK256 DUP1 SLOAD PUSH1 0xFF NOT SWAP1 DUP2 AND PUSH1 0x1 OR SWAP1 SWAP2 SSTORE DUP9 DUP6 MSTORE PUSH1 0xFD DUP5 MSTORE DUP3 DUP6 KECCAK256 SWAP2 DUP6 MSTORE SWAP3 MSTORE SWAP1 SWAP2 KECCAK256 DUP1 SLOAD PUSH1 0xFF DUP7 AND SWAP3 AND DUP3 OR SWAP1 SSTORE PUSH2 0x1BA9 JUMPI PUSH2 0x1B6E PUSH1 0x1 PUSH1 0xFF DUP7 DUP2 SLOAD DUP2 LT PUSH2 0x1B4E JUMPI PUSH4 0x4E487B71 PUSH1 0xE0 SHL PUSH1 0x0 MSTORE PUSH1 0x32 PUSH1 0x4 MSTORE PUSH1 0x24 PUSH1 0x0 REVERT JUMPDEST SWAP1 PUSH1 0x0 MSTORE PUSH1 0x20 PUSH1 0x0 KECCAK256 SWAP1 PUSH1 0x7 MUL ADD PUSH1 0x3 ADD SLOAD PUSH2 0x3CB5 SWAP1 SWAP2 SWAP1 PUSH4 0xFFFFFFFF AND JUMP JUMPDEST PUSH1 0xFF DUP6 DUP2 SLOAD DUP2 LT PUSH2 0x1B8F JUMPI PUSH4 0x4E487B71 PUSH1 0xE0 SHL PUSH1 0x0 MSTORE PUSH1 0x32 PUSH1 0x4 MSTORE PUSH1 0x24 PUSH1 0x0 REVERT JUMPDEST SWAP1 PUSH1 0x0 MSTORE PUSH1 0x20 PUSH1 0x0 KECCAK256 SWAP1 PUSH1 0x7 MUL ADD PUSH1 0x3 ADD DUP2 SWAP1 SSTORE POP PUSH2 0x1CB3 JUMP JUMPDEST DUP3 PUSH1 0xFF AND PUSH1 0x1 EQ ISZERO PUSH2 0x1C36 JUMPI PUSH2 0x1BFB PUSH1 0x1 PUSH1 0xFF DUP7 DUP2 SLOAD DUP2 LT PUSH2 0x1BDB JUMPI PUSH4 0x4E487B71 PUSH1 0xE0 SHL PUSH1 0x0 MSTORE PUSH1 0x32 PUSH1 0x4 MSTORE PUSH1 0x24 PUSH1 0x0 REVERT JUMPDEST SWAP1 PUSH1 0x0 MSTORE PUSH1 0x20 PUSH1 0x0 KECCAK256 SWAP1 PUSH1 0x7 MUL ADD PUSH1 0x2 ADD SLOAD PUSH2 0x3CB5 SWAP1 SWAP2 SWAP1 PUSH4 0xFFFFFFFF AND JUMP JUMPDEST PUSH1 0xFF DUP6 DUP2 SLOAD DUP2 LT PUSH2 0x1C1C JUMPI PUSH4 0x4E487B71 PUSH1 0xE0 SHL PUSH1 0x0 MSTORE PUSH1 0x32 PUSH1 0x4 MSTORE PUSH1 0x24 PUSH1 0x0 REVERT JUMPDEST SWAP1 PUSH1 0x0 MSTORE PUSH1 0x20 PUSH1 0x0 KECCAK256 SWAP1 PUSH1 0x7 MUL ADD PUSH1 0x2 ADD DUP2 SWAP1 SSTORE POP PUSH2 0x1CB3 JUMP JUMPDEST PUSH2 0x1C7C PUSH1 0x1 PUSH1 0xFF DUP7 DUP2 SLOAD DUP2 LT PUSH2 0x1C5C JUMPI PUSH4 0x4E487B71 PUSH1 0xE0 SHL PUSH1 0x0 MSTORE PUSH1 0x32 PUSH1 0x4 MSTORE PUSH1 0x24 PUSH1 0x0 REVERT JUMPDEST SWAP1 PUSH1 0x0 MSTORE PUSH1 0x20 PUSH1 0x0 KECCAK256 SWAP1 PUSH1 0x7 MUL ADD PUSH1 0x4 ADD SLOAD PUSH2 0x3CB5 SWAP1 SWAP2 SWAP1 PUSH4 0xFFFFFFFF AND JUMP JUMPDEST PUSH1 0xFF DUP6 DUP2 SLOAD DUP2 LT PUSH2 0x1C9D JUMPI PUSH4 0x4E487B71 PUSH1 0xE0 SHL PUSH1 0x0 MSTORE PUSH1 0x32 PUSH1 0x4 MSTORE PUSH1 0x24 PUSH1 0x0 REVERT JUMPDEST SWAP1 PUSH1 0x0 MSTORE PUSH1 0x20 PUSH1 0x0 KECCAK256 SWAP1 PUSH1 0x7 MUL ADD PUSH1 0x4 ADD DUP2 SWAP1 SSTORE POP JUMPDEST ADDRESS PUSH1 0x1 PUSH1 0x1 PUSH1 0xA0 SHL SUB AND DUP5 PUSH32 0xA1525AD3CAEAAB4DBBAF5B41894A2A846E20EB6AA4192D33D1962221FF594559 DUP6 CALLER PUSH1 0x40 MLOAD PUSH2 0x1CEF SWAP3 SWAP2 SWAP1 PUSH2 0x5ACC JUMP JUMPDEST PUSH1 0x40 MLOAD DUP1 SWAP2 SUB SWAP1 LOG3 POP POP POP POP JUMP JUMPDEST PUSH1 0xFB SLOAD PUSH3 0x10000 SWAP1 DIV PUSH1 0x1 PUSH1 0x1 PUSH1 0xA0 SHL SUB AND DUP2 JUMP JUMPDEST PUSH1 0xFF DUP2 DUP2 SLOAD DUP2 LT PUSH2 0x1D22 JUMPI PUSH1 0x0 DUP1 REVERT JUMPDEST PUSH1 0x0 SWAP2 DUP3 MSTORE PUSH1 0x20 SWAP1 SWAP2 KECCAK256 PUSH1 0x7 SWAP1 SWAP2 MUL ADD DUP1 SLOAD PUSH1 0x1 DUP3 ADD SLOAD PUSH1 0x2 DUP4 ADD SLOAD PUSH1 0x3 DUP5 ADD SLOAD PUSH1 0x4 DUP6 ADD SLOAD PUSH1 0x5 DUP7 ADD SLOAD PUSH1 0x6 SWAP1 SWAP7 ADD SLOAD PUSH1 0x1 PUSH1 0x1 PUSH1 0xA0 SHL SUB DUP7 AND SWAP8 POP PUSH1 0xFF PUSH1 0x1 PUSH1 0xA0 SHL SWAP1 SWAP7 DIV DUP7 AND SWAP7 SWAP5 SWAP6 SWAP4 SWAP5 SWAP3 SWAP4 SWAP2 SWAP3 SWAP2 AND DUP9 JUMP JUMPDEST PUSH2 0x10A SLOAD DUP2 JUMP JUMPDEST PUSH1 0x0 SLOAD PUSH2 0x100 SWAP1 DIV PUSH1 0xFF AND DUP1 PUSH2 0x1D99 JUMPI POP PUSH1 0x0 SLOAD PUSH1 0xFF AND ISZERO JUMPDEST PUSH2 0x1DB5 JUMPI PUSH1 0x40 MLOAD PUSH3 0x461BCD PUSH1 0xE5 SHL DUP2 MSTORE PUSH1 0x4 ADD PUSH2 0xA27 SWAP1 PUSH2 0x552C JUMP JUMPDEST PUSH1 0x0 SLOAD PUSH2 0x100 SWAP1 DIV PUSH1 0xFF AND ISZERO DUP1 ISZERO PUSH2 0x1DE0 JUMPI PUSH1 0x0 DUP1 SLOAD PUSH1 0xFF NOT PUSH2 0xFF00 NOT SWAP1 SWAP2 AND PUSH2 0x100 OR AND PUSH1 0x1 OR SWAP1 SSTORE JUMPDEST PUSH1 0x1 PUSH1 0x1 PUSH1 0xA0 SHL SUB DUP4 AND PUSH2 0x1DF3 JUMPI PUSH1 0x0 DUP1 REVERT JUMPDEST PUSH2 0x1DFE PUSH1 0x0 DUP5 PUSH2 0x4448 JUMP JUMPDEST PUSH1 0xFB DUP1 SLOAD PUSH1 0xFC DUP1 SLOAD PUSH1 0x1 PUSH1 0x1 PUSH1 0xA0 SHL SUB DUP9 DUP2 AND PUSH1 0x1 PUSH1 0x1 PUSH1 0xA0 SHL SUB NOT SWAP3 DUP4 AND OR SWAP1 SWAP3 SSTORE PUSH2 0x103 DUP1 SLOAD DUP9 DUP5 AND SWAP3 AND SWAP2 SWAP1 SWAP2 OR SWAP1 SSTORE DUP8 AND PUSH3 0x10000 MUL PUSH3 0x10000 PUSH1 0x1 PUSH1 0xB0 SHL SUB NOT SWAP1 SWAP2 AND OR PUSH2 0xFF00 NOT AND SWAP1 SSTORE PUSH2 0x106 DUP3 SWAP1 SSTORE PUSH2 0x104 DUP1 SLOAD PUSH1 0xFF PUSH1 0xB0 SHL NOT AND PUSH1 0x19 PUSH1 0xB2 SHL OR SWAP1 DUP2 SWAP1 SSTORE PUSH2 0x1E8A SWAP1 PUSH1 0xFF PUSH1 0x1 PUSH1 0xB0 SHL SWAP1 SWAP2 DIV AND PUSH8 0x6765C793FA10079D PUSH1 0x1B SHL PUSH2 0x3AF0 JUMP JUMPDEST PUSH2 0x105 SSTORE PUSH2 0x104 DUP1 SLOAD PUSH1 0xFF PUSH1 0xA8 SHL NOT AND SWAP1 SSTORE PUSH2 0x103 SLOAD PUSH1 0x40 MLOAD ADDRESS SWAP2 PUSH32 0x712CA2B562E5FD2535BA18BBC1475EE1BDE55964591339EE2FAD68B36AC67746 SWAP2 PUSH2 0x1EDC SWAP2 PUSH1 0x1 PUSH1 0x1 PUSH1 0xA0 SHL SUB AND SWAP1 CALLER SWAP1 PUSH2 0x4FC0 JUMP JUMPDEST PUSH1 0x40 MLOAD DUP1 SWAP2 SUB SWAP1 LOG2 DUP1 ISZERO PUSH2 0x1EF6 JUMPI PUSH1 0x0 DUP1 SLOAD PUSH2 0xFF00 NOT AND SWAP1 SSTORE JUMPDEST POP POP POP POP POP JUMP JUMPDEST PUSH1 0x0 PUSH2 0x1F21 PUSH1 0xFB PUSH1 0x2 SWAP1 SLOAD SWAP1 PUSH2 0x100 EXP SWAP1 DIV PUSH1 0x1 PUSH1 0x1 PUSH1 0xA0 SHL SUB AND PUSH2 0x106 SLOAD PUSH2 0x3D7C JUMP JUMPDEST POP SWAP4 POP POP DUP3 ISZERO SWAP2 POP PUSH2 0x1F67 SWAP1 POP JUMPI PUSH1 0xFB SLOAD PUSH2 0x1F4B SWAP1 PUSH3 0x10000 SWAP1 DIV PUSH1 0x1 PUSH1 0x1 PUSH1 0xA0 SHL SUB AND CALLER PUSH2 0x3E4F JUMP JUMPDEST PUSH2 0x1F67 JUMPI PUSH1 0x40 MLOAD PUSH3 0x461BCD PUSH1 0xE5 SHL DUP2 MSTORE PUSH1 0x4 ADD PUSH2 0xA27 SWAP1 PUSH2 0x535B JUMP JUMPDEST POP PUSH2 0x104 DUP1 SLOAD SWAP2 ISZERO ISZERO PUSH1 0x1 PUSH1 0xA8 SHL MUL PUSH1 0xFF PUSH1 0xA8 SHL NOT SWAP1 SWAP3 AND SWAP2 SWAP1 SWAP2 OR SWAP1 SSTORE JUMP JUMPDEST PUSH1 0x0 PUSH2 0x1FAB PUSH1 0xFB PUSH1 0x2 SWAP1 SLOAD SWAP1 PUSH2 0x100 EXP SWAP1 DIV PUSH1 0x1 PUSH1 0x1 PUSH1 0xA0 SHL SUB AND PUSH2 0x106 SLOAD PUSH2 0x3D7C JUMP JUMPDEST POP SWAP4 POP POP DUP3 ISZERO SWAP2 POP PUSH2 0x1FF1 SWAP1 POP JUMPI PUSH1 0xFB SLOAD PUSH2 0x1FD5 SWAP1 PUSH3 0x10000 SWAP1 DIV PUSH1 0x1 PUSH1 0x1 PUSH1 0xA0 SHL SUB AND CALLER PUSH2 0x3E4F JUMP JUMPDEST PUSH2 0x1FF1 JUMPI PUSH1 0x40 MLOAD PUSH3 0x461BCD PUSH1 0xE5 SHL DUP2 MSTORE PUSH1 0x4 ADD PUSH2 0xA27 SWAP1 PUSH2 0x535B JUMP JUMPDEST PUSH1 0x2 PUSH1 0xC9 SLOAD EQ ISZERO PUSH2 0x2014 JUMPI PUSH1 0x40 MLOAD PUSH3 0x461BCD PUSH1 0xE5 SHL DUP2 MSTORE PUSH1 0x4 ADD PUSH2 0xA27 SWAP1 PUSH2 0x591C JUMP JUMPDEST PUSH1 0x2 PUSH1 0xC9 SSTORE PUSH2 0x2021 PUSH2 0x16B8 JUMP JUMPDEST ISZERO PUSH2 0x203E JUMPI PUSH1 0x40 MLOAD PUSH3 0x461BCD PUSH1 0xE5 SHL DUP2 MSTORE PUSH1 0x4 ADD PUSH2 0xA27 SWAP1 PUSH2 0x5461 JUMP JUMPDEST DUP2 PUSH1 0x0 PUSH2 0x2060 PUSH1 0xFB PUSH1 0x2 SWAP1 SLOAD SWAP1 PUSH2 0x100 EXP SWAP1 DIV PUSH1 0x1 PUSH1 0x1 PUSH1 0xA0 SHL SUB AND DUP4 PUSH2 0x38BD JUMP JUMPDEST SWAP2 POP DUP2 SWAP1 POP PUSH2 0x2081 JUMPI PUSH1 0x40 MLOAD PUSH3 0x461BCD PUSH1 0xE5 SHL DUP2 MSTORE PUSH1 0x4 ADD PUSH2 0xA27 SWAP1 PUSH2 0x50CF JUMP JUMPDEST PUSH1 0x0 PUSH1 0xFB SLOAD PUSH2 0x100 SWAP1 DIV PUSH1 0xFF AND PUSH1 0x4 DUP2 GT ISZERO PUSH2 0x20AD JUMPI PUSH4 0x4E487B71 PUSH1 0xE0 SHL PUSH1 0x0 MSTORE PUSH1 0x21 PUSH1 0x4 MSTORE PUSH1 0x24 PUSH1 0x0 REVERT JUMPDEST EQ DUP1 PUSH2 0x20E2 JUMPI POP PUSH1 0x1 PUSH1 0xFB SLOAD PUSH2 0x100 SWAP1 DIV PUSH1 0xFF AND PUSH1 0x4 DUP2 GT ISZERO PUSH2 0x20E0 JUMPI PUSH4 0x4E487B71 PUSH1 0xE0 SHL PUSH1 0x0 MSTORE PUSH1 0x21 PUSH1 0x4 MSTORE PUSH1 0x24 PUSH1 0x0 REVERT JUMPDEST EQ JUMPDEST PUSH2 0x20EB JUMPI PUSH1 0x0 DUP1 REVERT JUMPDEST PUSH1 0x1 PUSH1 0x1 PUSH1 0xA0 SHL SUB DUP6 AND PUSH1 0x0 SWAP1 DUP2 MSTORE PUSH2 0x111 PUSH1 0x20 MSTORE PUSH1 0x40 SWAP1 KECCAK256 SLOAD PUSH1 0xFF AND PUSH2 0x2111 JUMPI PUSH1 0x0 DUP1 REVERT JUMPDEST PUSH1 0x1 PUSH1 0x1 PUSH1 0xA0 SHL SUB DUP1 DUP7 AND PUSH1 0x0 DUP2 DUP2 MSTORE PUSH2 0x112 PUSH1 0x20 SWAP1 DUP2 MSTORE PUSH1 0x40 DUP1 DUP4 KECCAK256 DUP1 SLOAD DUP11 DUP8 AND DUP1 DUP7 MSTORE DUP4 DUP7 KECCAK256 SWAP2 SWAP1 SWAP2 SSTORE SWAP5 DUP5 MSTORE DUP4 SWAP1 SSTORE PUSH2 0x111 SWAP1 SWAP2 MSTORE DUP1 DUP3 KECCAK256 DUP1 SLOAD PUSH1 0xFF NOT SWAP1 DUP2 AND SWAP1 SWAP2 SSTORE SWAP3 DUP3 MSTORE SWAP1 KECCAK256 DUP1 SLOAD SWAP1 SWAP2 AND PUSH1 0x1 OR SWAP1 SSTORE PUSH1 0xFC SLOAD PUSH2 0x2175 SWAP2 AND DUP7 DUP7 PUSH2 0x4452 JUMP JUMPDEST ADDRESS PUSH1 0x1 PUSH1 0x1 PUSH1 0xA0 SHL SUB AND PUSH32 0x6D5D641D4F3B60587BBB1D2CD115656D1B67435B06BD6AA4CE9480284FC30A0D DUP7 DUP7 CALLER PUSH1 0x40 MLOAD PUSH2 0x21B2 SWAP4 SWAP3 SWAP2 SWAP1 PUSH2 0x4FDA JUMP JUMPDEST PUSH1 0x40 MLOAD DUP1 SWAP2 SUB SWAP1 LOG2 POP POP PUSH1 0x1 PUSH1 0xC9 SSTORE POP POP POP JUMP JUMPDEST PUSH2 0x21D1 PUSH1 0x0 CALLER PUSH2 0x1137 JUMP JUMPDEST JUMP JUMPDEST PUSH2 0x107 SLOAD DUP2 JUMP JUMPDEST PUSH1 0x0 DUP3 DUP2 MSTORE PUSH1 0x65 PUSH1 0x20 SWAP1 DUP2 MSTORE PUSH1 0x40 DUP1 DUP4 KECCAK256 PUSH1 0x1 PUSH1 0x1 PUSH1 0xA0 SHL SUB DUP6 AND DUP5 MSTORE SWAP1 SWAP2 MSTORE SWAP1 KECCAK256 SLOAD PUSH1 0xFF AND JUMPDEST SWAP3 SWAP2 POP POP JUMP JUMPDEST PUSH2 0x109 SLOAD DUP2 JUMP JUMPDEST CALLER PUSH1 0x0 PUSH2 0x2230 PUSH1 0xFB PUSH1 0x2 SWAP1 SLOAD SWAP1 PUSH2 0x100 EXP SWAP1 DIV PUSH1 0x1 PUSH1 0x1 PUSH1 0xA0 SHL SUB AND DUP4 PUSH2 0x38BD JUMP JUMPDEST SWAP2 POP DUP2 SWAP1 POP PUSH2 0x2251 JUMPI PUSH1 0x40 MLOAD PUSH3 0x461BCD PUSH1 0xE5 SHL DUP2 MSTORE PUSH1 0x4 ADD PUSH2 0xA27 SWAP1 PUSH2 0x50CF JUMP JUMPDEST PUSH2 0x2259 PUSH2 0x16B8 JUMP JUMPDEST ISZERO PUSH2 0x2276 JUMPI PUSH1 0x40 MLOAD PUSH3 0x461BCD PUSH1 0xE5 SHL DUP2 MSTORE PUSH1 0x4 ADD PUSH2 0xA27 SWAP1 PUSH2 0x5461 JUMP JUMPDEST PUSH1 0x2 PUSH1 0xC9 SLOAD EQ ISZERO PUSH2 0x2299 JUMPI PUSH1 0x40 MLOAD PUSH3 0x461BCD PUSH1 0xE5 SHL DUP2 MSTORE PUSH1 0x4 ADD PUSH2 0xA27 SWAP1 PUSH2 0x591C JUMP JUMPDEST PUSH1 0x2 PUSH1 0xC9 SSTORE PUSH2 0x10C SLOAD TIMESTAMP GT ISZERO PUSH2 0x22C1 JUMPI PUSH1 0x40 MLOAD PUSH3 0x461BCD PUSH1 0xE5 SHL DUP2 MSTORE PUSH1 0x4 ADD PUSH2 0xA27 SWAP1 PUSH2 0x5836 JUMP JUMPDEST PUSH2 0x103 SLOAD PUSH1 0x1 PUSH1 0x1 PUSH1 0xA0 SHL SUB AND CALLER EQ ISZERO PUSH2 0x22ED JUMPI PUSH1 0x40 MLOAD PUSH3 0x461BCD PUSH1 0xE5 SHL DUP2 MSTORE PUSH1 0x4 ADD PUSH2 0xA27 SWAP1 PUSH2 0x5381 JUMP JUMPDEST PUSH2 0x104 SLOAD PUSH1 0x1 PUSH1 0x1 PUSH1 0xA0 SHL SUB DUP7 DUP2 AND SWAP2 AND EQ PUSH2 0x231B JUMPI PUSH1 0x40 MLOAD PUSH3 0x461BCD PUSH1 0xE5 SHL DUP2 MSTORE PUSH1 0x4 ADD PUSH2 0xA27 SWAP1 PUSH2 0x568F JUMP JUMPDEST PUSH2 0x109 SLOAD CALLVALUE LT ISZERO PUSH2 0x233E JUMPI PUSH1 0x40 MLOAD PUSH3 0x461BCD PUSH1 0xE5 SHL DUP2 MSTORE PUSH1 0x4 ADD PUSH2 0xA27 SWAP1 PUSH2 0x5310 JUMP JUMPDEST PUSH1 0xFB SLOAD PUSH1 0x40 DUP1 MLOAD DUP1 DUP3 ADD SWAP1 SWAP2 MSTORE PUSH1 0x1A DUP2 MSTORE PUSH26 0x1B585E1A5B5D5B50DBDB9D1C9A589D5D1A5BDB905B1B1BDDD959 PUSH1 0x32 SHL PUSH1 0x20 DUP3 ADD MSTORE PUSH2 0x238B SWAP2 PUSH3 0x10000 SWAP1 DIV PUSH1 0x1 PUSH1 0x1 PUSH1 0xA0 SHL SUB AND SWAP1 PUSH2 0x3A71 JUMP JUMPDEST CALLVALUE GT ISZERO PUSH2 0x23AA JUMPI PUSH1 0x40 MLOAD PUSH3 0x461BCD PUSH1 0xE5 SHL DUP2 MSTORE PUSH1 0x4 ADD PUSH2 0xA27 SWAP1 PUSH2 0x54DD JUMP JUMPDEST PUSH2 0x104 SLOAD PUSH1 0x1 PUSH1 0xA0 SHL SWAP1 DIV PUSH1 0xFF AND PUSH2 0x23FB JUMPI PUSH2 0x10B SLOAD CALLVALUE GT ISZERO DUP1 ISZERO PUSH2 0x23DF JUMPI POP PUSH2 0x10B SLOAD PUSH2 0x107 SLOAD PUSH2 0x23DC SWAP1 CALLVALUE PUSH2 0x3CB5 JUMP JUMPDEST GT ISZERO JUMPDEST PUSH2 0x23FB JUMPI PUSH1 0x40 MLOAD PUSH3 0x461BCD PUSH1 0xE5 SHL DUP2 MSTORE PUSH1 0x4 ADD PUSH2 0xA27 SWAP1 PUSH2 0x53EB JUMP JUMPDEST DUP3 ISZERO PUSH2 0x2419 JUMPI PUSH1 0xFC SLOAD PUSH2 0x2419 SWAP1 PUSH1 0x1 PUSH1 0x1 PUSH1 0xA0 SHL SUB AND DUP6 CALLVALUE CALLER PUSH2 0x4480 JUMP JUMPDEST CALLER PUSH1 0x0 SWAP1 DUP2 MSTORE PUSH2 0x111 PUSH1 0x20 MSTORE PUSH1 0x40 SWAP1 KECCAK256 SLOAD PUSH1 0xFF AND PUSH2 0x2460 JUMPI PUSH2 0x10A SLOAD PUSH2 0x2440 SWAP1 PUSH1 0x1 PUSH2 0x3CB5 JUMP JUMPDEST PUSH2 0x10A SSTORE CALLER PUSH1 0x0 SWAP1 DUP2 MSTORE PUSH2 0x111 PUSH1 0x20 MSTORE PUSH1 0x40 SWAP1 KECCAK256 DUP1 SLOAD PUSH1 0xFF NOT AND PUSH1 0x1 OR SWAP1 SSTORE JUMPDEST PUSH2 0x107 SLOAD PUSH2 0x246E SWAP1 CALLVALUE PUSH2 0x3CB5 JUMP JUMPDEST PUSH2 0x107 SSTORE PUSH2 0x108 SLOAD PUSH2 0x2480 SWAP1 CALLVALUE PUSH2 0x3CB5 JUMP JUMPDEST PUSH2 0x108 SSTORE CALLER PUSH1 0x0 SWAP1 DUP2 MSTORE PUSH2 0x112 PUSH1 0x20 MSTORE PUSH1 0x40 SWAP1 KECCAK256 SLOAD PUSH2 0x249F SWAP1 CALLVALUE PUSH2 0x3CB5 JUMP JUMPDEST CALLER PUSH1 0x0 SWAP1 DUP2 MSTORE PUSH2 0x112 PUSH1 0x20 MSTORE PUSH1 0x40 SWAP1 KECCAK256 SSTORE PUSH2 0x10B SLOAD PUSH2 0x107 SLOAD LT PUSH2 0x250C JUMPI PUSH1 0xFB DUP1 SLOAD PUSH2 0xFF00 NOT AND PUSH2 0x100 OR SWAP1 SSTORE PUSH2 0x107 SLOAD PUSH1 0x40 MLOAD ADDRESS SWAP2 PUSH32 0x542013525CD36B6C89E081FA3CE8A34F81D547F7FF83CD0605C6D427E3481F75 SWAP2 PUSH2 0x2503 SWAP2 SWAP1 CALLER SWAP1 PUSH2 0x59F4 JUMP JUMPDEST PUSH1 0x40 MLOAD DUP1 SWAP2 SUB SWAP1 LOG2 JUMPDEST PUSH2 0x104 SLOAD PUSH2 0x2525 SWAP1 PUSH1 0x1 PUSH1 0x1 PUSH1 0xA0 SHL SUB AND CALLER ADDRESS CALLVALUE PUSH2 0x44E8 JUMP JUMPDEST DUP4 ADDRESS PUSH1 0x1 PUSH1 0x1 PUSH1 0xA0 SHL SUB AND PUSH32 0xE285AF0BA100526AB18835463CD8AC114BFAD3A7293999CD51079EF823231FDE CALLVALUE DUP7 CALLER PUSH1 0x40 MLOAD PUSH2 0x2563 SWAP4 SWAP3 SWAP2 SWAP1 PUSH2 0x5A2A JUMP JUMPDEST PUSH1 0x40 MLOAD DUP1 SWAP2 SUB SWAP1 LOG3 POP POP PUSH1 0x1 PUSH1 0xC9 SSTORE POP POP POP JUMP JUMPDEST PUSH1 0xFB SLOAD PUSH1 0xFF AND DUP2 JUMP JUMPDEST PUSH2 0x258B PUSH1 0x0 CALLER PUSH2 0x21DA JUMP JUMPDEST PUSH2 0x2594 JUMPI PUSH1 0x0 DUP1 REVERT JUMPDEST PUSH2 0x259C PUSH2 0x16B8 JUMP JUMPDEST ISZERO PUSH2 0x25B9 JUMPI PUSH1 0x40 MLOAD PUSH3 0x461BCD PUSH1 0xE5 SHL DUP2 MSTORE PUSH1 0x4 ADD PUSH2 0xA27 SWAP1 PUSH2 0x5461 JUMP JUMPDEST DUP1 PUSH1 0x0 PUSH2 0x25DB PUSH1 0xFB PUSH1 0x2 SWAP1 SLOAD SWAP1 PUSH2 0x100 EXP SWAP1 DIV PUSH1 0x1 PUSH1 0x1 PUSH1 0xA0 SHL SUB AND DUP4 PUSH2 0x38BD JUMP JUMPDEST SWAP2 POP DUP2 SWAP1 POP PUSH2 0x25FC JUMPI PUSH1 0x40 MLOAD PUSH3 0x461BCD PUSH1 0xE5 SHL DUP2 MSTORE PUSH1 0x4 ADD PUSH2 0xA27 SWAP1 PUSH2 0x50CF JUMP JUMPDEST PUSH2 0x103 DUP1 SLOAD PUSH1 0x1 PUSH1 0x1 PUSH1 0xA0 SHL SUB NOT AND PUSH1 0x1 PUSH1 0x1 PUSH1 0xA0 SHL SUB DUP6 AND OR SWAP1 SSTORE PUSH2 0x2623 PUSH1 0x0 DUP5 PUSH2 0x4448 JUMP JUMPDEST PUSH2 0x262E PUSH1 0x0 CALLER PUSH2 0x1137 JUMP JUMPDEST ADDRESS PUSH1 0x1 PUSH1 0x1 PUSH1 0xA0 SHL SUB AND PUSH32 0x141D8D77155F69472BEB7FD1FFAE79C4FBA5C6F2253D4278AFD5949015FFC15C DUP5 CALLER PUSH1 0x40 MLOAD PUSH2 0x1941 SWAP3 SWAP2 SWAP1 PUSH2 0x4FC0 JUMP JUMPDEST PUSH1 0x0 DUP2 JUMP JUMPDEST PUSH2 0x113 PUSH1 0x20 MSTORE PUSH1 0x0 SWAP1 DUP2 MSTORE PUSH1 0x40 SWAP1 KECCAK256 SLOAD PUSH1 0xFF AND DUP2 JUMP JUMPDEST PUSH2 0x268F PUSH1 0x0 CALLER PUSH2 0x21DA JUMP JUMPDEST PUSH2 0x2698 JUMPI PUSH1 0x0 DUP1 REVERT JUMPDEST CALLER PUSH1 0x0 PUSH2 0x26BA PUSH1 0xFB PUSH1 0x2 SWAP1 SLOAD SWAP1 PUSH2 0x100 EXP SWAP1 DIV PUSH1 0x1 PUSH1 0x1 PUSH1 0xA0 SHL SUB AND DUP4 PUSH2 0x38BD JUMP JUMPDEST SWAP2 POP DUP2 SWAP1 POP PUSH2 0x26DB JUMPI PUSH1 0x40 MLOAD PUSH3 0x461BCD PUSH1 0xE5 SHL DUP2 MSTORE PUSH1 0x4 ADD PUSH2 0xA27 SWAP1 PUSH2 0x50CF JUMP JUMPDEST PUSH2 0x26E3 PUSH2 0x16B8 JUMP JUMPDEST ISZERO PUSH2 0x2700 JUMPI PUSH1 0x40 MLOAD PUSH3 0x461BCD PUSH1 0xE5 SHL DUP2 MSTORE PUSH1 0x4 ADD PUSH2 0xA27 SWAP1 PUSH2 0x5461 JUMP JUMPDEST PUSH1 0xFF DUP4 DUP2 SLOAD DUP2 LT PUSH2 0x2721 JUMPI PUSH4 0x4E487B71 PUSH1 0xE0 SHL PUSH1 0x0 MSTORE PUSH1 0x32 PUSH1 0x4 MSTORE PUSH1 0x24 PUSH1 0x0 REVERT JUMPDEST PUSH1 0x0 SWAP2 DUP3 MSTORE PUSH1 0x20 SWAP1 SWAP2 KECCAK256 PUSH1 0x6 PUSH1 0x7 SWAP1 SWAP3 MUL ADD ADD SLOAD PUSH1 0xFF AND ISZERO PUSH2 0x2755 JUMPI PUSH1 0x40 MLOAD PUSH3 0x461BCD PUSH1 0xE5 SHL DUP2 MSTORE PUSH1 0x4 ADD PUSH2 0xA27 SWAP1 PUSH2 0x52C3 JUMP JUMPDEST PUSH1 0x1 PUSH1 0xFF DUP5 DUP2 SLOAD DUP2 LT PUSH2 0x2778 JUMPI PUSH4 0x4E487B71 PUSH1 0xE0 SHL PUSH1 0x0 MSTORE PUSH1 0x32 PUSH1 0x4 MSTORE PUSH1 0x24 PUSH1 0x0 REVERT JUMPDEST SWAP1 PUSH1 0x0 MSTORE PUSH1 0x20 PUSH1 0x0 KECCAK256 SWAP1 PUSH1 0x7 MUL ADD PUSH1 0x2 ADD SLOAD LT PUSH2 0x27A7 JUMPI PUSH1 0x40 MLOAD PUSH3 0x461BCD PUSH1 0xE5 SHL DUP2 MSTORE PUSH1 0x4 ADD PUSH2 0xA27 SWAP1 PUSH2 0x5505 JUMP JUMPDEST PUSH1 0x1 PUSH1 0xFF DUP5 DUP2 SLOAD DUP2 LT PUSH2 0x27CA JUMPI PUSH4 0x4E487B71 PUSH1 0xE0 SHL PUSH1 0x0 MSTORE PUSH1 0x32 PUSH1 0x4 MSTORE PUSH1 0x24 PUSH1 0x0 REVERT JUMPDEST SWAP1 PUSH1 0x0 MSTORE PUSH1 0x20 PUSH1 0x0 KECCAK256 SWAP1 PUSH1 0x7 MUL ADD PUSH1 0x6 ADD PUSH1 0x0 PUSH2 0x100 EXP DUP2 SLOAD DUP2 PUSH1 0xFF MUL NOT AND SWAP1 DUP4 ISZERO ISZERO MUL OR SWAP1 SSTORE POP ADDRESS PUSH1 0x1 PUSH1 0x1 PUSH1 0xA0 SHL SUB AND DUP4 PUSH32 0xA440C7DCD286FFE63B8F5D96DAC11739F23CFC0F2B258F7DD4F2EF9B4D600E8F CALLER PUSH1 0x40 MLOAD PUSH2 0x282C SWAP2 SWAP1 PUSH2 0x4F69 JUMP JUMPDEST PUSH1 0x40 MLOAD DUP1 SWAP2 SUB SWAP1 LOG3 POP POP POP JUMP JUMPDEST PUSH2 0x2844 PUSH1 0x0 CALLER PUSH2 0x21DA JUMP JUMPDEST PUSH2 0x284D JUMPI PUSH1 0x0 DUP1 REVERT JUMPDEST PUSH2 0x1179 DUP2 DUP4 PUSH2 0xF49 JUMP JUMPDEST PUSH2 0x2862 PUSH1 0x0 CALLER PUSH2 0x21DA JUMP JUMPDEST PUSH2 0x286B JUMPI PUSH1 0x0 DUP1 REVERT JUMPDEST CALLER PUSH1 0x0 PUSH2 0x288D PUSH1 0xFB PUSH1 0x2 SWAP1 SLOAD SWAP1 PUSH2 0x100 EXP SWAP1 DIV PUSH1 0x1 PUSH1 0x1 PUSH1 0xA0 SHL SUB AND DUP4 PUSH2 0x38BD JUMP JUMPDEST SWAP2 POP DUP2 SWAP1 POP PUSH2 0x28AE JUMPI PUSH1 0x40 MLOAD PUSH3 0x461BCD PUSH1 0xE5 SHL DUP2 MSTORE PUSH1 0x4 ADD PUSH2 0xA27 SWAP1 PUSH2 0x50CF JUMP JUMPDEST PUSH1 0x1 PUSH2 0x10A SLOAD LT PUSH2 0x28D1 JUMPI PUSH1 0x40 MLOAD PUSH3 0x461BCD PUSH1 0xE5 SHL DUP2 MSTORE PUSH1 0x4 ADD PUSH2 0xA27 SWAP1 PUSH2 0x51D0 JUMP JUMPDEST PUSH1 0xFB SLOAD PUSH1 0x40 DUP1 MLOAD DUP1 DUP3 ADD SWAP1 SWAP2 MSTORE PUSH1 0x1A DUP2 MSTORE PUSH26 0x1B5A5B9A5B5D5B50DBDB9D1C9A589D5D1A5BDB905B1B1BDDD959 PUSH1 0x32 SHL PUSH1 0x20 DUP3 ADD MSTORE PUSH2 0x291E SWAP2 PUSH3 0x10000 SWAP1 DIV PUSH1 0x1 PUSH1 0x1 PUSH1 0xA0 SHL SUB AND SWAP1 PUSH2 0x3A71 JUMP JUMPDEST DUP8 LT ISZERO DUP1 ISZERO PUSH2 0x2979 JUMPI POP PUSH1 0xFB SLOAD PUSH1 0x40 DUP1 MLOAD DUP1 DUP3 ADD SWAP1 SWAP2 MSTORE PUSH1 0x1A DUP2 MSTORE PUSH26 0x1B585E1A5B5D5B50DBDB9D1C9A589D5D1A5BDB905B1B1BDDD959 PUSH1 0x32 SHL PUSH1 0x20 DUP3 ADD MSTORE PUSH2 0x2975 SWAP2 PUSH3 0x10000 SWAP1 DIV PUSH1 0x1 PUSH1 0x1 PUSH1 0xA0 SHL SUB AND SWAP1 PUSH2 0x3A71 JUMP JUMPDEST DUP8 GT ISZERO JUMPDEST PUSH2 0x2995 JUMPI PUSH1 0x40 MLOAD PUSH3 0x461BCD PUSH1 0xE5 SHL DUP2 MSTORE PUSH1 0x4 ADD PUSH2 0xA27 SWAP1 PUSH2 0x579A JUMP JUMPDEST PUSH1 0xFB SLOAD PUSH1 0x40 MLOAD PUSH4 0x104B3791 PUSH1 0xE1 SHL DUP2 MSTORE PUSH3 0x10000 SWAP1 SWAP2 DIV PUSH1 0x1 PUSH1 0x1 PUSH1 0xA0 SHL SUB AND SWAP1 PUSH4 0x20966F22 SWAP1 PUSH2 0x29CA SWAP1 DUP8 SWAP1 PUSH1 0x4 ADD PUSH2 0x4F69 JUMP JUMPDEST PUSH1 0x20 PUSH1 0x40 MLOAD DUP1 DUP4 SUB DUP2 DUP7 DUP1 EXTCODESIZE ISZERO DUP1 ISZERO PUSH2 0x29E2 JUMPI PUSH1 0x0 DUP1 REVERT JUMPDEST POP GAS STATICCALL ISZERO DUP1 ISZERO PUSH2 0x29F6 JUMPI RETURNDATASIZE PUSH1 0x0 DUP1 RETURNDATACOPY RETURNDATASIZE PUSH1 0x0 REVERT JUMPDEST POP POP POP POP PUSH1 0x40 MLOAD RETURNDATASIZE PUSH1 0x1F NOT PUSH1 0x1F DUP3 ADD AND DUP3 ADD DUP1 PUSH1 0x40 MSTORE POP DUP2 ADD SWAP1 PUSH2 0x2A1A SWAP2 SWAP1 PUSH2 0x4D40 JUMP JUMPDEST PUSH2 0x2A36 JUMPI PUSH1 0x40 MLOAD PUSH3 0x461BCD PUSH1 0xE5 SHL DUP2 MSTORE PUSH1 0x4 ADD PUSH2 0xA27 SWAP1 PUSH2 0x568F JUMP JUMPDEST PUSH1 0xFB SLOAD PUSH1 0x40 DUP1 MLOAD DUP1 DUP3 ADD SWAP1 SWAP2 MSTORE PUSH1 0x15 DUP2 MSTORE PUSH21 0x1B5A5B9A5B5D5B50D85B5C185A59DB95185C99D95D PUSH1 0x5A SHL PUSH1 0x20 DUP3 ADD MSTORE PUSH2 0x2A7E SWAP2 PUSH3 0x10000 SWAP1 DIV PUSH1 0x1 PUSH1 0x1 PUSH1 0xA0 SHL SUB AND SWAP1 PUSH2 0x3A71 JUMP JUMPDEST DUP9 LT ISZERO DUP1 ISZERO PUSH2 0x2AD4 JUMPI POP PUSH1 0xFB SLOAD PUSH1 0x40 DUP1 MLOAD DUP1 DUP3 ADD SWAP1 SWAP2 MSTORE PUSH1 0x15 DUP2 MSTORE PUSH21 0x1B585E1A5B5D5B50D85B5C185A59DB95185C99D95D PUSH1 0x5A SHL PUSH1 0x20 DUP3 ADD MSTORE PUSH2 0x2AD0 SWAP2 PUSH3 0x10000 SWAP1 DIV PUSH1 0x1 PUSH1 0x1 PUSH1 0xA0 SHL SUB AND SWAP1 PUSH2 0x3A71 JUMP JUMPDEST DUP9 GT ISZERO JUMPDEST PUSH2 0x2AF0 JUMPI PUSH1 0x40 MLOAD PUSH3 0x461BCD PUSH1 0xE5 SHL DUP2 MSTORE PUSH1 0x4 ADD PUSH2 0xA27 SWAP1 PUSH2 0x574C JUMP JUMPDEST PUSH2 0x10B DUP9 SWAP1 SSTORE PUSH2 0x109 DUP8 SWAP1 SSTORE PUSH2 0x2B06 TIMESTAMP DUP8 PUSH2 0x3CB5 JUMP JUMPDEST PUSH2 0x10C SSTORE PUSH2 0x104 DUP1 SLOAD PUSH1 0x1 PUSH1 0x1 PUSH1 0xA0 SHL SUB NOT AND PUSH1 0x1 PUSH1 0x1 PUSH1 0xA0 SHL SUB DUP7 AND OR PUSH1 0xFF PUSH1 0xA0 SHL NOT AND PUSH1 0x1 PUSH1 0xA0 SHL DUP6 ISZERO ISZERO MUL OR SWAP1 SSTORE DUP5 PUSH1 0x1 DUP2 GT ISZERO PUSH2 0x2B57 JUMPI PUSH4 0x4E487B71 PUSH1 0xE0 SHL PUSH1 0x0 MSTORE PUSH1 0x21 PUSH1 0x4 MSTORE PUSH1 0x24 PUSH1 0x0 REVERT JUMPDEST PUSH1 0xFB DUP1 SLOAD PUSH1 0xFF NOT AND PUSH1 0x1 DUP4 DUP2 DUP2 GT ISZERO PUSH2 0x2B80 JUMPI PUSH4 0x4E487B71 PUSH1 0xE0 SHL PUSH1 0x0 MSTORE PUSH1 0x21 PUSH1 0x4 MSTORE PUSH1 0x24 PUSH1 0x0 REVERT JUMPDEST MUL OR SWAP1 SSTORE POP ADDRESS PUSH1 0x1 PUSH1 0x1 PUSH1 0xA0 SHL SUB AND PUSH32 0xEE25C218D9EB150F6DD11682B54758C9C90C22A68ACEA789D36D74CDF65C2671 DUP9 DUP9 DUP9 DUP9 CALLER PUSH1 0x40 MLOAD PUSH2 0x2BC6 SWAP6 SWAP5 SWAP4 SWAP3 SWAP2 SWAP1 PUSH2 0x5A8F JUMP JUMPDEST PUSH1 0x40 MLOAD DUP1 SWAP2 SUB SWAP1 LOG2 POP POP POP POP POP POP POP POP JUMP JUMPDEST CALLER PUSH1 0x0 PUSH2 0x2BFA PUSH1 0xFB PUSH1 0x2 SWAP1 SLOAD SWAP1 PUSH2 0x100 EXP SWAP1 DIV PUSH1 0x1 PUSH1 0x1 PUSH1 0xA0 SHL SUB AND DUP4 PUSH2 0x38BD JUMP JUMPDEST SWAP2 POP DUP2 SWAP1 POP PUSH2 0x2C1B JUMPI PUSH1 0x40 MLOAD PUSH3 0x461BCD PUSH1 0xE5 SHL DUP2 MSTORE PUSH1 0x4 ADD PUSH2 0xA27 SWAP1 PUSH2 0x50CF JUMP JUMPDEST PUSH2 0x2C23 PUSH2 0x16B8 JUMP JUMPDEST ISZERO PUSH2 0x2C40 JUMPI PUSH1 0x40 MLOAD PUSH3 0x461BCD PUSH1 0xE5 SHL DUP2 MSTORE PUSH1 0x4 ADD PUSH2 0xA27 SWAP1 PUSH2 0x5461 JUMP JUMPDEST CALLER PUSH1 0x0 SWAP1 DUP2 MSTORE PUSH2 0x111 PUSH1 0x20 MSTORE PUSH1 0x40 SWAP1 KECCAK256 SLOAD PUSH1 0xFF AND PUSH2 0x2C70 JUMPI PUSH1 0x40 MLOAD PUSH3 0x461BCD PUSH1 0xE5 SHL DUP2 MSTORE PUSH1 0x4 ADD PUSH2 0xA27 SWAP1 PUSH2 0x5774 JUMP JUMPDEST PUSH1 0xFF DUP4 DUP2 SLOAD DUP2 LT PUSH2 0x2C91 JUMPI PUSH4 0x4E487B71 PUSH1 0xE0 SHL PUSH1 0x0 MSTORE PUSH1 0x32 PUSH1 0x4 MSTORE PUSH1 0x24 PUSH1 0x0 REVERT JUMPDEST SWAP1 PUSH1 0x0 MSTORE PUSH1 0x20 PUSH1 0x0 KECCAK256 SWAP1 PUSH1 0x7 MUL ADD PUSH1 0x5 ADD SLOAD TIMESTAMP GT ISZERO PUSH2 0x2CC2 JUMPI PUSH1 0x40 MLOAD PUSH3 0x461BCD PUSH1 0xE5 SHL DUP2 MSTORE PUSH1 0x4 ADD PUSH2 0xA27 SWAP1 PUSH2 0x514E JUMP JUMPDEST PUSH1 0x0 DUP4 DUP2 MSTORE PUSH1 0xFE PUSH1 0x20 SWAP1 DUP2 MSTORE PUSH1 0x40 DUP1 DUP4 KECCAK256 CALLER DUP5 MSTORE SWAP1 SWAP2 MSTORE SWAP1 KECCAK256 SLOAD PUSH1 0xFF AND PUSH2 0x2CFB JUMPI PUSH1 0x40 MLOAD PUSH3 0x461BCD PUSH1 0xE5 SHL DUP2 MSTORE PUSH1 0x4 ADD PUSH2 0xA27 SWAP1 PUSH2 0x548B JUMP JUMPDEST PUSH1 0x0 DUP4 DUP2 MSTORE PUSH1 0xFE PUSH1 0x20 SWAP1 DUP2 MSTORE PUSH1 0x40 DUP1 DUP4 KECCAK256 CALLER DUP1 DUP6 MSTORE SWAP1 DUP4 MSTORE DUP2 DUP5 KECCAK256 DUP1 SLOAD PUSH1 0xFF NOT AND SWAP1 SSTORE DUP7 DUP5 MSTORE PUSH1 0xFD DUP4 MSTORE DUP2 DUP5 KECCAK256 SWAP1 DUP5 MSTORE SWAP1 SWAP2 MSTORE SWAP1 KECCAK256 SLOAD PUSH1 0xFF AND PUSH2 0x2DB9 JUMPI PUSH2 0x2D7E PUSH1 0x1 PUSH1 0xFF DUP6 DUP2 SLOAD DUP2 LT PUSH2 0x2D5E JUMPI PUSH4 0x4E487B71 PUSH1 0xE0 SHL PUSH1 0x0 MSTORE PUSH1 0x32 PUSH1 0x4 MSTORE PUSH1 0x24 PUSH1 0x0 REVERT JUMPDEST SWAP1 PUSH1 0x0 MSTORE PUSH1 0x20 PUSH1 0x0 KECCAK256 SWAP1 PUSH1 0x7 MUL ADD PUSH1 0x3 ADD SLOAD PUSH2 0x3CA9 SWAP1 SWAP2 SWAP1 PUSH4 0xFFFFFFFF AND JUMP JUMPDEST PUSH1 0xFF DUP5 DUP2 SLOAD DUP2 LT PUSH2 0x2D9F JUMPI PUSH4 0x4E487B71 PUSH1 0xE0 SHL PUSH1 0x0 MSTORE PUSH1 0x32 PUSH1 0x4 MSTORE PUSH1 0x24 PUSH1 0x0 REVERT JUMPDEST SWAP1 PUSH1 0x0 MSTORE PUSH1 0x20 PUSH1 0x0 KECCAK256 SWAP1 PUSH1 0x7 MUL ADD PUSH1 0x3 ADD DUP2 SWAP1 SSTORE POP PUSH2 0x2EDC JUMP JUMPDEST PUSH1 0x0 DUP4 DUP2 MSTORE PUSH1 0xFD PUSH1 0x20 SWAP1 DUP2 MSTORE PUSH1 0x40 DUP1 DUP4 KECCAK256 CALLER DUP5 MSTORE SWAP1 SWAP2 MSTORE SWAP1 KECCAK256 SLOAD PUSH1 0xFF AND PUSH1 0x1 EQ ISZERO PUSH2 0x2E5F JUMPI PUSH2 0x2E24 PUSH1 0x1 PUSH1 0xFF DUP6 DUP2 SLOAD DUP2 LT PUSH2 0x2E04 JUMPI PUSH4 0x4E487B71 PUSH1 0xE0 SHL PUSH1 0x0 MSTORE PUSH1 0x32 PUSH1 0x4 MSTORE PUSH1 0x24 PUSH1 0x0 REVERT JUMPDEST SWAP1 PUSH1 0x0 MSTORE PUSH1 0x20 PUSH1 0x0 KECCAK256 SWAP1 PUSH1 0x7 MUL ADD PUSH1 0x2 ADD SLOAD PUSH2 0x3CA9 SWAP1 SWAP2 SWAP1 PUSH4 0xFFFFFFFF AND JUMP JUMPDEST PUSH1 0xFF DUP5 DUP2 SLOAD DUP2 LT PUSH2 0x2E45 JUMPI PUSH4 0x4E487B71 PUSH1 0xE0 SHL PUSH1 0x0 MSTORE PUSH1 0x32 PUSH1 0x4 MSTORE PUSH1 0x24 PUSH1 0x0 REVERT JUMPDEST SWAP1 PUSH1 0x0 MSTORE PUSH1 0x20 PUSH1 0x0 KECCAK256 SWAP1 PUSH1 0x7 MUL ADD PUSH1 0x2 ADD DUP2 SWAP1 SSTORE POP PUSH2 0x2EDC JUMP JUMPDEST PUSH2 0x2EA5 PUSH1 0x1 PUSH1 0xFF DUP6 DUP2 SLOAD DUP2 LT PUSH2 0x2E85 JUMPI PUSH4 0x4E487B71 PUSH1 0xE0 SHL PUSH1 0x0 MSTORE PUSH1 0x32 PUSH1 0x4 MSTORE PUSH1 0x24 PUSH1 0x0 REVERT JUMPDEST SWAP1 PUSH1 0x0 MSTORE PUSH1 0x20 PUSH1 0x0 KECCAK256 SWAP1 PUSH1 0x7 MUL ADD PUSH1 0x4 ADD SLOAD PUSH2 0x3CA9 SWAP1 SWAP2 SWAP1 PUSH4 0xFFFFFFFF AND JUMP JUMPDEST PUSH1 0xFF DUP5 DUP2 SLOAD DUP2 LT PUSH2 0x2EC6 JUMPI PUSH4 0x4E487B71 PUSH1 0xE0 SHL PUSH1 0x0 MSTORE PUSH1 0x32 PUSH1 0x4 MSTORE PUSH1 0x24 PUSH1 0x0 REVERT JUMPDEST SWAP1 PUSH1 0x0 MSTORE PUSH1 0x20 PUSH1 0x0 KECCAK256 SWAP1 PUSH1 0x7 MUL ADD PUSH1 0x4 ADD DUP2 SWAP1 SSTORE POP JUMPDEST PUSH1 0x0 DUP4 DUP2 MSTORE PUSH1 0xFD PUSH1 0x20 SWAP1 DUP2 MSTORE PUSH1 0x40 DUP1 DUP4 KECCAK256 CALLER DUP1 DUP6 MSTORE SWAP3 MSTORE SWAP2 DUP3 SWAP1 KECCAK256 SLOAD SWAP2 MLOAD ADDRESS SWAP3 DUP7 SWAP3 PUSH32 0xD406D34B059D067DE2D7BCDC71BA7271FF7549A4766A8625671B2E165B443CF5 SWAP3 PUSH2 0x282C SWAP3 PUSH1 0xFF AND SWAP2 SWAP1 PUSH2 0x5ACC JUMP JUMPDEST PUSH2 0x10F SLOAD DUP2 JUMP JUMPDEST CALLER PUSH1 0x0 PUSH2 0x2F57 PUSH1 0xFB PUSH1 0x2 SWAP1 SLOAD SWAP1 PUSH2 0x100 EXP SWAP1 DIV PUSH1 0x1 PUSH1 0x1 PUSH1 0xA0 SHL SUB AND DUP4 PUSH2 0x38BD JUMP JUMPDEST SWAP2 POP DUP2 SWAP1 POP PUSH2 0x2F78 JUMPI PUSH1 0x40 MLOAD PUSH3 0x461BCD PUSH1 0xE5 SHL DUP2 MSTORE PUSH1 0x4 ADD PUSH2 0xA27 SWAP1 PUSH2 0x50CF JUMP JUMPDEST PUSH2 0x2F80 PUSH2 0x16B8 JUMP JUMPDEST PUSH2 0x2F9C JUMPI PUSH1 0x40 MLOAD PUSH3 0x461BCD PUSH1 0xE5 SHL DUP2 MSTORE PUSH1 0x4 ADD PUSH2 0xA27 SWAP1 PUSH2 0x5177 JUMP JUMPDEST PUSH1 0x2 PUSH1 0xFB SLOAD PUSH2 0x100 SWAP1 DIV PUSH1 0xFF AND PUSH1 0x4 DUP2 GT ISZERO PUSH2 0x2FC8 JUMPI PUSH4 0x4E487B71 PUSH1 0xE0 SHL PUSH1 0x0 MSTORE PUSH1 0x21 PUSH1 0x4 MSTORE PUSH1 0x24 PUSH1 0x0 REVERT JUMPDEST EQ PUSH2 0x2FE5 JUMPI PUSH1 0x40 MLOAD PUSH3 0x461BCD PUSH1 0xE5 SHL DUP2 MSTORE PUSH1 0x4 ADD PUSH2 0xA27 SWAP1 PUSH2 0x55D9 JUMP JUMPDEST CALLER PUSH1 0x0 SWAP1 DUP2 MSTORE PUSH2 0x102 PUSH1 0x20 MSTORE PUSH1 0x40 SWAP1 KECCAK256 SLOAD PUSH1 0xFF AND ISZERO PUSH2 0x3016 JUMPI PUSH1 0x40 MLOAD PUSH3 0x461BCD PUSH1 0xE5 SHL DUP2 MSTORE PUSH1 0x4 ADD PUSH2 0xA27 SWAP1 PUSH2 0x588E JUMP JUMPDEST CALLER PUSH1 0x0 SWAP1 DUP2 MSTORE PUSH2 0x111 PUSH1 0x20 MSTORE PUSH1 0x40 SWAP1 KECCAK256 SLOAD PUSH1 0xFF AND PUSH2 0x3046 JUMPI PUSH1 0x40 MLOAD PUSH3 0x461BCD PUSH1 0xE5 SHL DUP2 MSTORE PUSH1 0x4 ADD PUSH2 0xA27 SWAP1 PUSH2 0x5774 JUMP JUMPDEST CALLER PUSH1 0x0 SWAP1 DUP2 MSTORE PUSH2 0x102 PUSH1 0x20 MSTORE PUSH1 0x40 SWAP1 KECCAK256 DUP1 SLOAD PUSH1 0xFF NOT AND PUSH1 0x1 SWAP1 DUP2 OR SWAP1 SWAP2 SSTORE PUSH2 0x101 SLOAD PUSH2 0x3071 SWAP2 PUSH2 0x3CB5 JUMP JUMPDEST PUSH2 0x101 SSTORE PUSH1 0x40 MLOAD ADDRESS SWAP1 PUSH32 0xA35479BBEF3BC560431AFD3DB39F242663C9C60A88EDFF87BC0A5B7F5393FC8B SWAP1 PUSH2 0x112B SWAP1 CALLER SWAP1 PUSH2 0x4F69 JUMP JUMPDEST PUSH2 0x10B SLOAD DUP2 JUMP JUMPDEST PUSH2 0x30B7 DUP3 PUSH2 0xF2D JUMP JUMPDEST PUSH2 0x30C3 DUP2 PUSH2 0xF5E PUSH2 0x3F93 JUMP JUMPDEST PUSH2 0xF6D DUP4 DUP4 PUSH2 0x4082 JUMP JUMPDEST PUSH2 0x112 PUSH1 0x20 MSTORE PUSH1 0x0 SWAP1 DUP2 MSTORE PUSH1 0x40 SWAP1 KECCAK256 SLOAD DUP2 JUMP JUMPDEST PUSH1 0x1 PUSH1 0x1 PUSH1 0xA0 SHL SUB DUP2 AND PUSH1 0x0 SWAP1 DUP2 MSTORE PUSH2 0x113 PUSH1 0x20 MSTORE PUSH1 0x40 DUP2 KECCAK256 SLOAD PUSH1 0xFF AND ISZERO PUSH2 0x311A JUMPI PUSH1 0x40 MLOAD PUSH3 0x461BCD PUSH1 0xE5 SHL DUP2 MSTORE PUSH1 0x4 ADD PUSH2 0xA27 SWAP1 PUSH2 0x51A5 JUMP JUMPDEST PUSH1 0x0 PUSH2 0x3144 PUSH2 0xAD9 PUSH2 0x313B PUSH2 0x108 SLOAD PUSH2 0x107 SLOAD PUSH2 0x3CA9 SWAP1 SWAP2 SWAP1 PUSH4 0xFFFFFFFF AND JUMP JUMPDEST PUSH2 0x107 SLOAD PUSH2 0x3C8F JUMP JUMPDEST SWAP1 POP PUSH1 0x0 PUSH2 0x3184 PUSH2 0x112 PUSH1 0x0 DUP7 PUSH1 0x1 PUSH1 0x1 PUSH1 0xA0 SHL SUB AND PUSH1 0x1 PUSH1 0x1 PUSH1 0xA0 SHL SUB AND DUP2 MSTORE PUSH1 0x20 ADD SWAP1 DUP2 MSTORE PUSH1 0x20 ADD PUSH1 0x0 KECCAK256 SLOAD PUSH2 0x317F DUP5 PUSH2 0x105 SLOAD PUSH2 0x450F JUMP JUMPDEST PUSH2 0x4524 JUMP JUMPDEST SWAP5 SWAP4 POP POP POP POP JUMP JUMPDEST PUSH2 0x104 SLOAD PUSH1 0x1 PUSH1 0xA8 SHL SWAP1 DIV PUSH1 0xFF AND DUP2 JUMP JUMPDEST PUSH2 0x103 SLOAD PUSH1 0x1 PUSH1 0x1 PUSH1 0xA0 SHL SUB AND DUP2 JUMP JUMPDEST CALLER PUSH1 0x0 PUSH2 0x31CF PUSH1 0xFB PUSH1 0x2 SWAP1 SLOAD SWAP1 PUSH2 0x100 EXP SWAP1 DIV PUSH1 0x1 PUSH1 0x1 PUSH1 0xA0 SHL SUB AND DUP4 PUSH2 0x38BD JUMP JUMPDEST SWAP2 POP DUP2 SWAP1 POP PUSH2 0x31F0 JUMPI PUSH1 0x40 MLOAD PUSH3 0x461BCD PUSH1 0xE5 SHL DUP2 MSTORE PUSH1 0x4 ADD PUSH2 0xA27 SWAP1 PUSH2 0x50CF JUMP JUMPDEST PUSH2 0x31FB PUSH1 0x0 CALLER PUSH2 0x21DA JUMP JUMPDEST PUSH2 0x3204 JUMPI PUSH1 0x0 DUP1 REVERT JUMPDEST PUSH2 0x320C PUSH2 0x16B8 JUMP JUMPDEST PUSH2 0x3228 JUMPI PUSH1 0x40 MLOAD PUSH3 0x461BCD PUSH1 0xE5 SHL DUP2 MSTORE PUSH1 0x4 ADD PUSH2 0xA27 SWAP1 PUSH2 0x5177 JUMP JUMPDEST PUSH1 0x0 PUSH2 0x323C PUSH2 0xAD9 PUSH2 0xAC8 PUSH2 0x101 SLOAD PUSH2 0x3A0C JUMP JUMPDEST SWAP1 POP PUSH1 0x2 PUSH1 0xFB SLOAD PUSH2 0x100 SWAP1 DIV PUSH1 0xFF AND PUSH1 0x4 DUP2 GT ISZERO PUSH2 0x326A JUMPI PUSH4 0x4E487B71 PUSH1 0xE0 SHL PUSH1 0x0 MSTORE PUSH1 0x21 PUSH1 0x4 MSTORE PUSH1 0x24 PUSH1 0x0 REVERT JUMPDEST EQ PUSH2 0x3287 JUMPI PUSH1 0x40 MLOAD PUSH3 0x461BCD PUSH1 0xE5 SHL DUP2 MSTORE PUSH1 0x4 ADD PUSH2 0xA27 SWAP1 PUSH2 0x55D9 JUMP JUMPDEST PUSH2 0x32E0 PUSH8 0x6765C793FA10079D PUSH1 0x1B SHL PUSH2 0xB46 PUSH1 0xFB PUSH1 0x2 SWAP1 SLOAD SWAP1 PUSH2 0x100 EXP SWAP1 DIV PUSH1 0x1 PUSH1 0x1 PUSH1 0xA0 SHL SUB AND PUSH1 0x40 MLOAD DUP1 PUSH1 0x40 ADD PUSH1 0x40 MSTORE DUP1 PUSH1 0x13 DUP2 MSTORE PUSH1 0x20 ADD PUSH19 0x7265766965775468726573686F6C644D61726B PUSH1 0x68 SHL DUP2 MSTORE POP PUSH2 0x3A71 JUMP JUMPDEST DUP2 MLOAD LT ISZERO PUSH2 0x3300 JUMPI PUSH1 0x40 MLOAD PUSH3 0x461BCD PUSH1 0xE5 SHL DUP2 MSTORE PUSH1 0x4 ADD PUSH2 0xA27 SWAP1 PUSH2 0x5953 JUMP JUMPDEST PUSH1 0xFB DUP1 SLOAD PUSH2 0xFF00 NOT AND PUSH2 0x300 OR SWAP1 SSTORE PUSH1 0x40 MLOAD ADDRESS SWAP1 PUSH1 0x0 DUP1 MLOAD PUSH1 0x20 PUSH2 0x5C22 DUP4 CODECOPY DUP2 MLOAD SWAP2 MSTORE SWAP1 PUSH2 0x1941 SWAP1 PUSH1 0x3 SWAP1 CALLER SWAP1 PUSH2 0x505C JUMP JUMPDEST CALLER PUSH1 0x0 PUSH2 0x3354 PUSH1 0xFB PUSH1 0x2 SWAP1 SLOAD SWAP1 PUSH2 0x100 EXP SWAP1 DIV PUSH1 0x1 PUSH1 0x1 PUSH1 0xA0 SHL SUB AND DUP4 PUSH2 0x38BD JUMP JUMPDEST SWAP2 POP DUP2 SWAP1 POP PUSH2 0x3375 JUMPI PUSH1 0x40 MLOAD PUSH3 0x461BCD PUSH1 0xE5 SHL DUP2 MSTORE PUSH1 0x4 ADD PUSH2 0xA27 SWAP1 PUSH2 0x50CF JUMP JUMPDEST PUSH1 0x2 PUSH1 0xC9 SLOAD EQ ISZERO PUSH2 0x3398 JUMPI PUSH1 0x40 MLOAD PUSH3 0x461BCD PUSH1 0xE5 SHL DUP2 MSTORE PUSH1 0x4 ADD PUSH2 0xA27 SWAP1 PUSH2 0x591C JUMP JUMPDEST PUSH1 0x2 PUSH1 0xC9 SSTORE PUSH2 0x104 SLOAD PUSH1 0x1 PUSH1 0xA8 SHL SWAP1 DIV PUSH1 0xFF AND ISZERO PUSH2 0x33B5 JUMPI PUSH1 0x0 DUP1 REVERT JUMPDEST PUSH2 0x159D CALLER DUP5 PUSH2 0x4107 JUMP JUMPDEST PUSH2 0x101 SLOAD DUP2 JUMP JUMPDEST PUSH2 0x33D1 PUSH1 0x0 CALLER PUSH2 0x21DA JUMP JUMPDEST PUSH2 0x33DA JUMPI PUSH1 0x0 DUP1 REVERT JUMPDEST CALLER PUSH1 0x0 PUSH2 0x33FC PUSH1 0xFB PUSH1 0x2 SWAP1 SLOAD SWAP1 PUSH2 0x100 EXP SWAP1 DIV PUSH1 0x1 PUSH1 0x1 PUSH1 0xA0 SHL SUB AND DUP4 PUSH2 0x38BD JUMP JUMPDEST SWAP2 POP DUP2 SWAP1 POP PUSH2 0x341D JUMPI PUSH1 0x40 MLOAD PUSH3 0x461BCD PUSH1 0xE5 SHL DUP2 MSTORE PUSH1 0x4 ADD PUSH2 0xA27 SWAP1 PUSH2 0x50CF JUMP JUMPDEST PUSH2 0x3425 PUSH2 0x16B8 JUMP JUMPDEST ISZERO PUSH2 0x3442 JUMPI PUSH1 0x40 MLOAD PUSH3 0x461BCD PUSH1 0xE5 SHL DUP2 MSTORE PUSH1 0x4 ADD PUSH2 0xA27 SWAP1 PUSH2 0x5461 JUMP JUMPDEST PUSH1 0x1 PUSH1 0x1 PUSH1 0xA0 SHL SUB DUP6 AND PUSH2 0x3455 JUMPI PUSH1 0x0 DUP1 REVERT JUMPDEST PUSH2 0x10B SLOAD PUSH2 0x107 SLOAD LT ISZERO PUSH2 0x3486 JUMPI PUSH2 0x10C SLOAD TIMESTAMP LT ISZERO PUSH2 0x3486 JUMPI PUSH1 0x40 MLOAD PUSH3 0x461BCD PUSH1 0xE5 SHL DUP2 MSTORE PUSH1 0x4 ADD PUSH2 0xA27 SWAP1 PUSH2 0x54AF JUMP JUMPDEST PUSH1 0x0 PUSH1 0xFB SLOAD PUSH1 0xFF AND PUSH1 0x1 DUP2 GT ISZERO PUSH2 0x34AD JUMPI PUSH4 0x4E487B71 PUSH1 0xE0 SHL PUSH1 0x0 MSTORE PUSH1 0x21 PUSH1 0x4 MSTORE PUSH1 0x24 PUSH1 0x0 REVERT JUMPDEST EQ ISZERO PUSH2 0x350E JUMPI PUSH2 0x10B SLOAD PUSH2 0x107 SLOAD LT ISZERO DUP1 ISZERO PUSH2 0x34F2 JUMPI POP PUSH1 0x1 PUSH1 0xFB SLOAD PUSH2 0x100 SWAP1 DIV PUSH1 0xFF AND PUSH1 0x4 DUP2 GT ISZERO PUSH2 0x34F0 JUMPI PUSH4 0x4E487B71 PUSH1 0xE0 SHL PUSH1 0x0 MSTORE PUSH1 0x21 PUSH1 0x4 MSTORE PUSH1 0x24 PUSH1 0x0 REVERT JUMPDEST EQ JUMPDEST PUSH2 0x350E JUMPI PUSH1 0x40 MLOAD PUSH3 0x461BCD PUSH1 0xE5 SHL DUP2 MSTORE PUSH1 0x4 ADD PUSH2 0xA27 SWAP1 PUSH2 0x5266 JUMP JUMPDEST PUSH1 0xFB SLOAD PUSH1 0x40 DUP1 MLOAD DUP1 DUP3 ADD SWAP1 SWAP2 MSTORE PUSH1 0x1B DUP2 MSTORE PUSH27 0x1B5A5B9A5B5D5B54995C5D595CDD105B5BDD5B9D105B1B1BDDD959 PUSH1 0x2A SHL PUSH1 0x20 DUP3 ADD MSTORE PUSH2 0x355C SWAP2 PUSH3 0x10000 SWAP1 DIV PUSH1 0x1 PUSH1 0x1 PUSH1 0xA0 SHL SUB AND SWAP1 PUSH2 0x3A71 JUMP JUMPDEST DUP5 LT ISZERO DUP1 ISZERO PUSH2 0x35B8 JUMPI POP PUSH1 0xFB SLOAD PUSH1 0x40 DUP1 MLOAD DUP1 DUP3 ADD SWAP1 SWAP2 MSTORE PUSH1 0x1B DUP2 MSTORE PUSH27 0x1B585E1A5B5D5B54995C5D595CDD105B5BDD5B9D105B1B1BDDD959 PUSH1 0x2A SHL PUSH1 0x20 DUP3 ADD MSTORE PUSH2 0x35B4 SWAP2 PUSH3 0x10000 SWAP1 DIV PUSH1 0x1 PUSH1 0x1 PUSH1 0xA0 SHL SUB AND SWAP1 PUSH2 0x3A71 JUMP JUMPDEST DUP5 GT ISZERO JUMPDEST PUSH2 0x35D4 JUMPI PUSH1 0x40 MLOAD PUSH3 0x461BCD PUSH1 0xE5 SHL DUP2 MSTORE PUSH1 0x4 ADD PUSH2 0xA27 SWAP1 PUSH2 0x56D5 JUMP JUMPDEST PUSH2 0x108 SLOAD DUP5 GT ISZERO PUSH2 0x35F7 JUMPI PUSH1 0x40 MLOAD PUSH3 0x461BCD PUSH1 0xE5 SHL DUP2 MSTORE PUSH1 0x4 ADD PUSH2 0xA27 SWAP1 PUSH2 0x55A5 JUMP JUMPDEST PUSH1 0xFB SLOAD PUSH1 0x40 DUP1 MLOAD DUP1 DUP3 ADD SWAP1 SWAP2 MSTORE PUSH1 0x12 DUP2 MSTORE PUSH18 0x36B4B72932B8BAB2B9BA223AB930BA34B7B7 PUSH1 0x71 SHL PUSH1 0x20 DUP3 ADD MSTORE PUSH2 0x363C SWAP2 PUSH3 0x10000 SWAP1 DIV PUSH1 0x1 PUSH1 0x1 PUSH1 0xA0 SHL SUB AND SWAP1 PUSH2 0x3A71 JUMP JUMPDEST DUP4 LT ISZERO DUP1 ISZERO PUSH2 0x368F JUMPI POP PUSH1 0xFB SLOAD PUSH1 0x40 DUP1 MLOAD DUP1 DUP3 ADD SWAP1 SWAP2 MSTORE PUSH1 0x12 DUP2 MSTORE PUSH18 0x36B0BC2932B8BAB2B9BA223AB930BA34B7B7 PUSH1 0x71 SHL PUSH1 0x20 DUP3 ADD MSTORE PUSH2 0x368B SWAP2 PUSH3 0x10000 SWAP1 DIV PUSH1 0x1 PUSH1 0x1 PUSH1 0xA0 SHL SUB AND SWAP1 PUSH2 0x3A71 JUMP JUMPDEST DUP4 GT ISZERO JUMPDEST PUSH2 0x36AB JUMPI PUSH1 0x40 MLOAD PUSH3 0x461BCD PUSH1 0xE5 SHL DUP2 MSTORE PUSH1 0x4 ADD PUSH2 0xA27 SWAP1 PUSH2 0x597B JUMP JUMPDEST PUSH1 0x1 PUSH2 0x100 SLOAD LT PUSH2 0x3711 JUMPI PUSH1 0xFF PUSH2 0x10F SLOAD DUP2 SLOAD DUP2 LT PUSH2 0x36DA JUMPI PUSH4 0x4E487B71 PUSH1 0xE0 SHL PUSH1 0x0 MSTORE PUSH1 0x32 PUSH1 0x4 MSTORE PUSH1 0x24 PUSH1 0x0 REVERT JUMPDEST PUSH1 0x0 SWAP2 DUP3 MSTORE PUSH1 0x20 SWAP1 SWAP2 KECCAK256 PUSH1 0x7 SWAP1 SWAP2 MUL ADD SLOAD PUSH1 0x1 PUSH1 0xA0 SHL SWAP1 DIV PUSH1 0xFF AND PUSH2 0x3711 JUMPI PUSH1 0x40 MLOAD PUSH3 0x461BCD PUSH1 0xE5 SHL DUP2 MSTORE PUSH1 0x4 ADD PUSH2 0xA27 SWAP1 PUSH2 0x5625 JUMP JUMPDEST PUSH1 0xFF PUSH1 0x40 MLOAD DUP1 PUSH2 0x100 ADD PUSH1 0x40 MSTORE DUP1 DUP8 PUSH1 0x1 PUSH1 0x1 PUSH1 0xA0 SHL SUB AND DUP2 MSTORE PUSH1 0x20 ADD PUSH1 0x0 ISZERO ISZERO DUP2 MSTORE PUSH1 0x20 ADD DUP7 DUP2 MSTORE PUSH1 0x20 ADD PUSH1 0x0 DUP2 MSTORE PUSH1 0x20 ADD PUSH1 0x0 DUP2 MSTORE PUSH1 0x20 ADD PUSH1 0x0 DUP2 MSTORE PUSH1 0x20 ADD PUSH2 0x3765 DUP7 TIMESTAMP PUSH2 0x3CB5 SWAP1 SWAP2 SWAP1 PUSH4 0xFFFFFFFF AND JUMP JUMPDEST DUP2 MSTORE PUSH1 0x0 PUSH1 0x20 SWAP2 DUP3 ADD DUP2 SWAP1 MSTORE DUP4 SLOAD PUSH1 0x1 DUP1 DUP3 ADD DUP7 SSTORE SWAP5 DUP3 MSTORE SWAP1 DUP3 SWAP1 KECCAK256 DUP4 MLOAD PUSH1 0x7 SWAP1 SWAP3 MUL ADD DUP1 SLOAD SWAP3 DUP5 ADD MLOAD PUSH1 0x1 PUSH1 0x1 PUSH1 0xA0 SHL SUB NOT SWAP1 SWAP4 AND PUSH1 0x1 PUSH1 0x1 PUSH1 0xA0 SHL SUB SWAP1 SWAP3 AND SWAP2 SWAP1 SWAP2 OR PUSH1 0xFF PUSH1 0xA0 SHL NOT AND PUSH1 0x1 PUSH1 0xA0 SHL SWAP3 ISZERO ISZERO SWAP3 SWAP1 SWAP3 MUL SWAP2 SWAP1 SWAP2 OR DUP2 SSTORE PUSH1 0x40 DUP3 ADD MLOAD DUP2 DUP5 ADD SSTORE PUSH1 0x60 DUP3 ADD MLOAD PUSH1 0x2 DUP3 ADD SSTORE PUSH1 0x80 DUP3 ADD MLOAD PUSH1 0x3 DUP3 ADD SSTORE PUSH1 0xA0 DUP3 ADD MLOAD PUSH1 0x4 DUP3 ADD SSTORE PUSH1 0xC0 DUP3 ADD MLOAD PUSH1 0x5 DUP3 ADD SSTORE PUSH1 0xE0 SWAP1 SWAP2 ADD MLOAD PUSH1 0x6 SWAP1 SWAP2 ADD DUP1 SLOAD PUSH1 0xFF NOT AND SWAP2 ISZERO ISZERO SWAP2 SWAP1 SWAP2 OR SWAP1 SSTORE PUSH2 0x100 SLOAD PUSH2 0x381B SWAP2 PUSH2 0x3CB5 JUMP JUMPDEST PUSH2 0x100 SSTORE PUSH1 0xFF SLOAD PUSH2 0x382D SWAP1 PUSH1 0x1 PUSH2 0x3CA9 JUMP JUMPDEST PUSH2 0x10F SSTORE PUSH1 0xFF SLOAD ADDRESS SWAP1 PUSH2 0x3841 SWAP1 PUSH1 0x1 PUSH2 0x3CA9 JUMP JUMPDEST PUSH32 0x823DC9736A56A564DB1EE4E6689052F2CB7B486AD859872BA53DD5C13D2C8C71 DUP6 DUP8 DUP10 CALLER PUSH1 0x40 MLOAD PUSH2 0x3876 SWAP5 SWAP4 SWAP3 SWAP2 SWAP1 PUSH2 0x5A68 JUMP JUMPDEST PUSH1 0x40 MLOAD DUP1 SWAP2 SUB SWAP1 LOG3 POP POP POP POP POP JUMP JUMPDEST PUSH1 0xFB SLOAD PUSH2 0x100 SWAP1 DIV PUSH1 0xFF AND DUP2 JUMP JUMPDEST PUSH2 0x104 SLOAD PUSH1 0x1 PUSH1 0xA0 SHL SWAP1 DIV PUSH1 0xFF AND DUP2 JUMP JUMPDEST PUSH1 0x1 PUSH1 0x1 PUSH1 0xE0 SHL SUB NOT DUP2 AND PUSH4 0x1FFC9A7 PUSH1 0xE0 SHL EQ SWAP2 SWAP1 POP JUMP JUMPDEST PUSH1 0x0 DUP1 PUSH1 0x1 PUSH1 0x1 PUSH1 0xA0 SHL SUB DUP4 AND PUSH2 0x38D3 JUMPI PUSH1 0x0 DUP1 REVERT JUMPDEST PUSH1 0x0 DUP1 DUP6 PUSH1 0x1 PUSH1 0x1 PUSH1 0xA0 SHL SUB AND PUSH4 0x365B98B2 DUP8 PUSH1 0x1 PUSH1 0x1 PUSH1 0xA0 SHL SUB AND PUSH4 0xEDA7794E DUP9 PUSH1 0x40 MLOAD DUP3 PUSH4 0xFFFFFFFF AND PUSH1 0xE0 SHL DUP2 MSTORE PUSH1 0x4 ADD PUSH2 0x3911 SWAP2 SWAP1 PUSH2 0x4F69 JUMP JUMPDEST PUSH1 0x20 PUSH1 0x40 MLOAD DUP1 DUP4 SUB DUP2 DUP7 DUP1 EXTCODESIZE ISZERO DUP1 ISZERO PUSH2 0x3929 JUMPI PUSH1 0x0 DUP1 REVERT JUMPDEST POP GAS STATICCALL ISZERO DUP1 ISZERO PUSH2 0x393D JUMPI RETURNDATASIZE PUSH1 0x0 DUP1 RETURNDATACOPY RETURNDATASIZE PUSH1 0x0 REVERT JUMPDEST POP POP POP POP PUSH1 0x40 MLOAD RETURNDATASIZE PUSH1 0x1F NOT PUSH1 0x1F DUP3 ADD AND DUP3 ADD DUP1 PUSH1 0x40 MSTORE POP DUP2 ADD SWAP1 PUSH2 0x3961 SWAP2 SWAP1 PUSH2 0x4E10 JUMP JUMPDEST PUSH1 0x40 MLOAD DUP3 PUSH4 0xFFFFFFFF AND PUSH1 0xE0 SHL DUP2 MSTORE PUSH1 0x4 ADD PUSH2 0x397D SWAP2 SWAP1 PUSH2 0x5045 JUMP JUMPDEST PUSH1 0xA0 PUSH1 0x40 MLOAD DUP1 DUP4 SUB DUP2 DUP7 DUP1 EXTCODESIZE ISZERO DUP1 ISZERO PUSH2 0x3995 JUMPI PUSH1 0x0 DUP1 REVERT JUMPDEST POP GAS STATICCALL ISZERO DUP1 ISZERO PUSH2 0x39A9 JUMPI RETURNDATASIZE PUSH1 0x0 DUP1 RETURNDATACOPY RETURNDATASIZE PUSH1 0x0 REVERT JUMPDEST POP POP POP POP PUSH1 0x40 MLOAD RETURNDATASIZE PUSH1 0x1F NOT PUSH1 0x1F DUP3 ADD AND DUP3 ADD DUP1 PUSH1 0x40 MSTORE POP DUP2 ADD SWAP1 PUSH2 0x39CD SWAP2 SWAP1 PUSH2 0x4CC3 JUMP JUMPDEST POP SWAP3 SWAP5 POP SWAP2 SWAP3 POP POP POP PUSH1 0x1 PUSH1 0x1 PUSH1 0xA0 SHL SUB DUP1 DUP4 AND SWAP1 DUP7 AND EQ PUSH2 0x3A01 JUMPI PUSH1 0x40 MLOAD PUSH3 0x461BCD PUSH1 0xE5 SHL DUP2 MSTORE PUSH1 0x4 ADD PUSH2 0xA27 SWAP1 PUSH2 0x52E3 JUMP JUMPDEST SWAP1 SWAP6 SWAP1 SWAP5 POP SWAP3 POP POP POP JUMP JUMPDEST PUSH2 0x3A14 PUSH2 0x4AF3 JUMP JUMPDEST POP PUSH1 0x40 DUP1 MLOAD PUSH1 0x20 DUP2 ADD SWAP1 SWAP2 MSTORE SWAP1 DUP2 MSTORE SWAP1 JUMP JUMPDEST PUSH2 0x3A2E PUSH2 0x4AF3 JUMP JUMPDEST PUSH1 0x40 MLOAD DUP1 PUSH1 0x20 ADD PUSH1 0x40 MSTORE DUP1 PUSH2 0x3A47 DUP6 PUSH1 0x0 ADD MLOAD DUP6 PUSH2 0x458C JUMP JUMPDEST SWAP1 MSTORE SWAP4 SWAP3 POP POP POP JUMP JUMPDEST PUSH2 0x3A58 PUSH2 0x4AF3 JUMP JUMPDEST PUSH2 0x3A6A DUP4 PUSH2 0x3A65 DUP5 PUSH2 0x3A0C JUMP JUMPDEST PUSH2 0x45B0 JUMP JUMPDEST SWAP4 SWAP3 POP POP POP JUMP JUMPDEST PUSH1 0x40 MLOAD PUSH4 0x14F7EA99 PUSH1 0xE0 SHL DUP2 MSTORE PUSH1 0x0 SWAP1 PUSH1 0x1 PUSH1 0x1 PUSH1 0xA0 SHL SUB DUP5 AND SWAP1 PUSH4 0x14F7EA99 SWAP1 PUSH2 0x3AA0 SWAP1 DUP6 SWAP1 PUSH1 0x4 ADD PUSH2 0x509C JUMP JUMPDEST PUSH1 0x20 PUSH1 0x40 MLOAD DUP1 DUP4 SUB DUP2 DUP7 DUP1 EXTCODESIZE ISZERO DUP1 ISZERO PUSH2 0x3AB8 JUMPI PUSH1 0x0 DUP1 REVERT JUMPDEST POP GAS STATICCALL ISZERO DUP1 ISZERO PUSH2 0x3ACC JUMPI RETURNDATASIZE PUSH1 0x0 DUP1 RETURNDATACOPY RETURNDATASIZE PUSH1 0x0 REVERT JUMPDEST POP POP POP POP PUSH1 0x40 MLOAD RETURNDATASIZE PUSH1 0x1F NOT PUSH1 0x1F DUP3 ADD AND DUP3 ADD DUP1 PUSH1 0x40 MSTORE POP DUP2 ADD SWAP1 PUSH2 0x3A6A SWAP2 SWAP1 PUSH2 0x4E10 JUMP JUMPDEST PUSH1 0x0 PUSH2 0x3A6A DUP3 DUP5 PUSH2 0x5B14 JUMP JUMPDEST PUSH1 0x0 DUP1 PUSH1 0x0 DUP5 PUSH1 0x1 PUSH1 0x1 PUSH1 0xA0 SHL SUB AND PUSH4 0x339D50A5 DUP6 PUSH1 0x40 MLOAD DUP3 PUSH4 0xFFFFFFFF AND PUSH1 0xE0 SHL DUP2 MSTORE PUSH1 0x4 ADD PUSH2 0x3B2D SWAP2 SWAP1 PUSH2 0x5045 JUMP JUMPDEST PUSH2 0x120 PUSH1 0x40 MLOAD DUP1 DUP4 SUB DUP2 DUP7 DUP1 EXTCODESIZE ISZERO DUP1 ISZERO PUSH2 0x3B46 JUMPI PUSH1 0x0 DUP1 REVERT JUMPDEST POP GAS STATICCALL ISZERO DUP1 ISZERO PUSH2 0x3B5A JUMPI RETURNDATASIZE PUSH1 0x0 DUP1 RETURNDATACOPY RETURNDATASIZE PUSH1 0x0 REVERT JUMPDEST POP POP POP POP PUSH1 0x40 MLOAD RETURNDATASIZE PUSH1 0x1F NOT PUSH1 0x1F DUP3 ADD AND DUP3 ADD DUP1 PUSH1 0x40 MSTORE POP DUP2 ADD SWAP1 PUSH2 0x3B7E SWAP2 SWAP1 PUSH2 0x4BBB JUMP JUMPDEST POP POP PUSH1 0x40 MLOAD PUSH4 0x4C788DE7 PUSH1 0xE1 SHL DUP2 MSTORE SWAP3 SWAP9 POP POP PUSH1 0x1 PUSH1 0x1 PUSH1 0xA0 SHL SUB DUP12 AND SWAP6 POP PUSH4 0x98F11BCE SWAP5 POP PUSH2 0x3BB5 SWAP4 POP DUP8 SWAP3 POP POP PUSH1 0x4 ADD PUSH2 0x5045 JUMP JUMPDEST PUSH1 0x20 PUSH1 0x40 MLOAD DUP1 DUP4 SUB DUP2 DUP7 DUP1 EXTCODESIZE ISZERO DUP1 ISZERO PUSH2 0x3BCD JUMPI PUSH1 0x0 DUP1 REVERT JUMPDEST POP GAS STATICCALL ISZERO DUP1 ISZERO PUSH2 0x3BE1 JUMPI RETURNDATASIZE PUSH1 0x0 DUP1 RETURNDATACOPY RETURNDATASIZE PUSH1 0x0 REVERT JUMPDEST POP POP POP POP PUSH1 0x40 MLOAD RETURNDATASIZE PUSH1 0x1F NOT PUSH1 0x1F DUP3 ADD AND DUP3 ADD DUP1 PUSH1 0x40 MSTORE POP DUP2 ADD SWAP1 PUSH2 0x3C05 SWAP2 SWAP1 PUSH2 0x4E10 JUMP JUMPDEST SWAP1 POP DUP1 PUSH2 0x3184 JUMPI PUSH1 0x40 MLOAD PUSH4 0x14F7EA99 PUSH1 0xE0 SHL DUP2 MSTORE PUSH1 0x1 PUSH1 0x1 PUSH1 0xA0 SHL SUB DUP7 AND SWAP1 PUSH4 0x14F7EA99 SWAP1 PUSH2 0x3C36 SWAP1 PUSH1 0x4 ADD PUSH2 0x5413 JUMP JUMPDEST PUSH1 0x20 PUSH1 0x40 MLOAD DUP1 DUP4 SUB DUP2 DUP7 DUP1 EXTCODESIZE ISZERO DUP1 ISZERO PUSH2 0x3C4E JUMPI PUSH1 0x0 DUP1 REVERT JUMPDEST POP GAS STATICCALL ISZERO DUP1 ISZERO PUSH2 0x3C62 JUMPI RETURNDATASIZE PUSH1 0x0 DUP1 RETURNDATACOPY RETURNDATASIZE PUSH1 0x0 REVERT JUMPDEST POP POP POP POP PUSH1 0x40 MLOAD RETURNDATASIZE PUSH1 0x1F NOT PUSH1 0x1F DUP3 ADD AND DUP3 ADD DUP1 PUSH1 0x40 MSTORE POP DUP2 ADD SWAP1 PUSH2 0x3C86 SWAP2 SWAP1 PUSH2 0x4E10 JUMP JUMPDEST SWAP6 SWAP5 POP POP POP POP POP JUMP JUMPDEST PUSH2 0x3C97 PUSH2 0x4AF3 JUMP JUMPDEST PUSH2 0x3A6A PUSH2 0x3CA3 DUP5 PUSH2 0x3A0C JUMP JUMPDEST DUP4 PUSH2 0x450F JUMP JUMPDEST PUSH1 0x0 PUSH2 0x3A6A DUP3 DUP5 PUSH2 0x5B33 JUMP JUMPDEST PUSH1 0x0 PUSH2 0x3A6A DUP3 DUP5 PUSH2 0x5AE8 JUMP JUMPDEST PUSH1 0x40 MLOAD PUSH4 0xE128C969 PUSH1 0xE0 SHL DUP2 MSTORE PUSH1 0x1 PUSH1 0x1 PUSH1 0xA0 SHL SUB DUP5 AND SWAP1 PUSH4 0xE128C969 SWAP1 PUSH2 0x3CEF SWAP1 DUP6 SWAP1 DUP6 SWAP1 PUSH1 0x4 ADD PUSH2 0x5021 JUMP JUMPDEST PUSH1 0x0 PUSH1 0x40 MLOAD DUP1 DUP4 SUB DUP2 PUSH1 0x0 DUP8 DUP1 EXTCODESIZE ISZERO DUP1 ISZERO PUSH2 0x3D09 JUMPI PUSH1 0x0 DUP1 REVERT JUMPDEST POP GAS CALL ISZERO DUP1 ISZERO PUSH2 0x3D1D JUMPI RETURNDATASIZE PUSH1 0x0 DUP1 RETURNDATACOPY RETURNDATASIZE PUSH1 0x0 REVERT JUMPDEST POP POP POP POP POP POP POP JUMP JUMPDEST PUSH2 0xF6D DUP4 PUSH4 0xA9059CBB PUSH1 0xE0 SHL DUP5 DUP5 PUSH1 0x40 MLOAD PUSH1 0x24 ADD PUSH2 0x3D45 SWAP3 SWAP2 SWAP1 PUSH2 0x5021 JUMP JUMPDEST PUSH1 0x40 DUP1 MLOAD PUSH1 0x1F NOT DUP2 DUP5 SUB ADD DUP2 MSTORE SWAP2 SWAP1 MSTORE PUSH1 0x20 DUP2 ADD DUP1 MLOAD PUSH1 0x1 PUSH1 0x1 PUSH1 0xE0 SHL SUB AND PUSH1 0x1 PUSH1 0x1 PUSH1 0xE0 SHL SUB NOT SWAP1 SWAP4 AND SWAP3 SWAP1 SWAP3 OR SWAP1 SWAP2 MSTORE PUSH2 0x45D1 JUMP JUMPDEST PUSH1 0x0 DUP1 PUSH1 0x0 DUP1 PUSH1 0x0 DUP1 PUSH1 0x0 DUP1 PUSH1 0x0 DUP1 DUP12 PUSH1 0x1 PUSH1 0x1 PUSH1 0xA0 SHL SUB AND PUSH4 0x339D50A5 DUP13 PUSH1 0x40 MLOAD DUP3 PUSH4 0xFFFFFFFF AND PUSH1 0xE0 SHL DUP2 MSTORE PUSH1 0x4 ADD PUSH2 0x3DB7 SWAP2 SWAP1 PUSH2 0x5045 JUMP JUMPDEST PUSH2 0x120 PUSH1 0x40 MLOAD DUP1 DUP4 SUB DUP2 DUP7 DUP1 EXTCODESIZE ISZERO DUP1 ISZERO PUSH2 0x3DD0 JUMPI PUSH1 0x0 DUP1 REVERT JUMPDEST POP GAS STATICCALL ISZERO DUP1 ISZERO PUSH2 0x3DE4 JUMPI RETURNDATASIZE PUSH1 0x0 DUP1 RETURNDATACOPY RETURNDATASIZE PUSH1 0x0 REVERT JUMPDEST POP POP POP POP PUSH1 0x40 MLOAD RETURNDATASIZE PUSH1 0x1F NOT PUSH1 0x1F DUP3 ADD AND DUP3 ADD DUP1 PUSH1 0x40 MSTORE POP DUP2 ADD SWAP1 PUSH2 0x3E08 SWAP2 SWAP1 PUSH2 0x4BBB JUMP JUMPDEST SWAP1 SWAP2 SWAP3 SWAP4 SWAP5 SWAP6 POP SWAP1 SWAP2 SWAP3 SWAP4 SWAP5 POP SWAP1 SWAP2 SWAP3 SWAP4 POP SWAP1 SWAP2 POP DUP1 SWAP9 POP DUP2 SWAP10 POP DUP3 SWAP6 POP DUP4 SWAP7 POP DUP5 SWAP8 POP POP POP POP POP POP DUP3 DUP3 DUP3 DUP8 DUP8 SWAP10 POP SWAP10 POP SWAP10 POP SWAP10 POP SWAP10 POP POP POP POP POP POP SWAP3 SWAP6 POP SWAP3 SWAP6 SWAP1 SWAP4 POP JUMP JUMPDEST PUSH1 0x40 MLOAD PUSH4 0xF7878C69 PUSH1 0xE0 SHL DUP2 MSTORE PUSH1 0x0 SWAP1 PUSH1 0x1 PUSH1 0x1 PUSH1 0xA0 SHL SUB DUP5 AND SWAP1 PUSH4 0xF7878C69 SWAP1 PUSH2 0x3E7E SWAP1 DUP6 SWAP1 PUSH1 0x4 ADD PUSH2 0x4F69 JUMP JUMPDEST PUSH1 0x20 PUSH1 0x40 MLOAD DUP1 DUP4 SUB DUP2 DUP7 DUP1 EXTCODESIZE ISZERO DUP1 ISZERO PUSH2 0x3E96 JUMPI PUSH1 0x0 DUP1 REVERT JUMPDEST POP GAS STATICCALL ISZERO DUP1 ISZERO PUSH2 0x3EAA JUMPI RETURNDATASIZE PUSH1 0x0 DUP1 RETURNDATACOPY RETURNDATASIZE PUSH1 0x0 REVERT JUMPDEST POP POP POP POP PUSH1 0x40 MLOAD RETURNDATASIZE PUSH1 0x1F NOT PUSH1 0x1F DUP3 ADD AND DUP3 ADD DUP1 PUSH1 0x40 MSTORE POP DUP2 ADD SWAP1 PUSH2 0x3A6A SWAP2 SWAP1 PUSH2 0x4D40 JUMP JUMPDEST PUSH2 0x3ED6 PUSH2 0x16B8 JUMP JUMPDEST ISZERO PUSH2 0x3EF3 JUMPI PUSH1 0x40 MLOAD PUSH3 0x461BCD PUSH1 0xE5 SHL DUP2 MSTORE PUSH1 0x4 ADD PUSH2 0xA27 SWAP1 PUSH2 0x5461 JUMP JUMPDEST PUSH1 0x97 DUP1 SLOAD PUSH1 0xFF NOT AND PUSH1 0x1 OR SWAP1 SSTORE PUSH32 0x62E78CEA01BEE320CD4E420270B5EA74000D11B0C9F74754EBDBFC544B05A258 PUSH2 0x3F29 PUSH2 0x3F93 JUMP JUMPDEST PUSH1 0x40 MLOAD PUSH2 0x3F36 SWAP2 SWAP1 PUSH2 0x4F69 JUMP JUMPDEST PUSH1 0x40 MLOAD DUP1 SWAP2 SUB SWAP1 LOG1 JUMP JUMPDEST PUSH2 0x3F48 PUSH2 0x16B8 JUMP JUMPDEST PUSH2 0x3F64 JUMPI PUSH1 0x40 MLOAD PUSH3 0x461BCD PUSH1 0xE5 SHL DUP2 MSTORE PUSH1 0x4 ADD PUSH2 0xA27 SWAP1 PUSH2 0x5177 JUMP JUMPDEST PUSH1 0x97 DUP1 SLOAD PUSH1 0xFF NOT AND SWAP1 SSTORE PUSH32 0x5DB9EE0A495BF2E6FF9C91A7834C1BA4FDD244A5E8AA4E537BD38AEAE4B073AA PUSH2 0x3F29 JUMPDEST CALLER SWAP1 JUMP JUMPDEST PUSH2 0x3FA1 DUP3 DUP3 PUSH2 0x21DA JUMP JUMPDEST PUSH2 0x1179 JUMPI PUSH2 0x3FB9 DUP2 PUSH1 0x1 PUSH1 0x1 PUSH1 0xA0 SHL SUB AND PUSH1 0x14 PUSH2 0x4660 JUMP JUMPDEST PUSH2 0x3FC4 DUP4 PUSH1 0x20 PUSH2 0x4660 JUMP JUMPDEST PUSH1 0x40 MLOAD PUSH1 0x20 ADD PUSH2 0x3FD5 SWAP3 SWAP2 SWAP1 PUSH2 0x4EFA JUMP JUMPDEST PUSH1 0x40 DUP1 MLOAD PUSH1 0x1F NOT DUP2 DUP5 SUB ADD DUP2 MSTORE SWAP1 DUP3 SWAP1 MSTORE PUSH3 0x461BCD PUSH1 0xE5 SHL DUP3 MSTORE PUSH2 0xA27 SWAP2 PUSH1 0x4 ADD PUSH2 0x509C JUMP JUMPDEST PUSH2 0x4005 DUP3 DUP3 PUSH2 0x21DA JUMP JUMPDEST PUSH2 0x1179 JUMPI PUSH1 0x0 DUP3 DUP2 MSTORE PUSH1 0x65 PUSH1 0x20 SWAP1 DUP2 MSTORE PUSH1 0x40 DUP1 DUP4 KECCAK256 PUSH1 0x1 PUSH1 0x1 PUSH1 0xA0 SHL SUB DUP6 AND DUP5 MSTORE SWAP1 SWAP2 MSTORE SWAP1 KECCAK256 DUP1 SLOAD PUSH1 0xFF NOT AND PUSH1 0x1 OR SWAP1 SSTORE PUSH2 0x403E PUSH2 0x3F93 JUMP JUMPDEST PUSH1 0x1 PUSH1 0x1 PUSH1 0xA0 SHL SUB AND DUP2 PUSH1 0x1 PUSH1 0x1 PUSH1 0xA0 SHL SUB AND DUP4 PUSH32 0x2F8788117E7EFF1D82E926EC794901D17C78024A50270940304540A733656F0D PUSH1 0x40 MLOAD PUSH1 0x40 MLOAD DUP1 SWAP2 SUB SWAP1 LOG4 POP POP JUMP JUMPDEST PUSH2 0x408C DUP3 DUP3 PUSH2 0x21DA JUMP JUMPDEST ISZERO PUSH2 0x1179 JUMPI PUSH1 0x0 DUP3 DUP2 MSTORE PUSH1 0x65 PUSH1 0x20 SWAP1 DUP2 MSTORE PUSH1 0x40 DUP1 DUP4 KECCAK256 PUSH1 0x1 PUSH1 0x1 PUSH1 0xA0 SHL SUB DUP6 AND DUP5 MSTORE SWAP1 SWAP2 MSTORE SWAP1 KECCAK256 DUP1 SLOAD PUSH1 0xFF NOT AND SWAP1 SSTORE PUSH2 0x40C3 PUSH2 0x3F93 JUMP JUMPDEST PUSH1 0x1 PUSH1 0x1 PUSH1 0xA0 SHL SUB AND DUP2 PUSH1 0x1 PUSH1 0x1 PUSH1 0xA0 SHL SUB AND DUP4 PUSH32 0xF6391F5C32D9C69D2A47EA670B442974B53935D1EDC7FD64EB21E047A839171B PUSH1 0x40 MLOAD PUSH1 0x40 MLOAD DUP1 SWAP2 SUB SWAP1 LOG4 POP POP JUMP JUMPDEST PUSH1 0x1 PUSH1 0x1 PUSH1 0xA0 SHL SUB DUP2 AND PUSH2 0x411A JUMPI PUSH1 0x0 DUP1 REVERT JUMPDEST PUSH1 0x1 PUSH1 0x1 PUSH1 0xA0 SHL SUB DUP3 AND PUSH1 0x0 SWAP1 DUP2 MSTORE PUSH2 0x113 PUSH1 0x20 MSTORE PUSH1 0x40 SWAP1 KECCAK256 SLOAD PUSH1 0xFF AND ISZERO PUSH2 0x4154 JUMPI PUSH1 0x40 MLOAD PUSH3 0x461BCD PUSH1 0xE5 SHL DUP2 MSTORE PUSH1 0x4 ADD PUSH2 0xA27 SWAP1 PUSH2 0x51A5 JUMP JUMPDEST PUSH1 0x1 PUSH1 0x1 PUSH1 0xA0 SHL SUB DUP3 AND PUSH1 0x0 SWAP1 DUP2 MSTORE PUSH2 0x111 PUSH1 0x20 MSTORE PUSH1 0x40 SWAP1 KECCAK256 SLOAD PUSH1 0xFF AND PUSH2 0x418D JUMPI PUSH1 0x40 MLOAD PUSH3 0x461BCD PUSH1 0xE5 SHL DUP2 MSTORE PUSH1 0x4 ADD PUSH2 0xA27 SWAP1 PUSH2 0x5774 JUMP JUMPDEST PUSH1 0x4 PUSH1 0xFB SLOAD PUSH2 0x100 SWAP1 DIV PUSH1 0xFF AND PUSH1 0x4 DUP2 GT ISZERO PUSH2 0x41B9 JUMPI PUSH4 0x4E487B71 PUSH1 0xE0 SHL PUSH1 0x0 MSTORE PUSH1 0x21 PUSH1 0x4 MSTORE PUSH1 0x24 PUSH1 0x0 REVERT JUMPDEST EQ ISZERO DUP1 ISZERO PUSH2 0x41F1 JUMPI POP PUSH1 0x2 PUSH1 0xFB SLOAD PUSH2 0x100 SWAP1 DIV PUSH1 0xFF AND PUSH1 0x4 DUP2 GT ISZERO PUSH2 0x41EE JUMPI PUSH4 0x4E487B71 PUSH1 0xE0 SHL PUSH1 0x0 MSTORE PUSH1 0x21 PUSH1 0x4 MSTORE PUSH1 0x24 PUSH1 0x0 REVERT JUMPDEST EQ ISZERO JUMPDEST DUP1 ISZERO PUSH2 0x4200 JUMPI POP PUSH1 0x1 PUSH2 0x101 SLOAD LT JUMPDEST ISZERO PUSH2 0x4271 JUMPI PUSH1 0x0 PUSH1 0xFB SLOAD PUSH2 0x100 SWAP1 DIV PUSH1 0xFF AND PUSH1 0x4 DUP2 GT ISZERO PUSH2 0x4231 JUMPI PUSH4 0x4E487B71 PUSH1 0xE0 SHL PUSH1 0x0 MSTORE PUSH1 0x21 PUSH1 0x4 MSTORE PUSH1 0x24 PUSH1 0x0 REVERT JUMPDEST EQ PUSH2 0x424E JUMPI PUSH1 0x40 MLOAD PUSH3 0x461BCD PUSH1 0xE5 SHL DUP2 MSTORE PUSH1 0x4 ADD PUSH2 0xA27 SWAP1 PUSH2 0x5200 JUMP JUMPDEST PUSH1 0x1 PUSH2 0x10E SLOAD LT PUSH2 0x4271 JUMPI PUSH1 0x40 MLOAD PUSH3 0x461BCD PUSH1 0xE5 SHL DUP2 MSTORE PUSH1 0x4 ADD PUSH2 0xA27 SWAP1 PUSH2 0x5860 JUMP JUMPDEST PUSH1 0x0 PUSH2 0x429F PUSH2 0x427F DUP5 PUSH2 0x30E0 JUMP JUMPDEST PUSH1 0x1 PUSH1 0x1 PUSH1 0xA0 SHL SUB DUP6 AND PUSH1 0x0 SWAP1 DUP2 MSTORE PUSH2 0x112 PUSH1 0x20 MSTORE PUSH1 0x40 SWAP1 KECCAK256 SLOAD SWAP1 PUSH2 0x3CA9 JUMP JUMPDEST SWAP1 POP PUSH1 0x4 PUSH1 0xFB SLOAD PUSH2 0x100 SWAP1 DIV PUSH1 0xFF AND PUSH1 0x4 DUP2 GT ISZERO PUSH2 0x42CD JUMPI PUSH4 0x4E487B71 PUSH1 0xE0 SHL PUSH1 0x0 MSTORE PUSH1 0x21 PUSH1 0x4 MSTORE PUSH1 0x24 PUSH1 0x0 REVERT JUMPDEST EQ ISZERO DUP1 ISZERO PUSH2 0x4305 JUMPI POP PUSH1 0x2 PUSH1 0xFB SLOAD PUSH2 0x100 SWAP1 DIV PUSH1 0xFF AND PUSH1 0x4 DUP2 GT ISZERO PUSH2 0x4302 JUMPI PUSH4 0x4E487B71 PUSH1 0xE0 SHL PUSH1 0x0 MSTORE PUSH1 0x21 PUSH1 0x4 MSTORE PUSH1 0x24 PUSH1 0x0 REVERT JUMPDEST EQ ISZERO JUMPDEST ISZERO PUSH2 0x4397 JUMPI PUSH1 0xFC SLOAD PUSH2 0x4320 SWAP1 PUSH1 0x1 PUSH1 0x1 PUSH1 0xA0 SHL SUB AND DUP5 PUSH2 0x4811 JUMP JUMPDEST PUSH2 0x108 SLOAD PUSH2 0x432E SWAP1 DUP3 PUSH2 0x3CA9 JUMP JUMPDEST PUSH2 0x108 SSTORE PUSH2 0x107 SLOAD PUSH2 0x4340 SWAP1 DUP3 PUSH2 0x3CA9 JUMP JUMPDEST PUSH2 0x107 SSTORE PUSH1 0x1 PUSH1 0x1 PUSH1 0xA0 SHL SUB DUP4 AND PUSH1 0x0 SWAP1 DUP2 MSTORE PUSH2 0x111 PUSH1 0x20 MSTORE PUSH1 0x40 SWAP1 KECCAK256 DUP1 SLOAD PUSH1 0xFF NOT AND SWAP1 SSTORE PUSH2 0x10A SLOAD PUSH2 0x4374 SWAP1 PUSH1 0x1 PUSH2 0x3CA9 JUMP JUMPDEST PUSH2 0x10A SSTORE PUSH1 0x1 PUSH1 0x1 PUSH1 0xA0 SHL SUB DUP4 AND PUSH1 0x0 SWAP1 DUP2 MSTORE PUSH2 0x112 PUSH1 0x20 MSTORE PUSH1 0x40 DUP2 KECCAK256 SSTORE PUSH2 0x43D6 JUMP JUMPDEST PUSH1 0x1 PUSH1 0x1 PUSH1 0xA0 SHL SUB DUP4 AND PUSH1 0x0 SWAP1 DUP2 MSTORE PUSH2 0x112 PUSH1 0x20 MSTORE PUSH1 0x40 SWAP1 KECCAK256 SLOAD PUSH2 0x43BB SWAP1 DUP3 PUSH2 0x3CA9 JUMP JUMPDEST PUSH1 0x1 PUSH1 0x1 PUSH1 0xA0 SHL SUB DUP5 AND PUSH1 0x0 SWAP1 DUP2 MSTORE PUSH2 0x112 PUSH1 0x20 MSTORE PUSH1 0x40 SWAP1 KECCAK256 SSTORE JUMPDEST PUSH1 0x1 PUSH1 0x1 PUSH1 0xA0 SHL SUB DUP1 DUP5 AND PUSH1 0x0 SWAP1 DUP2 MSTORE PUSH2 0x113 PUSH1 0x20 MSTORE PUSH1 0x40 SWAP1 KECCAK256 DUP1 SLOAD PUSH1 0xFF NOT AND PUSH1 0x1 OR SWAP1 SSTORE PUSH2 0x104 SLOAD PUSH2 0x440B SWAP2 AND DUP4 DUP4 PUSH2 0x3D26 JUMP JUMPDEST ADDRESS PUSH1 0x1 PUSH1 0x1 PUSH1 0xA0 SHL SUB AND PUSH32 0xC3667C052E3C8A2B050DC9C5FD98873BE15E93F9F935CE07B572CA8AB9342341 DUP3 DUP6 CALLER PUSH1 0x40 MLOAD PUSH2 0x1941 SWAP4 SWAP3 SWAP2 SWAP1 PUSH2 0x5A0B JUMP JUMPDEST PUSH2 0x1179 DUP3 DUP3 PUSH2 0x3FFB JUMP JUMPDEST PUSH1 0x40 MLOAD PUSH4 0x74DC32B9 PUSH1 0xE1 SHL DUP2 MSTORE PUSH1 0x1 PUSH1 0x1 PUSH1 0xA0 SHL SUB DUP5 AND SWAP1 PUSH4 0xE9B86572 SWAP1 PUSH2 0x3CEF SWAP1 DUP6 SWAP1 DUP6 SWAP1 PUSH1 0x4 ADD PUSH2 0x4FC0 JUMP JUMPDEST PUSH1 0x40 MLOAD PUSH4 0xE9709BF PUSH1 0xE4 SHL DUP2 MSTORE PUSH1 0x1 PUSH1 0x1 PUSH1 0xA0 SHL SUB DUP6 AND SWAP1 PUSH4 0xE9709BF0 SWAP1 PUSH2 0x44B0 SWAP1 DUP7 SWAP1 DUP7 SWAP1 DUP7 SWAP1 PUSH1 0x4 ADD PUSH2 0x5A49 JUMP JUMPDEST PUSH1 0x0 PUSH1 0x40 MLOAD DUP1 DUP4 SUB DUP2 PUSH1 0x0 DUP8 DUP1 EXTCODESIZE ISZERO DUP1 ISZERO PUSH2 0x44CA JUMPI PUSH1 0x0 DUP1 REVERT JUMPDEST POP GAS CALL ISZERO DUP1 ISZERO PUSH2 0x44DE JUMPI RETURNDATASIZE PUSH1 0x0 DUP1 RETURNDATACOPY RETURNDATASIZE PUSH1 0x0 REVERT JUMPDEST POP POP POP POP POP POP POP POP JUMP JUMPDEST PUSH2 0x4509 DUP5 PUSH4 0x23B872DD PUSH1 0xE0 SHL DUP6 DUP6 DUP6 PUSH1 0x40 MLOAD PUSH1 0x24 ADD PUSH2 0x3D45 SWAP4 SWAP3 SWAP2 SWAP1 PUSH2 0x4FFD JUMP JUMPDEST POP POP POP POP JUMP JUMPDEST PUSH2 0x4517 PUSH2 0x4AF3 JUMP JUMPDEST PUSH2 0x3A6A DUP4 PUSH2 0xAD4 DUP5 PUSH2 0x3A0C JUMP JUMPDEST DUP1 MLOAD PUSH1 0x0 SWAP1 DUP2 SWAP1 PUSH2 0x4536 SWAP1 DUP6 SWAP1 PUSH2 0x4873 JUMP JUMPDEST SWAP1 POP PUSH2 0x454D DUP2 PUSH8 0x6765C793FA10079D PUSH1 0x1B SHL PUSH2 0x48B8 JUMP JUMPDEST ISZERO PUSH2 0x4577 JUMPI PUSH2 0x4572 PUSH1 0x1 PUSH2 0x456C DUP4 PUSH8 0x6765C793FA10079D PUSH1 0x1B SHL PUSH2 0x48F5 JUMP JUMPDEST SWAP1 PUSH2 0x4934 JUMP JUMPDEST PUSH2 0x3184 JUMP JUMPDEST PUSH2 0x3184 DUP2 PUSH8 0x6765C793FA10079D PUSH1 0x1B SHL PUSH2 0x48F5 JUMP JUMPDEST DUP1 MLOAD PUSH1 0x0 SWAP1 PUSH2 0x3A6A SWAP1 PUSH2 0x45AA DUP6 PUSH8 0x6765C793FA10079D PUSH1 0x1B SHL PUSH2 0x4873 JUMP JUMPDEST SWAP1 PUSH2 0x48F5 JUMP JUMPDEST PUSH2 0x45B8 PUSH2 0x4AF3 JUMP JUMPDEST PUSH1 0x40 MLOAD DUP1 PUSH1 0x20 ADD PUSH1 0x40 MSTORE DUP1 PUSH2 0x3A47 DUP6 PUSH1 0x0 ADD MLOAD DUP6 PUSH2 0x4963 JUMP JUMPDEST PUSH1 0x0 PUSH2 0x4626 DUP3 PUSH1 0x40 MLOAD DUP1 PUSH1 0x40 ADD PUSH1 0x40 MSTORE DUP1 PUSH1 0x20 DUP2 MSTORE PUSH1 0x20 ADD PUSH32 0x5361666545524332303A206C6F772D6C6576656C2063616C6C206661696C6564 DUP2 MSTORE POP DUP6 PUSH1 0x1 PUSH1 0x1 PUSH1 0xA0 SHL SUB AND PUSH2 0x498B SWAP1 SWAP3 SWAP2 SWAP1 PUSH4 0xFFFFFFFF AND JUMP JUMPDEST DUP1 MLOAD SWAP1 SWAP2 POP ISZERO PUSH2 0xF6D JUMPI DUP1 DUP1 PUSH1 0x20 ADD SWAP1 MLOAD DUP2 ADD SWAP1 PUSH2 0x4644 SWAP2 SWAP1 PUSH2 0x4D40 JUMP JUMPDEST PUSH2 0xF6D JUMPI PUSH1 0x40 MLOAD PUSH3 0x461BCD PUSH1 0xE5 SHL DUP2 MSTORE PUSH1 0x4 ADD PUSH2 0xA27 SWAP1 PUSH2 0x58B0 JUMP JUMPDEST PUSH1 0x60 PUSH1 0x0 PUSH2 0x466F DUP4 PUSH1 0x2 PUSH2 0x5B14 JUMP JUMPDEST PUSH2 0x467A SWAP1 PUSH1 0x2 PUSH2 0x5AE8 JUMP JUMPDEST PUSH1 0x1 PUSH1 0x1 PUSH1 0x40 SHL SUB DUP2 GT ISZERO PUSH2 0x469F JUMPI PUSH4 0x4E487B71 PUSH1 0xE0 SHL PUSH1 0x0 MSTORE PUSH1 0x41 PUSH1 0x4 MSTORE PUSH1 0x24 PUSH1 0x0 REVERT JUMPDEST PUSH1 0x40 MLOAD SWAP1 DUP1 DUP3 MSTORE DUP1 PUSH1 0x1F ADD PUSH1 0x1F NOT AND PUSH1 0x20 ADD DUP3 ADD PUSH1 0x40 MSTORE DUP1 ISZERO PUSH2 0x46C9 JUMPI PUSH1 0x20 DUP3 ADD DUP2 DUP1 CALLDATASIZE DUP4 CALLDATACOPY ADD SWAP1 POP JUMPDEST POP SWAP1 POP PUSH1 0x3 PUSH1 0xFC SHL DUP2 PUSH1 0x0 DUP2 MLOAD DUP2 LT PUSH2 0x46F2 JUMPI PUSH4 0x4E487B71 PUSH1 0xE0 SHL PUSH1 0x0 MSTORE PUSH1 0x32 PUSH1 0x4 MSTORE PUSH1 0x24 PUSH1 0x0 REVERT JUMPDEST PUSH1 0x20 ADD ADD SWAP1 PUSH1 0x1 PUSH1 0x1 PUSH1 0xF8 SHL SUB NOT AND SWAP1 DUP2 PUSH1 0x0 BYTE SWAP1 MSTORE8 POP PUSH1 0xF PUSH1 0xFB SHL DUP2 PUSH1 0x1 DUP2 MLOAD DUP2 LT PUSH2 0x472F JUMPI PUSH4 0x4E487B71 PUSH1 0xE0 SHL PUSH1 0x0 MSTORE PUSH1 0x32 PUSH1 0x4 MSTORE PUSH1 0x24 PUSH1 0x0 REVERT JUMPDEST PUSH1 0x20 ADD ADD SWAP1 PUSH1 0x1 PUSH1 0x1 PUSH1 0xF8 SHL SUB NOT AND SWAP1 DUP2 PUSH1 0x0 BYTE SWAP1 MSTORE8 POP PUSH1 0x0 PUSH2 0x4753 DUP5 PUSH1 0x2 PUSH2 0x5B14 JUMP JUMPDEST PUSH2 0x475E SWAP1 PUSH1 0x1 PUSH2 0x5AE8 JUMP JUMPDEST SWAP1 POP JUMPDEST PUSH1 0x1 DUP2 GT ISZERO PUSH2 0x47F2 JUMPI PUSH16 0x181899199A1A9B1B9C1CB0B131B232B3 PUSH1 0x81 SHL DUP6 PUSH1 0xF AND PUSH1 0x10 DUP2 LT PUSH2 0x47A0 JUMPI PUSH4 0x4E487B71 PUSH1 0xE0 SHL PUSH1 0x0 MSTORE PUSH1 0x32 PUSH1 0x4 MSTORE PUSH1 0x24 PUSH1 0x0 REVERT JUMPDEST BYTE PUSH1 0xF8 SHL DUP3 DUP3 DUP2 MLOAD DUP2 LT PUSH2 0x47C4 JUMPI PUSH4 0x4E487B71 PUSH1 0xE0 SHL PUSH1 0x0 MSTORE PUSH1 0x32 PUSH1 0x4 MSTORE PUSH1 0x24 PUSH1 0x0 REVERT JUMPDEST PUSH1 0x20 ADD ADD SWAP1 PUSH1 0x1 PUSH1 0x1 PUSH1 0xF8 SHL SUB NOT AND SWAP1 DUP2 PUSH1 0x0 BYTE SWAP1 MSTORE8 POP PUSH1 0x4 SWAP5 SWAP1 SWAP5 SHR SWAP4 PUSH2 0x47EB DUP2 PUSH2 0x5B76 JUMP JUMPDEST SWAP1 POP PUSH2 0x4761 JUMP JUMPDEST POP DUP4 ISZERO PUSH2 0x3A6A JUMPI PUSH1 0x40 MLOAD PUSH3 0x461BCD PUSH1 0xE5 SHL DUP2 MSTORE PUSH1 0x4 ADD PUSH2 0xA27 SWAP1 PUSH2 0x50F3 JUMP JUMPDEST PUSH1 0x40 MLOAD PUSH4 0xEAF3057 PUSH1 0xE2 SHL DUP2 MSTORE PUSH1 0x1 PUSH1 0x1 PUSH1 0xA0 SHL SUB DUP4 AND SWAP1 PUSH4 0x3ABCC15C SWAP1 PUSH2 0x483D SWAP1 DUP5 SWAP1 PUSH1 0x4 ADD PUSH2 0x4F69 JUMP JUMPDEST PUSH1 0x0 PUSH1 0x40 MLOAD DUP1 DUP4 SUB DUP2 PUSH1 0x0 DUP8 DUP1 EXTCODESIZE ISZERO DUP1 ISZERO PUSH2 0x4857 JUMPI PUSH1 0x0 DUP1 REVERT JUMPDEST POP GAS CALL ISZERO DUP1 ISZERO PUSH2 0x486B JUMPI RETURNDATASIZE PUSH1 0x0 DUP1 RETURNDATACOPY RETURNDATASIZE PUSH1 0x0 REVERT JUMPDEST POP POP POP POP POP POP JUMP JUMPDEST PUSH1 0x0 DUP3 PUSH2 0x4882 JUMPI POP PUSH1 0x0 PUSH2 0x2201 JUMP JUMPDEST PUSH1 0x0 PUSH2 0x488E DUP4 DUP6 PUSH2 0x5B14 JUMP JUMPDEST SWAP1 POP DUP3 PUSH2 0x489B DUP6 DUP4 PUSH2 0x5B00 JUMP JUMPDEST EQ PUSH2 0x3A6A JUMPI PUSH1 0x40 MLOAD PUSH3 0x461BCD PUSH1 0xE5 SHL DUP2 MSTORE PUSH1 0x4 ADD PUSH2 0xA27 SWAP1 PUSH2 0x564E JUMP JUMPDEST PUSH1 0x0 PUSH2 0x3A6A DUP4 DUP4 PUSH1 0x40 MLOAD DUP1 PUSH1 0x40 ADD PUSH1 0x40 MSTORE DUP1 PUSH1 0x18 DUP2 MSTORE PUSH1 0x20 ADD PUSH24 0x536166654D6174683A206D6F64756C6F206279207A65726F PUSH1 0x40 SHL DUP2 MSTORE POP PUSH2 0x499A JUMP JUMPDEST PUSH1 0x0 PUSH2 0x3A6A DUP4 DUP4 PUSH1 0x40 MLOAD DUP1 PUSH1 0x40 ADD PUSH1 0x40 MSTORE DUP1 PUSH1 0x1A DUP2 MSTORE PUSH1 0x20 ADD PUSH26 0x536166654D6174683A206469766973696F6E206279207A65726F PUSH1 0x30 SHL DUP2 MSTORE POP PUSH2 0x49C6 JUMP JUMPDEST PUSH1 0x0 DUP1 PUSH2 0x4941 DUP4 DUP6 PUSH2 0x5AE8 JUMP JUMPDEST SWAP1 POP DUP4 DUP2 LT ISZERO PUSH2 0x3A6A JUMPI PUSH1 0x40 MLOAD PUSH3 0x461BCD PUSH1 0xE5 SHL DUP2 MSTORE PUSH1 0x4 ADD PUSH2 0xA27 SWAP1 PUSH2 0x528E JUMP JUMPDEST PUSH1 0x0 PUSH2 0x3A6A PUSH8 0x6765C793FA10079D PUSH1 0x1B SHL PUSH2 0x45AA DUP5 PUSH1 0x0 ADD MLOAD DUP7 PUSH2 0x4873 SWAP1 SWAP2 SWAP1 PUSH4 0xFFFFFFFF AND JUMP JUMPDEST PUSH1 0x60 PUSH2 0x3184 DUP5 DUP5 PUSH1 0x0 DUP6 PUSH2 0x49F4 JUMP JUMPDEST PUSH1 0x0 DUP2 DUP4 PUSH2 0x49BB JUMPI PUSH1 0x40 MLOAD PUSH3 0x461BCD PUSH1 0xE5 SHL DUP2 MSTORE PUSH1 0x4 ADD PUSH2 0xA27 SWAP2 SWAP1 PUSH2 0x509C JUMP JUMPDEST POP PUSH2 0x3184 DUP4 DUP6 PUSH2 0x5BA8 JUMP JUMPDEST PUSH1 0x0 DUP2 DUP4 PUSH2 0x49E7 JUMPI PUSH1 0x40 MLOAD PUSH3 0x461BCD PUSH1 0xE5 SHL DUP2 MSTORE PUSH1 0x4 ADD PUSH2 0xA27 SWAP2 SWAP1 PUSH2 0x509C JUMP JUMPDEST POP PUSH1 0x0 PUSH2 0x3C86 DUP5 DUP7 PUSH2 0x5B00 JUMP JUMPDEST PUSH1 0x60 DUP3 SELFBALANCE LT ISZERO PUSH2 0x4A16 JUMPI PUSH1 0x40 MLOAD PUSH3 0x461BCD PUSH1 0xE5 SHL DUP2 MSTORE PUSH1 0x4 ADD PUSH2 0xA27 SWAP1 PUSH2 0x53A5 JUMP JUMPDEST PUSH2 0x4A1F DUP6 PUSH2 0x4AB4 JUMP JUMPDEST PUSH2 0x4A3B JUMPI PUSH1 0x40 MLOAD PUSH3 0x461BCD PUSH1 0xE5 SHL DUP2 MSTORE PUSH1 0x4 ADD PUSH2 0xA27 SWAP1 PUSH2 0x57FF JUMP JUMPDEST PUSH1 0x0 DUP1 DUP7 PUSH1 0x1 PUSH1 0x1 PUSH1 0xA0 SHL SUB AND DUP6 DUP8 PUSH1 0x40 MLOAD PUSH2 0x4A57 SWAP2 SWAP1 PUSH2 0x4EDE JUMP JUMPDEST PUSH1 0x0 PUSH1 0x40 MLOAD DUP1 DUP4 SUB DUP2 DUP6 DUP8 GAS CALL SWAP3 POP POP POP RETURNDATASIZE DUP1 PUSH1 0x0 DUP2 EQ PUSH2 0x4A94 JUMPI PUSH1 0x40 MLOAD SWAP2 POP PUSH1 0x1F NOT PUSH1 0x3F RETURNDATASIZE ADD AND DUP3 ADD PUSH1 0x40 MSTORE RETURNDATASIZE DUP3 MSTORE RETURNDATASIZE PUSH1 0x0 PUSH1 0x20 DUP5 ADD RETURNDATACOPY PUSH2 0x4A99 JUMP JUMPDEST PUSH1 0x60 SWAP2 POP JUMPDEST POP SWAP2 POP SWAP2 POP PUSH2 0x4AA9 DUP3 DUP3 DUP7 PUSH2 0x4ABA JUMP JUMPDEST SWAP8 SWAP7 POP POP POP POP POP POP POP JUMP JUMPDEST EXTCODESIZE ISZERO ISZERO SWAP1 JUMP JUMPDEST PUSH1 0x60 DUP4 ISZERO PUSH2 0x4AC9 JUMPI POP DUP2 PUSH2 0x3A6A JUMP JUMPDEST DUP3 MLOAD ISZERO PUSH2 0x4AD9 JUMPI DUP3 MLOAD DUP1 DUP5 PUSH1 0x20 ADD REVERT JUMPDEST DUP2 PUSH1 0x40 MLOAD PUSH3 0x461BCD PUSH1 0xE5 SHL DUP2 MSTORE PUSH1 0x4 ADD PUSH2 0xA27 SWAP2 SWAP1 PUSH2 0x509C JUMP JUMPDEST PUSH1 0x40 MLOAD DUP1 PUSH1 0x20 ADD PUSH1 0x40 MSTORE DUP1 PUSH1 0x0 DUP2 MSTORE POP SWAP1 JUMP JUMPDEST DUP1 CALLDATALOAD PUSH1 0xFF DUP2 AND DUP2 EQ PUSH2 0x9CB JUMPI PUSH1 0x0 DUP1 REVERT JUMPDEST PUSH1 0x0 PUSH1 0x20 DUP3 DUP5 SUB SLT ISZERO PUSH2 0x4B28 JUMPI DUP1 DUP2 REVERT JUMPDEST DUP2 CALLDATALOAD PUSH2 0x3A6A DUP2 PUSH2 0x5BFE JUMP JUMPDEST PUSH1 0x0 PUSH1 0x20 DUP3 DUP5 SUB SLT ISZERO PUSH2 0x4B44 JUMPI DUP1 DUP2 REVERT JUMPDEST DUP2 MLOAD PUSH2 0x3A6A DUP2 PUSH2 0x5BFE JUMP JUMPDEST PUSH1 0x0 DUP1 PUSH1 0x0 PUSH1 0x60 DUP5 DUP7 SUB SLT ISZERO PUSH2 0x4B63 JUMPI DUP2 DUP3 REVERT JUMPDEST DUP4 CALLDATALOAD PUSH2 0x4B6E DUP2 PUSH2 0x5BFE JUMP JUMPDEST SWAP6 PUSH1 0x20 DUP6 ADD CALLDATALOAD SWAP6 POP PUSH1 0x40 SWAP1 SWAP5 ADD CALLDATALOAD SWAP4 SWAP3 POP POP POP JUMP JUMPDEST PUSH1 0x0 DUP1 PUSH1 0x40 DUP4 DUP6 SUB SLT ISZERO PUSH2 0x4B95 JUMPI DUP2 DUP3 REVERT JUMPDEST DUP3 CALLDATALOAD PUSH2 0x4BA0 DUP2 PUSH2 0x5BFE JUMP JUMPDEST SWAP2 POP PUSH1 0x20 DUP4 ADD CALLDATALOAD PUSH2 0x4BB0 DUP2 PUSH2 0x5BFE JUMP JUMPDEST DUP1 SWAP2 POP POP SWAP3 POP SWAP3 SWAP1 POP JUMP JUMPDEST PUSH1 0x0 DUP1 PUSH1 0x0 DUP1 PUSH1 0x0 DUP1 PUSH1 0x0 DUP1 PUSH1 0x0 PUSH2 0x120 DUP11 DUP13 SUB SLT ISZERO PUSH2 0x4BD9 JUMPI DUP5 DUP6 REVERT JUMPDEST DUP10 MLOAD PUSH2 0x4BE4 DUP2 PUSH2 0x5BFE JUMP JUMPDEST PUSH1 0x20 DUP12 ADD MLOAD SWAP1 SWAP10 POP PUSH2 0x4BF5 DUP2 PUSH2 0x5BFE JUMP JUMPDEST DUP1 SWAP9 POP POP PUSH1 0x40 DUP11 ADD MLOAD SWAP7 POP PUSH1 0x60 DUP11 ADD MLOAD SWAP6 POP PUSH1 0x80 DUP11 ADD MLOAD SWAP5 POP PUSH1 0xA0 DUP11 ADD MLOAD SWAP4 POP PUSH1 0xC0 DUP11 ADD MLOAD PUSH2 0x4C23 DUP2 PUSH2 0x5C13 JUMP JUMPDEST PUSH1 0xE0 DUP12 ADD MLOAD SWAP1 SWAP4 POP PUSH2 0x4C34 DUP2 PUSH2 0x5C13 JUMP JUMPDEST PUSH2 0x100 DUP12 ADD MLOAD SWAP1 SWAP3 POP PUSH2 0x4C46 DUP2 PUSH2 0x5C13 JUMP JUMPDEST DUP1 SWAP2 POP POP SWAP3 SWAP6 SWAP9 POP SWAP3 SWAP6 SWAP9 POP SWAP3 SWAP6 SWAP9 JUMP JUMPDEST PUSH1 0x0 DUP1 PUSH1 0x40 DUP4 DUP6 SUB SLT ISZERO PUSH2 0x4C69 JUMPI DUP2 DUP3 REVERT JUMPDEST DUP3 CALLDATALOAD PUSH2 0x4C74 DUP2 PUSH2 0x5BFE JUMP JUMPDEST SWAP5 PUSH1 0x20 SWAP4 SWAP1 SWAP4 ADD CALLDATALOAD SWAP4 POP POP POP JUMP JUMPDEST PUSH1 0x0 DUP1 PUSH1 0x0 PUSH1 0x60 DUP5 DUP7 SUB SLT ISZERO PUSH2 0x4C96 JUMPI DUP3 DUP4 REVERT JUMPDEST DUP4 CALLDATALOAD PUSH2 0x4CA1 DUP2 PUSH2 0x5BFE JUMP JUMPDEST SWAP3 POP PUSH1 0x20 DUP5 ADD CALLDATALOAD SWAP2 POP PUSH1 0x40 DUP5 ADD CALLDATALOAD PUSH2 0x4CB8 DUP2 PUSH2 0x5C13 JUMP JUMPDEST DUP1 SWAP2 POP POP SWAP3 POP SWAP3 POP SWAP3 JUMP JUMPDEST PUSH1 0x0 DUP1 PUSH1 0x0 DUP1 PUSH1 0x0 PUSH1 0xA0 DUP7 DUP9 SUB SLT ISZERO PUSH2 0x4CDA JUMPI DUP1 DUP2 REVERT JUMPDEST DUP6 MLOAD PUSH2 0x4CE5 DUP2 PUSH2 0x5BFE JUMP JUMPDEST DUP1 SWAP6 POP POP PUSH1 0x20 DUP7 ADD MLOAD SWAP4 POP PUSH1 0x40 DUP7 ADD MLOAD SWAP3 POP PUSH1 0x60 DUP7 ADD MLOAD PUSH2 0x4D05 DUP2 PUSH2 0x5C13 JUMP JUMPDEST PUSH1 0x80 DUP8 ADD MLOAD SWAP1 SWAP3 POP PUSH2 0x4D16 DUP2 PUSH2 0x5C13 JUMP JUMPDEST DUP1 SWAP2 POP POP SWAP3 SWAP6 POP SWAP3 SWAP6 SWAP1 SWAP4 POP JUMP JUMPDEST PUSH1 0x0 PUSH1 0x20 DUP3 DUP5 SUB SLT ISZERO PUSH2 0x4D35 JUMPI DUP1 DUP2 REVERT JUMPDEST DUP2 CALLDATALOAD PUSH2 0x3A6A DUP2 PUSH2 0x5C13 JUMP JUMPDEST PUSH1 0x0 PUSH1 0x20 DUP3 DUP5 SUB SLT ISZERO PUSH2 0x4D51 JUMPI DUP1 DUP2 REVERT JUMPDEST DUP2 MLOAD PUSH2 0x3A6A DUP2 PUSH2 0x5C13 JUMP JUMPDEST PUSH1 0x0 PUSH1 0x20 DUP3 DUP5 SUB SLT ISZERO PUSH2 0x4D6D JUMPI DUP1 DUP2 REVERT JUMPDEST POP CALLDATALOAD SWAP2 SWAP1 POP JUMP JUMPDEST PUSH1 0x0 DUP1 PUSH1 0x40 DUP4 DUP6 SUB SLT ISZERO PUSH2 0x4D86 JUMPI DUP2 DUP3 REVERT JUMPDEST DUP3 CALLDATALOAD SWAP2 POP PUSH1 0x20 DUP4 ADD CALLDATALOAD PUSH2 0x4BB0 DUP2 PUSH2 0x5BFE JUMP JUMPDEST PUSH1 0x0 PUSH1 0x20 DUP3 DUP5 SUB SLT ISZERO PUSH2 0x4DA9 JUMPI DUP1 DUP2 REVERT JUMPDEST DUP2 CALLDATALOAD PUSH1 0x1 PUSH1 0x1 PUSH1 0xE0 SHL SUB NOT DUP2 AND DUP2 EQ PUSH2 0x3A6A JUMPI DUP2 DUP3 REVERT JUMPDEST PUSH1 0x0 DUP1 PUSH1 0x0 DUP1 PUSH1 0x80 DUP6 DUP8 SUB SLT ISZERO PUSH2 0x4DD5 JUMPI DUP2 DUP3 REVERT JUMPDEST DUP5 CALLDATALOAD PUSH2 0x4DE0 DUP2 PUSH2 0x5BFE JUMP JUMPDEST SWAP4 POP PUSH1 0x20 DUP6 ADD CALLDATALOAD PUSH2 0x4DF0 DUP2 PUSH2 0x5BFE JUMP JUMPDEST SWAP3 POP PUSH1 0x40 DUP6 ADD CALLDATALOAD PUSH2 0x4E00 DUP2 PUSH2 0x5BFE JUMP JUMPDEST SWAP4 SWAP7 SWAP3 SWAP6 POP SWAP3 SWAP4 PUSH1 0x60 ADD CALLDATALOAD SWAP3 POP POP JUMP JUMPDEST PUSH1 0x0 PUSH1 0x20 DUP3 DUP5 SUB SLT ISZERO PUSH2 0x4E21 JUMPI DUP1 DUP2 REVERT JUMPDEST POP MLOAD SWAP2 SWAP1 POP JUMP JUMPDEST PUSH1 0x0 DUP1 PUSH1 0x0 DUP1 PUSH1 0x0 DUP1 PUSH1 0xC0 DUP8 DUP10 SUB SLT ISZERO PUSH2 0x4E40 JUMPI DUP4 DUP5 REVERT JUMPDEST DUP7 CALLDATALOAD SWAP6 POP PUSH1 0x20 DUP8 ADD CALLDATALOAD SWAP5 POP PUSH1 0x40 DUP8 ADD CALLDATALOAD SWAP4 POP PUSH1 0x60 DUP8 ADD CALLDATALOAD SWAP3 POP PUSH1 0x80 DUP8 ADD CALLDATALOAD PUSH2 0x4E67 DUP2 PUSH2 0x5BFE JUMP JUMPDEST SWAP2 POP PUSH1 0xA0 DUP8 ADD CALLDATALOAD PUSH2 0x4E77 DUP2 PUSH2 0x5C13 JUMP JUMPDEST DUP1 SWAP2 POP POP SWAP3 SWAP6 POP SWAP3 SWAP6 POP SWAP3 SWAP6 JUMP JUMPDEST PUSH1 0x0 DUP1 PUSH1 0x40 DUP4 DUP6 SUB SLT ISZERO PUSH2 0x4E97 JUMPI DUP2 DUP3 REVERT JUMPDEST DUP3 CALLDATALOAD SWAP2 POP PUSH2 0x4EA7 PUSH1 0x20 DUP5 ADD PUSH2 0x4B06 JUMP JUMPDEST SWAP1 POP SWAP3 POP SWAP3 SWAP1 POP JUMP JUMPDEST PUSH1 0x0 PUSH1 0x20 DUP3 DUP5 SUB SLT ISZERO PUSH2 0x4EC1 JUMPI DUP1 DUP2 REVERT JUMPDEST PUSH2 0x3A6A DUP3 PUSH2 0x4B06 JUMP JUMPDEST PUSH1 0x5 DUP2 LT PUSH2 0x4EDA JUMPI PUSH2 0x4EDA PUSH2 0x5BE8 JUMP JUMPDEST SWAP1 MSTORE JUMP JUMPDEST PUSH1 0x0 DUP3 MLOAD PUSH2 0x4EF0 DUP2 DUP5 PUSH1 0x20 DUP8 ADD PUSH2 0x5B4A JUMP JUMPDEST SWAP2 SWAP1 SWAP2 ADD SWAP3 SWAP2 POP POP JUMP JUMPDEST PUSH1 0x0 PUSH23 0x20B1B1B2B9B9A1B7B73A3937B61D1030B1B1B7BAB73A1 PUSH1 0x4D SHL DUP3 MSTORE DUP4 MLOAD PUSH2 0x4F2C DUP2 PUSH1 0x17 DUP6 ADD PUSH1 0x20 DUP9 ADD PUSH2 0x5B4A JUMP JUMPDEST PUSH17 0x1034B99036B4B9B9B4B733903937B6329 PUSH1 0x7D SHL PUSH1 0x17 SWAP2 DUP5 ADD SWAP2 DUP3 ADD MSTORE DUP4 MLOAD PUSH2 0x4F5D DUP2 PUSH1 0x28 DUP5 ADD PUSH1 0x20 DUP9 ADD PUSH2 0x5B4A JUMP JUMPDEST ADD PUSH1 0x28 ADD SWAP5 SWAP4 POP POP POP POP JUMP JUMPDEST PUSH1 0x1 PUSH1 0x1 PUSH1 0xA0 SHL SUB SWAP2 SWAP1 SWAP2 AND DUP2 MSTORE PUSH1 0x20 ADD SWAP1 JUMP JUMPDEST PUSH1 0x1 PUSH1 0x1 PUSH1 0xA0 SHL SUB SWAP9 SWAP1 SWAP9 AND DUP9 MSTORE SWAP6 ISZERO ISZERO PUSH1 0x20 DUP9 ADD MSTORE PUSH1 0x40 DUP8 ADD SWAP5 SWAP1 SWAP5 MSTORE PUSH1 0x60 DUP7 ADD SWAP3 SWAP1 SWAP3 MSTORE PUSH1 0x80 DUP6 ADD MSTORE PUSH1 0xA0 DUP5 ADD MSTORE PUSH1 0xC0 DUP4 ADD MSTORE ISZERO ISZERO PUSH1 0xE0 DUP3 ADD MSTORE PUSH2 0x100 ADD SWAP1 JUMP JUMPDEST PUSH1 0x1 PUSH1 0x1 PUSH1 0xA0 SHL SUB SWAP3 DUP4 AND DUP2 MSTORE SWAP2 AND PUSH1 0x20 DUP3 ADD MSTORE PUSH1 0x40 ADD SWAP1 JUMP JUMPDEST PUSH1 0x1 PUSH1 0x1 PUSH1 0xA0 SHL SUB SWAP4 DUP5 AND DUP2 MSTORE SWAP2 DUP4 AND PUSH1 0x20 DUP4 ADD MSTORE SWAP1 SWAP2 AND PUSH1 0x40 DUP3 ADD MSTORE PUSH1 0x60 ADD SWAP1 JUMP JUMPDEST PUSH1 0x1 PUSH1 0x1 PUSH1 0xA0 SHL SUB SWAP4 DUP5 AND DUP2 MSTORE SWAP2 SWAP1 SWAP3 AND PUSH1 0x20 DUP3 ADD MSTORE PUSH1 0x40 DUP2 ADD SWAP2 SWAP1 SWAP2 MSTORE PUSH1 0x60 ADD SWAP1 JUMP JUMPDEST PUSH1 0x1 PUSH1 0x1 PUSH1 0xA0 SHL SUB SWAP3 SWAP1 SWAP3 AND DUP3 MSTORE PUSH1 0x20 DUP3 ADD MSTORE PUSH1 0x40 ADD SWAP1 JUMP JUMPDEST SWAP1 ISZERO ISZERO DUP2 MSTORE PUSH1 0x20 ADD SWAP1 JUMP JUMPDEST SWAP1 DUP2 MSTORE PUSH1 0x20 ADD SWAP1 JUMP JUMPDEST PUSH1 0x20 DUP2 ADD PUSH2 0x2201 DUP3 DUP5 PUSH2 0x4ECA JUMP JUMPDEST PUSH1 0x40 DUP2 ADD PUSH2 0x506A DUP3 DUP6 PUSH2 0x4ECA JUMP JUMPDEST PUSH1 0x1 PUSH1 0x1 PUSH1 0xA0 SHL SUB SWAP3 SWAP1 SWAP3 AND PUSH1 0x20 SWAP2 SWAP1 SWAP2 ADD MSTORE SWAP2 SWAP1 POP JUMP JUMPDEST PUSH1 0x20 DUP2 ADD PUSH1 0x2 DUP4 LT PUSH2 0x5096 JUMPI PUSH2 0x5096 PUSH2 0x5BE8 JUMP JUMPDEST SWAP2 SWAP1 MSTORE SWAP1 JUMP JUMPDEST PUSH1 0x0 PUSH1 0x20 DUP3 MSTORE DUP3 MLOAD DUP1 PUSH1 0x20 DUP5 ADD MSTORE PUSH2 0x50BB DUP2 PUSH1 0x40 DUP6 ADD PUSH1 0x20 DUP8 ADD PUSH2 0x5B4A JUMP JUMPDEST PUSH1 0x1F ADD PUSH1 0x1F NOT AND SWAP2 SWAP1 SWAP2 ADD PUSH1 0x40 ADD SWAP3 SWAP2 POP POP JUMP JUMPDEST PUSH1 0x20 DUP1 DUP3 MSTORE PUSH1 0xA SWAP1 DUP3 ADD MSTORE PUSH10 0x1D5B9D995C9A599A5959 PUSH1 0xB2 SHL PUSH1 0x40 DUP3 ADD MSTORE PUSH1 0x60 ADD SWAP1 JUMP JUMPDEST PUSH1 0x20 DUP1 DUP3 MSTORE DUP2 DUP2 ADD MSTORE PUSH32 0x537472696E67733A20686578206C656E67746820696E73756666696369656E74 PUSH1 0x40 DUP3 ADD MSTORE PUSH1 0x60 ADD SWAP1 JUMP JUMPDEST PUSH1 0x20 DUP1 DUP3 MSTORE PUSH1 0xC SWAP1 DUP3 ADD MSTORE PUSH12 0x1D1A5B59481919599A58DA5D PUSH1 0xA2 SHL PUSH1 0x40 DUP3 ADD MSTORE PUSH1 0x60 ADD SWAP1 JUMP JUMPDEST PUSH1 0x20 DUP1 DUP3 MSTORE PUSH1 0xF SWAP1 DUP3 ADD MSTORE PUSH15 0x1C995C5D595CDD08195E1C1A5C9959 PUSH1 0x8A SHL PUSH1 0x40 DUP3 ADD MSTORE PUSH1 0x60 ADD SWAP1 JUMP JUMPDEST PUSH1 0x20 DUP1 DUP3 MSTORE PUSH1 0x14 SWAP1 DUP3 ADD MSTORE PUSH20 0x14185D5CD8589B194E881B9BDD081C185D5CD959 PUSH1 0x62 SHL PUSH1 0x40 DUP3 ADD MSTORE PUSH1 0x60 ADD SWAP1 JUMP JUMPDEST PUSH1 0x20 DUP1 DUP3 MSTORE PUSH1 0x11 SWAP1 DUP3 ADD MSTORE PUSH17 0x3130B630B731B2903BB4BA34323930BBB7 PUSH1 0x79 SHL PUSH1 0x40 DUP3 ADD MSTORE PUSH1 0x60 ADD SWAP1 JUMP JUMPDEST PUSH1 0x20 DUP1 DUP3 MSTORE PUSH1 0x16 SWAP1 DUP3 ADD MSTORE PUSH22 0x63616D706169676E2068617320617070726F76657273 PUSH1 0x50 SHL PUSH1 0x40 DUP3 ADD MSTORE PUSH1 0x60 ADD SWAP1 JUMP JUMPDEST PUSH1 0x20 DUP1 DUP3 MSTORE PUSH1 0x1D SWAP1 DUP3 ADD MSTORE PUSH32 0x6E6F206C6F6E67657220696E20636F6C6C656374696F6E207374616765000000 PUSH1 0x40 DUP3 ADD MSTORE PUSH1 0x60 ADD SWAP1 JUMP JUMPDEST PUSH1 0x20 DUP1 DUP3 MSTORE PUSH1 0x15 SWAP1 DUP3 ADD MSTORE PUSH21 0x6E6F2066696E616C697A6564207265717565737473 PUSH1 0x58 SHL PUSH1 0x40 DUP3 ADD MSTORE PUSH1 0x60 ADD SWAP1 JUMP JUMPDEST PUSH1 0x20 DUP1 DUP3 MSTORE PUSH1 0xE SWAP1 DUP3 ADD MSTORE PUSH14 0x1D185C99D95D081B9BDD081B595D PUSH1 0x92 SHL PUSH1 0x40 DUP3 ADD MSTORE PUSH1 0x60 ADD SWAP1 JUMP JUMPDEST PUSH1 0x20 DUP1 DUP3 MSTORE PUSH1 0x1B SWAP1 DUP3 ADD MSTORE PUSH27 0x536166654D6174683A206164646974696F6E206F766572666C6F77 PUSH1 0x28 SHL PUSH1 0x40 DUP3 ADD MSTORE PUSH1 0x60 ADD SWAP1 JUMP JUMPDEST PUSH1 0x20 DUP1 DUP3 MSTORE PUSH1 0x6 SWAP1 DUP3 ADD MSTORE PUSH6 0x1D9BDA591959 PUSH1 0xD2 SHL PUSH1 0x40 DUP3 ADD MSTORE PUSH1 0x60 ADD SWAP1 JUMP JUMPDEST PUSH1 0x20 DUP1 DUP3 MSTORE PUSH1 0x13 SWAP1 DUP3 ADD MSTORE PUSH19 0x1D5CD95C88191BD95CC81B9BDD08195E1A5CDD PUSH1 0x6A SHL PUSH1 0x40 DUP3 ADD MSTORE PUSH1 0x60 ADD SWAP1 JUMP JUMPDEST PUSH1 0x20 DUP1 DUP3 MSTORE PUSH1 0xD SWAP1 DUP3 ADD MSTORE PUSH13 0x76616C756520746F6F206C6F77 PUSH1 0x98 SHL PUSH1 0x40 DUP3 ADD MSTORE PUSH1 0x60 ADD SWAP1 JUMP JUMPDEST PUSH1 0x20 DUP1 DUP3 MSTORE PUSH1 0xA SWAP1 DUP3 ADD MSTORE PUSH10 0x37B7363C9030B236B4B7 PUSH1 0xB1 SHL PUSH1 0x40 DUP3 ADD MSTORE PUSH1 0x60 ADD SWAP1 JUMP JUMPDEST PUSH1 0x20 DUP1 DUP3 MSTORE PUSH1 0xC SWAP1 DUP3 ADD MSTORE PUSH12 0x6F6E6C7920666163746F7279 PUSH1 0xA0 SHL PUSH1 0x40 DUP3 ADD MSTORE PUSH1 0x60 ADD SWAP1 JUMP JUMPDEST PUSH1 0x20 DUP1 DUP3 MSTORE PUSH1 0xA SWAP1 DUP3 ADD MSTORE PUSH10 0x3937B7BA1037BBB732B9 PUSH1 0xB1 SHL PUSH1 0x40 DUP3 ADD MSTORE PUSH1 0x60 ADD SWAP1 JUMP JUMPDEST PUSH1 0x20 DUP1 DUP3 MSTORE PUSH1 0x26 SWAP1 DUP3 ADD MSTORE PUSH32 0x416464726573733A20696E73756666696369656E742062616C616E636520666F PUSH1 0x40 DUP3 ADD MSTORE PUSH6 0x1C8818D85B1B PUSH1 0xD2 SHL PUSH1 0x60 DUP3 ADD MSTORE PUSH1 0x80 ADD SWAP1 JUMP JUMPDEST PUSH1 0x20 DUP1 DUP3 MSTORE PUSH1 0xE SWAP1 DUP3 ADD MSTORE PUSH14 0x195E18D959591CC81D185C99D95D PUSH1 0x92 SHL PUSH1 0x40 DUP3 ADD MSTORE PUSH1 0x60 ADD SWAP1 JUMP JUMPDEST PUSH1 0x20 DUP1 DUP3 MSTORE PUSH1 0x11 SWAP1 DUP3 ADD MSTORE PUSH17 0x3232B330BAB63A21B7B6B6B4B9B9B4B7B7 PUSH1 0x79 SHL PUSH1 0x40 DUP3 ADD MSTORE PUSH1 0x60 ADD SWAP1 JUMP JUMPDEST PUSH1 0x20 DUP1 DUP3 MSTORE PUSH1 0x9 SWAP1 DUP3 ADD MSTORE PUSH9 0x199A5B985B1A5E9959 PUSH1 0xBA SHL PUSH1 0x40 DUP3 ADD MSTORE PUSH1 0x60 ADD SWAP1 JUMP JUMPDEST PUSH1 0x20 DUP1 DUP3 MSTORE PUSH1 0x10 SWAP1 DUP3 ADD MSTORE PUSH16 0x14185D5CD8589B194E881C185D5CD959 PUSH1 0x82 SHL PUSH1 0x40 DUP3 ADD MSTORE PUSH1 0x60 ADD SWAP1 JUMP JUMPDEST PUSH1 0x20 DUP1 DUP3 MSTORE PUSH1 0xA SWAP1 DUP3 ADD MSTORE PUSH10 0x1D9BDD1948199A5C9CDD PUSH1 0xB2 SHL PUSH1 0x40 DUP3 ADD MSTORE PUSH1 0x60 ADD SWAP1 JUMP JUMPDEST PUSH1 0x20 DUP1 DUP3 MSTORE PUSH1 0x14 SWAP1 DUP3 ADD MSTORE PUSH20 0x191958591B1A5B99481B9BDD08195E1C1A5C9959 PUSH1 0x62 SHL PUSH1 0x40 DUP3 ADD MSTORE PUSH1 0x60 ADD SWAP1 JUMP JUMPDEST PUSH1 0x20 DUP1 DUP3 MSTORE PUSH1 0xE SWAP1 DUP3 ADD MSTORE PUSH14 0xECC2D8EACA40E8DEDE40D0D2CED PUSH1 0x93 SHL PUSH1 0x40 DUP3 ADD MSTORE PUSH1 0x60 ADD SWAP1 JUMP JUMPDEST PUSH1 0x20 DUP1 DUP3 MSTORE PUSH1 0xD SWAP1 DUP3 ADD MSTORE PUSH13 0x68617320617070726F76616C73 PUSH1 0x98 SHL PUSH1 0x40 DUP3 ADD MSTORE PUSH1 0x60 ADD SWAP1 JUMP JUMPDEST PUSH1 0x20 DUP1 DUP3 MSTORE PUSH1 0x2E SWAP1 DUP3 ADD MSTORE PUSH32 0x496E697469616C697A61626C653A20636F6E747261637420697320616C726561 PUSH1 0x40 DUP3 ADD MSTORE PUSH14 0x191E481A5B9A5D1A585B1A5E9959 PUSH1 0x92 SHL PUSH1 0x60 DUP3 ADD MSTORE PUSH1 0x80 ADD SWAP1 JUMP JUMPDEST PUSH1 0x20 DUP1 DUP3 MSTORE PUSH1 0x11 SWAP1 DUP3 ADD MSTORE PUSH17 0x65786861757374656420737472696B6573 PUSH1 0x78 SHL PUSH1 0x40 DUP3 ADD MSTORE PUSH1 0x60 ADD SWAP1 JUMP JUMPDEST PUSH1 0x20 DUP1 DUP3 MSTORE PUSH1 0x1A SWAP1 DUP3 ADD MSTORE PUSH26 0x616D6F756E7420686967686572207468616E2062616C616E6365 PUSH1 0x30 SHL PUSH1 0x40 DUP3 ADD MSTORE PUSH1 0x60 ADD SWAP1 JUMP JUMPDEST PUSH1 0x20 DUP1 DUP3 MSTORE PUSH1 0xD SWAP1 DUP3 ADD MSTORE PUSH13 0x6E6F7420696E20726576696577 PUSH1 0x98 SHL PUSH1 0x40 DUP3 ADD MSTORE PUSH1 0x60 ADD SWAP1 JUMP JUMPDEST PUSH1 0x20 DUP1 DUP3 MSTORE PUSH1 0xB SWAP1 DUP3 ADD MSTORE PUSH11 0x6E6F74206F6E676F696E67 PUSH1 0xA8 SHL PUSH1 0x40 DUP3 ADD MSTORE PUSH1 0x60 ADD SWAP1 JUMP JUMPDEST PUSH1 0x20 DUP1 DUP3 MSTORE PUSH1 0xF SWAP1 DUP3 ADD MSTORE PUSH15 0x72657175657374206F6E676F696E67 PUSH1 0x88 SHL PUSH1 0x40 DUP3 ADD MSTORE PUSH1 0x60 ADD SWAP1 JUMP JUMPDEST PUSH1 0x20 DUP1 DUP3 MSTORE PUSH1 0x21 SWAP1 DUP3 ADD MSTORE PUSH32 0x536166654D6174683A206D756C7469706C69636174696F6E206F766572666C6F PUSH1 0x40 DUP3 ADD MSTORE PUSH1 0x77 PUSH1 0xF8 SHL PUSH1 0x60 DUP3 ADD MSTORE PUSH1 0x80 ADD SWAP1 JUMP JUMPDEST PUSH1 0x20 DUP1 DUP3 MSTORE PUSH1 0xD SWAP1 DUP3 ADD MSTORE PUSH13 0x34B73B30B634B2103A37B5B2B7 PUSH1 0x99 SHL PUSH1 0x40 DUP3 ADD MSTORE PUSH1 0x60 ADD SWAP1 JUMP JUMPDEST PUSH1 0x20 DUP1 DUP3 MSTORE PUSH1 0x5 SWAP1 DUP3 ADD MSTORE PUSH5 0x1D9BDD1959 PUSH1 0xDA SHL PUSH1 0x40 DUP3 ADD MSTORE PUSH1 0x60 ADD SWAP1 JUMP JUMPDEST PUSH1 0x20 DUP1 DUP3 MSTORE PUSH1 0xE SWAP1 DUP3 ADD MSTORE PUSH14 0x185B5BDD5B9D081919599A58DA5D PUSH1 0x92 SHL PUSH1 0x40 DUP3 ADD MSTORE PUSH1 0x60 ADD SWAP1 JUMP JUMPDEST PUSH1 0x20 DUP1 DUP3 MSTORE PUSH1 0xB SWAP1 DUP3 ADD MSTORE PUSH11 0x6E6F207265717565737473 PUSH1 0xA8 SHL PUSH1 0x40 DUP3 ADD MSTORE PUSH1 0x60 ADD SWAP1 JUMP JUMPDEST PUSH1 0x20 DUP1 DUP3 MSTORE PUSH1 0x10 SWAP1 DUP3 ADD MSTORE PUSH16 0x185C1C1C9BDD985B081919599A58DA5D PUSH1 0x82 SHL PUSH1 0x40 DUP3 ADD MSTORE PUSH1 0x60 ADD SWAP1 JUMP JUMPDEST PUSH1 0x20 DUP1 DUP3 MSTORE PUSH1 0xE SWAP1 DUP3 ADD MSTORE PUSH14 0x1D185C99D95D081919599A58DA5D PUSH1 0x92 SHL PUSH1 0x40 DUP3 ADD MSTORE PUSH1 0x60 ADD SWAP1 JUMP JUMPDEST PUSH1 0x20 DUP1 DUP3 MSTORE PUSH1 0xC SWAP1 DUP3 ADD MSTORE PUSH12 0x3737B71030B8383937BB32B9 PUSH1 0xA1 SHL PUSH1 0x40 DUP3 ADD MSTORE PUSH1 0x60 ADD SWAP1 JUMP JUMPDEST PUSH1 0x20 DUP1 DUP3 MSTORE PUSH1 0x14 SWAP1 DUP3 ADD MSTORE PUSH20 0x18DBDB9D1C9A589D5D1A5BDB881919599A58DA5D PUSH1 0x62 SHL PUSH1 0x40 DUP3 ADD MSTORE PUSH1 0x60 ADD SWAP1 JUMP JUMPDEST PUSH1 0x20 DUP1 DUP3 MSTORE PUSH1 0x1F SWAP1 DUP3 ADD MSTORE PUSH32 0x6E6F7420696E20636F6C6C656374696F6E206F72206C69766520737461746500 PUSH1 0x40 DUP3 ADD MSTORE PUSH1 0x60 ADD SWAP1 JUMP JUMPDEST PUSH1 0x20 DUP1 DUP3 MSTORE PUSH1 0x1D SWAP1 DUP3 ADD MSTORE PUSH32 0x416464726573733A2063616C6C20746F206E6F6E2D636F6E7472616374000000 PUSH1 0x40 DUP3 ADD MSTORE PUSH1 0x60 ADD SWAP1 JUMP JUMPDEST PUSH1 0x20 DUP1 DUP3 MSTORE PUSH1 0x10 SWAP1 DUP3 ADD MSTORE PUSH16 0x191958591B1A5B9948195E1C1A5C9959 PUSH1 0x82 SHL PUSH1 0x40 DUP3 ADD MSTORE PUSH1 0x60 ADD SWAP1 JUMP JUMPDEST PUSH1 0x20 DUP1 DUP3 MSTORE PUSH1 0x14 SWAP1 DUP3 ADD MSTORE PUSH20 0x1C995C5D595CDD0A1CCA48199A5B985B1A5E9959 PUSH1 0x62 SHL PUSH1 0x40 DUP3 ADD MSTORE PUSH1 0x60 ADD SWAP1 JUMP JUMPDEST PUSH1 0x20 DUP1 DUP3 MSTORE PUSH1 0x8 SWAP1 DUP3 ADD MSTORE PUSH8 0x1C995D9A595DD959 PUSH1 0xC2 SHL PUSH1 0x40 DUP3 ADD MSTORE PUSH1 0x60 ADD SWAP1 JUMP JUMPDEST PUSH1 0x20 DUP1 DUP3 MSTORE PUSH1 0x2A SWAP1 DUP3 ADD MSTORE PUSH32 0x5361666545524332303A204552433230206F7065726174696F6E20646964206E PUSH1 0x40 DUP3 ADD MSTORE PUSH10 0x1BDD081CDD58D8D95959 PUSH1 0xB2 SHL PUSH1 0x60 DUP3 ADD MSTORE PUSH1 0x80 ADD SWAP1 JUMP JUMPDEST PUSH1 0x20 DUP1 DUP3 MSTORE PUSH1 0x8 SWAP1 DUP3 ADD MSTORE PUSH8 0x1C995C1BDC9D1959 PUSH1 0xC2 SHL PUSH1 0x40 DUP3 ADD MSTORE PUSH1 0x60 ADD SWAP1 JUMP JUMPDEST PUSH1 0x20 DUP1 DUP3 MSTORE PUSH1 0x1F SWAP1 DUP3 ADD MSTORE PUSH32 0x5265656E7472616E637947756172643A207265656E7472616E742063616C6C00 PUSH1 0x40 DUP3 ADD MSTORE PUSH1 0x60 ADD SWAP1 JUMP JUMPDEST PUSH1 0x20 DUP1 DUP3 MSTORE PUSH1 0xE SWAP1 DUP3 ADD MSTORE PUSH14 0x1C995D9A595DC81919599A58DA5D PUSH1 0x92 SHL PUSH1 0x40 DUP3 ADD MSTORE PUSH1 0x60 ADD SWAP1 JUMP JUMPDEST PUSH1 0x20 DUP1 DUP3 MSTORE PUSH1 0x10 SWAP1 DUP3 ADD MSTORE PUSH16 0x191D5C985D1A5BDB881919599A58DA5D PUSH1 0x82 SHL PUSH1 0x40 DUP3 ADD MSTORE PUSH1 0x60 ADD SWAP1 JUMP JUMPDEST PUSH1 0x20 DUP1 DUP3 MSTORE PUSH1 0x2F SWAP1 DUP3 ADD MSTORE PUSH32 0x416363657373436F6E74726F6C3A2063616E206F6E6C792072656E6F756E6365 PUSH1 0x40 DUP3 ADD MSTORE PUSH15 0x103937B632B9903337B91039B2B633 PUSH1 0x89 SHL PUSH1 0x60 DUP3 ADD MSTORE PUSH1 0x80 ADD SWAP1 JUMP JUMPDEST SWAP2 DUP3 MSTORE PUSH1 0x1 PUSH1 0x1 PUSH1 0xA0 SHL SUB AND PUSH1 0x20 DUP3 ADD MSTORE PUSH1 0x40 ADD SWAP1 JUMP JUMPDEST SWAP3 DUP4 MSTORE PUSH1 0x1 PUSH1 0x1 PUSH1 0xA0 SHL SUB SWAP2 DUP3 AND PUSH1 0x20 DUP5 ADD MSTORE AND PUSH1 0x40 DUP3 ADD MSTORE PUSH1 0x60 ADD SWAP1 JUMP JUMPDEST SWAP3 DUP4 MSTORE SWAP1 ISZERO ISZERO PUSH1 0x20 DUP4 ADD MSTORE PUSH1 0x1 PUSH1 0x1 PUSH1 0xA0 SHL SUB AND PUSH1 0x40 DUP3 ADD MSTORE PUSH1 0x60 ADD SWAP1 JUMP JUMPDEST SWAP3 DUP4 MSTORE PUSH1 0x20 DUP4 ADD SWAP2 SWAP1 SWAP2 MSTORE PUSH1 0x1 PUSH1 0x1 PUSH1 0xA0 SHL SUB AND PUSH1 0x40 DUP3 ADD MSTORE PUSH1 0x60 ADD SWAP1 JUMP JUMPDEST SWAP4 DUP5 MSTORE PUSH1 0x20 DUP5 ADD SWAP3 SWAP1 SWAP3 MSTORE PUSH1 0x1 PUSH1 0x1 PUSH1 0xA0 SHL SUB SWAP1 DUP2 AND PUSH1 0x40 DUP5 ADD MSTORE AND PUSH1 0x60 DUP3 ADD MSTORE PUSH1 0x80 ADD SWAP1 JUMP JUMPDEST SWAP5 DUP6 MSTORE PUSH1 0x20 DUP6 ADD SWAP4 SWAP1 SWAP4 MSTORE PUSH1 0x40 DUP5 ADD SWAP2 SWAP1 SWAP2 MSTORE PUSH1 0x1 PUSH1 0x1 PUSH1 0xA0 SHL SUB SWAP1 DUP2 AND PUSH1 0x60 DUP5 ADD MSTORE AND PUSH1 0x80 DUP3 ADD MSTORE PUSH1 0xA0 ADD SWAP1 JUMP JUMPDEST PUSH1 0xFF SWAP2 SWAP1 SWAP2 AND DUP2 MSTORE PUSH1 0x20 ADD SWAP1 JUMP JUMPDEST PUSH1 0xFF SWAP3 SWAP1 SWAP3 AND DUP3 MSTORE PUSH1 0x1 PUSH1 0x1 PUSH1 0xA0 SHL SUB AND PUSH1 0x20 DUP3 ADD MSTORE PUSH1 0x40 ADD SWAP1 JUMP JUMPDEST PUSH1 0x0 DUP3 NOT DUP3 GT ISZERO PUSH2 0x5AFB JUMPI PUSH2 0x5AFB PUSH2 0x5BBC JUMP JUMPDEST POP ADD SWAP1 JUMP JUMPDEST PUSH1 0x0 DUP3 PUSH2 0x5B0F JUMPI PUSH2 0x5B0F PUSH2 0x5BD2 JUMP JUMPDEST POP DIV SWAP1 JUMP JUMPDEST PUSH1 0x0 DUP2 PUSH1 0x0 NOT DIV DUP4 GT DUP3 ISZERO ISZERO AND ISZERO PUSH2 0x5B2E JUMPI PUSH2 0x5B2E PUSH2 0x5BBC JUMP JUMPDEST POP MUL SWAP1 JUMP JUMPDEST PUSH1 0x0 DUP3 DUP3 LT ISZERO PUSH2 0x5B45 JUMPI PUSH2 0x5B45 PUSH2 0x5BBC JUMP JUMPDEST POP SUB SWAP1 JUMP JUMPDEST PUSH1 0x0 JUMPDEST DUP4 DUP2 LT ISZERO PUSH2 0x5B65 JUMPI DUP2 DUP2 ADD MLOAD DUP4 DUP3 ADD MSTORE PUSH1 0x20 ADD PUSH2 0x5B4D JUMP JUMPDEST DUP4 DUP2 GT ISZERO PUSH2 0x4509 JUMPI POP POP PUSH1 0x0 SWAP2 ADD MSTORE JUMP JUMPDEST PUSH1 0x0 DUP2 PUSH2 0x5B85 JUMPI PUSH2 0x5B85 PUSH2 0x5BBC JUMP JUMPDEST POP PUSH1 0x0 NOT ADD SWAP1 JUMP JUMPDEST PUSH1 0x0 PUSH1 0x0 NOT DUP3 EQ ISZERO PUSH2 0x5BA1 JUMPI PUSH2 0x5BA1 PUSH2 0x5BBC JUMP JUMPDEST POP PUSH1 0x1 ADD SWAP1 JUMP JUMPDEST PUSH1 0x0 DUP3 PUSH2 0x5BB7 JUMPI PUSH2 0x5BB7 PUSH2 0x5BD2 JUMP JUMPDEST POP MOD SWAP1 JUMP JUMPDEST PUSH4 0x4E487B71 PUSH1 0xE0 SHL PUSH1 0x0 MSTORE PUSH1 0x11 PUSH1 0x4 MSTORE PUSH1 0x24 PUSH1 0x0 REVERT JUMPDEST PUSH4 0x4E487B71 PUSH1 0xE0 SHL PUSH1 0x0 MSTORE PUSH1 0x12 PUSH1 0x4 MSTORE PUSH1 0x24 PUSH1 0x0 REVERT JUMPDEST PUSH4 0x4E487B71 PUSH1 0xE0 SHL PUSH1 0x0 MSTORE PUSH1 0x21 PUSH1 0x4 MSTORE PUSH1 0x24 PUSH1 0x0 REVERT JUMPDEST PUSH1 0x1 PUSH1 0x1 PUSH1 0xA0 SHL SUB DUP2 AND DUP2 EQ PUSH2 0xE86 JUMPI PUSH1 0x0 DUP1 REVERT JUMPDEST DUP1 ISZERO ISZERO DUP2 EQ PUSH2 0xE86 JUMPI PUSH1 0x0 DUP1 REVERT INVALID 0xED 0xD1 0x2F ADDRESS DUP10 PUSH10 0x69D8A3BDE82810A795AE 0xDD 0xAD 0xC9 0x23 PUSH11 0x165E3C9833988BFF36C5E1 LOG2 PUSH5 0x6970667358 0x22 SLT KECCAK256 PUSH31 0xB1EB8B3C240B8A9DC4BC69CCED18AEDA99EC0134CEA5D7DE7C438C6D5A15B7 PUSH5 0x736F6C6343 STOP ADDMOD STOP STOP CALLER "
		},
		"gasEstimates": {
			"creation": {
				"codeDepositCost": "4734200",
				"executionCost": "5560",
				"totalCost": "4739760"
			},
			"external": {
				"DEFAULT_ADMIN_ROLE()": "1130",
				"__Campaign_init(address,address,address,uint256)": "infinite",
				"acceptedToken()": "1466",
				"addRole(address,bytes32)": "infinite",
				"allowContributionAfterTargetIsMet()": "2377",
				"approvers(address)": "1280",
				"approversCount()": "1688",
				"campaignBalance()": "1402",
				"campaignFactoryContract()": "1697",
				"campaignID()": "1446",
				"campaignState()": "2403",
				"cancelVote(uint256)": "infinite",
				"contribute(address,uint256,bool)": "infinite",
				"createRequest(address,uint256,uint256)": "infinite",
				"currentRunningRequest()": "2062",
				"deadline()": "1182",
				"deadlineSetTimes()": "1468",
				"extendDeadline(uint256)": "infinite",
				"finalizeRequest(uint256)": "infinite",
				"finalizedRequestCount()": "1138",
				"getRoleAdmin(bytes32)": "1309",
				"goalType()": "1918",
				"grantRole(bytes32,address)": "infinite",
				"hasRole(bytes32,address)": "2179",
				"hasVoted(uint256,address)": "1713",
				"markCampaignComplete()": "infinite",
				"minimumContribution()": "1842",
				"pauseCampaign()": "infinite",
				"paused()": "1546",
				"removeRole(address,bytes32)": "infinite",
				"renounceAdmin()": "infinite",
				"renounceRole(bytes32,address)": "infinite",
				"reportCampaign()": "infinite",
				"reportCount()": "1094",
				"reported(address)": "1566",
				"requestCount()": "1512",
				"requestSupport(uint256,address)": "1653",
				"requests(uint256)": "7774",
				"reviewCampaignPerformance()": "infinite",
				"reviewCount()": "2282",
				"reviewMode()": "infinite",
				"reviewed(address)": "1830",
				"revokeRole(bytes32,address)": "infinite",
				"root()": "2258",
				"setCampaignSettings(uint256,uint256,uint256,uint256,address,bool)": "infinite",
				"setCampaignState(uint256)": "infinite",
				"setDeadlineSetTimes(uint8)": "infinite",
				"supportsInterface(bytes4)": "474",
				"target()": "2106",
				"toggleWithdrawalState(bool)": "infinite",
				"totalCampaignContribution()": "1798",
				"transferCampaignOwnership(address)": "infinite",
				"transferCampaignUserData(address,address)": "infinite",
				"unpauseCampaign()": "infinite",
				"userContributionLoss(address)": "infinite",
				"userContributionWithdrawn(address)": "2182",
				"userTotalContribution(address)": "2368",
				"voidRequest(uint256)": "infinite",
				"voteOnRequest(uint256,uint8)": "infinite",
				"withdrawContributionForUser(address,address)": "infinite",
				"withdrawOwnContribution(address)": "infinite",
				"withdrawalsPaused()": "2223"
			},
			"internal": {
				"_withdrawContribution(address,address)": "infinite"
			}
		},
		"methodIdentifiers": {
			"DEFAULT_ADMIN_ROLE()": "a217fddf",
			"__Campaign_init(address,address,address,uint256)": "83bcbc4b",
			"acceptedToken()": "451c3d80",
			"addRole(address,bytes32)": "a73f7f8a",
			"allowContributionAfterTargetIsMet()": "fc7a96a0",
			"approvers(address)": "0a144391",
			"approversCount()": "82fde093",
			"campaignBalance()": "43a1a776",
			"campaignFactoryContract()": "7e0f9dd1",
			"campaignID()": "49ed2fa9",
			"campaignState()": "f4c9b1fd",
			"cancelVote(uint256)": "bacbe2da",
			"contribute(address,uint256,bool)": "94a91de8",
			"createRequest(address,uint256,uint256)": "f3f08015",
			"currentRunningRequest()": "d2411d19",
			"deadline()": "29dcb0cf",
			"deadlineSetTimes()": "57414c37",
			"extendDeadline(uint256)": "389b7533",
			"finalizeRequest(uint256)": "03441006",
			"finalizedRequestCount()": "1f93da25",
			"getRoleAdmin(bytes32)": "248a9ca3",
			"goalType()": "95cbd157",
			"grantRole(bytes32,address)": "2f2ff15d",
			"hasRole(bytes32,address)": "91d14854",
			"hasVoted(uint256,address)": "43859632",
			"markCampaignComplete()": "ebf52409",
			"minimumContribution()": "937e09b1",
			"pauseCampaign()": "0d10f3b5",
			"paused()": "5c975abb",
			"removeRole(address,bytes32)": "6853920e",
			"renounceAdmin()": "8bad0c0a",
			"renounceRole(bytes32,address)": "36568abe",
			"reportCampaign()": "6c0ddc12",
			"reportCount()": "185c6f84",
			"reported(address)": "3eaa91f5",
			"requestCount()": "5badbe4c",
			"requestSupport(uint256,address)": "38c21911",
			"requests(uint256)": "81d12c58",
			"reviewCampaignPerformance()": "d2a8f6a4",
			"reviewCount()": "eff5924f",
			"reviewMode()": "34d71e17",
			"reviewed(address)": "714bf908",
			"revokeRole(bytes32,address)": "d547741f",
			"root()": "ebf0c717",
			"setCampaignSettings(uint256,uint256,uint256,uint256,address,bool)": "b3035efa",
			"setCampaignState(uint256)": "36cb9588",
			"setDeadlineSetTimes(uint8)": "5a4a7939",
			"supportsInterface(bytes4)": "01ffc9a7",
			"target()": "d4b83992",
			"toggleWithdrawalState(bool)": "883c46f0",
			"totalCampaignContribution()": "8ef9af72",
			"transferCampaignOwnership(address)": "98407647",
			"transferCampaignUserData(address,address)": "88a31541",
			"unpauseCampaign()": "1c8e541b",
			"userContributionLoss(address)": "d75c3cb7",
			"userContributionWithdrawn(address)": "a32d6469",
			"userTotalContribution(address)": "d753ca7c",
			"voidRequest(uint256)": "a364008a",
			"voteOnRequest(uint256,uint8)": "7178f036",
			"withdrawContributionForUser(address,address)": "43519c48",
			"withdrawOwnContribution(address)": "efbb53c9",
			"withdrawalsPaused()": "e9f2838e"
		}
	},
	"abi": [
		{
			"anonymous": false,
			"inputs": [
				{
					"indexed": true,
					"internalType": "contract Campaign",
					"name": "campaign",
					"type": "address"
				},
				{
					"indexed": false,
					"internalType": "uint256",
					"name": "time",
					"type": "uint256"
				},
				{
					"indexed": false,
					"internalType": "address",
					"name": "sender",
					"type": "address"
				}
			],
			"name": "CampaignDeadlineExtended",
			"type": "event"
		},
		{
			"anonymous": false,
			"inputs": [
				{
					"indexed": true,
					"internalType": "contract Campaign",
					"name": "campaign",
					"type": "address"
				},
				{
					"indexed": false,
					"internalType": "address",
					"name": "user",
					"type": "address"
				},
				{
					"indexed": false,
					"internalType": "address",
					"name": "sender",
					"type": "address"
				}
			],
			"name": "CampaignOwnerSet",
			"type": "event"
		},
		{
			"anonymous": false,
			"inputs": [
				{
					"indexed": true,
					"internalType": "contract Campaign",
					"name": "campaign",
					"type": "address"
				},
				{
					"indexed": false,
					"internalType": "address",
					"name": "newUser",
					"type": "address"
				},
				{
					"indexed": false,
					"internalType": "address",
					"name": "sender",
					"type": "address"
				}
			],
			"name": "CampaignOwnershipTransferred",
			"type": "event"
		},
		{
			"anonymous": false,
			"inputs": [
				{
					"indexed": true,
					"internalType": "contract Campaign",
					"name": "campaign",
					"type": "address"
				},
				{
					"indexed": false,
					"internalType": "address",
					"name": "sender",
					"type": "address"
				}
			],
			"name": "CampaignReported",
			"type": "event"
		},
		{
			"anonymous": false,
			"inputs": [
				{
					"indexed": true,
					"internalType": "contract Campaign",
					"name": "campaign",
					"type": "address"
				},
				{
					"indexed": false,
					"internalType": "address",
					"name": "sender",
					"type": "address"
				}
			],
			"name": "CampaignReviewed",
			"type": "event"
		},
		{
			"anonymous": false,
			"inputs": [
				{
					"indexed": true,
					"internalType": "contract Campaign",
					"name": "campaign",
					"type": "address"
				},
				{
					"indexed": false,
					"internalType": "uint256",
					"name": "minimumContribution",
					"type": "uint256"
				},
				{
					"indexed": false,
					"internalType": "uint256",
					"name": "deadline",
					"type": "uint256"
				},
				{
					"indexed": false,
					"internalType": "uint256",
					"name": "goalType",
					"type": "uint256"
				},
				{
					"indexed": false,
					"internalType": "address",
					"name": "token",
					"type": "address"
				},
				{
					"indexed": false,
					"internalType": "address",
					"name": "sender",
					"type": "address"
				}
			],
			"name": "CampaignSettingsUpdated",
			"type": "event"
		},
		{
			"anonymous": false,
			"inputs": [
				{
					"indexed": true,
					"internalType": "contract Campaign",
					"name": "campaign",
					"type": "address"
				},
				{
					"indexed": false,
					"internalType": "enum Campaign.CAMPAIGN_STATE",
					"name": "state",
					"type": "uint8"
				},
				{
					"indexed": false,
					"internalType": "address",
					"name": "sender",
					"type": "address"
				}
			],
			"name": "CampaignStateChange",
			"type": "event"
		},
		{
			"anonymous": false,
			"inputs": [
				{
					"indexed": true,
					"internalType": "contract Campaign",
					"name": "campaign",
					"type": "address"
				},
				{
					"indexed": false,
					"internalType": "address",
					"name": "oldAddress",
					"type": "address"
				},
				{
					"indexed": false,
					"internalType": "address",
					"name": "newAddress",
					"type": "address"
				},
				{
					"indexed": false,
					"internalType": "address",
					"name": "sender",
					"type": "address"
				}
			],
			"name": "CampaignUserDataTransferred",
			"type": "event"
		},
		{
			"anonymous": false,
			"inputs": [
				{
					"indexed": true,
					"internalType": "contract Campaign",
					"name": "campaign",
					"type": "address"
				},
				{
					"indexed": false,
					"internalType": "uint256",
					"name": "amount",
					"type": "uint256"
				},
				{
					"indexed": true,
					"internalType": "uint256",
					"name": "rewardId",
					"type": "uint256"
				},
				{
					"indexed": false,
					"internalType": "bool",
					"name": "withReward",
					"type": "bool"
				},
				{
					"indexed": false,
					"internalType": "address",
					"name": "sender",
					"type": "address"
				}
			],
			"name": "ContributionMade",
			"type": "event"
		},
		{
			"anonymous": false,
			"inputs": [
				{
					"indexed": true,
					"internalType": "contract Campaign",
					"name": "campaign",
					"type": "address"
				},
				{
					"indexed": false,
					"internalType": "uint256",
					"name": "amount",
					"type": "uint256"
				},
				{
					"indexed": false,
					"internalType": "address",
					"name": "user",
					"type": "address"
				},
				{
					"indexed": false,
					"internalType": "address",
					"name": "sender",
					"type": "address"
				}
			],
			"name": "ContributionWithdrawn",
			"type": "event"
		},
		{
			"anonymous": false,
			"inputs": [
				{
					"indexed": false,
					"internalType": "address",
					"name": "account",
					"type": "address"
				}
			],
			"name": "Paused",
			"type": "event"
		},
		{
			"anonymous": false,
			"inputs": [
				{
					"indexed": true,
					"internalType": "uint256",
					"name": "requestId",
					"type": "uint256"
				},
				{
					"indexed": true,
					"internalType": "contract Campaign",
					"name": "campaign",
					"type": "address"
				},
				{
					"indexed": false,
					"internalType": "uint256",
					"name": "duration",
					"type": "uint256"
				},
				{
					"indexed": false,
					"internalType": "uint256",
					"name": "value",
					"type": "uint256"
				},
				{
					"indexed": false,
					"internalType": "address",
					"name": "recipient",
					"type": "address"
				},
				{
					"indexed": false,
					"internalType": "address",
					"name": "sender",
					"type": "address"
				}
			],
			"name": "RequestAdded",
			"type": "event"
		},
		{
			"anonymous": false,
			"inputs": [
				{
					"indexed": true,
					"internalType": "uint256",
					"name": "requestId",
					"type": "uint256"
				},
				{
					"indexed": true,
					"internalType": "contract Campaign",
					"name": "campaign",
					"type": "address"
				},
				{
					"indexed": false,
					"internalType": "address",
					"name": "sender",
					"type": "address"
				}
			],
			"name": "RequestComplete",
			"type": "event"
		},
		{
			"anonymous": false,
			"inputs": [
				{
					"indexed": true,
					"internalType": "uint256",
					"name": "requestId",
					"type": "uint256"
				},
				{
					"indexed": true,
					"internalType": "contract Campaign",
					"name": "campaign",
					"type": "address"
				},
				{
					"indexed": false,
					"internalType": "address",
					"name": "sender",
					"type": "address"
				}
			],
			"name": "RequestVoided",
			"type": "event"
		},
		{
			"anonymous": false,
			"inputs": [
				{
					"indexed": true,
					"internalType": "bytes32",
					"name": "role",
					"type": "bytes32"
				},
				{
					"indexed": true,
					"internalType": "bytes32",
					"name": "previousAdminRole",
					"type": "bytes32"
				},
				{
					"indexed": true,
					"internalType": "bytes32",
					"name": "newAdminRole",
					"type": "bytes32"
				}
			],
			"name": "RoleAdminChanged",
			"type": "event"
		},
		{
			"anonymous": false,
			"inputs": [
				{
					"indexed": true,
					"internalType": "bytes32",
					"name": "role",
					"type": "bytes32"
				},
				{
					"indexed": true,
					"internalType": "address",
					"name": "account",
					"type": "address"
				},
				{
					"indexed": true,
					"internalType": "address",
					"name": "sender",
					"type": "address"
				}
			],
			"name": "RoleGranted",
			"type": "event"
		},
		{
			"anonymous": false,
			"inputs": [
				{
					"indexed": true,
					"internalType": "bytes32",
					"name": "role",
					"type": "bytes32"
				},
				{
					"indexed": true,
					"internalType": "address",
					"name": "account",
					"type": "address"
				},
				{
					"indexed": true,
					"internalType": "address",
					"name": "sender",
					"type": "address"
				}
			],
			"name": "RoleRevoked",
			"type": "event"
		},
		{
			"anonymous": false,
			"inputs": [
				{
					"indexed": true,
					"internalType": "contract Campaign",
					"name": "campaign",
					"type": "address"
				},
				{
					"indexed": false,
					"internalType": "uint256",
					"name": "amount",
					"type": "uint256"
				},
				{
					"indexed": false,
					"internalType": "address",
					"name": "sender",
					"type": "address"
				}
			],
			"name": "TargetMet",
			"type": "event"
		},
		{
			"anonymous": false,
			"inputs": [
				{
					"indexed": false,
					"internalType": "address",
					"name": "account",
					"type": "address"
				}
			],
			"name": "Unpaused",
			"type": "event"
		},
		{
			"anonymous": false,
			"inputs": [
				{
					"indexed": true,
					"internalType": "uint256",
					"name": "requestId",
					"type": "uint256"
				},
				{
					"indexed": false,
					"internalType": "uint8",
					"name": "support",
					"type": "uint8"
				},
				{
					"indexed": true,
					"internalType": "contract Campaign",
					"name": "campaign",
					"type": "address"
				},
				{
					"indexed": false,
					"internalType": "address",
					"name": "sender",
					"type": "address"
				}
			],
			"name": "VoteCancelled",
			"type": "event"
		},
		{
			"anonymous": false,
			"inputs": [
				{
					"indexed": true,
					"internalType": "uint256",
					"name": "requestId",
					"type": "uint256"
				},
				{
					"indexed": false,
					"internalType": "uint8",
					"name": "support",
					"type": "uint8"
				},
				{
					"indexed": true,
					"internalType": "contract Campaign",
					"name": "campaign",
					"type": "address"
				},
				{
					"indexed": false,
					"internalType": "address",
					"name": "sender",
					"type": "address"
				}
			],
			"name": "Voted",
			"type": "event"
		},
		{
			"inputs": [],
			"name": "DEFAULT_ADMIN_ROLE",
			"outputs": [
				{
					"internalType": "bytes32",
					"name": "",
					"type": "bytes32"
				}
			],
			"stateMutability": "view",
			"type": "function"
		},
		{
			"inputs": [
				{
					"internalType": "contract CampaignFactory",
					"name": "_campaignFactory",
					"type": "address"
				},
				{
					"internalType": "contract CampaignRewards",
					"name": "_camaignRewards",
					"type": "address"
				},
				{
					"internalType": "address",
					"name": "_root",
					"type": "address"
				},
				{
					"internalType": "uint256",
					"name": "_campaignId",
					"type": "uint256"
				}
			],
			"name": "__Campaign_init",
			"outputs": [],
			"stateMutability": "nonpayable",
			"type": "function"
		},
		{
			"inputs": [],
			"name": "acceptedToken",
			"outputs": [
				{
					"internalType": "address",
					"name": "",
					"type": "address"
				}
			],
			"stateMutability": "view",
			"type": "function"
		},
		{
			"inputs": [
				{
					"internalType": "address",
					"name": "_account",
					"type": "address"
				},
				{
					"internalType": "bytes32",
					"name": "_role",
					"type": "bytes32"
				}
			],
			"name": "addRole",
			"outputs": [],
			"stateMutability": "nonpayable",
			"type": "function"
		},
		{
			"inputs": [],
			"name": "allowContributionAfterTargetIsMet",
			"outputs": [
				{
					"internalType": "bool",
					"name": "",
					"type": "bool"
				}
			],
			"stateMutability": "view",
			"type": "function"
		},
		{
			"inputs": [
				{
					"internalType": "address",
					"name": "",
					"type": "address"
				}
			],
			"name": "approvers",
			"outputs": [
				{
					"internalType": "bool",
					"name": "",
					"type": "bool"
				}
			],
			"stateMutability": "view",
			"type": "function"
		},
		{
			"inputs": [],
			"name": "approversCount",
			"outputs": [
				{
					"internalType": "uint256",
					"name": "",
					"type": "uint256"
				}
			],
			"stateMutability": "view",
			"type": "function"
		},
		{
			"inputs": [],
			"name": "campaignBalance",
			"outputs": [
				{
					"internalType": "uint256",
					"name": "",
					"type": "uint256"
				}
			],
			"stateMutability": "view",
			"type": "function"
		},
		{
			"inputs": [],
			"name": "campaignFactoryContract",
			"outputs": [
				{
					"internalType": "contract CampaignFactoryInterface",
					"name": "",
					"type": "address"
				}
			],
			"stateMutability": "view",
			"type": "function"
		},
		{
			"inputs": [],
			"name": "campaignID",
			"outputs": [
				{
					"internalType": "uint256",
					"name": "",
					"type": "uint256"
				}
			],
			"stateMutability": "view",
			"type": "function"
		},
		{
			"inputs": [],
			"name": "campaignState",
			"outputs": [
				{
					"internalType": "enum Campaign.CAMPAIGN_STATE",
					"name": "",
					"type": "uint8"
				}
			],
			"stateMutability": "view",
			"type": "function"
		},
		{
			"inputs": [
				{
					"internalType": "uint256",
					"name": "_requestId",
					"type": "uint256"
				}
			],
			"name": "cancelVote",
			"outputs": [],
			"stateMutability": "nonpayable",
			"type": "function"
		},
		{
			"inputs": [
				{
					"internalType": "address",
					"name": "_token",
					"type": "address"
				},
				{
					"internalType": "uint256",
					"name": "_rewardId",
					"type": "uint256"
				},
				{
					"internalType": "bool",
					"name": "_withReward",
					"type": "bool"
				}
			],
			"name": "contribute",
			"outputs": [],
			"stateMutability": "payable",
			"type": "function"
		},
		{
			"inputs": [
				{
					"internalType": "address payable",
					"name": "_recipient",
					"type": "address"
				},
				{
					"internalType": "uint256",
					"name": "_value",
					"type": "uint256"
				},
				{
					"internalType": "uint256",
					"name": "_duration",
					"type": "uint256"
				}
			],
			"name": "createRequest",
			"outputs": [],
			"stateMutability": "nonpayable",
			"type": "function"
		},
		{
			"inputs": [],
			"name": "currentRunningRequest",
			"outputs": [
				{
					"internalType": "uint256",
					"name": "",
					"type": "uint256"
				}
			],
			"stateMutability": "view",
			"type": "function"
		},
		{
			"inputs": [],
			"name": "deadline",
			"outputs": [
				{
					"internalType": "uint256",
					"name": "",
					"type": "uint256"
				}
			],
			"stateMutability": "view",
			"type": "function"
		},
		{
			"inputs": [],
			"name": "deadlineSetTimes",
			"outputs": [
				{
					"internalType": "uint256",
					"name": "",
					"type": "uint256"
				}
			],
			"stateMutability": "view",
			"type": "function"
		},
		{
			"inputs": [
				{
					"internalType": "uint256",
					"name": "_time",
					"type": "uint256"
				}
			],
			"name": "extendDeadline",
			"outputs": [],
			"stateMutability": "nonpayable",
			"type": "function"
		},
		{
			"inputs": [
				{
					"internalType": "uint256",
					"name": "_requestId",
					"type": "uint256"
				}
			],
			"name": "finalizeRequest",
			"outputs": [],
			"stateMutability": "nonpayable",
			"type": "function"
		},
		{
			"inputs": [],
			"name": "finalizedRequestCount",
			"outputs": [
				{
					"internalType": "uint256",
					"name": "",
					"type": "uint256"
				}
			],
			"stateMutability": "view",
			"type": "function"
		},
		{
			"inputs": [
				{
					"internalType": "bytes32",
					"name": "role",
					"type": "bytes32"
				}
			],
			"name": "getRoleAdmin",
			"outputs": [
				{
					"internalType": "bytes32",
					"name": "",
					"type": "bytes32"
				}
			],
			"stateMutability": "view",
			"type": "function"
		},
		{
			"inputs": [],
			"name": "goalType",
			"outputs": [
				{
					"internalType": "enum Campaign.GOALTYPE",
					"name": "",
					"type": "uint8"
				}
			],
			"stateMutability": "view",
			"type": "function"
		},
		{
			"inputs": [
				{
					"internalType": "bytes32",
					"name": "role",
					"type": "bytes32"
				},
				{
					"internalType": "address",
					"name": "account",
					"type": "address"
				}
			],
			"name": "grantRole",
			"outputs": [],
			"stateMutability": "nonpayable",
			"type": "function"
		},
		{
			"inputs": [
				{
					"internalType": "bytes32",
					"name": "role",
					"type": "bytes32"
				},
				{
					"internalType": "address",
					"name": "account",
					"type": "address"
				}
			],
			"name": "hasRole",
			"outputs": [
				{
					"internalType": "bool",
					"name": "",
					"type": "bool"
				}
			],
			"stateMutability": "view",
			"type": "function"
		},
		{
			"inputs": [
				{
					"internalType": "uint256",
					"name": "",
					"type": "uint256"
				},
				{
					"internalType": "address",
					"name": "",
					"type": "address"
				}
			],
			"name": "hasVoted",
			"outputs": [
				{
					"internalType": "bool",
					"name": "",
					"type": "bool"
				}
			],
			"stateMutability": "view",
			"type": "function"
		},
		{
			"inputs": [],
			"name": "markCampaignComplete",
			"outputs": [],
			"stateMutability": "nonpayable",
			"type": "function"
		},
		{
			"inputs": [],
			"name": "minimumContribution",
			"outputs": [
				{
					"internalType": "uint256",
					"name": "",
					"type": "uint256"
				}
			],
			"stateMutability": "view",
			"type": "function"
		},
		{
			"inputs": [],
			"name": "pauseCampaign",
			"outputs": [],
			"stateMutability": "nonpayable",
			"type": "function"
		},
		{
			"inputs": [],
			"name": "paused",
			"outputs": [
				{
					"internalType": "bool",
					"name": "",
					"type": "bool"
				}
			],
			"stateMutability": "view",
			"type": "function"
		},
		{
			"inputs": [
				{
					"internalType": "address",
					"name": "_account",
					"type": "address"
				},
				{
					"internalType": "bytes32",
					"name": "_role",
					"type": "bytes32"
				}
			],
			"name": "removeRole",
			"outputs": [],
			"stateMutability": "nonpayable",
			"type": "function"
		},
		{
			"inputs": [],
			"name": "renounceAdmin",
			"outputs": [],
			"stateMutability": "nonpayable",
			"type": "function"
		},
		{
			"inputs": [
				{
					"internalType": "bytes32",
					"name": "role",
					"type": "bytes32"
				},
				{
					"internalType": "address",
					"name": "account",
					"type": "address"
				}
			],
			"name": "renounceRole",
			"outputs": [],
			"stateMutability": "nonpayable",
			"type": "function"
		},
		{
			"inputs": [],
			"name": "reportCampaign",
			"outputs": [],
			"stateMutability": "nonpayable",
			"type": "function"
		},
		{
			"inputs": [],
			"name": "reportCount",
			"outputs": [
				{
					"internalType": "uint256",
					"name": "",
					"type": "uint256"
				}
			],
			"stateMutability": "view",
			"type": "function"
		},
		{
			"inputs": [
				{
					"internalType": "address",
					"name": "",
					"type": "address"
				}
			],
			"name": "reported",
			"outputs": [
				{
					"internalType": "bool",
					"name": "",
					"type": "bool"
				}
			],
			"stateMutability": "view",
			"type": "function"
		},
		{
			"inputs": [],
			"name": "requestCount",
			"outputs": [
				{
					"internalType": "uint256",
					"name": "",
					"type": "uint256"
				}
			],
			"stateMutability": "view",
			"type": "function"
		},
		{
			"inputs": [
				{
					"internalType": "uint256",
					"name": "",
					"type": "uint256"
				},
				{
					"internalType": "address",
					"name": "",
					"type": "address"
				}
			],
			"name": "requestSupport",
			"outputs": [
				{
					"internalType": "uint8",
					"name": "",
					"type": "uint8"
				}
			],
			"stateMutability": "view",
			"type": "function"
		},
		{
			"inputs": [
				{
					"internalType": "uint256",
					"name": "",
					"type": "uint256"
				}
			],
			"name": "requests",
			"outputs": [
				{
					"internalType": "address payable",
					"name": "recipient",
					"type": "address"
				},
				{
					"internalType": "bool",
					"name": "complete",
					"type": "bool"
				},
				{
					"internalType": "uint256",
					"name": "value",
					"type": "uint256"
				},
				{
					"internalType": "uint256",
					"name": "approvalCount",
					"type": "uint256"
				},
				{
					"internalType": "uint256",
					"name": "againstCount",
					"type": "uint256"
				},
				{
					"internalType": "uint256",
					"name": "abstainedCount",
					"type": "uint256"
				},
				{
					"internalType": "uint256",
					"name": "duration",
					"type": "uint256"
				},
				{
					"internalType": "bool",
					"name": "void",
					"type": "bool"
				}
			],
			"stateMutability": "view",
			"type": "function"
		},
		{
			"inputs": [],
			"name": "reviewCampaignPerformance",
			"outputs": [],
			"stateMutability": "nonpayable",
			"type": "function"
		},
		{
			"inputs": [],
			"name": "reviewCount",
			"outputs": [
				{
					"internalType": "uint256",
					"name": "",
					"type": "uint256"
				}
			],
			"stateMutability": "view",
			"type": "function"
		},
		{
			"inputs": [],
			"name": "reviewMode",
			"outputs": [],
			"stateMutability": "nonpayable",
			"type": "function"
		},
		{
			"inputs": [
				{
					"internalType": "address",
					"name": "",
					"type": "address"
				}
			],
			"name": "reviewed",
			"outputs": [
				{
					"internalType": "bool",
					"name": "",
					"type": "bool"
				}
			],
			"stateMutability": "view",
			"type": "function"
		},
		{
			"inputs": [
				{
					"internalType": "bytes32",
					"name": "role",
					"type": "bytes32"
				},
				{
					"internalType": "address",
					"name": "account",
					"type": "address"
				}
			],
			"name": "revokeRole",
			"outputs": [],
			"stateMutability": "nonpayable",
			"type": "function"
		},
		{
			"inputs": [],
			"name": "root",
			"outputs": [
				{
					"internalType": "address",
					"name": "",
					"type": "address"
				}
			],
			"stateMutability": "view",
			"type": "function"
		},
		{
			"inputs": [
				{
					"internalType": "uint256",
					"name": "_target",
					"type": "uint256"
				},
				{
					"internalType": "uint256",
					"name": "_minimumContribution",
					"type": "uint256"
				},
				{
					"internalType": "uint256",
					"name": "_duration",
					"type": "uint256"
				},
				{
					"internalType": "uint256",
					"name": "_goalType",
					"type": "uint256"
				},
				{
					"internalType": "address",
					"name": "_token",
					"type": "address"
				},
				{
					"internalType": "bool",
					"name": "_allowContributionAfterTargetIsMet",
					"type": "bool"
				}
			],
			"name": "setCampaignSettings",
			"outputs": [],
			"stateMutability": "nonpayable",
			"type": "function"
		},
		{
			"inputs": [
				{
					"internalType": "uint256",
					"name": "_state",
					"type": "uint256"
				}
			],
			"name": "setCampaignState",
			"outputs": [],
			"stateMutability": "nonpayable",
			"type": "function"
		},
		{
			"inputs": [
				{
					"internalType": "uint8",
					"name": "_count",
					"type": "uint8"
				}
			],
			"name": "setDeadlineSetTimes",
			"outputs": [],
			"stateMutability": "nonpayable",
			"type": "function"
		},
		{
			"inputs": [
				{
					"internalType": "bytes4",
					"name": "interfaceId",
					"type": "bytes4"
				}
			],
			"name": "supportsInterface",
			"outputs": [
				{
					"internalType": "bool",
					"name": "",
					"type": "bool"
				}
			],
			"stateMutability": "view",
			"type": "function"
		},
		{
			"inputs": [],
			"name": "target",
			"outputs": [
				{
					"internalType": "uint256",
					"name": "",
					"type": "uint256"
				}
			],
			"stateMutability": "view",
			"type": "function"
		},
		{
			"inputs": [
				{
					"internalType": "bool",
					"name": "_state",
					"type": "bool"
				}
			],
			"name": "toggleWithdrawalState",
			"outputs": [],
			"stateMutability": "nonpayable",
			"type": "function"
		},
		{
			"inputs": [],
			"name": "totalCampaignContribution",
			"outputs": [
				{
					"internalType": "uint256",
					"name": "",
					"type": "uint256"
				}
			],
			"stateMutability": "view",
			"type": "function"
		},
		{
			"inputs": [
				{
					"internalType": "address",
					"name": "_newRoot",
					"type": "address"
				}
			],
			"name": "transferCampaignOwnership",
			"outputs": [],
			"stateMutability": "nonpayable",
			"type": "function"
		},
		{
			"inputs": [
				{
					"internalType": "address",
					"name": "_oldAddress",
					"type": "address"
				},
				{
					"internalType": "address",
					"name": "_newAddress",
					"type": "address"
				}
			],
			"name": "transferCampaignUserData",
			"outputs": [],
			"stateMutability": "nonpayable",
			"type": "function"
		},
		{
			"inputs": [],
			"name": "unpauseCampaign",
			"outputs": [],
			"stateMutability": "nonpayable",
			"type": "function"
		},
		{
			"inputs": [
				{
					"internalType": "address",
					"name": "_user",
					"type": "address"
				}
			],
			"name": "userContributionLoss",
			"outputs": [
				{
					"internalType": "uint256",
					"name": "",
					"type": "uint256"
				}
			],
			"stateMutability": "view",
			"type": "function"
		},
		{
			"inputs": [
				{
					"internalType": "address",
					"name": "",
					"type": "address"
				}
			],
			"name": "userContributionWithdrawn",
			"outputs": [
				{
					"internalType": "bool",
					"name": "",
					"type": "bool"
				}
			],
			"stateMutability": "view",
			"type": "function"
		},
		{
			"inputs": [
				{
					"internalType": "address",
					"name": "",
					"type": "address"
				}
			],
			"name": "userTotalContribution",
			"outputs": [
				{
					"internalType": "uint256",
					"name": "",
					"type": "uint256"
				}
			],
			"stateMutability": "view",
			"type": "function"
		},
		{
			"inputs": [
				{
					"internalType": "uint256",
					"name": "_requestId",
					"type": "uint256"
				}
			],
			"name": "voidRequest",
			"outputs": [],
			"stateMutability": "nonpayable",
			"type": "function"
		},
		{
			"inputs": [
				{
					"internalType": "uint256",
					"name": "_requestId",
					"type": "uint256"
				},
				{
					"internalType": "uint8",
					"name": "_support",
					"type": "uint8"
				}
			],
			"name": "voteOnRequest",
			"outputs": [],
			"stateMutability": "nonpayable",
			"type": "function"
		},
		{
			"inputs": [
				{
					"internalType": "address",
					"name": "_user",
					"type": "address"
				},
				{
					"internalType": "address payable",
					"name": "_wallet",
					"type": "address"
				}
			],
			"name": "withdrawContributionForUser",
			"outputs": [],
			"stateMutability": "nonpayable",
			"type": "function"
		},
		{
			"inputs": [
				{
					"internalType": "address payable",
					"name": "_wallet",
					"type": "address"
				}
			],
			"name": "withdrawOwnContribution",
			"outputs": [],
			"stateMutability": "nonpayable",
			"type": "function"
		},
		{
			"inputs": [],
			"name": "withdrawalsPaused",
			"outputs": [
				{
					"internalType": "bool",
					"name": "",
					"type": "bool"
				}
			],
			"stateMutability": "view",
			"type": "function"
		}
	]
}