{
	"data": {
		"bytecode": {
			"linkReferences": {},
			"object": "608060405234801561001057600080fd5b50615d1380620000216000396000f3fe6080604052600436106103205760003560e01c806301ffc9a71461032557806307973ccf1461035b578063092093d81461037d5780630d10f3b51461039f57806310595aa7146103b457806314f7ea99146103d45780631aa2f9d7146103f45780631c8e541b1461041457806320966f2214610429578063248a9ca31461044957806324ba73a2146104695780632be32dbb146104895780632f2ff15d1461049e578063333c4f93146104be578063339d50a5146104de57806333fe56761461051457806336568abe14610534578063365b98b2146105545780633d693d1c1461058557806348b30e35146105a55780634caa13a9146105ba5780634f9de6e2146105e757806350450930146105fc5780635c975abb1461061c5780635d4bc7e3146106315780635f87d16f146106515780635fd0b69f146106715780636219fe3d146106a257806362a6e065146106c25780636853920e146106e45780637274e30d146107045780637e0732a81461071957806381994d04146107395780638bad0c0a1461074e5780639184353f1461076357806391d14854146107835780639590292f146107a357806396a75664146107b8578063986c1798146107cb57806398f11bce146107eb5780639ead72221461080b5780639ee25ae41461082b5780639ee9bbee146108405780639ff8466214610855578063a174743a14610875578063a217fddf14610895578063a3134319146108aa578063a3303a75146108bf578063a55b3b31146108df578063a73f7f8a146108ff578063a85427401461091f578063b1bba29b1461093f578063b30326db14610954578063b6e33abf14610974578063bc3d5a30146109a5578063bf96ae63146109c5578063c6c323fc146109da578063c9dc36fb146109fa578063ca68dfe414610a1a578063cf8a84d014610a3a578063cfa4083014610a5a578063d48bfca714610a7a578063d547741f14610a9a578063d5b6c20e14610aba578063dc1a10c014610ada578063df46e21e14610afa578063e128c96914610b1a578063ebf0c71714610b3a578063eda7794e14610b4f578063f7878c6914610b6f578063f89fa22d14610b8f575b600080fd5b34801561033157600080fd5b506103456103403660046151f5565b610baf565b6040516103529190615551565b60405180910390f35b34801561036757600080fd5b50610370610bdc565b6040516103529190615575565b34801561038957600080fd5b5061039d6103983660046152a9565b610be3565b005b3480156103ab57600080fd5b5061039d610d3f565b3480156103c057600080fd5b5061039d6103cf3660046150df565b610d82565b3480156103e057600080fd5b506103706103ef36600461521d565b610e4d565b34801561040057600080fd5b5061037061040f3660046151b9565b610e6b565b34801561042057600080fd5b5061039d610e7e565b34801561043557600080fd5b5061034561044436600461508b565b610ebe565b34801561045557600080fd5b506103706104643660046151b9565b610ed4565b34801561047557600080fd5b5061039d610484366004615129565b610ee9565b34801561049557600080fd5b50610370610f86565b3480156104aa57600080fd5b5061039d6104b93660046151d1565b610f8d565b3480156104ca57600080fd5b506103456104d936600461521d565b610fb6565b3480156104ea57600080fd5b506104fe6104f93660046151b9565b610fd7565b6040516103529a999897969594939291906154a3565b34801561052057600080fd5b5061039d61052f3660046151d1565b611052565b34801561054057600080fd5b5061039d61054f3660046151d1565b611133565b34801561056057600080fd5b5061057461056f3660046151b9565b611179565b60405161035295949392919061551f565b34801561059157600080fd5b5061039d6105a036600461531b565b6111ca565b3480156105b157600080fd5b50610370611321565b3480156105c657600080fd5b506105da6105d53660046151b9565b611333565b60405161035291906155a8565b3480156105f357600080fd5b506103706113e0565b34801561060857600080fd5b506103706106173660046151b9565b6113f2565b34801561062857600080fd5b50610345611405565b34801561063d57600080fd5b5061039d61064c3660046150a7565b61140e565b34801561065d57600080fd5b5061039d61066c36600461521d565b611b0a565b34801561067d57600080fd5b5061069161068c3660046151b9565b611bc7565b604051610352959493929190615ab8565b3480156106ae57600080fd5b506103456106bd3660046151b9565b611c0e565b3480156106ce57600080fd5b506106d7611c24565b604051610352919061541a565b3480156106f057600080fd5b5061039d6106ff366004615156565b611c33565b34801561071057600080fd5b50610370611c51565b34801561072557600080fd5b5061039d6107343660046152cd565b611c58565b34801561074557600080fd5b506106d7611cdf565b34801561075a57600080fd5b5061039d611cee565b34801561076f57600080fd5b5061039d61077e3660046151b9565b611cf9565b34801561078f57600080fd5b5061034561079e3660046151d1565b611e62565b3480156107af57600080fd5b506106d7611e8f565b61039d6107c63660046152ee565b611e9e565b3480156107d757600080fd5b5061039d6107e636600461531b565b612401565b3480156107f757600080fd5b506103706108063660046151b9565b6124c6565b34801561081757600080fd5b506106d76108263660046151b9565b6124d9565b34801561083757600080fd5b50610370612504565b34801561084c57600080fd5b506106d761250b565b34801561086157600080fd5b5061039d6108703660046151b9565b61251a565b34801561088157600080fd5b506106d761089036600461508b565b612627565b3480156108a157600080fd5b50610370612643565b3480156108b657600080fd5b50610370612648565b3480156108cb57600080fd5b5061039d6108da3660046151b9565b61265a565b3480156108eb57600080fd5b5061039d6108fa3660046151b9565b612bfc565b34801561090b57600080fd5b5061039d61091a366004615156565b612ee5565b34801561092b57600080fd5b5061034561093a36600461508b565b612f03565b34801561094b57600080fd5b50610370612f19565b34801561096057600080fd5b5061039d61096f366004615181565b612f20565b34801561098057600080fd5b5061099461098f3660046151b9565b6130e3565b604051610352959493929190615adf565b3480156109b157600080fd5b5061039d6109c03660046151b9565b613128565b3480156109d157600080fd5b5061039d6133d5565b3480156109e657600080fd5b506103706109f536600461508b565b61358b565b348015610a0657600080fd5b5061039d610a153660046152a9565b61359e565b348015610a2657600080fd5b5061039d610a353660046152cd565b6136e6565b348015610a4657600080fd5b5061039d610a553660046151b9565b613ab3565b348015610a6657600080fd5b5061039d610a753660046152a9565b613bd5565b348015610a8657600080fd5b5061039d610a9536600461508b565b613d1b565b348015610aa657600080fd5b5061039d610ab53660046151d1565b613ded565b348015610ac657600080fd5b5061039d610ad53660046152a9565b613e0c565b348015610ae657600080fd5b5061039d610af53660046152cd565b6142b2565b348015610b0657600080fd5b50610370610b153660046151b9565b614448565b348015610b2657600080fd5b5061039d610b35366004615156565b61445b565b348015610b4657600080fd5b506106d7614676565b348015610b5b57600080fd5b50610370610b6a36600461508b565b614685565b348015610b7b57600080fd5b50610345610b8a36600461508b565b614698565b348015610b9b57600080fd5b5061039d610baa36600461524f565b6146b2565b60006001600160e01b03198216637965db0b60e01b1480610bd45750610bd482614754565b90505b919050565b6101135481565b600080516020615c7e833981519152610bfc8133611e62565b610c0557600080fd5b610c0d611405565b15610c335760405162461bcd60e51b8152600401610c2a9061577c565b60405180910390fd5b6101128381548110610c5557634e487b7160e01b600052603260045260246000fd5b906000526020600020906004020160030160019054906101000a900460ff16610c7d57600080fd5b816101128481548110610ca057634e487b7160e01b600052603260045260246000fd5b906000526020600020906004020160030160006101000a81548160ff021916908315150217905550426101128481548110610ceb57634e487b7160e01b600052603260045260246000fd5b906000526020600020906004020160020181905550827f0ebcb27cc95a510dcb63aa211212b6d8058b45eb5fae3689cd30bcb64359025b8333604051610d3292919061555c565b60405180910390a2505050565b610d47611405565b15610d645760405162461bcd60e51b8152600401610c2a9061577c565b610d6f600033611e62565b610d7857600080fd5b610d8061476d565b565b610d8d600033611e62565b610d9657600080fd5b6001600160a01b038316610da957600080fd5b6001600160a01b038216610dbc57600080fd5b6001600160a01b038116610dcf57600080fd5b60fd80546001600160a01b038086166001600160a01b03199283161790925560fe805485841690831617905560ff8054928416929091169190911790556040517f3446c1e5241df85853f5b95e70ca726471e2e5ecb851a06e3e03d60b3f97e56890610e409085908590859061542e565b60405180910390a1505050565b80516020818301810180516101038252928201919093012091525481565b61010f6020526000908152604090205481565b610e86611405565b610ea25760405162461bcd60e51b8152600401610c2a90615612565b610ead600033611e62565b610eb657600080fd5b610d806147df565b6101066020526000908152604090205460ff1681565b60009081526065602052604090206001015490565b610ef4600033611e62565b610efd57600080fd5b6001600160a01b0382166000908152610105602052604090205460ff16610f2357600080fd5b6001600160a01b0382166000818152610106602052604090819020805460ff1916841515179055517f7c2a41542727a141f40514ade389b2a4d94a10a8f6fee59229aa47073625c76390610f7a908490339061555c565b60405180910390a25050565b6101115481565b610f9682610ed4565b610fa781610fa2614832565b614836565b610fb1838361489a565b505050565b80516020818301810180516101028252928201919093012091525460ff1681565b61010a8181548110610fe857600080fd5b6000918252602090912060089091020180546001820154600283015460038401546004850154600586015460068701546007909701546001600160a01b039687169850948616969390951694919390929060ff80821691610100810482169162010000909104168a565b61105d600033611e62565b61106657600080fd5b6001600160a01b0381166000908152610105602052604090205460ff1661108c57600080fd5b6001600160a01b038116600090815261010560209081526040808320805460ff19908116909155610106909252909120805490911690556101008054839081106110e657634e487b7160e01b600052603260045260246000fd5b600091825260209091200180546001600160a01b031916905560405182907f0f6bb0745ad7cc1db7292c76d7ba4082669045b9cf4301a9d802a95c8702b67e90610f7a9084903390615451565b61113b614832565b6001600160a01b0316816001600160a01b03161461116b5760405162461bcd60e51b8152600401610c2a90615a33565b6111758282614921565b5050565b610112818154811061118a57600080fd5b600091825260209091206004909102018054600182015460028301546003909301546001600160a01b039092169350919060ff8082169161010090041685565b6111d5600033611e62565b6111de57600080fd5b6111e6611405565b156112035760405162461bcd60e51b8152600401610c2a9061577c565b610115838154811061122557634e487b7160e01b600052603260045260246000fd5b600091825260209091206004600590920201015460ff1661124557600080fd5b81610115848154811061126857634e487b7160e01b600052603260045260246000fd5b9060005260206000209060050201600301819055508061011584815481106112a057634e487b7160e01b600052603260045260246000fd5b9060005260206000209060050201600201819055504261011584815481106112d857634e487b7160e01b600052603260045260246000fd5b906000526020600020906005020160010181905550827fd548b84ae5f583aeaefcb2e5194f9ca9c4e71ff8b150cb497f8264f06d6cff61838333604051610d3293929190615a99565b600080516020615c7e83398151915281565b610101818154811061134457600080fd5b90600052602060002001600091509050805461135f90615bb5565b80601f016020809104026020016040519081016040528092919081815260200182805461138b90615bb5565b80156113d85780601f106113ad576101008083540402835291602001916113d8565b820191906000526020600020905b8154815290600101906020018083116113bb57829003601f168201915b505050505081565b600080516020615cbe83398151915281565b6101086020526000908152604090205481565b60975460ff1690565b600054610100900460ff1680611427575060005460ff16155b6114435760405162461bcd60e51b8152600401610c2a90615801565b600054610100900460ff1615801561146e576000805460ff1961ff0019909116610100171660011790555b6001600160a01b03831661148157600080fd5b8160fb60006101000a8154816001600160a01b0302191690836001600160a01b031602179055508260fd60006101000a8154816001600160a01b0302191690836001600160a01b031602179055503060fc60006101000a8154816001600160a01b0302191690836001600160a01b031602179055506000604051806101e00160405280604051806040016040528060118152602001703232b330bab63a21b7b6b6b4b9b9b4b7b760791b815250815260200160405180604001604052806016815260200175191958591b1a5b9954dd1c9a5ad95cd05b1b1bddd95960521b81525081526020016040518060400160405280601a8152602001791b5a5b9a5b5d5b50dbdb9d1c9a589d5d1a5bdb905b1b1bddd95960321b81525081526020016040518060400160405280601a8152602001791b585e1a5b5d5b50dbdb9d1c9a589d5d1a5bdb905b1b1bddd95960321b81525081526020016040518060400160405280601b81526020017a1b5a5b9a5b5d5b54995c5d595cdd105b5bdd5b9d105b1b1bddd959602a1b81525081526020016040518060400160405280601b81526020017a1b585e1a5b5d5b54995c5d595cdd105b5bdd5b9d105b1b1bddd959602a1b8152508152602001604051806040016040528060158152602001741b5a5b9a5b5d5b50d85b5c185a59db95185c99d95d605a1b8152508152602001604051806040016040528060158152602001741b585e1a5b5d5b50d85b5c185a59db95185c99d95d605a1b81525081526020016040518060400160405280601481526020017336b0bc2232b0b23634b732a2bc3a32b739b4b7b760611b81525081526020016040518060400160405280601481526020017336b4b72232b0b23634b732a2bc3a32b739b4b7b760611b81525081526020016040518060400160405280601281526020017136b4b72932b8bab2b9ba223ab930ba34b7b760711b81525081526020016040518060400160405280601281526020017136b0bc2932b8bab2b9ba223ab930ba34b7b760711b8152508152602001604051806040016040528060138152602001727265766965775468726573686f6c644d61726b60681b81525081526020016040518060400160405280601c81526020017b1c995c5d595cdd119a5b985b1a5e985d1a5bdb951a1c995cda1bdb1960221b8152508152602001604051806040016040528060138152602001727265706f72745468726573686f6c644d61726b60681b81525081525090506000604051806101e00160405280600262ffffff168152602001600362ffffff168152602001600162ffffff16815260200161271062ffffff1681526020016103e862ffffff16815260200161138862ffffff16815260200161138862ffffff168152602001620f424062ffffff16815260200162093a8062ffffff1681526020016201518062ffffff1681526020016201518062ffffff16815260200162093a8062ffffff168152602001605062ffffff168152602001603362ffffff168152602001603362ffffff16815250905060005b600f811015611a17576101018382600f811061190e57634e487b7160e01b600052603260045260246000fd5b602090810291909101518254600181018455600093845292829020815161193e9491909101929190910190614f5f565b5060016101028483600f811061196457634e487b7160e01b600052603260045260246000fd5b60200201516040516119769190615372565b908152604051908190036020019020805491151560ff199092169190911790558181600f81106119b657634e487b7160e01b600052603260045260246000fd5b602002015162ffffff166101038483600f81106119e357634e487b7160e01b600052603260045260246000fd5b60200201516040516119f59190615372565b9081526040519081900360200190205580611a0f81615bf0565b9150506118e2565b5060fb54611a30906000906001600160a01b03166149a6565b60fb54611a5590600080516020615c5e833981519152906001600160a01b03166149a6565b60fb54611a7a90600080516020615cbe833981519152906001600160a01b03166149a6565b60fb54611a9f90600080516020615c7e833981519152906001600160a01b03166149a6565b611ab8600080516020615c5e83398151915260006149b0565b611ad1600080516020615cbe83398151915260006149b0565b611aea600080516020615c7e83398151915260006149b0565b611af26133d5565b50508015610fb1576000805461ff0019169055505050565b611b15600033611e62565b611b1e57600080fd5b61010281604051611b2f9190615372565b9081526040519081900360200190205460ff1615611b4c57600080fd5b61010180546001810182556000919091528151611b90917f109ea3cebb188b9c1b9fc5bb3920be60dfdc8699098dff92f3d80daaca74768901906020840190614f5f565b50600161010282604051611ba49190615372565b908152604051908190036020019020805491151560ff1990921691909117905550565b6101108181548110611bd857600080fd5b60009182526020909120600490910201805460018201546002830154600390930154919350919060ff8082169161010090041685565b61010e6020526000908152604090205460ff1681565b60fe546001600160a01b031681565b611c3e600033611e62565b611c4757600080fd5b6111758183613ded565b61010b5481565b611c63600033611e62565b611c6c57600080fd5b6000611c88611c7a846149fa565b611c83846149fa565b614a14565b90508060000151610103604051611c9e9061538e565b9081526040519081900360200181209190915581517f41fd2c7a1f6fb4a3c251c615d2a2b6424966b97d9ae83a3bdb06fa1d245d0ffa91610e409190615575565b60fd546001600160a01b031681565b610d80600033611133565b80336001600160a01b031661010a8281548110611d2657634e487b7160e01b600052603260045260246000fd5b60009182526020909120600260089092020101546001600160a01b031614611d605760405162461bcd60e51b8152600401610c2a90615688565b61010a8281548110611d8257634e487b7160e01b600052603260045260246000fd5b906000526020600020906008020160070160019054906101000a900460ff16611dbd5760405162461bcd60e51b8152600401610c2a906158e7565b600061010a8381548110611de157634e487b7160e01b600052603260045260246000fd5b906000526020600020906008020160070160016101000a81548160ff0219169083151502179055504261010a8381548110611e2c57634e487b7160e01b600052603260045260246000fd5b90600052602060002090600802016004018190555081600080516020615c9e833981519152600033604051610f7a92919061555c565b60008281526065602090815260408083206001600160a01b038516845290915290205460ff165b92915050565b60ff546001600160a01b031681565b82336001600160a01b031661010a8281548110611ecb57634e487b7160e01b600052603260045260246000fd5b60009182526020909120600260089092020101546001600160a01b031614611f055760405162461bcd60e51b8152600401610c2a90615688565b8361010a8181548110611f2857634e487b7160e01b600052603260045260246000fd5b906000526020600020906008020160070160029054906101000a900460ff16611f635760405162461bcd60e51b8152600401610c2a9061584f565b8461010a8181548110611f8657634e487b7160e01b600052603260045260246000fd5b906000526020600020906008020160070160019054906101000a900460ff168015611fe6575061010a8181548110611fce57634e487b7160e01b600052603260045260246000fd5b600091825260209091206007600890920201015460ff165b6120025760405162461bcd60e51b8152600401610c2a906157d6565b33600081815261011460205260409020546101128054839290811061203757634e487b7160e01b600052603260045260246000fd5b60009182526020909120600490910201546001600160a01b03161461206e5760405162461bcd60e51b8152600401610c2a906156e0565b6001600160a01b03811660009081526101146020526040902054610112805490919081106120ac57634e487b7160e01b600052603260045260246000fd5b600091825260209091206003600490920201015460ff166120df5760405162461bcd60e51b8152600401610c2a90615753565b6120e7611405565b156121045760405162461bcd60e51b8152600401610c2a9061577c565b600260c95414156121275760405162461bcd60e51b8152600401610c2a906159fc565b600260c95561010a80548890811061214f57634e487b7160e01b600052603260045260246000fd5b906000526020600020906008020160070160019054906101000a900460ff1661218a5760405162461bcd60e51b8152600401610c2a906158e7565b6001600160a01b0385166000908152610106602052604090205460ff166121c35760405162461bcd60e51b8152600401610c2a906158bc565b61011586815481106121e557634e487b7160e01b600052603260045260246000fd5b600091825260209091206004600590920201015460ff166122185760405162461bcd60e51b8152600401610c2a906156b5565b610115868154811061223a57634e487b7160e01b600052603260045260246000fd5b90600052602060002090600502016003015434101561226b5760405162461bcd60e51b8152600401610c2a90615984565b610107546122799034614a3e565b61010755600087815261010960205260409020546122979034614a3e565b60008881526101096020526040902055610115805461232f91429161232991908a9081106122d557634e487b7160e01b600052603260045260246000fd5b90600052602060002090600502016002015461010a8b8154811061230957634e487b7160e01b600052603260045260246000fd5b906000526020600020906008020160060154614a3e90919063ffffffff16565b90614a3e565b61010a888154811061235157634e487b7160e01b600052603260045260246000fd5b9060005260206000209060080201600601819055504261010a888154811061238957634e487b7160e01b600052603260045260246000fd5b600091825260209091206004600890920201015560fd546123b790869033906001600160a01b031634614a51565b867fd381797164e18e55c65372a3b02e478a91f0a3fd49dceec6cef1a4dbe037dafe8734336040516123eb93929190615a99565b60405180910390a25050600160c9555050505050565b61240c600033611e62565b61241557600080fd5b610110838154811061243757634e487b7160e01b600052603260045260246000fd5b906000526020600020906004020160030160019054906101000a900460ff1661245f57600080fd5b600061246d611c7a846149fa565b80516000868152610104602052604090819020919091558151905191925085917f386ba00bae27fffbdef232f255054d82ec46dad1185bd320180ae69afbec9355916124b891615575565b60405180910390a250505050565b6101046020526000908152604090205481565b61010081815481106124ea57600080fd5b6000918252602090912001546001600160a01b0316905081565b6101075481565b60fc546001600160a01b031681565b612525600033611e62565b61252e57600080fd5b612536611405565b156125535760405162461bcd60e51b8152600401610c2a9061577c565b610115818154811061257557634e487b7160e01b600052603260045260246000fd5b600091825260209091206004600590920201015460ff1661259557600080fd5b61011581815481106125b757634e487b7160e01b600052603260045260246000fd5b60009182526020822060059091020181815560018101829055600281018290556003810191909155600401805460ff1916905560405181907f81fdf7ef99f82082b15127bc99f9e1c28217c3961f36a1fd9605570ae3293cb29061261c90339061541a565b60405180910390a250565b61010c602052600090815260409020546001600160a01b031681565b600081565b600080516020615c5e83398151915281565b33600081815261011460205260409020546101128054839290811061268f57634e487b7160e01b600052603260045260246000fd5b60009182526020909120600490910201546001600160a01b0316146126c65760405162461bcd60e51b8152600401610c2a906156e0565b6001600160a01b038116600090815261011460205260409020546101128054909190811061270457634e487b7160e01b600052603260045260246000fd5b600091825260209091206003600490920201015460ff166127375760405162461bcd60e51b8152600401610c2a90615753565b61273f611405565b1561275c5760405162461bcd60e51b8152600401610c2a9061577c565b610110828154811061277e57634e487b7160e01b600052603260045260246000fd5b906000526020600020906004020160030160019054906101000a900460ff1680156127de575061011082815481106127c657634e487b7160e01b600052603260045260246000fd5b600091825260209091206003600490920201015460ff165b6127e757600080fd5b60fe546000906127ff906001600160a01b0316614aaf565b60ff5490915060009061281a906001600160a01b0316614aaf565b90506000604051806101400160405280846001600160a01b03168152602001836001600160a01b03168152602001336001600160a01b03168152602001428152602001600081526020018681526020016000815260200160001515815260200160001515815260200160011515815250905061010a81908060018154018082558091505060019003906000526020600020906008020160009091909190915060008201518160000160006101000a8154816001600160a01b0302191690836001600160a01b0316021790555060208201518160010160006101000a8154816001600160a01b0302191690836001600160a01b0316021790555060408201518160020160006101000a8154816001600160a01b0302191690836001600160a01b03160217905550606082015181600301556080820151816004015560a0820151816005015560c0820151816006015560e08201518160070160006101000a81548160ff0219169083151502179055506101008201518160070160016101000a81548160ff0219169083151502179055506101208201518160070160026101000a81548160ff02191690831515021790555050503361010c6000856001600160a01b03166001600160a01b0316815260200190815260200160002060006101000a8154816001600160a01b0302191690836001600160a01b031602179055506000612a33600161010a80549050614b1e90919063ffffffff16565b6001600160a01b038516600090815261010d602052604090208190556101108054919250612a94916001919089908110612a7d57634e487b7160e01b600052603260045260246000fd5b600091825260209091206004909102015490614a3e565b6101108781548110612ab657634e487b7160e01b600052603260045260246000fd5b600091825260209091206004909102015561010b54612ad6906001614a3e565b61010b556040516383bcbc4b60e01b81526001600160a01b038516906383bcbc4b90612b0c90309087903390879060040161557e565b600060405180830381600087803b158015612b2657600080fd5b505af1158015612b3a573d6000803e3d6000fd5b5050604051630e6a924b60e01b81526001600160a01b0386169250630e6a924b9150612b7090309088903390879060040161557e565b600060405180830381600087803b158015612b8a57600080fd5b505af1158015612b9e573d6000803e3d6000fd5b50503360008181526101146020526040908190205490518594507f3e157814d1e531c32042b37feafffeff662b969a390a716acfee6ea2e8aca1819350612bec9230928a928a928e9161546b565b60405180910390a2505050505050565b80336001600160a01b031661010a8281548110612c2957634e487b7160e01b600052603260045260246000fd5b60009182526020909120600260089092020101546001600160a01b031614612c635760405162461bcd60e51b8152600401610c2a90615688565b8161010a8181548110612c8657634e487b7160e01b600052603260045260246000fd5b906000526020600020906008020160070160029054906101000a900460ff16612cc15760405162461bcd60e51b8152600401610c2a9061584f565b336000818152610114602052604090205461011280548392908110612cf657634e487b7160e01b600052603260045260246000fd5b60009182526020909120600490910201546001600160a01b031614612d2d5760405162461bcd60e51b8152600401610c2a906156e0565b6001600160a01b0381166000908152610114602052604090205461011280549091908110612d6b57634e487b7160e01b600052603260045260246000fd5b600091825260209091206003600490920201015460ff16612d9e5760405162461bcd60e51b8152600401610c2a90615753565b612da6611405565b15612dc35760405162461bcd60e51b8152600401610c2a9061577c565b4261010a8581548110612de657634e487b7160e01b600052603260045260246000fd5b9060005260206000209060080201600601541015612e165760405162461bcd60e51b8152600401610c2a90615640565b600084815261010e602052604090205460ff1615612e465760405162461bcd60e51b8152600401610c2a9061594d565b612e8c4261010a8681548110612e6c57634e487b7160e01b600052603260045260246000fd5b906000526020600020906008020160060154614b1e90919063ffffffff16565b600085815261010f602090815260408083209390935561010e9052819020805460ff191660011790555184907fe735270f71e68e0632ce9fd384fde8c2f9cbc490871b2529a728b616f15a10ac906124b890339061541a565b612ef0600033611e62565b612ef957600080fd5b6111758183610f8d565b6101056020526000908152604090205460ff1681565b6101165481565b600080516020615c5e833981519152612f398133611e62565b612f4257600080fd5b612f4a611405565b15612f675760405162461bcd60e51b8152600401610c2a9061577c565b6040805160a081018252600080825242602083019081529282018181528515156060840190815260016080850181815261011080548084018255955285517fc992a4f4c614c6258b392474376b00c403ba311ad1b24c06537a7c109387f97760049096029586015595517fc992a4f4c614c6258b392474376b00c403ba311ad1b24c06537a7c109387f97885015591517fc992a4f4c614c6258b392474376b00c403ba311ad1b24c06537a7c109387f979840155517fc992a4f4c614c6258b392474376b00c403ba311ad1b24c06537a7c109387f97a9092018054945160ff199095169215159290921761ff001916610100941515949094029390931790556101115490916130769190614a3e565b6101115561011054600090610104908290613092906001614b1e565b8152602081019190915260400160002055610110546130b2906001614b1e565b7f921d47d15ca07451722bd7406f515d5cf98207e8f2dbe8a46b4a047f75d5edb18433604051610d3292919061555c565b61011581815481106130f457600080fd5b6000918252602090912060059091020180546001820154600283015460038401546004909401549294509092909160ff1685565b80336001600160a01b031661010a828154811061315557634e487b7160e01b600052603260045260246000fd5b60009182526020909120600260089092020101546001600160a01b03161461318f5760405162461bcd60e51b8152600401610c2a90615688565b8161010a81815481106131b257634e487b7160e01b600052603260045260246000fd5b906000526020600020906008020160070160029054906101000a900460ff166131ed5760405162461bcd60e51b8152600401610c2a9061584f565b33600081815261011460205260409020546101128054839290811061322257634e487b7160e01b600052603260045260246000fd5b60009182526020909120600490910201546001600160a01b0316146132595760405162461bcd60e51b8152600401610c2a906156e0565b6001600160a01b038116600090815261011460205260409020546101128054909190811061329757634e487b7160e01b600052603260045260246000fd5b600091825260209091206003600490920201015460ff166132ca5760405162461bcd60e51b8152600401610c2a90615753565b6132d2611405565b156132ef5760405162461bcd60e51b8152600401610c2a9061577c565b600084815261010e602052604090205460ff1661330b57600080fd5b600084815261010e60209081526040808320805460ff1916905561010f90915290205461010a80546133579291908790811061230957634e487b7160e01b600052603260045260246000fd5b61010a858154811061337957634e487b7160e01b600052603260045260246000fd5b600091825260208083206006600890930201919091019290925585815261010f90915260408082208290555185917fef4abab54f0316fd2f0b59c11acce65c3219e6a75471b51768b7b8ce76a58f2f916124b891903390615a82565b6133dd611405565b156133fa5760405162461bcd60e51b8152600401610c2a9061577c565b6040805160a0810182523381524260208201908152600092820183815260608301848152600160808501818152610112805480840182559781905295517fe015f902c527607628f7649074b24d3efd1151f9f546ce1aecf38852c06da883600490980297880180546001600160a01b0319166001600160a01b0390921691909117905593517fe015f902c527607628f7649074b24d3efd1151f9f546ce1aecf38852c06da88487015591517fe015f902c527607628f7649074b24d3efd1151f9f546ce1aecf38852c06da885860155517fe015f902c527607628f7649074b24d3efd1151f9f546ce1aecf38852c06da8869094018054925160ff199093169415159490941761ff00191661010092151592909202919091179092555461351f91614b1e565b33600090815261011460205260409020556101135461353f906001614a3e565b6101135561011254613552906001614b1e565b7f785caf8769bd44d265fce8c1a3327e91646fe19be3a87506383b5e95a5c4349433604051613581919061541a565b60405180910390a2565b61010d6020526000908152604090205481565b600080516020615cbe8339815191526135b78133611e62565b6135c057600080fd5b8261010a81815481106135e357634e487b7160e01b600052603260045260246000fd5b906000526020600020906008020160070160029054906101000a900460ff1661361e5760405162461bcd60e51b8152600401610c2a9061584f565b613626611405565b156136435760405162461bcd60e51b8152600401610c2a9061577c565b8261010a858154811061366657634e487b7160e01b600052603260045260246000fd5b906000526020600020906008020160070160016101000a81548160ff0219169083151502179055504261010a85815481106136b157634e487b7160e01b600052603260045260246000fd5b90600052602060002090600802016004018190555083600080516020615c9e83398151915284336040516124b892919061555c565b33600081815261011460205260409020546101128054839290811061371b57634e487b7160e01b600052603260045260246000fd5b60009182526020909120600490910201546001600160a01b0316146137525760405162461bcd60e51b8152600401610c2a906156e0565b6001600160a01b038116600090815261011460205260409020546101128054909190811061379057634e487b7160e01b600052603260045260246000fd5b600091825260209091206003600490920201015460ff166137c35760405162461bcd60e51b8152600401610c2a90615753565b82336001600160a01b031661010a82815481106137f057634e487b7160e01b600052603260045260246000fd5b60009182526020909120600260089092020101546001600160a01b03161461382a5760405162461bcd60e51b8152600401610c2a90615688565b8361010a818154811061384d57634e487b7160e01b600052603260045260246000fd5b906000526020600020906008020160070160029054906101000a900460ff166138885760405162461bcd60e51b8152600401610c2a9061584f565b613890611405565b156138ad5760405162461bcd60e51b8152600401610c2a9061577c565b600061010a86815481106138d157634e487b7160e01b600052603260045260246000fd5b9060005260206000209060080201600501549050848114613aab57610110858154811061390e57634e487b7160e01b600052603260045260246000fd5b906000526020600020906004020160030160019054906101000a900460ff1661393657600080fd5b8461010a878154811061395957634e487b7160e01b600052603260045260246000fd5b9060005260206000209060080201600501819055506139ac6001610110838154811061399557634e487b7160e01b600052603260045260246000fd5b600091825260209091206004909102015490614b1e565b61011082815481106139ce57634e487b7160e01b600052603260045260246000fd5b906000526020600020906004020160000181905550613a0a60016101108781548110612a7d57634e487b7160e01b600052603260045260246000fd5b6101108681548110613a2c57634e487b7160e01b600052603260045260246000fd5b9060005260206000209060040201600001819055504261010a8781548110613a6457634e487b7160e01b600052603260045260246000fd5b906000526020600020906008020160040181905550857f0fdce0a91a714d5287dc199d496cc0df9fa8a529f5054d5016a96f0adfdc31b18633604051612bec929190615a82565b505050505050565b600080516020615c7e833981519152613acc8133611e62565b613ad557600080fd5b613add611405565b15613afa5760405162461bcd60e51b8152600401610c2a9061577c565b60006101128381548110613b1e57634e487b7160e01b600052603260045260246000fd5b906000526020600020906004020190508060030160019054906101000a900460ff16613b4957600080fd5b6101128381548110613b6b57634e487b7160e01b600052603260045260246000fd5b60009182526020822060049091020180546001600160a01b0319168155600181018290556002810191909155600301805461ffff1916905560405183907f89703ec90073f7f060a05db721bf6e6bfea7a783e08a7d7e3c50667da7a491f590610d3290339061541a565b600080516020615c5e833981519152613bee8133611e62565b613bf757600080fd5b613bff611405565b15613c1c5760405162461bcd60e51b8152600401610c2a9061577c565b6101108381548110613c3e57634e487b7160e01b600052603260045260246000fd5b906000526020600020906004020160030160019054906101000a900460ff16613c6657600080fd5b816101108481548110613c8957634e487b7160e01b600052603260045260246000fd5b906000526020600020906004020160030160006101000a81548160ff021916908315150217905550426101108481548110613cd457634e487b7160e01b600052603260045260246000fd5b906000526020600020906004020160020181905550827fda817fca113e65ada0463124f0d540a750811bdaea7124d18bd556916961034d8333604051610d3292919061555c565b613d26600033611e62565b613d2f57600080fd5b6001600160a01b0381166000908152610105602052604090205460ff1615613d5657600080fd5b610100805460018082019092557f45e010b9ae401e2eb71529478da8bd513a9bdc2d095a111e324f5b95c09ed87b0180546001600160a01b0319166001600160a01b0384169081179091556000818152610105602052604090819020805460ff191690931790925590517fdffbd9ded1c09446f09377de547142dcce7dc541c8b0b028142b1eba7026b9e79061261c90339061541a565b613df682610ed4565b613e0281610fa2614832565b610fb18383614921565b336000818152610114602052604090205461011280548392908110613e4157634e487b7160e01b600052603260045260246000fd5b60009182526020909120600490910201546001600160a01b031614613e785760405162461bcd60e51b8152600401610c2a906156e0565b6001600160a01b0381166000908152610114602052604090205461011280549091908110613eb657634e487b7160e01b600052603260045260246000fd5b600091825260209091206003600490920201015460ff16613ee95760405162461bcd60e51b8152600401610c2a90615753565b82336001600160a01b031661010a8281548110613f1657634e487b7160e01b600052603260045260246000fd5b60009182526020909120600260089092020101546001600160a01b031614613f505760405162461bcd60e51b8152600401610c2a90615688565b8361010a8181548110613f7357634e487b7160e01b600052603260045260246000fd5b906000526020600020906008020160070160029054906101000a900460ff16613fae5760405162461bcd60e51b8152600401610c2a9061584f565b613fb6611405565b15613fd35760405162461bcd60e51b8152600401610c2a9061577c565b613fdc33614698565b6141ee57600561010a868154811061400457634e487b7160e01b600052603260045260246000fd5b600091825260209182902060089091020154604080516382fde09360e01b815290516001600160a01b03909216926382fde09392600480840193829003018186803b15801561405257600080fd5b505afa158015614066573d6000803e3d6000fd5b505050506040513d601f19601f8201168201806040525081019061408a9190615291565b111580156141e5575061010a85815481106140b557634e487b7160e01b600052603260045260246000fd5b60009182526020918290206008909102015460408051636a5c1cc960e11b815290516001600160a01b039092169263d4b8399292600480840193829003018186803b15801561410357600080fd5b505afa158015614117573d6000803e3d6000fd5b505050506040513d601f19601f8201168201806040525081019061413b9190615291565b61010a868154811061415d57634e487b7160e01b600052603260045260246000fd5b6000918252602091829020600890910201546040805163477cd7b960e11b815290516001600160a01b0390921692638ef9af7292600480840193829003018186803b1580156141ab57600080fd5b505afa1580156141bf573d6000803e3d6000fd5b505050506040513d601f19601f820116820180604052508101906141e39190615291565b105b6141ee57600080fd5b8361010a868154811061421157634e487b7160e01b600052603260045260246000fd5b906000526020600020906008020160070160006101000a81548160ff0219169083151502179055504261010a868154811061425c57634e487b7160e01b600052603260045260246000fd5b906000526020600020906008020160040181905550847fbe2b83b9aa4aef4d2f6fe3eecaf397185511fd5aef8cd2174636054bcc99318e85336040516142a392919061555c565b60405180910390a25050505050565b6142bd600033611e62565b6142c657600080fd5b6142ce611405565b156142eb5760405162461bcd60e51b8152600401610c2a9061577c565b6040805160a0810182524281526000602082018181529282018481526060830186815260016080850181815261011580548084018255955294517f77886ee853a0f02c8259429c7bfca08679ca3ab8bdec2c3bd5cca8557e06493a60059095029485015594517f77886ee853a0f02c8259429c7bfca08679ca3ab8bdec2c3bd5cca8557e06493b84015590517f77886ee853a0f02c8259429c7bfca08679ca3ab8bdec2c3bd5cca8557e06493c830155517f77886ee853a0f02c8259429c7bfca08679ca3ab8bdec2c3bd5cca8557e06493d82015590517f77886ee853a0f02c8259429c7bfca08679ca3ab8bdec2c3bd5cca8557e06493e909101805460ff19169115159190911790556101165461440291614a3e565b6101165561011554614415906001614b1e565b7fb945bcda8f8d8c82f1c88841e11023489894d49454d6ace5ecae989cc98312eb838333604051610f7a93929190615a99565b6101096020526000908152604090205481565b6001600160a01b038216600090815261010d602052604090205461010a80543391908390811061449b57634e487b7160e01b600052603260045260246000fd5b60009182526020909120600890910201546001600160a01b0316146144d25760405162461bcd60e51b8152600401610c2a90615688565b6001600160a01b038316600090815261010d602052604090205461010a80548290811061450f57634e487b7160e01b600052603260045260246000fd5b906000526020600020906008020160070160019054906101000a900460ff16801561456f575061010a818154811061455757634e487b7160e01b600052603260045260246000fd5b600091825260209091206007600890920201015460ff165b61458b5760405162461bcd60e51b8152600401610c2a906157d6565b6001600160a01b038416600090815261010d602052604090205461010a8054829081106145c857634e487b7160e01b600052603260045260246000fd5b906000526020600020906008020160070160029054906101000a900460ff166146035760405162461bcd60e51b8152600401610c2a9061584f565b6001600160a01b038516600090815261010d602090815260408083205483526101089091529020546146359085614a3e565b6001600160a01b038616600090815261010d602090815260408083205483526101089091529020556101075461466b9085614a3e565b610107555050505050565b60fb546001600160a01b031681565b6101146020526000908152604090205481565b6000610bd4600080516020615cbe83398151915283611e62565b6146bd600033611e62565b6146c657600080fd5b610102826040516146d79190615372565b9081526040519081900360200190205460ff166146f357600080fd5b80610103836040516147059190615372565b9081526020016040518091039020819055507fbc919136a8fb104c2db80a9fd7282bf95ca792ce133a4f35f74ecb683aa945a182826040516147489291906155bb565b60405180910390a15050565b6001600160e01b031981166301ffc9a760e01b14919050565b614775611405565b156147925760405162461bcd60e51b8152600401610c2a9061577c565b6097805460ff191660011790557f62e78cea01bee320cd4e420270b5ea74000d11b0c9f74754ebdbfc544b05a2586147c8614832565b6040516147d5919061541a565b60405180910390a1565b6147e7611405565b6148035760405162461bcd60e51b8152600401610c2a90615612565b6097805460ff191690557f5db9ee0a495bf2e6ff9c91a7834c1ba4fdd244a5e8aa4e537bd38aeae4b073aa6147c85b3390565b6148408282611e62565b61117557614858816001600160a01b03166014614b2a565b614863836020614b2a565b6040516020016148749291906153ab565b60408051601f198184030181529082905262461bcd60e51b8252610c2a916004016155a8565b6148a48282611e62565b6111755760008281526065602090815260408083206001600160a01b03851684529091529020805460ff191660011790556148dd614832565b6001600160a01b0316816001600160a01b0316837f2f8788117e7eff1d82e926ec794901d17c78024a50270940304540a733656f0d60405160405180910390a45050565b61492b8282611e62565b156111755760008281526065602090815260408083206001600160a01b03851684529091529020805460ff19169055614962614832565b6001600160a01b0316816001600160a01b0316837ff6391f5c32d9c69d2a47ea670b442974b53935d1edc7fd64eb21e047a839171b60405160405180910390a45050565b611175828261489a565b806149ba83610ed4565b60405184907fbd79b86ffe0ab8e8776151514217cd7cacd52c909f66475c3af44e129f0b00ff90600090a460009182526065602052604090912060010155565b614a02614fe3565b50604080516020810190915290815290565b614a1c614fe3565b6040518060200160405280614a35856000015185614cdb565b90529392505050565b6000614a4a8284615b04565b9392505050565b614aa9846323b872dd60e01b858585604051602401614a72939291906154fb565b60408051601f198184030181529190526020810180516001600160e01b03166001600160e01b031990931692909217909152614cff565b50505050565b6000604051733d602d80600a3d3981f3363d3d373d3d3d363d7360601b81528260601b60148201526e5af43d82803e903d91602b57fd5bf360881b60288201526037816000f09150506001600160a01b038116610bd75760405162461bcd60e51b8152600401610c2a906157a6565b6000614a4a8284615b5b565b60606000614b39836002615b3c565b614b44906002615b04565b6001600160401b03811115614b6957634e487b7160e01b600052604160045260246000fd5b6040519080825280601f01601f191660200182016040528015614b93576020820181803683370190505b509050600360fc1b81600081518110614bbc57634e487b7160e01b600052603260045260246000fd5b60200101906001600160f81b031916908160001a905350600f60fb1b81600181518110614bf957634e487b7160e01b600052603260045260246000fd5b60200101906001600160f81b031916908160001a9053506000614c1d846002615b3c565b614c28906001615b04565b90505b6001811115614cbc576f181899199a1a9b1b9c1cb0b131b232b360811b85600f1660108110614c6a57634e487b7160e01b600052603260045260246000fd5b1a60f81b828281518110614c8e57634e487b7160e01b600052603260045260246000fd5b60200101906001600160f81b031916908160001a90535060049490941c93614cb581615b9e565b9050614c2b565b508315614a4a5760405162461bcd60e51b8152600401610c2a906155dd565b8051600090614a4a90614cf985676765c793fa10079d601b1b614d8e565b90614dd3565b6000614d54826040518060400160405280602081526020017f5361666545524332303a206c6f772d6c6576656c2063616c6c206661696c6564815250856001600160a01b0316614e129092919063ffffffff16565b805190915015610fb15780806020019051810190614d72919061519d565b610fb15760405162461bcd60e51b8152600401610c2a906159b2565b600082614d9d57506000611e89565b6000614da98385615b3c565b905082614db68583615b1c565b14614a4a5760405162461bcd60e51b8152600401610c2a9061587b565b6000614a4a83836040518060400160405280601a815260200179536166654d6174683a206469766973696f6e206279207a65726f60301b815250614e29565b6060614e218484600085614e60565b949350505050565b60008183614e4a5760405162461bcd60e51b8152600401610c2a91906155a8565b506000614e578486615b1c565b95945050505050565b606082471015614e825760405162461bcd60e51b8152600401610c2a9061570d565b614e8b85614f20565b614ea75760405162461bcd60e51b8152600401610c2a90615916565b600080866001600160a01b03168587604051614ec39190615372565b60006040518083038185875af1925050503d8060008114614f00576040519150601f19603f3d011682016040523d82523d6000602084013e614f05565b606091505b5091509150614f15828286614f26565b979650505050505050565b3b151590565b60608315614f35575081614a4a565b825115614f455782518084602001fd5b8160405162461bcd60e51b8152600401610c2a91906155a8565b828054614f6b90615bb5565b90600052602060002090601f016020900481019282614f8d5760008555614fd3565b82601f10614fa657805160ff1916838001178555614fd3565b82800160010185558215614fd3579182015b82811115614fd3578251825591602001919060010190614fb8565b50614fdf929150614ff6565b5090565b6040518060200160405280600081525090565b5b80821115614fdf5760008155600101614ff7565b600082601f83011261501b578081fd5b81356001600160401b038082111561503557615035615c21565b604051601f8301601f19168101602001828111828210171561505957615059615c21565b604052828152848301602001861015615070578384fd5b82602086016020830137918201602001929092529392505050565b60006020828403121561509c578081fd5b8135614a4a81615c37565b600080604083850312156150b9578081fd5b82356150c481615c37565b915060208301356150d481615c37565b809150509250929050565b6000806000606084860312156150f3578081fd5b83356150fe81615c37565b9250602084013561510e81615c37565b9150604084013561511e81615c37565b809150509250925092565b6000806040838503121561513b578182fd5b823561514681615c37565b915060208301356150d481615c4f565b60008060408385031215615168578182fd5b823561517381615c37565b946020939093013593505050565b600060208284031215615192578081fd5b8135614a4a81615c4f565b6000602082840312156151ae578081fd5b8151614a4a81615c4f565b6000602082840312156151ca578081fd5b5035919050565b600080604083850312156151e3578182fd5b8235915060208301356150d481615c37565b600060208284031215615206578081fd5b81356001600160e01b031981168114614a4a578182fd5b60006020828403121561522e578081fd5b81356001600160401b03811115615243578182fd5b614e218482850161500b565b60008060408385031215615261578182fd5b82356001600160401b03811115615276578283fd5b6152828582860161500b565b95602094909401359450505050565b6000602082840312156152a2578081fd5b5051919050565b600080604083850312156152bb578182fd5b8235915060208301356150d481615c4f565b600080604083850312156152df578182fd5b50508035926020909101359150565b600080600060608486031215615302578081fd5b8335925060208401359150604084013561511e81615c37565b60008060006060848603121561532f578081fd5b505081359360208301359350604090920135919050565b6000815180845261535e816020860160208601615b72565b601f01601f19169290920160200192915050565b60008251615384818460208701615b72565b9190910192915050565b703232b330bab63a21b7b6b6b4b9b9b4b7b760791b815260110190565b600076020b1b1b2b9b9a1b7b73a3937b61d1030b1b1b7bab73a1604d1b825283516153dd816017850160208801615b72565b7001034b99036b4b9b9b4b733903937b6329607d1b601791840191820152835161540e816028840160208801615b72565b01602801949350505050565b6001600160a01b0391909116815260200190565b6001600160a01b0393841681529183166020830152909116604082015260600190565b6001600160a01b0392831681529116602082015260400190565b6001600160a01b039687168152948616602086015292851660408501526060840191909152608083015290911660a082015260c00190565b6001600160a01b039a8b168152988a1660208a01529690981660408801526060870194909452608086019290925260a085015260c0840152151560e08301529115156101008201529015156101208201526101400190565b6001600160a01b039384168152919092166020820152604081019190915260600190565b6001600160a01b0395909516855260208501939093526040840191909152151560608301521515608082015260a00190565b901515815260200190565b91151582526001600160a01b0316602082015260400190565b90815260200190565b6001600160a01b039485168152928416602084015292166040820152606081019190915260800190565b600060208252614a4a6020830184615346565b6000604082526155ce6040830185615346565b90508260208301529392505050565b6020808252818101527f537472696e67733a20686578206c656e67746820696e73756666696369656e74604082015260600190565b60208082526014908201527314185d5cd8589b194e881b9bdd081c185d5cd95960621b604082015260600190565b60208082526028908201527f63616d706169676e20666561747572652065787069726564206f72206e6f7420604082015267656c696769626c6560c01b606082015260800190565b60208082526013908201527237b7363c9031b0b6b830b4b3b71037bbb732b960691b604082015260600190565b6020808252601190820152701c1858dad859d9481b9bdd08199bdd5b99607a1b604082015260600190565b6020808252601390820152721d5cd95c88191bd95cc81b9bdd08195e1a5cdd606a1b604082015260600190565b60208082526026908201527f416464726573733a20696e73756666696369656e742062616c616e636520666f6040820152651c8818d85b1b60d21b606082015260800190565b6020808252600f908201526e3ab73b32b934b334b2b2103ab9b2b960891b604082015260600190565b60208082526010908201526f14185d5cd8589b194e881c185d5cd95960821b604082015260600190565b602080825260169082015275115490cc4c4d8dce8818dc99585d194819985a5b195960521b604082015260600190565b60208082526011908201527018d85b5c185a59db88191a5cd8589b1959607a1b604082015260600190565b6020808252602e908201527f496e697469616c697a61626c653a20636f6e747261637420697320616c72656160408201526d191e481a5b9a5d1a585b1a5e995960921b606082015260800190565b60208082526012908201527118d85b5c185a59db881b9bdd08199bdd5b9960721b604082015260600190565b60208082526021908201527f536166654d6174683a206d756c7469706c69636174696f6e206f766572666c6f6040820152607760f81b606082015260800190565b6020808252601190820152703234b9b0b8383937bb32b2103a37b5b2b760791b604082015260600190565b60208082526015908201527418d85b5c185a59db881b9bdd08185c1c1c9bdd9959605a1b604082015260600190565b6020808252601d908201527f416464726573733a2063616c6c20746f206e6f6e2d636f6e7472616374000000604082015260600190565b6020808252601f908201527f63616d706169676e206665617475726520616c72656164792070617573656400604082015260600190565b6020808252601490820152731c1c9a58d948195e18d959591cc8185b5bdd5b9d60621b604082015260600190565b6020808252602a908201527f5361666545524332303a204552433230206f7065726174696f6e20646964206e6040820152691bdd081cdd58d8d9595960b21b606082015260800190565b6020808252601f908201527f5265656e7472616e637947756172643a207265656e7472616e742063616c6c00604082015260600190565b6020808252602f908201527f416363657373436f6e74726f6c3a2063616e206f6e6c792072656e6f756e636560408201526e103937b632b9903337b91039b2b63360891b606082015260800190565b9182526001600160a01b0316602082015260400190565b92835260208301919091526001600160a01b0316604082015260600190565b94855260208501939093526040840191909152151560608301521515608082015260a00190565b9485526020850193909352604084019190915260608301521515608082015260a00190565b60008219821115615b1757615b17615c0b565b500190565b600082615b3757634e487b7160e01b81526012600452602481fd5b500490565b6000816000190483118215151615615b5657615b56615c0b565b500290565b600082821015615b6d57615b6d615c0b565b500390565b60005b83811015615b8d578181015183820152602001615b75565b83811115614aa95750506000910152565b600081615bad57615bad615c0b565b506000190190565b600281046001821680615bc957607f821691505b60208210811415615bea57634e487b7160e01b600052602260045260246000fd5b50919050565b6000600019821415615c0457615c04615c0b565b5060010190565b634e487b7160e01b600052601160045260246000fd5b634e487b7160e01b600052604160045260246000fd5b6001600160a01b0381168114615c4c57600080fd5b50565b8015158114615c4c57600080fdfe2f48ac32db572e9fd979463d8692f03bd4eabb1f84bdfc70f736e3d2676cd74859c43de4b358bfa9c13f4bebb43cf699c69e54d2ce0694b006e9e1ac79c3c487f6e2b6a9e36d5fd426522b11d2a13c90b3f41f54a9a282959b77755bdf72afe5b0d00cdca7af6ed7bd59bdc60d7090a56e20455c0a0ac7451ba6d10780ded9e3a264697066735822122089b8f4c83fdce5e02c51d7268735e5b0f9d084e8179b372e2da140a7e9ae6fba64736f6c63430008000033",
			"opcodes": "PUSH1 0x80 PUSH1 0x40 MSTORE CALLVALUE DUP1 ISZERO PUSH2 0x10 JUMPI PUSH1 0x0 DUP1 REVERT JUMPDEST POP PUSH2 0x5D13 DUP1 PUSH3 0x21 PUSH1 0x0 CODECOPY PUSH1 0x0 RETURN INVALID PUSH1 0x80 PUSH1 0x40 MSTORE PUSH1 0x4 CALLDATASIZE LT PUSH2 0x320 JUMPI PUSH1 0x0 CALLDATALOAD PUSH1 0xE0 SHR DUP1 PUSH4 0x1FFC9A7 EQ PUSH2 0x325 JUMPI DUP1 PUSH4 0x7973CCF EQ PUSH2 0x35B JUMPI DUP1 PUSH4 0x92093D8 EQ PUSH2 0x37D JUMPI DUP1 PUSH4 0xD10F3B5 EQ PUSH2 0x39F JUMPI DUP1 PUSH4 0x10595AA7 EQ PUSH2 0x3B4 JUMPI DUP1 PUSH4 0x14F7EA99 EQ PUSH2 0x3D4 JUMPI DUP1 PUSH4 0x1AA2F9D7 EQ PUSH2 0x3F4 JUMPI DUP1 PUSH4 0x1C8E541B EQ PUSH2 0x414 JUMPI DUP1 PUSH4 0x20966F22 EQ PUSH2 0x429 JUMPI DUP1 PUSH4 0x248A9CA3 EQ PUSH2 0x449 JUMPI DUP1 PUSH4 0x24BA73A2 EQ PUSH2 0x469 JUMPI DUP1 PUSH4 0x2BE32DBB EQ PUSH2 0x489 JUMPI DUP1 PUSH4 0x2F2FF15D EQ PUSH2 0x49E JUMPI DUP1 PUSH4 0x333C4F93 EQ PUSH2 0x4BE JUMPI DUP1 PUSH4 0x339D50A5 EQ PUSH2 0x4DE JUMPI DUP1 PUSH4 0x33FE5676 EQ PUSH2 0x514 JUMPI DUP1 PUSH4 0x36568ABE EQ PUSH2 0x534 JUMPI DUP1 PUSH4 0x365B98B2 EQ PUSH2 0x554 JUMPI DUP1 PUSH4 0x3D693D1C EQ PUSH2 0x585 JUMPI DUP1 PUSH4 0x48B30E35 EQ PUSH2 0x5A5 JUMPI DUP1 PUSH4 0x4CAA13A9 EQ PUSH2 0x5BA JUMPI DUP1 PUSH4 0x4F9DE6E2 EQ PUSH2 0x5E7 JUMPI DUP1 PUSH4 0x50450930 EQ PUSH2 0x5FC JUMPI DUP1 PUSH4 0x5C975ABB EQ PUSH2 0x61C JUMPI DUP1 PUSH4 0x5D4BC7E3 EQ PUSH2 0x631 JUMPI DUP1 PUSH4 0x5F87D16F EQ PUSH2 0x651 JUMPI DUP1 PUSH4 0x5FD0B69F EQ PUSH2 0x671 JUMPI DUP1 PUSH4 0x6219FE3D EQ PUSH2 0x6A2 JUMPI DUP1 PUSH4 0x62A6E065 EQ PUSH2 0x6C2 JUMPI DUP1 PUSH4 0x6853920E EQ PUSH2 0x6E4 JUMPI DUP1 PUSH4 0x7274E30D EQ PUSH2 0x704 JUMPI DUP1 PUSH4 0x7E0732A8 EQ PUSH2 0x719 JUMPI DUP1 PUSH4 0x81994D04 EQ PUSH2 0x739 JUMPI DUP1 PUSH4 0x8BAD0C0A EQ PUSH2 0x74E JUMPI DUP1 PUSH4 0x9184353F EQ PUSH2 0x763 JUMPI DUP1 PUSH4 0x91D14854 EQ PUSH2 0x783 JUMPI DUP1 PUSH4 0x9590292F EQ PUSH2 0x7A3 JUMPI DUP1 PUSH4 0x96A75664 EQ PUSH2 0x7B8 JUMPI DUP1 PUSH4 0x986C1798 EQ PUSH2 0x7CB JUMPI DUP1 PUSH4 0x98F11BCE EQ PUSH2 0x7EB JUMPI DUP1 PUSH4 0x9EAD7222 EQ PUSH2 0x80B JUMPI DUP1 PUSH4 0x9EE25AE4 EQ PUSH2 0x82B JUMPI DUP1 PUSH4 0x9EE9BBEE EQ PUSH2 0x840 JUMPI DUP1 PUSH4 0x9FF84662 EQ PUSH2 0x855 JUMPI DUP1 PUSH4 0xA174743A EQ PUSH2 0x875 JUMPI DUP1 PUSH4 0xA217FDDF EQ PUSH2 0x895 JUMPI DUP1 PUSH4 0xA3134319 EQ PUSH2 0x8AA JUMPI DUP1 PUSH4 0xA3303A75 EQ PUSH2 0x8BF JUMPI DUP1 PUSH4 0xA55B3B31 EQ PUSH2 0x8DF JUMPI DUP1 PUSH4 0xA73F7F8A EQ PUSH2 0x8FF JUMPI DUP1 PUSH4 0xA8542740 EQ PUSH2 0x91F JUMPI DUP1 PUSH4 0xB1BBA29B EQ PUSH2 0x93F JUMPI DUP1 PUSH4 0xB30326DB EQ PUSH2 0x954 JUMPI DUP1 PUSH4 0xB6E33ABF EQ PUSH2 0x974 JUMPI DUP1 PUSH4 0xBC3D5A30 EQ PUSH2 0x9A5 JUMPI DUP1 PUSH4 0xBF96AE63 EQ PUSH2 0x9C5 JUMPI DUP1 PUSH4 0xC6C323FC EQ PUSH2 0x9DA JUMPI DUP1 PUSH4 0xC9DC36FB EQ PUSH2 0x9FA JUMPI DUP1 PUSH4 0xCA68DFE4 EQ PUSH2 0xA1A JUMPI DUP1 PUSH4 0xCF8A84D0 EQ PUSH2 0xA3A JUMPI DUP1 PUSH4 0xCFA40830 EQ PUSH2 0xA5A JUMPI DUP1 PUSH4 0xD48BFCA7 EQ PUSH2 0xA7A JUMPI DUP1 PUSH4 0xD547741F EQ PUSH2 0xA9A JUMPI DUP1 PUSH4 0xD5B6C20E EQ PUSH2 0xABA JUMPI DUP1 PUSH4 0xDC1A10C0 EQ PUSH2 0xADA JUMPI DUP1 PUSH4 0xDF46E21E EQ PUSH2 0xAFA JUMPI DUP1 PUSH4 0xE128C969 EQ PUSH2 0xB1A JUMPI DUP1 PUSH4 0xEBF0C717 EQ PUSH2 0xB3A JUMPI DUP1 PUSH4 0xEDA7794E EQ PUSH2 0xB4F JUMPI DUP1 PUSH4 0xF7878C69 EQ PUSH2 0xB6F JUMPI DUP1 PUSH4 0xF89FA22D EQ PUSH2 0xB8F JUMPI JUMPDEST PUSH1 0x0 DUP1 REVERT JUMPDEST CALLVALUE DUP1 ISZERO PUSH2 0x331 JUMPI PUSH1 0x0 DUP1 REVERT JUMPDEST POP PUSH2 0x345 PUSH2 0x340 CALLDATASIZE PUSH1 0x4 PUSH2 0x51F5 JUMP JUMPDEST PUSH2 0xBAF JUMP JUMPDEST PUSH1 0x40 MLOAD PUSH2 0x352 SWAP2 SWAP1 PUSH2 0x5551 JUMP JUMPDEST PUSH1 0x40 MLOAD DUP1 SWAP2 SUB SWAP1 RETURN JUMPDEST CALLVALUE DUP1 ISZERO PUSH2 0x367 JUMPI PUSH1 0x0 DUP1 REVERT JUMPDEST POP PUSH2 0x370 PUSH2 0xBDC JUMP JUMPDEST PUSH1 0x40 MLOAD PUSH2 0x352 SWAP2 SWAP1 PUSH2 0x5575 JUMP JUMPDEST CALLVALUE DUP1 ISZERO PUSH2 0x389 JUMPI PUSH1 0x0 DUP1 REVERT JUMPDEST POP PUSH2 0x39D PUSH2 0x398 CALLDATASIZE PUSH1 0x4 PUSH2 0x52A9 JUMP JUMPDEST PUSH2 0xBE3 JUMP JUMPDEST STOP JUMPDEST CALLVALUE DUP1 ISZERO PUSH2 0x3AB JUMPI PUSH1 0x0 DUP1 REVERT JUMPDEST POP PUSH2 0x39D PUSH2 0xD3F JUMP JUMPDEST CALLVALUE DUP1 ISZERO PUSH2 0x3C0 JUMPI PUSH1 0x0 DUP1 REVERT JUMPDEST POP PUSH2 0x39D PUSH2 0x3CF CALLDATASIZE PUSH1 0x4 PUSH2 0x50DF JUMP JUMPDEST PUSH2 0xD82 JUMP JUMPDEST CALLVALUE DUP1 ISZERO PUSH2 0x3E0 JUMPI PUSH1 0x0 DUP1 REVERT JUMPDEST POP PUSH2 0x370 PUSH2 0x3EF CALLDATASIZE PUSH1 0x4 PUSH2 0x521D JUMP JUMPDEST PUSH2 0xE4D JUMP JUMPDEST CALLVALUE DUP1 ISZERO PUSH2 0x400 JUMPI PUSH1 0x0 DUP1 REVERT JUMPDEST POP PUSH2 0x370 PUSH2 0x40F CALLDATASIZE PUSH1 0x4 PUSH2 0x51B9 JUMP JUMPDEST PUSH2 0xE6B JUMP JUMPDEST CALLVALUE DUP1 ISZERO PUSH2 0x420 JUMPI PUSH1 0x0 DUP1 REVERT JUMPDEST POP PUSH2 0x39D PUSH2 0xE7E JUMP JUMPDEST CALLVALUE DUP1 ISZERO PUSH2 0x435 JUMPI PUSH1 0x0 DUP1 REVERT JUMPDEST POP PUSH2 0x345 PUSH2 0x444 CALLDATASIZE PUSH1 0x4 PUSH2 0x508B JUMP JUMPDEST PUSH2 0xEBE JUMP JUMPDEST CALLVALUE DUP1 ISZERO PUSH2 0x455 JUMPI PUSH1 0x0 DUP1 REVERT JUMPDEST POP PUSH2 0x370 PUSH2 0x464 CALLDATASIZE PUSH1 0x4 PUSH2 0x51B9 JUMP JUMPDEST PUSH2 0xED4 JUMP JUMPDEST CALLVALUE DUP1 ISZERO PUSH2 0x475 JUMPI PUSH1 0x0 DUP1 REVERT JUMPDEST POP PUSH2 0x39D PUSH2 0x484 CALLDATASIZE PUSH1 0x4 PUSH2 0x5129 JUMP JUMPDEST PUSH2 0xEE9 JUMP JUMPDEST CALLVALUE DUP1 ISZERO PUSH2 0x495 JUMPI PUSH1 0x0 DUP1 REVERT JUMPDEST POP PUSH2 0x370 PUSH2 0xF86 JUMP JUMPDEST CALLVALUE DUP1 ISZERO PUSH2 0x4AA JUMPI PUSH1 0x0 DUP1 REVERT JUMPDEST POP PUSH2 0x39D PUSH2 0x4B9 CALLDATASIZE PUSH1 0x4 PUSH2 0x51D1 JUMP JUMPDEST PUSH2 0xF8D JUMP JUMPDEST CALLVALUE DUP1 ISZERO PUSH2 0x4CA JUMPI PUSH1 0x0 DUP1 REVERT JUMPDEST POP PUSH2 0x345 PUSH2 0x4D9 CALLDATASIZE PUSH1 0x4 PUSH2 0x521D JUMP JUMPDEST PUSH2 0xFB6 JUMP JUMPDEST CALLVALUE DUP1 ISZERO PUSH2 0x4EA JUMPI PUSH1 0x0 DUP1 REVERT JUMPDEST POP PUSH2 0x4FE PUSH2 0x4F9 CALLDATASIZE PUSH1 0x4 PUSH2 0x51B9 JUMP JUMPDEST PUSH2 0xFD7 JUMP JUMPDEST PUSH1 0x40 MLOAD PUSH2 0x352 SWAP11 SWAP10 SWAP9 SWAP8 SWAP7 SWAP6 SWAP5 SWAP4 SWAP3 SWAP2 SWAP1 PUSH2 0x54A3 JUMP JUMPDEST CALLVALUE DUP1 ISZERO PUSH2 0x520 JUMPI PUSH1 0x0 DUP1 REVERT JUMPDEST POP PUSH2 0x39D PUSH2 0x52F CALLDATASIZE PUSH1 0x4 PUSH2 0x51D1 JUMP JUMPDEST PUSH2 0x1052 JUMP JUMPDEST CALLVALUE DUP1 ISZERO PUSH2 0x540 JUMPI PUSH1 0x0 DUP1 REVERT JUMPDEST POP PUSH2 0x39D PUSH2 0x54F CALLDATASIZE PUSH1 0x4 PUSH2 0x51D1 JUMP JUMPDEST PUSH2 0x1133 JUMP JUMPDEST CALLVALUE DUP1 ISZERO PUSH2 0x560 JUMPI PUSH1 0x0 DUP1 REVERT JUMPDEST POP PUSH2 0x574 PUSH2 0x56F CALLDATASIZE PUSH1 0x4 PUSH2 0x51B9 JUMP JUMPDEST PUSH2 0x1179 JUMP JUMPDEST PUSH1 0x40 MLOAD PUSH2 0x352 SWAP6 SWAP5 SWAP4 SWAP3 SWAP2 SWAP1 PUSH2 0x551F JUMP JUMPDEST CALLVALUE DUP1 ISZERO PUSH2 0x591 JUMPI PUSH1 0x0 DUP1 REVERT JUMPDEST POP PUSH2 0x39D PUSH2 0x5A0 CALLDATASIZE PUSH1 0x4 PUSH2 0x531B JUMP JUMPDEST PUSH2 0x11CA JUMP JUMPDEST CALLVALUE DUP1 ISZERO PUSH2 0x5B1 JUMPI PUSH1 0x0 DUP1 REVERT JUMPDEST POP PUSH2 0x370 PUSH2 0x1321 JUMP JUMPDEST CALLVALUE DUP1 ISZERO PUSH2 0x5C6 JUMPI PUSH1 0x0 DUP1 REVERT JUMPDEST POP PUSH2 0x5DA PUSH2 0x5D5 CALLDATASIZE PUSH1 0x4 PUSH2 0x51B9 JUMP JUMPDEST PUSH2 0x1333 JUMP JUMPDEST PUSH1 0x40 MLOAD PUSH2 0x352 SWAP2 SWAP1 PUSH2 0x55A8 JUMP JUMPDEST CALLVALUE DUP1 ISZERO PUSH2 0x5F3 JUMPI PUSH1 0x0 DUP1 REVERT JUMPDEST POP PUSH2 0x370 PUSH2 0x13E0 JUMP JUMPDEST CALLVALUE DUP1 ISZERO PUSH2 0x608 JUMPI PUSH1 0x0 DUP1 REVERT JUMPDEST POP PUSH2 0x370 PUSH2 0x617 CALLDATASIZE PUSH1 0x4 PUSH2 0x51B9 JUMP JUMPDEST PUSH2 0x13F2 JUMP JUMPDEST CALLVALUE DUP1 ISZERO PUSH2 0x628 JUMPI PUSH1 0x0 DUP1 REVERT JUMPDEST POP PUSH2 0x345 PUSH2 0x1405 JUMP JUMPDEST CALLVALUE DUP1 ISZERO PUSH2 0x63D JUMPI PUSH1 0x0 DUP1 REVERT JUMPDEST POP PUSH2 0x39D PUSH2 0x64C CALLDATASIZE PUSH1 0x4 PUSH2 0x50A7 JUMP JUMPDEST PUSH2 0x140E JUMP JUMPDEST CALLVALUE DUP1 ISZERO PUSH2 0x65D JUMPI PUSH1 0x0 DUP1 REVERT JUMPDEST POP PUSH2 0x39D PUSH2 0x66C CALLDATASIZE PUSH1 0x4 PUSH2 0x521D JUMP JUMPDEST PUSH2 0x1B0A JUMP JUMPDEST CALLVALUE DUP1 ISZERO PUSH2 0x67D JUMPI PUSH1 0x0 DUP1 REVERT JUMPDEST POP PUSH2 0x691 PUSH2 0x68C CALLDATASIZE PUSH1 0x4 PUSH2 0x51B9 JUMP JUMPDEST PUSH2 0x1BC7 JUMP JUMPDEST PUSH1 0x40 MLOAD PUSH2 0x352 SWAP6 SWAP5 SWAP4 SWAP3 SWAP2 SWAP1 PUSH2 0x5AB8 JUMP JUMPDEST CALLVALUE DUP1 ISZERO PUSH2 0x6AE JUMPI PUSH1 0x0 DUP1 REVERT JUMPDEST POP PUSH2 0x345 PUSH2 0x6BD CALLDATASIZE PUSH1 0x4 PUSH2 0x51B9 JUMP JUMPDEST PUSH2 0x1C0E JUMP JUMPDEST CALLVALUE DUP1 ISZERO PUSH2 0x6CE JUMPI PUSH1 0x0 DUP1 REVERT JUMPDEST POP PUSH2 0x6D7 PUSH2 0x1C24 JUMP JUMPDEST PUSH1 0x40 MLOAD PUSH2 0x352 SWAP2 SWAP1 PUSH2 0x541A JUMP JUMPDEST CALLVALUE DUP1 ISZERO PUSH2 0x6F0 JUMPI PUSH1 0x0 DUP1 REVERT JUMPDEST POP PUSH2 0x39D PUSH2 0x6FF CALLDATASIZE PUSH1 0x4 PUSH2 0x5156 JUMP JUMPDEST PUSH2 0x1C33 JUMP JUMPDEST CALLVALUE DUP1 ISZERO PUSH2 0x710 JUMPI PUSH1 0x0 DUP1 REVERT JUMPDEST POP PUSH2 0x370 PUSH2 0x1C51 JUMP JUMPDEST CALLVALUE DUP1 ISZERO PUSH2 0x725 JUMPI PUSH1 0x0 DUP1 REVERT JUMPDEST POP PUSH2 0x39D PUSH2 0x734 CALLDATASIZE PUSH1 0x4 PUSH2 0x52CD JUMP JUMPDEST PUSH2 0x1C58 JUMP JUMPDEST CALLVALUE DUP1 ISZERO PUSH2 0x745 JUMPI PUSH1 0x0 DUP1 REVERT JUMPDEST POP PUSH2 0x6D7 PUSH2 0x1CDF JUMP JUMPDEST CALLVALUE DUP1 ISZERO PUSH2 0x75A JUMPI PUSH1 0x0 DUP1 REVERT JUMPDEST POP PUSH2 0x39D PUSH2 0x1CEE JUMP JUMPDEST CALLVALUE DUP1 ISZERO PUSH2 0x76F JUMPI PUSH1 0x0 DUP1 REVERT JUMPDEST POP PUSH2 0x39D PUSH2 0x77E CALLDATASIZE PUSH1 0x4 PUSH2 0x51B9 JUMP JUMPDEST PUSH2 0x1CF9 JUMP JUMPDEST CALLVALUE DUP1 ISZERO PUSH2 0x78F JUMPI PUSH1 0x0 DUP1 REVERT JUMPDEST POP PUSH2 0x345 PUSH2 0x79E CALLDATASIZE PUSH1 0x4 PUSH2 0x51D1 JUMP JUMPDEST PUSH2 0x1E62 JUMP JUMPDEST CALLVALUE DUP1 ISZERO PUSH2 0x7AF JUMPI PUSH1 0x0 DUP1 REVERT JUMPDEST POP PUSH2 0x6D7 PUSH2 0x1E8F JUMP JUMPDEST PUSH2 0x39D PUSH2 0x7C6 CALLDATASIZE PUSH1 0x4 PUSH2 0x52EE JUMP JUMPDEST PUSH2 0x1E9E JUMP JUMPDEST CALLVALUE DUP1 ISZERO PUSH2 0x7D7 JUMPI PUSH1 0x0 DUP1 REVERT JUMPDEST POP PUSH2 0x39D PUSH2 0x7E6 CALLDATASIZE PUSH1 0x4 PUSH2 0x531B JUMP JUMPDEST PUSH2 0x2401 JUMP JUMPDEST CALLVALUE DUP1 ISZERO PUSH2 0x7F7 JUMPI PUSH1 0x0 DUP1 REVERT JUMPDEST POP PUSH2 0x370 PUSH2 0x806 CALLDATASIZE PUSH1 0x4 PUSH2 0x51B9 JUMP JUMPDEST PUSH2 0x24C6 JUMP JUMPDEST CALLVALUE DUP1 ISZERO PUSH2 0x817 JUMPI PUSH1 0x0 DUP1 REVERT JUMPDEST POP PUSH2 0x6D7 PUSH2 0x826 CALLDATASIZE PUSH1 0x4 PUSH2 0x51B9 JUMP JUMPDEST PUSH2 0x24D9 JUMP JUMPDEST CALLVALUE DUP1 ISZERO PUSH2 0x837 JUMPI PUSH1 0x0 DUP1 REVERT JUMPDEST POP PUSH2 0x370 PUSH2 0x2504 JUMP JUMPDEST CALLVALUE DUP1 ISZERO PUSH2 0x84C JUMPI PUSH1 0x0 DUP1 REVERT JUMPDEST POP PUSH2 0x6D7 PUSH2 0x250B JUMP JUMPDEST CALLVALUE DUP1 ISZERO PUSH2 0x861 JUMPI PUSH1 0x0 DUP1 REVERT JUMPDEST POP PUSH2 0x39D PUSH2 0x870 CALLDATASIZE PUSH1 0x4 PUSH2 0x51B9 JUMP JUMPDEST PUSH2 0x251A JUMP JUMPDEST CALLVALUE DUP1 ISZERO PUSH2 0x881 JUMPI PUSH1 0x0 DUP1 REVERT JUMPDEST POP PUSH2 0x6D7 PUSH2 0x890 CALLDATASIZE PUSH1 0x4 PUSH2 0x508B JUMP JUMPDEST PUSH2 0x2627 JUMP JUMPDEST CALLVALUE DUP1 ISZERO PUSH2 0x8A1 JUMPI PUSH1 0x0 DUP1 REVERT JUMPDEST POP PUSH2 0x370 PUSH2 0x2643 JUMP JUMPDEST CALLVALUE DUP1 ISZERO PUSH2 0x8B6 JUMPI PUSH1 0x0 DUP1 REVERT JUMPDEST POP PUSH2 0x370 PUSH2 0x2648 JUMP JUMPDEST CALLVALUE DUP1 ISZERO PUSH2 0x8CB JUMPI PUSH1 0x0 DUP1 REVERT JUMPDEST POP PUSH2 0x39D PUSH2 0x8DA CALLDATASIZE PUSH1 0x4 PUSH2 0x51B9 JUMP JUMPDEST PUSH2 0x265A JUMP JUMPDEST CALLVALUE DUP1 ISZERO PUSH2 0x8EB JUMPI PUSH1 0x0 DUP1 REVERT JUMPDEST POP PUSH2 0x39D PUSH2 0x8FA CALLDATASIZE PUSH1 0x4 PUSH2 0x51B9 JUMP JUMPDEST PUSH2 0x2BFC JUMP JUMPDEST CALLVALUE DUP1 ISZERO PUSH2 0x90B JUMPI PUSH1 0x0 DUP1 REVERT JUMPDEST POP PUSH2 0x39D PUSH2 0x91A CALLDATASIZE PUSH1 0x4 PUSH2 0x5156 JUMP JUMPDEST PUSH2 0x2EE5 JUMP JUMPDEST CALLVALUE DUP1 ISZERO PUSH2 0x92B JUMPI PUSH1 0x0 DUP1 REVERT JUMPDEST POP PUSH2 0x345 PUSH2 0x93A CALLDATASIZE PUSH1 0x4 PUSH2 0x508B JUMP JUMPDEST PUSH2 0x2F03 JUMP JUMPDEST CALLVALUE DUP1 ISZERO PUSH2 0x94B JUMPI PUSH1 0x0 DUP1 REVERT JUMPDEST POP PUSH2 0x370 PUSH2 0x2F19 JUMP JUMPDEST CALLVALUE DUP1 ISZERO PUSH2 0x960 JUMPI PUSH1 0x0 DUP1 REVERT JUMPDEST POP PUSH2 0x39D PUSH2 0x96F CALLDATASIZE PUSH1 0x4 PUSH2 0x5181 JUMP JUMPDEST PUSH2 0x2F20 JUMP JUMPDEST CALLVALUE DUP1 ISZERO PUSH2 0x980 JUMPI PUSH1 0x0 DUP1 REVERT JUMPDEST POP PUSH2 0x994 PUSH2 0x98F CALLDATASIZE PUSH1 0x4 PUSH2 0x51B9 JUMP JUMPDEST PUSH2 0x30E3 JUMP JUMPDEST PUSH1 0x40 MLOAD PUSH2 0x352 SWAP6 SWAP5 SWAP4 SWAP3 SWAP2 SWAP1 PUSH2 0x5ADF JUMP JUMPDEST CALLVALUE DUP1 ISZERO PUSH2 0x9B1 JUMPI PUSH1 0x0 DUP1 REVERT JUMPDEST POP PUSH2 0x39D PUSH2 0x9C0 CALLDATASIZE PUSH1 0x4 PUSH2 0x51B9 JUMP JUMPDEST PUSH2 0x3128 JUMP JUMPDEST CALLVALUE DUP1 ISZERO PUSH2 0x9D1 JUMPI PUSH1 0x0 DUP1 REVERT JUMPDEST POP PUSH2 0x39D PUSH2 0x33D5 JUMP JUMPDEST CALLVALUE DUP1 ISZERO PUSH2 0x9E6 JUMPI PUSH1 0x0 DUP1 REVERT JUMPDEST POP PUSH2 0x370 PUSH2 0x9F5 CALLDATASIZE PUSH1 0x4 PUSH2 0x508B JUMP JUMPDEST PUSH2 0x358B JUMP JUMPDEST CALLVALUE DUP1 ISZERO PUSH2 0xA06 JUMPI PUSH1 0x0 DUP1 REVERT JUMPDEST POP PUSH2 0x39D PUSH2 0xA15 CALLDATASIZE PUSH1 0x4 PUSH2 0x52A9 JUMP JUMPDEST PUSH2 0x359E JUMP JUMPDEST CALLVALUE DUP1 ISZERO PUSH2 0xA26 JUMPI PUSH1 0x0 DUP1 REVERT JUMPDEST POP PUSH2 0x39D PUSH2 0xA35 CALLDATASIZE PUSH1 0x4 PUSH2 0x52CD JUMP JUMPDEST PUSH2 0x36E6 JUMP JUMPDEST CALLVALUE DUP1 ISZERO PUSH2 0xA46 JUMPI PUSH1 0x0 DUP1 REVERT JUMPDEST POP PUSH2 0x39D PUSH2 0xA55 CALLDATASIZE PUSH1 0x4 PUSH2 0x51B9 JUMP JUMPDEST PUSH2 0x3AB3 JUMP JUMPDEST CALLVALUE DUP1 ISZERO PUSH2 0xA66 JUMPI PUSH1 0x0 DUP1 REVERT JUMPDEST POP PUSH2 0x39D PUSH2 0xA75 CALLDATASIZE PUSH1 0x4 PUSH2 0x52A9 JUMP JUMPDEST PUSH2 0x3BD5 JUMP JUMPDEST CALLVALUE DUP1 ISZERO PUSH2 0xA86 JUMPI PUSH1 0x0 DUP1 REVERT JUMPDEST POP PUSH2 0x39D PUSH2 0xA95 CALLDATASIZE PUSH1 0x4 PUSH2 0x508B JUMP JUMPDEST PUSH2 0x3D1B JUMP JUMPDEST CALLVALUE DUP1 ISZERO PUSH2 0xAA6 JUMPI PUSH1 0x0 DUP1 REVERT JUMPDEST POP PUSH2 0x39D PUSH2 0xAB5 CALLDATASIZE PUSH1 0x4 PUSH2 0x51D1 JUMP JUMPDEST PUSH2 0x3DED JUMP JUMPDEST CALLVALUE DUP1 ISZERO PUSH2 0xAC6 JUMPI PUSH1 0x0 DUP1 REVERT JUMPDEST POP PUSH2 0x39D PUSH2 0xAD5 CALLDATASIZE PUSH1 0x4 PUSH2 0x52A9 JUMP JUMPDEST PUSH2 0x3E0C JUMP JUMPDEST CALLVALUE DUP1 ISZERO PUSH2 0xAE6 JUMPI PUSH1 0x0 DUP1 REVERT JUMPDEST POP PUSH2 0x39D PUSH2 0xAF5 CALLDATASIZE PUSH1 0x4 PUSH2 0x52CD JUMP JUMPDEST PUSH2 0x42B2 JUMP JUMPDEST CALLVALUE DUP1 ISZERO PUSH2 0xB06 JUMPI PUSH1 0x0 DUP1 REVERT JUMPDEST POP PUSH2 0x370 PUSH2 0xB15 CALLDATASIZE PUSH1 0x4 PUSH2 0x51B9 JUMP JUMPDEST PUSH2 0x4448 JUMP JUMPDEST CALLVALUE DUP1 ISZERO PUSH2 0xB26 JUMPI PUSH1 0x0 DUP1 REVERT JUMPDEST POP PUSH2 0x39D PUSH2 0xB35 CALLDATASIZE PUSH1 0x4 PUSH2 0x5156 JUMP JUMPDEST PUSH2 0x445B JUMP JUMPDEST CALLVALUE DUP1 ISZERO PUSH2 0xB46 JUMPI PUSH1 0x0 DUP1 REVERT JUMPDEST POP PUSH2 0x6D7 PUSH2 0x4676 JUMP JUMPDEST CALLVALUE DUP1 ISZERO PUSH2 0xB5B JUMPI PUSH1 0x0 DUP1 REVERT JUMPDEST POP PUSH2 0x370 PUSH2 0xB6A CALLDATASIZE PUSH1 0x4 PUSH2 0x508B JUMP JUMPDEST PUSH2 0x4685 JUMP JUMPDEST CALLVALUE DUP1 ISZERO PUSH2 0xB7B JUMPI PUSH1 0x0 DUP1 REVERT JUMPDEST POP PUSH2 0x345 PUSH2 0xB8A CALLDATASIZE PUSH1 0x4 PUSH2 0x508B JUMP JUMPDEST PUSH2 0x4698 JUMP JUMPDEST CALLVALUE DUP1 ISZERO PUSH2 0xB9B JUMPI PUSH1 0x0 DUP1 REVERT JUMPDEST POP PUSH2 0x39D PUSH2 0xBAA CALLDATASIZE PUSH1 0x4 PUSH2 0x524F JUMP JUMPDEST PUSH2 0x46B2 JUMP JUMPDEST PUSH1 0x0 PUSH1 0x1 PUSH1 0x1 PUSH1 0xE0 SHL SUB NOT DUP3 AND PUSH4 0x7965DB0B PUSH1 0xE0 SHL EQ DUP1 PUSH2 0xBD4 JUMPI POP PUSH2 0xBD4 DUP3 PUSH2 0x4754 JUMP JUMPDEST SWAP1 POP JUMPDEST SWAP2 SWAP1 POP JUMP JUMPDEST PUSH2 0x113 SLOAD DUP2 JUMP JUMPDEST PUSH1 0x0 DUP1 MLOAD PUSH1 0x20 PUSH2 0x5C7E DUP4 CODECOPY DUP2 MLOAD SWAP2 MSTORE PUSH2 0xBFC DUP2 CALLER PUSH2 0x1E62 JUMP JUMPDEST PUSH2 0xC05 JUMPI PUSH1 0x0 DUP1 REVERT JUMPDEST PUSH2 0xC0D PUSH2 0x1405 JUMP JUMPDEST ISZERO PUSH2 0xC33 JUMPI PUSH1 0x40 MLOAD PUSH3 0x461BCD PUSH1 0xE5 SHL DUP2 MSTORE PUSH1 0x4 ADD PUSH2 0xC2A SWAP1 PUSH2 0x577C JUMP JUMPDEST PUSH1 0x40 MLOAD DUP1 SWAP2 SUB SWAP1 REVERT JUMPDEST PUSH2 0x112 DUP4 DUP2 SLOAD DUP2 LT PUSH2 0xC55 JUMPI PUSH4 0x4E487B71 PUSH1 0xE0 SHL PUSH1 0x0 MSTORE PUSH1 0x32 PUSH1 0x4 MSTORE PUSH1 0x24 PUSH1 0x0 REVERT JUMPDEST SWAP1 PUSH1 0x0 MSTORE PUSH1 0x20 PUSH1 0x0 KECCAK256 SWAP1 PUSH1 0x4 MUL ADD PUSH1 0x3 ADD PUSH1 0x1 SWAP1 SLOAD SWAP1 PUSH2 0x100 EXP SWAP1 DIV PUSH1 0xFF AND PUSH2 0xC7D JUMPI PUSH1 0x0 DUP1 REVERT JUMPDEST DUP2 PUSH2 0x112 DUP5 DUP2 SLOAD DUP2 LT PUSH2 0xCA0 JUMPI PUSH4 0x4E487B71 PUSH1 0xE0 SHL PUSH1 0x0 MSTORE PUSH1 0x32 PUSH1 0x4 MSTORE PUSH1 0x24 PUSH1 0x0 REVERT JUMPDEST SWAP1 PUSH1 0x0 MSTORE PUSH1 0x20 PUSH1 0x0 KECCAK256 SWAP1 PUSH1 0x4 MUL ADD PUSH1 0x3 ADD PUSH1 0x0 PUSH2 0x100 EXP DUP2 SLOAD DUP2 PUSH1 0xFF MUL NOT AND SWAP1 DUP4 ISZERO ISZERO MUL OR SWAP1 SSTORE POP TIMESTAMP PUSH2 0x112 DUP5 DUP2 SLOAD DUP2 LT PUSH2 0xCEB JUMPI PUSH4 0x4E487B71 PUSH1 0xE0 SHL PUSH1 0x0 MSTORE PUSH1 0x32 PUSH1 0x4 MSTORE PUSH1 0x24 PUSH1 0x0 REVERT JUMPDEST SWAP1 PUSH1 0x0 MSTORE PUSH1 0x20 PUSH1 0x0 KECCAK256 SWAP1 PUSH1 0x4 MUL ADD PUSH1 0x2 ADD DUP2 SWAP1 SSTORE POP DUP3 PUSH32 0xEBCB27CC95A510DCB63AA211212B6D8058B45EB5FAE3689CD30BCB64359025B DUP4 CALLER PUSH1 0x40 MLOAD PUSH2 0xD32 SWAP3 SWAP2 SWAP1 PUSH2 0x555C JUMP JUMPDEST PUSH1 0x40 MLOAD DUP1 SWAP2 SUB SWAP1 LOG2 POP POP POP JUMP JUMPDEST PUSH2 0xD47 PUSH2 0x1405 JUMP JUMPDEST ISZERO PUSH2 0xD64 JUMPI PUSH1 0x40 MLOAD PUSH3 0x461BCD PUSH1 0xE5 SHL DUP2 MSTORE PUSH1 0x4 ADD PUSH2 0xC2A SWAP1 PUSH2 0x577C JUMP JUMPDEST PUSH2 0xD6F PUSH1 0x0 CALLER PUSH2 0x1E62 JUMP JUMPDEST PUSH2 0xD78 JUMPI PUSH1 0x0 DUP1 REVERT JUMPDEST PUSH2 0xD80 PUSH2 0x476D JUMP JUMPDEST JUMP JUMPDEST PUSH2 0xD8D PUSH1 0x0 CALLER PUSH2 0x1E62 JUMP JUMPDEST PUSH2 0xD96 JUMPI PUSH1 0x0 DUP1 REVERT JUMPDEST PUSH1 0x1 PUSH1 0x1 PUSH1 0xA0 SHL SUB DUP4 AND PUSH2 0xDA9 JUMPI PUSH1 0x0 DUP1 REVERT JUMPDEST PUSH1 0x1 PUSH1 0x1 PUSH1 0xA0 SHL SUB DUP3 AND PUSH2 0xDBC JUMPI PUSH1 0x0 DUP1 REVERT JUMPDEST PUSH1 0x1 PUSH1 0x1 PUSH1 0xA0 SHL SUB DUP2 AND PUSH2 0xDCF JUMPI PUSH1 0x0 DUP1 REVERT JUMPDEST PUSH1 0xFD DUP1 SLOAD PUSH1 0x1 PUSH1 0x1 PUSH1 0xA0 SHL SUB DUP1 DUP7 AND PUSH1 0x1 PUSH1 0x1 PUSH1 0xA0 SHL SUB NOT SWAP3 DUP4 AND OR SWAP1 SWAP3 SSTORE PUSH1 0xFE DUP1 SLOAD DUP6 DUP5 AND SWAP1 DUP4 AND OR SWAP1 SSTORE PUSH1 0xFF DUP1 SLOAD SWAP3 DUP5 AND SWAP3 SWAP1 SWAP2 AND SWAP2 SWAP1 SWAP2 OR SWAP1 SSTORE PUSH1 0x40 MLOAD PUSH32 0x3446C1E5241DF85853F5B95E70CA726471E2E5ECB851A06E3E03D60B3F97E568 SWAP1 PUSH2 0xE40 SWAP1 DUP6 SWAP1 DUP6 SWAP1 DUP6 SWAP1 PUSH2 0x542E JUMP JUMPDEST PUSH1 0x40 MLOAD DUP1 SWAP2 SUB SWAP1 LOG1 POP POP POP JUMP JUMPDEST DUP1 MLOAD PUSH1 0x20 DUP2 DUP4 ADD DUP2 ADD DUP1 MLOAD PUSH2 0x103 DUP3 MSTORE SWAP3 DUP3 ADD SWAP2 SWAP1 SWAP4 ADD KECCAK256 SWAP2 MSTORE SLOAD DUP2 JUMP JUMPDEST PUSH2 0x10F PUSH1 0x20 MSTORE PUSH1 0x0 SWAP1 DUP2 MSTORE PUSH1 0x40 SWAP1 KECCAK256 SLOAD DUP2 JUMP JUMPDEST PUSH2 0xE86 PUSH2 0x1405 JUMP JUMPDEST PUSH2 0xEA2 JUMPI PUSH1 0x40 MLOAD PUSH3 0x461BCD PUSH1 0xE5 SHL DUP2 MSTORE PUSH1 0x4 ADD PUSH2 0xC2A SWAP1 PUSH2 0x5612 JUMP JUMPDEST PUSH2 0xEAD PUSH1 0x0 CALLER PUSH2 0x1E62 JUMP JUMPDEST PUSH2 0xEB6 JUMPI PUSH1 0x0 DUP1 REVERT JUMPDEST PUSH2 0xD80 PUSH2 0x47DF JUMP JUMPDEST PUSH2 0x106 PUSH1 0x20 MSTORE PUSH1 0x0 SWAP1 DUP2 MSTORE PUSH1 0x40 SWAP1 KECCAK256 SLOAD PUSH1 0xFF AND DUP2 JUMP JUMPDEST PUSH1 0x0 SWAP1 DUP2 MSTORE PUSH1 0x65 PUSH1 0x20 MSTORE PUSH1 0x40 SWAP1 KECCAK256 PUSH1 0x1 ADD SLOAD SWAP1 JUMP JUMPDEST PUSH2 0xEF4 PUSH1 0x0 CALLER PUSH2 0x1E62 JUMP JUMPDEST PUSH2 0xEFD JUMPI PUSH1 0x0 DUP1 REVERT JUMPDEST PUSH1 0x1 PUSH1 0x1 PUSH1 0xA0 SHL SUB DUP3 AND PUSH1 0x0 SWAP1 DUP2 MSTORE PUSH2 0x105 PUSH1 0x20 MSTORE PUSH1 0x40 SWAP1 KECCAK256 SLOAD PUSH1 0xFF AND PUSH2 0xF23 JUMPI PUSH1 0x0 DUP1 REVERT JUMPDEST PUSH1 0x1 PUSH1 0x1 PUSH1 0xA0 SHL SUB DUP3 AND PUSH1 0x0 DUP2 DUP2 MSTORE PUSH2 0x106 PUSH1 0x20 MSTORE PUSH1 0x40 SWAP1 DUP2 SWAP1 KECCAK256 DUP1 SLOAD PUSH1 0xFF NOT AND DUP5 ISZERO ISZERO OR SWAP1 SSTORE MLOAD PUSH32 0x7C2A41542727A141F40514ADE389B2A4D94A10A8F6FEE59229AA47073625C763 SWAP1 PUSH2 0xF7A SWAP1 DUP5 SWAP1 CALLER SWAP1 PUSH2 0x555C JUMP JUMPDEST PUSH1 0x40 MLOAD DUP1 SWAP2 SUB SWAP1 LOG2 POP POP JUMP JUMPDEST PUSH2 0x111 SLOAD DUP2 JUMP JUMPDEST PUSH2 0xF96 DUP3 PUSH2 0xED4 JUMP JUMPDEST PUSH2 0xFA7 DUP2 PUSH2 0xFA2 PUSH2 0x4832 JUMP JUMPDEST PUSH2 0x4836 JUMP JUMPDEST PUSH2 0xFB1 DUP4 DUP4 PUSH2 0x489A JUMP JUMPDEST POP POP POP JUMP JUMPDEST DUP1 MLOAD PUSH1 0x20 DUP2 DUP4 ADD DUP2 ADD DUP1 MLOAD PUSH2 0x102 DUP3 MSTORE SWAP3 DUP3 ADD SWAP2 SWAP1 SWAP4 ADD KECCAK256 SWAP2 MSTORE SLOAD PUSH1 0xFF AND DUP2 JUMP JUMPDEST PUSH2 0x10A DUP2 DUP2 SLOAD DUP2 LT PUSH2 0xFE8 JUMPI PUSH1 0x0 DUP1 REVERT JUMPDEST PUSH1 0x0 SWAP2 DUP3 MSTORE PUSH1 0x20 SWAP1 SWAP2 KECCAK256 PUSH1 0x8 SWAP1 SWAP2 MUL ADD DUP1 SLOAD PUSH1 0x1 DUP3 ADD SLOAD PUSH1 0x2 DUP4 ADD SLOAD PUSH1 0x3 DUP5 ADD SLOAD PUSH1 0x4 DUP6 ADD SLOAD PUSH1 0x5 DUP7 ADD SLOAD PUSH1 0x6 DUP8 ADD SLOAD PUSH1 0x7 SWAP1 SWAP8 ADD SLOAD PUSH1 0x1 PUSH1 0x1 PUSH1 0xA0 SHL SUB SWAP7 DUP8 AND SWAP9 POP SWAP5 DUP7 AND SWAP7 SWAP4 SWAP1 SWAP6 AND SWAP5 SWAP2 SWAP4 SWAP1 SWAP3 SWAP1 PUSH1 0xFF DUP1 DUP3 AND SWAP2 PUSH2 0x100 DUP2 DIV DUP3 AND SWAP2 PUSH3 0x10000 SWAP1 SWAP2 DIV AND DUP11 JUMP JUMPDEST PUSH2 0x105D PUSH1 0x0 CALLER PUSH2 0x1E62 JUMP JUMPDEST PUSH2 0x1066 JUMPI PUSH1 0x0 DUP1 REVERT JUMPDEST PUSH1 0x1 PUSH1 0x1 PUSH1 0xA0 SHL SUB DUP2 AND PUSH1 0x0 SWAP1 DUP2 MSTORE PUSH2 0x105 PUSH1 0x20 MSTORE PUSH1 0x40 SWAP1 KECCAK256 SLOAD PUSH1 0xFF AND PUSH2 0x108C JUMPI PUSH1 0x0 DUP1 REVERT JUMPDEST PUSH1 0x1 PUSH1 0x1 PUSH1 0xA0 SHL SUB DUP2 AND PUSH1 0x0 SWAP1 DUP2 MSTORE PUSH2 0x105 PUSH1 0x20 SWAP1 DUP2 MSTORE PUSH1 0x40 DUP1 DUP4 KECCAK256 DUP1 SLOAD PUSH1 0xFF NOT SWAP1 DUP2 AND SWAP1 SWAP2 SSTORE PUSH2 0x106 SWAP1 SWAP3 MSTORE SWAP1 SWAP2 KECCAK256 DUP1 SLOAD SWAP1 SWAP2 AND SWAP1 SSTORE PUSH2 0x100 DUP1 SLOAD DUP4 SWAP1 DUP2 LT PUSH2 0x10E6 JUMPI PUSH4 0x4E487B71 PUSH1 0xE0 SHL PUSH1 0x0 MSTORE PUSH1 0x32 PUSH1 0x4 MSTORE PUSH1 0x24 PUSH1 0x0 REVERT JUMPDEST PUSH1 0x0 SWAP2 DUP3 MSTORE PUSH1 0x20 SWAP1 SWAP2 KECCAK256 ADD DUP1 SLOAD PUSH1 0x1 PUSH1 0x1 PUSH1 0xA0 SHL SUB NOT AND SWAP1 SSTORE PUSH1 0x40 MLOAD DUP3 SWAP1 PUSH32 0xF6BB0745AD7CC1DB7292C76D7BA4082669045B9CF4301A9D802A95C8702B67E SWAP1 PUSH2 0xF7A SWAP1 DUP5 SWAP1 CALLER SWAP1 PUSH2 0x5451 JUMP JUMPDEST PUSH2 0x113B PUSH2 0x4832 JUMP JUMPDEST PUSH1 0x1 PUSH1 0x1 PUSH1 0xA0 SHL SUB AND DUP2 PUSH1 0x1 PUSH1 0x1 PUSH1 0xA0 SHL SUB AND EQ PUSH2 0x116B JUMPI PUSH1 0x40 MLOAD PUSH3 0x461BCD PUSH1 0xE5 SHL DUP2 MSTORE PUSH1 0x4 ADD PUSH2 0xC2A SWAP1 PUSH2 0x5A33 JUMP JUMPDEST PUSH2 0x1175 DUP3 DUP3 PUSH2 0x4921 JUMP JUMPDEST POP POP JUMP JUMPDEST PUSH2 0x112 DUP2 DUP2 SLOAD DUP2 LT PUSH2 0x118A JUMPI PUSH1 0x0 DUP1 REVERT JUMPDEST PUSH1 0x0 SWAP2 DUP3 MSTORE PUSH1 0x20 SWAP1 SWAP2 KECCAK256 PUSH1 0x4 SWAP1 SWAP2 MUL ADD DUP1 SLOAD PUSH1 0x1 DUP3 ADD SLOAD PUSH1 0x2 DUP4 ADD SLOAD PUSH1 0x3 SWAP1 SWAP4 ADD SLOAD PUSH1 0x1 PUSH1 0x1 PUSH1 0xA0 SHL SUB SWAP1 SWAP3 AND SWAP4 POP SWAP2 SWAP1 PUSH1 0xFF DUP1 DUP3 AND SWAP2 PUSH2 0x100 SWAP1 DIV AND DUP6 JUMP JUMPDEST PUSH2 0x11D5 PUSH1 0x0 CALLER PUSH2 0x1E62 JUMP JUMPDEST PUSH2 0x11DE JUMPI PUSH1 0x0 DUP1 REVERT JUMPDEST PUSH2 0x11E6 PUSH2 0x1405 JUMP JUMPDEST ISZERO PUSH2 0x1203 JUMPI PUSH1 0x40 MLOAD PUSH3 0x461BCD PUSH1 0xE5 SHL DUP2 MSTORE PUSH1 0x4 ADD PUSH2 0xC2A SWAP1 PUSH2 0x577C JUMP JUMPDEST PUSH2 0x115 DUP4 DUP2 SLOAD DUP2 LT PUSH2 0x1225 JUMPI PUSH4 0x4E487B71 PUSH1 0xE0 SHL PUSH1 0x0 MSTORE PUSH1 0x32 PUSH1 0x4 MSTORE PUSH1 0x24 PUSH1 0x0 REVERT JUMPDEST PUSH1 0x0 SWAP2 DUP3 MSTORE PUSH1 0x20 SWAP1 SWAP2 KECCAK256 PUSH1 0x4 PUSH1 0x5 SWAP1 SWAP3 MUL ADD ADD SLOAD PUSH1 0xFF AND PUSH2 0x1245 JUMPI PUSH1 0x0 DUP1 REVERT JUMPDEST DUP2 PUSH2 0x115 DUP5 DUP2 SLOAD DUP2 LT PUSH2 0x1268 JUMPI PUSH4 0x4E487B71 PUSH1 0xE0 SHL PUSH1 0x0 MSTORE PUSH1 0x32 PUSH1 0x4 MSTORE PUSH1 0x24 PUSH1 0x0 REVERT JUMPDEST SWAP1 PUSH1 0x0 MSTORE PUSH1 0x20 PUSH1 0x0 KECCAK256 SWAP1 PUSH1 0x5 MUL ADD PUSH1 0x3 ADD DUP2 SWAP1 SSTORE POP DUP1 PUSH2 0x115 DUP5 DUP2 SLOAD DUP2 LT PUSH2 0x12A0 JUMPI PUSH4 0x4E487B71 PUSH1 0xE0 SHL PUSH1 0x0 MSTORE PUSH1 0x32 PUSH1 0x4 MSTORE PUSH1 0x24 PUSH1 0x0 REVERT JUMPDEST SWAP1 PUSH1 0x0 MSTORE PUSH1 0x20 PUSH1 0x0 KECCAK256 SWAP1 PUSH1 0x5 MUL ADD PUSH1 0x2 ADD DUP2 SWAP1 SSTORE POP TIMESTAMP PUSH2 0x115 DUP5 DUP2 SLOAD DUP2 LT PUSH2 0x12D8 JUMPI PUSH4 0x4E487B71 PUSH1 0xE0 SHL PUSH1 0x0 MSTORE PUSH1 0x32 PUSH1 0x4 MSTORE PUSH1 0x24 PUSH1 0x0 REVERT JUMPDEST SWAP1 PUSH1 0x0 MSTORE PUSH1 0x20 PUSH1 0x0 KECCAK256 SWAP1 PUSH1 0x5 MUL ADD PUSH1 0x1 ADD DUP2 SWAP1 SSTORE POP DUP3 PUSH32 0xD548B84AE5F583AEAEFCB2E5194F9CA9C4E71FF8B150CB497F8264F06D6CFF61 DUP4 DUP4 CALLER PUSH1 0x40 MLOAD PUSH2 0xD32 SWAP4 SWAP3 SWAP2 SWAP1 PUSH2 0x5A99 JUMP JUMPDEST PUSH1 0x0 DUP1 MLOAD PUSH1 0x20 PUSH2 0x5C7E DUP4 CODECOPY DUP2 MLOAD SWAP2 MSTORE DUP2 JUMP JUMPDEST PUSH2 0x101 DUP2 DUP2 SLOAD DUP2 LT PUSH2 0x1344 JUMPI PUSH1 0x0 DUP1 REVERT JUMPDEST SWAP1 PUSH1 0x0 MSTORE PUSH1 0x20 PUSH1 0x0 KECCAK256 ADD PUSH1 0x0 SWAP2 POP SWAP1 POP DUP1 SLOAD PUSH2 0x135F SWAP1 PUSH2 0x5BB5 JUMP JUMPDEST DUP1 PUSH1 0x1F ADD PUSH1 0x20 DUP1 SWAP2 DIV MUL PUSH1 0x20 ADD PUSH1 0x40 MLOAD SWAP1 DUP2 ADD PUSH1 0x40 MSTORE DUP1 SWAP3 SWAP2 SWAP1 DUP2 DUP2 MSTORE PUSH1 0x20 ADD DUP3 DUP1 SLOAD PUSH2 0x138B SWAP1 PUSH2 0x5BB5 JUMP JUMPDEST DUP1 ISZERO PUSH2 0x13D8 JUMPI DUP1 PUSH1 0x1F LT PUSH2 0x13AD JUMPI PUSH2 0x100 DUP1 DUP4 SLOAD DIV MUL DUP4 MSTORE SWAP2 PUSH1 0x20 ADD SWAP2 PUSH2 0x13D8 JUMP JUMPDEST DUP3 ADD SWAP2 SWAP1 PUSH1 0x0 MSTORE PUSH1 0x20 PUSH1 0x0 KECCAK256 SWAP1 JUMPDEST DUP2 SLOAD DUP2 MSTORE SWAP1 PUSH1 0x1 ADD SWAP1 PUSH1 0x20 ADD DUP1 DUP4 GT PUSH2 0x13BB JUMPI DUP3 SWAP1 SUB PUSH1 0x1F AND DUP3 ADD SWAP2 JUMPDEST POP POP POP POP POP DUP2 JUMP JUMPDEST PUSH1 0x0 DUP1 MLOAD PUSH1 0x20 PUSH2 0x5CBE DUP4 CODECOPY DUP2 MLOAD SWAP2 MSTORE DUP2 JUMP JUMPDEST PUSH2 0x108 PUSH1 0x20 MSTORE PUSH1 0x0 SWAP1 DUP2 MSTORE PUSH1 0x40 SWAP1 KECCAK256 SLOAD DUP2 JUMP JUMPDEST PUSH1 0x97 SLOAD PUSH1 0xFF AND SWAP1 JUMP JUMPDEST PUSH1 0x0 SLOAD PUSH2 0x100 SWAP1 DIV PUSH1 0xFF AND DUP1 PUSH2 0x1427 JUMPI POP PUSH1 0x0 SLOAD PUSH1 0xFF AND ISZERO JUMPDEST PUSH2 0x1443 JUMPI PUSH1 0x40 MLOAD PUSH3 0x461BCD PUSH1 0xE5 SHL DUP2 MSTORE PUSH1 0x4 ADD PUSH2 0xC2A SWAP1 PUSH2 0x5801 JUMP JUMPDEST PUSH1 0x0 SLOAD PUSH2 0x100 SWAP1 DIV PUSH1 0xFF AND ISZERO DUP1 ISZERO PUSH2 0x146E JUMPI PUSH1 0x0 DUP1 SLOAD PUSH1 0xFF NOT PUSH2 0xFF00 NOT SWAP1 SWAP2 AND PUSH2 0x100 OR AND PUSH1 0x1 OR SWAP1 SSTORE JUMPDEST PUSH1 0x1 PUSH1 0x1 PUSH1 0xA0 SHL SUB DUP4 AND PUSH2 0x1481 JUMPI PUSH1 0x0 DUP1 REVERT JUMPDEST DUP2 PUSH1 0xFB PUSH1 0x0 PUSH2 0x100 EXP DUP2 SLOAD DUP2 PUSH1 0x1 PUSH1 0x1 PUSH1 0xA0 SHL SUB MUL NOT AND SWAP1 DUP4 PUSH1 0x1 PUSH1 0x1 PUSH1 0xA0 SHL SUB AND MUL OR SWAP1 SSTORE POP DUP3 PUSH1 0xFD PUSH1 0x0 PUSH2 0x100 EXP DUP2 SLOAD DUP2 PUSH1 0x1 PUSH1 0x1 PUSH1 0xA0 SHL SUB MUL NOT AND SWAP1 DUP4 PUSH1 0x1 PUSH1 0x1 PUSH1 0xA0 SHL SUB AND MUL OR SWAP1 SSTORE POP ADDRESS PUSH1 0xFC PUSH1 0x0 PUSH2 0x100 EXP DUP2 SLOAD DUP2 PUSH1 0x1 PUSH1 0x1 PUSH1 0xA0 SHL SUB MUL NOT AND SWAP1 DUP4 PUSH1 0x1 PUSH1 0x1 PUSH1 0xA0 SHL SUB AND MUL OR SWAP1 SSTORE POP PUSH1 0x0 PUSH1 0x40 MLOAD DUP1 PUSH2 0x1E0 ADD PUSH1 0x40 MSTORE DUP1 PUSH1 0x40 MLOAD DUP1 PUSH1 0x40 ADD PUSH1 0x40 MSTORE DUP1 PUSH1 0x11 DUP2 MSTORE PUSH1 0x20 ADD PUSH17 0x3232B330BAB63A21B7B6B6B4B9B9B4B7B7 PUSH1 0x79 SHL DUP2 MSTORE POP DUP2 MSTORE PUSH1 0x20 ADD PUSH1 0x40 MLOAD DUP1 PUSH1 0x40 ADD PUSH1 0x40 MSTORE DUP1 PUSH1 0x16 DUP2 MSTORE PUSH1 0x20 ADD PUSH22 0x191958591B1A5B9954DD1C9A5AD95CD05B1B1BDDD959 PUSH1 0x52 SHL DUP2 MSTORE POP DUP2 MSTORE PUSH1 0x20 ADD PUSH1 0x40 MLOAD DUP1 PUSH1 0x40 ADD PUSH1 0x40 MSTORE DUP1 PUSH1 0x1A DUP2 MSTORE PUSH1 0x20 ADD PUSH26 0x1B5A5B9A5B5D5B50DBDB9D1C9A589D5D1A5BDB905B1B1BDDD959 PUSH1 0x32 SHL DUP2 MSTORE POP DUP2 MSTORE PUSH1 0x20 ADD PUSH1 0x40 MLOAD DUP1 PUSH1 0x40 ADD PUSH1 0x40 MSTORE DUP1 PUSH1 0x1A DUP2 MSTORE PUSH1 0x20 ADD PUSH26 0x1B585E1A5B5D5B50DBDB9D1C9A589D5D1A5BDB905B1B1BDDD959 PUSH1 0x32 SHL DUP2 MSTORE POP DUP2 MSTORE PUSH1 0x20 ADD PUSH1 0x40 MLOAD DUP1 PUSH1 0x40 ADD PUSH1 0x40 MSTORE DUP1 PUSH1 0x1B DUP2 MSTORE PUSH1 0x20 ADD PUSH27 0x1B5A5B9A5B5D5B54995C5D595CDD105B5BDD5B9D105B1B1BDDD959 PUSH1 0x2A SHL DUP2 MSTORE POP DUP2 MSTORE PUSH1 0x20 ADD PUSH1 0x40 MLOAD DUP1 PUSH1 0x40 ADD PUSH1 0x40 MSTORE DUP1 PUSH1 0x1B DUP2 MSTORE PUSH1 0x20 ADD PUSH27 0x1B585E1A5B5D5B54995C5D595CDD105B5BDD5B9D105B1B1BDDD959 PUSH1 0x2A SHL DUP2 MSTORE POP DUP2 MSTORE PUSH1 0x20 ADD PUSH1 0x40 MLOAD DUP1 PUSH1 0x40 ADD PUSH1 0x40 MSTORE DUP1 PUSH1 0x15 DUP2 MSTORE PUSH1 0x20 ADD PUSH21 0x1B5A5B9A5B5D5B50D85B5C185A59DB95185C99D95D PUSH1 0x5A SHL DUP2 MSTORE POP DUP2 MSTORE PUSH1 0x20 ADD PUSH1 0x40 MLOAD DUP1 PUSH1 0x40 ADD PUSH1 0x40 MSTORE DUP1 PUSH1 0x15 DUP2 MSTORE PUSH1 0x20 ADD PUSH21 0x1B585E1A5B5D5B50D85B5C185A59DB95185C99D95D PUSH1 0x5A SHL DUP2 MSTORE POP DUP2 MSTORE PUSH1 0x20 ADD PUSH1 0x40 MLOAD DUP1 PUSH1 0x40 ADD PUSH1 0x40 MSTORE DUP1 PUSH1 0x14 DUP2 MSTORE PUSH1 0x20 ADD PUSH20 0x36B0BC2232B0B23634B732A2BC3A32B739B4B7B7 PUSH1 0x61 SHL DUP2 MSTORE POP DUP2 MSTORE PUSH1 0x20 ADD PUSH1 0x40 MLOAD DUP1 PUSH1 0x40 ADD PUSH1 0x40 MSTORE DUP1 PUSH1 0x14 DUP2 MSTORE PUSH1 0x20 ADD PUSH20 0x36B4B72232B0B23634B732A2BC3A32B739B4B7B7 PUSH1 0x61 SHL DUP2 MSTORE POP DUP2 MSTORE PUSH1 0x20 ADD PUSH1 0x40 MLOAD DUP1 PUSH1 0x40 ADD PUSH1 0x40 MSTORE DUP1 PUSH1 0x12 DUP2 MSTORE PUSH1 0x20 ADD PUSH18 0x36B4B72932B8BAB2B9BA223AB930BA34B7B7 PUSH1 0x71 SHL DUP2 MSTORE POP DUP2 MSTORE PUSH1 0x20 ADD PUSH1 0x40 MLOAD DUP1 PUSH1 0x40 ADD PUSH1 0x40 MSTORE DUP1 PUSH1 0x12 DUP2 MSTORE PUSH1 0x20 ADD PUSH18 0x36B0BC2932B8BAB2B9BA223AB930BA34B7B7 PUSH1 0x71 SHL DUP2 MSTORE POP DUP2 MSTORE PUSH1 0x20 ADD PUSH1 0x40 MLOAD DUP1 PUSH1 0x40 ADD PUSH1 0x40 MSTORE DUP1 PUSH1 0x13 DUP2 MSTORE PUSH1 0x20 ADD PUSH19 0x7265766965775468726573686F6C644D61726B PUSH1 0x68 SHL DUP2 MSTORE POP DUP2 MSTORE PUSH1 0x20 ADD PUSH1 0x40 MLOAD DUP1 PUSH1 0x40 ADD PUSH1 0x40 MSTORE DUP1 PUSH1 0x1C DUP2 MSTORE PUSH1 0x20 ADD PUSH28 0x1C995C5D595CDD119A5B985B1A5E985D1A5BDB951A1C995CDA1BDB19 PUSH1 0x22 SHL DUP2 MSTORE POP DUP2 MSTORE PUSH1 0x20 ADD PUSH1 0x40 MLOAD DUP1 PUSH1 0x40 ADD PUSH1 0x40 MSTORE DUP1 PUSH1 0x13 DUP2 MSTORE PUSH1 0x20 ADD PUSH19 0x7265706F72745468726573686F6C644D61726B PUSH1 0x68 SHL DUP2 MSTORE POP DUP2 MSTORE POP SWAP1 POP PUSH1 0x0 PUSH1 0x40 MLOAD DUP1 PUSH2 0x1E0 ADD PUSH1 0x40 MSTORE DUP1 PUSH1 0x2 PUSH3 0xFFFFFF AND DUP2 MSTORE PUSH1 0x20 ADD PUSH1 0x3 PUSH3 0xFFFFFF AND DUP2 MSTORE PUSH1 0x20 ADD PUSH1 0x1 PUSH3 0xFFFFFF AND DUP2 MSTORE PUSH1 0x20 ADD PUSH2 0x2710 PUSH3 0xFFFFFF AND DUP2 MSTORE PUSH1 0x20 ADD PUSH2 0x3E8 PUSH3 0xFFFFFF AND DUP2 MSTORE PUSH1 0x20 ADD PUSH2 0x1388 PUSH3 0xFFFFFF AND DUP2 MSTORE PUSH1 0x20 ADD PUSH2 0x1388 PUSH3 0xFFFFFF AND DUP2 MSTORE PUSH1 0x20 ADD PUSH3 0xF4240 PUSH3 0xFFFFFF AND DUP2 MSTORE PUSH1 0x20 ADD PUSH3 0x93A80 PUSH3 0xFFFFFF AND DUP2 MSTORE PUSH1 0x20 ADD PUSH3 0x15180 PUSH3 0xFFFFFF AND DUP2 MSTORE PUSH1 0x20 ADD PUSH3 0x15180 PUSH3 0xFFFFFF AND DUP2 MSTORE PUSH1 0x20 ADD PUSH3 0x93A80 PUSH3 0xFFFFFF AND DUP2 MSTORE PUSH1 0x20 ADD PUSH1 0x50 PUSH3 0xFFFFFF AND DUP2 MSTORE PUSH1 0x20 ADD PUSH1 0x33 PUSH3 0xFFFFFF AND DUP2 MSTORE PUSH1 0x20 ADD PUSH1 0x33 PUSH3 0xFFFFFF AND DUP2 MSTORE POP SWAP1 POP PUSH1 0x0 JUMPDEST PUSH1 0xF DUP2 LT ISZERO PUSH2 0x1A17 JUMPI PUSH2 0x101 DUP4 DUP3 PUSH1 0xF DUP2 LT PUSH2 0x190E JUMPI PUSH4 0x4E487B71 PUSH1 0xE0 SHL PUSH1 0x0 MSTORE PUSH1 0x32 PUSH1 0x4 MSTORE PUSH1 0x24 PUSH1 0x0 REVERT JUMPDEST PUSH1 0x20 SWAP1 DUP2 MUL SWAP2 SWAP1 SWAP2 ADD MLOAD DUP3 SLOAD PUSH1 0x1 DUP2 ADD DUP5 SSTORE PUSH1 0x0 SWAP4 DUP5 MSTORE SWAP3 DUP3 SWAP1 KECCAK256 DUP2 MLOAD PUSH2 0x193E SWAP5 SWAP2 SWAP1 SWAP2 ADD SWAP3 SWAP2 SWAP1 SWAP2 ADD SWAP1 PUSH2 0x4F5F JUMP JUMPDEST POP PUSH1 0x1 PUSH2 0x102 DUP5 DUP4 PUSH1 0xF DUP2 LT PUSH2 0x1964 JUMPI PUSH4 0x4E487B71 PUSH1 0xE0 SHL PUSH1 0x0 MSTORE PUSH1 0x32 PUSH1 0x4 MSTORE PUSH1 0x24 PUSH1 0x0 REVERT JUMPDEST PUSH1 0x20 MUL ADD MLOAD PUSH1 0x40 MLOAD PUSH2 0x1976 SWAP2 SWAP1 PUSH2 0x5372 JUMP JUMPDEST SWAP1 DUP2 MSTORE PUSH1 0x40 MLOAD SWAP1 DUP2 SWAP1 SUB PUSH1 0x20 ADD SWAP1 KECCAK256 DUP1 SLOAD SWAP2 ISZERO ISZERO PUSH1 0xFF NOT SWAP1 SWAP3 AND SWAP2 SWAP1 SWAP2 OR SWAP1 SSTORE DUP2 DUP2 PUSH1 0xF DUP2 LT PUSH2 0x19B6 JUMPI PUSH4 0x4E487B71 PUSH1 0xE0 SHL PUSH1 0x0 MSTORE PUSH1 0x32 PUSH1 0x4 MSTORE PUSH1 0x24 PUSH1 0x0 REVERT JUMPDEST PUSH1 0x20 MUL ADD MLOAD PUSH3 0xFFFFFF AND PUSH2 0x103 DUP5 DUP4 PUSH1 0xF DUP2 LT PUSH2 0x19E3 JUMPI PUSH4 0x4E487B71 PUSH1 0xE0 SHL PUSH1 0x0 MSTORE PUSH1 0x32 PUSH1 0x4 MSTORE PUSH1 0x24 PUSH1 0x0 REVERT JUMPDEST PUSH1 0x20 MUL ADD MLOAD PUSH1 0x40 MLOAD PUSH2 0x19F5 SWAP2 SWAP1 PUSH2 0x5372 JUMP JUMPDEST SWAP1 DUP2 MSTORE PUSH1 0x40 MLOAD SWAP1 DUP2 SWAP1 SUB PUSH1 0x20 ADD SWAP1 KECCAK256 SSTORE DUP1 PUSH2 0x1A0F DUP2 PUSH2 0x5BF0 JUMP JUMPDEST SWAP2 POP POP PUSH2 0x18E2 JUMP JUMPDEST POP PUSH1 0xFB SLOAD PUSH2 0x1A30 SWAP1 PUSH1 0x0 SWAP1 PUSH1 0x1 PUSH1 0x1 PUSH1 0xA0 SHL SUB AND PUSH2 0x49A6 JUMP JUMPDEST PUSH1 0xFB SLOAD PUSH2 0x1A55 SWAP1 PUSH1 0x0 DUP1 MLOAD PUSH1 0x20 PUSH2 0x5C5E DUP4 CODECOPY DUP2 MLOAD SWAP2 MSTORE SWAP1 PUSH1 0x1 PUSH1 0x1 PUSH1 0xA0 SHL SUB AND PUSH2 0x49A6 JUMP JUMPDEST PUSH1 0xFB SLOAD PUSH2 0x1A7A SWAP1 PUSH1 0x0 DUP1 MLOAD PUSH1 0x20 PUSH2 0x5CBE DUP4 CODECOPY DUP2 MLOAD SWAP2 MSTORE SWAP1 PUSH1 0x1 PUSH1 0x1 PUSH1 0xA0 SHL SUB AND PUSH2 0x49A6 JUMP JUMPDEST PUSH1 0xFB SLOAD PUSH2 0x1A9F SWAP1 PUSH1 0x0 DUP1 MLOAD PUSH1 0x20 PUSH2 0x5C7E DUP4 CODECOPY DUP2 MLOAD SWAP2 MSTORE SWAP1 PUSH1 0x1 PUSH1 0x1 PUSH1 0xA0 SHL SUB AND PUSH2 0x49A6 JUMP JUMPDEST PUSH2 0x1AB8 PUSH1 0x0 DUP1 MLOAD PUSH1 0x20 PUSH2 0x5C5E DUP4 CODECOPY DUP2 MLOAD SWAP2 MSTORE PUSH1 0x0 PUSH2 0x49B0 JUMP JUMPDEST PUSH2 0x1AD1 PUSH1 0x0 DUP1 MLOAD PUSH1 0x20 PUSH2 0x5CBE DUP4 CODECOPY DUP2 MLOAD SWAP2 MSTORE PUSH1 0x0 PUSH2 0x49B0 JUMP JUMPDEST PUSH2 0x1AEA PUSH1 0x0 DUP1 MLOAD PUSH1 0x20 PUSH2 0x5C7E DUP4 CODECOPY DUP2 MLOAD SWAP2 MSTORE PUSH1 0x0 PUSH2 0x49B0 JUMP JUMPDEST PUSH2 0x1AF2 PUSH2 0x33D5 JUMP JUMPDEST POP POP DUP1 ISZERO PUSH2 0xFB1 JUMPI PUSH1 0x0 DUP1 SLOAD PUSH2 0xFF00 NOT AND SWAP1 SSTORE POP POP POP JUMP JUMPDEST PUSH2 0x1B15 PUSH1 0x0 CALLER PUSH2 0x1E62 JUMP JUMPDEST PUSH2 0x1B1E JUMPI PUSH1 0x0 DUP1 REVERT JUMPDEST PUSH2 0x102 DUP2 PUSH1 0x40 MLOAD PUSH2 0x1B2F SWAP2 SWAP1 PUSH2 0x5372 JUMP JUMPDEST SWAP1 DUP2 MSTORE PUSH1 0x40 MLOAD SWAP1 DUP2 SWAP1 SUB PUSH1 0x20 ADD SWAP1 KECCAK256 SLOAD PUSH1 0xFF AND ISZERO PUSH2 0x1B4C JUMPI PUSH1 0x0 DUP1 REVERT JUMPDEST PUSH2 0x101 DUP1 SLOAD PUSH1 0x1 DUP2 ADD DUP3 SSTORE PUSH1 0x0 SWAP2 SWAP1 SWAP2 MSTORE DUP2 MLOAD PUSH2 0x1B90 SWAP2 PUSH32 0x109EA3CEBB188B9C1B9FC5BB3920BE60DFDC8699098DFF92F3D80DAACA747689 ADD SWAP1 PUSH1 0x20 DUP5 ADD SWAP1 PUSH2 0x4F5F JUMP JUMPDEST POP PUSH1 0x1 PUSH2 0x102 DUP3 PUSH1 0x40 MLOAD PUSH2 0x1BA4 SWAP2 SWAP1 PUSH2 0x5372 JUMP JUMPDEST SWAP1 DUP2 MSTORE PUSH1 0x40 MLOAD SWAP1 DUP2 SWAP1 SUB PUSH1 0x20 ADD SWAP1 KECCAK256 DUP1 SLOAD SWAP2 ISZERO ISZERO PUSH1 0xFF NOT SWAP1 SWAP3 AND SWAP2 SWAP1 SWAP2 OR SWAP1 SSTORE POP JUMP JUMPDEST PUSH2 0x110 DUP2 DUP2 SLOAD DUP2 LT PUSH2 0x1BD8 JUMPI PUSH1 0x0 DUP1 REVERT JUMPDEST PUSH1 0x0 SWAP2 DUP3 MSTORE PUSH1 0x20 SWAP1 SWAP2 KECCAK256 PUSH1 0x4 SWAP1 SWAP2 MUL ADD DUP1 SLOAD PUSH1 0x1 DUP3 ADD SLOAD PUSH1 0x2 DUP4 ADD SLOAD PUSH1 0x3 SWAP1 SWAP4 ADD SLOAD SWAP2 SWAP4 POP SWAP2 SWAP1 PUSH1 0xFF DUP1 DUP3 AND SWAP2 PUSH2 0x100 SWAP1 DIV AND DUP6 JUMP JUMPDEST PUSH2 0x10E PUSH1 0x20 MSTORE PUSH1 0x0 SWAP1 DUP2 MSTORE PUSH1 0x40 SWAP1 KECCAK256 SLOAD PUSH1 0xFF AND DUP2 JUMP JUMPDEST PUSH1 0xFE SLOAD PUSH1 0x1 PUSH1 0x1 PUSH1 0xA0 SHL SUB AND DUP2 JUMP JUMPDEST PUSH2 0x1C3E PUSH1 0x0 CALLER PUSH2 0x1E62 JUMP JUMPDEST PUSH2 0x1C47 JUMPI PUSH1 0x0 DUP1 REVERT JUMPDEST PUSH2 0x1175 DUP2 DUP4 PUSH2 0x3DED JUMP JUMPDEST PUSH2 0x10B SLOAD DUP2 JUMP JUMPDEST PUSH2 0x1C63 PUSH1 0x0 CALLER PUSH2 0x1E62 JUMP JUMPDEST PUSH2 0x1C6C JUMPI PUSH1 0x0 DUP1 REVERT JUMPDEST PUSH1 0x0 PUSH2 0x1C88 PUSH2 0x1C7A DUP5 PUSH2 0x49FA JUMP JUMPDEST PUSH2 0x1C83 DUP5 PUSH2 0x49FA JUMP JUMPDEST PUSH2 0x4A14 JUMP JUMPDEST SWAP1 POP DUP1 PUSH1 0x0 ADD MLOAD PUSH2 0x103 PUSH1 0x40 MLOAD PUSH2 0x1C9E SWAP1 PUSH2 0x538E JUMP JUMPDEST SWAP1 DUP2 MSTORE PUSH1 0x40 MLOAD SWAP1 DUP2 SWAP1 SUB PUSH1 0x20 ADD DUP2 KECCAK256 SWAP2 SWAP1 SWAP2 SSTORE DUP2 MLOAD PUSH32 0x41FD2C7A1F6FB4A3C251C615D2A2B6424966B97D9AE83A3BDB06FA1D245D0FFA SWAP2 PUSH2 0xE40 SWAP2 SWAP1 PUSH2 0x5575 JUMP JUMPDEST PUSH1 0xFD SLOAD PUSH1 0x1 PUSH1 0x1 PUSH1 0xA0 SHL SUB AND DUP2 JUMP JUMPDEST PUSH2 0xD80 PUSH1 0x0 CALLER PUSH2 0x1133 JUMP JUMPDEST DUP1 CALLER PUSH1 0x1 PUSH1 0x1 PUSH1 0xA0 SHL SUB AND PUSH2 0x10A DUP3 DUP2 SLOAD DUP2 LT PUSH2 0x1D26 JUMPI PUSH4 0x4E487B71 PUSH1 0xE0 SHL PUSH1 0x0 MSTORE PUSH1 0x32 PUSH1 0x4 MSTORE PUSH1 0x24 PUSH1 0x0 REVERT JUMPDEST PUSH1 0x0 SWAP2 DUP3 MSTORE PUSH1 0x20 SWAP1 SWAP2 KECCAK256 PUSH1 0x2 PUSH1 0x8 SWAP1 SWAP3 MUL ADD ADD SLOAD PUSH1 0x1 PUSH1 0x1 PUSH1 0xA0 SHL SUB AND EQ PUSH2 0x1D60 JUMPI PUSH1 0x40 MLOAD PUSH3 0x461BCD PUSH1 0xE5 SHL DUP2 MSTORE PUSH1 0x4 ADD PUSH2 0xC2A SWAP1 PUSH2 0x5688 JUMP JUMPDEST PUSH2 0x10A DUP3 DUP2 SLOAD DUP2 LT PUSH2 0x1D82 JUMPI PUSH4 0x4E487B71 PUSH1 0xE0 SHL PUSH1 0x0 MSTORE PUSH1 0x32 PUSH1 0x4 MSTORE PUSH1 0x24 PUSH1 0x0 REVERT JUMPDEST SWAP1 PUSH1 0x0 MSTORE PUSH1 0x20 PUSH1 0x0 KECCAK256 SWAP1 PUSH1 0x8 MUL ADD PUSH1 0x7 ADD PUSH1 0x1 SWAP1 SLOAD SWAP1 PUSH2 0x100 EXP SWAP1 DIV PUSH1 0xFF AND PUSH2 0x1DBD JUMPI PUSH1 0x40 MLOAD PUSH3 0x461BCD PUSH1 0xE5 SHL DUP2 MSTORE PUSH1 0x4 ADD PUSH2 0xC2A SWAP1 PUSH2 0x58E7 JUMP JUMPDEST PUSH1 0x0 PUSH2 0x10A DUP4 DUP2 SLOAD DUP2 LT PUSH2 0x1DE1 JUMPI PUSH4 0x4E487B71 PUSH1 0xE0 SHL PUSH1 0x0 MSTORE PUSH1 0x32 PUSH1 0x4 MSTORE PUSH1 0x24 PUSH1 0x0 REVERT JUMPDEST SWAP1 PUSH1 0x0 MSTORE PUSH1 0x20 PUSH1 0x0 KECCAK256 SWAP1 PUSH1 0x8 MUL ADD PUSH1 0x7 ADD PUSH1 0x1 PUSH2 0x100 EXP DUP2 SLOAD DUP2 PUSH1 0xFF MUL NOT AND SWAP1 DUP4 ISZERO ISZERO MUL OR SWAP1 SSTORE POP TIMESTAMP PUSH2 0x10A DUP4 DUP2 SLOAD DUP2 LT PUSH2 0x1E2C JUMPI PUSH4 0x4E487B71 PUSH1 0xE0 SHL PUSH1 0x0 MSTORE PUSH1 0x32 PUSH1 0x4 MSTORE PUSH1 0x24 PUSH1 0x0 REVERT JUMPDEST SWAP1 PUSH1 0x0 MSTORE PUSH1 0x20 PUSH1 0x0 KECCAK256 SWAP1 PUSH1 0x8 MUL ADD PUSH1 0x4 ADD DUP2 SWAP1 SSTORE POP DUP2 PUSH1 0x0 DUP1 MLOAD PUSH1 0x20 PUSH2 0x5C9E DUP4 CODECOPY DUP2 MLOAD SWAP2 MSTORE PUSH1 0x0 CALLER PUSH1 0x40 MLOAD PUSH2 0xF7A SWAP3 SWAP2 SWAP1 PUSH2 0x555C JUMP JUMPDEST PUSH1 0x0 DUP3 DUP2 MSTORE PUSH1 0x65 PUSH1 0x20 SWAP1 DUP2 MSTORE PUSH1 0x40 DUP1 DUP4 KECCAK256 PUSH1 0x1 PUSH1 0x1 PUSH1 0xA0 SHL SUB DUP6 AND DUP5 MSTORE SWAP1 SWAP2 MSTORE SWAP1 KECCAK256 SLOAD PUSH1 0xFF AND JUMPDEST SWAP3 SWAP2 POP POP JUMP JUMPDEST PUSH1 0xFF SLOAD PUSH1 0x1 PUSH1 0x1 PUSH1 0xA0 SHL SUB AND DUP2 JUMP JUMPDEST DUP3 CALLER PUSH1 0x1 PUSH1 0x1 PUSH1 0xA0 SHL SUB AND PUSH2 0x10A DUP3 DUP2 SLOAD DUP2 LT PUSH2 0x1ECB JUMPI PUSH4 0x4E487B71 PUSH1 0xE0 SHL PUSH1 0x0 MSTORE PUSH1 0x32 PUSH1 0x4 MSTORE PUSH1 0x24 PUSH1 0x0 REVERT JUMPDEST PUSH1 0x0 SWAP2 DUP3 MSTORE PUSH1 0x20 SWAP1 SWAP2 KECCAK256 PUSH1 0x2 PUSH1 0x8 SWAP1 SWAP3 MUL ADD ADD SLOAD PUSH1 0x1 PUSH1 0x1 PUSH1 0xA0 SHL SUB AND EQ PUSH2 0x1F05 JUMPI PUSH1 0x40 MLOAD PUSH3 0x461BCD PUSH1 0xE5 SHL DUP2 MSTORE PUSH1 0x4 ADD PUSH2 0xC2A SWAP1 PUSH2 0x5688 JUMP JUMPDEST DUP4 PUSH2 0x10A DUP2 DUP2 SLOAD DUP2 LT PUSH2 0x1F28 JUMPI PUSH4 0x4E487B71 PUSH1 0xE0 SHL PUSH1 0x0 MSTORE PUSH1 0x32 PUSH1 0x4 MSTORE PUSH1 0x24 PUSH1 0x0 REVERT JUMPDEST SWAP1 PUSH1 0x0 MSTORE PUSH1 0x20 PUSH1 0x0 KECCAK256 SWAP1 PUSH1 0x8 MUL ADD PUSH1 0x7 ADD PUSH1 0x2 SWAP1 SLOAD SWAP1 PUSH2 0x100 EXP SWAP1 DIV PUSH1 0xFF AND PUSH2 0x1F63 JUMPI PUSH1 0x40 MLOAD PUSH3 0x461BCD PUSH1 0xE5 SHL DUP2 MSTORE PUSH1 0x4 ADD PUSH2 0xC2A SWAP1 PUSH2 0x584F JUMP JUMPDEST DUP5 PUSH2 0x10A DUP2 DUP2 SLOAD DUP2 LT PUSH2 0x1F86 JUMPI PUSH4 0x4E487B71 PUSH1 0xE0 SHL PUSH1 0x0 MSTORE PUSH1 0x32 PUSH1 0x4 MSTORE PUSH1 0x24 PUSH1 0x0 REVERT JUMPDEST SWAP1 PUSH1 0x0 MSTORE PUSH1 0x20 PUSH1 0x0 KECCAK256 SWAP1 PUSH1 0x8 MUL ADD PUSH1 0x7 ADD PUSH1 0x1 SWAP1 SLOAD SWAP1 PUSH2 0x100 EXP SWAP1 DIV PUSH1 0xFF AND DUP1 ISZERO PUSH2 0x1FE6 JUMPI POP PUSH2 0x10A DUP2 DUP2 SLOAD DUP2 LT PUSH2 0x1FCE JUMPI PUSH4 0x4E487B71 PUSH1 0xE0 SHL PUSH1 0x0 MSTORE PUSH1 0x32 PUSH1 0x4 MSTORE PUSH1 0x24 PUSH1 0x0 REVERT JUMPDEST PUSH1 0x0 SWAP2 DUP3 MSTORE PUSH1 0x20 SWAP1 SWAP2 KECCAK256 PUSH1 0x7 PUSH1 0x8 SWAP1 SWAP3 MUL ADD ADD SLOAD PUSH1 0xFF AND JUMPDEST PUSH2 0x2002 JUMPI PUSH1 0x40 MLOAD PUSH3 0x461BCD PUSH1 0xE5 SHL DUP2 MSTORE PUSH1 0x4 ADD PUSH2 0xC2A SWAP1 PUSH2 0x57D6 JUMP JUMPDEST CALLER PUSH1 0x0 DUP2 DUP2 MSTORE PUSH2 0x114 PUSH1 0x20 MSTORE PUSH1 0x40 SWAP1 KECCAK256 SLOAD PUSH2 0x112 DUP1 SLOAD DUP4 SWAP3 SWAP1 DUP2 LT PUSH2 0x2037 JUMPI PUSH4 0x4E487B71 PUSH1 0xE0 SHL PUSH1 0x0 MSTORE PUSH1 0x32 PUSH1 0x4 MSTORE PUSH1 0x24 PUSH1 0x0 REVERT JUMPDEST PUSH1 0x0 SWAP2 DUP3 MSTORE PUSH1 0x20 SWAP1 SWAP2 KECCAK256 PUSH1 0x4 SWAP1 SWAP2 MUL ADD SLOAD PUSH1 0x1 PUSH1 0x1 PUSH1 0xA0 SHL SUB AND EQ PUSH2 0x206E JUMPI PUSH1 0x40 MLOAD PUSH3 0x461BCD PUSH1 0xE5 SHL DUP2 MSTORE PUSH1 0x4 ADD PUSH2 0xC2A SWAP1 PUSH2 0x56E0 JUMP JUMPDEST PUSH1 0x1 PUSH1 0x1 PUSH1 0xA0 SHL SUB DUP2 AND PUSH1 0x0 SWAP1 DUP2 MSTORE PUSH2 0x114 PUSH1 0x20 MSTORE PUSH1 0x40 SWAP1 KECCAK256 SLOAD PUSH2 0x112 DUP1 SLOAD SWAP1 SWAP2 SWAP1 DUP2 LT PUSH2 0x20AC JUMPI PUSH4 0x4E487B71 PUSH1 0xE0 SHL PUSH1 0x0 MSTORE PUSH1 0x32 PUSH1 0x4 MSTORE PUSH1 0x24 PUSH1 0x0 REVERT JUMPDEST PUSH1 0x0 SWAP2 DUP3 MSTORE PUSH1 0x20 SWAP1 SWAP2 KECCAK256 PUSH1 0x3 PUSH1 0x4 SWAP1 SWAP3 MUL ADD ADD SLOAD PUSH1 0xFF AND PUSH2 0x20DF JUMPI PUSH1 0x40 MLOAD PUSH3 0x461BCD PUSH1 0xE5 SHL DUP2 MSTORE PUSH1 0x4 ADD PUSH2 0xC2A SWAP1 PUSH2 0x5753 JUMP JUMPDEST PUSH2 0x20E7 PUSH2 0x1405 JUMP JUMPDEST ISZERO PUSH2 0x2104 JUMPI PUSH1 0x40 MLOAD PUSH3 0x461BCD PUSH1 0xE5 SHL DUP2 MSTORE PUSH1 0x4 ADD PUSH2 0xC2A SWAP1 PUSH2 0x577C JUMP JUMPDEST PUSH1 0x2 PUSH1 0xC9 SLOAD EQ ISZERO PUSH2 0x2127 JUMPI PUSH1 0x40 MLOAD PUSH3 0x461BCD PUSH1 0xE5 SHL DUP2 MSTORE PUSH1 0x4 ADD PUSH2 0xC2A SWAP1 PUSH2 0x59FC JUMP JUMPDEST PUSH1 0x2 PUSH1 0xC9 SSTORE PUSH2 0x10A DUP1 SLOAD DUP9 SWAP1 DUP2 LT PUSH2 0x214F JUMPI PUSH4 0x4E487B71 PUSH1 0xE0 SHL PUSH1 0x0 MSTORE PUSH1 0x32 PUSH1 0x4 MSTORE PUSH1 0x24 PUSH1 0x0 REVERT JUMPDEST SWAP1 PUSH1 0x0 MSTORE PUSH1 0x20 PUSH1 0x0 KECCAK256 SWAP1 PUSH1 0x8 MUL ADD PUSH1 0x7 ADD PUSH1 0x1 SWAP1 SLOAD SWAP1 PUSH2 0x100 EXP SWAP1 DIV PUSH1 0xFF AND PUSH2 0x218A JUMPI PUSH1 0x40 MLOAD PUSH3 0x461BCD PUSH1 0xE5 SHL DUP2 MSTORE PUSH1 0x4 ADD PUSH2 0xC2A SWAP1 PUSH2 0x58E7 JUMP JUMPDEST PUSH1 0x1 PUSH1 0x1 PUSH1 0xA0 SHL SUB DUP6 AND PUSH1 0x0 SWAP1 DUP2 MSTORE PUSH2 0x106 PUSH1 0x20 MSTORE PUSH1 0x40 SWAP1 KECCAK256 SLOAD PUSH1 0xFF AND PUSH2 0x21C3 JUMPI PUSH1 0x40 MLOAD PUSH3 0x461BCD PUSH1 0xE5 SHL DUP2 MSTORE PUSH1 0x4 ADD PUSH2 0xC2A SWAP1 PUSH2 0x58BC JUMP JUMPDEST PUSH2 0x115 DUP7 DUP2 SLOAD DUP2 LT PUSH2 0x21E5 JUMPI PUSH4 0x4E487B71 PUSH1 0xE0 SHL PUSH1 0x0 MSTORE PUSH1 0x32 PUSH1 0x4 MSTORE PUSH1 0x24 PUSH1 0x0 REVERT JUMPDEST PUSH1 0x0 SWAP2 DUP3 MSTORE PUSH1 0x20 SWAP1 SWAP2 KECCAK256 PUSH1 0x4 PUSH1 0x5 SWAP1 SWAP3 MUL ADD ADD SLOAD PUSH1 0xFF AND PUSH2 0x2218 JUMPI PUSH1 0x40 MLOAD PUSH3 0x461BCD PUSH1 0xE5 SHL DUP2 MSTORE PUSH1 0x4 ADD PUSH2 0xC2A SWAP1 PUSH2 0x56B5 JUMP JUMPDEST PUSH2 0x115 DUP7 DUP2 SLOAD DUP2 LT PUSH2 0x223A JUMPI PUSH4 0x4E487B71 PUSH1 0xE0 SHL PUSH1 0x0 MSTORE PUSH1 0x32 PUSH1 0x4 MSTORE PUSH1 0x24 PUSH1 0x0 REVERT JUMPDEST SWAP1 PUSH1 0x0 MSTORE PUSH1 0x20 PUSH1 0x0 KECCAK256 SWAP1 PUSH1 0x5 MUL ADD PUSH1 0x3 ADD SLOAD CALLVALUE LT ISZERO PUSH2 0x226B JUMPI PUSH1 0x40 MLOAD PUSH3 0x461BCD PUSH1 0xE5 SHL DUP2 MSTORE PUSH1 0x4 ADD PUSH2 0xC2A SWAP1 PUSH2 0x5984 JUMP JUMPDEST PUSH2 0x107 SLOAD PUSH2 0x2279 SWAP1 CALLVALUE PUSH2 0x4A3E JUMP JUMPDEST PUSH2 0x107 SSTORE PUSH1 0x0 DUP8 DUP2 MSTORE PUSH2 0x109 PUSH1 0x20 MSTORE PUSH1 0x40 SWAP1 KECCAK256 SLOAD PUSH2 0x2297 SWAP1 CALLVALUE PUSH2 0x4A3E JUMP JUMPDEST PUSH1 0x0 DUP9 DUP2 MSTORE PUSH2 0x109 PUSH1 0x20 MSTORE PUSH1 0x40 SWAP1 KECCAK256 SSTORE PUSH2 0x115 DUP1 SLOAD PUSH2 0x232F SWAP2 TIMESTAMP SWAP2 PUSH2 0x2329 SWAP2 SWAP1 DUP11 SWAP1 DUP2 LT PUSH2 0x22D5 JUMPI PUSH4 0x4E487B71 PUSH1 0xE0 SHL PUSH1 0x0 MSTORE PUSH1 0x32 PUSH1 0x4 MSTORE PUSH1 0x24 PUSH1 0x0 REVERT JUMPDEST SWAP1 PUSH1 0x0 MSTORE PUSH1 0x20 PUSH1 0x0 KECCAK256 SWAP1 PUSH1 0x5 MUL ADD PUSH1 0x2 ADD SLOAD PUSH2 0x10A DUP12 DUP2 SLOAD DUP2 LT PUSH2 0x2309 JUMPI PUSH4 0x4E487B71 PUSH1 0xE0 SHL PUSH1 0x0 MSTORE PUSH1 0x32 PUSH1 0x4 MSTORE PUSH1 0x24 PUSH1 0x0 REVERT JUMPDEST SWAP1 PUSH1 0x0 MSTORE PUSH1 0x20 PUSH1 0x0 KECCAK256 SWAP1 PUSH1 0x8 MUL ADD PUSH1 0x6 ADD SLOAD PUSH2 0x4A3E SWAP1 SWAP2 SWAP1 PUSH4 0xFFFFFFFF AND JUMP JUMPDEST SWAP1 PUSH2 0x4A3E JUMP JUMPDEST PUSH2 0x10A DUP9 DUP2 SLOAD DUP2 LT PUSH2 0x2351 JUMPI PUSH4 0x4E487B71 PUSH1 0xE0 SHL PUSH1 0x0 MSTORE PUSH1 0x32 PUSH1 0x4 MSTORE PUSH1 0x24 PUSH1 0x0 REVERT JUMPDEST SWAP1 PUSH1 0x0 MSTORE PUSH1 0x20 PUSH1 0x0 KECCAK256 SWAP1 PUSH1 0x8 MUL ADD PUSH1 0x6 ADD DUP2 SWAP1 SSTORE POP TIMESTAMP PUSH2 0x10A DUP9 DUP2 SLOAD DUP2 LT PUSH2 0x2389 JUMPI PUSH4 0x4E487B71 PUSH1 0xE0 SHL PUSH1 0x0 MSTORE PUSH1 0x32 PUSH1 0x4 MSTORE PUSH1 0x24 PUSH1 0x0 REVERT JUMPDEST PUSH1 0x0 SWAP2 DUP3 MSTORE PUSH1 0x20 SWAP1 SWAP2 KECCAK256 PUSH1 0x4 PUSH1 0x8 SWAP1 SWAP3 MUL ADD ADD SSTORE PUSH1 0xFD SLOAD PUSH2 0x23B7 SWAP1 DUP7 SWAP1 CALLER SWAP1 PUSH1 0x1 PUSH1 0x1 PUSH1 0xA0 SHL SUB AND CALLVALUE PUSH2 0x4A51 JUMP JUMPDEST DUP7 PUSH32 0xD381797164E18E55C65372A3B02E478A91F0A3FD49DCEEC6CEF1A4DBE037DAFE DUP8 CALLVALUE CALLER PUSH1 0x40 MLOAD PUSH2 0x23EB SWAP4 SWAP3 SWAP2 SWAP1 PUSH2 0x5A99 JUMP JUMPDEST PUSH1 0x40 MLOAD DUP1 SWAP2 SUB SWAP1 LOG2 POP POP PUSH1 0x1 PUSH1 0xC9 SSTORE POP POP POP POP POP JUMP JUMPDEST PUSH2 0x240C PUSH1 0x0 CALLER PUSH2 0x1E62 JUMP JUMPDEST PUSH2 0x2415 JUMPI PUSH1 0x0 DUP1 REVERT JUMPDEST PUSH2 0x110 DUP4 DUP2 SLOAD DUP2 LT PUSH2 0x2437 JUMPI PUSH4 0x4E487B71 PUSH1 0xE0 SHL PUSH1 0x0 MSTORE PUSH1 0x32 PUSH1 0x4 MSTORE PUSH1 0x24 PUSH1 0x0 REVERT JUMPDEST SWAP1 PUSH1 0x0 MSTORE PUSH1 0x20 PUSH1 0x0 KECCAK256 SWAP1 PUSH1 0x4 MUL ADD PUSH1 0x3 ADD PUSH1 0x1 SWAP1 SLOAD SWAP1 PUSH2 0x100 EXP SWAP1 DIV PUSH1 0xFF AND PUSH2 0x245F JUMPI PUSH1 0x0 DUP1 REVERT JUMPDEST PUSH1 0x0 PUSH2 0x246D PUSH2 0x1C7A DUP5 PUSH2 0x49FA JUMP JUMPDEST DUP1 MLOAD PUSH1 0x0 DUP7 DUP2 MSTORE PUSH2 0x104 PUSH1 0x20 MSTORE PUSH1 0x40 SWAP1 DUP2 SWAP1 KECCAK256 SWAP2 SWAP1 SWAP2 SSTORE DUP2 MLOAD SWAP1 MLOAD SWAP2 SWAP3 POP DUP6 SWAP2 PUSH32 0x386BA00BAE27FFFBDEF232F255054D82EC46DAD1185BD320180AE69AFBEC9355 SWAP2 PUSH2 0x24B8 SWAP2 PUSH2 0x5575 JUMP JUMPDEST PUSH1 0x40 MLOAD DUP1 SWAP2 SUB SWAP1 LOG2 POP POP POP POP JUMP JUMPDEST PUSH2 0x104 PUSH1 0x20 MSTORE PUSH1 0x0 SWAP1 DUP2 MSTORE PUSH1 0x40 SWAP1 KECCAK256 SLOAD DUP2 JUMP JUMPDEST PUSH2 0x100 DUP2 DUP2 SLOAD DUP2 LT PUSH2 0x24EA JUMPI PUSH1 0x0 DUP1 REVERT JUMPDEST PUSH1 0x0 SWAP2 DUP3 MSTORE PUSH1 0x20 SWAP1 SWAP2 KECCAK256 ADD SLOAD PUSH1 0x1 PUSH1 0x1 PUSH1 0xA0 SHL SUB AND SWAP1 POP DUP2 JUMP JUMPDEST PUSH2 0x107 SLOAD DUP2 JUMP JUMPDEST PUSH1 0xFC SLOAD PUSH1 0x1 PUSH1 0x1 PUSH1 0xA0 SHL SUB AND DUP2 JUMP JUMPDEST PUSH2 0x2525 PUSH1 0x0 CALLER PUSH2 0x1E62 JUMP JUMPDEST PUSH2 0x252E JUMPI PUSH1 0x0 DUP1 REVERT JUMPDEST PUSH2 0x2536 PUSH2 0x1405 JUMP JUMPDEST ISZERO PUSH2 0x2553 JUMPI PUSH1 0x40 MLOAD PUSH3 0x461BCD PUSH1 0xE5 SHL DUP2 MSTORE PUSH1 0x4 ADD PUSH2 0xC2A SWAP1 PUSH2 0x577C JUMP JUMPDEST PUSH2 0x115 DUP2 DUP2 SLOAD DUP2 LT PUSH2 0x2575 JUMPI PUSH4 0x4E487B71 PUSH1 0xE0 SHL PUSH1 0x0 MSTORE PUSH1 0x32 PUSH1 0x4 MSTORE PUSH1 0x24 PUSH1 0x0 REVERT JUMPDEST PUSH1 0x0 SWAP2 DUP3 MSTORE PUSH1 0x20 SWAP1 SWAP2 KECCAK256 PUSH1 0x4 PUSH1 0x5 SWAP1 SWAP3 MUL ADD ADD SLOAD PUSH1 0xFF AND PUSH2 0x2595 JUMPI PUSH1 0x0 DUP1 REVERT JUMPDEST PUSH2 0x115 DUP2 DUP2 SLOAD DUP2 LT PUSH2 0x25B7 JUMPI PUSH4 0x4E487B71 PUSH1 0xE0 SHL PUSH1 0x0 MSTORE PUSH1 0x32 PUSH1 0x4 MSTORE PUSH1 0x24 PUSH1 0x0 REVERT JUMPDEST PUSH1 0x0 SWAP2 DUP3 MSTORE PUSH1 0x20 DUP3 KECCAK256 PUSH1 0x5 SWAP1 SWAP2 MUL ADD DUP2 DUP2 SSTORE PUSH1 0x1 DUP2 ADD DUP3 SWAP1 SSTORE PUSH1 0x2 DUP2 ADD DUP3 SWAP1 SSTORE PUSH1 0x3 DUP2 ADD SWAP2 SWAP1 SWAP2 SSTORE PUSH1 0x4 ADD DUP1 SLOAD PUSH1 0xFF NOT AND SWAP1 SSTORE PUSH1 0x40 MLOAD DUP2 SWAP1 PUSH32 0x81FDF7EF99F82082B15127BC99F9E1C28217C3961F36A1FD9605570AE3293CB2 SWAP1 PUSH2 0x261C SWAP1 CALLER SWAP1 PUSH2 0x541A JUMP JUMPDEST PUSH1 0x40 MLOAD DUP1 SWAP2 SUB SWAP1 LOG2 POP JUMP JUMPDEST PUSH2 0x10C PUSH1 0x20 MSTORE PUSH1 0x0 SWAP1 DUP2 MSTORE PUSH1 0x40 SWAP1 KECCAK256 SLOAD PUSH1 0x1 PUSH1 0x1 PUSH1 0xA0 SHL SUB AND DUP2 JUMP JUMPDEST PUSH1 0x0 DUP2 JUMP JUMPDEST PUSH1 0x0 DUP1 MLOAD PUSH1 0x20 PUSH2 0x5C5E DUP4 CODECOPY DUP2 MLOAD SWAP2 MSTORE DUP2 JUMP JUMPDEST CALLER PUSH1 0x0 DUP2 DUP2 MSTORE PUSH2 0x114 PUSH1 0x20 MSTORE PUSH1 0x40 SWAP1 KECCAK256 SLOAD PUSH2 0x112 DUP1 SLOAD DUP4 SWAP3 SWAP1 DUP2 LT PUSH2 0x268F JUMPI PUSH4 0x4E487B71 PUSH1 0xE0 SHL PUSH1 0x0 MSTORE PUSH1 0x32 PUSH1 0x4 MSTORE PUSH1 0x24 PUSH1 0x0 REVERT JUMPDEST PUSH1 0x0 SWAP2 DUP3 MSTORE PUSH1 0x20 SWAP1 SWAP2 KECCAK256 PUSH1 0x4 SWAP1 SWAP2 MUL ADD SLOAD PUSH1 0x1 PUSH1 0x1 PUSH1 0xA0 SHL SUB AND EQ PUSH2 0x26C6 JUMPI PUSH1 0x40 MLOAD PUSH3 0x461BCD PUSH1 0xE5 SHL DUP2 MSTORE PUSH1 0x4 ADD PUSH2 0xC2A SWAP1 PUSH2 0x56E0 JUMP JUMPDEST PUSH1 0x1 PUSH1 0x1 PUSH1 0xA0 SHL SUB DUP2 AND PUSH1 0x0 SWAP1 DUP2 MSTORE PUSH2 0x114 PUSH1 0x20 MSTORE PUSH1 0x40 SWAP1 KECCAK256 SLOAD PUSH2 0x112 DUP1 SLOAD SWAP1 SWAP2 SWAP1 DUP2 LT PUSH2 0x2704 JUMPI PUSH4 0x4E487B71 PUSH1 0xE0 SHL PUSH1 0x0 MSTORE PUSH1 0x32 PUSH1 0x4 MSTORE PUSH1 0x24 PUSH1 0x0 REVERT JUMPDEST PUSH1 0x0 SWAP2 DUP3 MSTORE PUSH1 0x20 SWAP1 SWAP2 KECCAK256 PUSH1 0x3 PUSH1 0x4 SWAP1 SWAP3 MUL ADD ADD SLOAD PUSH1 0xFF AND PUSH2 0x2737 JUMPI PUSH1 0x40 MLOAD PUSH3 0x461BCD PUSH1 0xE5 SHL DUP2 MSTORE PUSH1 0x4 ADD PUSH2 0xC2A SWAP1 PUSH2 0x5753 JUMP JUMPDEST PUSH2 0x273F PUSH2 0x1405 JUMP JUMPDEST ISZERO PUSH2 0x275C JUMPI PUSH1 0x40 MLOAD PUSH3 0x461BCD PUSH1 0xE5 SHL DUP2 MSTORE PUSH1 0x4 ADD PUSH2 0xC2A SWAP1 PUSH2 0x577C JUMP JUMPDEST PUSH2 0x110 DUP3 DUP2 SLOAD DUP2 LT PUSH2 0x277E JUMPI PUSH4 0x4E487B71 PUSH1 0xE0 SHL PUSH1 0x0 MSTORE PUSH1 0x32 PUSH1 0x4 MSTORE PUSH1 0x24 PUSH1 0x0 REVERT JUMPDEST SWAP1 PUSH1 0x0 MSTORE PUSH1 0x20 PUSH1 0x0 KECCAK256 SWAP1 PUSH1 0x4 MUL ADD PUSH1 0x3 ADD PUSH1 0x1 SWAP1 SLOAD SWAP1 PUSH2 0x100 EXP SWAP1 DIV PUSH1 0xFF AND DUP1 ISZERO PUSH2 0x27DE JUMPI POP PUSH2 0x110 DUP3 DUP2 SLOAD DUP2 LT PUSH2 0x27C6 JUMPI PUSH4 0x4E487B71 PUSH1 0xE0 SHL PUSH1 0x0 MSTORE PUSH1 0x32 PUSH1 0x4 MSTORE PUSH1 0x24 PUSH1 0x0 REVERT JUMPDEST PUSH1 0x0 SWAP2 DUP3 MSTORE PUSH1 0x20 SWAP1 SWAP2 KECCAK256 PUSH1 0x3 PUSH1 0x4 SWAP1 SWAP3 MUL ADD ADD SLOAD PUSH1 0xFF AND JUMPDEST PUSH2 0x27E7 JUMPI PUSH1 0x0 DUP1 REVERT JUMPDEST PUSH1 0xFE SLOAD PUSH1 0x0 SWAP1 PUSH2 0x27FF SWAP1 PUSH1 0x1 PUSH1 0x1 PUSH1 0xA0 SHL SUB AND PUSH2 0x4AAF JUMP JUMPDEST PUSH1 0xFF SLOAD SWAP1 SWAP2 POP PUSH1 0x0 SWAP1 PUSH2 0x281A SWAP1 PUSH1 0x1 PUSH1 0x1 PUSH1 0xA0 SHL SUB AND PUSH2 0x4AAF JUMP JUMPDEST SWAP1 POP PUSH1 0x0 PUSH1 0x40 MLOAD DUP1 PUSH2 0x140 ADD PUSH1 0x40 MSTORE DUP1 DUP5 PUSH1 0x1 PUSH1 0x1 PUSH1 0xA0 SHL SUB AND DUP2 MSTORE PUSH1 0x20 ADD DUP4 PUSH1 0x1 PUSH1 0x1 PUSH1 0xA0 SHL SUB AND DUP2 MSTORE PUSH1 0x20 ADD CALLER PUSH1 0x1 PUSH1 0x1 PUSH1 0xA0 SHL SUB AND DUP2 MSTORE PUSH1 0x20 ADD TIMESTAMP DUP2 MSTORE PUSH1 0x20 ADD PUSH1 0x0 DUP2 MSTORE PUSH1 0x20 ADD DUP7 DUP2 MSTORE PUSH1 0x20 ADD PUSH1 0x0 DUP2 MSTORE PUSH1 0x20 ADD PUSH1 0x0 ISZERO ISZERO DUP2 MSTORE PUSH1 0x20 ADD PUSH1 0x0 ISZERO ISZERO DUP2 MSTORE PUSH1 0x20 ADD PUSH1 0x1 ISZERO ISZERO DUP2 MSTORE POP SWAP1 POP PUSH2 0x10A DUP2 SWAP1 DUP1 PUSH1 0x1 DUP2 SLOAD ADD DUP1 DUP3 SSTORE DUP1 SWAP2 POP POP PUSH1 0x1 SWAP1 SUB SWAP1 PUSH1 0x0 MSTORE PUSH1 0x20 PUSH1 0x0 KECCAK256 SWAP1 PUSH1 0x8 MUL ADD PUSH1 0x0 SWAP1 SWAP2 SWAP1 SWAP2 SWAP1 SWAP2 POP PUSH1 0x0 DUP3 ADD MLOAD DUP2 PUSH1 0x0 ADD PUSH1 0x0 PUSH2 0x100 EXP DUP2 SLOAD DUP2 PUSH1 0x1 PUSH1 0x1 PUSH1 0xA0 SHL SUB MUL NOT AND SWAP1 DUP4 PUSH1 0x1 PUSH1 0x1 PUSH1 0xA0 SHL SUB AND MUL OR SWAP1 SSTORE POP PUSH1 0x20 DUP3 ADD MLOAD DUP2 PUSH1 0x1 ADD PUSH1 0x0 PUSH2 0x100 EXP DUP2 SLOAD DUP2 PUSH1 0x1 PUSH1 0x1 PUSH1 0xA0 SHL SUB MUL NOT AND SWAP1 DUP4 PUSH1 0x1 PUSH1 0x1 PUSH1 0xA0 SHL SUB AND MUL OR SWAP1 SSTORE POP PUSH1 0x40 DUP3 ADD MLOAD DUP2 PUSH1 0x2 ADD PUSH1 0x0 PUSH2 0x100 EXP DUP2 SLOAD DUP2 PUSH1 0x1 PUSH1 0x1 PUSH1 0xA0 SHL SUB MUL NOT AND SWAP1 DUP4 PUSH1 0x1 PUSH1 0x1 PUSH1 0xA0 SHL SUB AND MUL OR SWAP1 SSTORE POP PUSH1 0x60 DUP3 ADD MLOAD DUP2 PUSH1 0x3 ADD SSTORE PUSH1 0x80 DUP3 ADD MLOAD DUP2 PUSH1 0x4 ADD SSTORE PUSH1 0xA0 DUP3 ADD MLOAD DUP2 PUSH1 0x5 ADD SSTORE PUSH1 0xC0 DUP3 ADD MLOAD DUP2 PUSH1 0x6 ADD SSTORE PUSH1 0xE0 DUP3 ADD MLOAD DUP2 PUSH1 0x7 ADD PUSH1 0x0 PUSH2 0x100 EXP DUP2 SLOAD DUP2 PUSH1 0xFF MUL NOT AND SWAP1 DUP4 ISZERO ISZERO MUL OR SWAP1 SSTORE POP PUSH2 0x100 DUP3 ADD MLOAD DUP2 PUSH1 0x7 ADD PUSH1 0x1 PUSH2 0x100 EXP DUP2 SLOAD DUP2 PUSH1 0xFF MUL NOT AND SWAP1 DUP4 ISZERO ISZERO MUL OR SWAP1 SSTORE POP PUSH2 0x120 DUP3 ADD MLOAD DUP2 PUSH1 0x7 ADD PUSH1 0x2 PUSH2 0x100 EXP DUP2 SLOAD DUP2 PUSH1 0xFF MUL NOT AND SWAP1 DUP4 ISZERO ISZERO MUL OR SWAP1 SSTORE POP POP POP CALLER PUSH2 0x10C PUSH1 0x0 DUP6 PUSH1 0x1 PUSH1 0x1 PUSH1 0xA0 SHL SUB AND PUSH1 0x1 PUSH1 0x1 PUSH1 0xA0 SHL SUB AND DUP2 MSTORE PUSH1 0x20 ADD SWAP1 DUP2 MSTORE PUSH1 0x20 ADD PUSH1 0x0 KECCAK256 PUSH1 0x0 PUSH2 0x100 EXP DUP2 SLOAD DUP2 PUSH1 0x1 PUSH1 0x1 PUSH1 0xA0 SHL SUB MUL NOT AND SWAP1 DUP4 PUSH1 0x1 PUSH1 0x1 PUSH1 0xA0 SHL SUB AND MUL OR SWAP1 SSTORE POP PUSH1 0x0 PUSH2 0x2A33 PUSH1 0x1 PUSH2 0x10A DUP1 SLOAD SWAP1 POP PUSH2 0x4B1E SWAP1 SWAP2 SWAP1 PUSH4 0xFFFFFFFF AND JUMP JUMPDEST PUSH1 0x1 PUSH1 0x1 PUSH1 0xA0 SHL SUB DUP6 AND PUSH1 0x0 SWAP1 DUP2 MSTORE PUSH2 0x10D PUSH1 0x20 MSTORE PUSH1 0x40 SWAP1 KECCAK256 DUP2 SWAP1 SSTORE PUSH2 0x110 DUP1 SLOAD SWAP2 SWAP3 POP PUSH2 0x2A94 SWAP2 PUSH1 0x1 SWAP2 SWAP1 DUP10 SWAP1 DUP2 LT PUSH2 0x2A7D JUMPI PUSH4 0x4E487B71 PUSH1 0xE0 SHL PUSH1 0x0 MSTORE PUSH1 0x32 PUSH1 0x4 MSTORE PUSH1 0x24 PUSH1 0x0 REVERT JUMPDEST PUSH1 0x0 SWAP2 DUP3 MSTORE PUSH1 0x20 SWAP1 SWAP2 KECCAK256 PUSH1 0x4 SWAP1 SWAP2 MUL ADD SLOAD SWAP1 PUSH2 0x4A3E JUMP JUMPDEST PUSH2 0x110 DUP8 DUP2 SLOAD DUP2 LT PUSH2 0x2AB6 JUMPI PUSH4 0x4E487B71 PUSH1 0xE0 SHL PUSH1 0x0 MSTORE PUSH1 0x32 PUSH1 0x4 MSTORE PUSH1 0x24 PUSH1 0x0 REVERT JUMPDEST PUSH1 0x0 SWAP2 DUP3 MSTORE PUSH1 0x20 SWAP1 SWAP2 KECCAK256 PUSH1 0x4 SWAP1 SWAP2 MUL ADD SSTORE PUSH2 0x10B SLOAD PUSH2 0x2AD6 SWAP1 PUSH1 0x1 PUSH2 0x4A3E JUMP JUMPDEST PUSH2 0x10B SSTORE PUSH1 0x40 MLOAD PUSH4 0x83BCBC4B PUSH1 0xE0 SHL DUP2 MSTORE PUSH1 0x1 PUSH1 0x1 PUSH1 0xA0 SHL SUB DUP6 AND SWAP1 PUSH4 0x83BCBC4B SWAP1 PUSH2 0x2B0C SWAP1 ADDRESS SWAP1 DUP8 SWAP1 CALLER SWAP1 DUP8 SWAP1 PUSH1 0x4 ADD PUSH2 0x557E JUMP JUMPDEST PUSH1 0x0 PUSH1 0x40 MLOAD DUP1 DUP4 SUB DUP2 PUSH1 0x0 DUP8 DUP1 EXTCODESIZE ISZERO DUP1 ISZERO PUSH2 0x2B26 JUMPI PUSH1 0x0 DUP1 REVERT JUMPDEST POP GAS CALL ISZERO DUP1 ISZERO PUSH2 0x2B3A JUMPI RETURNDATASIZE PUSH1 0x0 DUP1 RETURNDATACOPY RETURNDATASIZE PUSH1 0x0 REVERT JUMPDEST POP POP PUSH1 0x40 MLOAD PUSH4 0xE6A924B PUSH1 0xE0 SHL DUP2 MSTORE PUSH1 0x1 PUSH1 0x1 PUSH1 0xA0 SHL SUB DUP7 AND SWAP3 POP PUSH4 0xE6A924B SWAP2 POP PUSH2 0x2B70 SWAP1 ADDRESS SWAP1 DUP9 SWAP1 CALLER SWAP1 DUP8 SWAP1 PUSH1 0x4 ADD PUSH2 0x557E JUMP JUMPDEST PUSH1 0x0 PUSH1 0x40 MLOAD DUP1 DUP4 SUB DUP2 PUSH1 0x0 DUP8 DUP1 EXTCODESIZE ISZERO DUP1 ISZERO PUSH2 0x2B8A JUMPI PUSH1 0x0 DUP1 REVERT JUMPDEST POP GAS CALL ISZERO DUP1 ISZERO PUSH2 0x2B9E JUMPI RETURNDATASIZE PUSH1 0x0 DUP1 RETURNDATACOPY RETURNDATASIZE PUSH1 0x0 REVERT JUMPDEST POP POP CALLER PUSH1 0x0 DUP2 DUP2 MSTORE PUSH2 0x114 PUSH1 0x20 MSTORE PUSH1 0x40 SWAP1 DUP2 SWAP1 KECCAK256 SLOAD SWAP1 MLOAD DUP6 SWAP5 POP PUSH32 0x3E157814D1E531C32042B37FEAFFFEFF662B969A390A716ACFEE6EA2E8ACA181 SWAP4 POP PUSH2 0x2BEC SWAP3 ADDRESS SWAP3 DUP11 SWAP3 DUP11 SWAP3 DUP15 SWAP2 PUSH2 0x546B JUMP JUMPDEST PUSH1 0x40 MLOAD DUP1 SWAP2 SUB SWAP1 LOG2 POP POP POP POP POP POP JUMP JUMPDEST DUP1 CALLER PUSH1 0x1 PUSH1 0x1 PUSH1 0xA0 SHL SUB AND PUSH2 0x10A DUP3 DUP2 SLOAD DUP2 LT PUSH2 0x2C29 JUMPI PUSH4 0x4E487B71 PUSH1 0xE0 SHL PUSH1 0x0 MSTORE PUSH1 0x32 PUSH1 0x4 MSTORE PUSH1 0x24 PUSH1 0x0 REVERT JUMPDEST PUSH1 0x0 SWAP2 DUP3 MSTORE PUSH1 0x20 SWAP1 SWAP2 KECCAK256 PUSH1 0x2 PUSH1 0x8 SWAP1 SWAP3 MUL ADD ADD SLOAD PUSH1 0x1 PUSH1 0x1 PUSH1 0xA0 SHL SUB AND EQ PUSH2 0x2C63 JUMPI PUSH1 0x40 MLOAD PUSH3 0x461BCD PUSH1 0xE5 SHL DUP2 MSTORE PUSH1 0x4 ADD PUSH2 0xC2A SWAP1 PUSH2 0x5688 JUMP JUMPDEST DUP2 PUSH2 0x10A DUP2 DUP2 SLOAD DUP2 LT PUSH2 0x2C86 JUMPI PUSH4 0x4E487B71 PUSH1 0xE0 SHL PUSH1 0x0 MSTORE PUSH1 0x32 PUSH1 0x4 MSTORE PUSH1 0x24 PUSH1 0x0 REVERT JUMPDEST SWAP1 PUSH1 0x0 MSTORE PUSH1 0x20 PUSH1 0x0 KECCAK256 SWAP1 PUSH1 0x8 MUL ADD PUSH1 0x7 ADD PUSH1 0x2 SWAP1 SLOAD SWAP1 PUSH2 0x100 EXP SWAP1 DIV PUSH1 0xFF AND PUSH2 0x2CC1 JUMPI PUSH1 0x40 MLOAD PUSH3 0x461BCD PUSH1 0xE5 SHL DUP2 MSTORE PUSH1 0x4 ADD PUSH2 0xC2A SWAP1 PUSH2 0x584F JUMP JUMPDEST CALLER PUSH1 0x0 DUP2 DUP2 MSTORE PUSH2 0x114 PUSH1 0x20 MSTORE PUSH1 0x40 SWAP1 KECCAK256 SLOAD PUSH2 0x112 DUP1 SLOAD DUP4 SWAP3 SWAP1 DUP2 LT PUSH2 0x2CF6 JUMPI PUSH4 0x4E487B71 PUSH1 0xE0 SHL PUSH1 0x0 MSTORE PUSH1 0x32 PUSH1 0x4 MSTORE PUSH1 0x24 PUSH1 0x0 REVERT JUMPDEST PUSH1 0x0 SWAP2 DUP3 MSTORE PUSH1 0x20 SWAP1 SWAP2 KECCAK256 PUSH1 0x4 SWAP1 SWAP2 MUL ADD SLOAD PUSH1 0x1 PUSH1 0x1 PUSH1 0xA0 SHL SUB AND EQ PUSH2 0x2D2D JUMPI PUSH1 0x40 MLOAD PUSH3 0x461BCD PUSH1 0xE5 SHL DUP2 MSTORE PUSH1 0x4 ADD PUSH2 0xC2A SWAP1 PUSH2 0x56E0 JUMP JUMPDEST PUSH1 0x1 PUSH1 0x1 PUSH1 0xA0 SHL SUB DUP2 AND PUSH1 0x0 SWAP1 DUP2 MSTORE PUSH2 0x114 PUSH1 0x20 MSTORE PUSH1 0x40 SWAP1 KECCAK256 SLOAD PUSH2 0x112 DUP1 SLOAD SWAP1 SWAP2 SWAP1 DUP2 LT PUSH2 0x2D6B JUMPI PUSH4 0x4E487B71 PUSH1 0xE0 SHL PUSH1 0x0 MSTORE PUSH1 0x32 PUSH1 0x4 MSTORE PUSH1 0x24 PUSH1 0x0 REVERT JUMPDEST PUSH1 0x0 SWAP2 DUP3 MSTORE PUSH1 0x20 SWAP1 SWAP2 KECCAK256 PUSH1 0x3 PUSH1 0x4 SWAP1 SWAP3 MUL ADD ADD SLOAD PUSH1 0xFF AND PUSH2 0x2D9E JUMPI PUSH1 0x40 MLOAD PUSH3 0x461BCD PUSH1 0xE5 SHL DUP2 MSTORE PUSH1 0x4 ADD PUSH2 0xC2A SWAP1 PUSH2 0x5753 JUMP JUMPDEST PUSH2 0x2DA6 PUSH2 0x1405 JUMP JUMPDEST ISZERO PUSH2 0x2DC3 JUMPI PUSH1 0x40 MLOAD PUSH3 0x461BCD PUSH1 0xE5 SHL DUP2 MSTORE PUSH1 0x4 ADD PUSH2 0xC2A SWAP1 PUSH2 0x577C JUMP JUMPDEST TIMESTAMP PUSH2 0x10A DUP6 DUP2 SLOAD DUP2 LT PUSH2 0x2DE6 JUMPI PUSH4 0x4E487B71 PUSH1 0xE0 SHL PUSH1 0x0 MSTORE PUSH1 0x32 PUSH1 0x4 MSTORE PUSH1 0x24 PUSH1 0x0 REVERT JUMPDEST SWAP1 PUSH1 0x0 MSTORE PUSH1 0x20 PUSH1 0x0 KECCAK256 SWAP1 PUSH1 0x8 MUL ADD PUSH1 0x6 ADD SLOAD LT ISZERO PUSH2 0x2E16 JUMPI PUSH1 0x40 MLOAD PUSH3 0x461BCD PUSH1 0xE5 SHL DUP2 MSTORE PUSH1 0x4 ADD PUSH2 0xC2A SWAP1 PUSH2 0x5640 JUMP JUMPDEST PUSH1 0x0 DUP5 DUP2 MSTORE PUSH2 0x10E PUSH1 0x20 MSTORE PUSH1 0x40 SWAP1 KECCAK256 SLOAD PUSH1 0xFF AND ISZERO PUSH2 0x2E46 JUMPI PUSH1 0x40 MLOAD PUSH3 0x461BCD PUSH1 0xE5 SHL DUP2 MSTORE PUSH1 0x4 ADD PUSH2 0xC2A SWAP1 PUSH2 0x594D JUMP JUMPDEST PUSH2 0x2E8C TIMESTAMP PUSH2 0x10A DUP7 DUP2 SLOAD DUP2 LT PUSH2 0x2E6C JUMPI PUSH4 0x4E487B71 PUSH1 0xE0 SHL PUSH1 0x0 MSTORE PUSH1 0x32 PUSH1 0x4 MSTORE PUSH1 0x24 PUSH1 0x0 REVERT JUMPDEST SWAP1 PUSH1 0x0 MSTORE PUSH1 0x20 PUSH1 0x0 KECCAK256 SWAP1 PUSH1 0x8 MUL ADD PUSH1 0x6 ADD SLOAD PUSH2 0x4B1E SWAP1 SWAP2 SWAP1 PUSH4 0xFFFFFFFF AND JUMP JUMPDEST PUSH1 0x0 DUP6 DUP2 MSTORE PUSH2 0x10F PUSH1 0x20 SWAP1 DUP2 MSTORE PUSH1 0x40 DUP1 DUP4 KECCAK256 SWAP4 SWAP1 SWAP4 SSTORE PUSH2 0x10E SWAP1 MSTORE DUP2 SWAP1 KECCAK256 DUP1 SLOAD PUSH1 0xFF NOT AND PUSH1 0x1 OR SWAP1 SSTORE MLOAD DUP5 SWAP1 PUSH32 0xE735270F71E68E0632CE9FD384FDE8C2F9CBC490871B2529A728B616F15A10AC SWAP1 PUSH2 0x24B8 SWAP1 CALLER SWAP1 PUSH2 0x541A JUMP JUMPDEST PUSH2 0x2EF0 PUSH1 0x0 CALLER PUSH2 0x1E62 JUMP JUMPDEST PUSH2 0x2EF9 JUMPI PUSH1 0x0 DUP1 REVERT JUMPDEST PUSH2 0x1175 DUP2 DUP4 PUSH2 0xF8D JUMP JUMPDEST PUSH2 0x105 PUSH1 0x20 MSTORE PUSH1 0x0 SWAP1 DUP2 MSTORE PUSH1 0x40 SWAP1 KECCAK256 SLOAD PUSH1 0xFF AND DUP2 JUMP JUMPDEST PUSH2 0x116 SLOAD DUP2 JUMP JUMPDEST PUSH1 0x0 DUP1 MLOAD PUSH1 0x20 PUSH2 0x5C5E DUP4 CODECOPY DUP2 MLOAD SWAP2 MSTORE PUSH2 0x2F39 DUP2 CALLER PUSH2 0x1E62 JUMP JUMPDEST PUSH2 0x2F42 JUMPI PUSH1 0x0 DUP1 REVERT JUMPDEST PUSH2 0x2F4A PUSH2 0x1405 JUMP JUMPDEST ISZERO PUSH2 0x2F67 JUMPI PUSH1 0x40 MLOAD PUSH3 0x461BCD PUSH1 0xE5 SHL DUP2 MSTORE PUSH1 0x4 ADD PUSH2 0xC2A SWAP1 PUSH2 0x577C JUMP JUMPDEST PUSH1 0x40 DUP1 MLOAD PUSH1 0xA0 DUP2 ADD DUP3 MSTORE PUSH1 0x0 DUP1 DUP3 MSTORE TIMESTAMP PUSH1 0x20 DUP4 ADD SWAP1 DUP2 MSTORE SWAP3 DUP3 ADD DUP2 DUP2 MSTORE DUP6 ISZERO ISZERO PUSH1 0x60 DUP5 ADD SWAP1 DUP2 MSTORE PUSH1 0x1 PUSH1 0x80 DUP6 ADD DUP2 DUP2 MSTORE PUSH2 0x110 DUP1 SLOAD DUP1 DUP5 ADD DUP3 SSTORE SWAP6 MSTORE DUP6 MLOAD PUSH32 0xC992A4F4C614C6258B392474376B00C403BA311AD1B24C06537A7C109387F977 PUSH1 0x4 SWAP1 SWAP7 MUL SWAP6 DUP7 ADD SSTORE SWAP6 MLOAD PUSH32 0xC992A4F4C614C6258B392474376B00C403BA311AD1B24C06537A7C109387F978 DUP6 ADD SSTORE SWAP2 MLOAD PUSH32 0xC992A4F4C614C6258B392474376B00C403BA311AD1B24C06537A7C109387F979 DUP5 ADD SSTORE MLOAD PUSH32 0xC992A4F4C614C6258B392474376B00C403BA311AD1B24C06537A7C109387F97A SWAP1 SWAP3 ADD DUP1 SLOAD SWAP5 MLOAD PUSH1 0xFF NOT SWAP1 SWAP6 AND SWAP3 ISZERO ISZERO SWAP3 SWAP1 SWAP3 OR PUSH2 0xFF00 NOT AND PUSH2 0x100 SWAP5 ISZERO ISZERO SWAP5 SWAP1 SWAP5 MUL SWAP4 SWAP1 SWAP4 OR SWAP1 SSTORE PUSH2 0x111 SLOAD SWAP1 SWAP2 PUSH2 0x3076 SWAP2 SWAP1 PUSH2 0x4A3E JUMP JUMPDEST PUSH2 0x111 SSTORE PUSH2 0x110 SLOAD PUSH1 0x0 SWAP1 PUSH2 0x104 SWAP1 DUP3 SWAP1 PUSH2 0x3092 SWAP1 PUSH1 0x1 PUSH2 0x4B1E JUMP JUMPDEST DUP2 MSTORE PUSH1 0x20 DUP2 ADD SWAP2 SWAP1 SWAP2 MSTORE PUSH1 0x40 ADD PUSH1 0x0 KECCAK256 SSTORE PUSH2 0x110 SLOAD PUSH2 0x30B2 SWAP1 PUSH1 0x1 PUSH2 0x4B1E JUMP JUMPDEST PUSH32 0x921D47D15CA07451722BD7406F515D5CF98207E8F2DBE8A46B4A047F75D5EDB1 DUP5 CALLER PUSH1 0x40 MLOAD PUSH2 0xD32 SWAP3 SWAP2 SWAP1 PUSH2 0x555C JUMP JUMPDEST PUSH2 0x115 DUP2 DUP2 SLOAD DUP2 LT PUSH2 0x30F4 JUMPI PUSH1 0x0 DUP1 REVERT JUMPDEST PUSH1 0x0 SWAP2 DUP3 MSTORE PUSH1 0x20 SWAP1 SWAP2 KECCAK256 PUSH1 0x5 SWAP1 SWAP2 MUL ADD DUP1 SLOAD PUSH1 0x1 DUP3 ADD SLOAD PUSH1 0x2 DUP4 ADD SLOAD PUSH1 0x3 DUP5 ADD SLOAD PUSH1 0x4 SWAP1 SWAP5 ADD SLOAD SWAP3 SWAP5 POP SWAP1 SWAP3 SWAP1 SWAP2 PUSH1 0xFF AND DUP6 JUMP JUMPDEST DUP1 CALLER PUSH1 0x1 PUSH1 0x1 PUSH1 0xA0 SHL SUB AND PUSH2 0x10A DUP3 DUP2 SLOAD DUP2 LT PUSH2 0x3155 JUMPI PUSH4 0x4E487B71 PUSH1 0xE0 SHL PUSH1 0x0 MSTORE PUSH1 0x32 PUSH1 0x4 MSTORE PUSH1 0x24 PUSH1 0x0 REVERT JUMPDEST PUSH1 0x0 SWAP2 DUP3 MSTORE PUSH1 0x20 SWAP1 SWAP2 KECCAK256 PUSH1 0x2 PUSH1 0x8 SWAP1 SWAP3 MUL ADD ADD SLOAD PUSH1 0x1 PUSH1 0x1 PUSH1 0xA0 SHL SUB AND EQ PUSH2 0x318F JUMPI PUSH1 0x40 MLOAD PUSH3 0x461BCD PUSH1 0xE5 SHL DUP2 MSTORE PUSH1 0x4 ADD PUSH2 0xC2A SWAP1 PUSH2 0x5688 JUMP JUMPDEST DUP2 PUSH2 0x10A DUP2 DUP2 SLOAD DUP2 LT PUSH2 0x31B2 JUMPI PUSH4 0x4E487B71 PUSH1 0xE0 SHL PUSH1 0x0 MSTORE PUSH1 0x32 PUSH1 0x4 MSTORE PUSH1 0x24 PUSH1 0x0 REVERT JUMPDEST SWAP1 PUSH1 0x0 MSTORE PUSH1 0x20 PUSH1 0x0 KECCAK256 SWAP1 PUSH1 0x8 MUL ADD PUSH1 0x7 ADD PUSH1 0x2 SWAP1 SLOAD SWAP1 PUSH2 0x100 EXP SWAP1 DIV PUSH1 0xFF AND PUSH2 0x31ED JUMPI PUSH1 0x40 MLOAD PUSH3 0x461BCD PUSH1 0xE5 SHL DUP2 MSTORE PUSH1 0x4 ADD PUSH2 0xC2A SWAP1 PUSH2 0x584F JUMP JUMPDEST CALLER PUSH1 0x0 DUP2 DUP2 MSTORE PUSH2 0x114 PUSH1 0x20 MSTORE PUSH1 0x40 SWAP1 KECCAK256 SLOAD PUSH2 0x112 DUP1 SLOAD DUP4 SWAP3 SWAP1 DUP2 LT PUSH2 0x3222 JUMPI PUSH4 0x4E487B71 PUSH1 0xE0 SHL PUSH1 0x0 MSTORE PUSH1 0x32 PUSH1 0x4 MSTORE PUSH1 0x24 PUSH1 0x0 REVERT JUMPDEST PUSH1 0x0 SWAP2 DUP3 MSTORE PUSH1 0x20 SWAP1 SWAP2 KECCAK256 PUSH1 0x4 SWAP1 SWAP2 MUL ADD SLOAD PUSH1 0x1 PUSH1 0x1 PUSH1 0xA0 SHL SUB AND EQ PUSH2 0x3259 JUMPI PUSH1 0x40 MLOAD PUSH3 0x461BCD PUSH1 0xE5 SHL DUP2 MSTORE PUSH1 0x4 ADD PUSH2 0xC2A SWAP1 PUSH2 0x56E0 JUMP JUMPDEST PUSH1 0x1 PUSH1 0x1 PUSH1 0xA0 SHL SUB DUP2 AND PUSH1 0x0 SWAP1 DUP2 MSTORE PUSH2 0x114 PUSH1 0x20 MSTORE PUSH1 0x40 SWAP1 KECCAK256 SLOAD PUSH2 0x112 DUP1 SLOAD SWAP1 SWAP2 SWAP1 DUP2 LT PUSH2 0x3297 JUMPI PUSH4 0x4E487B71 PUSH1 0xE0 SHL PUSH1 0x0 MSTORE PUSH1 0x32 PUSH1 0x4 MSTORE PUSH1 0x24 PUSH1 0x0 REVERT JUMPDEST PUSH1 0x0 SWAP2 DUP3 MSTORE PUSH1 0x20 SWAP1 SWAP2 KECCAK256 PUSH1 0x3 PUSH1 0x4 SWAP1 SWAP3 MUL ADD ADD SLOAD PUSH1 0xFF AND PUSH2 0x32CA JUMPI PUSH1 0x40 MLOAD PUSH3 0x461BCD PUSH1 0xE5 SHL DUP2 MSTORE PUSH1 0x4 ADD PUSH2 0xC2A SWAP1 PUSH2 0x5753 JUMP JUMPDEST PUSH2 0x32D2 PUSH2 0x1405 JUMP JUMPDEST ISZERO PUSH2 0x32EF JUMPI PUSH1 0x40 MLOAD PUSH3 0x461BCD PUSH1 0xE5 SHL DUP2 MSTORE PUSH1 0x4 ADD PUSH2 0xC2A SWAP1 PUSH2 0x577C JUMP JUMPDEST PUSH1 0x0 DUP5 DUP2 MSTORE PUSH2 0x10E PUSH1 0x20 MSTORE PUSH1 0x40 SWAP1 KECCAK256 SLOAD PUSH1 0xFF AND PUSH2 0x330B JUMPI PUSH1 0x0 DUP1 REVERT JUMPDEST PUSH1 0x0 DUP5 DUP2 MSTORE PUSH2 0x10E PUSH1 0x20 SWAP1 DUP2 MSTORE PUSH1 0x40 DUP1 DUP4 KECCAK256 DUP1 SLOAD PUSH1 0xFF NOT AND SWAP1 SSTORE PUSH2 0x10F SWAP1 SWAP2 MSTORE SWAP1 KECCAK256 SLOAD PUSH2 0x10A DUP1 SLOAD PUSH2 0x3357 SWAP3 SWAP2 SWAP1 DUP8 SWAP1 DUP2 LT PUSH2 0x2309 JUMPI PUSH4 0x4E487B71 PUSH1 0xE0 SHL PUSH1 0x0 MSTORE PUSH1 0x32 PUSH1 0x4 MSTORE PUSH1 0x24 PUSH1 0x0 REVERT JUMPDEST PUSH2 0x10A DUP6 DUP2 SLOAD DUP2 LT PUSH2 0x3379 JUMPI PUSH4 0x4E487B71 PUSH1 0xE0 SHL PUSH1 0x0 MSTORE PUSH1 0x32 PUSH1 0x4 MSTORE PUSH1 0x24 PUSH1 0x0 REVERT JUMPDEST PUSH1 0x0 SWAP2 DUP3 MSTORE PUSH1 0x20 DUP1 DUP4 KECCAK256 PUSH1 0x6 PUSH1 0x8 SWAP1 SWAP4 MUL ADD SWAP2 SWAP1 SWAP2 ADD SWAP3 SWAP1 SWAP3 SSTORE DUP6 DUP2 MSTORE PUSH2 0x10F SWAP1 SWAP2 MSTORE PUSH1 0x40 DUP1 DUP3 KECCAK256 DUP3 SWAP1 SSTORE MLOAD DUP6 SWAP2 PUSH32 0xEF4ABAB54F0316FD2F0B59C11ACCE65C3219E6A75471B51768B7B8CE76A58F2F SWAP2 PUSH2 0x24B8 SWAP2 SWAP1 CALLER SWAP1 PUSH2 0x5A82 JUMP JUMPDEST PUSH2 0x33DD PUSH2 0x1405 JUMP JUMPDEST ISZERO PUSH2 0x33FA JUMPI PUSH1 0x40 MLOAD PUSH3 0x461BCD PUSH1 0xE5 SHL DUP2 MSTORE PUSH1 0x4 ADD PUSH2 0xC2A SWAP1 PUSH2 0x577C JUMP JUMPDEST PUSH1 0x40 DUP1 MLOAD PUSH1 0xA0 DUP2 ADD DUP3 MSTORE CALLER DUP2 MSTORE TIMESTAMP PUSH1 0x20 DUP3 ADD SWAP1 DUP2 MSTORE PUSH1 0x0 SWAP3 DUP3 ADD DUP4 DUP2 MSTORE PUSH1 0x60 DUP4 ADD DUP5 DUP2 MSTORE PUSH1 0x1 PUSH1 0x80 DUP6 ADD DUP2 DUP2 MSTORE PUSH2 0x112 DUP1 SLOAD DUP1 DUP5 ADD DUP3 SSTORE SWAP8 DUP2 SWAP1 MSTORE SWAP6 MLOAD PUSH32 0xE015F902C527607628F7649074B24D3EFD1151F9F546CE1AECF38852C06DA883 PUSH1 0x4 SWAP1 SWAP9 MUL SWAP8 DUP9 ADD DUP1 SLOAD PUSH1 0x1 PUSH1 0x1 PUSH1 0xA0 SHL SUB NOT AND PUSH1 0x1 PUSH1 0x1 PUSH1 0xA0 SHL SUB SWAP1 SWAP3 AND SWAP2 SWAP1 SWAP2 OR SWAP1 SSTORE SWAP4 MLOAD PUSH32 0xE015F902C527607628F7649074B24D3EFD1151F9F546CE1AECF38852C06DA884 DUP8 ADD SSTORE SWAP2 MLOAD PUSH32 0xE015F902C527607628F7649074B24D3EFD1151F9F546CE1AECF38852C06DA885 DUP7 ADD SSTORE MLOAD PUSH32 0xE015F902C527607628F7649074B24D3EFD1151F9F546CE1AECF38852C06DA886 SWAP1 SWAP5 ADD DUP1 SLOAD SWAP3 MLOAD PUSH1 0xFF NOT SWAP1 SWAP4 AND SWAP5 ISZERO ISZERO SWAP5 SWAP1 SWAP5 OR PUSH2 0xFF00 NOT AND PUSH2 0x100 SWAP3 ISZERO ISZERO SWAP3 SWAP1 SWAP3 MUL SWAP2 SWAP1 SWAP2 OR SWAP1 SWAP3 SSTORE SLOAD PUSH2 0x351F SWAP2 PUSH2 0x4B1E JUMP JUMPDEST CALLER PUSH1 0x0 SWAP1 DUP2 MSTORE PUSH2 0x114 PUSH1 0x20 MSTORE PUSH1 0x40 SWAP1 KECCAK256 SSTORE PUSH2 0x113 SLOAD PUSH2 0x353F SWAP1 PUSH1 0x1 PUSH2 0x4A3E JUMP JUMPDEST PUSH2 0x113 SSTORE PUSH2 0x112 SLOAD PUSH2 0x3552 SWAP1 PUSH1 0x1 PUSH2 0x4B1E JUMP JUMPDEST PUSH32 0x785CAF8769BD44D265FCE8C1A3327E91646FE19BE3A87506383B5E95A5C43494 CALLER PUSH1 0x40 MLOAD PUSH2 0x3581 SWAP2 SWAP1 PUSH2 0x541A JUMP JUMPDEST PUSH1 0x40 MLOAD DUP1 SWAP2 SUB SWAP1 LOG2 JUMP JUMPDEST PUSH2 0x10D PUSH1 0x20 MSTORE PUSH1 0x0 SWAP1 DUP2 MSTORE PUSH1 0x40 SWAP1 KECCAK256 SLOAD DUP2 JUMP JUMPDEST PUSH1 0x0 DUP1 MLOAD PUSH1 0x20 PUSH2 0x5CBE DUP4 CODECOPY DUP2 MLOAD SWAP2 MSTORE PUSH2 0x35B7 DUP2 CALLER PUSH2 0x1E62 JUMP JUMPDEST PUSH2 0x35C0 JUMPI PUSH1 0x0 DUP1 REVERT JUMPDEST DUP3 PUSH2 0x10A DUP2 DUP2 SLOAD DUP2 LT PUSH2 0x35E3 JUMPI PUSH4 0x4E487B71 PUSH1 0xE0 SHL PUSH1 0x0 MSTORE PUSH1 0x32 PUSH1 0x4 MSTORE PUSH1 0x24 PUSH1 0x0 REVERT JUMPDEST SWAP1 PUSH1 0x0 MSTORE PUSH1 0x20 PUSH1 0x0 KECCAK256 SWAP1 PUSH1 0x8 MUL ADD PUSH1 0x7 ADD PUSH1 0x2 SWAP1 SLOAD SWAP1 PUSH2 0x100 EXP SWAP1 DIV PUSH1 0xFF AND PUSH2 0x361E JUMPI PUSH1 0x40 MLOAD PUSH3 0x461BCD PUSH1 0xE5 SHL DUP2 MSTORE PUSH1 0x4 ADD PUSH2 0xC2A SWAP1 PUSH2 0x584F JUMP JUMPDEST PUSH2 0x3626 PUSH2 0x1405 JUMP JUMPDEST ISZERO PUSH2 0x3643 JUMPI PUSH1 0x40 MLOAD PUSH3 0x461BCD PUSH1 0xE5 SHL DUP2 MSTORE PUSH1 0x4 ADD PUSH2 0xC2A SWAP1 PUSH2 0x577C JUMP JUMPDEST DUP3 PUSH2 0x10A DUP6 DUP2 SLOAD DUP2 LT PUSH2 0x3666 JUMPI PUSH4 0x4E487B71 PUSH1 0xE0 SHL PUSH1 0x0 MSTORE PUSH1 0x32 PUSH1 0x4 MSTORE PUSH1 0x24 PUSH1 0x0 REVERT JUMPDEST SWAP1 PUSH1 0x0 MSTORE PUSH1 0x20 PUSH1 0x0 KECCAK256 SWAP1 PUSH1 0x8 MUL ADD PUSH1 0x7 ADD PUSH1 0x1 PUSH2 0x100 EXP DUP2 SLOAD DUP2 PUSH1 0xFF MUL NOT AND SWAP1 DUP4 ISZERO ISZERO MUL OR SWAP1 SSTORE POP TIMESTAMP PUSH2 0x10A DUP6 DUP2 SLOAD DUP2 LT PUSH2 0x36B1 JUMPI PUSH4 0x4E487B71 PUSH1 0xE0 SHL PUSH1 0x0 MSTORE PUSH1 0x32 PUSH1 0x4 MSTORE PUSH1 0x24 PUSH1 0x0 REVERT JUMPDEST SWAP1 PUSH1 0x0 MSTORE PUSH1 0x20 PUSH1 0x0 KECCAK256 SWAP1 PUSH1 0x8 MUL ADD PUSH1 0x4 ADD DUP2 SWAP1 SSTORE POP DUP4 PUSH1 0x0 DUP1 MLOAD PUSH1 0x20 PUSH2 0x5C9E DUP4 CODECOPY DUP2 MLOAD SWAP2 MSTORE DUP5 CALLER PUSH1 0x40 MLOAD PUSH2 0x24B8 SWAP3 SWAP2 SWAP1 PUSH2 0x555C JUMP JUMPDEST CALLER PUSH1 0x0 DUP2 DUP2 MSTORE PUSH2 0x114 PUSH1 0x20 MSTORE PUSH1 0x40 SWAP1 KECCAK256 SLOAD PUSH2 0x112 DUP1 SLOAD DUP4 SWAP3 SWAP1 DUP2 LT PUSH2 0x371B JUMPI PUSH4 0x4E487B71 PUSH1 0xE0 SHL PUSH1 0x0 MSTORE PUSH1 0x32 PUSH1 0x4 MSTORE PUSH1 0x24 PUSH1 0x0 REVERT JUMPDEST PUSH1 0x0 SWAP2 DUP3 MSTORE PUSH1 0x20 SWAP1 SWAP2 KECCAK256 PUSH1 0x4 SWAP1 SWAP2 MUL ADD SLOAD PUSH1 0x1 PUSH1 0x1 PUSH1 0xA0 SHL SUB AND EQ PUSH2 0x3752 JUMPI PUSH1 0x40 MLOAD PUSH3 0x461BCD PUSH1 0xE5 SHL DUP2 MSTORE PUSH1 0x4 ADD PUSH2 0xC2A SWAP1 PUSH2 0x56E0 JUMP JUMPDEST PUSH1 0x1 PUSH1 0x1 PUSH1 0xA0 SHL SUB DUP2 AND PUSH1 0x0 SWAP1 DUP2 MSTORE PUSH2 0x114 PUSH1 0x20 MSTORE PUSH1 0x40 SWAP1 KECCAK256 SLOAD PUSH2 0x112 DUP1 SLOAD SWAP1 SWAP2 SWAP1 DUP2 LT PUSH2 0x3790 JUMPI PUSH4 0x4E487B71 PUSH1 0xE0 SHL PUSH1 0x0 MSTORE PUSH1 0x32 PUSH1 0x4 MSTORE PUSH1 0x24 PUSH1 0x0 REVERT JUMPDEST PUSH1 0x0 SWAP2 DUP3 MSTORE PUSH1 0x20 SWAP1 SWAP2 KECCAK256 PUSH1 0x3 PUSH1 0x4 SWAP1 SWAP3 MUL ADD ADD SLOAD PUSH1 0xFF AND PUSH2 0x37C3 JUMPI PUSH1 0x40 MLOAD PUSH3 0x461BCD PUSH1 0xE5 SHL DUP2 MSTORE PUSH1 0x4 ADD PUSH2 0xC2A SWAP1 PUSH2 0x5753 JUMP JUMPDEST DUP3 CALLER PUSH1 0x1 PUSH1 0x1 PUSH1 0xA0 SHL SUB AND PUSH2 0x10A DUP3 DUP2 SLOAD DUP2 LT PUSH2 0x37F0 JUMPI PUSH4 0x4E487B71 PUSH1 0xE0 SHL PUSH1 0x0 MSTORE PUSH1 0x32 PUSH1 0x4 MSTORE PUSH1 0x24 PUSH1 0x0 REVERT JUMPDEST PUSH1 0x0 SWAP2 DUP3 MSTORE PUSH1 0x20 SWAP1 SWAP2 KECCAK256 PUSH1 0x2 PUSH1 0x8 SWAP1 SWAP3 MUL ADD ADD SLOAD PUSH1 0x1 PUSH1 0x1 PUSH1 0xA0 SHL SUB AND EQ PUSH2 0x382A JUMPI PUSH1 0x40 MLOAD PUSH3 0x461BCD PUSH1 0xE5 SHL DUP2 MSTORE PUSH1 0x4 ADD PUSH2 0xC2A SWAP1 PUSH2 0x5688 JUMP JUMPDEST DUP4 PUSH2 0x10A DUP2 DUP2 SLOAD DUP2 LT PUSH2 0x384D JUMPI PUSH4 0x4E487B71 PUSH1 0xE0 SHL PUSH1 0x0 MSTORE PUSH1 0x32 PUSH1 0x4 MSTORE PUSH1 0x24 PUSH1 0x0 REVERT JUMPDEST SWAP1 PUSH1 0x0 MSTORE PUSH1 0x20 PUSH1 0x0 KECCAK256 SWAP1 PUSH1 0x8 MUL ADD PUSH1 0x7 ADD PUSH1 0x2 SWAP1 SLOAD SWAP1 PUSH2 0x100 EXP SWAP1 DIV PUSH1 0xFF AND PUSH2 0x3888 JUMPI PUSH1 0x40 MLOAD PUSH3 0x461BCD PUSH1 0xE5 SHL DUP2 MSTORE PUSH1 0x4 ADD PUSH2 0xC2A SWAP1 PUSH2 0x584F JUMP JUMPDEST PUSH2 0x3890 PUSH2 0x1405 JUMP JUMPDEST ISZERO PUSH2 0x38AD JUMPI PUSH1 0x40 MLOAD PUSH3 0x461BCD PUSH1 0xE5 SHL DUP2 MSTORE PUSH1 0x4 ADD PUSH2 0xC2A SWAP1 PUSH2 0x577C JUMP JUMPDEST PUSH1 0x0 PUSH2 0x10A DUP7 DUP2 SLOAD DUP2 LT PUSH2 0x38D1 JUMPI PUSH4 0x4E487B71 PUSH1 0xE0 SHL PUSH1 0x0 MSTORE PUSH1 0x32 PUSH1 0x4 MSTORE PUSH1 0x24 PUSH1 0x0 REVERT JUMPDEST SWAP1 PUSH1 0x0 MSTORE PUSH1 0x20 PUSH1 0x0 KECCAK256 SWAP1 PUSH1 0x8 MUL ADD PUSH1 0x5 ADD SLOAD SWAP1 POP DUP5 DUP2 EQ PUSH2 0x3AAB JUMPI PUSH2 0x110 DUP6 DUP2 SLOAD DUP2 LT PUSH2 0x390E JUMPI PUSH4 0x4E487B71 PUSH1 0xE0 SHL PUSH1 0x0 MSTORE PUSH1 0x32 PUSH1 0x4 MSTORE PUSH1 0x24 PUSH1 0x0 REVERT JUMPDEST SWAP1 PUSH1 0x0 MSTORE PUSH1 0x20 PUSH1 0x0 KECCAK256 SWAP1 PUSH1 0x4 MUL ADD PUSH1 0x3 ADD PUSH1 0x1 SWAP1 SLOAD SWAP1 PUSH2 0x100 EXP SWAP1 DIV PUSH1 0xFF AND PUSH2 0x3936 JUMPI PUSH1 0x0 DUP1 REVERT JUMPDEST DUP5 PUSH2 0x10A DUP8 DUP2 SLOAD DUP2 LT PUSH2 0x3959 JUMPI PUSH4 0x4E487B71 PUSH1 0xE0 SHL PUSH1 0x0 MSTORE PUSH1 0x32 PUSH1 0x4 MSTORE PUSH1 0x24 PUSH1 0x0 REVERT JUMPDEST SWAP1 PUSH1 0x0 MSTORE PUSH1 0x20 PUSH1 0x0 KECCAK256 SWAP1 PUSH1 0x8 MUL ADD PUSH1 0x5 ADD DUP2 SWAP1 SSTORE POP PUSH2 0x39AC PUSH1 0x1 PUSH2 0x110 DUP4 DUP2 SLOAD DUP2 LT PUSH2 0x3995 JUMPI PUSH4 0x4E487B71 PUSH1 0xE0 SHL PUSH1 0x0 MSTORE PUSH1 0x32 PUSH1 0x4 MSTORE PUSH1 0x24 PUSH1 0x0 REVERT JUMPDEST PUSH1 0x0 SWAP2 DUP3 MSTORE PUSH1 0x20 SWAP1 SWAP2 KECCAK256 PUSH1 0x4 SWAP1 SWAP2 MUL ADD SLOAD SWAP1 PUSH2 0x4B1E JUMP JUMPDEST PUSH2 0x110 DUP3 DUP2 SLOAD DUP2 LT PUSH2 0x39CE JUMPI PUSH4 0x4E487B71 PUSH1 0xE0 SHL PUSH1 0x0 MSTORE PUSH1 0x32 PUSH1 0x4 MSTORE PUSH1 0x24 PUSH1 0x0 REVERT JUMPDEST SWAP1 PUSH1 0x0 MSTORE PUSH1 0x20 PUSH1 0x0 KECCAK256 SWAP1 PUSH1 0x4 MUL ADD PUSH1 0x0 ADD DUP2 SWAP1 SSTORE POP PUSH2 0x3A0A PUSH1 0x1 PUSH2 0x110 DUP8 DUP2 SLOAD DUP2 LT PUSH2 0x2A7D JUMPI PUSH4 0x4E487B71 PUSH1 0xE0 SHL PUSH1 0x0 MSTORE PUSH1 0x32 PUSH1 0x4 MSTORE PUSH1 0x24 PUSH1 0x0 REVERT JUMPDEST PUSH2 0x110 DUP7 DUP2 SLOAD DUP2 LT PUSH2 0x3A2C JUMPI PUSH4 0x4E487B71 PUSH1 0xE0 SHL PUSH1 0x0 MSTORE PUSH1 0x32 PUSH1 0x4 MSTORE PUSH1 0x24 PUSH1 0x0 REVERT JUMPDEST SWAP1 PUSH1 0x0 MSTORE PUSH1 0x20 PUSH1 0x0 KECCAK256 SWAP1 PUSH1 0x4 MUL ADD PUSH1 0x0 ADD DUP2 SWAP1 SSTORE POP TIMESTAMP PUSH2 0x10A DUP8 DUP2 SLOAD DUP2 LT PUSH2 0x3A64 JUMPI PUSH4 0x4E487B71 PUSH1 0xE0 SHL PUSH1 0x0 MSTORE PUSH1 0x32 PUSH1 0x4 MSTORE PUSH1 0x24 PUSH1 0x0 REVERT JUMPDEST SWAP1 PUSH1 0x0 MSTORE PUSH1 0x20 PUSH1 0x0 KECCAK256 SWAP1 PUSH1 0x8 MUL ADD PUSH1 0x4 ADD DUP2 SWAP1 SSTORE POP DUP6 PUSH32 0xFDCE0A91A714D5287DC199D496CC0DF9FA8A529F5054D5016A96F0ADFDC31B1 DUP7 CALLER PUSH1 0x40 MLOAD PUSH2 0x2BEC SWAP3 SWAP2 SWAP1 PUSH2 0x5A82 JUMP JUMPDEST POP POP POP POP POP POP JUMP JUMPDEST PUSH1 0x0 DUP1 MLOAD PUSH1 0x20 PUSH2 0x5C7E DUP4 CODECOPY DUP2 MLOAD SWAP2 MSTORE PUSH2 0x3ACC DUP2 CALLER PUSH2 0x1E62 JUMP JUMPDEST PUSH2 0x3AD5 JUMPI PUSH1 0x0 DUP1 REVERT JUMPDEST PUSH2 0x3ADD PUSH2 0x1405 JUMP JUMPDEST ISZERO PUSH2 0x3AFA JUMPI PUSH1 0x40 MLOAD PUSH3 0x461BCD PUSH1 0xE5 SHL DUP2 MSTORE PUSH1 0x4 ADD PUSH2 0xC2A SWAP1 PUSH2 0x577C JUMP JUMPDEST PUSH1 0x0 PUSH2 0x112 DUP4 DUP2 SLOAD DUP2 LT PUSH2 0x3B1E JUMPI PUSH4 0x4E487B71 PUSH1 0xE0 SHL PUSH1 0x0 MSTORE PUSH1 0x32 PUSH1 0x4 MSTORE PUSH1 0x24 PUSH1 0x0 REVERT JUMPDEST SWAP1 PUSH1 0x0 MSTORE PUSH1 0x20 PUSH1 0x0 KECCAK256 SWAP1 PUSH1 0x4 MUL ADD SWAP1 POP DUP1 PUSH1 0x3 ADD PUSH1 0x1 SWAP1 SLOAD SWAP1 PUSH2 0x100 EXP SWAP1 DIV PUSH1 0xFF AND PUSH2 0x3B49 JUMPI PUSH1 0x0 DUP1 REVERT JUMPDEST PUSH2 0x112 DUP4 DUP2 SLOAD DUP2 LT PUSH2 0x3B6B JUMPI PUSH4 0x4E487B71 PUSH1 0xE0 SHL PUSH1 0x0 MSTORE PUSH1 0x32 PUSH1 0x4 MSTORE PUSH1 0x24 PUSH1 0x0 REVERT JUMPDEST PUSH1 0x0 SWAP2 DUP3 MSTORE PUSH1 0x20 DUP3 KECCAK256 PUSH1 0x4 SWAP1 SWAP2 MUL ADD DUP1 SLOAD PUSH1 0x1 PUSH1 0x1 PUSH1 0xA0 SHL SUB NOT AND DUP2 SSTORE PUSH1 0x1 DUP2 ADD DUP3 SWAP1 SSTORE PUSH1 0x2 DUP2 ADD SWAP2 SWAP1 SWAP2 SSTORE PUSH1 0x3 ADD DUP1 SLOAD PUSH2 0xFFFF NOT AND SWAP1 SSTORE PUSH1 0x40 MLOAD DUP4 SWAP1 PUSH32 0x89703EC90073F7F060A05DB721BF6E6BFEA7A783E08A7D7E3C50667DA7A491F5 SWAP1 PUSH2 0xD32 SWAP1 CALLER SWAP1 PUSH2 0x541A JUMP JUMPDEST PUSH1 0x0 DUP1 MLOAD PUSH1 0x20 PUSH2 0x5C5E DUP4 CODECOPY DUP2 MLOAD SWAP2 MSTORE PUSH2 0x3BEE DUP2 CALLER PUSH2 0x1E62 JUMP JUMPDEST PUSH2 0x3BF7 JUMPI PUSH1 0x0 DUP1 REVERT JUMPDEST PUSH2 0x3BFF PUSH2 0x1405 JUMP JUMPDEST ISZERO PUSH2 0x3C1C JUMPI PUSH1 0x40 MLOAD PUSH3 0x461BCD PUSH1 0xE5 SHL DUP2 MSTORE PUSH1 0x4 ADD PUSH2 0xC2A SWAP1 PUSH2 0x577C JUMP JUMPDEST PUSH2 0x110 DUP4 DUP2 SLOAD DUP2 LT PUSH2 0x3C3E JUMPI PUSH4 0x4E487B71 PUSH1 0xE0 SHL PUSH1 0x0 MSTORE PUSH1 0x32 PUSH1 0x4 MSTORE PUSH1 0x24 PUSH1 0x0 REVERT JUMPDEST SWAP1 PUSH1 0x0 MSTORE PUSH1 0x20 PUSH1 0x0 KECCAK256 SWAP1 PUSH1 0x4 MUL ADD PUSH1 0x3 ADD PUSH1 0x1 SWAP1 SLOAD SWAP1 PUSH2 0x100 EXP SWAP1 DIV PUSH1 0xFF AND PUSH2 0x3C66 JUMPI PUSH1 0x0 DUP1 REVERT JUMPDEST DUP2 PUSH2 0x110 DUP5 DUP2 SLOAD DUP2 LT PUSH2 0x3C89 JUMPI PUSH4 0x4E487B71 PUSH1 0xE0 SHL PUSH1 0x0 MSTORE PUSH1 0x32 PUSH1 0x4 MSTORE PUSH1 0x24 PUSH1 0x0 REVERT JUMPDEST SWAP1 PUSH1 0x0 MSTORE PUSH1 0x20 PUSH1 0x0 KECCAK256 SWAP1 PUSH1 0x4 MUL ADD PUSH1 0x3 ADD PUSH1 0x0 PUSH2 0x100 EXP DUP2 SLOAD DUP2 PUSH1 0xFF MUL NOT AND SWAP1 DUP4 ISZERO ISZERO MUL OR SWAP1 SSTORE POP TIMESTAMP PUSH2 0x110 DUP5 DUP2 SLOAD DUP2 LT PUSH2 0x3CD4 JUMPI PUSH4 0x4E487B71 PUSH1 0xE0 SHL PUSH1 0x0 MSTORE PUSH1 0x32 PUSH1 0x4 MSTORE PUSH1 0x24 PUSH1 0x0 REVERT JUMPDEST SWAP1 PUSH1 0x0 MSTORE PUSH1 0x20 PUSH1 0x0 KECCAK256 SWAP1 PUSH1 0x4 MUL ADD PUSH1 0x2 ADD DUP2 SWAP1 SSTORE POP DUP3 PUSH32 0xDA817FCA113E65ADA0463124F0D540A750811BDAEA7124D18BD556916961034D DUP4 CALLER PUSH1 0x40 MLOAD PUSH2 0xD32 SWAP3 SWAP2 SWAP1 PUSH2 0x555C JUMP JUMPDEST PUSH2 0x3D26 PUSH1 0x0 CALLER PUSH2 0x1E62 JUMP JUMPDEST PUSH2 0x3D2F JUMPI PUSH1 0x0 DUP1 REVERT JUMPDEST PUSH1 0x1 PUSH1 0x1 PUSH1 0xA0 SHL SUB DUP2 AND PUSH1 0x0 SWAP1 DUP2 MSTORE PUSH2 0x105 PUSH1 0x20 MSTORE PUSH1 0x40 SWAP1 KECCAK256 SLOAD PUSH1 0xFF AND ISZERO PUSH2 0x3D56 JUMPI PUSH1 0x0 DUP1 REVERT JUMPDEST PUSH2 0x100 DUP1 SLOAD PUSH1 0x1 DUP1 DUP3 ADD SWAP1 SWAP3 SSTORE PUSH32 0x45E010B9AE401E2EB71529478DA8BD513A9BDC2D095A111E324F5B95C09ED87B ADD DUP1 SLOAD PUSH1 0x1 PUSH1 0x1 PUSH1 0xA0 SHL SUB NOT AND PUSH1 0x1 PUSH1 0x1 PUSH1 0xA0 SHL SUB DUP5 AND SWAP1 DUP2 OR SWAP1 SWAP2 SSTORE PUSH1 0x0 DUP2 DUP2 MSTORE PUSH2 0x105 PUSH1 0x20 MSTORE PUSH1 0x40 SWAP1 DUP2 SWAP1 KECCAK256 DUP1 SLOAD PUSH1 0xFF NOT AND SWAP1 SWAP4 OR SWAP1 SWAP3 SSTORE SWAP1 MLOAD PUSH32 0xDFFBD9DED1C09446F09377DE547142DCCE7DC541C8B0B028142B1EBA7026B9E7 SWAP1 PUSH2 0x261C SWAP1 CALLER SWAP1 PUSH2 0x541A JUMP JUMPDEST PUSH2 0x3DF6 DUP3 PUSH2 0xED4 JUMP JUMPDEST PUSH2 0x3E02 DUP2 PUSH2 0xFA2 PUSH2 0x4832 JUMP JUMPDEST PUSH2 0xFB1 DUP4 DUP4 PUSH2 0x4921 JUMP JUMPDEST CALLER PUSH1 0x0 DUP2 DUP2 MSTORE PUSH2 0x114 PUSH1 0x20 MSTORE PUSH1 0x40 SWAP1 KECCAK256 SLOAD PUSH2 0x112 DUP1 SLOAD DUP4 SWAP3 SWAP1 DUP2 LT PUSH2 0x3E41 JUMPI PUSH4 0x4E487B71 PUSH1 0xE0 SHL PUSH1 0x0 MSTORE PUSH1 0x32 PUSH1 0x4 MSTORE PUSH1 0x24 PUSH1 0x0 REVERT JUMPDEST PUSH1 0x0 SWAP2 DUP3 MSTORE PUSH1 0x20 SWAP1 SWAP2 KECCAK256 PUSH1 0x4 SWAP1 SWAP2 MUL ADD SLOAD PUSH1 0x1 PUSH1 0x1 PUSH1 0xA0 SHL SUB AND EQ PUSH2 0x3E78 JUMPI PUSH1 0x40 MLOAD PUSH3 0x461BCD PUSH1 0xE5 SHL DUP2 MSTORE PUSH1 0x4 ADD PUSH2 0xC2A SWAP1 PUSH2 0x56E0 JUMP JUMPDEST PUSH1 0x1 PUSH1 0x1 PUSH1 0xA0 SHL SUB DUP2 AND PUSH1 0x0 SWAP1 DUP2 MSTORE PUSH2 0x114 PUSH1 0x20 MSTORE PUSH1 0x40 SWAP1 KECCAK256 SLOAD PUSH2 0x112 DUP1 SLOAD SWAP1 SWAP2 SWAP1 DUP2 LT PUSH2 0x3EB6 JUMPI PUSH4 0x4E487B71 PUSH1 0xE0 SHL PUSH1 0x0 MSTORE PUSH1 0x32 PUSH1 0x4 MSTORE PUSH1 0x24 PUSH1 0x0 REVERT JUMPDEST PUSH1 0x0 SWAP2 DUP3 MSTORE PUSH1 0x20 SWAP1 SWAP2 KECCAK256 PUSH1 0x3 PUSH1 0x4 SWAP1 SWAP3 MUL ADD ADD SLOAD PUSH1 0xFF AND PUSH2 0x3EE9 JUMPI PUSH1 0x40 MLOAD PUSH3 0x461BCD PUSH1 0xE5 SHL DUP2 MSTORE PUSH1 0x4 ADD PUSH2 0xC2A SWAP1 PUSH2 0x5753 JUMP JUMPDEST DUP3 CALLER PUSH1 0x1 PUSH1 0x1 PUSH1 0xA0 SHL SUB AND PUSH2 0x10A DUP3 DUP2 SLOAD DUP2 LT PUSH2 0x3F16 JUMPI PUSH4 0x4E487B71 PUSH1 0xE0 SHL PUSH1 0x0 MSTORE PUSH1 0x32 PUSH1 0x4 MSTORE PUSH1 0x24 PUSH1 0x0 REVERT JUMPDEST PUSH1 0x0 SWAP2 DUP3 MSTORE PUSH1 0x20 SWAP1 SWAP2 KECCAK256 PUSH1 0x2 PUSH1 0x8 SWAP1 SWAP3 MUL ADD ADD SLOAD PUSH1 0x1 PUSH1 0x1 PUSH1 0xA0 SHL SUB AND EQ PUSH2 0x3F50 JUMPI PUSH1 0x40 MLOAD PUSH3 0x461BCD PUSH1 0xE5 SHL DUP2 MSTORE PUSH1 0x4 ADD PUSH2 0xC2A SWAP1 PUSH2 0x5688 JUMP JUMPDEST DUP4 PUSH2 0x10A DUP2 DUP2 SLOAD DUP2 LT PUSH2 0x3F73 JUMPI PUSH4 0x4E487B71 PUSH1 0xE0 SHL PUSH1 0x0 MSTORE PUSH1 0x32 PUSH1 0x4 MSTORE PUSH1 0x24 PUSH1 0x0 REVERT JUMPDEST SWAP1 PUSH1 0x0 MSTORE PUSH1 0x20 PUSH1 0x0 KECCAK256 SWAP1 PUSH1 0x8 MUL ADD PUSH1 0x7 ADD PUSH1 0x2 SWAP1 SLOAD SWAP1 PUSH2 0x100 EXP SWAP1 DIV PUSH1 0xFF AND PUSH2 0x3FAE JUMPI PUSH1 0x40 MLOAD PUSH3 0x461BCD PUSH1 0xE5 SHL DUP2 MSTORE PUSH1 0x4 ADD PUSH2 0xC2A SWAP1 PUSH2 0x584F JUMP JUMPDEST PUSH2 0x3FB6 PUSH2 0x1405 JUMP JUMPDEST ISZERO PUSH2 0x3FD3 JUMPI PUSH1 0x40 MLOAD PUSH3 0x461BCD PUSH1 0xE5 SHL DUP2 MSTORE PUSH1 0x4 ADD PUSH2 0xC2A SWAP1 PUSH2 0x577C JUMP JUMPDEST PUSH2 0x3FDC CALLER PUSH2 0x4698 JUMP JUMPDEST PUSH2 0x41EE JUMPI PUSH1 0x5 PUSH2 0x10A DUP7 DUP2 SLOAD DUP2 LT PUSH2 0x4004 JUMPI PUSH4 0x4E487B71 PUSH1 0xE0 SHL PUSH1 0x0 MSTORE PUSH1 0x32 PUSH1 0x4 MSTORE PUSH1 0x24 PUSH1 0x0 REVERT JUMPDEST PUSH1 0x0 SWAP2 DUP3 MSTORE PUSH1 0x20 SWAP2 DUP3 SWAP1 KECCAK256 PUSH1 0x8 SWAP1 SWAP2 MUL ADD SLOAD PUSH1 0x40 DUP1 MLOAD PUSH4 0x82FDE093 PUSH1 0xE0 SHL DUP2 MSTORE SWAP1 MLOAD PUSH1 0x1 PUSH1 0x1 PUSH1 0xA0 SHL SUB SWAP1 SWAP3 AND SWAP3 PUSH4 0x82FDE093 SWAP3 PUSH1 0x4 DUP1 DUP5 ADD SWAP4 DUP3 SWAP1 SUB ADD DUP2 DUP7 DUP1 EXTCODESIZE ISZERO DUP1 ISZERO PUSH2 0x4052 JUMPI PUSH1 0x0 DUP1 REVERT JUMPDEST POP GAS STATICCALL ISZERO DUP1 ISZERO PUSH2 0x4066 JUMPI RETURNDATASIZE PUSH1 0x0 DUP1 RETURNDATACOPY RETURNDATASIZE PUSH1 0x0 REVERT JUMPDEST POP POP POP POP PUSH1 0x40 MLOAD RETURNDATASIZE PUSH1 0x1F NOT PUSH1 0x1F DUP3 ADD AND DUP3 ADD DUP1 PUSH1 0x40 MSTORE POP DUP2 ADD SWAP1 PUSH2 0x408A SWAP2 SWAP1 PUSH2 0x5291 JUMP JUMPDEST GT ISZERO DUP1 ISZERO PUSH2 0x41E5 JUMPI POP PUSH2 0x10A DUP6 DUP2 SLOAD DUP2 LT PUSH2 0x40B5 JUMPI PUSH4 0x4E487B71 PUSH1 0xE0 SHL PUSH1 0x0 MSTORE PUSH1 0x32 PUSH1 0x4 MSTORE PUSH1 0x24 PUSH1 0x0 REVERT JUMPDEST PUSH1 0x0 SWAP2 DUP3 MSTORE PUSH1 0x20 SWAP2 DUP3 SWAP1 KECCAK256 PUSH1 0x8 SWAP1 SWAP2 MUL ADD SLOAD PUSH1 0x40 DUP1 MLOAD PUSH4 0x6A5C1CC9 PUSH1 0xE1 SHL DUP2 MSTORE SWAP1 MLOAD PUSH1 0x1 PUSH1 0x1 PUSH1 0xA0 SHL SUB SWAP1 SWAP3 AND SWAP3 PUSH4 0xD4B83992 SWAP3 PUSH1 0x4 DUP1 DUP5 ADD SWAP4 DUP3 SWAP1 SUB ADD DUP2 DUP7 DUP1 EXTCODESIZE ISZERO DUP1 ISZERO PUSH2 0x4103 JUMPI PUSH1 0x0 DUP1 REVERT JUMPDEST POP GAS STATICCALL ISZERO DUP1 ISZERO PUSH2 0x4117 JUMPI RETURNDATASIZE PUSH1 0x0 DUP1 RETURNDATACOPY RETURNDATASIZE PUSH1 0x0 REVERT JUMPDEST POP POP POP POP PUSH1 0x40 MLOAD RETURNDATASIZE PUSH1 0x1F NOT PUSH1 0x1F DUP3 ADD AND DUP3 ADD DUP1 PUSH1 0x40 MSTORE POP DUP2 ADD SWAP1 PUSH2 0x413B SWAP2 SWAP1 PUSH2 0x5291 JUMP JUMPDEST PUSH2 0x10A DUP7 DUP2 SLOAD DUP2 LT PUSH2 0x415D JUMPI PUSH4 0x4E487B71 PUSH1 0xE0 SHL PUSH1 0x0 MSTORE PUSH1 0x32 PUSH1 0x4 MSTORE PUSH1 0x24 PUSH1 0x0 REVERT JUMPDEST PUSH1 0x0 SWAP2 DUP3 MSTORE PUSH1 0x20 SWAP2 DUP3 SWAP1 KECCAK256 PUSH1 0x8 SWAP1 SWAP2 MUL ADD SLOAD PUSH1 0x40 DUP1 MLOAD PUSH4 0x477CD7B9 PUSH1 0xE1 SHL DUP2 MSTORE SWAP1 MLOAD PUSH1 0x1 PUSH1 0x1 PUSH1 0xA0 SHL SUB SWAP1 SWAP3 AND SWAP3 PUSH4 0x8EF9AF72 SWAP3 PUSH1 0x4 DUP1 DUP5 ADD SWAP4 DUP3 SWAP1 SUB ADD DUP2 DUP7 DUP1 EXTCODESIZE ISZERO DUP1 ISZERO PUSH2 0x41AB JUMPI PUSH1 0x0 DUP1 REVERT JUMPDEST POP GAS STATICCALL ISZERO DUP1 ISZERO PUSH2 0x41BF JUMPI RETURNDATASIZE PUSH1 0x0 DUP1 RETURNDATACOPY RETURNDATASIZE PUSH1 0x0 REVERT JUMPDEST POP POP POP POP PUSH1 0x40 MLOAD RETURNDATASIZE PUSH1 0x1F NOT PUSH1 0x1F DUP3 ADD AND DUP3 ADD DUP1 PUSH1 0x40 MSTORE POP DUP2 ADD SWAP1 PUSH2 0x41E3 SWAP2 SWAP1 PUSH2 0x5291 JUMP JUMPDEST LT JUMPDEST PUSH2 0x41EE JUMPI PUSH1 0x0 DUP1 REVERT JUMPDEST DUP4 PUSH2 0x10A DUP7 DUP2 SLOAD DUP2 LT PUSH2 0x4211 JUMPI PUSH4 0x4E487B71 PUSH1 0xE0 SHL PUSH1 0x0 MSTORE PUSH1 0x32 PUSH1 0x4 MSTORE PUSH1 0x24 PUSH1 0x0 REVERT JUMPDEST SWAP1 PUSH1 0x0 MSTORE PUSH1 0x20 PUSH1 0x0 KECCAK256 SWAP1 PUSH1 0x8 MUL ADD PUSH1 0x7 ADD PUSH1 0x0 PUSH2 0x100 EXP DUP2 SLOAD DUP2 PUSH1 0xFF MUL NOT AND SWAP1 DUP4 ISZERO ISZERO MUL OR SWAP1 SSTORE POP TIMESTAMP PUSH2 0x10A DUP7 DUP2 SLOAD DUP2 LT PUSH2 0x425C JUMPI PUSH4 0x4E487B71 PUSH1 0xE0 SHL PUSH1 0x0 MSTORE PUSH1 0x32 PUSH1 0x4 MSTORE PUSH1 0x24 PUSH1 0x0 REVERT JUMPDEST SWAP1 PUSH1 0x0 MSTORE PUSH1 0x20 PUSH1 0x0 KECCAK256 SWAP1 PUSH1 0x8 MUL ADD PUSH1 0x4 ADD DUP2 SWAP1 SSTORE POP DUP5 PUSH32 0xBE2B83B9AA4AEF4D2F6FE3EECAF397185511FD5AEF8CD2174636054BCC99318E DUP6 CALLER PUSH1 0x40 MLOAD PUSH2 0x42A3 SWAP3 SWAP2 SWAP1 PUSH2 0x555C JUMP JUMPDEST PUSH1 0x40 MLOAD DUP1 SWAP2 SUB SWAP1 LOG2 POP POP POP POP POP JUMP JUMPDEST PUSH2 0x42BD PUSH1 0x0 CALLER PUSH2 0x1E62 JUMP JUMPDEST PUSH2 0x42C6 JUMPI PUSH1 0x0 DUP1 REVERT JUMPDEST PUSH2 0x42CE PUSH2 0x1405 JUMP JUMPDEST ISZERO PUSH2 0x42EB JUMPI PUSH1 0x40 MLOAD PUSH3 0x461BCD PUSH1 0xE5 SHL DUP2 MSTORE PUSH1 0x4 ADD PUSH2 0xC2A SWAP1 PUSH2 0x577C JUMP JUMPDEST PUSH1 0x40 DUP1 MLOAD PUSH1 0xA0 DUP2 ADD DUP3 MSTORE TIMESTAMP DUP2 MSTORE PUSH1 0x0 PUSH1 0x20 DUP3 ADD DUP2 DUP2 MSTORE SWAP3 DUP3 ADD DUP5 DUP2 MSTORE PUSH1 0x60 DUP4 ADD DUP7 DUP2 MSTORE PUSH1 0x1 PUSH1 0x80 DUP6 ADD DUP2 DUP2 MSTORE PUSH2 0x115 DUP1 SLOAD DUP1 DUP5 ADD DUP3 SSTORE SWAP6 MSTORE SWAP5 MLOAD PUSH32 0x77886EE853A0F02C8259429C7BFCA08679CA3AB8BDEC2C3BD5CCA8557E06493A PUSH1 0x5 SWAP1 SWAP6 MUL SWAP5 DUP6 ADD SSTORE SWAP5 MLOAD PUSH32 0x77886EE853A0F02C8259429C7BFCA08679CA3AB8BDEC2C3BD5CCA8557E06493B DUP5 ADD SSTORE SWAP1 MLOAD PUSH32 0x77886EE853A0F02C8259429C7BFCA08679CA3AB8BDEC2C3BD5CCA8557E06493C DUP4 ADD SSTORE MLOAD PUSH32 0x77886EE853A0F02C8259429C7BFCA08679CA3AB8BDEC2C3BD5CCA8557E06493D DUP3 ADD SSTORE SWAP1 MLOAD PUSH32 0x77886EE853A0F02C8259429C7BFCA08679CA3AB8BDEC2C3BD5CCA8557E06493E SWAP1 SWAP2 ADD DUP1 SLOAD PUSH1 0xFF NOT AND SWAP2 ISZERO ISZERO SWAP2 SWAP1 SWAP2 OR SWAP1 SSTORE PUSH2 0x116 SLOAD PUSH2 0x4402 SWAP2 PUSH2 0x4A3E JUMP JUMPDEST PUSH2 0x116 SSTORE PUSH2 0x115 SLOAD PUSH2 0x4415 SWAP1 PUSH1 0x1 PUSH2 0x4B1E JUMP JUMPDEST PUSH32 0xB945BCDA8F8D8C82F1C88841E11023489894D49454D6ACE5ECAE989CC98312EB DUP4 DUP4 CALLER PUSH1 0x40 MLOAD PUSH2 0xF7A SWAP4 SWAP3 SWAP2 SWAP1 PUSH2 0x5A99 JUMP JUMPDEST PUSH2 0x109 PUSH1 0x20 MSTORE PUSH1 0x0 SWAP1 DUP2 MSTORE PUSH1 0x40 SWAP1 KECCAK256 SLOAD DUP2 JUMP JUMPDEST PUSH1 0x1 PUSH1 0x1 PUSH1 0xA0 SHL SUB DUP3 AND PUSH1 0x0 SWAP1 DUP2 MSTORE PUSH2 0x10D PUSH1 0x20 MSTORE PUSH1 0x40 SWAP1 KECCAK256 SLOAD PUSH2 0x10A DUP1 SLOAD CALLER SWAP2 SWAP1 DUP4 SWAP1 DUP2 LT PUSH2 0x449B JUMPI PUSH4 0x4E487B71 PUSH1 0xE0 SHL PUSH1 0x0 MSTORE PUSH1 0x32 PUSH1 0x4 MSTORE PUSH1 0x24 PUSH1 0x0 REVERT JUMPDEST PUSH1 0x0 SWAP2 DUP3 MSTORE PUSH1 0x20 SWAP1 SWAP2 KECCAK256 PUSH1 0x8 SWAP1 SWAP2 MUL ADD SLOAD PUSH1 0x1 PUSH1 0x1 PUSH1 0xA0 SHL SUB AND EQ PUSH2 0x44D2 JUMPI PUSH1 0x40 MLOAD PUSH3 0x461BCD PUSH1 0xE5 SHL DUP2 MSTORE PUSH1 0x4 ADD PUSH2 0xC2A SWAP1 PUSH2 0x5688 JUMP JUMPDEST PUSH1 0x1 PUSH1 0x1 PUSH1 0xA0 SHL SUB DUP4 AND PUSH1 0x0 SWAP1 DUP2 MSTORE PUSH2 0x10D PUSH1 0x20 MSTORE PUSH1 0x40 SWAP1 KECCAK256 SLOAD PUSH2 0x10A DUP1 SLOAD DUP3 SWAP1 DUP2 LT PUSH2 0x450F JUMPI PUSH4 0x4E487B71 PUSH1 0xE0 SHL PUSH1 0x0 MSTORE PUSH1 0x32 PUSH1 0x4 MSTORE PUSH1 0x24 PUSH1 0x0 REVERT JUMPDEST SWAP1 PUSH1 0x0 MSTORE PUSH1 0x20 PUSH1 0x0 KECCAK256 SWAP1 PUSH1 0x8 MUL ADD PUSH1 0x7 ADD PUSH1 0x1 SWAP1 SLOAD SWAP1 PUSH2 0x100 EXP SWAP1 DIV PUSH1 0xFF AND DUP1 ISZERO PUSH2 0x456F JUMPI POP PUSH2 0x10A DUP2 DUP2 SLOAD DUP2 LT PUSH2 0x4557 JUMPI PUSH4 0x4E487B71 PUSH1 0xE0 SHL PUSH1 0x0 MSTORE PUSH1 0x32 PUSH1 0x4 MSTORE PUSH1 0x24 PUSH1 0x0 REVERT JUMPDEST PUSH1 0x0 SWAP2 DUP3 MSTORE PUSH1 0x20 SWAP1 SWAP2 KECCAK256 PUSH1 0x7 PUSH1 0x8 SWAP1 SWAP3 MUL ADD ADD SLOAD PUSH1 0xFF AND JUMPDEST PUSH2 0x458B JUMPI PUSH1 0x40 MLOAD PUSH3 0x461BCD PUSH1 0xE5 SHL DUP2 MSTORE PUSH1 0x4 ADD PUSH2 0xC2A SWAP1 PUSH2 0x57D6 JUMP JUMPDEST PUSH1 0x1 PUSH1 0x1 PUSH1 0xA0 SHL SUB DUP5 AND PUSH1 0x0 SWAP1 DUP2 MSTORE PUSH2 0x10D PUSH1 0x20 MSTORE PUSH1 0x40 SWAP1 KECCAK256 SLOAD PUSH2 0x10A DUP1 SLOAD DUP3 SWAP1 DUP2 LT PUSH2 0x45C8 JUMPI PUSH4 0x4E487B71 PUSH1 0xE0 SHL PUSH1 0x0 MSTORE PUSH1 0x32 PUSH1 0x4 MSTORE PUSH1 0x24 PUSH1 0x0 REVERT JUMPDEST SWAP1 PUSH1 0x0 MSTORE PUSH1 0x20 PUSH1 0x0 KECCAK256 SWAP1 PUSH1 0x8 MUL ADD PUSH1 0x7 ADD PUSH1 0x2 SWAP1 SLOAD SWAP1 PUSH2 0x100 EXP SWAP1 DIV PUSH1 0xFF AND PUSH2 0x4603 JUMPI PUSH1 0x40 MLOAD PUSH3 0x461BCD PUSH1 0xE5 SHL DUP2 MSTORE PUSH1 0x4 ADD PUSH2 0xC2A SWAP1 PUSH2 0x584F JUMP JUMPDEST PUSH1 0x1 PUSH1 0x1 PUSH1 0xA0 SHL SUB DUP6 AND PUSH1 0x0 SWAP1 DUP2 MSTORE PUSH2 0x10D PUSH1 0x20 SWAP1 DUP2 MSTORE PUSH1 0x40 DUP1 DUP4 KECCAK256 SLOAD DUP4 MSTORE PUSH2 0x108 SWAP1 SWAP2 MSTORE SWAP1 KECCAK256 SLOAD PUSH2 0x4635 SWAP1 DUP6 PUSH2 0x4A3E JUMP JUMPDEST PUSH1 0x1 PUSH1 0x1 PUSH1 0xA0 SHL SUB DUP7 AND PUSH1 0x0 SWAP1 DUP2 MSTORE PUSH2 0x10D PUSH1 0x20 SWAP1 DUP2 MSTORE PUSH1 0x40 DUP1 DUP4 KECCAK256 SLOAD DUP4 MSTORE PUSH2 0x108 SWAP1 SWAP2 MSTORE SWAP1 KECCAK256 SSTORE PUSH2 0x107 SLOAD PUSH2 0x466B SWAP1 DUP6 PUSH2 0x4A3E JUMP JUMPDEST PUSH2 0x107 SSTORE POP POP POP POP POP JUMP JUMPDEST PUSH1 0xFB SLOAD PUSH1 0x1 PUSH1 0x1 PUSH1 0xA0 SHL SUB AND DUP2 JUMP JUMPDEST PUSH2 0x114 PUSH1 0x20 MSTORE PUSH1 0x0 SWAP1 DUP2 MSTORE PUSH1 0x40 SWAP1 KECCAK256 SLOAD DUP2 JUMP JUMPDEST PUSH1 0x0 PUSH2 0xBD4 PUSH1 0x0 DUP1 MLOAD PUSH1 0x20 PUSH2 0x5CBE DUP4 CODECOPY DUP2 MLOAD SWAP2 MSTORE DUP4 PUSH2 0x1E62 JUMP JUMPDEST PUSH2 0x46BD PUSH1 0x0 CALLER PUSH2 0x1E62 JUMP JUMPDEST PUSH2 0x46C6 JUMPI PUSH1 0x0 DUP1 REVERT JUMPDEST PUSH2 0x102 DUP3 PUSH1 0x40 MLOAD PUSH2 0x46D7 SWAP2 SWAP1 PUSH2 0x5372 JUMP JUMPDEST SWAP1 DUP2 MSTORE PUSH1 0x40 MLOAD SWAP1 DUP2 SWAP1 SUB PUSH1 0x20 ADD SWAP1 KECCAK256 SLOAD PUSH1 0xFF AND PUSH2 0x46F3 JUMPI PUSH1 0x0 DUP1 REVERT JUMPDEST DUP1 PUSH2 0x103 DUP4 PUSH1 0x40 MLOAD PUSH2 0x4705 SWAP2 SWAP1 PUSH2 0x5372 JUMP JUMPDEST SWAP1 DUP2 MSTORE PUSH1 0x20 ADD PUSH1 0x40 MLOAD DUP1 SWAP2 SUB SWAP1 KECCAK256 DUP2 SWAP1 SSTORE POP PUSH32 0xBC919136A8FB104C2DB80A9FD7282BF95CA792CE133A4F35F74ECB683AA945A1 DUP3 DUP3 PUSH1 0x40 MLOAD PUSH2 0x4748 SWAP3 SWAP2 SWAP1 PUSH2 0x55BB JUMP JUMPDEST PUSH1 0x40 MLOAD DUP1 SWAP2 SUB SWAP1 LOG1 POP POP JUMP JUMPDEST PUSH1 0x1 PUSH1 0x1 PUSH1 0xE0 SHL SUB NOT DUP2 AND PUSH4 0x1FFC9A7 PUSH1 0xE0 SHL EQ SWAP2 SWAP1 POP JUMP JUMPDEST PUSH2 0x4775 PUSH2 0x1405 JUMP JUMPDEST ISZERO PUSH2 0x4792 JUMPI PUSH1 0x40 MLOAD PUSH3 0x461BCD PUSH1 0xE5 SHL DUP2 MSTORE PUSH1 0x4 ADD PUSH2 0xC2A SWAP1 PUSH2 0x577C JUMP JUMPDEST PUSH1 0x97 DUP1 SLOAD PUSH1 0xFF NOT AND PUSH1 0x1 OR SWAP1 SSTORE PUSH32 0x62E78CEA01BEE320CD4E420270B5EA74000D11B0C9F74754EBDBFC544B05A258 PUSH2 0x47C8 PUSH2 0x4832 JUMP JUMPDEST PUSH1 0x40 MLOAD PUSH2 0x47D5 SWAP2 SWAP1 PUSH2 0x541A JUMP JUMPDEST PUSH1 0x40 MLOAD DUP1 SWAP2 SUB SWAP1 LOG1 JUMP JUMPDEST PUSH2 0x47E7 PUSH2 0x1405 JUMP JUMPDEST PUSH2 0x4803 JUMPI PUSH1 0x40 MLOAD PUSH3 0x461BCD PUSH1 0xE5 SHL DUP2 MSTORE PUSH1 0x4 ADD PUSH2 0xC2A SWAP1 PUSH2 0x5612 JUMP JUMPDEST PUSH1 0x97 DUP1 SLOAD PUSH1 0xFF NOT AND SWAP1 SSTORE PUSH32 0x5DB9EE0A495BF2E6FF9C91A7834C1BA4FDD244A5E8AA4E537BD38AEAE4B073AA PUSH2 0x47C8 JUMPDEST CALLER SWAP1 JUMP JUMPDEST PUSH2 0x4840 DUP3 DUP3 PUSH2 0x1E62 JUMP JUMPDEST PUSH2 0x1175 JUMPI PUSH2 0x4858 DUP2 PUSH1 0x1 PUSH1 0x1 PUSH1 0xA0 SHL SUB AND PUSH1 0x14 PUSH2 0x4B2A JUMP JUMPDEST PUSH2 0x4863 DUP4 PUSH1 0x20 PUSH2 0x4B2A JUMP JUMPDEST PUSH1 0x40 MLOAD PUSH1 0x20 ADD PUSH2 0x4874 SWAP3 SWAP2 SWAP1 PUSH2 0x53AB JUMP JUMPDEST PUSH1 0x40 DUP1 MLOAD PUSH1 0x1F NOT DUP2 DUP5 SUB ADD DUP2 MSTORE SWAP1 DUP3 SWAP1 MSTORE PUSH3 0x461BCD PUSH1 0xE5 SHL DUP3 MSTORE PUSH2 0xC2A SWAP2 PUSH1 0x4 ADD PUSH2 0x55A8 JUMP JUMPDEST PUSH2 0x48A4 DUP3 DUP3 PUSH2 0x1E62 JUMP JUMPDEST PUSH2 0x1175 JUMPI PUSH1 0x0 DUP3 DUP2 MSTORE PUSH1 0x65 PUSH1 0x20 SWAP1 DUP2 MSTORE PUSH1 0x40 DUP1 DUP4 KECCAK256 PUSH1 0x1 PUSH1 0x1 PUSH1 0xA0 SHL SUB DUP6 AND DUP5 MSTORE SWAP1 SWAP2 MSTORE SWAP1 KECCAK256 DUP1 SLOAD PUSH1 0xFF NOT AND PUSH1 0x1 OR SWAP1 SSTORE PUSH2 0x48DD PUSH2 0x4832 JUMP JUMPDEST PUSH1 0x1 PUSH1 0x1 PUSH1 0xA0 SHL SUB AND DUP2 PUSH1 0x1 PUSH1 0x1 PUSH1 0xA0 SHL SUB AND DUP4 PUSH32 0x2F8788117E7EFF1D82E926EC794901D17C78024A50270940304540A733656F0D PUSH1 0x40 MLOAD PUSH1 0x40 MLOAD DUP1 SWAP2 SUB SWAP1 LOG4 POP POP JUMP JUMPDEST PUSH2 0x492B DUP3 DUP3 PUSH2 0x1E62 JUMP JUMPDEST ISZERO PUSH2 0x1175 JUMPI PUSH1 0x0 DUP3 DUP2 MSTORE PUSH1 0x65 PUSH1 0x20 SWAP1 DUP2 MSTORE PUSH1 0x40 DUP1 DUP4 KECCAK256 PUSH1 0x1 PUSH1 0x1 PUSH1 0xA0 SHL SUB DUP6 AND DUP5 MSTORE SWAP1 SWAP2 MSTORE SWAP1 KECCAK256 DUP1 SLOAD PUSH1 0xFF NOT AND SWAP1 SSTORE PUSH2 0x4962 PUSH2 0x4832 JUMP JUMPDEST PUSH1 0x1 PUSH1 0x1 PUSH1 0xA0 SHL SUB AND DUP2 PUSH1 0x1 PUSH1 0x1 PUSH1 0xA0 SHL SUB AND DUP4 PUSH32 0xF6391F5C32D9C69D2A47EA670B442974B53935D1EDC7FD64EB21E047A839171B PUSH1 0x40 MLOAD PUSH1 0x40 MLOAD DUP1 SWAP2 SUB SWAP1 LOG4 POP POP JUMP JUMPDEST PUSH2 0x1175 DUP3 DUP3 PUSH2 0x489A JUMP JUMPDEST DUP1 PUSH2 0x49BA DUP4 PUSH2 0xED4 JUMP JUMPDEST PUSH1 0x40 MLOAD DUP5 SWAP1 PUSH32 0xBD79B86FFE0AB8E8776151514217CD7CACD52C909F66475C3AF44E129F0B00FF SWAP1 PUSH1 0x0 SWAP1 LOG4 PUSH1 0x0 SWAP2 DUP3 MSTORE PUSH1 0x65 PUSH1 0x20 MSTORE PUSH1 0x40 SWAP1 SWAP2 KECCAK256 PUSH1 0x1 ADD SSTORE JUMP JUMPDEST PUSH2 0x4A02 PUSH2 0x4FE3 JUMP JUMPDEST POP PUSH1 0x40 DUP1 MLOAD PUSH1 0x20 DUP2 ADD SWAP1 SWAP2 MSTORE SWAP1 DUP2 MSTORE SWAP1 JUMP JUMPDEST PUSH2 0x4A1C PUSH2 0x4FE3 JUMP JUMPDEST PUSH1 0x40 MLOAD DUP1 PUSH1 0x20 ADD PUSH1 0x40 MSTORE DUP1 PUSH2 0x4A35 DUP6 PUSH1 0x0 ADD MLOAD DUP6 PUSH2 0x4CDB JUMP JUMPDEST SWAP1 MSTORE SWAP4 SWAP3 POP POP POP JUMP JUMPDEST PUSH1 0x0 PUSH2 0x4A4A DUP3 DUP5 PUSH2 0x5B04 JUMP JUMPDEST SWAP4 SWAP3 POP POP POP JUMP JUMPDEST PUSH2 0x4AA9 DUP5 PUSH4 0x23B872DD PUSH1 0xE0 SHL DUP6 DUP6 DUP6 PUSH1 0x40 MLOAD PUSH1 0x24 ADD PUSH2 0x4A72 SWAP4 SWAP3 SWAP2 SWAP1 PUSH2 0x54FB JUMP JUMPDEST PUSH1 0x40 DUP1 MLOAD PUSH1 0x1F NOT DUP2 DUP5 SUB ADD DUP2 MSTORE SWAP2 SWAP1 MSTORE PUSH1 0x20 DUP2 ADD DUP1 MLOAD PUSH1 0x1 PUSH1 0x1 PUSH1 0xE0 SHL SUB AND PUSH1 0x1 PUSH1 0x1 PUSH1 0xE0 SHL SUB NOT SWAP1 SWAP4 AND SWAP3 SWAP1 SWAP3 OR SWAP1 SWAP2 MSTORE PUSH2 0x4CFF JUMP JUMPDEST POP POP POP POP JUMP JUMPDEST PUSH1 0x0 PUSH1 0x40 MLOAD PUSH20 0x3D602D80600A3D3981F3363D3D373D3D3D363D73 PUSH1 0x60 SHL DUP2 MSTORE DUP3 PUSH1 0x60 SHL PUSH1 0x14 DUP3 ADD MSTORE PUSH15 0x5AF43D82803E903D91602B57FD5BF3 PUSH1 0x88 SHL PUSH1 0x28 DUP3 ADD MSTORE PUSH1 0x37 DUP2 PUSH1 0x0 CREATE SWAP2 POP POP PUSH1 0x1 PUSH1 0x1 PUSH1 0xA0 SHL SUB DUP2 AND PUSH2 0xBD7 JUMPI PUSH1 0x40 MLOAD PUSH3 0x461BCD PUSH1 0xE5 SHL DUP2 MSTORE PUSH1 0x4 ADD PUSH2 0xC2A SWAP1 PUSH2 0x57A6 JUMP JUMPDEST PUSH1 0x0 PUSH2 0x4A4A DUP3 DUP5 PUSH2 0x5B5B JUMP JUMPDEST PUSH1 0x60 PUSH1 0x0 PUSH2 0x4B39 DUP4 PUSH1 0x2 PUSH2 0x5B3C JUMP JUMPDEST PUSH2 0x4B44 SWAP1 PUSH1 0x2 PUSH2 0x5B04 JUMP JUMPDEST PUSH1 0x1 PUSH1 0x1 PUSH1 0x40 SHL SUB DUP2 GT ISZERO PUSH2 0x4B69 JUMPI PUSH4 0x4E487B71 PUSH1 0xE0 SHL PUSH1 0x0 MSTORE PUSH1 0x41 PUSH1 0x4 MSTORE PUSH1 0x24 PUSH1 0x0 REVERT JUMPDEST PUSH1 0x40 MLOAD SWAP1 DUP1 DUP3 MSTORE DUP1 PUSH1 0x1F ADD PUSH1 0x1F NOT AND PUSH1 0x20 ADD DUP3 ADD PUSH1 0x40 MSTORE DUP1 ISZERO PUSH2 0x4B93 JUMPI PUSH1 0x20 DUP3 ADD DUP2 DUP1 CALLDATASIZE DUP4 CALLDATACOPY ADD SWAP1 POP JUMPDEST POP SWAP1 POP PUSH1 0x3 PUSH1 0xFC SHL DUP2 PUSH1 0x0 DUP2 MLOAD DUP2 LT PUSH2 0x4BBC JUMPI PUSH4 0x4E487B71 PUSH1 0xE0 SHL PUSH1 0x0 MSTORE PUSH1 0x32 PUSH1 0x4 MSTORE PUSH1 0x24 PUSH1 0x0 REVERT JUMPDEST PUSH1 0x20 ADD ADD SWAP1 PUSH1 0x1 PUSH1 0x1 PUSH1 0xF8 SHL SUB NOT AND SWAP1 DUP2 PUSH1 0x0 BYTE SWAP1 MSTORE8 POP PUSH1 0xF PUSH1 0xFB SHL DUP2 PUSH1 0x1 DUP2 MLOAD DUP2 LT PUSH2 0x4BF9 JUMPI PUSH4 0x4E487B71 PUSH1 0xE0 SHL PUSH1 0x0 MSTORE PUSH1 0x32 PUSH1 0x4 MSTORE PUSH1 0x24 PUSH1 0x0 REVERT JUMPDEST PUSH1 0x20 ADD ADD SWAP1 PUSH1 0x1 PUSH1 0x1 PUSH1 0xF8 SHL SUB NOT AND SWAP1 DUP2 PUSH1 0x0 BYTE SWAP1 MSTORE8 POP PUSH1 0x0 PUSH2 0x4C1D DUP5 PUSH1 0x2 PUSH2 0x5B3C JUMP JUMPDEST PUSH2 0x4C28 SWAP1 PUSH1 0x1 PUSH2 0x5B04 JUMP JUMPDEST SWAP1 POP JUMPDEST PUSH1 0x1 DUP2 GT ISZERO PUSH2 0x4CBC JUMPI PUSH16 0x181899199A1A9B1B9C1CB0B131B232B3 PUSH1 0x81 SHL DUP6 PUSH1 0xF AND PUSH1 0x10 DUP2 LT PUSH2 0x4C6A JUMPI PUSH4 0x4E487B71 PUSH1 0xE0 SHL PUSH1 0x0 MSTORE PUSH1 0x32 PUSH1 0x4 MSTORE PUSH1 0x24 PUSH1 0x0 REVERT JUMPDEST BYTE PUSH1 0xF8 SHL DUP3 DUP3 DUP2 MLOAD DUP2 LT PUSH2 0x4C8E JUMPI PUSH4 0x4E487B71 PUSH1 0xE0 SHL PUSH1 0x0 MSTORE PUSH1 0x32 PUSH1 0x4 MSTORE PUSH1 0x24 PUSH1 0x0 REVERT JUMPDEST PUSH1 0x20 ADD ADD SWAP1 PUSH1 0x1 PUSH1 0x1 PUSH1 0xF8 SHL SUB NOT AND SWAP1 DUP2 PUSH1 0x0 BYTE SWAP1 MSTORE8 POP PUSH1 0x4 SWAP5 SWAP1 SWAP5 SHR SWAP4 PUSH2 0x4CB5 DUP2 PUSH2 0x5B9E JUMP JUMPDEST SWAP1 POP PUSH2 0x4C2B JUMP JUMPDEST POP DUP4 ISZERO PUSH2 0x4A4A JUMPI PUSH1 0x40 MLOAD PUSH3 0x461BCD PUSH1 0xE5 SHL DUP2 MSTORE PUSH1 0x4 ADD PUSH2 0xC2A SWAP1 PUSH2 0x55DD JUMP JUMPDEST DUP1 MLOAD PUSH1 0x0 SWAP1 PUSH2 0x4A4A SWAP1 PUSH2 0x4CF9 DUP6 PUSH8 0x6765C793FA10079D PUSH1 0x1B SHL PUSH2 0x4D8E JUMP JUMPDEST SWAP1 PUSH2 0x4DD3 JUMP JUMPDEST PUSH1 0x0 PUSH2 0x4D54 DUP3 PUSH1 0x40 MLOAD DUP1 PUSH1 0x40 ADD PUSH1 0x40 MSTORE DUP1 PUSH1 0x20 DUP2 MSTORE PUSH1 0x20 ADD PUSH32 0x5361666545524332303A206C6F772D6C6576656C2063616C6C206661696C6564 DUP2 MSTORE POP DUP6 PUSH1 0x1 PUSH1 0x1 PUSH1 0xA0 SHL SUB AND PUSH2 0x4E12 SWAP1 SWAP3 SWAP2 SWAP1 PUSH4 0xFFFFFFFF AND JUMP JUMPDEST DUP1 MLOAD SWAP1 SWAP2 POP ISZERO PUSH2 0xFB1 JUMPI DUP1 DUP1 PUSH1 0x20 ADD SWAP1 MLOAD DUP2 ADD SWAP1 PUSH2 0x4D72 SWAP2 SWAP1 PUSH2 0x519D JUMP JUMPDEST PUSH2 0xFB1 JUMPI PUSH1 0x40 MLOAD PUSH3 0x461BCD PUSH1 0xE5 SHL DUP2 MSTORE PUSH1 0x4 ADD PUSH2 0xC2A SWAP1 PUSH2 0x59B2 JUMP JUMPDEST PUSH1 0x0 DUP3 PUSH2 0x4D9D JUMPI POP PUSH1 0x0 PUSH2 0x1E89 JUMP JUMPDEST PUSH1 0x0 PUSH2 0x4DA9 DUP4 DUP6 PUSH2 0x5B3C JUMP JUMPDEST SWAP1 POP DUP3 PUSH2 0x4DB6 DUP6 DUP4 PUSH2 0x5B1C JUMP JUMPDEST EQ PUSH2 0x4A4A JUMPI PUSH1 0x40 MLOAD PUSH3 0x461BCD PUSH1 0xE5 SHL DUP2 MSTORE PUSH1 0x4 ADD PUSH2 0xC2A SWAP1 PUSH2 0x587B JUMP JUMPDEST PUSH1 0x0 PUSH2 0x4A4A DUP4 DUP4 PUSH1 0x40 MLOAD DUP1 PUSH1 0x40 ADD PUSH1 0x40 MSTORE DUP1 PUSH1 0x1A DUP2 MSTORE PUSH1 0x20 ADD PUSH26 0x536166654D6174683A206469766973696F6E206279207A65726F PUSH1 0x30 SHL DUP2 MSTORE POP PUSH2 0x4E29 JUMP JUMPDEST PUSH1 0x60 PUSH2 0x4E21 DUP5 DUP5 PUSH1 0x0 DUP6 PUSH2 0x4E60 JUMP JUMPDEST SWAP5 SWAP4 POP POP POP POP JUMP JUMPDEST PUSH1 0x0 DUP2 DUP4 PUSH2 0x4E4A JUMPI PUSH1 0x40 MLOAD PUSH3 0x461BCD PUSH1 0xE5 SHL DUP2 MSTORE PUSH1 0x4 ADD PUSH2 0xC2A SWAP2 SWAP1 PUSH2 0x55A8 JUMP JUMPDEST POP PUSH1 0x0 PUSH2 0x4E57 DUP5 DUP7 PUSH2 0x5B1C JUMP JUMPDEST SWAP6 SWAP5 POP POP POP POP POP JUMP JUMPDEST PUSH1 0x60 DUP3 SELFBALANCE LT ISZERO PUSH2 0x4E82 JUMPI PUSH1 0x40 MLOAD PUSH3 0x461BCD PUSH1 0xE5 SHL DUP2 MSTORE PUSH1 0x4 ADD PUSH2 0xC2A SWAP1 PUSH2 0x570D JUMP JUMPDEST PUSH2 0x4E8B DUP6 PUSH2 0x4F20 JUMP JUMPDEST PUSH2 0x4EA7 JUMPI PUSH1 0x40 MLOAD PUSH3 0x461BCD PUSH1 0xE5 SHL DUP2 MSTORE PUSH1 0x4 ADD PUSH2 0xC2A SWAP1 PUSH2 0x5916 JUMP JUMPDEST PUSH1 0x0 DUP1 DUP7 PUSH1 0x1 PUSH1 0x1 PUSH1 0xA0 SHL SUB AND DUP6 DUP8 PUSH1 0x40 MLOAD PUSH2 0x4EC3 SWAP2 SWAP1 PUSH2 0x5372 JUMP JUMPDEST PUSH1 0x0 PUSH1 0x40 MLOAD DUP1 DUP4 SUB DUP2 DUP6 DUP8 GAS CALL SWAP3 POP POP POP RETURNDATASIZE DUP1 PUSH1 0x0 DUP2 EQ PUSH2 0x4F00 JUMPI PUSH1 0x40 MLOAD SWAP2 POP PUSH1 0x1F NOT PUSH1 0x3F RETURNDATASIZE ADD AND DUP3 ADD PUSH1 0x40 MSTORE RETURNDATASIZE DUP3 MSTORE RETURNDATASIZE PUSH1 0x0 PUSH1 0x20 DUP5 ADD RETURNDATACOPY PUSH2 0x4F05 JUMP JUMPDEST PUSH1 0x60 SWAP2 POP JUMPDEST POP SWAP2 POP SWAP2 POP PUSH2 0x4F15 DUP3 DUP3 DUP7 PUSH2 0x4F26 JUMP JUMPDEST SWAP8 SWAP7 POP POP POP POP POP POP POP JUMP JUMPDEST EXTCODESIZE ISZERO ISZERO SWAP1 JUMP JUMPDEST PUSH1 0x60 DUP4 ISZERO PUSH2 0x4F35 JUMPI POP DUP2 PUSH2 0x4A4A JUMP JUMPDEST DUP3 MLOAD ISZERO PUSH2 0x4F45 JUMPI DUP3 MLOAD DUP1 DUP5 PUSH1 0x20 ADD REVERT JUMPDEST DUP2 PUSH1 0x40 MLOAD PUSH3 0x461BCD PUSH1 0xE5 SHL DUP2 MSTORE PUSH1 0x4 ADD PUSH2 0xC2A SWAP2 SWAP1 PUSH2 0x55A8 JUMP JUMPDEST DUP3 DUP1 SLOAD PUSH2 0x4F6B SWAP1 PUSH2 0x5BB5 JUMP JUMPDEST SWAP1 PUSH1 0x0 MSTORE PUSH1 0x20 PUSH1 0x0 KECCAK256 SWAP1 PUSH1 0x1F ADD PUSH1 0x20 SWAP1 DIV DUP2 ADD SWAP3 DUP3 PUSH2 0x4F8D JUMPI PUSH1 0x0 DUP6 SSTORE PUSH2 0x4FD3 JUMP JUMPDEST DUP3 PUSH1 0x1F LT PUSH2 0x4FA6 JUMPI DUP1 MLOAD PUSH1 0xFF NOT AND DUP4 DUP1 ADD OR DUP6 SSTORE PUSH2 0x4FD3 JUMP JUMPDEST DUP3 DUP1 ADD PUSH1 0x1 ADD DUP6 SSTORE DUP3 ISZERO PUSH2 0x4FD3 JUMPI SWAP2 DUP3 ADD JUMPDEST DUP3 DUP2 GT ISZERO PUSH2 0x4FD3 JUMPI DUP3 MLOAD DUP3 SSTORE SWAP2 PUSH1 0x20 ADD SWAP2 SWAP1 PUSH1 0x1 ADD SWAP1 PUSH2 0x4FB8 JUMP JUMPDEST POP PUSH2 0x4FDF SWAP3 SWAP2 POP PUSH2 0x4FF6 JUMP JUMPDEST POP SWAP1 JUMP JUMPDEST PUSH1 0x40 MLOAD DUP1 PUSH1 0x20 ADD PUSH1 0x40 MSTORE DUP1 PUSH1 0x0 DUP2 MSTORE POP SWAP1 JUMP JUMPDEST JUMPDEST DUP1 DUP3 GT ISZERO PUSH2 0x4FDF JUMPI PUSH1 0x0 DUP2 SSTORE PUSH1 0x1 ADD PUSH2 0x4FF7 JUMP JUMPDEST PUSH1 0x0 DUP3 PUSH1 0x1F DUP4 ADD SLT PUSH2 0x501B JUMPI DUP1 DUP2 REVERT JUMPDEST DUP2 CALLDATALOAD PUSH1 0x1 PUSH1 0x1 PUSH1 0x40 SHL SUB DUP1 DUP3 GT ISZERO PUSH2 0x5035 JUMPI PUSH2 0x5035 PUSH2 0x5C21 JUMP JUMPDEST PUSH1 0x40 MLOAD PUSH1 0x1F DUP4 ADD PUSH1 0x1F NOT AND DUP2 ADD PUSH1 0x20 ADD DUP3 DUP2 GT DUP3 DUP3 LT OR ISZERO PUSH2 0x5059 JUMPI PUSH2 0x5059 PUSH2 0x5C21 JUMP JUMPDEST PUSH1 0x40 MSTORE DUP3 DUP2 MSTORE DUP5 DUP4 ADD PUSH1 0x20 ADD DUP7 LT ISZERO PUSH2 0x5070 JUMPI DUP4 DUP5 REVERT JUMPDEST DUP3 PUSH1 0x20 DUP7 ADD PUSH1 0x20 DUP4 ADD CALLDATACOPY SWAP2 DUP3 ADD PUSH1 0x20 ADD SWAP3 SWAP1 SWAP3 MSTORE SWAP4 SWAP3 POP POP POP JUMP JUMPDEST PUSH1 0x0 PUSH1 0x20 DUP3 DUP5 SUB SLT ISZERO PUSH2 0x509C JUMPI DUP1 DUP2 REVERT JUMPDEST DUP2 CALLDATALOAD PUSH2 0x4A4A DUP2 PUSH2 0x5C37 JUMP JUMPDEST PUSH1 0x0 DUP1 PUSH1 0x40 DUP4 DUP6 SUB SLT ISZERO PUSH2 0x50B9 JUMPI DUP1 DUP2 REVERT JUMPDEST DUP3 CALLDATALOAD PUSH2 0x50C4 DUP2 PUSH2 0x5C37 JUMP JUMPDEST SWAP2 POP PUSH1 0x20 DUP4 ADD CALLDATALOAD PUSH2 0x50D4 DUP2 PUSH2 0x5C37 JUMP JUMPDEST DUP1 SWAP2 POP POP SWAP3 POP SWAP3 SWAP1 POP JUMP JUMPDEST PUSH1 0x0 DUP1 PUSH1 0x0 PUSH1 0x60 DUP5 DUP7 SUB SLT ISZERO PUSH2 0x50F3 JUMPI DUP1 DUP2 REVERT JUMPDEST DUP4 CALLDATALOAD PUSH2 0x50FE DUP2 PUSH2 0x5C37 JUMP JUMPDEST SWAP3 POP PUSH1 0x20 DUP5 ADD CALLDATALOAD PUSH2 0x510E DUP2 PUSH2 0x5C37 JUMP JUMPDEST SWAP2 POP PUSH1 0x40 DUP5 ADD CALLDATALOAD PUSH2 0x511E DUP2 PUSH2 0x5C37 JUMP JUMPDEST DUP1 SWAP2 POP POP SWAP3 POP SWAP3 POP SWAP3 JUMP JUMPDEST PUSH1 0x0 DUP1 PUSH1 0x40 DUP4 DUP6 SUB SLT ISZERO PUSH2 0x513B JUMPI DUP2 DUP3 REVERT JUMPDEST DUP3 CALLDATALOAD PUSH2 0x5146 DUP2 PUSH2 0x5C37 JUMP JUMPDEST SWAP2 POP PUSH1 0x20 DUP4 ADD CALLDATALOAD PUSH2 0x50D4 DUP2 PUSH2 0x5C4F JUMP JUMPDEST PUSH1 0x0 DUP1 PUSH1 0x40 DUP4 DUP6 SUB SLT ISZERO PUSH2 0x5168 JUMPI DUP2 DUP3 REVERT JUMPDEST DUP3 CALLDATALOAD PUSH2 0x5173 DUP2 PUSH2 0x5C37 JUMP JUMPDEST SWAP5 PUSH1 0x20 SWAP4 SWAP1 SWAP4 ADD CALLDATALOAD SWAP4 POP POP POP JUMP JUMPDEST PUSH1 0x0 PUSH1 0x20 DUP3 DUP5 SUB SLT ISZERO PUSH2 0x5192 JUMPI DUP1 DUP2 REVERT JUMPDEST DUP2 CALLDATALOAD PUSH2 0x4A4A DUP2 PUSH2 0x5C4F JUMP JUMPDEST PUSH1 0x0 PUSH1 0x20 DUP3 DUP5 SUB SLT ISZERO PUSH2 0x51AE JUMPI DUP1 DUP2 REVERT JUMPDEST DUP2 MLOAD PUSH2 0x4A4A DUP2 PUSH2 0x5C4F JUMP JUMPDEST PUSH1 0x0 PUSH1 0x20 DUP3 DUP5 SUB SLT ISZERO PUSH2 0x51CA JUMPI DUP1 DUP2 REVERT JUMPDEST POP CALLDATALOAD SWAP2 SWAP1 POP JUMP JUMPDEST PUSH1 0x0 DUP1 PUSH1 0x40 DUP4 DUP6 SUB SLT ISZERO PUSH2 0x51E3 JUMPI DUP2 DUP3 REVERT JUMPDEST DUP3 CALLDATALOAD SWAP2 POP PUSH1 0x20 DUP4 ADD CALLDATALOAD PUSH2 0x50D4 DUP2 PUSH2 0x5C37 JUMP JUMPDEST PUSH1 0x0 PUSH1 0x20 DUP3 DUP5 SUB SLT ISZERO PUSH2 0x5206 JUMPI DUP1 DUP2 REVERT JUMPDEST DUP2 CALLDATALOAD PUSH1 0x1 PUSH1 0x1 PUSH1 0xE0 SHL SUB NOT DUP2 AND DUP2 EQ PUSH2 0x4A4A JUMPI DUP2 DUP3 REVERT JUMPDEST PUSH1 0x0 PUSH1 0x20 DUP3 DUP5 SUB SLT ISZERO PUSH2 0x522E JUMPI DUP1 DUP2 REVERT JUMPDEST DUP2 CALLDATALOAD PUSH1 0x1 PUSH1 0x1 PUSH1 0x40 SHL SUB DUP2 GT ISZERO PUSH2 0x5243 JUMPI DUP2 DUP3 REVERT JUMPDEST PUSH2 0x4E21 DUP5 DUP3 DUP6 ADD PUSH2 0x500B JUMP JUMPDEST PUSH1 0x0 DUP1 PUSH1 0x40 DUP4 DUP6 SUB SLT ISZERO PUSH2 0x5261 JUMPI DUP2 DUP3 REVERT JUMPDEST DUP3 CALLDATALOAD PUSH1 0x1 PUSH1 0x1 PUSH1 0x40 SHL SUB DUP2 GT ISZERO PUSH2 0x5276 JUMPI DUP3 DUP4 REVERT JUMPDEST PUSH2 0x5282 DUP6 DUP3 DUP7 ADD PUSH2 0x500B JUMP JUMPDEST SWAP6 PUSH1 0x20 SWAP5 SWAP1 SWAP5 ADD CALLDATALOAD SWAP5 POP POP POP POP JUMP JUMPDEST PUSH1 0x0 PUSH1 0x20 DUP3 DUP5 SUB SLT ISZERO PUSH2 0x52A2 JUMPI DUP1 DUP2 REVERT JUMPDEST POP MLOAD SWAP2 SWAP1 POP JUMP JUMPDEST PUSH1 0x0 DUP1 PUSH1 0x40 DUP4 DUP6 SUB SLT ISZERO PUSH2 0x52BB JUMPI DUP2 DUP3 REVERT JUMPDEST DUP3 CALLDATALOAD SWAP2 POP PUSH1 0x20 DUP4 ADD CALLDATALOAD PUSH2 0x50D4 DUP2 PUSH2 0x5C4F JUMP JUMPDEST PUSH1 0x0 DUP1 PUSH1 0x40 DUP4 DUP6 SUB SLT ISZERO PUSH2 0x52DF JUMPI DUP2 DUP3 REVERT JUMPDEST POP POP DUP1 CALLDATALOAD SWAP3 PUSH1 0x20 SWAP1 SWAP2 ADD CALLDATALOAD SWAP2 POP JUMP JUMPDEST PUSH1 0x0 DUP1 PUSH1 0x0 PUSH1 0x60 DUP5 DUP7 SUB SLT ISZERO PUSH2 0x5302 JUMPI DUP1 DUP2 REVERT JUMPDEST DUP4 CALLDATALOAD SWAP3 POP PUSH1 0x20 DUP5 ADD CALLDATALOAD SWAP2 POP PUSH1 0x40 DUP5 ADD CALLDATALOAD PUSH2 0x511E DUP2 PUSH2 0x5C37 JUMP JUMPDEST PUSH1 0x0 DUP1 PUSH1 0x0 PUSH1 0x60 DUP5 DUP7 SUB SLT ISZERO PUSH2 0x532F JUMPI DUP1 DUP2 REVERT JUMPDEST POP POP DUP2 CALLDATALOAD SWAP4 PUSH1 0x20 DUP4 ADD CALLDATALOAD SWAP4 POP PUSH1 0x40 SWAP1 SWAP3 ADD CALLDATALOAD SWAP2 SWAP1 POP JUMP JUMPDEST PUSH1 0x0 DUP2 MLOAD DUP1 DUP5 MSTORE PUSH2 0x535E DUP2 PUSH1 0x20 DUP7 ADD PUSH1 0x20 DUP7 ADD PUSH2 0x5B72 JUMP JUMPDEST PUSH1 0x1F ADD PUSH1 0x1F NOT AND SWAP3 SWAP1 SWAP3 ADD PUSH1 0x20 ADD SWAP3 SWAP2 POP POP JUMP JUMPDEST PUSH1 0x0 DUP3 MLOAD PUSH2 0x5384 DUP2 DUP5 PUSH1 0x20 DUP8 ADD PUSH2 0x5B72 JUMP JUMPDEST SWAP2 SWAP1 SWAP2 ADD SWAP3 SWAP2 POP POP JUMP JUMPDEST PUSH17 0x3232B330BAB63A21B7B6B6B4B9B9B4B7B7 PUSH1 0x79 SHL DUP2 MSTORE PUSH1 0x11 ADD SWAP1 JUMP JUMPDEST PUSH1 0x0 PUSH23 0x20B1B1B2B9B9A1B7B73A3937B61D1030B1B1B7BAB73A1 PUSH1 0x4D SHL DUP3 MSTORE DUP4 MLOAD PUSH2 0x53DD DUP2 PUSH1 0x17 DUP6 ADD PUSH1 0x20 DUP9 ADD PUSH2 0x5B72 JUMP JUMPDEST PUSH17 0x1034B99036B4B9B9B4B733903937B6329 PUSH1 0x7D SHL PUSH1 0x17 SWAP2 DUP5 ADD SWAP2 DUP3 ADD MSTORE DUP4 MLOAD PUSH2 0x540E DUP2 PUSH1 0x28 DUP5 ADD PUSH1 0x20 DUP9 ADD PUSH2 0x5B72 JUMP JUMPDEST ADD PUSH1 0x28 ADD SWAP5 SWAP4 POP POP POP POP JUMP JUMPDEST PUSH1 0x1 PUSH1 0x1 PUSH1 0xA0 SHL SUB SWAP2 SWAP1 SWAP2 AND DUP2 MSTORE PUSH1 0x20 ADD SWAP1 JUMP JUMPDEST PUSH1 0x1 PUSH1 0x1 PUSH1 0xA0 SHL SUB SWAP4 DUP5 AND DUP2 MSTORE SWAP2 DUP4 AND PUSH1 0x20 DUP4 ADD MSTORE SWAP1 SWAP2 AND PUSH1 0x40 DUP3 ADD MSTORE PUSH1 0x60 ADD SWAP1 JUMP JUMPDEST PUSH1 0x1 PUSH1 0x1 PUSH1 0xA0 SHL SUB SWAP3 DUP4 AND DUP2 MSTORE SWAP2 AND PUSH1 0x20 DUP3 ADD MSTORE PUSH1 0x40 ADD SWAP1 JUMP JUMPDEST PUSH1 0x1 PUSH1 0x1 PUSH1 0xA0 SHL SUB SWAP7 DUP8 AND DUP2 MSTORE SWAP5 DUP7 AND PUSH1 0x20 DUP7 ADD MSTORE SWAP3 DUP6 AND PUSH1 0x40 DUP6 ADD MSTORE PUSH1 0x60 DUP5 ADD SWAP2 SWAP1 SWAP2 MSTORE PUSH1 0x80 DUP4 ADD MSTORE SWAP1 SWAP2 AND PUSH1 0xA0 DUP3 ADD MSTORE PUSH1 0xC0 ADD SWAP1 JUMP JUMPDEST PUSH1 0x1 PUSH1 0x1 PUSH1 0xA0 SHL SUB SWAP11 DUP12 AND DUP2 MSTORE SWAP9 DUP11 AND PUSH1 0x20 DUP11 ADD MSTORE SWAP7 SWAP1 SWAP9 AND PUSH1 0x40 DUP9 ADD MSTORE PUSH1 0x60 DUP8 ADD SWAP5 SWAP1 SWAP5 MSTORE PUSH1 0x80 DUP7 ADD SWAP3 SWAP1 SWAP3 MSTORE PUSH1 0xA0 DUP6 ADD MSTORE PUSH1 0xC0 DUP5 ADD MSTORE ISZERO ISZERO PUSH1 0xE0 DUP4 ADD MSTORE SWAP2 ISZERO ISZERO PUSH2 0x100 DUP3 ADD MSTORE SWAP1 ISZERO ISZERO PUSH2 0x120 DUP3 ADD MSTORE PUSH2 0x140 ADD SWAP1 JUMP JUMPDEST PUSH1 0x1 PUSH1 0x1 PUSH1 0xA0 SHL SUB SWAP4 DUP5 AND DUP2 MSTORE SWAP2 SWAP1 SWAP3 AND PUSH1 0x20 DUP3 ADD MSTORE PUSH1 0x40 DUP2 ADD SWAP2 SWAP1 SWAP2 MSTORE PUSH1 0x60 ADD SWAP1 JUMP JUMPDEST PUSH1 0x1 PUSH1 0x1 PUSH1 0xA0 SHL SUB SWAP6 SWAP1 SWAP6 AND DUP6 MSTORE PUSH1 0x20 DUP6 ADD SWAP4 SWAP1 SWAP4 MSTORE PUSH1 0x40 DUP5 ADD SWAP2 SWAP1 SWAP2 MSTORE ISZERO ISZERO PUSH1 0x60 DUP4 ADD MSTORE ISZERO ISZERO PUSH1 0x80 DUP3 ADD MSTORE PUSH1 0xA0 ADD SWAP1 JUMP JUMPDEST SWAP1 ISZERO ISZERO DUP2 MSTORE PUSH1 0x20 ADD SWAP1 JUMP JUMPDEST SWAP2 ISZERO ISZERO DUP3 MSTORE PUSH1 0x1 PUSH1 0x1 PUSH1 0xA0 SHL SUB AND PUSH1 0x20 DUP3 ADD MSTORE PUSH1 0x40 ADD SWAP1 JUMP JUMPDEST SWAP1 DUP2 MSTORE PUSH1 0x20 ADD SWAP1 JUMP JUMPDEST PUSH1 0x1 PUSH1 0x1 PUSH1 0xA0 SHL SUB SWAP5 DUP6 AND DUP2 MSTORE SWAP3 DUP5 AND PUSH1 0x20 DUP5 ADD MSTORE SWAP3 AND PUSH1 0x40 DUP3 ADD MSTORE PUSH1 0x60 DUP2 ADD SWAP2 SWAP1 SWAP2 MSTORE PUSH1 0x80 ADD SWAP1 JUMP JUMPDEST PUSH1 0x0 PUSH1 0x20 DUP3 MSTORE PUSH2 0x4A4A PUSH1 0x20 DUP4 ADD DUP5 PUSH2 0x5346 JUMP JUMPDEST PUSH1 0x0 PUSH1 0x40 DUP3 MSTORE PUSH2 0x55CE PUSH1 0x40 DUP4 ADD DUP6 PUSH2 0x5346 JUMP JUMPDEST SWAP1 POP DUP3 PUSH1 0x20 DUP4 ADD MSTORE SWAP4 SWAP3 POP POP POP JUMP JUMPDEST PUSH1 0x20 DUP1 DUP3 MSTORE DUP2 DUP2 ADD MSTORE PUSH32 0x537472696E67733A20686578206C656E67746820696E73756666696369656E74 PUSH1 0x40 DUP3 ADD MSTORE PUSH1 0x60 ADD SWAP1 JUMP JUMPDEST PUSH1 0x20 DUP1 DUP3 MSTORE PUSH1 0x14 SWAP1 DUP3 ADD MSTORE PUSH20 0x14185D5CD8589B194E881B9BDD081C185D5CD959 PUSH1 0x62 SHL PUSH1 0x40 DUP3 ADD MSTORE PUSH1 0x60 ADD SWAP1 JUMP JUMPDEST PUSH1 0x20 DUP1 DUP3 MSTORE PUSH1 0x28 SWAP1 DUP3 ADD MSTORE PUSH32 0x63616D706169676E20666561747572652065787069726564206F72206E6F7420 PUSH1 0x40 DUP3 ADD MSTORE PUSH8 0x656C696769626C65 PUSH1 0xC0 SHL PUSH1 0x60 DUP3 ADD MSTORE PUSH1 0x80 ADD SWAP1 JUMP JUMPDEST PUSH1 0x20 DUP1 DUP3 MSTORE PUSH1 0x13 SWAP1 DUP3 ADD MSTORE PUSH19 0x37B7363C9031B0B6B830B4B3B71037BBB732B9 PUSH1 0x69 SHL PUSH1 0x40 DUP3 ADD MSTORE PUSH1 0x60 ADD SWAP1 JUMP JUMPDEST PUSH1 0x20 DUP1 DUP3 MSTORE PUSH1 0x11 SWAP1 DUP3 ADD MSTORE PUSH17 0x1C1858DAD859D9481B9BDD08199BDD5B99 PUSH1 0x7A SHL PUSH1 0x40 DUP3 ADD MSTORE PUSH1 0x60 ADD SWAP1 JUMP JUMPDEST PUSH1 0x20 DUP1 DUP3 MSTORE PUSH1 0x13 SWAP1 DUP3 ADD MSTORE PUSH19 0x1D5CD95C88191BD95CC81B9BDD08195E1A5CDD PUSH1 0x6A SHL PUSH1 0x40 DUP3 ADD MSTORE PUSH1 0x60 ADD SWAP1 JUMP JUMPDEST PUSH1 0x20 DUP1 DUP3 MSTORE PUSH1 0x26 SWAP1 DUP3 ADD MSTORE PUSH32 0x416464726573733A20696E73756666696369656E742062616C616E636520666F PUSH1 0x40 DUP3 ADD MSTORE PUSH6 0x1C8818D85B1B PUSH1 0xD2 SHL PUSH1 0x60 DUP3 ADD MSTORE PUSH1 0x80 ADD SWAP1 JUMP JUMPDEST PUSH1 0x20 DUP1 DUP3 MSTORE PUSH1 0xF SWAP1 DUP3 ADD MSTORE PUSH15 0x3AB73B32B934B334B2B2103AB9B2B9 PUSH1 0x89 SHL PUSH1 0x40 DUP3 ADD MSTORE PUSH1 0x60 ADD SWAP1 JUMP JUMPDEST PUSH1 0x20 DUP1 DUP3 MSTORE PUSH1 0x10 SWAP1 DUP3 ADD MSTORE PUSH16 0x14185D5CD8589B194E881C185D5CD959 PUSH1 0x82 SHL PUSH1 0x40 DUP3 ADD MSTORE PUSH1 0x60 ADD SWAP1 JUMP JUMPDEST PUSH1 0x20 DUP1 DUP3 MSTORE PUSH1 0x16 SWAP1 DUP3 ADD MSTORE PUSH22 0x115490CC4C4D8DCE8818DC99585D194819985A5B1959 PUSH1 0x52 SHL PUSH1 0x40 DUP3 ADD MSTORE PUSH1 0x60 ADD SWAP1 JUMP JUMPDEST PUSH1 0x20 DUP1 DUP3 MSTORE PUSH1 0x11 SWAP1 DUP3 ADD MSTORE PUSH17 0x18D85B5C185A59DB88191A5CD8589B1959 PUSH1 0x7A SHL PUSH1 0x40 DUP3 ADD MSTORE PUSH1 0x60 ADD SWAP1 JUMP JUMPDEST PUSH1 0x20 DUP1 DUP3 MSTORE PUSH1 0x2E SWAP1 DUP3 ADD MSTORE PUSH32 0x496E697469616C697A61626C653A20636F6E747261637420697320616C726561 PUSH1 0x40 DUP3 ADD MSTORE PUSH14 0x191E481A5B9A5D1A585B1A5E9959 PUSH1 0x92 SHL PUSH1 0x60 DUP3 ADD MSTORE PUSH1 0x80 ADD SWAP1 JUMP JUMPDEST PUSH1 0x20 DUP1 DUP3 MSTORE PUSH1 0x12 SWAP1 DUP3 ADD MSTORE PUSH18 0x18D85B5C185A59DB881B9BDD08199BDD5B99 PUSH1 0x72 SHL PUSH1 0x40 DUP3 ADD MSTORE PUSH1 0x60 ADD SWAP1 JUMP JUMPDEST PUSH1 0x20 DUP1 DUP3 MSTORE PUSH1 0x21 SWAP1 DUP3 ADD MSTORE PUSH32 0x536166654D6174683A206D756C7469706C69636174696F6E206F766572666C6F PUSH1 0x40 DUP3 ADD MSTORE PUSH1 0x77 PUSH1 0xF8 SHL PUSH1 0x60 DUP3 ADD MSTORE PUSH1 0x80 ADD SWAP1 JUMP JUMPDEST PUSH1 0x20 DUP1 DUP3 MSTORE PUSH1 0x11 SWAP1 DUP3 ADD MSTORE PUSH17 0x3234B9B0B8383937BB32B2103A37B5B2B7 PUSH1 0x79 SHL PUSH1 0x40 DUP3 ADD MSTORE PUSH1 0x60 ADD SWAP1 JUMP JUMPDEST PUSH1 0x20 DUP1 DUP3 MSTORE PUSH1 0x15 SWAP1 DUP3 ADD MSTORE PUSH21 0x18D85B5C185A59DB881B9BDD08185C1C1C9BDD9959 PUSH1 0x5A SHL PUSH1 0x40 DUP3 ADD MSTORE PUSH1 0x60 ADD SWAP1 JUMP JUMPDEST PUSH1 0x20 DUP1 DUP3 MSTORE PUSH1 0x1D SWAP1 DUP3 ADD MSTORE PUSH32 0x416464726573733A2063616C6C20746F206E6F6E2D636F6E7472616374000000 PUSH1 0x40 DUP3 ADD MSTORE PUSH1 0x60 ADD SWAP1 JUMP JUMPDEST PUSH1 0x20 DUP1 DUP3 MSTORE PUSH1 0x1F SWAP1 DUP3 ADD MSTORE PUSH32 0x63616D706169676E206665617475726520616C72656164792070617573656400 PUSH1 0x40 DUP3 ADD MSTORE PUSH1 0x60 ADD SWAP1 JUMP JUMPDEST PUSH1 0x20 DUP1 DUP3 MSTORE PUSH1 0x14 SWAP1 DUP3 ADD MSTORE PUSH20 0x1C1C9A58D948195E18D959591CC8185B5BDD5B9D PUSH1 0x62 SHL PUSH1 0x40 DUP3 ADD MSTORE PUSH1 0x60 ADD SWAP1 JUMP JUMPDEST PUSH1 0x20 DUP1 DUP3 MSTORE PUSH1 0x2A SWAP1 DUP3 ADD MSTORE PUSH32 0x5361666545524332303A204552433230206F7065726174696F6E20646964206E PUSH1 0x40 DUP3 ADD MSTORE PUSH10 0x1BDD081CDD58D8D95959 PUSH1 0xB2 SHL PUSH1 0x60 DUP3 ADD MSTORE PUSH1 0x80 ADD SWAP1 JUMP JUMPDEST PUSH1 0x20 DUP1 DUP3 MSTORE PUSH1 0x1F SWAP1 DUP3 ADD MSTORE PUSH32 0x5265656E7472616E637947756172643A207265656E7472616E742063616C6C00 PUSH1 0x40 DUP3 ADD MSTORE PUSH1 0x60 ADD SWAP1 JUMP JUMPDEST PUSH1 0x20 DUP1 DUP3 MSTORE PUSH1 0x2F SWAP1 DUP3 ADD MSTORE PUSH32 0x416363657373436F6E74726F6C3A2063616E206F6E6C792072656E6F756E6365 PUSH1 0x40 DUP3 ADD MSTORE PUSH15 0x103937B632B9903337B91039B2B633 PUSH1 0x89 SHL PUSH1 0x60 DUP3 ADD MSTORE PUSH1 0x80 ADD SWAP1 JUMP JUMPDEST SWAP2 DUP3 MSTORE PUSH1 0x1 PUSH1 0x1 PUSH1 0xA0 SHL SUB AND PUSH1 0x20 DUP3 ADD MSTORE PUSH1 0x40 ADD SWAP1 JUMP JUMPDEST SWAP3 DUP4 MSTORE PUSH1 0x20 DUP4 ADD SWAP2 SWAP1 SWAP2 MSTORE PUSH1 0x1 PUSH1 0x1 PUSH1 0xA0 SHL SUB AND PUSH1 0x40 DUP3 ADD MSTORE PUSH1 0x60 ADD SWAP1 JUMP JUMPDEST SWAP5 DUP6 MSTORE PUSH1 0x20 DUP6 ADD SWAP4 SWAP1 SWAP4 MSTORE PUSH1 0x40 DUP5 ADD SWAP2 SWAP1 SWAP2 MSTORE ISZERO ISZERO PUSH1 0x60 DUP4 ADD MSTORE ISZERO ISZERO PUSH1 0x80 DUP3 ADD MSTORE PUSH1 0xA0 ADD SWAP1 JUMP JUMPDEST SWAP5 DUP6 MSTORE PUSH1 0x20 DUP6 ADD SWAP4 SWAP1 SWAP4 MSTORE PUSH1 0x40 DUP5 ADD SWAP2 SWAP1 SWAP2 MSTORE PUSH1 0x60 DUP4 ADD MSTORE ISZERO ISZERO PUSH1 0x80 DUP3 ADD MSTORE PUSH1 0xA0 ADD SWAP1 JUMP JUMPDEST PUSH1 0x0 DUP3 NOT DUP3 GT ISZERO PUSH2 0x5B17 JUMPI PUSH2 0x5B17 PUSH2 0x5C0B JUMP JUMPDEST POP ADD SWAP1 JUMP JUMPDEST PUSH1 0x0 DUP3 PUSH2 0x5B37 JUMPI PUSH4 0x4E487B71 PUSH1 0xE0 SHL DUP2 MSTORE PUSH1 0x12 PUSH1 0x4 MSTORE PUSH1 0x24 DUP2 REVERT JUMPDEST POP DIV SWAP1 JUMP JUMPDEST PUSH1 0x0 DUP2 PUSH1 0x0 NOT DIV DUP4 GT DUP3 ISZERO ISZERO AND ISZERO PUSH2 0x5B56 JUMPI PUSH2 0x5B56 PUSH2 0x5C0B JUMP JUMPDEST POP MUL SWAP1 JUMP JUMPDEST PUSH1 0x0 DUP3 DUP3 LT ISZERO PUSH2 0x5B6D JUMPI PUSH2 0x5B6D PUSH2 0x5C0B JUMP JUMPDEST POP SUB SWAP1 JUMP JUMPDEST PUSH1 0x0 JUMPDEST DUP4 DUP2 LT ISZERO PUSH2 0x5B8D JUMPI DUP2 DUP2 ADD MLOAD DUP4 DUP3 ADD MSTORE PUSH1 0x20 ADD PUSH2 0x5B75 JUMP JUMPDEST DUP4 DUP2 GT ISZERO PUSH2 0x4AA9 JUMPI POP POP PUSH1 0x0 SWAP2 ADD MSTORE JUMP JUMPDEST PUSH1 0x0 DUP2 PUSH2 0x5BAD JUMPI PUSH2 0x5BAD PUSH2 0x5C0B JUMP JUMPDEST POP PUSH1 0x0 NOT ADD SWAP1 JUMP JUMPDEST PUSH1 0x2 DUP2 DIV PUSH1 0x1 DUP3 AND DUP1 PUSH2 0x5BC9 JUMPI PUSH1 0x7F DUP3 AND SWAP2 POP JUMPDEST PUSH1 0x20 DUP3 LT DUP2 EQ ISZERO PUSH2 0x5BEA JUMPI PUSH4 0x4E487B71 PUSH1 0xE0 SHL PUSH1 0x0 MSTORE PUSH1 0x22 PUSH1 0x4 MSTORE PUSH1 0x24 PUSH1 0x0 REVERT JUMPDEST POP SWAP2 SWAP1 POP JUMP JUMPDEST PUSH1 0x0 PUSH1 0x0 NOT DUP3 EQ ISZERO PUSH2 0x5C04 JUMPI PUSH2 0x5C04 PUSH2 0x5C0B JUMP JUMPDEST POP PUSH1 0x1 ADD SWAP1 JUMP JUMPDEST PUSH4 0x4E487B71 PUSH1 0xE0 SHL PUSH1 0x0 MSTORE PUSH1 0x11 PUSH1 0x4 MSTORE PUSH1 0x24 PUSH1 0x0 REVERT JUMPDEST PUSH4 0x4E487B71 PUSH1 0xE0 SHL PUSH1 0x0 MSTORE PUSH1 0x41 PUSH1 0x4 MSTORE PUSH1 0x24 PUSH1 0x0 REVERT JUMPDEST PUSH1 0x1 PUSH1 0x1 PUSH1 0xA0 SHL SUB DUP2 AND DUP2 EQ PUSH2 0x5C4C JUMPI PUSH1 0x0 DUP1 REVERT JUMPDEST POP JUMP JUMPDEST DUP1 ISZERO ISZERO DUP2 EQ PUSH2 0x5C4C JUMPI PUSH1 0x0 DUP1 REVERT INVALID 0x2F 0x48 0xAC ORIGIN 0xDB JUMPI 0x2E SWAP16 0xD9 PUSH26 0x463D8692F03BD4EABB1F84BDFC70F736E3D2676CD74859C43DE4 0xB3 PC 0xBF 0xA9 0xC1 EXTCODEHASH 0x4B 0xEB 0xB4 EXTCODECOPY 0xF6 SWAP10 0xC6 SWAP15 SLOAD 0xD2 0xCE MOD SWAP5 0xB0 MOD 0xE9 0xE1 0xAC PUSH26 0xC3C487F6E2B6A9E36D5FD426522B11D2A13C90B3F41F54A9A282 SWAP6 SWAP12 PUSH24 0x755BDF72AFE5B0D00CDCA7AF6ED7BD59BDC60D7090A56E20 GASLIMIT 0x5C EXP EXP 0xC7 GASLIMIT SHL 0xA6 0xD1 SMOD DUP1 0xDE 0xD9 0xE3 LOG2 PUSH5 0x6970667358 0x22 SLT KECCAK256 DUP10 0xB8 DELEGATECALL 0xC8 EXTCODEHASH 0xDC 0xE5 0xE0 0x2C MLOAD 0xD7 0x26 DUP8 CALLDATALOAD 0xE5 0xB0 0xF9 0xD0 DUP5 0xE8 OR SWAP12 CALLDATACOPY 0x2E 0x2D LOG1 BLOCKHASH 0xA7 0xE9 0xAE PUSH16 0xBA64736F6C6343000800003300000000 "
		},
		"gasEstimates": {
			"creation": {
				"codeDepositCost": "4765400",
				"executionCost": "5605",
				"totalCost": "4771005"
			},
			"external": {
				"DEFAULT_ADMIN_ROLE()": "1196",
				"MANAGE_CAMPAIGNS()": "infinite",
				"MANAGE_CATEGORIES()": "infinite",
				"MANAGE_USERS()": "infinite",
				"__CampaignFactory_init(address,address)": "infinite",
				"addFactoryTransactionConfig(string)": "infinite",
				"addRole(address,bytes32)": "infinite",
				"addToken(address)": "67633",
				"approvedCampaignTransactionConfig(string)": "infinite",
				"campaignCategories(uint256)": "5133",
				"campaignCount()": "1666",
				"campaignFactoryAddress()": "1972",
				"campaignImplementation()": "1664",
				"campaignRevenueFromCommissions(uint256)": "1633",
				"campaignRevenueFromFeatures(uint256)": "2579",
				"campaignRewardsImplementation()": "1840",
				"campaignToID(address)": "2456",
				"campaignToOwner(address)": "2234",
				"campaignTransactionConfig(string)": "infinite",
				"campaignTransactionConfigList(uint256)": "infinite",
				"canManageCampaigns(address)": "infinite",
				"categoryCommission(uint256)": "2007",
				"categoryCount()": "1248",
				"createCampaign(uint256)": "infinite",
				"createCategory(bool)": "infinite",
				"createFeaturePackage(uint256,uint256)": "infinite",
				"deployedCampaigns(uint256)": "8329",
				"destroyFeaturedPackage(uint256)": "48020",
				"destroyUser(uint256)": "infinite",
				"disableCampaignApproval(uint256)": "infinite",
				"factoryRevenue()": "1908",
				"factoryWallet()": "1752",
				"featureCampaign(uint256,uint256,address)": "infinite",
				"featurePackageCount()": "2128",
				"featurePackages(uint256)": "6513",
				"featuredCampaignIsPaused(uint256)": "1755",
				"getRoleAdmin(bytes32)": "1353",
				"grantRole(bytes32,address)": "infinite",
				"hasRole(bytes32,address)": "2135",
				"modifyCampaignCategory(uint256,uint256)": "infinite",
				"modifyCategory(uint256,bool)": "infinite",
				"modifyFeaturedPackage(uint256,uint256,uint256)": "69028",
				"pauseCampaign()": "infinite",
				"pauseCampaignFeatured(uint256)": "infinite",
				"paused()": "1524",
				"pausedFeaturedCampaignTimeLeft(uint256)": "1281",
				"receiveCampaignCommission(address,uint256)": "infinite",
				"removeRole(address,bytes32)": "infinite",
				"removeToken(uint256,address)": "67862",
				"renounceAdmin()": "infinite",
				"renounceRole(bytes32,address)": "infinite",
				"revokeRole(bytes32,address)": "infinite",
				"root()": "2522",
				"setCampaignTransactionConfig(string,uint256)": "infinite",
				"setCategoryCommission(uint256,uint256,uint256)": "infinite",
				"setDefaultCommission(uint256,uint256)": "infinite",
				"setFactoryConfig(address,address,address)": "infinite",
				"signUp()": "infinite",
				"supportsInterface(bytes4)": "474",
				"toggleAcceptedToken(address,bool)": "infinite",
				"toggleCampaignActive(uint256,bool)": "infinite",
				"toggleCampaignApproval(uint256,bool)": "infinite",
				"toggleUserApproval(uint256,bool)": "infinite",
				"tokenInList(address)": "2336",
				"tokenList(uint256)": "2896",
				"tokensApproved(address)": "1412",
				"unpauseCampaign()": "infinite",
				"unpauseCampaignFeatured(uint256)": "infinite",
				"userCount()": "1028",
				"userID(address)": "2720",
				"users(uint256)": "4980"
			}
		},
		"methodIdentifiers": {
			"DEFAULT_ADMIN_ROLE()": "a217fddf",
			"MANAGE_CAMPAIGNS()": "4f9de6e2",
			"MANAGE_CATEGORIES()": "a3134319",
			"MANAGE_USERS()": "48b30e35",
			"__CampaignFactory_init(address,address)": "5d4bc7e3",
			"addFactoryTransactionConfig(string)": "5f87d16f",
			"addRole(address,bytes32)": "a73f7f8a",
			"addToken(address)": "d48bfca7",
			"approvedCampaignTransactionConfig(string)": "333c4f93",
			"campaignCategories(uint256)": "5fd0b69f",
			"campaignCount()": "7274e30d",
			"campaignFactoryAddress()": "9ee9bbee",
			"campaignImplementation()": "62a6e065",
			"campaignRevenueFromCommissions(uint256)": "50450930",
			"campaignRevenueFromFeatures(uint256)": "df46e21e",
			"campaignRewardsImplementation()": "9590292f",
			"campaignToID(address)": "c6c323fc",
			"campaignToOwner(address)": "a174743a",
			"campaignTransactionConfig(string)": "14f7ea99",
			"campaignTransactionConfigList(uint256)": "4caa13a9",
			"canManageCampaigns(address)": "f7878c69",
			"categoryCommission(uint256)": "98f11bce",
			"categoryCount()": "2be32dbb",
			"createCampaign(uint256)": "a3303a75",
			"createCategory(bool)": "b30326db",
			"createFeaturePackage(uint256,uint256)": "dc1a10c0",
			"deployedCampaigns(uint256)": "339d50a5",
			"destroyFeaturedPackage(uint256)": "9ff84662",
			"destroyUser(uint256)": "cf8a84d0",
			"disableCampaignApproval(uint256)": "9184353f",
			"factoryRevenue()": "9ee25ae4",
			"factoryWallet()": "81994d04",
			"featureCampaign(uint256,uint256,address)": "96a75664",
			"featurePackageCount()": "b1bba29b",
			"featurePackages(uint256)": "b6e33abf",
			"featuredCampaignIsPaused(uint256)": "6219fe3d",
			"getRoleAdmin(bytes32)": "248a9ca3",
			"grantRole(bytes32,address)": "2f2ff15d",
			"hasRole(bytes32,address)": "91d14854",
			"modifyCampaignCategory(uint256,uint256)": "ca68dfe4",
			"modifyCategory(uint256,bool)": "cfa40830",
			"modifyFeaturedPackage(uint256,uint256,uint256)": "3d693d1c",
			"pauseCampaign()": "0d10f3b5",
			"pauseCampaignFeatured(uint256)": "a55b3b31",
			"paused()": "5c975abb",
			"pausedFeaturedCampaignTimeLeft(uint256)": "1aa2f9d7",
			"receiveCampaignCommission(address,uint256)": "e128c969",
			"removeRole(address,bytes32)": "6853920e",
			"removeToken(uint256,address)": "33fe5676",
			"renounceAdmin()": "8bad0c0a",
			"renounceRole(bytes32,address)": "36568abe",
			"revokeRole(bytes32,address)": "d547741f",
			"root()": "ebf0c717",
			"setCampaignTransactionConfig(string,uint256)": "f89fa22d",
			"setCategoryCommission(uint256,uint256,uint256)": "986c1798",
			"setDefaultCommission(uint256,uint256)": "7e0732a8",
			"setFactoryConfig(address,address,address)": "10595aa7",
			"signUp()": "bf96ae63",
			"supportsInterface(bytes4)": "01ffc9a7",
			"toggleAcceptedToken(address,bool)": "24ba73a2",
			"toggleCampaignActive(uint256,bool)": "d5b6c20e",
			"toggleCampaignApproval(uint256,bool)": "c9dc36fb",
			"toggleUserApproval(uint256,bool)": "092093d8",
			"tokenInList(address)": "a8542740",
			"tokenList(uint256)": "9ead7222",
			"tokensApproved(address)": "20966f22",
			"unpauseCampaign()": "1c8e541b",
			"unpauseCampaignFeatured(uint256)": "bc3d5a30",
			"userCount()": "07973ccf",
			"userID(address)": "eda7794e",
			"users(uint256)": "365b98b2"
		}
	},
	"abi": [
		{
			"anonymous": false,
			"inputs": [
				{
					"indexed": true,
					"internalType": "uint256",
					"name": "campaignId",
					"type": "uint256"
				},
				{
					"indexed": false,
					"internalType": "bool",
					"name": "active",
					"type": "bool"
				},
				{
					"indexed": false,
					"internalType": "address",
					"name": "sender",
					"type": "address"
				}
			],
			"name": "CampaignActiveToggle",
			"type": "event"
		},
		{
			"anonymous": false,
			"inputs": [
				{
					"indexed": true,
					"internalType": "uint256",
					"name": "campaignId",
					"type": "uint256"
				},
				{
					"indexed": false,
					"internalType": "bool",
					"name": "approval",
					"type": "bool"
				},
				{
					"indexed": false,
					"internalType": "address",
					"name": "sender",
					"type": "address"
				}
			],
			"name": "CampaignApproval",
			"type": "event"
		},
		{
			"anonymous": false,
			"inputs": [
				{
					"indexed": true,
					"internalType": "uint256",
					"name": "campaignId",
					"type": "uint256"
				},
				{
					"indexed": false,
					"internalType": "uint256",
					"name": "newCategory",
					"type": "uint256"
				},
				{
					"indexed": false,
					"internalType": "address",
					"name": "sender",
					"type": "address"
				}
			],
			"name": "CampaignCategoryChange",
			"type": "event"
		},
		{
			"anonymous": false,
			"inputs": [
				{
					"indexed": false,
					"internalType": "uint256",
					"name": "commission",
					"type": "uint256"
				}
			],
			"name": "CampaignDefaultCommissionUpdated",
			"type": "event"
		},
		{
			"anonymous": false,
			"inputs": [
				{
					"indexed": true,
					"internalType": "uint256",
					"name": "campaignId",
					"type": "uint256"
				},
				{
					"indexed": false,
					"internalType": "address",
					"name": "factory",
					"type": "address"
				},
				{
					"indexed": false,
					"internalType": "address",
					"name": "campaign",
					"type": "address"
				},
				{
					"indexed": false,
					"internalType": "address",
					"name": "campaignRewards",
					"type": "address"
				},
				{
					"indexed": false,
					"internalType": "uint256",
					"name": "userId",
					"type": "uint256"
				},
				{
					"indexed": false,
					"internalType": "uint256",
					"name": "category",
					"type": "uint256"
				},
				{
					"indexed": false,
					"internalType": "address",
					"name": "sender",
					"type": "address"
				}
			],
			"name": "CampaignDeployed",
			"type": "event"
		},
		{
			"anonymous": false,
			"inputs": [
				{
					"indexed": true,
					"internalType": "address",
					"name": "campaignFactory",
					"type": "address"
				},
				{
					"indexed": false,
					"internalType": "address",
					"name": "owner",
					"type": "address"
				},
				{
					"indexed": false,
					"internalType": "address",
					"name": "factoryWallet",
					"type": "address"
				}
			],
			"name": "CampaignFactoryCreated",
			"type": "event"
		},
		{
			"anonymous": false,
			"inputs": [
				{
					"indexed": true,
					"internalType": "uint256",
					"name": "campaignId",
					"type": "uint256"
				},
				{
					"indexed": false,
					"internalType": "address",
					"name": "sender",
					"type": "address"
				}
			],
			"name": "CampaignFeaturePaused",
			"type": "event"
		},
		{
			"anonymous": false,
			"inputs": [
				{
					"indexed": true,
					"internalType": "uint256",
					"name": "campaignId",
					"type": "uint256"
				},
				{
					"indexed": false,
					"internalType": "uint256",
					"name": "timeLeft",
					"type": "uint256"
				},
				{
					"indexed": false,
					"internalType": "address",
					"name": "sender",
					"type": "address"
				}
			],
			"name": "CampaignFeatureUnpaused",
			"type": "event"
		},
		{
			"anonymous": false,
			"inputs": [
				{
					"indexed": true,
					"internalType": "uint256",
					"name": "campaignId",
					"type": "uint256"
				},
				{
					"indexed": false,
					"internalType": "uint256",
					"name": "featurePackageId",
					"type": "uint256"
				},
				{
					"indexed": false,
					"internalType": "uint256",
					"name": "amount",
					"type": "uint256"
				},
				{
					"indexed": false,
					"internalType": "address",
					"name": "sender",
					"type": "address"
				}
			],
			"name": "CampaignFeatured",
			"type": "event"
		},
		{
			"anonymous": false,
			"inputs": [
				{
					"indexed": false,
					"internalType": "string",
					"name": "prop",
					"type": "string"
				},
				{
					"indexed": false,
					"internalType": "uint256",
					"name": "value",
					"type": "uint256"
				}
			],
			"name": "CampaignTransactionConfigUpdated",
			"type": "event"
		},
		{
			"anonymous": false,
			"inputs": [
				{
					"indexed": true,
					"internalType": "uint256",
					"name": "categoryId",
					"type": "uint256"
				},
				{
					"indexed": false,
					"internalType": "bool",
					"name": "active",
					"type": "bool"
				},
				{
					"indexed": false,
					"internalType": "address",
					"name": "sender",
					"type": "address"
				}
			],
			"name": "CategoryAdded",
			"type": "event"
		},
		{
			"anonymous": false,
			"inputs": [
				{
					"indexed": true,
					"internalType": "uint256",
					"name": "categoryId",
					"type": "uint256"
				},
				{
					"indexed": false,
					"internalType": "uint256",
					"name": "commission",
					"type": "uint256"
				}
			],
			"name": "CategoryCommissionUpdated",
			"type": "event"
		},
		{
			"anonymous": false,
			"inputs": [
				{
					"indexed": true,
					"internalType": "uint256",
					"name": "categoryId",
					"type": "uint256"
				},
				{
					"indexed": false,
					"internalType": "bool",
					"name": "active",
					"type": "bool"
				},
				{
					"indexed": false,
					"internalType": "address",
					"name": "sender",
					"type": "address"
				}
			],
			"name": "CategoryModified",
			"type": "event"
		},
		{
			"anonymous": false,
			"inputs": [
				{
					"indexed": false,
					"internalType": "address",
					"name": "factoryWallet",
					"type": "address"
				},
				{
					"indexed": false,
					"internalType": "address",
					"name": "campaignImplementation",
					"type": "address"
				},
				{
					"indexed": false,
					"internalType": "address",
					"name": "campaignRewardsImplementation",
					"type": "address"
				}
			],
			"name": "FactoryConfigUpdated",
			"type": "event"
		},
		{
			"anonymous": false,
			"inputs": [
				{
					"indexed": true,
					"internalType": "uint256",
					"name": "packageId",
					"type": "uint256"
				},
				{
					"indexed": false,
					"internalType": "uint256",
					"name": "cost",
					"type": "uint256"
				},
				{
					"indexed": false,
					"internalType": "uint256",
					"name": "time",
					"type": "uint256"
				},
				{
					"indexed": false,
					"internalType": "address",
					"name": "sender",
					"type": "address"
				}
			],
			"name": "FeaturePackageAdded",
			"type": "event"
		},
		{
			"anonymous": false,
			"inputs": [
				{
					"indexed": true,
					"internalType": "uint256",
					"name": "packageId",
					"type": "uint256"
				},
				{
					"indexed": false,
					"internalType": "address",
					"name": "sender",
					"type": "address"
				}
			],
			"name": "FeaturePackageDestroyed",
			"type": "event"
		},
		{
			"anonymous": false,
			"inputs": [
				{
					"indexed": true,
					"internalType": "uint256",
					"name": "packageId",
					"type": "uint256"
				},
				{
					"indexed": false,
					"internalType": "uint256",
					"name": "cost",
					"type": "uint256"
				},
				{
					"indexed": false,
					"internalType": "uint256",
					"name": "time",
					"type": "uint256"
				},
				{
					"indexed": false,
					"internalType": "address",
					"name": "sender",
					"type": "address"
				}
			],
			"name": "FeaturePackageModified",
			"type": "event"
		},
		{
			"anonymous": false,
			"inputs": [
				{
					"indexed": false,
					"internalType": "address",
					"name": "account",
					"type": "address"
				}
			],
			"name": "Paused",
			"type": "event"
		},
		{
			"anonymous": false,
			"inputs": [
				{
					"indexed": true,
					"internalType": "bytes32",
					"name": "role",
					"type": "bytes32"
				},
				{
					"indexed": true,
					"internalType": "bytes32",
					"name": "previousAdminRole",
					"type": "bytes32"
				},
				{
					"indexed": true,
					"internalType": "bytes32",
					"name": "newAdminRole",
					"type": "bytes32"
				}
			],
			"name": "RoleAdminChanged",
			"type": "event"
		},
		{
			"anonymous": false,
			"inputs": [
				{
					"indexed": true,
					"internalType": "bytes32",
					"name": "role",
					"type": "bytes32"
				},
				{
					"indexed": true,
					"internalType": "address",
					"name": "account",
					"type": "address"
				},
				{
					"indexed": true,
					"internalType": "address",
					"name": "sender",
					"type": "address"
				}
			],
			"name": "RoleGranted",
			"type": "event"
		},
		{
			"anonymous": false,
			"inputs": [
				{
					"indexed": true,
					"internalType": "bytes32",
					"name": "role",
					"type": "bytes32"
				},
				{
					"indexed": true,
					"internalType": "address",
					"name": "account",
					"type": "address"
				},
				{
					"indexed": true,
					"internalType": "address",
					"name": "sender",
					"type": "address"
				}
			],
			"name": "RoleRevoked",
			"type": "event"
		},
		{
			"anonymous": false,
			"inputs": [
				{
					"indexed": true,
					"internalType": "address",
					"name": "token",
					"type": "address"
				},
				{
					"indexed": false,
					"internalType": "address",
					"name": "sender",
					"type": "address"
				}
			],
			"name": "TokenAdded",
			"type": "event"
		},
		{
			"anonymous": false,
			"inputs": [
				{
					"indexed": true,
					"internalType": "address",
					"name": "token",
					"type": "address"
				},
				{
					"indexed": false,
					"internalType": "bool",
					"name": "state",
					"type": "bool"
				},
				{
					"indexed": false,
					"internalType": "address",
					"name": "sender",
					"type": "address"
				}
			],
			"name": "TokenApproval",
			"type": "event"
		},
		{
			"anonymous": false,
			"inputs": [
				{
					"indexed": true,
					"internalType": "uint256",
					"name": "tokenId",
					"type": "uint256"
				},
				{
					"indexed": false,
					"internalType": "address",
					"name": "token",
					"type": "address"
				},
				{
					"indexed": false,
					"internalType": "address",
					"name": "sender",
					"type": "address"
				}
			],
			"name": "TokenRemoved",
			"type": "event"
		},
		{
			"anonymous": false,
			"inputs": [
				{
					"indexed": false,
					"internalType": "address",
					"name": "account",
					"type": "address"
				}
			],
			"name": "Unpaused",
			"type": "event"
		},
		{
			"anonymous": false,
			"inputs": [
				{
					"indexed": true,
					"internalType": "uint256",
					"name": "userId",
					"type": "uint256"
				},
				{
					"indexed": false,
					"internalType": "address",
					"name": "sender",
					"type": "address"
				}
			],
			"name": "UserAdded",
			"type": "event"
		},
		{
			"anonymous": false,
			"inputs": [
				{
					"indexed": true,
					"internalType": "uint256",
					"name": "userId",
					"type": "uint256"
				},
				{
					"indexed": false,
					"internalType": "bool",
					"name": "approval",
					"type": "bool"
				},
				{
					"indexed": false,
					"internalType": "address",
					"name": "sender",
					"type": "address"
				}
			],
			"name": "UserApproval",
			"type": "event"
		},
		{
			"anonymous": false,
			"inputs": [
				{
					"indexed": true,
					"internalType": "uint256",
					"name": "userId",
					"type": "uint256"
				},
				{
					"indexed": false,
					"internalType": "address",
					"name": "sender",
					"type": "address"
				}
			],
			"name": "UserRemoved",
			"type": "event"
		},
		{
			"inputs": [],
			"name": "DEFAULT_ADMIN_ROLE",
			"outputs": [
				{
					"internalType": "bytes32",
					"name": "",
					"type": "bytes32"
				}
			],
			"stateMutability": "view",
			"type": "function"
		},
		{
			"inputs": [],
			"name": "MANAGE_CAMPAIGNS",
			"outputs": [
				{
					"internalType": "bytes32",
					"name": "",
					"type": "bytes32"
				}
			],
			"stateMutability": "view",
			"type": "function"
		},
		{
			"inputs": [],
			"name": "MANAGE_CATEGORIES",
			"outputs": [
				{
					"internalType": "bytes32",
					"name": "",
					"type": "bytes32"
				}
			],
			"stateMutability": "view",
			"type": "function"
		},
		{
			"inputs": [],
			"name": "MANAGE_USERS",
			"outputs": [
				{
					"internalType": "bytes32",
					"name": "",
					"type": "bytes32"
				}
			],
			"stateMutability": "view",
			"type": "function"
		},
		{
			"inputs": [
				{
					"internalType": "address payable",
					"name": "_wallet",
					"type": "address"
				},
				{
					"internalType": "address",
					"name": "_root",
					"type": "address"
				}
			],
			"name": "__CampaignFactory_init",
			"outputs": [],
			"stateMutability": "nonpayable",
			"type": "function"
		},
		{
			"inputs": [
				{
					"internalType": "string",
					"name": "_prop",
					"type": "string"
				}
			],
			"name": "addFactoryTransactionConfig",
			"outputs": [],
			"stateMutability": "nonpayable",
			"type": "function"
		},
		{
			"inputs": [
				{
					"internalType": "address",
					"name": "_account",
					"type": "address"
				},
				{
					"internalType": "bytes32",
					"name": "_role",
					"type": "bytes32"
				}
			],
			"name": "addRole",
			"outputs": [],
			"stateMutability": "nonpayable",
			"type": "function"
		},
		{
			"inputs": [
				{
					"internalType": "address",
					"name": "_token",
					"type": "address"
				}
			],
			"name": "addToken",
			"outputs": [],
			"stateMutability": "nonpayable",
			"type": "function"
		},
		{
			"inputs": [
				{
					"internalType": "string",
					"name": "",
					"type": "string"
				}
			],
			"name": "approvedCampaignTransactionConfig",
			"outputs": [
				{
					"internalType": "bool",
					"name": "",
					"type": "bool"
				}
			],
			"stateMutability": "view",
			"type": "function"
		},
		{
			"inputs": [
				{
					"internalType": "uint256",
					"name": "",
					"type": "uint256"
				}
			],
			"name": "campaignCategories",
			"outputs": [
				{
					"internalType": "uint256",
					"name": "campaignCount",
					"type": "uint256"
				},
				{
					"internalType": "uint256",
					"name": "createdAt",
					"type": "uint256"
				},
				{
					"internalType": "uint256",
					"name": "updatedAt",
					"type": "uint256"
				},
				{
					"internalType": "bool",
					"name": "active",
					"type": "bool"
				},
				{
					"internalType": "bool",
					"name": "exists",
					"type": "bool"
				}
			],
			"stateMutability": "view",
			"type": "function"
		},
		{
			"inputs": [],
			"name": "campaignCount",
			"outputs": [
				{
					"internalType": "uint256",
					"name": "",
					"type": "uint256"
				}
			],
			"stateMutability": "view",
			"type": "function"
		},
		{
			"inputs": [],
			"name": "campaignFactoryAddress",
			"outputs": [
				{
					"internalType": "address",
					"name": "",
					"type": "address"
				}
			],
			"stateMutability": "view",
			"type": "function"
		},
		{
			"inputs": [],
			"name": "campaignImplementation",
			"outputs": [
				{
					"internalType": "address",
					"name": "",
					"type": "address"
				}
			],
			"stateMutability": "view",
			"type": "function"
		},
		{
			"inputs": [
				{
					"internalType": "uint256",
					"name": "",
					"type": "uint256"
				}
			],
			"name": "campaignRevenueFromCommissions",
			"outputs": [
				{
					"internalType": "uint256",
					"name": "",
					"type": "uint256"
				}
			],
			"stateMutability": "view",
			"type": "function"
		},
		{
			"inputs": [
				{
					"internalType": "uint256",
					"name": "",
					"type": "uint256"
				}
			],
			"name": "campaignRevenueFromFeatures",
			"outputs": [
				{
					"internalType": "uint256",
					"name": "",
					"type": "uint256"
				}
			],
			"stateMutability": "view",
			"type": "function"
		},
		{
			"inputs": [],
			"name": "campaignRewardsImplementation",
			"outputs": [
				{
					"internalType": "address",
					"name": "",
					"type": "address"
				}
			],
			"stateMutability": "view",
			"type": "function"
		},
		{
			"inputs": [
				{
					"internalType": "address",
					"name": "",
					"type": "address"
				}
			],
			"name": "campaignToID",
			"outputs": [
				{
					"internalType": "uint256",
					"name": "",
					"type": "uint256"
				}
			],
			"stateMutability": "view",
			"type": "function"
		},
		{
			"inputs": [
				{
					"internalType": "address",
					"name": "",
					"type": "address"
				}
			],
			"name": "campaignToOwner",
			"outputs": [
				{
					"internalType": "address",
					"name": "",
					"type": "address"
				}
			],
			"stateMutability": "view",
			"type": "function"
		},
		{
			"inputs": [
				{
					"internalType": "string",
					"name": "",
					"type": "string"
				}
			],
			"name": "campaignTransactionConfig",
			"outputs": [
				{
					"internalType": "uint256",
					"name": "",
					"type": "uint256"
				}
			],
			"stateMutability": "view",
			"type": "function"
		},
		{
			"inputs": [
				{
					"internalType": "uint256",
					"name": "",
					"type": "uint256"
				}
			],
			"name": "campaignTransactionConfigList",
			"outputs": [
				{
					"internalType": "string",
					"name": "",
					"type": "string"
				}
			],
			"stateMutability": "view",
			"type": "function"
		},
		{
			"inputs": [
				{
					"internalType": "address",
					"name": "_user",
					"type": "address"
				}
			],
			"name": "canManageCampaigns",
			"outputs": [
				{
					"internalType": "bool",
					"name": "",
					"type": "bool"
				}
			],
			"stateMutability": "view",
			"type": "function"
		},
		{
			"inputs": [
				{
					"internalType": "uint256",
					"name": "",
					"type": "uint256"
				}
			],
			"name": "categoryCommission",
			"outputs": [
				{
					"internalType": "uint256",
					"name": "",
					"type": "uint256"
				}
			],
			"stateMutability": "view",
			"type": "function"
		},
		{
			"inputs": [],
			"name": "categoryCount",
			"outputs": [
				{
					"internalType": "uint256",
					"name": "",
					"type": "uint256"
				}
			],
			"stateMutability": "view",
			"type": "function"
		},
		{
			"inputs": [
				{
					"internalType": "uint256",
					"name": "_categoryId",
					"type": "uint256"
				}
			],
			"name": "createCampaign",
			"outputs": [],
			"stateMutability": "nonpayable",
			"type": "function"
		},
		{
			"inputs": [
				{
					"internalType": "bool",
					"name": "_active",
					"type": "bool"
				}
			],
			"name": "createCategory",
			"outputs": [],
			"stateMutability": "nonpayable",
			"type": "function"
		},
		{
			"inputs": [
				{
					"internalType": "uint256",
					"name": "_cost",
					"type": "uint256"
				},
				{
					"internalType": "uint256",
					"name": "_time",
					"type": "uint256"
				}
			],
			"name": "createFeaturePackage",
			"outputs": [],
			"stateMutability": "nonpayable",
			"type": "function"
		},
		{
			"inputs": [
				{
					"internalType": "uint256",
					"name": "",
					"type": "uint256"
				}
			],
			"name": "deployedCampaigns",
			"outputs": [
				{
					"internalType": "address",
					"name": "campaign",
					"type": "address"
				},
				{
					"internalType": "address",
					"name": "campaignRewards",
					"type": "address"
				},
				{
					"internalType": "address",
					"name": "owner",
					"type": "address"
				},
				{
					"internalType": "uint256",
					"name": "createdAt",
					"type": "uint256"
				},
				{
					"internalType": "uint256",
					"name": "updatedAt",
					"type": "uint256"
				},
				{
					"internalType": "uint256",
					"name": "category",
					"type": "uint256"
				},
				{
					"internalType": "uint256",
					"name": "featureFor",
					"type": "uint256"
				},
				{
					"internalType": "bool",
					"name": "active",
					"type": "bool"
				},
				{
					"internalType": "bool",
					"name": "approved",
					"type": "bool"
				},
				{
					"internalType": "bool",
					"name": "exists",
					"type": "bool"
				}
			],
			"stateMutability": "view",
			"type": "function"
		},
		{
			"inputs": [
				{
					"internalType": "uint256",
					"name": "_packageId",
					"type": "uint256"
				}
			],
			"name": "destroyFeaturedPackage",
			"outputs": [],
			"stateMutability": "nonpayable",
			"type": "function"
		},
		{
			"inputs": [
				{
					"internalType": "uint256",
					"name": "_userId",
					"type": "uint256"
				}
			],
			"name": "destroyUser",
			"outputs": [],
			"stateMutability": "nonpayable",
			"type": "function"
		},
		{
			"inputs": [
				{
					"internalType": "uint256",
					"name": "_campaignId",
					"type": "uint256"
				}
			],
			"name": "disableCampaignApproval",
			"outputs": [],
			"stateMutability": "nonpayable",
			"type": "function"
		},
		{
			"inputs": [],
			"name": "factoryRevenue",
			"outputs": [
				{
					"internalType": "uint256",
					"name": "",
					"type": "uint256"
				}
			],
			"stateMutability": "view",
			"type": "function"
		},
		{
			"inputs": [],
			"name": "factoryWallet",
			"outputs": [
				{
					"internalType": "address payable",
					"name": "",
					"type": "address"
				}
			],
			"stateMutability": "view",
			"type": "function"
		},
		{
			"inputs": [
				{
					"internalType": "uint256",
					"name": "_campaignId",
					"type": "uint256"
				},
				{
					"internalType": "uint256",
					"name": "_featurePackageId",
					"type": "uint256"
				},
				{
					"internalType": "address",
					"name": "_token",
					"type": "address"
				}
			],
			"name": "featureCampaign",
			"outputs": [],
			"stateMutability": "payable",
			"type": "function"
		},
		{
			"inputs": [],
			"name": "featurePackageCount",
			"outputs": [
				{
					"internalType": "uint256",
					"name": "",
					"type": "uint256"
				}
			],
			"stateMutability": "view",
			"type": "function"
		},
		{
			"inputs": [
				{
					"internalType": "uint256",
					"name": "",
					"type": "uint256"
				}
			],
			"name": "featurePackages",
			"outputs": [
				{
					"internalType": "uint256",
					"name": "createdAt",
					"type": "uint256"
				},
				{
					"internalType": "uint256",
					"name": "updatedAt",
					"type": "uint256"
				},
				{
					"internalType": "uint256",
					"name": "time",
					"type": "uint256"
				},
				{
					"internalType": "uint256",
					"name": "cost",
					"type": "uint256"
				},
				{
					"internalType": "bool",
					"name": "exists",
					"type": "bool"
				}
			],
			"stateMutability": "view",
			"type": "function"
		},
		{
			"inputs": [
				{
					"internalType": "uint256",
					"name": "",
					"type": "uint256"
				}
			],
			"name": "featuredCampaignIsPaused",
			"outputs": [
				{
					"internalType": "bool",
					"name": "",
					"type": "bool"
				}
			],
			"stateMutability": "view",
			"type": "function"
		},
		{
			"inputs": [
				{
					"internalType": "bytes32",
					"name": "role",
					"type": "bytes32"
				}
			],
			"name": "getRoleAdmin",
			"outputs": [
				{
					"internalType": "bytes32",
					"name": "",
					"type": "bytes32"
				}
			],
			"stateMutability": "view",
			"type": "function"
		},
		{
			"inputs": [
				{
					"internalType": "bytes32",
					"name": "role",
					"type": "bytes32"
				},
				{
					"internalType": "address",
					"name": "account",
					"type": "address"
				}
			],
			"name": "grantRole",
			"outputs": [],
			"stateMutability": "nonpayable",
			"type": "function"
		},
		{
			"inputs": [
				{
					"internalType": "bytes32",
					"name": "role",
					"type": "bytes32"
				},
				{
					"internalType": "address",
					"name": "account",
					"type": "address"
				}
			],
			"name": "hasRole",
			"outputs": [
				{
					"internalType": "bool",
					"name": "",
					"type": "bool"
				}
			],
			"stateMutability": "view",
			"type": "function"
		},
		{
			"inputs": [
				{
					"internalType": "uint256",
					"name": "_campaignId",
					"type": "uint256"
				},
				{
					"internalType": "uint256",
					"name": "_newCategoryId",
					"type": "uint256"
				}
			],
			"name": "modifyCampaignCategory",
			"outputs": [],
			"stateMutability": "nonpayable",
			"type": "function"
		},
		{
			"inputs": [
				{
					"internalType": "uint256",
					"name": "_categoryId",
					"type": "uint256"
				},
				{
					"internalType": "bool",
					"name": "_active",
					"type": "bool"
				}
			],
			"name": "modifyCategory",
			"outputs": [],
			"stateMutability": "nonpayable",
			"type": "function"
		},
		{
			"inputs": [
				{
					"internalType": "uint256",
					"name": "_packageId",
					"type": "uint256"
				},
				{
					"internalType": "uint256",
					"name": "_cost",
					"type": "uint256"
				},
				{
					"internalType": "uint256",
					"name": "_time",
					"type": "uint256"
				}
			],
			"name": "modifyFeaturedPackage",
			"outputs": [],
			"stateMutability": "nonpayable",
			"type": "function"
		},
		{
			"inputs": [],
			"name": "pauseCampaign",
			"outputs": [],
			"stateMutability": "nonpayable",
			"type": "function"
		},
		{
			"inputs": [
				{
					"internalType": "uint256",
					"name": "_campaignId",
					"type": "uint256"
				}
			],
			"name": "pauseCampaignFeatured",
			"outputs": [],
			"stateMutability": "nonpayable",
			"type": "function"
		},
		{
			"inputs": [],
			"name": "paused",
			"outputs": [
				{
					"internalType": "bool",
					"name": "",
					"type": "bool"
				}
			],
			"stateMutability": "view",
			"type": "function"
		},
		{
			"inputs": [
				{
					"internalType": "uint256",
					"name": "",
					"type": "uint256"
				}
			],
			"name": "pausedFeaturedCampaignTimeLeft",
			"outputs": [
				{
					"internalType": "uint256",
					"name": "",
					"type": "uint256"
				}
			],
			"stateMutability": "view",
			"type": "function"
		},
		{
			"inputs": [
				{
					"internalType": "contract Campaign",
					"name": "_campaign",
					"type": "address"
				},
				{
					"internalType": "uint256",
					"name": "_amount",
					"type": "uint256"
				}
			],
			"name": "receiveCampaignCommission",
			"outputs": [],
			"stateMutability": "nonpayable",
			"type": "function"
		},
		{
			"inputs": [
				{
					"internalType": "address",
					"name": "_account",
					"type": "address"
				},
				{
					"internalType": "bytes32",
					"name": "_role",
					"type": "bytes32"
				}
			],
			"name": "removeRole",
			"outputs": [],
			"stateMutability": "nonpayable",
			"type": "function"
		},
		{
			"inputs": [
				{
					"internalType": "uint256",
					"name": "_tokenId",
					"type": "uint256"
				},
				{
					"internalType": "address",
					"name": "_token",
					"type": "address"
				}
			],
			"name": "removeToken",
			"outputs": [],
			"stateMutability": "nonpayable",
			"type": "function"
		},
		{
			"inputs": [],
			"name": "renounceAdmin",
			"outputs": [],
			"stateMutability": "nonpayable",
			"type": "function"
		},
		{
			"inputs": [
				{
					"internalType": "bytes32",
					"name": "role",
					"type": "bytes32"
				},
				{
					"internalType": "address",
					"name": "account",
					"type": "address"
				}
			],
			"name": "renounceRole",
			"outputs": [],
			"stateMutability": "nonpayable",
			"type": "function"
		},
		{
			"inputs": [
				{
					"internalType": "bytes32",
					"name": "role",
					"type": "bytes32"
				},
				{
					"internalType": "address",
					"name": "account",
					"type": "address"
				}
			],
			"name": "revokeRole",
			"outputs": [],
			"stateMutability": "nonpayable",
			"type": "function"
		},
		{
			"inputs": [],
			"name": "root",
			"outputs": [
				{
					"internalType": "address",
					"name": "",
					"type": "address"
				}
			],
			"stateMutability": "view",
			"type": "function"
		},
		{
			"inputs": [
				{
					"internalType": "string",
					"name": "_prop",
					"type": "string"
				},
				{
					"internalType": "uint256",
					"name": "_value",
					"type": "uint256"
				}
			],
			"name": "setCampaignTransactionConfig",
			"outputs": [],
			"stateMutability": "nonpayable",
			"type": "function"
		},
		{
			"inputs": [
				{
					"internalType": "uint256",
					"name": "_categoryId",
					"type": "uint256"
				},
				{
					"internalType": "uint256",
					"name": "_numerator",
					"type": "uint256"
				},
				{
					"internalType": "uint256",
					"name": "_denominator",
					"type": "uint256"
				}
			],
			"name": "setCategoryCommission",
			"outputs": [],
			"stateMutability": "nonpayable",
			"type": "function"
		},
		{
			"inputs": [
				{
					"internalType": "uint256",
					"name": "_numerator",
					"type": "uint256"
				},
				{
					"internalType": "uint256",
					"name": "_denominator",
					"type": "uint256"
				}
			],
			"name": "setDefaultCommission",
			"outputs": [],
			"stateMutability": "nonpayable",
			"type": "function"
		},
		{
			"inputs": [
				{
					"internalType": "address payable",
					"name": "_wallet",
					"type": "address"
				},
				{
					"internalType": "contract Campaign",
					"name": "_campaignImplementation",
					"type": "address"
				},
				{
					"internalType": "contract CampaignRewards",
					"name": "_campaignRewardsImplementation",
					"type": "address"
				}
			],
			"name": "setFactoryConfig",
			"outputs": [],
			"stateMutability": "nonpayable",
			"type": "function"
		},
		{
			"inputs": [],
			"name": "signUp",
			"outputs": [],
			"stateMutability": "nonpayable",
			"type": "function"
		},
		{
			"inputs": [
				{
					"internalType": "bytes4",
					"name": "interfaceId",
					"type": "bytes4"
				}
			],
			"name": "supportsInterface",
			"outputs": [
				{
					"internalType": "bool",
					"name": "",
					"type": "bool"
				}
			],
			"stateMutability": "view",
			"type": "function"
		},
		{
			"inputs": [
				{
					"internalType": "address",
					"name": "_token",
					"type": "address"
				},
				{
					"internalType": "bool",
					"name": "_state",
					"type": "bool"
				}
			],
			"name": "toggleAcceptedToken",
			"outputs": [],
			"stateMutability": "nonpayable",
			"type": "function"
		},
		{
			"inputs": [
				{
					"internalType": "uint256",
					"name": "_campaignId",
					"type": "uint256"
				},
				{
					"internalType": "bool",
					"name": "_active",
					"type": "bool"
				}
			],
			"name": "toggleCampaignActive",
			"outputs": [],
			"stateMutability": "nonpayable",
			"type": "function"
		},
		{
			"inputs": [
				{
					"internalType": "uint256",
					"name": "_campaignId",
					"type": "uint256"
				},
				{
					"internalType": "bool",
					"name": "_approval",
					"type": "bool"
				}
			],
			"name": "toggleCampaignApproval",
			"outputs": [],
			"stateMutability": "nonpayable",
			"type": "function"
		},
		{
			"inputs": [
				{
					"internalType": "uint256",
					"name": "_userId",
					"type": "uint256"
				},
				{
					"internalType": "bool",
					"name": "_approval",
					"type": "bool"
				}
			],
			"name": "toggleUserApproval",
			"outputs": [],
			"stateMutability": "nonpayable",
			"type": "function"
		},
		{
			"inputs": [
				{
					"internalType": "address",
					"name": "",
					"type": "address"
				}
			],
			"name": "tokenInList",
			"outputs": [
				{
					"internalType": "bool",
					"name": "",
					"type": "bool"
				}
			],
			"stateMutability": "view",
			"type": "function"
		},
		{
			"inputs": [
				{
					"internalType": "uint256",
					"name": "",
					"type": "uint256"
				}
			],
			"name": "tokenList",
			"outputs": [
				{
					"internalType": "address",
					"name": "",
					"type": "address"
				}
			],
			"stateMutability": "view",
			"type": "function"
		},
		{
			"inputs": [
				{
					"internalType": "address",
					"name": "",
					"type": "address"
				}
			],
			"name": "tokensApproved",
			"outputs": [
				{
					"internalType": "bool",
					"name": "",
					"type": "bool"
				}
			],
			"stateMutability": "view",
			"type": "function"
		},
		{
			"inputs": [],
			"name": "unpauseCampaign",
			"outputs": [],
			"stateMutability": "nonpayable",
			"type": "function"
		},
		{
			"inputs": [
				{
					"internalType": "uint256",
					"name": "_campaignId",
					"type": "uint256"
				}
			],
			"name": "unpauseCampaignFeatured",
			"outputs": [],
			"stateMutability": "nonpayable",
			"type": "function"
		},
		{
			"inputs": [],
			"name": "userCount",
			"outputs": [
				{
					"internalType": "uint256",
					"name": "",
					"type": "uint256"
				}
			],
			"stateMutability": "view",
			"type": "function"
		},
		{
			"inputs": [
				{
					"internalType": "address",
					"name": "",
					"type": "address"
				}
			],
			"name": "userID",
			"outputs": [
				{
					"internalType": "uint256",
					"name": "",
					"type": "uint256"
				}
			],
			"stateMutability": "view",
			"type": "function"
		},
		{
			"inputs": [
				{
					"internalType": "uint256",
					"name": "",
					"type": "uint256"
				}
			],
			"name": "users",
			"outputs": [
				{
					"internalType": "address",
					"name": "userAddress",
					"type": "address"
				},
				{
					"internalType": "uint256",
					"name": "joined",
					"type": "uint256"
				},
				{
					"internalType": "uint256",
					"name": "updatedAt",
					"type": "uint256"
				},
				{
					"internalType": "bool",
					"name": "verified",
					"type": "bool"
				},
				{
					"internalType": "bool",
					"name": "exists",
					"type": "bool"
				}
			],
			"stateMutability": "view",
			"type": "function"
		}
	]
}