{
	"data": {
		"bytecode": {
			"linkReferences": {},
			"object": "608060405234801561001057600080fd5b506148e0806100206000396000f3fe6080604052600436106104265760003560e01c806391d1485411610229578063bf96ae631161012e578063d5b6c20e116100b6578063e8147c691161007a578063e8147c6914610dac578063ebf0c71714610dcc578063eda7794e14610dec578063f2e9b87914610e1a578063f7878c6914610e3a57600080fd5b8063d5b6c20e14610d10578063dc1a10c014610d30578063de4e420114610d50578063df46e21e14610d67578063dfef1f1f14610d9557600080fd5b8063ca68dfe4116100fd578063ca68dfe414610c70578063cf8a84d014610c90578063cfa4083014610cb0578063d48bfca714610cd0578063d547741f14610cf057600080fd5b8063bf96ae6314610bf6578063c5549cc014610c0b578063c6c323fc14610c22578063c9dc36fb14610c5057600080fd5b8063a3303a75116101b1578063b1bba29b11610180578063b1bba29b14610b3f578063b30326db14610b56578063b444bba514610b76578063b6e33abf14610b8c578063bc3d5a3014610bd657600080fd5b8063a3303a7514610aae578063a55b3b3114610ace578063a73f7f8a14610aee578063a854274014610b0e57600080fd5b80639ee25ae4116101f85780639ee25ae414610a095780639ff8466214610a20578063a174743a14610a40578063a217fddf14610a77578063a313431914610a8c57600080fd5b806391d148541461098857806396a75664146109a857806398f11bce146109bb5780639ead7222146109e957600080fd5b806336568abe1161032f5780636219fe3d116102b75780636977aa34116102865780636977aa341461090e5780637274e30d1461092557806381994d041461093c57806384f775771461095c5780638bad0c0a1461097357600080fd5b80636219fe3d1461086557806362a6e0651461089657806367480d35146108ce5780636853920e146108ee57600080fd5b80634f9de6e2116102fe5780634f9de6e21461079157806350450930146107b3578063513b378b146107e15780635c975abb146108015780635fd0b69f1461081957600080fd5b806336568abe146106d9578063365b98b2146106f95780633d693d1c1461074f57806348b30e351461076f57600080fd5b80631c8e541b116103b257806324ba73a21161038157806324ba73a2146105ed5780632be32dbb1461060d5780632f2ff15d14610624578063339d50a5146106445780633523100c146106b957600080fd5b80631c8e541b1461055757806320966f221461056c5780632188497e1461059d578063248a9ca3146105bd57600080fd5b806308142b85116103f957806308142b85146104be578063088821b6146104d4578063092093d8146104f45780630d10f3b5146105145780631aa2f9d71461052957600080fd5b806301ffc9a71461042b578063035115741461046057806304697b341461048557806307973ccf146104a7575b600080fd5b34801561043757600080fd5b5061044b61044636600461457f565b610e5a565b60405190151581526020015b60405180910390f35b34801561046c57600080fd5b506104776101045481565b604051908152602001610457565b34801561049157600080fd5b506104a56104a03660046143c6565b610e91565b005b3480156104b357600080fd5b506104776101165481565b3480156104ca57600080fd5b5061047760ff5481565b3480156104e057600080fd5b506104a56104ef3660046145dd565b611082565b34801561050057600080fd5b506104a561050f3660046145a7565b6110f3565b34801561052057600080fd5b506104a5611246565b34801561053557600080fd5b50610477610544366004614543565b6101126020526000908152604090205481565b34801561056357600080fd5b506104a5611287565b34801561057857600080fd5b5061044b6105873660046143c6565b61010a6020526000908152604090205460ff1681565b3480156105a957600080fd5b506104a56105b8366004614543565b6112c5565b3480156105c957600080fd5b506104776105d8366004614543565b60009081526065602052604090206001015490565b3480156105f957600080fd5b506104a561060836600461447b565b6113ce565b34801561061957600080fd5b506104776101145481565b34801561063057600080fd5b506104a561063f36600461455b565b611434565b34801561065057600080fd5b5061066461065f366004614543565b61145f565b604080516001600160a01b039a8b1681529990981660208a0152968801959095526060870193909352608086019190915260a0850152151560c0840152151560e0830152151561010082015261012001610457565b3480156106c557600080fd5b506104a56106d4366004614543565b6114d2565b3480156106e557600080fd5b506104a56106f436600461455b565b611604565b34801561070557600080fd5b50610719610714366004614543565b61167e565b604080516001600160a01b039096168652602086019490945292840191909152151560608301521515608082015260a001610457565b34801561075b57600080fd5b506104a561076a366004614636565b6116cf565b34801561077b57600080fd5b5061047760008051602061486b83398151915281565b34801561079d57600080fd5b5061047760008051602061488b83398151915281565b3480156107bf57600080fd5b506104776107ce366004614543565b61010b6020526000908152604090205481565b3480156107ed57600080fd5b506104a56107fc3660046143c6565b61182b565b34801561080d57600080fd5b5060975460ff1661044b565b34801561082557600080fd5b50610839610834366004614543565b611a69565b60408051958652602086019490945292840191909152151560608301521515608082015260a001610457565b34801561087157600080fd5b5061044b610880366004614543565b6101116020526000908152604090205460ff1681565b3480156108a257600080fd5b5060fd546108b6906001600160a01b031681565b6040516001600160a01b039091168152602001610457565b3480156108da57600080fd5b506104a56108e93660046144de565b611ab0565b3480156108fa57600080fd5b506104a56109093660046144b3565b611c42565b34801561091a57600080fd5b506104776101005481565b34801561093157600080fd5b5061047761010e5481565b34801561094857600080fd5b5060fc546108b6906001600160a01b031681565b34801561096857600080fd5b506104776101015481565b34801561097f57600080fd5b506104a5611c60565b34801561099457600080fd5b5061044b6109a336600461455b565b611c6b565b6104a56109b63660046145fe565b611c96565b3480156109c757600080fd5b506104776109d6366004614543565b6101086020526000908152604090205481565b3480156109f557600080fd5b506108b6610a04366004614543565b612103565b348015610a1557600080fd5b506104776101065481565b348015610a2c57600080fd5b506104a5610a3b366004614543565b61212e565b348015610a4c57600080fd5b506108b6610a5b3660046143c6565b61010f602052600090815260409020546001600160a01b031681565b348015610a8357600080fd5b50610477600081565b348015610a9857600080fd5b5061047760008051602061484b83398151915281565b348015610aba57600080fd5b506104a5610ac9366004614543565b612226565b348015610ada57600080fd5b506104a5610ae9366004614543565b612678565b348015610afa57600080fd5b506104a5610b093660046144b3565b6128be565b348015610b1a57600080fd5b5061044b610b293660046143c6565b6101096020526000908152604090205460ff1681565b348015610b4b57600080fd5b506104776101195481565b348015610b6257600080fd5b506104a5610b7136600461450b565b6128dc565b348015610b8257600080fd5b5061047760fe5481565b348015610b9857600080fd5b50610bac610ba7366004614543565b612a76565b6040805195865260208601949094529284019190915260608301521515608082015260a001610457565b348015610be257600080fd5b506104a5610bf1366004614543565b612abb565b348015610c0257600080fd5b506104a5612cf4565b348015610c1757600080fd5b506104776101035481565b348015610c2e57600080fd5b50610477610c3d3660046143c6565b6101106020526000908152604090205481565b348015610c5c57600080fd5b506104a5610c6b3660046145a7565b612e9b565b348015610c7c57600080fd5b506104a5610c8b3660046145dd565b612fe2565b348015610c9c57600080fd5b506104a5610cab366004614543565b6132df565b348015610cbc57600080fd5b506104a5610ccb3660046145a7565b6133f9565b348015610cdc57600080fd5b506104a5610ceb3660046143c6565b61353f565b348015610cfc57600080fd5b506104a5610d0b36600461455b565b6135e3565b348015610d1c57600080fd5b506104a5610d2b3660046145a7565b613609565b348015610d3c57600080fd5b506104a5610d4b3660046145dd565b6137b8565b348015610d5c57600080fd5b506104776101025481565b348015610d7357600080fd5b50610477610d82366004614543565b61010c6020526000908152604090205481565b348015610da157600080fd5b506104776101055481565b348015610db857600080fd5b506104a5610dc73660046145cb565b613956565b348015610dd857600080fd5b5060fb546108b6906001600160a01b031681565b348015610df857600080fd5b50610477610e073660046143c6565b6101176020526000908152604090205481565b348015610e2657600080fd5b506104a5610e353660046143fe565b613b54565b348015610e4657600080fd5b5061044b610e553660046143c6565b613bed565b60006001600160e01b03198216637965db0b60e01b1480610e8b57506301ffc9a760e01b6001600160e01b03198316145b92915050565b600054610100900460ff1680610eaa575060005460ff16155b610f125760405162461bcd60e51b815260206004820152602e60248201527f496e697469616c697a61626c653a20636f6e747261637420697320616c72656160448201526d191e481a5b9a5d1a585b1a5e995960921b60648201526084015b60405180910390fd5b600054610100900460ff16158015610f34576000805461ffff19166101011790555b6001600160a01b038216610f4757600080fd5b60fb8054336001600160a01b0319918216811790925560fc80549091166001600160a01b0385161790556101f460fe55600360ff5562093a80610102556201518061010355610fa0610100556503a35294400061010155610faa90600090613c07565b60fb54610fcf9060008051602061484b833981519152906001600160a01b0316613c07565b60fb54610ff49060008051602061488b833981519152906001600160a01b0316613c07565b60fb546110199060008051602061486b833981519152906001600160a01b0316613c07565b61103260008051602061484b8339815191526000613c11565b61104b60008051602061488b8339815191526000613c11565b61106460008051602061486b8339815191526000613c11565b61106c612cf4565b801561107e576000805461ff00191690555b5050565b61108d600033611c6b565b61109657600080fd5b61011382815481106110b857634e487b7160e01b600052603260045260246000fd5b906000526020600020906004020160030160019054906101000a900460ff166110e057600080fd5b6000918252610108602052604090912055565b60008051602061486b83398151915261110c8133611c6b565b61111557600080fd5b60975460ff16156111385760405162461bcd60e51b8152600401610f0990614753565b610115838154811061115a57634e487b7160e01b600052603260045260246000fd5b906000526020600020906004020160030160019054906101000a900460ff1661118257600080fd5b8161011584815481106111a557634e487b7160e01b600052603260045260246000fd5b906000526020600020906004020160030160006101000a81548160ff0219169083151502179055504261011584815481106111f057634e487b7160e01b600052603260045260246000fd5b906000526020600020906004020160020181905550827ff6d4cc61c27bf15b63009a422974ee13173b39d8d6fd4c612b7fa052b881508d83604051611239911515815260200190565b60405180910390a2505050565b60975460ff16156112695760405162461bcd60e51b8152600401610f0990614753565b611274600033611c6b565b61127d57600080fd5b611285613c65565b565b60975460ff166112a95760405162461bcd60e51b8152600401610f0990614725565b6112b4600033611c6b565b6112bd57600080fd5b611285613cda565b60008051602061484b8339815191526112de8133611c6b565b6112e757600080fd5b60975460ff161561130a5760405162461bcd60e51b8152600401610f0990614753565b610113828154811061132c57634e487b7160e01b600052603260045260246000fd5b906000526020600020906004020160030160019054906101000a900460ff1661135457600080fd5b610113828154811061137657634e487b7160e01b600052603260045260246000fd5b6000918252602082206004909102018181556001810182905560028101829055600301805461ffff1916905560405183917f8655e3bcdeed014f0450256d035679508fdbdabc14ae183d9115f8269b79792991a25050565b6113d9600033611c6b565b6113e257600080fd5b6001600160a01b0382166000908152610109602052604090205460ff1661140857600080fd5b6001600160a01b0391909116600090815261010a60205260409020805460ff1916911515919091179055565b6000828152606560205260409020600101546114508133613d2d565b61145a8383613d91565b505050565b61010d818154811061147057600080fd5b600091825260209091206007909102018054600182015460028301546003840154600485015460058601546006909601546001600160a01b039586169750949093169491939092919060ff808216916101008104821691620100009091041689565b60008051602061488b8339815191526114eb8133611c6b565b6114f457600080fd5b8161010d818154811061151757634e487b7160e01b600052603260045260246000fd5b906000526020600020906007020160060160029054906101000a900460ff1661153f57600080fd5b60975460ff16156115625760405162461bcd60e51b8152600401610f0990614753565b61010d838154811061158457634e487b7160e01b600052603260045260246000fd5b60009182526020822060079091020180546001600160a01b03199081168255600182018054909116905560028101829055600381018290556004810182905560058101829055600601805462ffffff1916905560405184917f95e5772afc2824be1c5259b0f29d08cd4bd894dbbdd4cf4746b77bd30aae9c2091a2505050565b6001600160a01b03811633146116745760405162461bcd60e51b815260206004820152602f60248201527f416363657373436f6e74726f6c3a2063616e206f6e6c792072656e6f756e636560448201526e103937b632b9903337b91039b2b63360891b6064820152608401610f09565b61107e8282613e17565b610115818154811061168f57600080fd5b600091825260209091206004909102018054600182015460028301546003909301546001600160a01b039092169350919060ff8082169161010090041685565b6116da600033611c6b565b6116e357600080fd5b60975460ff16156117065760405162461bcd60e51b8152600401610f0990614753565b610118838154811061172857634e487b7160e01b600052603260045260246000fd5b600091825260209091206004600590920201015460ff1661174857600080fd5b81610118848154811061176b57634e487b7160e01b600052603260045260246000fd5b9060005260206000209060050201600301819055508061011884815481106117a357634e487b7160e01b600052603260045260246000fd5b9060005260206000209060050201600201819055504261011884815481106117db57634e487b7160e01b600052603260045260246000fd5b906000526020600020906005020160010181905550827fe17359f0c01c6d890cbb90a58af61a3557264370de81bb9cf10e7e81bd66bd298383604051611239929190918252602082015260400190565b6001600160a01b0381166000908152610110602052604081205461010d80549192339261010f92908590811061187157634e487b7160e01b600052603260045260246000fd5b600091825260208083206007909202909101546001600160a01b03908116845290830193909352604090910190205416146118ab57600080fd5b6001600160a01b0382166000908152610110602052604090205461010d8054829081106118e857634e487b7160e01b600052603260045260246000fd5b906000526020600020906007020160060160029054906101000a900460ff1661191057600080fd5b33600081815261011760205260409020546101158054909190811061194557634e487b7160e01b600052603260045260246000fd5b600091825260209091206003600490920201015460ff1661196557600080fd5b60975460ff166119875760405162461bcd60e51b8152600401610f0990614725565b6001600160a01b0384166000908152610110602052604090205461010d8054829081106119c457634e487b7160e01b600052603260045260246000fd5b906000526020600020906007020160060160019054906101000a900460ff16158015611a26575061010d8181548110611a0d57634e487b7160e01b600052603260045260246000fd5b600091825260209091206006600790920201015460ff16155b611a2f57600080fd5b6040518181527ff2da6265155ad3f6e63d56e8127dc7d540b864cd554e3d8ce964ec1bdace87009060200160405180910390a15050505050565b6101138181548110611a7a57600080fd5b60009182526020909120600490910201805460018201546002830154600390930154919350919060ff8082169161010090041685565b60008051602061488b833981519152611ac98133611c6b565b611ad257600080fd5b60975460ff1615611af55760405162461bcd60e51b8152600401610f0990614753565b826001600160a01b0316826001600160a01b031663ebf0c7176040518163ffffffff1660e01b815260040160206040518083038186803b158015611b3857600080fd5b505afa158015611b4c573d6000803e3d6000fd5b505050506040513d601f19601f82011682018060405250810190611b7091906143e2565b6001600160a01b031614611b8357600080fd5b6001600160a01b0382166000908152610110602052604081205461010d80549091908110611bc157634e487b7160e01b600052603260045260246000fd5b60009182526020808320600160079093020191820180546001600160a01b03808a166001600160a01b031992831681179093554260038601558816855261010f9092526040808520805490931682179092559051919350917fb8f4731f98dd4e7d1a4c4ca65b7350599fc98635b37196f3c0a79b684d34030f91a250505050565b611c4d600033611c6b565b611c5657600080fd5b61107e81836135e3565b611285600033611604565b60009182526065602090815260408084206001600160a01b0393909316845291905290205460ff1690565b82336001600160a01b031661010f600061010d8481548110611cc857634e487b7160e01b600052603260045260246000fd5b600091825260208083206007909202909101546001600160a01b039081168452908301939093526040909101902054161480611d175750611d1760008051602061488b83398151915233611c6b565b611d2057600080fd5b8361010d8181548110611d4357634e487b7160e01b600052603260045260246000fd5b906000526020600020906007020160060160029054906101000a900460ff16611d6b57600080fd5b8461010d8181548110611d8e57634e487b7160e01b600052603260045260246000fd5b906000526020600020906007020160060160019054906101000a900460ff168015611dee575061010d8181548110611dd657634e487b7160e01b600052603260045260246000fd5b600091825260209091206006600790920201015460ff165b611df757600080fd5b336000818152610117602052604090205461011580549091908110611e2c57634e487b7160e01b600052603260045260246000fd5b600091825260209091206003600490920201015460ff16611e4c57600080fd5b60975460ff1615611e6f5760405162461bcd60e51b8152600401610f0990614753565b600260c9541415611ec25760405162461bcd60e51b815260206004820152601f60248201527f5265656e7472616e637947756172643a207265656e7472616e742063616c6c006044820152606401610f09565b600260c9556001600160a01b038516600090815261010a602052604090205460ff16611eed57600080fd5b6101188681548110611f0f57634e487b7160e01b600052603260045260246000fd5b600091825260209091206004600590920201015460ff16611f2f57600080fd5b6101188681548110611f5157634e487b7160e01b600052603260045260246000fd5b906000526020600020906005020160030154341015611f6f57600080fd5b61010654611f7d9034613e7e565b61010655600087815261010c6020526040902054611f9b9034613e7e565b600088815261010c6020526040902055610118805461203391429161202d91908a908110611fd957634e487b7160e01b600052603260045260246000fd5b90600052602060002090600502016002015461010d8b8154811061200d57634e487b7160e01b600052603260045260246000fd5b906000526020600020906007020160050154613e7e90919063ffffffff16565b90613e7e565b61010d888154811061205557634e487b7160e01b600052603260045260246000fd5b9060005260206000209060070201600501819055504261010d888154811061208d57634e487b7160e01b600052603260045260246000fd5b600091825260209091206003600790920201015560fc546120bb90869033906001600160a01b031634613e91565b6040805187815234602082015288917f3fe573245584c05c91c80efb913ec0d6fcfdd46dcffa3bc8c37dae9a5c1e5e50910160405180910390a25050600160c9555050505050565b610107818154811061211457600080fd5b6000918252602090912001546001600160a01b0316905081565b612139600033611c6b565b61214257600080fd5b60975460ff16156121655760405162461bcd60e51b8152600401610f0990614753565b610118818154811061218757634e487b7160e01b600052603260045260246000fd5b600091825260209091206004600590920201015460ff166121a757600080fd5b61011881815481106121c957634e487b7160e01b600052603260045260246000fd5b600091825260208220600590910201818155600181018290556002810182905560038101829055600401805460ff1916905560405182917f83e318f8f48c60fdae5872a0b72651cd9aa76dd35e278073a419af2a02fe748b91a250565b33600081815261011760205260409020546101158054909190811061225b57634e487b7160e01b600052603260045260246000fd5b600091825260209091206003600490920201015460ff1661227b57600080fd5b60975460ff161561229e5760405162461bcd60e51b8152600401610f0990614753565b61011382815481106122c057634e487b7160e01b600052603260045260246000fd5b906000526020600020906004020160030160019054906101000a900460ff1680156123205750610113828154811061230857634e487b7160e01b600052603260045260246000fd5b600091825260209091206003600490920201015460ff165b61232957600080fd5b60fd54600090612341906001600160a01b0316613ef1565b90506000604051806101200160405280836001600160a01b03168152602001336001600160a01b03168152602001428152602001600081526020018581526020016000815260200160001515815260200160001515815260200160011515815250905061010d81908060018154018082558091505060019003906000526020600020906007020160009091909190915060008201518160000160006101000a8154816001600160a01b0302191690836001600160a01b0316021790555060208201518160010160006101000a8154816001600160a01b0302191690836001600160a01b0316021790555060408201518160020155606082015181600301556080820151816004015560a0820151816005015560c08201518160060160006101000a81548160ff02191690831515021790555060e08201518160060160016101000a81548160ff0219169083151502179055506101008201518160060160026101000a81548160ff02191690831515021790555050503361010f6000846001600160a01b03166001600160a01b0316815260200190815260200160002060006101000a8154816001600160a01b0302191690836001600160a01b03160217905550600061251d600161010d80549050613f8e90919063ffffffff16565b6001600160a01b038416600090815261011060205260409020819055610113805491925061257e91600191908890811061256757634e487b7160e01b600052603260045260246000fd5b600091825260209091206004909102015490613e7e565b61011386815481106125a057634e487b7160e01b600052603260045260246000fd5b600091825260209091206004909102015561010e546125c0906001613e7e565b61010e55604051631488d77760e31b81523060048201523360248201526001600160a01b0384169063a446bbb890604401600060405180830381600087803b15801561260b57600080fd5b505af115801561261f573d6000803e3d6000fd5b505033600090815261011760209081526040918290205482519081529081018990528493507f748930993db163c72a6ba21b8924b56908a54b4030f8d99a23458a819f6358da9250015b60405180910390a25050505050565b80336001600160a01b031661010f600061010d84815481106126aa57634e487b7160e01b600052603260045260246000fd5b600091825260208083206007909202909101546001600160a01b0390811684529083019390935260409091019020541614806126f957506126f960008051602061488b83398151915233611c6b565b61270257600080fd5b8161010d818154811061272557634e487b7160e01b600052603260045260246000fd5b906000526020600020906007020160060160029054906101000a900460ff1661274d57600080fd5b33600081815261011760205260409020546101158054909190811061278257634e487b7160e01b600052603260045260246000fd5b600091825260209091206003600490920201015460ff166127a257600080fd5b60975460ff16156127c55760405162461bcd60e51b8152600401610f0990614753565b4261010d85815481106127e857634e487b7160e01b600052603260045260246000fd5b906000526020600020906007020160050154101561280557600080fd5b6000848152610111602052604090205460ff161561282257600080fd5b6128684261010d868154811061284857634e487b7160e01b600052603260045260246000fd5b906000526020600020906007020160050154613f8e90919063ffffffff16565b600085815261011260209081526040808320939093556101119052818120805460ff19166001179055905185917f82d28f000cd4c874884b2707c023c6520d6e816216b64db2c9dc841607fb1bc891a250505050565b6128c9600033611c6b565b6128d257600080fd5b61107e8183611434565b60008051602061484b8339815191526128f58133611c6b565b6128fe57600080fd5b60975460ff16156129215760405162461bcd60e51b8152600401610f0990614753565b6040805160a081018252600080825242602083019081529282018181528515156060840190815260016080850181815261011380548084018255955285517f1af827780c8eead77dc5a11451291f18043aa94313f832de8f85d1d7264809cc60049096029586015595517f1af827780c8eead77dc5a11451291f18043aa94313f832de8f85d1d7264809cd85015591517f1af827780c8eead77dc5a11451291f18043aa94313f832de8f85d1d7264809ce840155517f1af827780c8eead77dc5a11451291f18043aa94313f832de8f85d1d7264809cf9092018054945161ffff1990951692151561ff0019169290921761010094151594909402939093179055610114549091612a319190613e7e565b6101145561011354612a44906001613f8e565b60405184151581527fef8e5354aa4d7ec987c76ec8aa61eaaf4452bb146edd20fca8e52531b3dddbb890602001611239565b6101188181548110612a8757600080fd5b6000918252602090912060059091020180546001820154600283015460038401546004909401549294509092909160ff1685565b80336001600160a01b031661010f600061010d8481548110612aed57634e487b7160e01b600052603260045260246000fd5b600091825260208083206007909202909101546001600160a01b039081168452908301939093526040909101902054161480612b3c5750612b3c60008051602061488b83398151915233611c6b565b612b4557600080fd5b8161010d8181548110612b6857634e487b7160e01b600052603260045260246000fd5b906000526020600020906007020160060160029054906101000a900460ff16612b9057600080fd5b336000818152610117602052604090205461011580549091908110612bc557634e487b7160e01b600052603260045260246000fd5b600091825260209091206003600490920201015460ff16612be557600080fd5b60975460ff1615612c085760405162461bcd60e51b8152600401610f0990614753565b6000848152610111602052604090205460ff16612c2457600080fd5b600084815261011160209081526040808320805460ff1916905561011290915290205461010d8054612c709291908790811061200d57634e487b7160e01b600052603260045260246000fd5b61010d8581548110612c9257634e487b7160e01b600052603260045260246000fd5b6000918252602080832060079290920290910160050192909255858152610112825260408082208290555190815285917f927407ab4b40ffd5fb5377f8fbece3dc25b2b015996d2073ea0cb7d3d144501c91015b60405180910390a250505050565b60975460ff1615612d175760405162461bcd60e51b8152600401610f0990614753565b6040805160a0810182523381524260208201908152600092820183815260608301848152600160808501818152610115805480840182559781905295517f77886ee853a0f02c8259429c7bfca08679ca3ab8bdec2c3bd5cca8557e06493a600490980297880180546001600160a01b0319166001600160a01b0390921691909117905593517f77886ee853a0f02c8259429c7bfca08679ca3ab8bdec2c3bd5cca8557e06493b87015591517f77886ee853a0f02c8259429c7bfca08679ca3ab8bdec2c3bd5cca8557e06493c860155517f77886ee853a0f02c8259429c7bfca08679ca3ab8bdec2c3bd5cca8557e06493d9094018054925161ffff1990931694151561ff00191694909417610100921515929092029190911790925554612e3d91613f8e565b336000908152610117602052604090205561011654612e5d906001613e7e565b6101165561011554612e70906001613f8e565b6040517f27412bb19840b11057dee7c7019767312555c4497d8d4c2383fa6b7791bf014b90600090a2565b60008051602061488b833981519152612eb48133611c6b565b612ebd57600080fd5b8261010d8181548110612ee057634e487b7160e01b600052603260045260246000fd5b906000526020600020906007020160060160029054906101000a900460ff16612f0857600080fd5b60975460ff1615612f2b5760405162461bcd60e51b8152600401610f0990614753565b8261010d8581548110612f4e57634e487b7160e01b600052603260045260246000fd5b906000526020600020906007020160060160016101000a81548160ff0219169083151502179055504261010d8581548110612f9957634e487b7160e01b600052603260045260246000fd5b906000526020600020906007020160030181905550837fb19793156c2b66d3cdcada0ec63ea2961a44bf70901294973cc2f7848970634e84604051612ce6911515815260200190565b81336001600160a01b031661010f600061010d848154811061301457634e487b7160e01b600052603260045260246000fd5b600091825260208083206007909202909101546001600160a01b039081168452908301939093526040909101902054161480613063575061306360008051602061488b83398151915233611c6b565b61306c57600080fd5b8261010d818154811061308f57634e487b7160e01b600052603260045260246000fd5b906000526020600020906007020160060160029054906101000a900460ff166130b757600080fd5b60975460ff16156130da5760405162461bcd60e51b8152600401610f0990614753565b600061010d85815481106130fe57634e487b7160e01b600052603260045260246000fd5b90600052602060002090600702016004015490508381146132d857610113848154811061313b57634e487b7160e01b600052603260045260246000fd5b906000526020600020906004020160030160019054906101000a900460ff1661316357600080fd5b8361010d868154811061318657634e487b7160e01b600052603260045260246000fd5b9060005260206000209060070201600401819055506131d9600161011383815481106131c257634e487b7160e01b600052603260045260246000fd5b600091825260209091206004909102015490613f8e565b61011382815481106131fb57634e487b7160e01b600052603260045260246000fd5b9060005260206000209060040201600001819055506132376001610113868154811061256757634e487b7160e01b600052603260045260246000fd5b610113858154811061325957634e487b7160e01b600052603260045260246000fd5b9060005260206000209060040201600001819055504261010d868154811061329157634e487b7160e01b600052603260045260246000fd5b906000526020600020906007020160030181905550847f766a4f113e498f514dcf4973e7b53c52d3f831566f24a46d16b6a9e60f0dcaf18560405161266991815260200190565b5050505050565b60008051602061486b8339815191526132f88133611c6b565b61330157600080fd5b60975460ff16156133245760405162461bcd60e51b8152600401610f0990614753565b6000610115838154811061334857634e487b7160e01b600052603260045260246000fd5b906000526020600020906004020190508060030160019054906101000a900460ff1661337357600080fd5b610115838154811061339557634e487b7160e01b600052603260045260246000fd5b60009182526020822060049091020180546001600160a01b03191681556001810182905560028101829055600301805461ffff1916905560405184917fab24b62fd8ab41107c600afaa5e4d6e14f64f253a96e231e221809b6cc7c46a691a2505050565b60008051602061484b8339815191526134128133611c6b565b61341b57600080fd5b60975460ff161561343e5760405162461bcd60e51b8152600401610f0990614753565b610113838154811061346057634e487b7160e01b600052603260045260246000fd5b906000526020600020906004020160030160019054906101000a900460ff1661348857600080fd5b8161011384815481106134ab57634e487b7160e01b600052603260045260246000fd5b906000526020600020906004020160030160006101000a81548160ff0219169083151502179055504261011384815481106134f657634e487b7160e01b600052603260045260246000fd5b906000526020600020906004020160020181905550827f1da4183068786bd796a4c72678cf3791931cb770a2092ad635254877a940ab9e83604051611239911515815260200190565b61354a600033611c6b565b61355357600080fd5b6001600160a01b0381166000908152610109602052604090205460ff161561357a57600080fd5b610107805460018181019092557f47c4908e245f386bfc1825973249847f4053a761ddb4880ad63c323a7b5a2a250180546001600160a01b039093166001600160a01b03199093168317905560009182526101096020526040909120805460ff19169091179055565b6000828152606560205260409020600101546135ff8133613d2d565b61145a8383613e17565b81336001600160a01b031661010f600061010d848154811061363b57634e487b7160e01b600052603260045260246000fd5b600091825260208083206007909202909101546001600160a01b03908116845290830193909352604090910190205416148061368a575061368a60008051602061488b83398151915233611c6b565b61369357600080fd5b8261010d81815481106136b657634e487b7160e01b600052603260045260246000fd5b906000526020600020906007020160060160029054906101000a900460ff166136de57600080fd5b60975460ff16156137015760405162461bcd60e51b8152600401610f0990614753565b8261010d858154811061372457634e487b7160e01b600052603260045260246000fd5b906000526020600020906007020160060160006101000a81548160ff0219169083151502179055504261010d858154811061376f57634e487b7160e01b600052603260045260246000fd5b906000526020600020906007020160030181905550837f8e5684140bbc2280b632ddc33889d57f6105d80ad9b5e8042eea7ee2cdbf789584604051612ce6911515815260200190565b6137c3600033611c6b565b6137cc57600080fd5b60975460ff16156137ef5760405162461bcd60e51b8152600401610f0990614753565b6040805160a0810182524281526000602082018181529282018481526060830186815260016080850181815261011880548084018255955294517f98e7deb247cc158d01ecf635e1727d4c1ad65177ed51d3c365b299b8a5e12e2460059095029485015594517f98e7deb247cc158d01ecf635e1727d4c1ad65177ed51d3c365b299b8a5e12e2584015590517f98e7deb247cc158d01ecf635e1727d4c1ad65177ed51d3c365b299b8a5e12e26830155517f98e7deb247cc158d01ecf635e1727d4c1ad65177ed51d3c365b299b8a5e12e2782015590517f98e7deb247cc158d01ecf635e1727d4c1ad65177ed51d3c365b299b8a5e12e28909101805460ff19169115159190911790556101195461390691613e7e565b6101195561011854613919906001613f8e565b60408051848152602081018490527f1c879e94b1e18a1a756e3f54417588907394c58d3aa6a0cc5119e5fabc091bfc910160405180910390a25050565b6001600160a01b0381166000908152610110602052604081205461010d80549192339261010f92908590811061399c57634e487b7160e01b600052603260045260246000fd5b600091825260208083206007909202909101546001600160a01b03908116845290830193909352604090910190205416146139d657600080fd5b6001600160a01b0382166000908152610110602052604090205461010d805482908110613a1357634e487b7160e01b600052603260045260246000fd5b906000526020600020906007020160060160019054906101000a900460ff168015613a73575061010d8181548110613a5b57634e487b7160e01b600052603260045260246000fd5b600091825260209091206006600790920201015460ff165b613a7c57600080fd5b6001600160a01b0383166000908152610110602052604090205461010d805482908110613ab957634e487b7160e01b600052603260045260246000fd5b906000526020600020906007020160060160029054906101000a900460ff16613ae157600080fd5b6001600160a01b03841660009081526101106020908152604080832054835261010b909152902054613b139086613e7e565b6001600160a01b03851660009081526101106020908152604080832054835261010b90915290205561010654613b499086613e7e565b610106555050505050565b613b5f600033611c6b565b613b6857600080fd5b6001600160a01b038a1615801590613b8857506001600160a01b03891615155b613b9157600080fd5b60fc80546001600160a01b039b8c166001600160a01b03199182161790915560fd80549a909b1699169890981790985560fe9590955560ff93909355610102919091556101035561010055610101556101049190915561010555565b6000610e8b60008051602061488b83398151915283611c6b565b61107e8282613d91565b600082815260656020526040902060010154819060405184907fbd79b86ffe0ab8e8776151514217cd7cacd52c909f66475c3af44e129f0b00ff90600090a460009182526065602052604090912060010155565b60975460ff1615613c885760405162461bcd60e51b8152600401610f0990614753565b6097805460ff191660011790557f62e78cea01bee320cd4e420270b5ea74000d11b0c9f74754ebdbfc544b05a258613cbd3390565b6040516001600160a01b03909116815260200160405180910390a1565b60975460ff16613cfc5760405162461bcd60e51b8152600401610f0990614725565b6097805460ff191690557f5db9ee0a495bf2e6ff9c91a7834c1ba4fdd244a5e8aa4e537bd38aeae4b073aa33613cbd565b613d378282611c6b565b61107e57613d4f816001600160a01b03166014613f9a565b613d5a836020613f9a565b604051602001613d6b92919061467d565b60408051601f198184030181529082905262461bcd60e51b8252610f09916004016146f2565b613d9b8282611c6b565b61107e5760008281526065602090815260408083206001600160a01b03851684529091529020805460ff19166001179055613dd33390565b6001600160a01b0316816001600160a01b0316837f2f8788117e7eff1d82e926ec794901d17c78024a50270940304540a733656f0d60405160405180910390a45050565b613e218282611c6b565b1561107e5760008281526065602090815260408083206001600160a01b0385168085529252808320805460ff1916905551339285917ff6391f5c32d9c69d2a47ea670b442974b53935d1edc7fd64eb21e047a839171b9190a45050565b6000613e8a828461477d565b9392505050565b604080516001600160a01b0385811660248301528416604482015260648082018490528251808303909101815260849091019091526020810180516001600160e01b03166323b872dd60e01b179052613eeb90859061417c565b50505050565b6000604051733d602d80600a3d3981f3363d3d373d3d3d363d7360601b81528260601b60148201526e5af43d82803e903d91602b57fd5bf360881b60288201526037816000f09150506001600160a01b038116613f895760405162461bcd60e51b8152602060048201526016602482015275115490cc4c4d8dce8818dc99585d194819985a5b195960521b6044820152606401610f09565b919050565b6000613e8a82846147b4565b60606000613fa9836002614795565b613fb490600261477d565b67ffffffffffffffff811115613fda57634e487b7160e01b600052604160045260246000fd5b6040519080825280601f01601f191660200182016040528015614004576020820181803683370190505b509050600360fc1b8160008151811061402d57634e487b7160e01b600052603260045260246000fd5b60200101906001600160f81b031916908160001a905350600f60fb1b8160018151811061406a57634e487b7160e01b600052603260045260246000fd5b60200101906001600160f81b031916908160001a905350600061408e846002614795565b61409990600161477d565b90505b600181111561412d576f181899199a1a9b1b9c1cb0b131b232b360811b85600f16601081106140db57634e487b7160e01b600052603260045260246000fd5b1a60f81b8282815181106140ff57634e487b7160e01b600052603260045260246000fd5b60200101906001600160f81b031916908160001a90535060049490941c93614126816147f7565b905061409c565b508315613e8a5760405162461bcd60e51b815260206004820181905260248201527f537472696e67733a20686578206c656e67746820696e73756666696369656e746044820152606401610f09565b60006141d1826040518060400160405280602081526020017f5361666545524332303a206c6f772d6c6576656c2063616c6c206661696c6564815250856001600160a01b031661424e9092919063ffffffff16565b80519091501561145a57808060200190518101906141ef9190614527565b61145a5760405162461bcd60e51b815260206004820152602a60248201527f5361666545524332303a204552433230206f7065726174696f6e20646964206e6044820152691bdd081cdd58d8d9595960b21b6064820152608401610f09565b606061425d8484600085614265565b949350505050565b6060824710156142c65760405162461bcd60e51b815260206004820152602660248201527f416464726573733a20696e73756666696369656e742062616c616e636520666f6044820152651c8818d85b1b60d21b6064820152608401610f09565b843b6143145760405162461bcd60e51b815260206004820152601d60248201527f416464726573733a2063616c6c20746f206e6f6e2d636f6e74726163740000006044820152606401610f09565b600080866001600160a01b031685876040516143309190614661565b60006040518083038185875af1925050503d806000811461436d576040519150601f19603f3d011682016040523d82523d6000602084013e614372565b606091505b509150915061438282828661438d565b979650505050505050565b6060831561439c575081613e8a565b8251156143ac5782518084602001fd5b8160405162461bcd60e51b8152600401610f0991906146f2565b6000602082840312156143d7578081fd5b8135613e8a81614824565b6000602082840312156143f3578081fd5b8151613e8a81614824565b6000806000806000806000806000806101408b8d03121561441d578586fd5b8a3561442881614824565b995060208b013561443881614824565b999c999b505050506040880135976060810135976080820135975060a0820135965060c0820135955060e082013594506101008201359350610120909101359150565b6000806040838503121561448d578182fd5b823561449881614824565b915060208301356144a88161483c565b809150509250929050565b600080604083850312156144c5578182fd5b82356144d081614824565b946020939093013593505050565b600080604083850312156144f0578182fd5b82356144fb81614824565b915060208301356144a881614824565b60006020828403121561451c578081fd5b8135613e8a8161483c565b600060208284031215614538578081fd5b8151613e8a8161483c565b600060208284031215614554578081fd5b5035919050565b6000806040838503121561456d578182fd5b8235915060208301356144a881614824565b600060208284031215614590578081fd5b81356001600160e01b031981168114613e8a578182fd5b600080604083850312156145b9578182fd5b8235915060208301356144a88161483c565b6000806040838503121561456d578081fd5b600080604083850312156145ef578182fd5b50508035926020909101359150565b600080600060608486031215614612578081fd5b8335925060208401359150604084013561462b81614824565b809150509250925092565b60008060006060848603121561464a578081fd5b505081359360208301359350604090920135919050565b600082516146738184602087016147cb565b9190910192915050565b7f416363657373436f6e74726f6c3a206163636f756e74200000000000000000008152600083516146b58160178501602088016147cb565b7001034b99036b4b9b9b4b733903937b6329607d1b60179184019182015283516146e68160288401602088016147cb565b01602801949350505050565b60208152600082518060208401526147118160408501602087016147cb565b601f01601f19169190910160400192915050565b60208082526014908201527314185d5cd8589b194e881b9bdd081c185d5cd95960621b604082015260600190565b60208082526010908201526f14185d5cd8589b194e881c185d5cd95960821b604082015260600190565b600082198211156147905761479061480e565b500190565b60008160001904831182151516156147af576147af61480e565b500290565b6000828210156147c6576147c661480e565b500390565b60005b838110156147e65781810151838201526020016147ce565b83811115613eeb5750506000910152565b6000816148065761480661480e565b506000190190565b634e487b7160e01b600052601160045260246000fd5b6001600160a01b038116811461483957600080fd5b50565b801515811461483957600080fdfe2f48ac32db572e9fd979463d8692f03bd4eabb1f84bdfc70f736e3d2676cd74859c43de4b358bfa9c13f4bebb43cf699c69e54d2ce0694b006e9e1ac79c3c487b0d00cdca7af6ed7bd59bdc60d7090a56e20455c0a0ac7451ba6d10780ded9e3a2646970667358221220aae26b4c59448d049881ed5490706ad46f77a452239c3054abae93f49cc5cd1a64736f6c63430008040033",
			"opcodes": "PUSH1 0x80 PUSH1 0x40 MSTORE CALLVALUE DUP1 ISZERO PUSH2 0x10 JUMPI PUSH1 0x0 DUP1 REVERT JUMPDEST POP PUSH2 0x48E0 DUP1 PUSH2 0x20 PUSH1 0x0 CODECOPY PUSH1 0x0 RETURN INVALID PUSH1 0x80 PUSH1 0x40 MSTORE PUSH1 0x4 CALLDATASIZE LT PUSH2 0x426 JUMPI PUSH1 0x0 CALLDATALOAD PUSH1 0xE0 SHR DUP1 PUSH4 0x91D14854 GT PUSH2 0x229 JUMPI DUP1 PUSH4 0xBF96AE63 GT PUSH2 0x12E JUMPI DUP1 PUSH4 0xD5B6C20E GT PUSH2 0xB6 JUMPI DUP1 PUSH4 0xE8147C69 GT PUSH2 0x7A JUMPI DUP1 PUSH4 0xE8147C69 EQ PUSH2 0xDAC JUMPI DUP1 PUSH4 0xEBF0C717 EQ PUSH2 0xDCC JUMPI DUP1 PUSH4 0xEDA7794E EQ PUSH2 0xDEC JUMPI DUP1 PUSH4 0xF2E9B879 EQ PUSH2 0xE1A JUMPI DUP1 PUSH4 0xF7878C69 EQ PUSH2 0xE3A JUMPI PUSH1 0x0 DUP1 REVERT JUMPDEST DUP1 PUSH4 0xD5B6C20E EQ PUSH2 0xD10 JUMPI DUP1 PUSH4 0xDC1A10C0 EQ PUSH2 0xD30 JUMPI DUP1 PUSH4 0xDE4E4201 EQ PUSH2 0xD50 JUMPI DUP1 PUSH4 0xDF46E21E EQ PUSH2 0xD67 JUMPI DUP1 PUSH4 0xDFEF1F1F EQ PUSH2 0xD95 JUMPI PUSH1 0x0 DUP1 REVERT JUMPDEST DUP1 PUSH4 0xCA68DFE4 GT PUSH2 0xFD JUMPI DUP1 PUSH4 0xCA68DFE4 EQ PUSH2 0xC70 JUMPI DUP1 PUSH4 0xCF8A84D0 EQ PUSH2 0xC90 JUMPI DUP1 PUSH4 0xCFA40830 EQ PUSH2 0xCB0 JUMPI DUP1 PUSH4 0xD48BFCA7 EQ PUSH2 0xCD0 JUMPI DUP1 PUSH4 0xD547741F EQ PUSH2 0xCF0 JUMPI PUSH1 0x0 DUP1 REVERT JUMPDEST DUP1 PUSH4 0xBF96AE63 EQ PUSH2 0xBF6 JUMPI DUP1 PUSH4 0xC5549CC0 EQ PUSH2 0xC0B JUMPI DUP1 PUSH4 0xC6C323FC EQ PUSH2 0xC22 JUMPI DUP1 PUSH4 0xC9DC36FB EQ PUSH2 0xC50 JUMPI PUSH1 0x0 DUP1 REVERT JUMPDEST DUP1 PUSH4 0xA3303A75 GT PUSH2 0x1B1 JUMPI DUP1 PUSH4 0xB1BBA29B GT PUSH2 0x180 JUMPI DUP1 PUSH4 0xB1BBA29B EQ PUSH2 0xB3F JUMPI DUP1 PUSH4 0xB30326DB EQ PUSH2 0xB56 JUMPI DUP1 PUSH4 0xB444BBA5 EQ PUSH2 0xB76 JUMPI DUP1 PUSH4 0xB6E33ABF EQ PUSH2 0xB8C JUMPI DUP1 PUSH4 0xBC3D5A30 EQ PUSH2 0xBD6 JUMPI PUSH1 0x0 DUP1 REVERT JUMPDEST DUP1 PUSH4 0xA3303A75 EQ PUSH2 0xAAE JUMPI DUP1 PUSH4 0xA55B3B31 EQ PUSH2 0xACE JUMPI DUP1 PUSH4 0xA73F7F8A EQ PUSH2 0xAEE JUMPI DUP1 PUSH4 0xA8542740 EQ PUSH2 0xB0E JUMPI PUSH1 0x0 DUP1 REVERT JUMPDEST DUP1 PUSH4 0x9EE25AE4 GT PUSH2 0x1F8 JUMPI DUP1 PUSH4 0x9EE25AE4 EQ PUSH2 0xA09 JUMPI DUP1 PUSH4 0x9FF84662 EQ PUSH2 0xA20 JUMPI DUP1 PUSH4 0xA174743A EQ PUSH2 0xA40 JUMPI DUP1 PUSH4 0xA217FDDF EQ PUSH2 0xA77 JUMPI DUP1 PUSH4 0xA3134319 EQ PUSH2 0xA8C JUMPI PUSH1 0x0 DUP1 REVERT JUMPDEST DUP1 PUSH4 0x91D14854 EQ PUSH2 0x988 JUMPI DUP1 PUSH4 0x96A75664 EQ PUSH2 0x9A8 JUMPI DUP1 PUSH4 0x98F11BCE EQ PUSH2 0x9BB JUMPI DUP1 PUSH4 0x9EAD7222 EQ PUSH2 0x9E9 JUMPI PUSH1 0x0 DUP1 REVERT JUMPDEST DUP1 PUSH4 0x36568ABE GT PUSH2 0x32F JUMPI DUP1 PUSH4 0x6219FE3D GT PUSH2 0x2B7 JUMPI DUP1 PUSH4 0x6977AA34 GT PUSH2 0x286 JUMPI DUP1 PUSH4 0x6977AA34 EQ PUSH2 0x90E JUMPI DUP1 PUSH4 0x7274E30D EQ PUSH2 0x925 JUMPI DUP1 PUSH4 0x81994D04 EQ PUSH2 0x93C JUMPI DUP1 PUSH4 0x84F77577 EQ PUSH2 0x95C JUMPI DUP1 PUSH4 0x8BAD0C0A EQ PUSH2 0x973 JUMPI PUSH1 0x0 DUP1 REVERT JUMPDEST DUP1 PUSH4 0x6219FE3D EQ PUSH2 0x865 JUMPI DUP1 PUSH4 0x62A6E065 EQ PUSH2 0x896 JUMPI DUP1 PUSH4 0x67480D35 EQ PUSH2 0x8CE JUMPI DUP1 PUSH4 0x6853920E EQ PUSH2 0x8EE JUMPI PUSH1 0x0 DUP1 REVERT JUMPDEST DUP1 PUSH4 0x4F9DE6E2 GT PUSH2 0x2FE JUMPI DUP1 PUSH4 0x4F9DE6E2 EQ PUSH2 0x791 JUMPI DUP1 PUSH4 0x50450930 EQ PUSH2 0x7B3 JUMPI DUP1 PUSH4 0x513B378B EQ PUSH2 0x7E1 JUMPI DUP1 PUSH4 0x5C975ABB EQ PUSH2 0x801 JUMPI DUP1 PUSH4 0x5FD0B69F EQ PUSH2 0x819 JUMPI PUSH1 0x0 DUP1 REVERT JUMPDEST DUP1 PUSH4 0x36568ABE EQ PUSH2 0x6D9 JUMPI DUP1 PUSH4 0x365B98B2 EQ PUSH2 0x6F9 JUMPI DUP1 PUSH4 0x3D693D1C EQ PUSH2 0x74F JUMPI DUP1 PUSH4 0x48B30E35 EQ PUSH2 0x76F JUMPI PUSH1 0x0 DUP1 REVERT JUMPDEST DUP1 PUSH4 0x1C8E541B GT PUSH2 0x3B2 JUMPI DUP1 PUSH4 0x24BA73A2 GT PUSH2 0x381 JUMPI DUP1 PUSH4 0x24BA73A2 EQ PUSH2 0x5ED JUMPI DUP1 PUSH4 0x2BE32DBB EQ PUSH2 0x60D JUMPI DUP1 PUSH4 0x2F2FF15D EQ PUSH2 0x624 JUMPI DUP1 PUSH4 0x339D50A5 EQ PUSH2 0x644 JUMPI DUP1 PUSH4 0x3523100C EQ PUSH2 0x6B9 JUMPI PUSH1 0x0 DUP1 REVERT JUMPDEST DUP1 PUSH4 0x1C8E541B EQ PUSH2 0x557 JUMPI DUP1 PUSH4 0x20966F22 EQ PUSH2 0x56C JUMPI DUP1 PUSH4 0x2188497E EQ PUSH2 0x59D JUMPI DUP1 PUSH4 0x248A9CA3 EQ PUSH2 0x5BD JUMPI PUSH1 0x0 DUP1 REVERT JUMPDEST DUP1 PUSH4 0x8142B85 GT PUSH2 0x3F9 JUMPI DUP1 PUSH4 0x8142B85 EQ PUSH2 0x4BE JUMPI DUP1 PUSH4 0x88821B6 EQ PUSH2 0x4D4 JUMPI DUP1 PUSH4 0x92093D8 EQ PUSH2 0x4F4 JUMPI DUP1 PUSH4 0xD10F3B5 EQ PUSH2 0x514 JUMPI DUP1 PUSH4 0x1AA2F9D7 EQ PUSH2 0x529 JUMPI PUSH1 0x0 DUP1 REVERT JUMPDEST DUP1 PUSH4 0x1FFC9A7 EQ PUSH2 0x42B JUMPI DUP1 PUSH4 0x3511574 EQ PUSH2 0x460 JUMPI DUP1 PUSH4 0x4697B34 EQ PUSH2 0x485 JUMPI DUP1 PUSH4 0x7973CCF EQ PUSH2 0x4A7 JUMPI JUMPDEST PUSH1 0x0 DUP1 REVERT JUMPDEST CALLVALUE DUP1 ISZERO PUSH2 0x437 JUMPI PUSH1 0x0 DUP1 REVERT JUMPDEST POP PUSH2 0x44B PUSH2 0x446 CALLDATASIZE PUSH1 0x4 PUSH2 0x457F JUMP JUMPDEST PUSH2 0xE5A JUMP JUMPDEST PUSH1 0x40 MLOAD SWAP1 ISZERO ISZERO DUP2 MSTORE PUSH1 0x20 ADD JUMPDEST PUSH1 0x40 MLOAD DUP1 SWAP2 SUB SWAP1 RETURN JUMPDEST CALLVALUE DUP1 ISZERO PUSH2 0x46C JUMPI PUSH1 0x0 DUP1 REVERT JUMPDEST POP PUSH2 0x477 PUSH2 0x104 SLOAD DUP2 JUMP JUMPDEST PUSH1 0x40 MLOAD SWAP1 DUP2 MSTORE PUSH1 0x20 ADD PUSH2 0x457 JUMP JUMPDEST CALLVALUE DUP1 ISZERO PUSH2 0x491 JUMPI PUSH1 0x0 DUP1 REVERT JUMPDEST POP PUSH2 0x4A5 PUSH2 0x4A0 CALLDATASIZE PUSH1 0x4 PUSH2 0x43C6 JUMP JUMPDEST PUSH2 0xE91 JUMP JUMPDEST STOP JUMPDEST CALLVALUE DUP1 ISZERO PUSH2 0x4B3 JUMPI PUSH1 0x0 DUP1 REVERT JUMPDEST POP PUSH2 0x477 PUSH2 0x116 SLOAD DUP2 JUMP JUMPDEST CALLVALUE DUP1 ISZERO PUSH2 0x4CA JUMPI PUSH1 0x0 DUP1 REVERT JUMPDEST POP PUSH2 0x477 PUSH1 0xFF SLOAD DUP2 JUMP JUMPDEST CALLVALUE DUP1 ISZERO PUSH2 0x4E0 JUMPI PUSH1 0x0 DUP1 REVERT JUMPDEST POP PUSH2 0x4A5 PUSH2 0x4EF CALLDATASIZE PUSH1 0x4 PUSH2 0x45DD JUMP JUMPDEST PUSH2 0x1082 JUMP JUMPDEST CALLVALUE DUP1 ISZERO PUSH2 0x500 JUMPI PUSH1 0x0 DUP1 REVERT JUMPDEST POP PUSH2 0x4A5 PUSH2 0x50F CALLDATASIZE PUSH1 0x4 PUSH2 0x45A7 JUMP JUMPDEST PUSH2 0x10F3 JUMP JUMPDEST CALLVALUE DUP1 ISZERO PUSH2 0x520 JUMPI PUSH1 0x0 DUP1 REVERT JUMPDEST POP PUSH2 0x4A5 PUSH2 0x1246 JUMP JUMPDEST CALLVALUE DUP1 ISZERO PUSH2 0x535 JUMPI PUSH1 0x0 DUP1 REVERT JUMPDEST POP PUSH2 0x477 PUSH2 0x544 CALLDATASIZE PUSH1 0x4 PUSH2 0x4543 JUMP JUMPDEST PUSH2 0x112 PUSH1 0x20 MSTORE PUSH1 0x0 SWAP1 DUP2 MSTORE PUSH1 0x40 SWAP1 KECCAK256 SLOAD DUP2 JUMP JUMPDEST CALLVALUE DUP1 ISZERO PUSH2 0x563 JUMPI PUSH1 0x0 DUP1 REVERT JUMPDEST POP PUSH2 0x4A5 PUSH2 0x1287 JUMP JUMPDEST CALLVALUE DUP1 ISZERO PUSH2 0x578 JUMPI PUSH1 0x0 DUP1 REVERT JUMPDEST POP PUSH2 0x44B PUSH2 0x587 CALLDATASIZE PUSH1 0x4 PUSH2 0x43C6 JUMP JUMPDEST PUSH2 0x10A PUSH1 0x20 MSTORE PUSH1 0x0 SWAP1 DUP2 MSTORE PUSH1 0x40 SWAP1 KECCAK256 SLOAD PUSH1 0xFF AND DUP2 JUMP JUMPDEST CALLVALUE DUP1 ISZERO PUSH2 0x5A9 JUMPI PUSH1 0x0 DUP1 REVERT JUMPDEST POP PUSH2 0x4A5 PUSH2 0x5B8 CALLDATASIZE PUSH1 0x4 PUSH2 0x4543 JUMP JUMPDEST PUSH2 0x12C5 JUMP JUMPDEST CALLVALUE DUP1 ISZERO PUSH2 0x5C9 JUMPI PUSH1 0x0 DUP1 REVERT JUMPDEST POP PUSH2 0x477 PUSH2 0x5D8 CALLDATASIZE PUSH1 0x4 PUSH2 0x4543 JUMP JUMPDEST PUSH1 0x0 SWAP1 DUP2 MSTORE PUSH1 0x65 PUSH1 0x20 MSTORE PUSH1 0x40 SWAP1 KECCAK256 PUSH1 0x1 ADD SLOAD SWAP1 JUMP JUMPDEST CALLVALUE DUP1 ISZERO PUSH2 0x5F9 JUMPI PUSH1 0x0 DUP1 REVERT JUMPDEST POP PUSH2 0x4A5 PUSH2 0x608 CALLDATASIZE PUSH1 0x4 PUSH2 0x447B JUMP JUMPDEST PUSH2 0x13CE JUMP JUMPDEST CALLVALUE DUP1 ISZERO PUSH2 0x619 JUMPI PUSH1 0x0 DUP1 REVERT JUMPDEST POP PUSH2 0x477 PUSH2 0x114 SLOAD DUP2 JUMP JUMPDEST CALLVALUE DUP1 ISZERO PUSH2 0x630 JUMPI PUSH1 0x0 DUP1 REVERT JUMPDEST POP PUSH2 0x4A5 PUSH2 0x63F CALLDATASIZE PUSH1 0x4 PUSH2 0x455B JUMP JUMPDEST PUSH2 0x1434 JUMP JUMPDEST CALLVALUE DUP1 ISZERO PUSH2 0x650 JUMPI PUSH1 0x0 DUP1 REVERT JUMPDEST POP PUSH2 0x664 PUSH2 0x65F CALLDATASIZE PUSH1 0x4 PUSH2 0x4543 JUMP JUMPDEST PUSH2 0x145F JUMP JUMPDEST PUSH1 0x40 DUP1 MLOAD PUSH1 0x1 PUSH1 0x1 PUSH1 0xA0 SHL SUB SWAP11 DUP12 AND DUP2 MSTORE SWAP10 SWAP1 SWAP9 AND PUSH1 0x20 DUP11 ADD MSTORE SWAP7 DUP9 ADD SWAP6 SWAP1 SWAP6 MSTORE PUSH1 0x60 DUP8 ADD SWAP4 SWAP1 SWAP4 MSTORE PUSH1 0x80 DUP7 ADD SWAP2 SWAP1 SWAP2 MSTORE PUSH1 0xA0 DUP6 ADD MSTORE ISZERO ISZERO PUSH1 0xC0 DUP5 ADD MSTORE ISZERO ISZERO PUSH1 0xE0 DUP4 ADD MSTORE ISZERO ISZERO PUSH2 0x100 DUP3 ADD MSTORE PUSH2 0x120 ADD PUSH2 0x457 JUMP JUMPDEST CALLVALUE DUP1 ISZERO PUSH2 0x6C5 JUMPI PUSH1 0x0 DUP1 REVERT JUMPDEST POP PUSH2 0x4A5 PUSH2 0x6D4 CALLDATASIZE PUSH1 0x4 PUSH2 0x4543 JUMP JUMPDEST PUSH2 0x14D2 JUMP JUMPDEST CALLVALUE DUP1 ISZERO PUSH2 0x6E5 JUMPI PUSH1 0x0 DUP1 REVERT JUMPDEST POP PUSH2 0x4A5 PUSH2 0x6F4 CALLDATASIZE PUSH1 0x4 PUSH2 0x455B JUMP JUMPDEST PUSH2 0x1604 JUMP JUMPDEST CALLVALUE DUP1 ISZERO PUSH2 0x705 JUMPI PUSH1 0x0 DUP1 REVERT JUMPDEST POP PUSH2 0x719 PUSH2 0x714 CALLDATASIZE PUSH1 0x4 PUSH2 0x4543 JUMP JUMPDEST PUSH2 0x167E JUMP JUMPDEST PUSH1 0x40 DUP1 MLOAD PUSH1 0x1 PUSH1 0x1 PUSH1 0xA0 SHL SUB SWAP1 SWAP7 AND DUP7 MSTORE PUSH1 0x20 DUP7 ADD SWAP5 SWAP1 SWAP5 MSTORE SWAP3 DUP5 ADD SWAP2 SWAP1 SWAP2 MSTORE ISZERO ISZERO PUSH1 0x60 DUP4 ADD MSTORE ISZERO ISZERO PUSH1 0x80 DUP3 ADD MSTORE PUSH1 0xA0 ADD PUSH2 0x457 JUMP JUMPDEST CALLVALUE DUP1 ISZERO PUSH2 0x75B JUMPI PUSH1 0x0 DUP1 REVERT JUMPDEST POP PUSH2 0x4A5 PUSH2 0x76A CALLDATASIZE PUSH1 0x4 PUSH2 0x4636 JUMP JUMPDEST PUSH2 0x16CF JUMP JUMPDEST CALLVALUE DUP1 ISZERO PUSH2 0x77B JUMPI PUSH1 0x0 DUP1 REVERT JUMPDEST POP PUSH2 0x477 PUSH1 0x0 DUP1 MLOAD PUSH1 0x20 PUSH2 0x486B DUP4 CODECOPY DUP2 MLOAD SWAP2 MSTORE DUP2 JUMP JUMPDEST CALLVALUE DUP1 ISZERO PUSH2 0x79D JUMPI PUSH1 0x0 DUP1 REVERT JUMPDEST POP PUSH2 0x477 PUSH1 0x0 DUP1 MLOAD PUSH1 0x20 PUSH2 0x488B DUP4 CODECOPY DUP2 MLOAD SWAP2 MSTORE DUP2 JUMP JUMPDEST CALLVALUE DUP1 ISZERO PUSH2 0x7BF JUMPI PUSH1 0x0 DUP1 REVERT JUMPDEST POP PUSH2 0x477 PUSH2 0x7CE CALLDATASIZE PUSH1 0x4 PUSH2 0x4543 JUMP JUMPDEST PUSH2 0x10B PUSH1 0x20 MSTORE PUSH1 0x0 SWAP1 DUP2 MSTORE PUSH1 0x40 SWAP1 KECCAK256 SLOAD DUP2 JUMP JUMPDEST CALLVALUE DUP1 ISZERO PUSH2 0x7ED JUMPI PUSH1 0x0 DUP1 REVERT JUMPDEST POP PUSH2 0x4A5 PUSH2 0x7FC CALLDATASIZE PUSH1 0x4 PUSH2 0x43C6 JUMP JUMPDEST PUSH2 0x182B JUMP JUMPDEST CALLVALUE DUP1 ISZERO PUSH2 0x80D JUMPI PUSH1 0x0 DUP1 REVERT JUMPDEST POP PUSH1 0x97 SLOAD PUSH1 0xFF AND PUSH2 0x44B JUMP JUMPDEST CALLVALUE DUP1 ISZERO PUSH2 0x825 JUMPI PUSH1 0x0 DUP1 REVERT JUMPDEST POP PUSH2 0x839 PUSH2 0x834 CALLDATASIZE PUSH1 0x4 PUSH2 0x4543 JUMP JUMPDEST PUSH2 0x1A69 JUMP JUMPDEST PUSH1 0x40 DUP1 MLOAD SWAP6 DUP7 MSTORE PUSH1 0x20 DUP7 ADD SWAP5 SWAP1 SWAP5 MSTORE SWAP3 DUP5 ADD SWAP2 SWAP1 SWAP2 MSTORE ISZERO ISZERO PUSH1 0x60 DUP4 ADD MSTORE ISZERO ISZERO PUSH1 0x80 DUP3 ADD MSTORE PUSH1 0xA0 ADD PUSH2 0x457 JUMP JUMPDEST CALLVALUE DUP1 ISZERO PUSH2 0x871 JUMPI PUSH1 0x0 DUP1 REVERT JUMPDEST POP PUSH2 0x44B PUSH2 0x880 CALLDATASIZE PUSH1 0x4 PUSH2 0x4543 JUMP JUMPDEST PUSH2 0x111 PUSH1 0x20 MSTORE PUSH1 0x0 SWAP1 DUP2 MSTORE PUSH1 0x40 SWAP1 KECCAK256 SLOAD PUSH1 0xFF AND DUP2 JUMP JUMPDEST CALLVALUE DUP1 ISZERO PUSH2 0x8A2 JUMPI PUSH1 0x0 DUP1 REVERT JUMPDEST POP PUSH1 0xFD SLOAD PUSH2 0x8B6 SWAP1 PUSH1 0x1 PUSH1 0x1 PUSH1 0xA0 SHL SUB AND DUP2 JUMP JUMPDEST PUSH1 0x40 MLOAD PUSH1 0x1 PUSH1 0x1 PUSH1 0xA0 SHL SUB SWAP1 SWAP2 AND DUP2 MSTORE PUSH1 0x20 ADD PUSH2 0x457 JUMP JUMPDEST CALLVALUE DUP1 ISZERO PUSH2 0x8DA JUMPI PUSH1 0x0 DUP1 REVERT JUMPDEST POP PUSH2 0x4A5 PUSH2 0x8E9 CALLDATASIZE PUSH1 0x4 PUSH2 0x44DE JUMP JUMPDEST PUSH2 0x1AB0 JUMP JUMPDEST CALLVALUE DUP1 ISZERO PUSH2 0x8FA JUMPI PUSH1 0x0 DUP1 REVERT JUMPDEST POP PUSH2 0x4A5 PUSH2 0x909 CALLDATASIZE PUSH1 0x4 PUSH2 0x44B3 JUMP JUMPDEST PUSH2 0x1C42 JUMP JUMPDEST CALLVALUE DUP1 ISZERO PUSH2 0x91A JUMPI PUSH1 0x0 DUP1 REVERT JUMPDEST POP PUSH2 0x477 PUSH2 0x100 SLOAD DUP2 JUMP JUMPDEST CALLVALUE DUP1 ISZERO PUSH2 0x931 JUMPI PUSH1 0x0 DUP1 REVERT JUMPDEST POP PUSH2 0x477 PUSH2 0x10E SLOAD DUP2 JUMP JUMPDEST CALLVALUE DUP1 ISZERO PUSH2 0x948 JUMPI PUSH1 0x0 DUP1 REVERT JUMPDEST POP PUSH1 0xFC SLOAD PUSH2 0x8B6 SWAP1 PUSH1 0x1 PUSH1 0x1 PUSH1 0xA0 SHL SUB AND DUP2 JUMP JUMPDEST CALLVALUE DUP1 ISZERO PUSH2 0x968 JUMPI PUSH1 0x0 DUP1 REVERT JUMPDEST POP PUSH2 0x477 PUSH2 0x101 SLOAD DUP2 JUMP JUMPDEST CALLVALUE DUP1 ISZERO PUSH2 0x97F JUMPI PUSH1 0x0 DUP1 REVERT JUMPDEST POP PUSH2 0x4A5 PUSH2 0x1C60 JUMP JUMPDEST CALLVALUE DUP1 ISZERO PUSH2 0x994 JUMPI PUSH1 0x0 DUP1 REVERT JUMPDEST POP PUSH2 0x44B PUSH2 0x9A3 CALLDATASIZE PUSH1 0x4 PUSH2 0x455B JUMP JUMPDEST PUSH2 0x1C6B JUMP JUMPDEST PUSH2 0x4A5 PUSH2 0x9B6 CALLDATASIZE PUSH1 0x4 PUSH2 0x45FE JUMP JUMPDEST PUSH2 0x1C96 JUMP JUMPDEST CALLVALUE DUP1 ISZERO PUSH2 0x9C7 JUMPI PUSH1 0x0 DUP1 REVERT JUMPDEST POP PUSH2 0x477 PUSH2 0x9D6 CALLDATASIZE PUSH1 0x4 PUSH2 0x4543 JUMP JUMPDEST PUSH2 0x108 PUSH1 0x20 MSTORE PUSH1 0x0 SWAP1 DUP2 MSTORE PUSH1 0x40 SWAP1 KECCAK256 SLOAD DUP2 JUMP JUMPDEST CALLVALUE DUP1 ISZERO PUSH2 0x9F5 JUMPI PUSH1 0x0 DUP1 REVERT JUMPDEST POP PUSH2 0x8B6 PUSH2 0xA04 CALLDATASIZE PUSH1 0x4 PUSH2 0x4543 JUMP JUMPDEST PUSH2 0x2103 JUMP JUMPDEST CALLVALUE DUP1 ISZERO PUSH2 0xA15 JUMPI PUSH1 0x0 DUP1 REVERT JUMPDEST POP PUSH2 0x477 PUSH2 0x106 SLOAD DUP2 JUMP JUMPDEST CALLVALUE DUP1 ISZERO PUSH2 0xA2C JUMPI PUSH1 0x0 DUP1 REVERT JUMPDEST POP PUSH2 0x4A5 PUSH2 0xA3B CALLDATASIZE PUSH1 0x4 PUSH2 0x4543 JUMP JUMPDEST PUSH2 0x212E JUMP JUMPDEST CALLVALUE DUP1 ISZERO PUSH2 0xA4C JUMPI PUSH1 0x0 DUP1 REVERT JUMPDEST POP PUSH2 0x8B6 PUSH2 0xA5B CALLDATASIZE PUSH1 0x4 PUSH2 0x43C6 JUMP JUMPDEST PUSH2 0x10F PUSH1 0x20 MSTORE PUSH1 0x0 SWAP1 DUP2 MSTORE PUSH1 0x40 SWAP1 KECCAK256 SLOAD PUSH1 0x1 PUSH1 0x1 PUSH1 0xA0 SHL SUB AND DUP2 JUMP JUMPDEST CALLVALUE DUP1 ISZERO PUSH2 0xA83 JUMPI PUSH1 0x0 DUP1 REVERT JUMPDEST POP PUSH2 0x477 PUSH1 0x0 DUP2 JUMP JUMPDEST CALLVALUE DUP1 ISZERO PUSH2 0xA98 JUMPI PUSH1 0x0 DUP1 REVERT JUMPDEST POP PUSH2 0x477 PUSH1 0x0 DUP1 MLOAD PUSH1 0x20 PUSH2 0x484B DUP4 CODECOPY DUP2 MLOAD SWAP2 MSTORE DUP2 JUMP JUMPDEST CALLVALUE DUP1 ISZERO PUSH2 0xABA JUMPI PUSH1 0x0 DUP1 REVERT JUMPDEST POP PUSH2 0x4A5 PUSH2 0xAC9 CALLDATASIZE PUSH1 0x4 PUSH2 0x4543 JUMP JUMPDEST PUSH2 0x2226 JUMP JUMPDEST CALLVALUE DUP1 ISZERO PUSH2 0xADA JUMPI PUSH1 0x0 DUP1 REVERT JUMPDEST POP PUSH2 0x4A5 PUSH2 0xAE9 CALLDATASIZE PUSH1 0x4 PUSH2 0x4543 JUMP JUMPDEST PUSH2 0x2678 JUMP JUMPDEST CALLVALUE DUP1 ISZERO PUSH2 0xAFA JUMPI PUSH1 0x0 DUP1 REVERT JUMPDEST POP PUSH2 0x4A5 PUSH2 0xB09 CALLDATASIZE PUSH1 0x4 PUSH2 0x44B3 JUMP JUMPDEST PUSH2 0x28BE JUMP JUMPDEST CALLVALUE DUP1 ISZERO PUSH2 0xB1A JUMPI PUSH1 0x0 DUP1 REVERT JUMPDEST POP PUSH2 0x44B PUSH2 0xB29 CALLDATASIZE PUSH1 0x4 PUSH2 0x43C6 JUMP JUMPDEST PUSH2 0x109 PUSH1 0x20 MSTORE PUSH1 0x0 SWAP1 DUP2 MSTORE PUSH1 0x40 SWAP1 KECCAK256 SLOAD PUSH1 0xFF AND DUP2 JUMP JUMPDEST CALLVALUE DUP1 ISZERO PUSH2 0xB4B JUMPI PUSH1 0x0 DUP1 REVERT JUMPDEST POP PUSH2 0x477 PUSH2 0x119 SLOAD DUP2 JUMP JUMPDEST CALLVALUE DUP1 ISZERO PUSH2 0xB62 JUMPI PUSH1 0x0 DUP1 REVERT JUMPDEST POP PUSH2 0x4A5 PUSH2 0xB71 CALLDATASIZE PUSH1 0x4 PUSH2 0x450B JUMP JUMPDEST PUSH2 0x28DC JUMP JUMPDEST CALLVALUE DUP1 ISZERO PUSH2 0xB82 JUMPI PUSH1 0x0 DUP1 REVERT JUMPDEST POP PUSH2 0x477 PUSH1 0xFE SLOAD DUP2 JUMP JUMPDEST CALLVALUE DUP1 ISZERO PUSH2 0xB98 JUMPI PUSH1 0x0 DUP1 REVERT JUMPDEST POP PUSH2 0xBAC PUSH2 0xBA7 CALLDATASIZE PUSH1 0x4 PUSH2 0x4543 JUMP JUMPDEST PUSH2 0x2A76 JUMP JUMPDEST PUSH1 0x40 DUP1 MLOAD SWAP6 DUP7 MSTORE PUSH1 0x20 DUP7 ADD SWAP5 SWAP1 SWAP5 MSTORE SWAP3 DUP5 ADD SWAP2 SWAP1 SWAP2 MSTORE PUSH1 0x60 DUP4 ADD MSTORE ISZERO ISZERO PUSH1 0x80 DUP3 ADD MSTORE PUSH1 0xA0 ADD PUSH2 0x457 JUMP JUMPDEST CALLVALUE DUP1 ISZERO PUSH2 0xBE2 JUMPI PUSH1 0x0 DUP1 REVERT JUMPDEST POP PUSH2 0x4A5 PUSH2 0xBF1 CALLDATASIZE PUSH1 0x4 PUSH2 0x4543 JUMP JUMPDEST PUSH2 0x2ABB JUMP JUMPDEST CALLVALUE DUP1 ISZERO PUSH2 0xC02 JUMPI PUSH1 0x0 DUP1 REVERT JUMPDEST POP PUSH2 0x4A5 PUSH2 0x2CF4 JUMP JUMPDEST CALLVALUE DUP1 ISZERO PUSH2 0xC17 JUMPI PUSH1 0x0 DUP1 REVERT JUMPDEST POP PUSH2 0x477 PUSH2 0x103 SLOAD DUP2 JUMP JUMPDEST CALLVALUE DUP1 ISZERO PUSH2 0xC2E JUMPI PUSH1 0x0 DUP1 REVERT JUMPDEST POP PUSH2 0x477 PUSH2 0xC3D CALLDATASIZE PUSH1 0x4 PUSH2 0x43C6 JUMP JUMPDEST PUSH2 0x110 PUSH1 0x20 MSTORE PUSH1 0x0 SWAP1 DUP2 MSTORE PUSH1 0x40 SWAP1 KECCAK256 SLOAD DUP2 JUMP JUMPDEST CALLVALUE DUP1 ISZERO PUSH2 0xC5C JUMPI PUSH1 0x0 DUP1 REVERT JUMPDEST POP PUSH2 0x4A5 PUSH2 0xC6B CALLDATASIZE PUSH1 0x4 PUSH2 0x45A7 JUMP JUMPDEST PUSH2 0x2E9B JUMP JUMPDEST CALLVALUE DUP1 ISZERO PUSH2 0xC7C JUMPI PUSH1 0x0 DUP1 REVERT JUMPDEST POP PUSH2 0x4A5 PUSH2 0xC8B CALLDATASIZE PUSH1 0x4 PUSH2 0x45DD JUMP JUMPDEST PUSH2 0x2FE2 JUMP JUMPDEST CALLVALUE DUP1 ISZERO PUSH2 0xC9C JUMPI PUSH1 0x0 DUP1 REVERT JUMPDEST POP PUSH2 0x4A5 PUSH2 0xCAB CALLDATASIZE PUSH1 0x4 PUSH2 0x4543 JUMP JUMPDEST PUSH2 0x32DF JUMP JUMPDEST CALLVALUE DUP1 ISZERO PUSH2 0xCBC JUMPI PUSH1 0x0 DUP1 REVERT JUMPDEST POP PUSH2 0x4A5 PUSH2 0xCCB CALLDATASIZE PUSH1 0x4 PUSH2 0x45A7 JUMP JUMPDEST PUSH2 0x33F9 JUMP JUMPDEST CALLVALUE DUP1 ISZERO PUSH2 0xCDC JUMPI PUSH1 0x0 DUP1 REVERT JUMPDEST POP PUSH2 0x4A5 PUSH2 0xCEB CALLDATASIZE PUSH1 0x4 PUSH2 0x43C6 JUMP JUMPDEST PUSH2 0x353F JUMP JUMPDEST CALLVALUE DUP1 ISZERO PUSH2 0xCFC JUMPI PUSH1 0x0 DUP1 REVERT JUMPDEST POP PUSH2 0x4A5 PUSH2 0xD0B CALLDATASIZE PUSH1 0x4 PUSH2 0x455B JUMP JUMPDEST PUSH2 0x35E3 JUMP JUMPDEST CALLVALUE DUP1 ISZERO PUSH2 0xD1C JUMPI PUSH1 0x0 DUP1 REVERT JUMPDEST POP PUSH2 0x4A5 PUSH2 0xD2B CALLDATASIZE PUSH1 0x4 PUSH2 0x45A7 JUMP JUMPDEST PUSH2 0x3609 JUMP JUMPDEST CALLVALUE DUP1 ISZERO PUSH2 0xD3C JUMPI PUSH1 0x0 DUP1 REVERT JUMPDEST POP PUSH2 0x4A5 PUSH2 0xD4B CALLDATASIZE PUSH1 0x4 PUSH2 0x45DD JUMP JUMPDEST PUSH2 0x37B8 JUMP JUMPDEST CALLVALUE DUP1 ISZERO PUSH2 0xD5C JUMPI PUSH1 0x0 DUP1 REVERT JUMPDEST POP PUSH2 0x477 PUSH2 0x102 SLOAD DUP2 JUMP JUMPDEST CALLVALUE DUP1 ISZERO PUSH2 0xD73 JUMPI PUSH1 0x0 DUP1 REVERT JUMPDEST POP PUSH2 0x477 PUSH2 0xD82 CALLDATASIZE PUSH1 0x4 PUSH2 0x4543 JUMP JUMPDEST PUSH2 0x10C PUSH1 0x20 MSTORE PUSH1 0x0 SWAP1 DUP2 MSTORE PUSH1 0x40 SWAP1 KECCAK256 SLOAD DUP2 JUMP JUMPDEST CALLVALUE DUP1 ISZERO PUSH2 0xDA1 JUMPI PUSH1 0x0 DUP1 REVERT JUMPDEST POP PUSH2 0x477 PUSH2 0x105 SLOAD DUP2 JUMP JUMPDEST CALLVALUE DUP1 ISZERO PUSH2 0xDB8 JUMPI PUSH1 0x0 DUP1 REVERT JUMPDEST POP PUSH2 0x4A5 PUSH2 0xDC7 CALLDATASIZE PUSH1 0x4 PUSH2 0x45CB JUMP JUMPDEST PUSH2 0x3956 JUMP JUMPDEST CALLVALUE DUP1 ISZERO PUSH2 0xDD8 JUMPI PUSH1 0x0 DUP1 REVERT JUMPDEST POP PUSH1 0xFB SLOAD PUSH2 0x8B6 SWAP1 PUSH1 0x1 PUSH1 0x1 PUSH1 0xA0 SHL SUB AND DUP2 JUMP JUMPDEST CALLVALUE DUP1 ISZERO PUSH2 0xDF8 JUMPI PUSH1 0x0 DUP1 REVERT JUMPDEST POP PUSH2 0x477 PUSH2 0xE07 CALLDATASIZE PUSH1 0x4 PUSH2 0x43C6 JUMP JUMPDEST PUSH2 0x117 PUSH1 0x20 MSTORE PUSH1 0x0 SWAP1 DUP2 MSTORE PUSH1 0x40 SWAP1 KECCAK256 SLOAD DUP2 JUMP JUMPDEST CALLVALUE DUP1 ISZERO PUSH2 0xE26 JUMPI PUSH1 0x0 DUP1 REVERT JUMPDEST POP PUSH2 0x4A5 PUSH2 0xE35 CALLDATASIZE PUSH1 0x4 PUSH2 0x43FE JUMP JUMPDEST PUSH2 0x3B54 JUMP JUMPDEST CALLVALUE DUP1 ISZERO PUSH2 0xE46 JUMPI PUSH1 0x0 DUP1 REVERT JUMPDEST POP PUSH2 0x44B PUSH2 0xE55 CALLDATASIZE PUSH1 0x4 PUSH2 0x43C6 JUMP JUMPDEST PUSH2 0x3BED JUMP JUMPDEST PUSH1 0x0 PUSH1 0x1 PUSH1 0x1 PUSH1 0xE0 SHL SUB NOT DUP3 AND PUSH4 0x7965DB0B PUSH1 0xE0 SHL EQ DUP1 PUSH2 0xE8B JUMPI POP PUSH4 0x1FFC9A7 PUSH1 0xE0 SHL PUSH1 0x1 PUSH1 0x1 PUSH1 0xE0 SHL SUB NOT DUP4 AND EQ JUMPDEST SWAP3 SWAP2 POP POP JUMP JUMPDEST PUSH1 0x0 SLOAD PUSH2 0x100 SWAP1 DIV PUSH1 0xFF AND DUP1 PUSH2 0xEAA JUMPI POP PUSH1 0x0 SLOAD PUSH1 0xFF AND ISZERO JUMPDEST PUSH2 0xF12 JUMPI PUSH1 0x40 MLOAD PUSH3 0x461BCD PUSH1 0xE5 SHL DUP2 MSTORE PUSH1 0x20 PUSH1 0x4 DUP3 ADD MSTORE PUSH1 0x2E PUSH1 0x24 DUP3 ADD MSTORE PUSH32 0x496E697469616C697A61626C653A20636F6E747261637420697320616C726561 PUSH1 0x44 DUP3 ADD MSTORE PUSH14 0x191E481A5B9A5D1A585B1A5E9959 PUSH1 0x92 SHL PUSH1 0x64 DUP3 ADD MSTORE PUSH1 0x84 ADD JUMPDEST PUSH1 0x40 MLOAD DUP1 SWAP2 SUB SWAP1 REVERT JUMPDEST PUSH1 0x0 SLOAD PUSH2 0x100 SWAP1 DIV PUSH1 0xFF AND ISZERO DUP1 ISZERO PUSH2 0xF34 JUMPI PUSH1 0x0 DUP1 SLOAD PUSH2 0xFFFF NOT AND PUSH2 0x101 OR SWAP1 SSTORE JUMPDEST PUSH1 0x1 PUSH1 0x1 PUSH1 0xA0 SHL SUB DUP3 AND PUSH2 0xF47 JUMPI PUSH1 0x0 DUP1 REVERT JUMPDEST PUSH1 0xFB DUP1 SLOAD CALLER PUSH1 0x1 PUSH1 0x1 PUSH1 0xA0 SHL SUB NOT SWAP2 DUP3 AND DUP2 OR SWAP1 SWAP3 SSTORE PUSH1 0xFC DUP1 SLOAD SWAP1 SWAP2 AND PUSH1 0x1 PUSH1 0x1 PUSH1 0xA0 SHL SUB DUP6 AND OR SWAP1 SSTORE PUSH2 0x1F4 PUSH1 0xFE SSTORE PUSH1 0x3 PUSH1 0xFF SSTORE PUSH3 0x93A80 PUSH2 0x102 SSTORE PUSH3 0x15180 PUSH2 0x103 SSTORE PUSH2 0xFA0 PUSH2 0x100 SSTORE PUSH6 0x3A352944000 PUSH2 0x101 SSTORE PUSH2 0xFAA SWAP1 PUSH1 0x0 SWAP1 PUSH2 0x3C07 JUMP JUMPDEST PUSH1 0xFB SLOAD PUSH2 0xFCF SWAP1 PUSH1 0x0 DUP1 MLOAD PUSH1 0x20 PUSH2 0x484B DUP4 CODECOPY DUP2 MLOAD SWAP2 MSTORE SWAP1 PUSH1 0x1 PUSH1 0x1 PUSH1 0xA0 SHL SUB AND PUSH2 0x3C07 JUMP JUMPDEST PUSH1 0xFB SLOAD PUSH2 0xFF4 SWAP1 PUSH1 0x0 DUP1 MLOAD PUSH1 0x20 PUSH2 0x488B DUP4 CODECOPY DUP2 MLOAD SWAP2 MSTORE SWAP1 PUSH1 0x1 PUSH1 0x1 PUSH1 0xA0 SHL SUB AND PUSH2 0x3C07 JUMP JUMPDEST PUSH1 0xFB SLOAD PUSH2 0x1019 SWAP1 PUSH1 0x0 DUP1 MLOAD PUSH1 0x20 PUSH2 0x486B DUP4 CODECOPY DUP2 MLOAD SWAP2 MSTORE SWAP1 PUSH1 0x1 PUSH1 0x1 PUSH1 0xA0 SHL SUB AND PUSH2 0x3C07 JUMP JUMPDEST PUSH2 0x1032 PUSH1 0x0 DUP1 MLOAD PUSH1 0x20 PUSH2 0x484B DUP4 CODECOPY DUP2 MLOAD SWAP2 MSTORE PUSH1 0x0 PUSH2 0x3C11 JUMP JUMPDEST PUSH2 0x104B PUSH1 0x0 DUP1 MLOAD PUSH1 0x20 PUSH2 0x488B DUP4 CODECOPY DUP2 MLOAD SWAP2 MSTORE PUSH1 0x0 PUSH2 0x3C11 JUMP JUMPDEST PUSH2 0x1064 PUSH1 0x0 DUP1 MLOAD PUSH1 0x20 PUSH2 0x486B DUP4 CODECOPY DUP2 MLOAD SWAP2 MSTORE PUSH1 0x0 PUSH2 0x3C11 JUMP JUMPDEST PUSH2 0x106C PUSH2 0x2CF4 JUMP JUMPDEST DUP1 ISZERO PUSH2 0x107E JUMPI PUSH1 0x0 DUP1 SLOAD PUSH2 0xFF00 NOT AND SWAP1 SSTORE JUMPDEST POP POP JUMP JUMPDEST PUSH2 0x108D PUSH1 0x0 CALLER PUSH2 0x1C6B JUMP JUMPDEST PUSH2 0x1096 JUMPI PUSH1 0x0 DUP1 REVERT JUMPDEST PUSH2 0x113 DUP3 DUP2 SLOAD DUP2 LT PUSH2 0x10B8 JUMPI PUSH4 0x4E487B71 PUSH1 0xE0 SHL PUSH1 0x0 MSTORE PUSH1 0x32 PUSH1 0x4 MSTORE PUSH1 0x24 PUSH1 0x0 REVERT JUMPDEST SWAP1 PUSH1 0x0 MSTORE PUSH1 0x20 PUSH1 0x0 KECCAK256 SWAP1 PUSH1 0x4 MUL ADD PUSH1 0x3 ADD PUSH1 0x1 SWAP1 SLOAD SWAP1 PUSH2 0x100 EXP SWAP1 DIV PUSH1 0xFF AND PUSH2 0x10E0 JUMPI PUSH1 0x0 DUP1 REVERT JUMPDEST PUSH1 0x0 SWAP2 DUP3 MSTORE PUSH2 0x108 PUSH1 0x20 MSTORE PUSH1 0x40 SWAP1 SWAP2 KECCAK256 SSTORE JUMP JUMPDEST PUSH1 0x0 DUP1 MLOAD PUSH1 0x20 PUSH2 0x486B DUP4 CODECOPY DUP2 MLOAD SWAP2 MSTORE PUSH2 0x110C DUP2 CALLER PUSH2 0x1C6B JUMP JUMPDEST PUSH2 0x1115 JUMPI PUSH1 0x0 DUP1 REVERT JUMPDEST PUSH1 0x97 SLOAD PUSH1 0xFF AND ISZERO PUSH2 0x1138 JUMPI PUSH1 0x40 MLOAD PUSH3 0x461BCD PUSH1 0xE5 SHL DUP2 MSTORE PUSH1 0x4 ADD PUSH2 0xF09 SWAP1 PUSH2 0x4753 JUMP JUMPDEST PUSH2 0x115 DUP4 DUP2 SLOAD DUP2 LT PUSH2 0x115A JUMPI PUSH4 0x4E487B71 PUSH1 0xE0 SHL PUSH1 0x0 MSTORE PUSH1 0x32 PUSH1 0x4 MSTORE PUSH1 0x24 PUSH1 0x0 REVERT JUMPDEST SWAP1 PUSH1 0x0 MSTORE PUSH1 0x20 PUSH1 0x0 KECCAK256 SWAP1 PUSH1 0x4 MUL ADD PUSH1 0x3 ADD PUSH1 0x1 SWAP1 SLOAD SWAP1 PUSH2 0x100 EXP SWAP1 DIV PUSH1 0xFF AND PUSH2 0x1182 JUMPI PUSH1 0x0 DUP1 REVERT JUMPDEST DUP2 PUSH2 0x115 DUP5 DUP2 SLOAD DUP2 LT PUSH2 0x11A5 JUMPI PUSH4 0x4E487B71 PUSH1 0xE0 SHL PUSH1 0x0 MSTORE PUSH1 0x32 PUSH1 0x4 MSTORE PUSH1 0x24 PUSH1 0x0 REVERT JUMPDEST SWAP1 PUSH1 0x0 MSTORE PUSH1 0x20 PUSH1 0x0 KECCAK256 SWAP1 PUSH1 0x4 MUL ADD PUSH1 0x3 ADD PUSH1 0x0 PUSH2 0x100 EXP DUP2 SLOAD DUP2 PUSH1 0xFF MUL NOT AND SWAP1 DUP4 ISZERO ISZERO MUL OR SWAP1 SSTORE POP TIMESTAMP PUSH2 0x115 DUP5 DUP2 SLOAD DUP2 LT PUSH2 0x11F0 JUMPI PUSH4 0x4E487B71 PUSH1 0xE0 SHL PUSH1 0x0 MSTORE PUSH1 0x32 PUSH1 0x4 MSTORE PUSH1 0x24 PUSH1 0x0 REVERT JUMPDEST SWAP1 PUSH1 0x0 MSTORE PUSH1 0x20 PUSH1 0x0 KECCAK256 SWAP1 PUSH1 0x4 MUL ADD PUSH1 0x2 ADD DUP2 SWAP1 SSTORE POP DUP3 PUSH32 0xF6D4CC61C27BF15B63009A422974EE13173B39D8D6FD4C612B7FA052B881508D DUP4 PUSH1 0x40 MLOAD PUSH2 0x1239 SWAP2 ISZERO ISZERO DUP2 MSTORE PUSH1 0x20 ADD SWAP1 JUMP JUMPDEST PUSH1 0x40 MLOAD DUP1 SWAP2 SUB SWAP1 LOG2 POP POP POP JUMP JUMPDEST PUSH1 0x97 SLOAD PUSH1 0xFF AND ISZERO PUSH2 0x1269 JUMPI PUSH1 0x40 MLOAD PUSH3 0x461BCD PUSH1 0xE5 SHL DUP2 MSTORE PUSH1 0x4 ADD PUSH2 0xF09 SWAP1 PUSH2 0x4753 JUMP JUMPDEST PUSH2 0x1274 PUSH1 0x0 CALLER PUSH2 0x1C6B JUMP JUMPDEST PUSH2 0x127D JUMPI PUSH1 0x0 DUP1 REVERT JUMPDEST PUSH2 0x1285 PUSH2 0x3C65 JUMP JUMPDEST JUMP JUMPDEST PUSH1 0x97 SLOAD PUSH1 0xFF AND PUSH2 0x12A9 JUMPI PUSH1 0x40 MLOAD PUSH3 0x461BCD PUSH1 0xE5 SHL DUP2 MSTORE PUSH1 0x4 ADD PUSH2 0xF09 SWAP1 PUSH2 0x4725 JUMP JUMPDEST PUSH2 0x12B4 PUSH1 0x0 CALLER PUSH2 0x1C6B JUMP JUMPDEST PUSH2 0x12BD JUMPI PUSH1 0x0 DUP1 REVERT JUMPDEST PUSH2 0x1285 PUSH2 0x3CDA JUMP JUMPDEST PUSH1 0x0 DUP1 MLOAD PUSH1 0x20 PUSH2 0x484B DUP4 CODECOPY DUP2 MLOAD SWAP2 MSTORE PUSH2 0x12DE DUP2 CALLER PUSH2 0x1C6B JUMP JUMPDEST PUSH2 0x12E7 JUMPI PUSH1 0x0 DUP1 REVERT JUMPDEST PUSH1 0x97 SLOAD PUSH1 0xFF AND ISZERO PUSH2 0x130A JUMPI PUSH1 0x40 MLOAD PUSH3 0x461BCD PUSH1 0xE5 SHL DUP2 MSTORE PUSH1 0x4 ADD PUSH2 0xF09 SWAP1 PUSH2 0x4753 JUMP JUMPDEST PUSH2 0x113 DUP3 DUP2 SLOAD DUP2 LT PUSH2 0x132C JUMPI PUSH4 0x4E487B71 PUSH1 0xE0 SHL PUSH1 0x0 MSTORE PUSH1 0x32 PUSH1 0x4 MSTORE PUSH1 0x24 PUSH1 0x0 REVERT JUMPDEST SWAP1 PUSH1 0x0 MSTORE PUSH1 0x20 PUSH1 0x0 KECCAK256 SWAP1 PUSH1 0x4 MUL ADD PUSH1 0x3 ADD PUSH1 0x1 SWAP1 SLOAD SWAP1 PUSH2 0x100 EXP SWAP1 DIV PUSH1 0xFF AND PUSH2 0x1354 JUMPI PUSH1 0x0 DUP1 REVERT JUMPDEST PUSH2 0x113 DUP3 DUP2 SLOAD DUP2 LT PUSH2 0x1376 JUMPI PUSH4 0x4E487B71 PUSH1 0xE0 SHL PUSH1 0x0 MSTORE PUSH1 0x32 PUSH1 0x4 MSTORE PUSH1 0x24 PUSH1 0x0 REVERT JUMPDEST PUSH1 0x0 SWAP2 DUP3 MSTORE PUSH1 0x20 DUP3 KECCAK256 PUSH1 0x4 SWAP1 SWAP2 MUL ADD DUP2 DUP2 SSTORE PUSH1 0x1 DUP2 ADD DUP3 SWAP1 SSTORE PUSH1 0x2 DUP2 ADD DUP3 SWAP1 SSTORE PUSH1 0x3 ADD DUP1 SLOAD PUSH2 0xFFFF NOT AND SWAP1 SSTORE PUSH1 0x40 MLOAD DUP4 SWAP2 PUSH32 0x8655E3BCDEED014F0450256D035679508FDBDABC14AE183D9115F8269B797929 SWAP2 LOG2 POP POP JUMP JUMPDEST PUSH2 0x13D9 PUSH1 0x0 CALLER PUSH2 0x1C6B JUMP JUMPDEST PUSH2 0x13E2 JUMPI PUSH1 0x0 DUP1 REVERT JUMPDEST PUSH1 0x1 PUSH1 0x1 PUSH1 0xA0 SHL SUB DUP3 AND PUSH1 0x0 SWAP1 DUP2 MSTORE PUSH2 0x109 PUSH1 0x20 MSTORE PUSH1 0x40 SWAP1 KECCAK256 SLOAD PUSH1 0xFF AND PUSH2 0x1408 JUMPI PUSH1 0x0 DUP1 REVERT JUMPDEST PUSH1 0x1 PUSH1 0x1 PUSH1 0xA0 SHL SUB SWAP2 SWAP1 SWAP2 AND PUSH1 0x0 SWAP1 DUP2 MSTORE PUSH2 0x10A PUSH1 0x20 MSTORE PUSH1 0x40 SWAP1 KECCAK256 DUP1 SLOAD PUSH1 0xFF NOT AND SWAP2 ISZERO ISZERO SWAP2 SWAP1 SWAP2 OR SWAP1 SSTORE JUMP JUMPDEST PUSH1 0x0 DUP3 DUP2 MSTORE PUSH1 0x65 PUSH1 0x20 MSTORE PUSH1 0x40 SWAP1 KECCAK256 PUSH1 0x1 ADD SLOAD PUSH2 0x1450 DUP2 CALLER PUSH2 0x3D2D JUMP JUMPDEST PUSH2 0x145A DUP4 DUP4 PUSH2 0x3D91 JUMP JUMPDEST POP POP POP JUMP JUMPDEST PUSH2 0x10D DUP2 DUP2 SLOAD DUP2 LT PUSH2 0x1470 JUMPI PUSH1 0x0 DUP1 REVERT JUMPDEST PUSH1 0x0 SWAP2 DUP3 MSTORE PUSH1 0x20 SWAP1 SWAP2 KECCAK256 PUSH1 0x7 SWAP1 SWAP2 MUL ADD DUP1 SLOAD PUSH1 0x1 DUP3 ADD SLOAD PUSH1 0x2 DUP4 ADD SLOAD PUSH1 0x3 DUP5 ADD SLOAD PUSH1 0x4 DUP6 ADD SLOAD PUSH1 0x5 DUP7 ADD SLOAD PUSH1 0x6 SWAP1 SWAP7 ADD SLOAD PUSH1 0x1 PUSH1 0x1 PUSH1 0xA0 SHL SUB SWAP6 DUP7 AND SWAP8 POP SWAP5 SWAP1 SWAP4 AND SWAP5 SWAP2 SWAP4 SWAP1 SWAP3 SWAP2 SWAP1 PUSH1 0xFF DUP1 DUP3 AND SWAP2 PUSH2 0x100 DUP2 DIV DUP3 AND SWAP2 PUSH3 0x10000 SWAP1 SWAP2 DIV AND DUP10 JUMP JUMPDEST PUSH1 0x0 DUP1 MLOAD PUSH1 0x20 PUSH2 0x488B DUP4 CODECOPY DUP2 MLOAD SWAP2 MSTORE PUSH2 0x14EB DUP2 CALLER PUSH2 0x1C6B JUMP JUMPDEST PUSH2 0x14F4 JUMPI PUSH1 0x0 DUP1 REVERT JUMPDEST DUP2 PUSH2 0x10D DUP2 DUP2 SLOAD DUP2 LT PUSH2 0x1517 JUMPI PUSH4 0x4E487B71 PUSH1 0xE0 SHL PUSH1 0x0 MSTORE PUSH1 0x32 PUSH1 0x4 MSTORE PUSH1 0x24 PUSH1 0x0 REVERT JUMPDEST SWAP1 PUSH1 0x0 MSTORE PUSH1 0x20 PUSH1 0x0 KECCAK256 SWAP1 PUSH1 0x7 MUL ADD PUSH1 0x6 ADD PUSH1 0x2 SWAP1 SLOAD SWAP1 PUSH2 0x100 EXP SWAP1 DIV PUSH1 0xFF AND PUSH2 0x153F JUMPI PUSH1 0x0 DUP1 REVERT JUMPDEST PUSH1 0x97 SLOAD PUSH1 0xFF AND ISZERO PUSH2 0x1562 JUMPI PUSH1 0x40 MLOAD PUSH3 0x461BCD PUSH1 0xE5 SHL DUP2 MSTORE PUSH1 0x4 ADD PUSH2 0xF09 SWAP1 PUSH2 0x4753 JUMP JUMPDEST PUSH2 0x10D DUP4 DUP2 SLOAD DUP2 LT PUSH2 0x1584 JUMPI PUSH4 0x4E487B71 PUSH1 0xE0 SHL PUSH1 0x0 MSTORE PUSH1 0x32 PUSH1 0x4 MSTORE PUSH1 0x24 PUSH1 0x0 REVERT JUMPDEST PUSH1 0x0 SWAP2 DUP3 MSTORE PUSH1 0x20 DUP3 KECCAK256 PUSH1 0x7 SWAP1 SWAP2 MUL ADD DUP1 SLOAD PUSH1 0x1 PUSH1 0x1 PUSH1 0xA0 SHL SUB NOT SWAP1 DUP2 AND DUP3 SSTORE PUSH1 0x1 DUP3 ADD DUP1 SLOAD SWAP1 SWAP2 AND SWAP1 SSTORE PUSH1 0x2 DUP2 ADD DUP3 SWAP1 SSTORE PUSH1 0x3 DUP2 ADD DUP3 SWAP1 SSTORE PUSH1 0x4 DUP2 ADD DUP3 SWAP1 SSTORE PUSH1 0x5 DUP2 ADD DUP3 SWAP1 SSTORE PUSH1 0x6 ADD DUP1 SLOAD PUSH3 0xFFFFFF NOT AND SWAP1 SSTORE PUSH1 0x40 MLOAD DUP5 SWAP2 PUSH32 0x95E5772AFC2824BE1C5259B0F29D08CD4BD894DBBDD4CF4746B77BD30AAE9C20 SWAP2 LOG2 POP POP POP JUMP JUMPDEST PUSH1 0x1 PUSH1 0x1 PUSH1 0xA0 SHL SUB DUP2 AND CALLER EQ PUSH2 0x1674 JUMPI PUSH1 0x40 MLOAD PUSH3 0x461BCD PUSH1 0xE5 SHL DUP2 MSTORE PUSH1 0x20 PUSH1 0x4 DUP3 ADD MSTORE PUSH1 0x2F PUSH1 0x24 DUP3 ADD MSTORE PUSH32 0x416363657373436F6E74726F6C3A2063616E206F6E6C792072656E6F756E6365 PUSH1 0x44 DUP3 ADD MSTORE PUSH15 0x103937B632B9903337B91039B2B633 PUSH1 0x89 SHL PUSH1 0x64 DUP3 ADD MSTORE PUSH1 0x84 ADD PUSH2 0xF09 JUMP JUMPDEST PUSH2 0x107E DUP3 DUP3 PUSH2 0x3E17 JUMP JUMPDEST PUSH2 0x115 DUP2 DUP2 SLOAD DUP2 LT PUSH2 0x168F JUMPI PUSH1 0x0 DUP1 REVERT JUMPDEST PUSH1 0x0 SWAP2 DUP3 MSTORE PUSH1 0x20 SWAP1 SWAP2 KECCAK256 PUSH1 0x4 SWAP1 SWAP2 MUL ADD DUP1 SLOAD PUSH1 0x1 DUP3 ADD SLOAD PUSH1 0x2 DUP4 ADD SLOAD PUSH1 0x3 SWAP1 SWAP4 ADD SLOAD PUSH1 0x1 PUSH1 0x1 PUSH1 0xA0 SHL SUB SWAP1 SWAP3 AND SWAP4 POP SWAP2 SWAP1 PUSH1 0xFF DUP1 DUP3 AND SWAP2 PUSH2 0x100 SWAP1 DIV AND DUP6 JUMP JUMPDEST PUSH2 0x16DA PUSH1 0x0 CALLER PUSH2 0x1C6B JUMP JUMPDEST PUSH2 0x16E3 JUMPI PUSH1 0x0 DUP1 REVERT JUMPDEST PUSH1 0x97 SLOAD PUSH1 0xFF AND ISZERO PUSH2 0x1706 JUMPI PUSH1 0x40 MLOAD PUSH3 0x461BCD PUSH1 0xE5 SHL DUP2 MSTORE PUSH1 0x4 ADD PUSH2 0xF09 SWAP1 PUSH2 0x4753 JUMP JUMPDEST PUSH2 0x118 DUP4 DUP2 SLOAD DUP2 LT PUSH2 0x1728 JUMPI PUSH4 0x4E487B71 PUSH1 0xE0 SHL PUSH1 0x0 MSTORE PUSH1 0x32 PUSH1 0x4 MSTORE PUSH1 0x24 PUSH1 0x0 REVERT JUMPDEST PUSH1 0x0 SWAP2 DUP3 MSTORE PUSH1 0x20 SWAP1 SWAP2 KECCAK256 PUSH1 0x4 PUSH1 0x5 SWAP1 SWAP3 MUL ADD ADD SLOAD PUSH1 0xFF AND PUSH2 0x1748 JUMPI PUSH1 0x0 DUP1 REVERT JUMPDEST DUP2 PUSH2 0x118 DUP5 DUP2 SLOAD DUP2 LT PUSH2 0x176B JUMPI PUSH4 0x4E487B71 PUSH1 0xE0 SHL PUSH1 0x0 MSTORE PUSH1 0x32 PUSH1 0x4 MSTORE PUSH1 0x24 PUSH1 0x0 REVERT JUMPDEST SWAP1 PUSH1 0x0 MSTORE PUSH1 0x20 PUSH1 0x0 KECCAK256 SWAP1 PUSH1 0x5 MUL ADD PUSH1 0x3 ADD DUP2 SWAP1 SSTORE POP DUP1 PUSH2 0x118 DUP5 DUP2 SLOAD DUP2 LT PUSH2 0x17A3 JUMPI PUSH4 0x4E487B71 PUSH1 0xE0 SHL PUSH1 0x0 MSTORE PUSH1 0x32 PUSH1 0x4 MSTORE PUSH1 0x24 PUSH1 0x0 REVERT JUMPDEST SWAP1 PUSH1 0x0 MSTORE PUSH1 0x20 PUSH1 0x0 KECCAK256 SWAP1 PUSH1 0x5 MUL ADD PUSH1 0x2 ADD DUP2 SWAP1 SSTORE POP TIMESTAMP PUSH2 0x118 DUP5 DUP2 SLOAD DUP2 LT PUSH2 0x17DB JUMPI PUSH4 0x4E487B71 PUSH1 0xE0 SHL PUSH1 0x0 MSTORE PUSH1 0x32 PUSH1 0x4 MSTORE PUSH1 0x24 PUSH1 0x0 REVERT JUMPDEST SWAP1 PUSH1 0x0 MSTORE PUSH1 0x20 PUSH1 0x0 KECCAK256 SWAP1 PUSH1 0x5 MUL ADD PUSH1 0x1 ADD DUP2 SWAP1 SSTORE POP DUP3 PUSH32 0xE17359F0C01C6D890CBB90A58AF61A3557264370DE81BB9CF10E7E81BD66BD29 DUP4 DUP4 PUSH1 0x40 MLOAD PUSH2 0x1239 SWAP3 SWAP2 SWAP1 SWAP2 DUP3 MSTORE PUSH1 0x20 DUP3 ADD MSTORE PUSH1 0x40 ADD SWAP1 JUMP JUMPDEST PUSH1 0x1 PUSH1 0x1 PUSH1 0xA0 SHL SUB DUP2 AND PUSH1 0x0 SWAP1 DUP2 MSTORE PUSH2 0x110 PUSH1 0x20 MSTORE PUSH1 0x40 DUP2 KECCAK256 SLOAD PUSH2 0x10D DUP1 SLOAD SWAP2 SWAP3 CALLER SWAP3 PUSH2 0x10F SWAP3 SWAP1 DUP6 SWAP1 DUP2 LT PUSH2 0x1871 JUMPI PUSH4 0x4E487B71 PUSH1 0xE0 SHL PUSH1 0x0 MSTORE PUSH1 0x32 PUSH1 0x4 MSTORE PUSH1 0x24 PUSH1 0x0 REVERT JUMPDEST PUSH1 0x0 SWAP2 DUP3 MSTORE PUSH1 0x20 DUP1 DUP4 KECCAK256 PUSH1 0x7 SWAP1 SWAP3 MUL SWAP1 SWAP2 ADD SLOAD PUSH1 0x1 PUSH1 0x1 PUSH1 0xA0 SHL SUB SWAP1 DUP2 AND DUP5 MSTORE SWAP1 DUP4 ADD SWAP4 SWAP1 SWAP4 MSTORE PUSH1 0x40 SWAP1 SWAP2 ADD SWAP1 KECCAK256 SLOAD AND EQ PUSH2 0x18AB JUMPI PUSH1 0x0 DUP1 REVERT JUMPDEST PUSH1 0x1 PUSH1 0x1 PUSH1 0xA0 SHL SUB DUP3 AND PUSH1 0x0 SWAP1 DUP2 MSTORE PUSH2 0x110 PUSH1 0x20 MSTORE PUSH1 0x40 SWAP1 KECCAK256 SLOAD PUSH2 0x10D DUP1 SLOAD DUP3 SWAP1 DUP2 LT PUSH2 0x18E8 JUMPI PUSH4 0x4E487B71 PUSH1 0xE0 SHL PUSH1 0x0 MSTORE PUSH1 0x32 PUSH1 0x4 MSTORE PUSH1 0x24 PUSH1 0x0 REVERT JUMPDEST SWAP1 PUSH1 0x0 MSTORE PUSH1 0x20 PUSH1 0x0 KECCAK256 SWAP1 PUSH1 0x7 MUL ADD PUSH1 0x6 ADD PUSH1 0x2 SWAP1 SLOAD SWAP1 PUSH2 0x100 EXP SWAP1 DIV PUSH1 0xFF AND PUSH2 0x1910 JUMPI PUSH1 0x0 DUP1 REVERT JUMPDEST CALLER PUSH1 0x0 DUP2 DUP2 MSTORE PUSH2 0x117 PUSH1 0x20 MSTORE PUSH1 0x40 SWAP1 KECCAK256 SLOAD PUSH2 0x115 DUP1 SLOAD SWAP1 SWAP2 SWAP1 DUP2 LT PUSH2 0x1945 JUMPI PUSH4 0x4E487B71 PUSH1 0xE0 SHL PUSH1 0x0 MSTORE PUSH1 0x32 PUSH1 0x4 MSTORE PUSH1 0x24 PUSH1 0x0 REVERT JUMPDEST PUSH1 0x0 SWAP2 DUP3 MSTORE PUSH1 0x20 SWAP1 SWAP2 KECCAK256 PUSH1 0x3 PUSH1 0x4 SWAP1 SWAP3 MUL ADD ADD SLOAD PUSH1 0xFF AND PUSH2 0x1965 JUMPI PUSH1 0x0 DUP1 REVERT JUMPDEST PUSH1 0x97 SLOAD PUSH1 0xFF AND PUSH2 0x1987 JUMPI PUSH1 0x40 MLOAD PUSH3 0x461BCD PUSH1 0xE5 SHL DUP2 MSTORE PUSH1 0x4 ADD PUSH2 0xF09 SWAP1 PUSH2 0x4725 JUMP JUMPDEST PUSH1 0x1 PUSH1 0x1 PUSH1 0xA0 SHL SUB DUP5 AND PUSH1 0x0 SWAP1 DUP2 MSTORE PUSH2 0x110 PUSH1 0x20 MSTORE PUSH1 0x40 SWAP1 KECCAK256 SLOAD PUSH2 0x10D DUP1 SLOAD DUP3 SWAP1 DUP2 LT PUSH2 0x19C4 JUMPI PUSH4 0x4E487B71 PUSH1 0xE0 SHL PUSH1 0x0 MSTORE PUSH1 0x32 PUSH1 0x4 MSTORE PUSH1 0x24 PUSH1 0x0 REVERT JUMPDEST SWAP1 PUSH1 0x0 MSTORE PUSH1 0x20 PUSH1 0x0 KECCAK256 SWAP1 PUSH1 0x7 MUL ADD PUSH1 0x6 ADD PUSH1 0x1 SWAP1 SLOAD SWAP1 PUSH2 0x100 EXP SWAP1 DIV PUSH1 0xFF AND ISZERO DUP1 ISZERO PUSH2 0x1A26 JUMPI POP PUSH2 0x10D DUP2 DUP2 SLOAD DUP2 LT PUSH2 0x1A0D JUMPI PUSH4 0x4E487B71 PUSH1 0xE0 SHL PUSH1 0x0 MSTORE PUSH1 0x32 PUSH1 0x4 MSTORE PUSH1 0x24 PUSH1 0x0 REVERT JUMPDEST PUSH1 0x0 SWAP2 DUP3 MSTORE PUSH1 0x20 SWAP1 SWAP2 KECCAK256 PUSH1 0x6 PUSH1 0x7 SWAP1 SWAP3 MUL ADD ADD SLOAD PUSH1 0xFF AND ISZERO JUMPDEST PUSH2 0x1A2F JUMPI PUSH1 0x0 DUP1 REVERT JUMPDEST PUSH1 0x40 MLOAD DUP2 DUP2 MSTORE PUSH32 0xF2DA6265155AD3F6E63D56E8127DC7D540B864CD554E3D8CE964EC1BDACE8700 SWAP1 PUSH1 0x20 ADD PUSH1 0x40 MLOAD DUP1 SWAP2 SUB SWAP1 LOG1 POP POP POP POP POP JUMP JUMPDEST PUSH2 0x113 DUP2 DUP2 SLOAD DUP2 LT PUSH2 0x1A7A JUMPI PUSH1 0x0 DUP1 REVERT JUMPDEST PUSH1 0x0 SWAP2 DUP3 MSTORE PUSH1 0x20 SWAP1 SWAP2 KECCAK256 PUSH1 0x4 SWAP1 SWAP2 MUL ADD DUP1 SLOAD PUSH1 0x1 DUP3 ADD SLOAD PUSH1 0x2 DUP4 ADD SLOAD PUSH1 0x3 SWAP1 SWAP4 ADD SLOAD SWAP2 SWAP4 POP SWAP2 SWAP1 PUSH1 0xFF DUP1 DUP3 AND SWAP2 PUSH2 0x100 SWAP1 DIV AND DUP6 JUMP JUMPDEST PUSH1 0x0 DUP1 MLOAD PUSH1 0x20 PUSH2 0x488B DUP4 CODECOPY DUP2 MLOAD SWAP2 MSTORE PUSH2 0x1AC9 DUP2 CALLER PUSH2 0x1C6B JUMP JUMPDEST PUSH2 0x1AD2 JUMPI PUSH1 0x0 DUP1 REVERT JUMPDEST PUSH1 0x97 SLOAD PUSH1 0xFF AND ISZERO PUSH2 0x1AF5 JUMPI PUSH1 0x40 MLOAD PUSH3 0x461BCD PUSH1 0xE5 SHL DUP2 MSTORE PUSH1 0x4 ADD PUSH2 0xF09 SWAP1 PUSH2 0x4753 JUMP JUMPDEST DUP3 PUSH1 0x1 PUSH1 0x1 PUSH1 0xA0 SHL SUB AND DUP3 PUSH1 0x1 PUSH1 0x1 PUSH1 0xA0 SHL SUB AND PUSH4 0xEBF0C717 PUSH1 0x40 MLOAD DUP2 PUSH4 0xFFFFFFFF AND PUSH1 0xE0 SHL DUP2 MSTORE PUSH1 0x4 ADD PUSH1 0x20 PUSH1 0x40 MLOAD DUP1 DUP4 SUB DUP2 DUP7 DUP1 EXTCODESIZE ISZERO DUP1 ISZERO PUSH2 0x1B38 JUMPI PUSH1 0x0 DUP1 REVERT JUMPDEST POP GAS STATICCALL ISZERO DUP1 ISZERO PUSH2 0x1B4C JUMPI RETURNDATASIZE PUSH1 0x0 DUP1 RETURNDATACOPY RETURNDATASIZE PUSH1 0x0 REVERT JUMPDEST POP POP POP POP PUSH1 0x40 MLOAD RETURNDATASIZE PUSH1 0x1F NOT PUSH1 0x1F DUP3 ADD AND DUP3 ADD DUP1 PUSH1 0x40 MSTORE POP DUP2 ADD SWAP1 PUSH2 0x1B70 SWAP2 SWAP1 PUSH2 0x43E2 JUMP JUMPDEST PUSH1 0x1 PUSH1 0x1 PUSH1 0xA0 SHL SUB AND EQ PUSH2 0x1B83 JUMPI PUSH1 0x0 DUP1 REVERT JUMPDEST PUSH1 0x1 PUSH1 0x1 PUSH1 0xA0 SHL SUB DUP3 AND PUSH1 0x0 SWAP1 DUP2 MSTORE PUSH2 0x110 PUSH1 0x20 MSTORE PUSH1 0x40 DUP2 KECCAK256 SLOAD PUSH2 0x10D DUP1 SLOAD SWAP1 SWAP2 SWAP1 DUP2 LT PUSH2 0x1BC1 JUMPI PUSH4 0x4E487B71 PUSH1 0xE0 SHL PUSH1 0x0 MSTORE PUSH1 0x32 PUSH1 0x4 MSTORE PUSH1 0x24 PUSH1 0x0 REVERT JUMPDEST PUSH1 0x0 SWAP2 DUP3 MSTORE PUSH1 0x20 DUP1 DUP4 KECCAK256 PUSH1 0x1 PUSH1 0x7 SWAP1 SWAP4 MUL ADD SWAP2 DUP3 ADD DUP1 SLOAD PUSH1 0x1 PUSH1 0x1 PUSH1 0xA0 SHL SUB DUP1 DUP11 AND PUSH1 0x1 PUSH1 0x1 PUSH1 0xA0 SHL SUB NOT SWAP3 DUP4 AND DUP2 OR SWAP1 SWAP4 SSTORE TIMESTAMP PUSH1 0x3 DUP7 ADD SSTORE DUP9 AND DUP6 MSTORE PUSH2 0x10F SWAP1 SWAP3 MSTORE PUSH1 0x40 DUP1 DUP6 KECCAK256 DUP1 SLOAD SWAP1 SWAP4 AND DUP3 OR SWAP1 SWAP3 SSTORE SWAP1 MLOAD SWAP2 SWAP4 POP SWAP2 PUSH32 0xB8F4731F98DD4E7D1A4C4CA65B7350599FC98635B37196F3C0A79B684D34030F SWAP2 LOG2 POP POP POP POP JUMP JUMPDEST PUSH2 0x1C4D PUSH1 0x0 CALLER PUSH2 0x1C6B JUMP JUMPDEST PUSH2 0x1C56 JUMPI PUSH1 0x0 DUP1 REVERT JUMPDEST PUSH2 0x107E DUP2 DUP4 PUSH2 0x35E3 JUMP JUMPDEST PUSH2 0x1285 PUSH1 0x0 CALLER PUSH2 0x1604 JUMP JUMPDEST PUSH1 0x0 SWAP2 DUP3 MSTORE PUSH1 0x65 PUSH1 0x20 SWAP1 DUP2 MSTORE PUSH1 0x40 DUP1 DUP5 KECCAK256 PUSH1 0x1 PUSH1 0x1 PUSH1 0xA0 SHL SUB SWAP4 SWAP1 SWAP4 AND DUP5 MSTORE SWAP2 SWAP1 MSTORE SWAP1 KECCAK256 SLOAD PUSH1 0xFF AND SWAP1 JUMP JUMPDEST DUP3 CALLER PUSH1 0x1 PUSH1 0x1 PUSH1 0xA0 SHL SUB AND PUSH2 0x10F PUSH1 0x0 PUSH2 0x10D DUP5 DUP2 SLOAD DUP2 LT PUSH2 0x1CC8 JUMPI PUSH4 0x4E487B71 PUSH1 0xE0 SHL PUSH1 0x0 MSTORE PUSH1 0x32 PUSH1 0x4 MSTORE PUSH1 0x24 PUSH1 0x0 REVERT JUMPDEST PUSH1 0x0 SWAP2 DUP3 MSTORE PUSH1 0x20 DUP1 DUP4 KECCAK256 PUSH1 0x7 SWAP1 SWAP3 MUL SWAP1 SWAP2 ADD SLOAD PUSH1 0x1 PUSH1 0x1 PUSH1 0xA0 SHL SUB SWAP1 DUP2 AND DUP5 MSTORE SWAP1 DUP4 ADD SWAP4 SWAP1 SWAP4 MSTORE PUSH1 0x40 SWAP1 SWAP2 ADD SWAP1 KECCAK256 SLOAD AND EQ DUP1 PUSH2 0x1D17 JUMPI POP PUSH2 0x1D17 PUSH1 0x0 DUP1 MLOAD PUSH1 0x20 PUSH2 0x488B DUP4 CODECOPY DUP2 MLOAD SWAP2 MSTORE CALLER PUSH2 0x1C6B JUMP JUMPDEST PUSH2 0x1D20 JUMPI PUSH1 0x0 DUP1 REVERT JUMPDEST DUP4 PUSH2 0x10D DUP2 DUP2 SLOAD DUP2 LT PUSH2 0x1D43 JUMPI PUSH4 0x4E487B71 PUSH1 0xE0 SHL PUSH1 0x0 MSTORE PUSH1 0x32 PUSH1 0x4 MSTORE PUSH1 0x24 PUSH1 0x0 REVERT JUMPDEST SWAP1 PUSH1 0x0 MSTORE PUSH1 0x20 PUSH1 0x0 KECCAK256 SWAP1 PUSH1 0x7 MUL ADD PUSH1 0x6 ADD PUSH1 0x2 SWAP1 SLOAD SWAP1 PUSH2 0x100 EXP SWAP1 DIV PUSH1 0xFF AND PUSH2 0x1D6B JUMPI PUSH1 0x0 DUP1 REVERT JUMPDEST DUP5 PUSH2 0x10D DUP2 DUP2 SLOAD DUP2 LT PUSH2 0x1D8E JUMPI PUSH4 0x4E487B71 PUSH1 0xE0 SHL PUSH1 0x0 MSTORE PUSH1 0x32 PUSH1 0x4 MSTORE PUSH1 0x24 PUSH1 0x0 REVERT JUMPDEST SWAP1 PUSH1 0x0 MSTORE PUSH1 0x20 PUSH1 0x0 KECCAK256 SWAP1 PUSH1 0x7 MUL ADD PUSH1 0x6 ADD PUSH1 0x1 SWAP1 SLOAD SWAP1 PUSH2 0x100 EXP SWAP1 DIV PUSH1 0xFF AND DUP1 ISZERO PUSH2 0x1DEE JUMPI POP PUSH2 0x10D DUP2 DUP2 SLOAD DUP2 LT PUSH2 0x1DD6 JUMPI PUSH4 0x4E487B71 PUSH1 0xE0 SHL PUSH1 0x0 MSTORE PUSH1 0x32 PUSH1 0x4 MSTORE PUSH1 0x24 PUSH1 0x0 REVERT JUMPDEST PUSH1 0x0 SWAP2 DUP3 MSTORE PUSH1 0x20 SWAP1 SWAP2 KECCAK256 PUSH1 0x6 PUSH1 0x7 SWAP1 SWAP3 MUL ADD ADD SLOAD PUSH1 0xFF AND JUMPDEST PUSH2 0x1DF7 JUMPI PUSH1 0x0 DUP1 REVERT JUMPDEST CALLER PUSH1 0x0 DUP2 DUP2 MSTORE PUSH2 0x117 PUSH1 0x20 MSTORE PUSH1 0x40 SWAP1 KECCAK256 SLOAD PUSH2 0x115 DUP1 SLOAD SWAP1 SWAP2 SWAP1 DUP2 LT PUSH2 0x1E2C JUMPI PUSH4 0x4E487B71 PUSH1 0xE0 SHL PUSH1 0x0 MSTORE PUSH1 0x32 PUSH1 0x4 MSTORE PUSH1 0x24 PUSH1 0x0 REVERT JUMPDEST PUSH1 0x0 SWAP2 DUP3 MSTORE PUSH1 0x20 SWAP1 SWAP2 KECCAK256 PUSH1 0x3 PUSH1 0x4 SWAP1 SWAP3 MUL ADD ADD SLOAD PUSH1 0xFF AND PUSH2 0x1E4C JUMPI PUSH1 0x0 DUP1 REVERT JUMPDEST PUSH1 0x97 SLOAD PUSH1 0xFF AND ISZERO PUSH2 0x1E6F JUMPI PUSH1 0x40 MLOAD PUSH3 0x461BCD PUSH1 0xE5 SHL DUP2 MSTORE PUSH1 0x4 ADD PUSH2 0xF09 SWAP1 PUSH2 0x4753 JUMP JUMPDEST PUSH1 0x2 PUSH1 0xC9 SLOAD EQ ISZERO PUSH2 0x1EC2 JUMPI PUSH1 0x40 MLOAD PUSH3 0x461BCD PUSH1 0xE5 SHL DUP2 MSTORE PUSH1 0x20 PUSH1 0x4 DUP3 ADD MSTORE PUSH1 0x1F PUSH1 0x24 DUP3 ADD MSTORE PUSH32 0x5265656E7472616E637947756172643A207265656E7472616E742063616C6C00 PUSH1 0x44 DUP3 ADD MSTORE PUSH1 0x64 ADD PUSH2 0xF09 JUMP JUMPDEST PUSH1 0x2 PUSH1 0xC9 SSTORE PUSH1 0x1 PUSH1 0x1 PUSH1 0xA0 SHL SUB DUP6 AND PUSH1 0x0 SWAP1 DUP2 MSTORE PUSH2 0x10A PUSH1 0x20 MSTORE PUSH1 0x40 SWAP1 KECCAK256 SLOAD PUSH1 0xFF AND PUSH2 0x1EED JUMPI PUSH1 0x0 DUP1 REVERT JUMPDEST PUSH2 0x118 DUP7 DUP2 SLOAD DUP2 LT PUSH2 0x1F0F JUMPI PUSH4 0x4E487B71 PUSH1 0xE0 SHL PUSH1 0x0 MSTORE PUSH1 0x32 PUSH1 0x4 MSTORE PUSH1 0x24 PUSH1 0x0 REVERT JUMPDEST PUSH1 0x0 SWAP2 DUP3 MSTORE PUSH1 0x20 SWAP1 SWAP2 KECCAK256 PUSH1 0x4 PUSH1 0x5 SWAP1 SWAP3 MUL ADD ADD SLOAD PUSH1 0xFF AND PUSH2 0x1F2F JUMPI PUSH1 0x0 DUP1 REVERT JUMPDEST PUSH2 0x118 DUP7 DUP2 SLOAD DUP2 LT PUSH2 0x1F51 JUMPI PUSH4 0x4E487B71 PUSH1 0xE0 SHL PUSH1 0x0 MSTORE PUSH1 0x32 PUSH1 0x4 MSTORE PUSH1 0x24 PUSH1 0x0 REVERT JUMPDEST SWAP1 PUSH1 0x0 MSTORE PUSH1 0x20 PUSH1 0x0 KECCAK256 SWAP1 PUSH1 0x5 MUL ADD PUSH1 0x3 ADD SLOAD CALLVALUE LT ISZERO PUSH2 0x1F6F JUMPI PUSH1 0x0 DUP1 REVERT JUMPDEST PUSH2 0x106 SLOAD PUSH2 0x1F7D SWAP1 CALLVALUE PUSH2 0x3E7E JUMP JUMPDEST PUSH2 0x106 SSTORE PUSH1 0x0 DUP8 DUP2 MSTORE PUSH2 0x10C PUSH1 0x20 MSTORE PUSH1 0x40 SWAP1 KECCAK256 SLOAD PUSH2 0x1F9B SWAP1 CALLVALUE PUSH2 0x3E7E JUMP JUMPDEST PUSH1 0x0 DUP9 DUP2 MSTORE PUSH2 0x10C PUSH1 0x20 MSTORE PUSH1 0x40 SWAP1 KECCAK256 SSTORE PUSH2 0x118 DUP1 SLOAD PUSH2 0x2033 SWAP2 TIMESTAMP SWAP2 PUSH2 0x202D SWAP2 SWAP1 DUP11 SWAP1 DUP2 LT PUSH2 0x1FD9 JUMPI PUSH4 0x4E487B71 PUSH1 0xE0 SHL PUSH1 0x0 MSTORE PUSH1 0x32 PUSH1 0x4 MSTORE PUSH1 0x24 PUSH1 0x0 REVERT JUMPDEST SWAP1 PUSH1 0x0 MSTORE PUSH1 0x20 PUSH1 0x0 KECCAK256 SWAP1 PUSH1 0x5 MUL ADD PUSH1 0x2 ADD SLOAD PUSH2 0x10D DUP12 DUP2 SLOAD DUP2 LT PUSH2 0x200D JUMPI PUSH4 0x4E487B71 PUSH1 0xE0 SHL PUSH1 0x0 MSTORE PUSH1 0x32 PUSH1 0x4 MSTORE PUSH1 0x24 PUSH1 0x0 REVERT JUMPDEST SWAP1 PUSH1 0x0 MSTORE PUSH1 0x20 PUSH1 0x0 KECCAK256 SWAP1 PUSH1 0x7 MUL ADD PUSH1 0x5 ADD SLOAD PUSH2 0x3E7E SWAP1 SWAP2 SWAP1 PUSH4 0xFFFFFFFF AND JUMP JUMPDEST SWAP1 PUSH2 0x3E7E JUMP JUMPDEST PUSH2 0x10D DUP9 DUP2 SLOAD DUP2 LT PUSH2 0x2055 JUMPI PUSH4 0x4E487B71 PUSH1 0xE0 SHL PUSH1 0x0 MSTORE PUSH1 0x32 PUSH1 0x4 MSTORE PUSH1 0x24 PUSH1 0x0 REVERT JUMPDEST SWAP1 PUSH1 0x0 MSTORE PUSH1 0x20 PUSH1 0x0 KECCAK256 SWAP1 PUSH1 0x7 MUL ADD PUSH1 0x5 ADD DUP2 SWAP1 SSTORE POP TIMESTAMP PUSH2 0x10D DUP9 DUP2 SLOAD DUP2 LT PUSH2 0x208D JUMPI PUSH4 0x4E487B71 PUSH1 0xE0 SHL PUSH1 0x0 MSTORE PUSH1 0x32 PUSH1 0x4 MSTORE PUSH1 0x24 PUSH1 0x0 REVERT JUMPDEST PUSH1 0x0 SWAP2 DUP3 MSTORE PUSH1 0x20 SWAP1 SWAP2 KECCAK256 PUSH1 0x3 PUSH1 0x7 SWAP1 SWAP3 MUL ADD ADD SSTORE PUSH1 0xFC SLOAD PUSH2 0x20BB SWAP1 DUP7 SWAP1 CALLER SWAP1 PUSH1 0x1 PUSH1 0x1 PUSH1 0xA0 SHL SUB AND CALLVALUE PUSH2 0x3E91 JUMP JUMPDEST PUSH1 0x40 DUP1 MLOAD DUP8 DUP2 MSTORE CALLVALUE PUSH1 0x20 DUP3 ADD MSTORE DUP9 SWAP2 PUSH32 0x3FE573245584C05C91C80EFB913EC0D6FCFDD46DCFFA3BC8C37DAE9A5C1E5E50 SWAP2 ADD PUSH1 0x40 MLOAD DUP1 SWAP2 SUB SWAP1 LOG2 POP POP PUSH1 0x1 PUSH1 0xC9 SSTORE POP POP POP POP POP JUMP JUMPDEST PUSH2 0x107 DUP2 DUP2 SLOAD DUP2 LT PUSH2 0x2114 JUMPI PUSH1 0x0 DUP1 REVERT JUMPDEST PUSH1 0x0 SWAP2 DUP3 MSTORE PUSH1 0x20 SWAP1 SWAP2 KECCAK256 ADD SLOAD PUSH1 0x1 PUSH1 0x1 PUSH1 0xA0 SHL SUB AND SWAP1 POP DUP2 JUMP JUMPDEST PUSH2 0x2139 PUSH1 0x0 CALLER PUSH2 0x1C6B JUMP JUMPDEST PUSH2 0x2142 JUMPI PUSH1 0x0 DUP1 REVERT JUMPDEST PUSH1 0x97 SLOAD PUSH1 0xFF AND ISZERO PUSH2 0x2165 JUMPI PUSH1 0x40 MLOAD PUSH3 0x461BCD PUSH1 0xE5 SHL DUP2 MSTORE PUSH1 0x4 ADD PUSH2 0xF09 SWAP1 PUSH2 0x4753 JUMP JUMPDEST PUSH2 0x118 DUP2 DUP2 SLOAD DUP2 LT PUSH2 0x2187 JUMPI PUSH4 0x4E487B71 PUSH1 0xE0 SHL PUSH1 0x0 MSTORE PUSH1 0x32 PUSH1 0x4 MSTORE PUSH1 0x24 PUSH1 0x0 REVERT JUMPDEST PUSH1 0x0 SWAP2 DUP3 MSTORE PUSH1 0x20 SWAP1 SWAP2 KECCAK256 PUSH1 0x4 PUSH1 0x5 SWAP1 SWAP3 MUL ADD ADD SLOAD PUSH1 0xFF AND PUSH2 0x21A7 JUMPI PUSH1 0x0 DUP1 REVERT JUMPDEST PUSH2 0x118 DUP2 DUP2 SLOAD DUP2 LT PUSH2 0x21C9 JUMPI PUSH4 0x4E487B71 PUSH1 0xE0 SHL PUSH1 0x0 MSTORE PUSH1 0x32 PUSH1 0x4 MSTORE PUSH1 0x24 PUSH1 0x0 REVERT JUMPDEST PUSH1 0x0 SWAP2 DUP3 MSTORE PUSH1 0x20 DUP3 KECCAK256 PUSH1 0x5 SWAP1 SWAP2 MUL ADD DUP2 DUP2 SSTORE PUSH1 0x1 DUP2 ADD DUP3 SWAP1 SSTORE PUSH1 0x2 DUP2 ADD DUP3 SWAP1 SSTORE PUSH1 0x3 DUP2 ADD DUP3 SWAP1 SSTORE PUSH1 0x4 ADD DUP1 SLOAD PUSH1 0xFF NOT AND SWAP1 SSTORE PUSH1 0x40 MLOAD DUP3 SWAP2 PUSH32 0x83E318F8F48C60FDAE5872A0B72651CD9AA76DD35E278073A419AF2A02FE748B SWAP2 LOG2 POP JUMP JUMPDEST CALLER PUSH1 0x0 DUP2 DUP2 MSTORE PUSH2 0x117 PUSH1 0x20 MSTORE PUSH1 0x40 SWAP1 KECCAK256 SLOAD PUSH2 0x115 DUP1 SLOAD SWAP1 SWAP2 SWAP1 DUP2 LT PUSH2 0x225B JUMPI PUSH4 0x4E487B71 PUSH1 0xE0 SHL PUSH1 0x0 MSTORE PUSH1 0x32 PUSH1 0x4 MSTORE PUSH1 0x24 PUSH1 0x0 REVERT JUMPDEST PUSH1 0x0 SWAP2 DUP3 MSTORE PUSH1 0x20 SWAP1 SWAP2 KECCAK256 PUSH1 0x3 PUSH1 0x4 SWAP1 SWAP3 MUL ADD ADD SLOAD PUSH1 0xFF AND PUSH2 0x227B JUMPI PUSH1 0x0 DUP1 REVERT JUMPDEST PUSH1 0x97 SLOAD PUSH1 0xFF AND ISZERO PUSH2 0x229E JUMPI PUSH1 0x40 MLOAD PUSH3 0x461BCD PUSH1 0xE5 SHL DUP2 MSTORE PUSH1 0x4 ADD PUSH2 0xF09 SWAP1 PUSH2 0x4753 JUMP JUMPDEST PUSH2 0x113 DUP3 DUP2 SLOAD DUP2 LT PUSH2 0x22C0 JUMPI PUSH4 0x4E487B71 PUSH1 0xE0 SHL PUSH1 0x0 MSTORE PUSH1 0x32 PUSH1 0x4 MSTORE PUSH1 0x24 PUSH1 0x0 REVERT JUMPDEST SWAP1 PUSH1 0x0 MSTORE PUSH1 0x20 PUSH1 0x0 KECCAK256 SWAP1 PUSH1 0x4 MUL ADD PUSH1 0x3 ADD PUSH1 0x1 SWAP1 SLOAD SWAP1 PUSH2 0x100 EXP SWAP1 DIV PUSH1 0xFF AND DUP1 ISZERO PUSH2 0x2320 JUMPI POP PUSH2 0x113 DUP3 DUP2 SLOAD DUP2 LT PUSH2 0x2308 JUMPI PUSH4 0x4E487B71 PUSH1 0xE0 SHL PUSH1 0x0 MSTORE PUSH1 0x32 PUSH1 0x4 MSTORE PUSH1 0x24 PUSH1 0x0 REVERT JUMPDEST PUSH1 0x0 SWAP2 DUP3 MSTORE PUSH1 0x20 SWAP1 SWAP2 KECCAK256 PUSH1 0x3 PUSH1 0x4 SWAP1 SWAP3 MUL ADD ADD SLOAD PUSH1 0xFF AND JUMPDEST PUSH2 0x2329 JUMPI PUSH1 0x0 DUP1 REVERT JUMPDEST PUSH1 0xFD SLOAD PUSH1 0x0 SWAP1 PUSH2 0x2341 SWAP1 PUSH1 0x1 PUSH1 0x1 PUSH1 0xA0 SHL SUB AND PUSH2 0x3EF1 JUMP JUMPDEST SWAP1 POP PUSH1 0x0 PUSH1 0x40 MLOAD DUP1 PUSH2 0x120 ADD PUSH1 0x40 MSTORE DUP1 DUP4 PUSH1 0x1 PUSH1 0x1 PUSH1 0xA0 SHL SUB AND DUP2 MSTORE PUSH1 0x20 ADD CALLER PUSH1 0x1 PUSH1 0x1 PUSH1 0xA0 SHL SUB AND DUP2 MSTORE PUSH1 0x20 ADD TIMESTAMP DUP2 MSTORE PUSH1 0x20 ADD PUSH1 0x0 DUP2 MSTORE PUSH1 0x20 ADD DUP6 DUP2 MSTORE PUSH1 0x20 ADD PUSH1 0x0 DUP2 MSTORE PUSH1 0x20 ADD PUSH1 0x0 ISZERO ISZERO DUP2 MSTORE PUSH1 0x20 ADD PUSH1 0x0 ISZERO ISZERO DUP2 MSTORE PUSH1 0x20 ADD PUSH1 0x1 ISZERO ISZERO DUP2 MSTORE POP SWAP1 POP PUSH2 0x10D DUP2 SWAP1 DUP1 PUSH1 0x1 DUP2 SLOAD ADD DUP1 DUP3 SSTORE DUP1 SWAP2 POP POP PUSH1 0x1 SWAP1 SUB SWAP1 PUSH1 0x0 MSTORE PUSH1 0x20 PUSH1 0x0 KECCAK256 SWAP1 PUSH1 0x7 MUL ADD PUSH1 0x0 SWAP1 SWAP2 SWAP1 SWAP2 SWAP1 SWAP2 POP PUSH1 0x0 DUP3 ADD MLOAD DUP2 PUSH1 0x0 ADD PUSH1 0x0 PUSH2 0x100 EXP DUP2 SLOAD DUP2 PUSH1 0x1 PUSH1 0x1 PUSH1 0xA0 SHL SUB MUL NOT AND SWAP1 DUP4 PUSH1 0x1 PUSH1 0x1 PUSH1 0xA0 SHL SUB AND MUL OR SWAP1 SSTORE POP PUSH1 0x20 DUP3 ADD MLOAD DUP2 PUSH1 0x1 ADD PUSH1 0x0 PUSH2 0x100 EXP DUP2 SLOAD DUP2 PUSH1 0x1 PUSH1 0x1 PUSH1 0xA0 SHL SUB MUL NOT AND SWAP1 DUP4 PUSH1 0x1 PUSH1 0x1 PUSH1 0xA0 SHL SUB AND MUL OR SWAP1 SSTORE POP PUSH1 0x40 DUP3 ADD MLOAD DUP2 PUSH1 0x2 ADD SSTORE PUSH1 0x60 DUP3 ADD MLOAD DUP2 PUSH1 0x3 ADD SSTORE PUSH1 0x80 DUP3 ADD MLOAD DUP2 PUSH1 0x4 ADD SSTORE PUSH1 0xA0 DUP3 ADD MLOAD DUP2 PUSH1 0x5 ADD SSTORE PUSH1 0xC0 DUP3 ADD MLOAD DUP2 PUSH1 0x6 ADD PUSH1 0x0 PUSH2 0x100 EXP DUP2 SLOAD DUP2 PUSH1 0xFF MUL NOT AND SWAP1 DUP4 ISZERO ISZERO MUL OR SWAP1 SSTORE POP PUSH1 0xE0 DUP3 ADD MLOAD DUP2 PUSH1 0x6 ADD PUSH1 0x1 PUSH2 0x100 EXP DUP2 SLOAD DUP2 PUSH1 0xFF MUL NOT AND SWAP1 DUP4 ISZERO ISZERO MUL OR SWAP1 SSTORE POP PUSH2 0x100 DUP3 ADD MLOAD DUP2 PUSH1 0x6 ADD PUSH1 0x2 PUSH2 0x100 EXP DUP2 SLOAD DUP2 PUSH1 0xFF MUL NOT AND SWAP1 DUP4 ISZERO ISZERO MUL OR SWAP1 SSTORE POP POP POP CALLER PUSH2 0x10F PUSH1 0x0 DUP5 PUSH1 0x1 PUSH1 0x1 PUSH1 0xA0 SHL SUB AND PUSH1 0x1 PUSH1 0x1 PUSH1 0xA0 SHL SUB AND DUP2 MSTORE PUSH1 0x20 ADD SWAP1 DUP2 MSTORE PUSH1 0x20 ADD PUSH1 0x0 KECCAK256 PUSH1 0x0 PUSH2 0x100 EXP DUP2 SLOAD DUP2 PUSH1 0x1 PUSH1 0x1 PUSH1 0xA0 SHL SUB MUL NOT AND SWAP1 DUP4 PUSH1 0x1 PUSH1 0x1 PUSH1 0xA0 SHL SUB AND MUL OR SWAP1 SSTORE POP PUSH1 0x0 PUSH2 0x251D PUSH1 0x1 PUSH2 0x10D DUP1 SLOAD SWAP1 POP PUSH2 0x3F8E SWAP1 SWAP2 SWAP1 PUSH4 0xFFFFFFFF AND JUMP JUMPDEST PUSH1 0x1 PUSH1 0x1 PUSH1 0xA0 SHL SUB DUP5 AND PUSH1 0x0 SWAP1 DUP2 MSTORE PUSH2 0x110 PUSH1 0x20 MSTORE PUSH1 0x40 SWAP1 KECCAK256 DUP2 SWAP1 SSTORE PUSH2 0x113 DUP1 SLOAD SWAP2 SWAP3 POP PUSH2 0x257E SWAP2 PUSH1 0x1 SWAP2 SWAP1 DUP9 SWAP1 DUP2 LT PUSH2 0x2567 JUMPI PUSH4 0x4E487B71 PUSH1 0xE0 SHL PUSH1 0x0 MSTORE PUSH1 0x32 PUSH1 0x4 MSTORE PUSH1 0x24 PUSH1 0x0 REVERT JUMPDEST PUSH1 0x0 SWAP2 DUP3 MSTORE PUSH1 0x20 SWAP1 SWAP2 KECCAK256 PUSH1 0x4 SWAP1 SWAP2 MUL ADD SLOAD SWAP1 PUSH2 0x3E7E JUMP JUMPDEST PUSH2 0x113 DUP7 DUP2 SLOAD DUP2 LT PUSH2 0x25A0 JUMPI PUSH4 0x4E487B71 PUSH1 0xE0 SHL PUSH1 0x0 MSTORE PUSH1 0x32 PUSH1 0x4 MSTORE PUSH1 0x24 PUSH1 0x0 REVERT JUMPDEST PUSH1 0x0 SWAP2 DUP3 MSTORE PUSH1 0x20 SWAP1 SWAP2 KECCAK256 PUSH1 0x4 SWAP1 SWAP2 MUL ADD SSTORE PUSH2 0x10E SLOAD PUSH2 0x25C0 SWAP1 PUSH1 0x1 PUSH2 0x3E7E JUMP JUMPDEST PUSH2 0x10E SSTORE PUSH1 0x40 MLOAD PUSH4 0x1488D777 PUSH1 0xE3 SHL DUP2 MSTORE ADDRESS PUSH1 0x4 DUP3 ADD MSTORE CALLER PUSH1 0x24 DUP3 ADD MSTORE PUSH1 0x1 PUSH1 0x1 PUSH1 0xA0 SHL SUB DUP5 AND SWAP1 PUSH4 0xA446BBB8 SWAP1 PUSH1 0x44 ADD PUSH1 0x0 PUSH1 0x40 MLOAD DUP1 DUP4 SUB DUP2 PUSH1 0x0 DUP8 DUP1 EXTCODESIZE ISZERO DUP1 ISZERO PUSH2 0x260B JUMPI PUSH1 0x0 DUP1 REVERT JUMPDEST POP GAS CALL ISZERO DUP1 ISZERO PUSH2 0x261F JUMPI RETURNDATASIZE PUSH1 0x0 DUP1 RETURNDATACOPY RETURNDATASIZE PUSH1 0x0 REVERT JUMPDEST POP POP CALLER PUSH1 0x0 SWAP1 DUP2 MSTORE PUSH2 0x117 PUSH1 0x20 SWAP1 DUP2 MSTORE PUSH1 0x40 SWAP2 DUP3 SWAP1 KECCAK256 SLOAD DUP3 MLOAD SWAP1 DUP2 MSTORE SWAP1 DUP2 ADD DUP10 SWAP1 MSTORE DUP5 SWAP4 POP PUSH32 0x748930993DB163C72A6BA21B8924B56908A54B4030F8D99A23458A819F6358DA SWAP3 POP ADD JUMPDEST PUSH1 0x40 MLOAD DUP1 SWAP2 SUB SWAP1 LOG2 POP POP POP POP POP JUMP JUMPDEST DUP1 CALLER PUSH1 0x1 PUSH1 0x1 PUSH1 0xA0 SHL SUB AND PUSH2 0x10F PUSH1 0x0 PUSH2 0x10D DUP5 DUP2 SLOAD DUP2 LT PUSH2 0x26AA JUMPI PUSH4 0x4E487B71 PUSH1 0xE0 SHL PUSH1 0x0 MSTORE PUSH1 0x32 PUSH1 0x4 MSTORE PUSH1 0x24 PUSH1 0x0 REVERT JUMPDEST PUSH1 0x0 SWAP2 DUP3 MSTORE PUSH1 0x20 DUP1 DUP4 KECCAK256 PUSH1 0x7 SWAP1 SWAP3 MUL SWAP1 SWAP2 ADD SLOAD PUSH1 0x1 PUSH1 0x1 PUSH1 0xA0 SHL SUB SWAP1 DUP2 AND DUP5 MSTORE SWAP1 DUP4 ADD SWAP4 SWAP1 SWAP4 MSTORE PUSH1 0x40 SWAP1 SWAP2 ADD SWAP1 KECCAK256 SLOAD AND EQ DUP1 PUSH2 0x26F9 JUMPI POP PUSH2 0x26F9 PUSH1 0x0 DUP1 MLOAD PUSH1 0x20 PUSH2 0x488B DUP4 CODECOPY DUP2 MLOAD SWAP2 MSTORE CALLER PUSH2 0x1C6B JUMP JUMPDEST PUSH2 0x2702 JUMPI PUSH1 0x0 DUP1 REVERT JUMPDEST DUP2 PUSH2 0x10D DUP2 DUP2 SLOAD DUP2 LT PUSH2 0x2725 JUMPI PUSH4 0x4E487B71 PUSH1 0xE0 SHL PUSH1 0x0 MSTORE PUSH1 0x32 PUSH1 0x4 MSTORE PUSH1 0x24 PUSH1 0x0 REVERT JUMPDEST SWAP1 PUSH1 0x0 MSTORE PUSH1 0x20 PUSH1 0x0 KECCAK256 SWAP1 PUSH1 0x7 MUL ADD PUSH1 0x6 ADD PUSH1 0x2 SWAP1 SLOAD SWAP1 PUSH2 0x100 EXP SWAP1 DIV PUSH1 0xFF AND PUSH2 0x274D JUMPI PUSH1 0x0 DUP1 REVERT JUMPDEST CALLER PUSH1 0x0 DUP2 DUP2 MSTORE PUSH2 0x117 PUSH1 0x20 MSTORE PUSH1 0x40 SWAP1 KECCAK256 SLOAD PUSH2 0x115 DUP1 SLOAD SWAP1 SWAP2 SWAP1 DUP2 LT PUSH2 0x2782 JUMPI PUSH4 0x4E487B71 PUSH1 0xE0 SHL PUSH1 0x0 MSTORE PUSH1 0x32 PUSH1 0x4 MSTORE PUSH1 0x24 PUSH1 0x0 REVERT JUMPDEST PUSH1 0x0 SWAP2 DUP3 MSTORE PUSH1 0x20 SWAP1 SWAP2 KECCAK256 PUSH1 0x3 PUSH1 0x4 SWAP1 SWAP3 MUL ADD ADD SLOAD PUSH1 0xFF AND PUSH2 0x27A2 JUMPI PUSH1 0x0 DUP1 REVERT JUMPDEST PUSH1 0x97 SLOAD PUSH1 0xFF AND ISZERO PUSH2 0x27C5 JUMPI PUSH1 0x40 MLOAD PUSH3 0x461BCD PUSH1 0xE5 SHL DUP2 MSTORE PUSH1 0x4 ADD PUSH2 0xF09 SWAP1 PUSH2 0x4753 JUMP JUMPDEST TIMESTAMP PUSH2 0x10D DUP6 DUP2 SLOAD DUP2 LT PUSH2 0x27E8 JUMPI PUSH4 0x4E487B71 PUSH1 0xE0 SHL PUSH1 0x0 MSTORE PUSH1 0x32 PUSH1 0x4 MSTORE PUSH1 0x24 PUSH1 0x0 REVERT JUMPDEST SWAP1 PUSH1 0x0 MSTORE PUSH1 0x20 PUSH1 0x0 KECCAK256 SWAP1 PUSH1 0x7 MUL ADD PUSH1 0x5 ADD SLOAD LT ISZERO PUSH2 0x2805 JUMPI PUSH1 0x0 DUP1 REVERT JUMPDEST PUSH1 0x0 DUP5 DUP2 MSTORE PUSH2 0x111 PUSH1 0x20 MSTORE PUSH1 0x40 SWAP1 KECCAK256 SLOAD PUSH1 0xFF AND ISZERO PUSH2 0x2822 JUMPI PUSH1 0x0 DUP1 REVERT JUMPDEST PUSH2 0x2868 TIMESTAMP PUSH2 0x10D DUP7 DUP2 SLOAD DUP2 LT PUSH2 0x2848 JUMPI PUSH4 0x4E487B71 PUSH1 0xE0 SHL PUSH1 0x0 MSTORE PUSH1 0x32 PUSH1 0x4 MSTORE PUSH1 0x24 PUSH1 0x0 REVERT JUMPDEST SWAP1 PUSH1 0x0 MSTORE PUSH1 0x20 PUSH1 0x0 KECCAK256 SWAP1 PUSH1 0x7 MUL ADD PUSH1 0x5 ADD SLOAD PUSH2 0x3F8E SWAP1 SWAP2 SWAP1 PUSH4 0xFFFFFFFF AND JUMP JUMPDEST PUSH1 0x0 DUP6 DUP2 MSTORE PUSH2 0x112 PUSH1 0x20 SWAP1 DUP2 MSTORE PUSH1 0x40 DUP1 DUP4 KECCAK256 SWAP4 SWAP1 SWAP4 SSTORE PUSH2 0x111 SWAP1 MSTORE DUP2 DUP2 KECCAK256 DUP1 SLOAD PUSH1 0xFF NOT AND PUSH1 0x1 OR SWAP1 SSTORE SWAP1 MLOAD DUP6 SWAP2 PUSH32 0x82D28F000CD4C874884B2707C023C6520D6E816216B64DB2C9DC841607FB1BC8 SWAP2 LOG2 POP POP POP POP JUMP JUMPDEST PUSH2 0x28C9 PUSH1 0x0 CALLER PUSH2 0x1C6B JUMP JUMPDEST PUSH2 0x28D2 JUMPI PUSH1 0x0 DUP1 REVERT JUMPDEST PUSH2 0x107E DUP2 DUP4 PUSH2 0x1434 JUMP JUMPDEST PUSH1 0x0 DUP1 MLOAD PUSH1 0x20 PUSH2 0x484B DUP4 CODECOPY DUP2 MLOAD SWAP2 MSTORE PUSH2 0x28F5 DUP2 CALLER PUSH2 0x1C6B JUMP JUMPDEST PUSH2 0x28FE JUMPI PUSH1 0x0 DUP1 REVERT JUMPDEST PUSH1 0x97 SLOAD PUSH1 0xFF AND ISZERO PUSH2 0x2921 JUMPI PUSH1 0x40 MLOAD PUSH3 0x461BCD PUSH1 0xE5 SHL DUP2 MSTORE PUSH1 0x4 ADD PUSH2 0xF09 SWAP1 PUSH2 0x4753 JUMP JUMPDEST PUSH1 0x40 DUP1 MLOAD PUSH1 0xA0 DUP2 ADD DUP3 MSTORE PUSH1 0x0 DUP1 DUP3 MSTORE TIMESTAMP PUSH1 0x20 DUP4 ADD SWAP1 DUP2 MSTORE SWAP3 DUP3 ADD DUP2 DUP2 MSTORE DUP6 ISZERO ISZERO PUSH1 0x60 DUP5 ADD SWAP1 DUP2 MSTORE PUSH1 0x1 PUSH1 0x80 DUP6 ADD DUP2 DUP2 MSTORE PUSH2 0x113 DUP1 SLOAD DUP1 DUP5 ADD DUP3 SSTORE SWAP6 MSTORE DUP6 MLOAD PUSH32 0x1AF827780C8EEAD77DC5A11451291F18043AA94313F832DE8F85D1D7264809CC PUSH1 0x4 SWAP1 SWAP7 MUL SWAP6 DUP7 ADD SSTORE SWAP6 MLOAD PUSH32 0x1AF827780C8EEAD77DC5A11451291F18043AA94313F832DE8F85D1D7264809CD DUP6 ADD SSTORE SWAP2 MLOAD PUSH32 0x1AF827780C8EEAD77DC5A11451291F18043AA94313F832DE8F85D1D7264809CE DUP5 ADD SSTORE MLOAD PUSH32 0x1AF827780C8EEAD77DC5A11451291F18043AA94313F832DE8F85D1D7264809CF SWAP1 SWAP3 ADD DUP1 SLOAD SWAP5 MLOAD PUSH2 0xFFFF NOT SWAP1 SWAP6 AND SWAP3 ISZERO ISZERO PUSH2 0xFF00 NOT AND SWAP3 SWAP1 SWAP3 OR PUSH2 0x100 SWAP5 ISZERO ISZERO SWAP5 SWAP1 SWAP5 MUL SWAP4 SWAP1 SWAP4 OR SWAP1 SSTORE PUSH2 0x114 SLOAD SWAP1 SWAP2 PUSH2 0x2A31 SWAP2 SWAP1 PUSH2 0x3E7E JUMP JUMPDEST PUSH2 0x114 SSTORE PUSH2 0x113 SLOAD PUSH2 0x2A44 SWAP1 PUSH1 0x1 PUSH2 0x3F8E JUMP JUMPDEST PUSH1 0x40 MLOAD DUP5 ISZERO ISZERO DUP2 MSTORE PUSH32 0xEF8E5354AA4D7EC987C76EC8AA61EAAF4452BB146EDD20FCA8E52531B3DDDBB8 SWAP1 PUSH1 0x20 ADD PUSH2 0x1239 JUMP JUMPDEST PUSH2 0x118 DUP2 DUP2 SLOAD DUP2 LT PUSH2 0x2A87 JUMPI PUSH1 0x0 DUP1 REVERT JUMPDEST PUSH1 0x0 SWAP2 DUP3 MSTORE PUSH1 0x20 SWAP1 SWAP2 KECCAK256 PUSH1 0x5 SWAP1 SWAP2 MUL ADD DUP1 SLOAD PUSH1 0x1 DUP3 ADD SLOAD PUSH1 0x2 DUP4 ADD SLOAD PUSH1 0x3 DUP5 ADD SLOAD PUSH1 0x4 SWAP1 SWAP5 ADD SLOAD SWAP3 SWAP5 POP SWAP1 SWAP3 SWAP1 SWAP2 PUSH1 0xFF AND DUP6 JUMP JUMPDEST DUP1 CALLER PUSH1 0x1 PUSH1 0x1 PUSH1 0xA0 SHL SUB AND PUSH2 0x10F PUSH1 0x0 PUSH2 0x10D DUP5 DUP2 SLOAD DUP2 LT PUSH2 0x2AED JUMPI PUSH4 0x4E487B71 PUSH1 0xE0 SHL PUSH1 0x0 MSTORE PUSH1 0x32 PUSH1 0x4 MSTORE PUSH1 0x24 PUSH1 0x0 REVERT JUMPDEST PUSH1 0x0 SWAP2 DUP3 MSTORE PUSH1 0x20 DUP1 DUP4 KECCAK256 PUSH1 0x7 SWAP1 SWAP3 MUL SWAP1 SWAP2 ADD SLOAD PUSH1 0x1 PUSH1 0x1 PUSH1 0xA0 SHL SUB SWAP1 DUP2 AND DUP5 MSTORE SWAP1 DUP4 ADD SWAP4 SWAP1 SWAP4 MSTORE PUSH1 0x40 SWAP1 SWAP2 ADD SWAP1 KECCAK256 SLOAD AND EQ DUP1 PUSH2 0x2B3C JUMPI POP PUSH2 0x2B3C PUSH1 0x0 DUP1 MLOAD PUSH1 0x20 PUSH2 0x488B DUP4 CODECOPY DUP2 MLOAD SWAP2 MSTORE CALLER PUSH2 0x1C6B JUMP JUMPDEST PUSH2 0x2B45 JUMPI PUSH1 0x0 DUP1 REVERT JUMPDEST DUP2 PUSH2 0x10D DUP2 DUP2 SLOAD DUP2 LT PUSH2 0x2B68 JUMPI PUSH4 0x4E487B71 PUSH1 0xE0 SHL PUSH1 0x0 MSTORE PUSH1 0x32 PUSH1 0x4 MSTORE PUSH1 0x24 PUSH1 0x0 REVERT JUMPDEST SWAP1 PUSH1 0x0 MSTORE PUSH1 0x20 PUSH1 0x0 KECCAK256 SWAP1 PUSH1 0x7 MUL ADD PUSH1 0x6 ADD PUSH1 0x2 SWAP1 SLOAD SWAP1 PUSH2 0x100 EXP SWAP1 DIV PUSH1 0xFF AND PUSH2 0x2B90 JUMPI PUSH1 0x0 DUP1 REVERT JUMPDEST CALLER PUSH1 0x0 DUP2 DUP2 MSTORE PUSH2 0x117 PUSH1 0x20 MSTORE PUSH1 0x40 SWAP1 KECCAK256 SLOAD PUSH2 0x115 DUP1 SLOAD SWAP1 SWAP2 SWAP1 DUP2 LT PUSH2 0x2BC5 JUMPI PUSH4 0x4E487B71 PUSH1 0xE0 SHL PUSH1 0x0 MSTORE PUSH1 0x32 PUSH1 0x4 MSTORE PUSH1 0x24 PUSH1 0x0 REVERT JUMPDEST PUSH1 0x0 SWAP2 DUP3 MSTORE PUSH1 0x20 SWAP1 SWAP2 KECCAK256 PUSH1 0x3 PUSH1 0x4 SWAP1 SWAP3 MUL ADD ADD SLOAD PUSH1 0xFF AND PUSH2 0x2BE5 JUMPI PUSH1 0x0 DUP1 REVERT JUMPDEST PUSH1 0x97 SLOAD PUSH1 0xFF AND ISZERO PUSH2 0x2C08 JUMPI PUSH1 0x40 MLOAD PUSH3 0x461BCD PUSH1 0xE5 SHL DUP2 MSTORE PUSH1 0x4 ADD PUSH2 0xF09 SWAP1 PUSH2 0x4753 JUMP JUMPDEST PUSH1 0x0 DUP5 DUP2 MSTORE PUSH2 0x111 PUSH1 0x20 MSTORE PUSH1 0x40 SWAP1 KECCAK256 SLOAD PUSH1 0xFF AND PUSH2 0x2C24 JUMPI PUSH1 0x0 DUP1 REVERT JUMPDEST PUSH1 0x0 DUP5 DUP2 MSTORE PUSH2 0x111 PUSH1 0x20 SWAP1 DUP2 MSTORE PUSH1 0x40 DUP1 DUP4 KECCAK256 DUP1 SLOAD PUSH1 0xFF NOT AND SWAP1 SSTORE PUSH2 0x112 SWAP1 SWAP2 MSTORE SWAP1 KECCAK256 SLOAD PUSH2 0x10D DUP1 SLOAD PUSH2 0x2C70 SWAP3 SWAP2 SWAP1 DUP8 SWAP1 DUP2 LT PUSH2 0x200D JUMPI PUSH4 0x4E487B71 PUSH1 0xE0 SHL PUSH1 0x0 MSTORE PUSH1 0x32 PUSH1 0x4 MSTORE PUSH1 0x24 PUSH1 0x0 REVERT JUMPDEST PUSH2 0x10D DUP6 DUP2 SLOAD DUP2 LT PUSH2 0x2C92 JUMPI PUSH4 0x4E487B71 PUSH1 0xE0 SHL PUSH1 0x0 MSTORE PUSH1 0x32 PUSH1 0x4 MSTORE PUSH1 0x24 PUSH1 0x0 REVERT JUMPDEST PUSH1 0x0 SWAP2 DUP3 MSTORE PUSH1 0x20 DUP1 DUP4 KECCAK256 PUSH1 0x7 SWAP3 SWAP1 SWAP3 MUL SWAP1 SWAP2 ADD PUSH1 0x5 ADD SWAP3 SWAP1 SWAP3 SSTORE DUP6 DUP2 MSTORE PUSH2 0x112 DUP3 MSTORE PUSH1 0x40 DUP1 DUP3 KECCAK256 DUP3 SWAP1 SSTORE MLOAD SWAP1 DUP2 MSTORE DUP6 SWAP2 PUSH32 0x927407AB4B40FFD5FB5377F8FBECE3DC25B2B015996D2073EA0CB7D3D144501C SWAP2 ADD JUMPDEST PUSH1 0x40 MLOAD DUP1 SWAP2 SUB SWAP1 LOG2 POP POP POP POP JUMP JUMPDEST PUSH1 0x97 SLOAD PUSH1 0xFF AND ISZERO PUSH2 0x2D17 JUMPI PUSH1 0x40 MLOAD PUSH3 0x461BCD PUSH1 0xE5 SHL DUP2 MSTORE PUSH1 0x4 ADD PUSH2 0xF09 SWAP1 PUSH2 0x4753 JUMP JUMPDEST PUSH1 0x40 DUP1 MLOAD PUSH1 0xA0 DUP2 ADD DUP3 MSTORE CALLER DUP2 MSTORE TIMESTAMP PUSH1 0x20 DUP3 ADD SWAP1 DUP2 MSTORE PUSH1 0x0 SWAP3 DUP3 ADD DUP4 DUP2 MSTORE PUSH1 0x60 DUP4 ADD DUP5 DUP2 MSTORE PUSH1 0x1 PUSH1 0x80 DUP6 ADD DUP2 DUP2 MSTORE PUSH2 0x115 DUP1 SLOAD DUP1 DUP5 ADD DUP3 SSTORE SWAP8 DUP2 SWAP1 MSTORE SWAP6 MLOAD PUSH32 0x77886EE853A0F02C8259429C7BFCA08679CA3AB8BDEC2C3BD5CCA8557E06493A PUSH1 0x4 SWAP1 SWAP9 MUL SWAP8 DUP9 ADD DUP1 SLOAD PUSH1 0x1 PUSH1 0x1 PUSH1 0xA0 SHL SUB NOT AND PUSH1 0x1 PUSH1 0x1 PUSH1 0xA0 SHL SUB SWAP1 SWAP3 AND SWAP2 SWAP1 SWAP2 OR SWAP1 SSTORE SWAP4 MLOAD PUSH32 0x77886EE853A0F02C8259429C7BFCA08679CA3AB8BDEC2C3BD5CCA8557E06493B DUP8 ADD SSTORE SWAP2 MLOAD PUSH32 0x77886EE853A0F02C8259429C7BFCA08679CA3AB8BDEC2C3BD5CCA8557E06493C DUP7 ADD SSTORE MLOAD PUSH32 0x77886EE853A0F02C8259429C7BFCA08679CA3AB8BDEC2C3BD5CCA8557E06493D SWAP1 SWAP5 ADD DUP1 SLOAD SWAP3 MLOAD PUSH2 0xFFFF NOT SWAP1 SWAP4 AND SWAP5 ISZERO ISZERO PUSH2 0xFF00 NOT AND SWAP5 SWAP1 SWAP5 OR PUSH2 0x100 SWAP3 ISZERO ISZERO SWAP3 SWAP1 SWAP3 MUL SWAP2 SWAP1 SWAP2 OR SWAP1 SWAP3 SSTORE SLOAD PUSH2 0x2E3D SWAP2 PUSH2 0x3F8E JUMP JUMPDEST CALLER PUSH1 0x0 SWAP1 DUP2 MSTORE PUSH2 0x117 PUSH1 0x20 MSTORE PUSH1 0x40 SWAP1 KECCAK256 SSTORE PUSH2 0x116 SLOAD PUSH2 0x2E5D SWAP1 PUSH1 0x1 PUSH2 0x3E7E JUMP JUMPDEST PUSH2 0x116 SSTORE PUSH2 0x115 SLOAD PUSH2 0x2E70 SWAP1 PUSH1 0x1 PUSH2 0x3F8E JUMP JUMPDEST PUSH1 0x40 MLOAD PUSH32 0x27412BB19840B11057DEE7C7019767312555C4497D8D4C2383FA6B7791BF014B SWAP1 PUSH1 0x0 SWAP1 LOG2 JUMP JUMPDEST PUSH1 0x0 DUP1 MLOAD PUSH1 0x20 PUSH2 0x488B DUP4 CODECOPY DUP2 MLOAD SWAP2 MSTORE PUSH2 0x2EB4 DUP2 CALLER PUSH2 0x1C6B JUMP JUMPDEST PUSH2 0x2EBD JUMPI PUSH1 0x0 DUP1 REVERT JUMPDEST DUP3 PUSH2 0x10D DUP2 DUP2 SLOAD DUP2 LT PUSH2 0x2EE0 JUMPI PUSH4 0x4E487B71 PUSH1 0xE0 SHL PUSH1 0x0 MSTORE PUSH1 0x32 PUSH1 0x4 MSTORE PUSH1 0x24 PUSH1 0x0 REVERT JUMPDEST SWAP1 PUSH1 0x0 MSTORE PUSH1 0x20 PUSH1 0x0 KECCAK256 SWAP1 PUSH1 0x7 MUL ADD PUSH1 0x6 ADD PUSH1 0x2 SWAP1 SLOAD SWAP1 PUSH2 0x100 EXP SWAP1 DIV PUSH1 0xFF AND PUSH2 0x2F08 JUMPI PUSH1 0x0 DUP1 REVERT JUMPDEST PUSH1 0x97 SLOAD PUSH1 0xFF AND ISZERO PUSH2 0x2F2B JUMPI PUSH1 0x40 MLOAD PUSH3 0x461BCD PUSH1 0xE5 SHL DUP2 MSTORE PUSH1 0x4 ADD PUSH2 0xF09 SWAP1 PUSH2 0x4753 JUMP JUMPDEST DUP3 PUSH2 0x10D DUP6 DUP2 SLOAD DUP2 LT PUSH2 0x2F4E JUMPI PUSH4 0x4E487B71 PUSH1 0xE0 SHL PUSH1 0x0 MSTORE PUSH1 0x32 PUSH1 0x4 MSTORE PUSH1 0x24 PUSH1 0x0 REVERT JUMPDEST SWAP1 PUSH1 0x0 MSTORE PUSH1 0x20 PUSH1 0x0 KECCAK256 SWAP1 PUSH1 0x7 MUL ADD PUSH1 0x6 ADD PUSH1 0x1 PUSH2 0x100 EXP DUP2 SLOAD DUP2 PUSH1 0xFF MUL NOT AND SWAP1 DUP4 ISZERO ISZERO MUL OR SWAP1 SSTORE POP TIMESTAMP PUSH2 0x10D DUP6 DUP2 SLOAD DUP2 LT PUSH2 0x2F99 JUMPI PUSH4 0x4E487B71 PUSH1 0xE0 SHL PUSH1 0x0 MSTORE PUSH1 0x32 PUSH1 0x4 MSTORE PUSH1 0x24 PUSH1 0x0 REVERT JUMPDEST SWAP1 PUSH1 0x0 MSTORE PUSH1 0x20 PUSH1 0x0 KECCAK256 SWAP1 PUSH1 0x7 MUL ADD PUSH1 0x3 ADD DUP2 SWAP1 SSTORE POP DUP4 PUSH32 0xB19793156C2B66D3CDCADA0EC63EA2961A44BF70901294973CC2F7848970634E DUP5 PUSH1 0x40 MLOAD PUSH2 0x2CE6 SWAP2 ISZERO ISZERO DUP2 MSTORE PUSH1 0x20 ADD SWAP1 JUMP JUMPDEST DUP2 CALLER PUSH1 0x1 PUSH1 0x1 PUSH1 0xA0 SHL SUB AND PUSH2 0x10F PUSH1 0x0 PUSH2 0x10D DUP5 DUP2 SLOAD DUP2 LT PUSH2 0x3014 JUMPI PUSH4 0x4E487B71 PUSH1 0xE0 SHL PUSH1 0x0 MSTORE PUSH1 0x32 PUSH1 0x4 MSTORE PUSH1 0x24 PUSH1 0x0 REVERT JUMPDEST PUSH1 0x0 SWAP2 DUP3 MSTORE PUSH1 0x20 DUP1 DUP4 KECCAK256 PUSH1 0x7 SWAP1 SWAP3 MUL SWAP1 SWAP2 ADD SLOAD PUSH1 0x1 PUSH1 0x1 PUSH1 0xA0 SHL SUB SWAP1 DUP2 AND DUP5 MSTORE SWAP1 DUP4 ADD SWAP4 SWAP1 SWAP4 MSTORE PUSH1 0x40 SWAP1 SWAP2 ADD SWAP1 KECCAK256 SLOAD AND EQ DUP1 PUSH2 0x3063 JUMPI POP PUSH2 0x3063 PUSH1 0x0 DUP1 MLOAD PUSH1 0x20 PUSH2 0x488B DUP4 CODECOPY DUP2 MLOAD SWAP2 MSTORE CALLER PUSH2 0x1C6B JUMP JUMPDEST PUSH2 0x306C JUMPI PUSH1 0x0 DUP1 REVERT JUMPDEST DUP3 PUSH2 0x10D DUP2 DUP2 SLOAD DUP2 LT PUSH2 0x308F JUMPI PUSH4 0x4E487B71 PUSH1 0xE0 SHL PUSH1 0x0 MSTORE PUSH1 0x32 PUSH1 0x4 MSTORE PUSH1 0x24 PUSH1 0x0 REVERT JUMPDEST SWAP1 PUSH1 0x0 MSTORE PUSH1 0x20 PUSH1 0x0 KECCAK256 SWAP1 PUSH1 0x7 MUL ADD PUSH1 0x6 ADD PUSH1 0x2 SWAP1 SLOAD SWAP1 PUSH2 0x100 EXP SWAP1 DIV PUSH1 0xFF AND PUSH2 0x30B7 JUMPI PUSH1 0x0 DUP1 REVERT JUMPDEST PUSH1 0x97 SLOAD PUSH1 0xFF AND ISZERO PUSH2 0x30DA JUMPI PUSH1 0x40 MLOAD PUSH3 0x461BCD PUSH1 0xE5 SHL DUP2 MSTORE PUSH1 0x4 ADD PUSH2 0xF09 SWAP1 PUSH2 0x4753 JUMP JUMPDEST PUSH1 0x0 PUSH2 0x10D DUP6 DUP2 SLOAD DUP2 LT PUSH2 0x30FE JUMPI PUSH4 0x4E487B71 PUSH1 0xE0 SHL PUSH1 0x0 MSTORE PUSH1 0x32 PUSH1 0x4 MSTORE PUSH1 0x24 PUSH1 0x0 REVERT JUMPDEST SWAP1 PUSH1 0x0 MSTORE PUSH1 0x20 PUSH1 0x0 KECCAK256 SWAP1 PUSH1 0x7 MUL ADD PUSH1 0x4 ADD SLOAD SWAP1 POP DUP4 DUP2 EQ PUSH2 0x32D8 JUMPI PUSH2 0x113 DUP5 DUP2 SLOAD DUP2 LT PUSH2 0x313B JUMPI PUSH4 0x4E487B71 PUSH1 0xE0 SHL PUSH1 0x0 MSTORE PUSH1 0x32 PUSH1 0x4 MSTORE PUSH1 0x24 PUSH1 0x0 REVERT JUMPDEST SWAP1 PUSH1 0x0 MSTORE PUSH1 0x20 PUSH1 0x0 KECCAK256 SWAP1 PUSH1 0x4 MUL ADD PUSH1 0x3 ADD PUSH1 0x1 SWAP1 SLOAD SWAP1 PUSH2 0x100 EXP SWAP1 DIV PUSH1 0xFF AND PUSH2 0x3163 JUMPI PUSH1 0x0 DUP1 REVERT JUMPDEST DUP4 PUSH2 0x10D DUP7 DUP2 SLOAD DUP2 LT PUSH2 0x3186 JUMPI PUSH4 0x4E487B71 PUSH1 0xE0 SHL PUSH1 0x0 MSTORE PUSH1 0x32 PUSH1 0x4 MSTORE PUSH1 0x24 PUSH1 0x0 REVERT JUMPDEST SWAP1 PUSH1 0x0 MSTORE PUSH1 0x20 PUSH1 0x0 KECCAK256 SWAP1 PUSH1 0x7 MUL ADD PUSH1 0x4 ADD DUP2 SWAP1 SSTORE POP PUSH2 0x31D9 PUSH1 0x1 PUSH2 0x113 DUP4 DUP2 SLOAD DUP2 LT PUSH2 0x31C2 JUMPI PUSH4 0x4E487B71 PUSH1 0xE0 SHL PUSH1 0x0 MSTORE PUSH1 0x32 PUSH1 0x4 MSTORE PUSH1 0x24 PUSH1 0x0 REVERT JUMPDEST PUSH1 0x0 SWAP2 DUP3 MSTORE PUSH1 0x20 SWAP1 SWAP2 KECCAK256 PUSH1 0x4 SWAP1 SWAP2 MUL ADD SLOAD SWAP1 PUSH2 0x3F8E JUMP JUMPDEST PUSH2 0x113 DUP3 DUP2 SLOAD DUP2 LT PUSH2 0x31FB JUMPI PUSH4 0x4E487B71 PUSH1 0xE0 SHL PUSH1 0x0 MSTORE PUSH1 0x32 PUSH1 0x4 MSTORE PUSH1 0x24 PUSH1 0x0 REVERT JUMPDEST SWAP1 PUSH1 0x0 MSTORE PUSH1 0x20 PUSH1 0x0 KECCAK256 SWAP1 PUSH1 0x4 MUL ADD PUSH1 0x0 ADD DUP2 SWAP1 SSTORE POP PUSH2 0x3237 PUSH1 0x1 PUSH2 0x113 DUP7 DUP2 SLOAD DUP2 LT PUSH2 0x2567 JUMPI PUSH4 0x4E487B71 PUSH1 0xE0 SHL PUSH1 0x0 MSTORE PUSH1 0x32 PUSH1 0x4 MSTORE PUSH1 0x24 PUSH1 0x0 REVERT JUMPDEST PUSH2 0x113 DUP6 DUP2 SLOAD DUP2 LT PUSH2 0x3259 JUMPI PUSH4 0x4E487B71 PUSH1 0xE0 SHL PUSH1 0x0 MSTORE PUSH1 0x32 PUSH1 0x4 MSTORE PUSH1 0x24 PUSH1 0x0 REVERT JUMPDEST SWAP1 PUSH1 0x0 MSTORE PUSH1 0x20 PUSH1 0x0 KECCAK256 SWAP1 PUSH1 0x4 MUL ADD PUSH1 0x0 ADD DUP2 SWAP1 SSTORE POP TIMESTAMP PUSH2 0x10D DUP7 DUP2 SLOAD DUP2 LT PUSH2 0x3291 JUMPI PUSH4 0x4E487B71 PUSH1 0xE0 SHL PUSH1 0x0 MSTORE PUSH1 0x32 PUSH1 0x4 MSTORE PUSH1 0x24 PUSH1 0x0 REVERT JUMPDEST SWAP1 PUSH1 0x0 MSTORE PUSH1 0x20 PUSH1 0x0 KECCAK256 SWAP1 PUSH1 0x7 MUL ADD PUSH1 0x3 ADD DUP2 SWAP1 SSTORE POP DUP5 PUSH32 0x766A4F113E498F514DCF4973E7B53C52D3F831566F24A46D16B6A9E60F0DCAF1 DUP6 PUSH1 0x40 MLOAD PUSH2 0x2669 SWAP2 DUP2 MSTORE PUSH1 0x20 ADD SWAP1 JUMP JUMPDEST POP POP POP POP POP JUMP JUMPDEST PUSH1 0x0 DUP1 MLOAD PUSH1 0x20 PUSH2 0x486B DUP4 CODECOPY DUP2 MLOAD SWAP2 MSTORE PUSH2 0x32F8 DUP2 CALLER PUSH2 0x1C6B JUMP JUMPDEST PUSH2 0x3301 JUMPI PUSH1 0x0 DUP1 REVERT JUMPDEST PUSH1 0x97 SLOAD PUSH1 0xFF AND ISZERO PUSH2 0x3324 JUMPI PUSH1 0x40 MLOAD PUSH3 0x461BCD PUSH1 0xE5 SHL DUP2 MSTORE PUSH1 0x4 ADD PUSH2 0xF09 SWAP1 PUSH2 0x4753 JUMP JUMPDEST PUSH1 0x0 PUSH2 0x115 DUP4 DUP2 SLOAD DUP2 LT PUSH2 0x3348 JUMPI PUSH4 0x4E487B71 PUSH1 0xE0 SHL PUSH1 0x0 MSTORE PUSH1 0x32 PUSH1 0x4 MSTORE PUSH1 0x24 PUSH1 0x0 REVERT JUMPDEST SWAP1 PUSH1 0x0 MSTORE PUSH1 0x20 PUSH1 0x0 KECCAK256 SWAP1 PUSH1 0x4 MUL ADD SWAP1 POP DUP1 PUSH1 0x3 ADD PUSH1 0x1 SWAP1 SLOAD SWAP1 PUSH2 0x100 EXP SWAP1 DIV PUSH1 0xFF AND PUSH2 0x3373 JUMPI PUSH1 0x0 DUP1 REVERT JUMPDEST PUSH2 0x115 DUP4 DUP2 SLOAD DUP2 LT PUSH2 0x3395 JUMPI PUSH4 0x4E487B71 PUSH1 0xE0 SHL PUSH1 0x0 MSTORE PUSH1 0x32 PUSH1 0x4 MSTORE PUSH1 0x24 PUSH1 0x0 REVERT JUMPDEST PUSH1 0x0 SWAP2 DUP3 MSTORE PUSH1 0x20 DUP3 KECCAK256 PUSH1 0x4 SWAP1 SWAP2 MUL ADD DUP1 SLOAD PUSH1 0x1 PUSH1 0x1 PUSH1 0xA0 SHL SUB NOT AND DUP2 SSTORE PUSH1 0x1 DUP2 ADD DUP3 SWAP1 SSTORE PUSH1 0x2 DUP2 ADD DUP3 SWAP1 SSTORE PUSH1 0x3 ADD DUP1 SLOAD PUSH2 0xFFFF NOT AND SWAP1 SSTORE PUSH1 0x40 MLOAD DUP5 SWAP2 PUSH32 0xAB24B62FD8AB41107C600AFAA5E4D6E14F64F253A96E231E221809B6CC7C46A6 SWAP2 LOG2 POP POP POP JUMP JUMPDEST PUSH1 0x0 DUP1 MLOAD PUSH1 0x20 PUSH2 0x484B DUP4 CODECOPY DUP2 MLOAD SWAP2 MSTORE PUSH2 0x3412 DUP2 CALLER PUSH2 0x1C6B JUMP JUMPDEST PUSH2 0x341B JUMPI PUSH1 0x0 DUP1 REVERT JUMPDEST PUSH1 0x97 SLOAD PUSH1 0xFF AND ISZERO PUSH2 0x343E JUMPI PUSH1 0x40 MLOAD PUSH3 0x461BCD PUSH1 0xE5 SHL DUP2 MSTORE PUSH1 0x4 ADD PUSH2 0xF09 SWAP1 PUSH2 0x4753 JUMP JUMPDEST PUSH2 0x113 DUP4 DUP2 SLOAD DUP2 LT PUSH2 0x3460 JUMPI PUSH4 0x4E487B71 PUSH1 0xE0 SHL PUSH1 0x0 MSTORE PUSH1 0x32 PUSH1 0x4 MSTORE PUSH1 0x24 PUSH1 0x0 REVERT JUMPDEST SWAP1 PUSH1 0x0 MSTORE PUSH1 0x20 PUSH1 0x0 KECCAK256 SWAP1 PUSH1 0x4 MUL ADD PUSH1 0x3 ADD PUSH1 0x1 SWAP1 SLOAD SWAP1 PUSH2 0x100 EXP SWAP1 DIV PUSH1 0xFF AND PUSH2 0x3488 JUMPI PUSH1 0x0 DUP1 REVERT JUMPDEST DUP2 PUSH2 0x113 DUP5 DUP2 SLOAD DUP2 LT PUSH2 0x34AB JUMPI PUSH4 0x4E487B71 PUSH1 0xE0 SHL PUSH1 0x0 MSTORE PUSH1 0x32 PUSH1 0x4 MSTORE PUSH1 0x24 PUSH1 0x0 REVERT JUMPDEST SWAP1 PUSH1 0x0 MSTORE PUSH1 0x20 PUSH1 0x0 KECCAK256 SWAP1 PUSH1 0x4 MUL ADD PUSH1 0x3 ADD PUSH1 0x0 PUSH2 0x100 EXP DUP2 SLOAD DUP2 PUSH1 0xFF MUL NOT AND SWAP1 DUP4 ISZERO ISZERO MUL OR SWAP1 SSTORE POP TIMESTAMP PUSH2 0x113 DUP5 DUP2 SLOAD DUP2 LT PUSH2 0x34F6 JUMPI PUSH4 0x4E487B71 PUSH1 0xE0 SHL PUSH1 0x0 MSTORE PUSH1 0x32 PUSH1 0x4 MSTORE PUSH1 0x24 PUSH1 0x0 REVERT JUMPDEST SWAP1 PUSH1 0x0 MSTORE PUSH1 0x20 PUSH1 0x0 KECCAK256 SWAP1 PUSH1 0x4 MUL ADD PUSH1 0x2 ADD DUP2 SWAP1 SSTORE POP DUP3 PUSH32 0x1DA4183068786BD796A4C72678CF3791931CB770A2092AD635254877A940AB9E DUP4 PUSH1 0x40 MLOAD PUSH2 0x1239 SWAP2 ISZERO ISZERO DUP2 MSTORE PUSH1 0x20 ADD SWAP1 JUMP JUMPDEST PUSH2 0x354A PUSH1 0x0 CALLER PUSH2 0x1C6B JUMP JUMPDEST PUSH2 0x3553 JUMPI PUSH1 0x0 DUP1 REVERT JUMPDEST PUSH1 0x1 PUSH1 0x1 PUSH1 0xA0 SHL SUB DUP2 AND PUSH1 0x0 SWAP1 DUP2 MSTORE PUSH2 0x109 PUSH1 0x20 MSTORE PUSH1 0x40 SWAP1 KECCAK256 SLOAD PUSH1 0xFF AND ISZERO PUSH2 0x357A JUMPI PUSH1 0x0 DUP1 REVERT JUMPDEST PUSH2 0x107 DUP1 SLOAD PUSH1 0x1 DUP2 DUP2 ADD SWAP1 SWAP3 SSTORE PUSH32 0x47C4908E245F386BFC1825973249847F4053A761DDB4880AD63C323A7B5A2A25 ADD DUP1 SLOAD PUSH1 0x1 PUSH1 0x1 PUSH1 0xA0 SHL SUB SWAP1 SWAP4 AND PUSH1 0x1 PUSH1 0x1 PUSH1 0xA0 SHL SUB NOT SWAP1 SWAP4 AND DUP4 OR SWAP1 SSTORE PUSH1 0x0 SWAP2 DUP3 MSTORE PUSH2 0x109 PUSH1 0x20 MSTORE PUSH1 0x40 SWAP1 SWAP2 KECCAK256 DUP1 SLOAD PUSH1 0xFF NOT AND SWAP1 SWAP2 OR SWAP1 SSTORE JUMP JUMPDEST PUSH1 0x0 DUP3 DUP2 MSTORE PUSH1 0x65 PUSH1 0x20 MSTORE PUSH1 0x40 SWAP1 KECCAK256 PUSH1 0x1 ADD SLOAD PUSH2 0x35FF DUP2 CALLER PUSH2 0x3D2D JUMP JUMPDEST PUSH2 0x145A DUP4 DUP4 PUSH2 0x3E17 JUMP JUMPDEST DUP2 CALLER PUSH1 0x1 PUSH1 0x1 PUSH1 0xA0 SHL SUB AND PUSH2 0x10F PUSH1 0x0 PUSH2 0x10D DUP5 DUP2 SLOAD DUP2 LT PUSH2 0x363B JUMPI PUSH4 0x4E487B71 PUSH1 0xE0 SHL PUSH1 0x0 MSTORE PUSH1 0x32 PUSH1 0x4 MSTORE PUSH1 0x24 PUSH1 0x0 REVERT JUMPDEST PUSH1 0x0 SWAP2 DUP3 MSTORE PUSH1 0x20 DUP1 DUP4 KECCAK256 PUSH1 0x7 SWAP1 SWAP3 MUL SWAP1 SWAP2 ADD SLOAD PUSH1 0x1 PUSH1 0x1 PUSH1 0xA0 SHL SUB SWAP1 DUP2 AND DUP5 MSTORE SWAP1 DUP4 ADD SWAP4 SWAP1 SWAP4 MSTORE PUSH1 0x40 SWAP1 SWAP2 ADD SWAP1 KECCAK256 SLOAD AND EQ DUP1 PUSH2 0x368A JUMPI POP PUSH2 0x368A PUSH1 0x0 DUP1 MLOAD PUSH1 0x20 PUSH2 0x488B DUP4 CODECOPY DUP2 MLOAD SWAP2 MSTORE CALLER PUSH2 0x1C6B JUMP JUMPDEST PUSH2 0x3693 JUMPI PUSH1 0x0 DUP1 REVERT JUMPDEST DUP3 PUSH2 0x10D DUP2 DUP2 SLOAD DUP2 LT PUSH2 0x36B6 JUMPI PUSH4 0x4E487B71 PUSH1 0xE0 SHL PUSH1 0x0 MSTORE PUSH1 0x32 PUSH1 0x4 MSTORE PUSH1 0x24 PUSH1 0x0 REVERT JUMPDEST SWAP1 PUSH1 0x0 MSTORE PUSH1 0x20 PUSH1 0x0 KECCAK256 SWAP1 PUSH1 0x7 MUL ADD PUSH1 0x6 ADD PUSH1 0x2 SWAP1 SLOAD SWAP1 PUSH2 0x100 EXP SWAP1 DIV PUSH1 0xFF AND PUSH2 0x36DE JUMPI PUSH1 0x0 DUP1 REVERT JUMPDEST PUSH1 0x97 SLOAD PUSH1 0xFF AND ISZERO PUSH2 0x3701 JUMPI PUSH1 0x40 MLOAD PUSH3 0x461BCD PUSH1 0xE5 SHL DUP2 MSTORE PUSH1 0x4 ADD PUSH2 0xF09 SWAP1 PUSH2 0x4753 JUMP JUMPDEST DUP3 PUSH2 0x10D DUP6 DUP2 SLOAD DUP2 LT PUSH2 0x3724 JUMPI PUSH4 0x4E487B71 PUSH1 0xE0 SHL PUSH1 0x0 MSTORE PUSH1 0x32 PUSH1 0x4 MSTORE PUSH1 0x24 PUSH1 0x0 REVERT JUMPDEST SWAP1 PUSH1 0x0 MSTORE PUSH1 0x20 PUSH1 0x0 KECCAK256 SWAP1 PUSH1 0x7 MUL ADD PUSH1 0x6 ADD PUSH1 0x0 PUSH2 0x100 EXP DUP2 SLOAD DUP2 PUSH1 0xFF MUL NOT AND SWAP1 DUP4 ISZERO ISZERO MUL OR SWAP1 SSTORE POP TIMESTAMP PUSH2 0x10D DUP6 DUP2 SLOAD DUP2 LT PUSH2 0x376F JUMPI PUSH4 0x4E487B71 PUSH1 0xE0 SHL PUSH1 0x0 MSTORE PUSH1 0x32 PUSH1 0x4 MSTORE PUSH1 0x24 PUSH1 0x0 REVERT JUMPDEST SWAP1 PUSH1 0x0 MSTORE PUSH1 0x20 PUSH1 0x0 KECCAK256 SWAP1 PUSH1 0x7 MUL ADD PUSH1 0x3 ADD DUP2 SWAP1 SSTORE POP DUP4 PUSH32 0x8E5684140BBC2280B632DDC33889D57F6105D80AD9B5E8042EEA7EE2CDBF7895 DUP5 PUSH1 0x40 MLOAD PUSH2 0x2CE6 SWAP2 ISZERO ISZERO DUP2 MSTORE PUSH1 0x20 ADD SWAP1 JUMP JUMPDEST PUSH2 0x37C3 PUSH1 0x0 CALLER PUSH2 0x1C6B JUMP JUMPDEST PUSH2 0x37CC JUMPI PUSH1 0x0 DUP1 REVERT JUMPDEST PUSH1 0x97 SLOAD PUSH1 0xFF AND ISZERO PUSH2 0x37EF JUMPI PUSH1 0x40 MLOAD PUSH3 0x461BCD PUSH1 0xE5 SHL DUP2 MSTORE PUSH1 0x4 ADD PUSH2 0xF09 SWAP1 PUSH2 0x4753 JUMP JUMPDEST PUSH1 0x40 DUP1 MLOAD PUSH1 0xA0 DUP2 ADD DUP3 MSTORE TIMESTAMP DUP2 MSTORE PUSH1 0x0 PUSH1 0x20 DUP3 ADD DUP2 DUP2 MSTORE SWAP3 DUP3 ADD DUP5 DUP2 MSTORE PUSH1 0x60 DUP4 ADD DUP7 DUP2 MSTORE PUSH1 0x1 PUSH1 0x80 DUP6 ADD DUP2 DUP2 MSTORE PUSH2 0x118 DUP1 SLOAD DUP1 DUP5 ADD DUP3 SSTORE SWAP6 MSTORE SWAP5 MLOAD PUSH32 0x98E7DEB247CC158D01ECF635E1727D4C1AD65177ED51D3C365B299B8A5E12E24 PUSH1 0x5 SWAP1 SWAP6 MUL SWAP5 DUP6 ADD SSTORE SWAP5 MLOAD PUSH32 0x98E7DEB247CC158D01ECF635E1727D4C1AD65177ED51D3C365B299B8A5E12E25 DUP5 ADD SSTORE SWAP1 MLOAD PUSH32 0x98E7DEB247CC158D01ECF635E1727D4C1AD65177ED51D3C365B299B8A5E12E26 DUP4 ADD SSTORE MLOAD PUSH32 0x98E7DEB247CC158D01ECF635E1727D4C1AD65177ED51D3C365B299B8A5E12E27 DUP3 ADD SSTORE SWAP1 MLOAD PUSH32 0x98E7DEB247CC158D01ECF635E1727D4C1AD65177ED51D3C365B299B8A5E12E28 SWAP1 SWAP2 ADD DUP1 SLOAD PUSH1 0xFF NOT AND SWAP2 ISZERO ISZERO SWAP2 SWAP1 SWAP2 OR SWAP1 SSTORE PUSH2 0x119 SLOAD PUSH2 0x3906 SWAP2 PUSH2 0x3E7E JUMP JUMPDEST PUSH2 0x119 SSTORE PUSH2 0x118 SLOAD PUSH2 0x3919 SWAP1 PUSH1 0x1 PUSH2 0x3F8E JUMP JUMPDEST PUSH1 0x40 DUP1 MLOAD DUP5 DUP2 MSTORE PUSH1 0x20 DUP2 ADD DUP5 SWAP1 MSTORE PUSH32 0x1C879E94B1E18A1A756E3F54417588907394C58D3AA6A0CC5119E5FABC091BFC SWAP2 ADD PUSH1 0x40 MLOAD DUP1 SWAP2 SUB SWAP1 LOG2 POP POP JUMP JUMPDEST PUSH1 0x1 PUSH1 0x1 PUSH1 0xA0 SHL SUB DUP2 AND PUSH1 0x0 SWAP1 DUP2 MSTORE PUSH2 0x110 PUSH1 0x20 MSTORE PUSH1 0x40 DUP2 KECCAK256 SLOAD PUSH2 0x10D DUP1 SLOAD SWAP2 SWAP3 CALLER SWAP3 PUSH2 0x10F SWAP3 SWAP1 DUP6 SWAP1 DUP2 LT PUSH2 0x399C JUMPI PUSH4 0x4E487B71 PUSH1 0xE0 SHL PUSH1 0x0 MSTORE PUSH1 0x32 PUSH1 0x4 MSTORE PUSH1 0x24 PUSH1 0x0 REVERT JUMPDEST PUSH1 0x0 SWAP2 DUP3 MSTORE PUSH1 0x20 DUP1 DUP4 KECCAK256 PUSH1 0x7 SWAP1 SWAP3 MUL SWAP1 SWAP2 ADD SLOAD PUSH1 0x1 PUSH1 0x1 PUSH1 0xA0 SHL SUB SWAP1 DUP2 AND DUP5 MSTORE SWAP1 DUP4 ADD SWAP4 SWAP1 SWAP4 MSTORE PUSH1 0x40 SWAP1 SWAP2 ADD SWAP1 KECCAK256 SLOAD AND EQ PUSH2 0x39D6 JUMPI PUSH1 0x0 DUP1 REVERT JUMPDEST PUSH1 0x1 PUSH1 0x1 PUSH1 0xA0 SHL SUB DUP3 AND PUSH1 0x0 SWAP1 DUP2 MSTORE PUSH2 0x110 PUSH1 0x20 MSTORE PUSH1 0x40 SWAP1 KECCAK256 SLOAD PUSH2 0x10D DUP1 SLOAD DUP3 SWAP1 DUP2 LT PUSH2 0x3A13 JUMPI PUSH4 0x4E487B71 PUSH1 0xE0 SHL PUSH1 0x0 MSTORE PUSH1 0x32 PUSH1 0x4 MSTORE PUSH1 0x24 PUSH1 0x0 REVERT JUMPDEST SWAP1 PUSH1 0x0 MSTORE PUSH1 0x20 PUSH1 0x0 KECCAK256 SWAP1 PUSH1 0x7 MUL ADD PUSH1 0x6 ADD PUSH1 0x1 SWAP1 SLOAD SWAP1 PUSH2 0x100 EXP SWAP1 DIV PUSH1 0xFF AND DUP1 ISZERO PUSH2 0x3A73 JUMPI POP PUSH2 0x10D DUP2 DUP2 SLOAD DUP2 LT PUSH2 0x3A5B JUMPI PUSH4 0x4E487B71 PUSH1 0xE0 SHL PUSH1 0x0 MSTORE PUSH1 0x32 PUSH1 0x4 MSTORE PUSH1 0x24 PUSH1 0x0 REVERT JUMPDEST PUSH1 0x0 SWAP2 DUP3 MSTORE PUSH1 0x20 SWAP1 SWAP2 KECCAK256 PUSH1 0x6 PUSH1 0x7 SWAP1 SWAP3 MUL ADD ADD SLOAD PUSH1 0xFF AND JUMPDEST PUSH2 0x3A7C JUMPI PUSH1 0x0 DUP1 REVERT JUMPDEST PUSH1 0x1 PUSH1 0x1 PUSH1 0xA0 SHL SUB DUP4 AND PUSH1 0x0 SWAP1 DUP2 MSTORE PUSH2 0x110 PUSH1 0x20 MSTORE PUSH1 0x40 SWAP1 KECCAK256 SLOAD PUSH2 0x10D DUP1 SLOAD DUP3 SWAP1 DUP2 LT PUSH2 0x3AB9 JUMPI PUSH4 0x4E487B71 PUSH1 0xE0 SHL PUSH1 0x0 MSTORE PUSH1 0x32 PUSH1 0x4 MSTORE PUSH1 0x24 PUSH1 0x0 REVERT JUMPDEST SWAP1 PUSH1 0x0 MSTORE PUSH1 0x20 PUSH1 0x0 KECCAK256 SWAP1 PUSH1 0x7 MUL ADD PUSH1 0x6 ADD PUSH1 0x2 SWAP1 SLOAD SWAP1 PUSH2 0x100 EXP SWAP1 DIV PUSH1 0xFF AND PUSH2 0x3AE1 JUMPI PUSH1 0x0 DUP1 REVERT JUMPDEST PUSH1 0x1 PUSH1 0x1 PUSH1 0xA0 SHL SUB DUP5 AND PUSH1 0x0 SWAP1 DUP2 MSTORE PUSH2 0x110 PUSH1 0x20 SWAP1 DUP2 MSTORE PUSH1 0x40 DUP1 DUP4 KECCAK256 SLOAD DUP4 MSTORE PUSH2 0x10B SWAP1 SWAP2 MSTORE SWAP1 KECCAK256 SLOAD PUSH2 0x3B13 SWAP1 DUP7 PUSH2 0x3E7E JUMP JUMPDEST PUSH1 0x1 PUSH1 0x1 PUSH1 0xA0 SHL SUB DUP6 AND PUSH1 0x0 SWAP1 DUP2 MSTORE PUSH2 0x110 PUSH1 0x20 SWAP1 DUP2 MSTORE PUSH1 0x40 DUP1 DUP4 KECCAK256 SLOAD DUP4 MSTORE PUSH2 0x10B SWAP1 SWAP2 MSTORE SWAP1 KECCAK256 SSTORE PUSH2 0x106 SLOAD PUSH2 0x3B49 SWAP1 DUP7 PUSH2 0x3E7E JUMP JUMPDEST PUSH2 0x106 SSTORE POP POP POP POP POP JUMP JUMPDEST PUSH2 0x3B5F PUSH1 0x0 CALLER PUSH2 0x1C6B JUMP JUMPDEST PUSH2 0x3B68 JUMPI PUSH1 0x0 DUP1 REVERT JUMPDEST PUSH1 0x1 PUSH1 0x1 PUSH1 0xA0 SHL SUB DUP11 AND ISZERO DUP1 ISZERO SWAP1 PUSH2 0x3B88 JUMPI POP PUSH1 0x1 PUSH1 0x1 PUSH1 0xA0 SHL SUB DUP10 AND ISZERO ISZERO JUMPDEST PUSH2 0x3B91 JUMPI PUSH1 0x0 DUP1 REVERT JUMPDEST PUSH1 0xFC DUP1 SLOAD PUSH1 0x1 PUSH1 0x1 PUSH1 0xA0 SHL SUB SWAP12 DUP13 AND PUSH1 0x1 PUSH1 0x1 PUSH1 0xA0 SHL SUB NOT SWAP2 DUP3 AND OR SWAP1 SWAP2 SSTORE PUSH1 0xFD DUP1 SLOAD SWAP11 SWAP1 SWAP12 AND SWAP10 AND SWAP9 SWAP1 SWAP9 OR SWAP1 SWAP9 SSTORE PUSH1 0xFE SWAP6 SWAP1 SWAP6 SSTORE PUSH1 0xFF SWAP4 SWAP1 SWAP4 SSTORE PUSH2 0x102 SWAP2 SWAP1 SWAP2 SSTORE PUSH2 0x103 SSTORE PUSH2 0x100 SSTORE PUSH2 0x101 SSTORE PUSH2 0x104 SWAP2 SWAP1 SWAP2 SSTORE PUSH2 0x105 SSTORE JUMP JUMPDEST PUSH1 0x0 PUSH2 0xE8B PUSH1 0x0 DUP1 MLOAD PUSH1 0x20 PUSH2 0x488B DUP4 CODECOPY DUP2 MLOAD SWAP2 MSTORE DUP4 PUSH2 0x1C6B JUMP JUMPDEST PUSH2 0x107E DUP3 DUP3 PUSH2 0x3D91 JUMP JUMPDEST PUSH1 0x0 DUP3 DUP2 MSTORE PUSH1 0x65 PUSH1 0x20 MSTORE PUSH1 0x40 SWAP1 KECCAK256 PUSH1 0x1 ADD SLOAD DUP2 SWAP1 PUSH1 0x40 MLOAD DUP5 SWAP1 PUSH32 0xBD79B86FFE0AB8E8776151514217CD7CACD52C909F66475C3AF44E129F0B00FF SWAP1 PUSH1 0x0 SWAP1 LOG4 PUSH1 0x0 SWAP2 DUP3 MSTORE PUSH1 0x65 PUSH1 0x20 MSTORE PUSH1 0x40 SWAP1 SWAP2 KECCAK256 PUSH1 0x1 ADD SSTORE JUMP JUMPDEST PUSH1 0x97 SLOAD PUSH1 0xFF AND ISZERO PUSH2 0x3C88 JUMPI PUSH1 0x40 MLOAD PUSH3 0x461BCD PUSH1 0xE5 SHL DUP2 MSTORE PUSH1 0x4 ADD PUSH2 0xF09 SWAP1 PUSH2 0x4753 JUMP JUMPDEST PUSH1 0x97 DUP1 SLOAD PUSH1 0xFF NOT AND PUSH1 0x1 OR SWAP1 SSTORE PUSH32 0x62E78CEA01BEE320CD4E420270B5EA74000D11B0C9F74754EBDBFC544B05A258 PUSH2 0x3CBD CALLER SWAP1 JUMP JUMPDEST PUSH1 0x40 MLOAD PUSH1 0x1 PUSH1 0x1 PUSH1 0xA0 SHL SUB SWAP1 SWAP2 AND DUP2 MSTORE PUSH1 0x20 ADD PUSH1 0x40 MLOAD DUP1 SWAP2 SUB SWAP1 LOG1 JUMP JUMPDEST PUSH1 0x97 SLOAD PUSH1 0xFF AND PUSH2 0x3CFC JUMPI PUSH1 0x40 MLOAD PUSH3 0x461BCD PUSH1 0xE5 SHL DUP2 MSTORE PUSH1 0x4 ADD PUSH2 0xF09 SWAP1 PUSH2 0x4725 JUMP JUMPDEST PUSH1 0x97 DUP1 SLOAD PUSH1 0xFF NOT AND SWAP1 SSTORE PUSH32 0x5DB9EE0A495BF2E6FF9C91A7834C1BA4FDD244A5E8AA4E537BD38AEAE4B073AA CALLER PUSH2 0x3CBD JUMP JUMPDEST PUSH2 0x3D37 DUP3 DUP3 PUSH2 0x1C6B JUMP JUMPDEST PUSH2 0x107E JUMPI PUSH2 0x3D4F DUP2 PUSH1 0x1 PUSH1 0x1 PUSH1 0xA0 SHL SUB AND PUSH1 0x14 PUSH2 0x3F9A JUMP JUMPDEST PUSH2 0x3D5A DUP4 PUSH1 0x20 PUSH2 0x3F9A JUMP JUMPDEST PUSH1 0x40 MLOAD PUSH1 0x20 ADD PUSH2 0x3D6B SWAP3 SWAP2 SWAP1 PUSH2 0x467D JUMP JUMPDEST PUSH1 0x40 DUP1 MLOAD PUSH1 0x1F NOT DUP2 DUP5 SUB ADD DUP2 MSTORE SWAP1 DUP3 SWAP1 MSTORE PUSH3 0x461BCD PUSH1 0xE5 SHL DUP3 MSTORE PUSH2 0xF09 SWAP2 PUSH1 0x4 ADD PUSH2 0x46F2 JUMP JUMPDEST PUSH2 0x3D9B DUP3 DUP3 PUSH2 0x1C6B JUMP JUMPDEST PUSH2 0x107E JUMPI PUSH1 0x0 DUP3 DUP2 MSTORE PUSH1 0x65 PUSH1 0x20 SWAP1 DUP2 MSTORE PUSH1 0x40 DUP1 DUP4 KECCAK256 PUSH1 0x1 PUSH1 0x1 PUSH1 0xA0 SHL SUB DUP6 AND DUP5 MSTORE SWAP1 SWAP2 MSTORE SWAP1 KECCAK256 DUP1 SLOAD PUSH1 0xFF NOT AND PUSH1 0x1 OR SWAP1 SSTORE PUSH2 0x3DD3 CALLER SWAP1 JUMP JUMPDEST PUSH1 0x1 PUSH1 0x1 PUSH1 0xA0 SHL SUB AND DUP2 PUSH1 0x1 PUSH1 0x1 PUSH1 0xA0 SHL SUB AND DUP4 PUSH32 0x2F8788117E7EFF1D82E926EC794901D17C78024A50270940304540A733656F0D PUSH1 0x40 MLOAD PUSH1 0x40 MLOAD DUP1 SWAP2 SUB SWAP1 LOG4 POP POP JUMP JUMPDEST PUSH2 0x3E21 DUP3 DUP3 PUSH2 0x1C6B JUMP JUMPDEST ISZERO PUSH2 0x107E JUMPI PUSH1 0x0 DUP3 DUP2 MSTORE PUSH1 0x65 PUSH1 0x20 SWAP1 DUP2 MSTORE PUSH1 0x40 DUP1 DUP4 KECCAK256 PUSH1 0x1 PUSH1 0x1 PUSH1 0xA0 SHL SUB DUP6 AND DUP1 DUP6 MSTORE SWAP3 MSTORE DUP1 DUP4 KECCAK256 DUP1 SLOAD PUSH1 0xFF NOT AND SWAP1 SSTORE MLOAD CALLER SWAP3 DUP6 SWAP2 PUSH32 0xF6391F5C32D9C69D2A47EA670B442974B53935D1EDC7FD64EB21E047A839171B SWAP2 SWAP1 LOG4 POP POP JUMP JUMPDEST PUSH1 0x0 PUSH2 0x3E8A DUP3 DUP5 PUSH2 0x477D JUMP JUMPDEST SWAP4 SWAP3 POP POP POP JUMP JUMPDEST PUSH1 0x40 DUP1 MLOAD PUSH1 0x1 PUSH1 0x1 PUSH1 0xA0 SHL SUB DUP6 DUP2 AND PUSH1 0x24 DUP4 ADD MSTORE DUP5 AND PUSH1 0x44 DUP3 ADD MSTORE PUSH1 0x64 DUP1 DUP3 ADD DUP5 SWAP1 MSTORE DUP3 MLOAD DUP1 DUP4 SUB SWAP1 SWAP2 ADD DUP2 MSTORE PUSH1 0x84 SWAP1 SWAP2 ADD SWAP1 SWAP2 MSTORE PUSH1 0x20 DUP2 ADD DUP1 MLOAD PUSH1 0x1 PUSH1 0x1 PUSH1 0xE0 SHL SUB AND PUSH4 0x23B872DD PUSH1 0xE0 SHL OR SWAP1 MSTORE PUSH2 0x3EEB SWAP1 DUP6 SWAP1 PUSH2 0x417C JUMP JUMPDEST POP POP POP POP JUMP JUMPDEST PUSH1 0x0 PUSH1 0x40 MLOAD PUSH20 0x3D602D80600A3D3981F3363D3D373D3D3D363D73 PUSH1 0x60 SHL DUP2 MSTORE DUP3 PUSH1 0x60 SHL PUSH1 0x14 DUP3 ADD MSTORE PUSH15 0x5AF43D82803E903D91602B57FD5BF3 PUSH1 0x88 SHL PUSH1 0x28 DUP3 ADD MSTORE PUSH1 0x37 DUP2 PUSH1 0x0 CREATE SWAP2 POP POP PUSH1 0x1 PUSH1 0x1 PUSH1 0xA0 SHL SUB DUP2 AND PUSH2 0x3F89 JUMPI PUSH1 0x40 MLOAD PUSH3 0x461BCD PUSH1 0xE5 SHL DUP2 MSTORE PUSH1 0x20 PUSH1 0x4 DUP3 ADD MSTORE PUSH1 0x16 PUSH1 0x24 DUP3 ADD MSTORE PUSH22 0x115490CC4C4D8DCE8818DC99585D194819985A5B1959 PUSH1 0x52 SHL PUSH1 0x44 DUP3 ADD MSTORE PUSH1 0x64 ADD PUSH2 0xF09 JUMP JUMPDEST SWAP2 SWAP1 POP JUMP JUMPDEST PUSH1 0x0 PUSH2 0x3E8A DUP3 DUP5 PUSH2 0x47B4 JUMP JUMPDEST PUSH1 0x60 PUSH1 0x0 PUSH2 0x3FA9 DUP4 PUSH1 0x2 PUSH2 0x4795 JUMP JUMPDEST PUSH2 0x3FB4 SWAP1 PUSH1 0x2 PUSH2 0x477D JUMP JUMPDEST PUSH8 0xFFFFFFFFFFFFFFFF DUP2 GT ISZERO PUSH2 0x3FDA JUMPI PUSH4 0x4E487B71 PUSH1 0xE0 SHL PUSH1 0x0 MSTORE PUSH1 0x41 PUSH1 0x4 MSTORE PUSH1 0x24 PUSH1 0x0 REVERT JUMPDEST PUSH1 0x40 MLOAD SWAP1 DUP1 DUP3 MSTORE DUP1 PUSH1 0x1F ADD PUSH1 0x1F NOT AND PUSH1 0x20 ADD DUP3 ADD PUSH1 0x40 MSTORE DUP1 ISZERO PUSH2 0x4004 JUMPI PUSH1 0x20 DUP3 ADD DUP2 DUP1 CALLDATASIZE DUP4 CALLDATACOPY ADD SWAP1 POP JUMPDEST POP SWAP1 POP PUSH1 0x3 PUSH1 0xFC SHL DUP2 PUSH1 0x0 DUP2 MLOAD DUP2 LT PUSH2 0x402D JUMPI PUSH4 0x4E487B71 PUSH1 0xE0 SHL PUSH1 0x0 MSTORE PUSH1 0x32 PUSH1 0x4 MSTORE PUSH1 0x24 PUSH1 0x0 REVERT JUMPDEST PUSH1 0x20 ADD ADD SWAP1 PUSH1 0x1 PUSH1 0x1 PUSH1 0xF8 SHL SUB NOT AND SWAP1 DUP2 PUSH1 0x0 BYTE SWAP1 MSTORE8 POP PUSH1 0xF PUSH1 0xFB SHL DUP2 PUSH1 0x1 DUP2 MLOAD DUP2 LT PUSH2 0x406A JUMPI PUSH4 0x4E487B71 PUSH1 0xE0 SHL PUSH1 0x0 MSTORE PUSH1 0x32 PUSH1 0x4 MSTORE PUSH1 0x24 PUSH1 0x0 REVERT JUMPDEST PUSH1 0x20 ADD ADD SWAP1 PUSH1 0x1 PUSH1 0x1 PUSH1 0xF8 SHL SUB NOT AND SWAP1 DUP2 PUSH1 0x0 BYTE SWAP1 MSTORE8 POP PUSH1 0x0 PUSH2 0x408E DUP5 PUSH1 0x2 PUSH2 0x4795 JUMP JUMPDEST PUSH2 0x4099 SWAP1 PUSH1 0x1 PUSH2 0x477D JUMP JUMPDEST SWAP1 POP JUMPDEST PUSH1 0x1 DUP2 GT ISZERO PUSH2 0x412D JUMPI PUSH16 0x181899199A1A9B1B9C1CB0B131B232B3 PUSH1 0x81 SHL DUP6 PUSH1 0xF AND PUSH1 0x10 DUP2 LT PUSH2 0x40DB JUMPI PUSH4 0x4E487B71 PUSH1 0xE0 SHL PUSH1 0x0 MSTORE PUSH1 0x32 PUSH1 0x4 MSTORE PUSH1 0x24 PUSH1 0x0 REVERT JUMPDEST BYTE PUSH1 0xF8 SHL DUP3 DUP3 DUP2 MLOAD DUP2 LT PUSH2 0x40FF JUMPI PUSH4 0x4E487B71 PUSH1 0xE0 SHL PUSH1 0x0 MSTORE PUSH1 0x32 PUSH1 0x4 MSTORE PUSH1 0x24 PUSH1 0x0 REVERT JUMPDEST PUSH1 0x20 ADD ADD SWAP1 PUSH1 0x1 PUSH1 0x1 PUSH1 0xF8 SHL SUB NOT AND SWAP1 DUP2 PUSH1 0x0 BYTE SWAP1 MSTORE8 POP PUSH1 0x4 SWAP5 SWAP1 SWAP5 SHR SWAP4 PUSH2 0x4126 DUP2 PUSH2 0x47F7 JUMP JUMPDEST SWAP1 POP PUSH2 0x409C JUMP JUMPDEST POP DUP4 ISZERO PUSH2 0x3E8A JUMPI PUSH1 0x40 MLOAD PUSH3 0x461BCD PUSH1 0xE5 SHL DUP2 MSTORE PUSH1 0x20 PUSH1 0x4 DUP3 ADD DUP2 SWAP1 MSTORE PUSH1 0x24 DUP3 ADD MSTORE PUSH32 0x537472696E67733A20686578206C656E67746820696E73756666696369656E74 PUSH1 0x44 DUP3 ADD MSTORE PUSH1 0x64 ADD PUSH2 0xF09 JUMP JUMPDEST PUSH1 0x0 PUSH2 0x41D1 DUP3 PUSH1 0x40 MLOAD DUP1 PUSH1 0x40 ADD PUSH1 0x40 MSTORE DUP1 PUSH1 0x20 DUP2 MSTORE PUSH1 0x20 ADD PUSH32 0x5361666545524332303A206C6F772D6C6576656C2063616C6C206661696C6564 DUP2 MSTORE POP DUP6 PUSH1 0x1 PUSH1 0x1 PUSH1 0xA0 SHL SUB AND PUSH2 0x424E SWAP1 SWAP3 SWAP2 SWAP1 PUSH4 0xFFFFFFFF AND JUMP JUMPDEST DUP1 MLOAD SWAP1 SWAP2 POP ISZERO PUSH2 0x145A JUMPI DUP1 DUP1 PUSH1 0x20 ADD SWAP1 MLOAD DUP2 ADD SWAP1 PUSH2 0x41EF SWAP2 SWAP1 PUSH2 0x4527 JUMP JUMPDEST PUSH2 0x145A JUMPI PUSH1 0x40 MLOAD PUSH3 0x461BCD PUSH1 0xE5 SHL DUP2 MSTORE PUSH1 0x20 PUSH1 0x4 DUP3 ADD MSTORE PUSH1 0x2A PUSH1 0x24 DUP3 ADD MSTORE PUSH32 0x5361666545524332303A204552433230206F7065726174696F6E20646964206E PUSH1 0x44 DUP3 ADD MSTORE PUSH10 0x1BDD081CDD58D8D95959 PUSH1 0xB2 SHL PUSH1 0x64 DUP3 ADD MSTORE PUSH1 0x84 ADD PUSH2 0xF09 JUMP JUMPDEST PUSH1 0x60 PUSH2 0x425D DUP5 DUP5 PUSH1 0x0 DUP6 PUSH2 0x4265 JUMP JUMPDEST SWAP5 SWAP4 POP POP POP POP JUMP JUMPDEST PUSH1 0x60 DUP3 SELFBALANCE LT ISZERO PUSH2 0x42C6 JUMPI PUSH1 0x40 MLOAD PUSH3 0x461BCD PUSH1 0xE5 SHL DUP2 MSTORE PUSH1 0x20 PUSH1 0x4 DUP3 ADD MSTORE PUSH1 0x26 PUSH1 0x24 DUP3 ADD MSTORE PUSH32 0x416464726573733A20696E73756666696369656E742062616C616E636520666F PUSH1 0x44 DUP3 ADD MSTORE PUSH6 0x1C8818D85B1B PUSH1 0xD2 SHL PUSH1 0x64 DUP3 ADD MSTORE PUSH1 0x84 ADD PUSH2 0xF09 JUMP JUMPDEST DUP5 EXTCODESIZE PUSH2 0x4314 JUMPI PUSH1 0x40 MLOAD PUSH3 0x461BCD PUSH1 0xE5 SHL DUP2 MSTORE PUSH1 0x20 PUSH1 0x4 DUP3 ADD MSTORE PUSH1 0x1D PUSH1 0x24 DUP3 ADD MSTORE PUSH32 0x416464726573733A2063616C6C20746F206E6F6E2D636F6E7472616374000000 PUSH1 0x44 DUP3 ADD MSTORE PUSH1 0x64 ADD PUSH2 0xF09 JUMP JUMPDEST PUSH1 0x0 DUP1 DUP7 PUSH1 0x1 PUSH1 0x1 PUSH1 0xA0 SHL SUB AND DUP6 DUP8 PUSH1 0x40 MLOAD PUSH2 0x4330 SWAP2 SWAP1 PUSH2 0x4661 JUMP JUMPDEST PUSH1 0x0 PUSH1 0x40 MLOAD DUP1 DUP4 SUB DUP2 DUP6 DUP8 GAS CALL SWAP3 POP POP POP RETURNDATASIZE DUP1 PUSH1 0x0 DUP2 EQ PUSH2 0x436D JUMPI PUSH1 0x40 MLOAD SWAP2 POP PUSH1 0x1F NOT PUSH1 0x3F RETURNDATASIZE ADD AND DUP3 ADD PUSH1 0x40 MSTORE RETURNDATASIZE DUP3 MSTORE RETURNDATASIZE PUSH1 0x0 PUSH1 0x20 DUP5 ADD RETURNDATACOPY PUSH2 0x4372 JUMP JUMPDEST PUSH1 0x60 SWAP2 POP JUMPDEST POP SWAP2 POP SWAP2 POP PUSH2 0x4382 DUP3 DUP3 DUP7 PUSH2 0x438D JUMP JUMPDEST SWAP8 SWAP7 POP POP POP POP POP POP POP JUMP JUMPDEST PUSH1 0x60 DUP4 ISZERO PUSH2 0x439C JUMPI POP DUP2 PUSH2 0x3E8A JUMP JUMPDEST DUP3 MLOAD ISZERO PUSH2 0x43AC JUMPI DUP3 MLOAD DUP1 DUP5 PUSH1 0x20 ADD REVERT JUMPDEST DUP2 PUSH1 0x40 MLOAD PUSH3 0x461BCD PUSH1 0xE5 SHL DUP2 MSTORE PUSH1 0x4 ADD PUSH2 0xF09 SWAP2 SWAP1 PUSH2 0x46F2 JUMP JUMPDEST PUSH1 0x0 PUSH1 0x20 DUP3 DUP5 SUB SLT ISZERO PUSH2 0x43D7 JUMPI DUP1 DUP2 REVERT JUMPDEST DUP2 CALLDATALOAD PUSH2 0x3E8A DUP2 PUSH2 0x4824 JUMP JUMPDEST PUSH1 0x0 PUSH1 0x20 DUP3 DUP5 SUB SLT ISZERO PUSH2 0x43F3 JUMPI DUP1 DUP2 REVERT JUMPDEST DUP2 MLOAD PUSH2 0x3E8A DUP2 PUSH2 0x4824 JUMP JUMPDEST PUSH1 0x0 DUP1 PUSH1 0x0 DUP1 PUSH1 0x0 DUP1 PUSH1 0x0 DUP1 PUSH1 0x0 DUP1 PUSH2 0x140 DUP12 DUP14 SUB SLT ISZERO PUSH2 0x441D JUMPI DUP6 DUP7 REVERT JUMPDEST DUP11 CALLDATALOAD PUSH2 0x4428 DUP2 PUSH2 0x4824 JUMP JUMPDEST SWAP10 POP PUSH1 0x20 DUP12 ADD CALLDATALOAD PUSH2 0x4438 DUP2 PUSH2 0x4824 JUMP JUMPDEST SWAP10 SWAP13 SWAP10 SWAP12 POP POP POP POP PUSH1 0x40 DUP9 ADD CALLDATALOAD SWAP8 PUSH1 0x60 DUP2 ADD CALLDATALOAD SWAP8 PUSH1 0x80 DUP3 ADD CALLDATALOAD SWAP8 POP PUSH1 0xA0 DUP3 ADD CALLDATALOAD SWAP7 POP PUSH1 0xC0 DUP3 ADD CALLDATALOAD SWAP6 POP PUSH1 0xE0 DUP3 ADD CALLDATALOAD SWAP5 POP PUSH2 0x100 DUP3 ADD CALLDATALOAD SWAP4 POP PUSH2 0x120 SWAP1 SWAP2 ADD CALLDATALOAD SWAP2 POP JUMP JUMPDEST PUSH1 0x0 DUP1 PUSH1 0x40 DUP4 DUP6 SUB SLT ISZERO PUSH2 0x448D JUMPI DUP2 DUP3 REVERT JUMPDEST DUP3 CALLDATALOAD PUSH2 0x4498 DUP2 PUSH2 0x4824 JUMP JUMPDEST SWAP2 POP PUSH1 0x20 DUP4 ADD CALLDATALOAD PUSH2 0x44A8 DUP2 PUSH2 0x483C JUMP JUMPDEST DUP1 SWAP2 POP POP SWAP3 POP SWAP3 SWAP1 POP JUMP JUMPDEST PUSH1 0x0 DUP1 PUSH1 0x40 DUP4 DUP6 SUB SLT ISZERO PUSH2 0x44C5 JUMPI DUP2 DUP3 REVERT JUMPDEST DUP3 CALLDATALOAD PUSH2 0x44D0 DUP2 PUSH2 0x4824 JUMP JUMPDEST SWAP5 PUSH1 0x20 SWAP4 SWAP1 SWAP4 ADD CALLDATALOAD SWAP4 POP POP POP JUMP JUMPDEST PUSH1 0x0 DUP1 PUSH1 0x40 DUP4 DUP6 SUB SLT ISZERO PUSH2 0x44F0 JUMPI DUP2 DUP3 REVERT JUMPDEST DUP3 CALLDATALOAD PUSH2 0x44FB DUP2 PUSH2 0x4824 JUMP JUMPDEST SWAP2 POP PUSH1 0x20 DUP4 ADD CALLDATALOAD PUSH2 0x44A8 DUP2 PUSH2 0x4824 JUMP JUMPDEST PUSH1 0x0 PUSH1 0x20 DUP3 DUP5 SUB SLT ISZERO PUSH2 0x451C JUMPI DUP1 DUP2 REVERT JUMPDEST DUP2 CALLDATALOAD PUSH2 0x3E8A DUP2 PUSH2 0x483C JUMP JUMPDEST PUSH1 0x0 PUSH1 0x20 DUP3 DUP5 SUB SLT ISZERO PUSH2 0x4538 JUMPI DUP1 DUP2 REVERT JUMPDEST DUP2 MLOAD PUSH2 0x3E8A DUP2 PUSH2 0x483C JUMP JUMPDEST PUSH1 0x0 PUSH1 0x20 DUP3 DUP5 SUB SLT ISZERO PUSH2 0x4554 JUMPI DUP1 DUP2 REVERT JUMPDEST POP CALLDATALOAD SWAP2 SWAP1 POP JUMP JUMPDEST PUSH1 0x0 DUP1 PUSH1 0x40 DUP4 DUP6 SUB SLT ISZERO PUSH2 0x456D JUMPI DUP2 DUP3 REVERT JUMPDEST DUP3 CALLDATALOAD SWAP2 POP PUSH1 0x20 DUP4 ADD CALLDATALOAD PUSH2 0x44A8 DUP2 PUSH2 0x4824 JUMP JUMPDEST PUSH1 0x0 PUSH1 0x20 DUP3 DUP5 SUB SLT ISZERO PUSH2 0x4590 JUMPI DUP1 DUP2 REVERT JUMPDEST DUP2 CALLDATALOAD PUSH1 0x1 PUSH1 0x1 PUSH1 0xE0 SHL SUB NOT DUP2 AND DUP2 EQ PUSH2 0x3E8A JUMPI DUP2 DUP3 REVERT JUMPDEST PUSH1 0x0 DUP1 PUSH1 0x40 DUP4 DUP6 SUB SLT ISZERO PUSH2 0x45B9 JUMPI DUP2 DUP3 REVERT JUMPDEST DUP3 CALLDATALOAD SWAP2 POP PUSH1 0x20 DUP4 ADD CALLDATALOAD PUSH2 0x44A8 DUP2 PUSH2 0x483C JUMP JUMPDEST PUSH1 0x0 DUP1 PUSH1 0x40 DUP4 DUP6 SUB SLT ISZERO PUSH2 0x456D JUMPI DUP1 DUP2 REVERT JUMPDEST PUSH1 0x0 DUP1 PUSH1 0x40 DUP4 DUP6 SUB SLT ISZERO PUSH2 0x45EF JUMPI DUP2 DUP3 REVERT JUMPDEST POP POP DUP1 CALLDATALOAD SWAP3 PUSH1 0x20 SWAP1 SWAP2 ADD CALLDATALOAD SWAP2 POP JUMP JUMPDEST PUSH1 0x0 DUP1 PUSH1 0x0 PUSH1 0x60 DUP5 DUP7 SUB SLT ISZERO PUSH2 0x4612 JUMPI DUP1 DUP2 REVERT JUMPDEST DUP4 CALLDATALOAD SWAP3 POP PUSH1 0x20 DUP5 ADD CALLDATALOAD SWAP2 POP PUSH1 0x40 DUP5 ADD CALLDATALOAD PUSH2 0x462B DUP2 PUSH2 0x4824 JUMP JUMPDEST DUP1 SWAP2 POP POP SWAP3 POP SWAP3 POP SWAP3 JUMP JUMPDEST PUSH1 0x0 DUP1 PUSH1 0x0 PUSH1 0x60 DUP5 DUP7 SUB SLT ISZERO PUSH2 0x464A JUMPI DUP1 DUP2 REVERT JUMPDEST POP POP DUP2 CALLDATALOAD SWAP4 PUSH1 0x20 DUP4 ADD CALLDATALOAD SWAP4 POP PUSH1 0x40 SWAP1 SWAP3 ADD CALLDATALOAD SWAP2 SWAP1 POP JUMP JUMPDEST PUSH1 0x0 DUP3 MLOAD PUSH2 0x4673 DUP2 DUP5 PUSH1 0x20 DUP8 ADD PUSH2 0x47CB JUMP JUMPDEST SWAP2 SWAP1 SWAP2 ADD SWAP3 SWAP2 POP POP JUMP JUMPDEST PUSH32 0x416363657373436F6E74726F6C3A206163636F756E7420000000000000000000 DUP2 MSTORE PUSH1 0x0 DUP4 MLOAD PUSH2 0x46B5 DUP2 PUSH1 0x17 DUP6 ADD PUSH1 0x20 DUP9 ADD PUSH2 0x47CB JUMP JUMPDEST PUSH17 0x1034B99036B4B9B9B4B733903937B6329 PUSH1 0x7D SHL PUSH1 0x17 SWAP2 DUP5 ADD SWAP2 DUP3 ADD MSTORE DUP4 MLOAD PUSH2 0x46E6 DUP2 PUSH1 0x28 DUP5 ADD PUSH1 0x20 DUP9 ADD PUSH2 0x47CB JUMP JUMPDEST ADD PUSH1 0x28 ADD SWAP5 SWAP4 POP POP POP POP JUMP JUMPDEST PUSH1 0x20 DUP2 MSTORE PUSH1 0x0 DUP3 MLOAD DUP1 PUSH1 0x20 DUP5 ADD MSTORE PUSH2 0x4711 DUP2 PUSH1 0x40 DUP6 ADD PUSH1 0x20 DUP8 ADD PUSH2 0x47CB JUMP JUMPDEST PUSH1 0x1F ADD PUSH1 0x1F NOT AND SWAP2 SWAP1 SWAP2 ADD PUSH1 0x40 ADD SWAP3 SWAP2 POP POP JUMP JUMPDEST PUSH1 0x20 DUP1 DUP3 MSTORE PUSH1 0x14 SWAP1 DUP3 ADD MSTORE PUSH20 0x14185D5CD8589B194E881B9BDD081C185D5CD959 PUSH1 0x62 SHL PUSH1 0x40 DUP3 ADD MSTORE PUSH1 0x60 ADD SWAP1 JUMP JUMPDEST PUSH1 0x20 DUP1 DUP3 MSTORE PUSH1 0x10 SWAP1 DUP3 ADD MSTORE PUSH16 0x14185D5CD8589B194E881C185D5CD959 PUSH1 0x82 SHL PUSH1 0x40 DUP3 ADD MSTORE PUSH1 0x60 ADD SWAP1 JUMP JUMPDEST PUSH1 0x0 DUP3 NOT DUP3 GT ISZERO PUSH2 0x4790 JUMPI PUSH2 0x4790 PUSH2 0x480E JUMP JUMPDEST POP ADD SWAP1 JUMP JUMPDEST PUSH1 0x0 DUP2 PUSH1 0x0 NOT DIV DUP4 GT DUP3 ISZERO ISZERO AND ISZERO PUSH2 0x47AF JUMPI PUSH2 0x47AF PUSH2 0x480E JUMP JUMPDEST POP MUL SWAP1 JUMP JUMPDEST PUSH1 0x0 DUP3 DUP3 LT ISZERO PUSH2 0x47C6 JUMPI PUSH2 0x47C6 PUSH2 0x480E JUMP JUMPDEST POP SUB SWAP1 JUMP JUMPDEST PUSH1 0x0 JUMPDEST DUP4 DUP2 LT ISZERO PUSH2 0x47E6 JUMPI DUP2 DUP2 ADD MLOAD DUP4 DUP3 ADD MSTORE PUSH1 0x20 ADD PUSH2 0x47CE JUMP JUMPDEST DUP4 DUP2 GT ISZERO PUSH2 0x3EEB JUMPI POP POP PUSH1 0x0 SWAP2 ADD MSTORE JUMP JUMPDEST PUSH1 0x0 DUP2 PUSH2 0x4806 JUMPI PUSH2 0x4806 PUSH2 0x480E JUMP JUMPDEST POP PUSH1 0x0 NOT ADD SWAP1 JUMP JUMPDEST PUSH4 0x4E487B71 PUSH1 0xE0 SHL PUSH1 0x0 MSTORE PUSH1 0x11 PUSH1 0x4 MSTORE PUSH1 0x24 PUSH1 0x0 REVERT JUMPDEST PUSH1 0x1 PUSH1 0x1 PUSH1 0xA0 SHL SUB DUP2 AND DUP2 EQ PUSH2 0x4839 JUMPI PUSH1 0x0 DUP1 REVERT JUMPDEST POP JUMP JUMPDEST DUP1 ISZERO ISZERO DUP2 EQ PUSH2 0x4839 JUMPI PUSH1 0x0 DUP1 REVERT INVALID 0x2F 0x48 0xAC ORIGIN 0xDB JUMPI 0x2E SWAP16 0xD9 PUSH26 0x463D8692F03BD4EABB1F84BDFC70F736E3D2676CD74859C43DE4 0xB3 PC 0xBF 0xA9 0xC1 EXTCODEHASH 0x4B 0xEB 0xB4 EXTCODECOPY 0xF6 SWAP10 0xC6 SWAP15 SLOAD 0xD2 0xCE MOD SWAP5 0xB0 MOD 0xE9 0xE1 0xAC PUSH26 0xC3C487B0D00CDCA7AF6ED7BD59BDC60D7090A56E20455C0A0AC7 GASLIMIT SHL 0xA6 0xD1 SMOD DUP1 0xDE 0xD9 0xE3 LOG2 PUSH5 0x6970667358 0x22 SLT KECCAK256 0xAA 0xE2 PUSH12 0x4C59448D049881ED5490706A 0xD4 PUSH16 0x77A452239C3054ABAE93F49CC5CD1A64 PUSH20 0x6F6C634300080400330000000000000000000000 "
		},
		"gasEstimates": {
			"creation": {
				"codeDepositCost": "3731200",
				"executionCost": "4212",
				"totalCost": "3735412"
			},
			"external": {
				"DEFAULT_ADMIN_ROLE()": "329",
				"MANAGE_CAMPAIGNS()": "infinite",
				"MANAGE_CATEGORIES()": "infinite",
				"MANAGE_USERS()": "infinite",
				"__CampaignFactory_init(address)": "infinite",
				"addRole(address,bytes32)": "infinite",
				"addToken(address)": "64948",
				"campaignApprovalRequest(address)": "15583",
				"campaignCategories(uint256)": "4709",
				"campaignCount()": "1084",
				"campaignImplementation()": "1127",
				"campaignRevenueFromCommissions(uint256)": "1228",
				"campaignRevenueFromFeatures(uint256)": "1271",
				"campaignToID(address)": "1325",
				"campaignToOwner(address)": "1364",
				"canManageCampaigns(address)": "infinite",
				"categoryCommission(uint256)": "1251",
				"categoryCount()": "1085",
				"createCampaign(uint256)": "infinite",
				"createCategory(bool)": "infinite",
				"createFeaturePackage(uint256,uint256)": "infinite",
				"deadlineStrikesAllowed()": "1064",
				"defaultCommission()": "1106",
				"deployedCampaigns(uint256)": "7293",
				"destroyCampaign(uint256)": "infinite",
				"destroyCategory(uint256)": "infinite",
				"destroyFeaturedPackage(uint256)": "46800",
				"destroyUser(uint256)": "infinite",
				"factoryRevenue()": "1063",
				"factoryWallet()": "1148",
				"featureCampaign(uint256,uint256,address)": "infinite",
				"featurePackageCount()": "1062",
				"featurePackages(uint256)": "5472",
				"featuredCampaignIsPaused(uint256)": "1207",
				"getRoleAdmin(bytes32)": "1279",
				"grantRole(bytes32,address)": "infinite",
				"hasRole(bytes32,address)": "1422",
				"maxDeadline()": "1106",
				"maxRequestDuration()": "1150",
				"maximumContributionAllowed()": "1128",
				"minDeadline()": "1085",
				"minRequestDuration()": "1087",
				"minimumContributionAllowed()": "1062",
				"modifyCampaignCategory(uint256,uint256)": "infinite",
				"modifyCategory(uint256,bool)": "infinite",
				"modifyFeaturedPackage(uint256,uint256,uint256)": "68423",
				"pauseCampaign()": "24888",
				"pauseCampaignFeatured(uint256)": "infinite",
				"paused()": "1127",
				"pausedFeaturedCampaignTimeLeft(uint256)": "1295",
				"receiveCampaignCommission(uint256,address)": "infinite",
				"removeRole(address,bytes32)": "infinite",
				"renounceAdmin()": "24301",
				"renounceRole(bytes32,address)": "24369",
				"revokeRole(bytes32,address)": "infinite",
				"root()": "1125",
				"setCategoryCommission(uint256,uint256)": "23224",
				"setFactorySettings(address,address,uint256,uint256,uint256,uint256,uint256,uint256,uint256,uint256)": "infinite",
				"signUp()": "infinite",
				"supportsInterface(bytes4)": "496",
				"toggleAcceptedToken(address,bool)": "infinite",
				"toggleCampaignActive(uint256,bool)": "infinite",
				"toggleCampaignApproval(uint256,bool)": "infinite",
				"toggleUserApproval(uint256,bool)": "infinite",
				"tokenInList(address)": "1348",
				"tokenList(uint256)": "2149",
				"tokensApproved(address)": "1305",
				"transferCampaignOwnership(address,address)": "infinite",
				"unpauseCampaign()": "24807",
				"unpauseCampaignFeatured(uint256)": "infinite",
				"userCount()": "1131",
				"userID(address)": "1323",
				"users(uint256)": "4686"
			}
		},
		"methodIdentifiers": {
			"DEFAULT_ADMIN_ROLE()": "a217fddf",
			"MANAGE_CAMPAIGNS()": "4f9de6e2",
			"MANAGE_CATEGORIES()": "a3134319",
			"MANAGE_USERS()": "48b30e35",
			"__CampaignFactory_init(address)": "04697b34",
			"addRole(address,bytes32)": "a73f7f8a",
			"addToken(address)": "d48bfca7",
			"campaignApprovalRequest(address)": "513b378b",
			"campaignCategories(uint256)": "5fd0b69f",
			"campaignCount()": "7274e30d",
			"campaignImplementation()": "62a6e065",
			"campaignRevenueFromCommissions(uint256)": "50450930",
			"campaignRevenueFromFeatures(uint256)": "df46e21e",
			"campaignToID(address)": "c6c323fc",
			"campaignToOwner(address)": "a174743a",
			"canManageCampaigns(address)": "f7878c69",
			"categoryCommission(uint256)": "98f11bce",
			"categoryCount()": "2be32dbb",
			"createCampaign(uint256)": "a3303a75",
			"createCategory(bool)": "b30326db",
			"createFeaturePackage(uint256,uint256)": "dc1a10c0",
			"deadlineStrikesAllowed()": "08142b85",
			"defaultCommission()": "b444bba5",
			"deployedCampaigns(uint256)": "339d50a5",
			"destroyCampaign(uint256)": "3523100c",
			"destroyCategory(uint256)": "2188497e",
			"destroyFeaturedPackage(uint256)": "9ff84662",
			"destroyUser(uint256)": "cf8a84d0",
			"factoryRevenue()": "9ee25ae4",
			"factoryWallet()": "81994d04",
			"featureCampaign(uint256,uint256,address)": "96a75664",
			"featurePackageCount()": "b1bba29b",
			"featurePackages(uint256)": "b6e33abf",
			"featuredCampaignIsPaused(uint256)": "6219fe3d",
			"getRoleAdmin(bytes32)": "248a9ca3",
			"grantRole(bytes32,address)": "2f2ff15d",
			"hasRole(bytes32,address)": "91d14854",
			"maxDeadline()": "de4e4201",
			"maxRequestDuration()": "dfef1f1f",
			"maximumContributionAllowed()": "84f77577",
			"minDeadline()": "c5549cc0",
			"minRequestDuration()": "03511574",
			"minimumContributionAllowed()": "6977aa34",
			"modifyCampaignCategory(uint256,uint256)": "ca68dfe4",
			"modifyCategory(uint256,bool)": "cfa40830",
			"modifyFeaturedPackage(uint256,uint256,uint256)": "3d693d1c",
			"pauseCampaign()": "0d10f3b5",
			"pauseCampaignFeatured(uint256)": "a55b3b31",
			"paused()": "5c975abb",
			"pausedFeaturedCampaignTimeLeft(uint256)": "1aa2f9d7",
			"receiveCampaignCommission(uint256,address)": "e8147c69",
			"removeRole(address,bytes32)": "6853920e",
			"renounceAdmin()": "8bad0c0a",
			"renounceRole(bytes32,address)": "36568abe",
			"revokeRole(bytes32,address)": "d547741f",
			"root()": "ebf0c717",
			"setCategoryCommission(uint256,uint256)": "088821b6",
			"setFactorySettings(address,address,uint256,uint256,uint256,uint256,uint256,uint256,uint256,uint256)": "f2e9b879",
			"signUp()": "bf96ae63",
			"supportsInterface(bytes4)": "01ffc9a7",
			"toggleAcceptedToken(address,bool)": "24ba73a2",
			"toggleCampaignActive(uint256,bool)": "d5b6c20e",
			"toggleCampaignApproval(uint256,bool)": "c9dc36fb",
			"toggleUserApproval(uint256,bool)": "092093d8",
			"tokenInList(address)": "a8542740",
			"tokenList(uint256)": "9ead7222",
			"tokensApproved(address)": "20966f22",
			"transferCampaignOwnership(address,address)": "67480d35",
			"unpauseCampaign()": "1c8e541b",
			"unpauseCampaignFeatured(uint256)": "bc3d5a30",
			"userCount()": "07973ccf",
			"userID(address)": "eda7794e",
			"users(uint256)": "365b98b2"
		}
	},
	"abi": [
		{
			"anonymous": false,
			"inputs": [
				{
					"indexed": true,
					"internalType": "uint256",
					"name": "campaignId",
					"type": "uint256"
				},
				{
					"indexed": false,
					"internalType": "bool",
					"name": "active",
					"type": "bool"
				}
			],
			"name": "CampaignActiveToggle",
			"type": "event"
		},
		{
			"anonymous": false,
			"inputs": [
				{
					"indexed": true,
					"internalType": "uint256",
					"name": "campaignId",
					"type": "uint256"
				},
				{
					"indexed": false,
					"internalType": "bool",
					"name": "approval",
					"type": "bool"
				}
			],
			"name": "CampaignApproval",
			"type": "event"
		},
		{
			"anonymous": false,
			"inputs": [
				{
					"indexed": false,
					"internalType": "uint256",
					"name": "campaignId",
					"type": "uint256"
				}
			],
			"name": "CampaignApprovalRequest",
			"type": "event"
		},
		{
			"anonymous": false,
			"inputs": [
				{
					"indexed": true,
					"internalType": "uint256",
					"name": "campaignId",
					"type": "uint256"
				},
				{
					"indexed": false,
					"internalType": "uint256",
					"name": "newCategory",
					"type": "uint256"
				}
			],
			"name": "CampaignCategoryChange",
			"type": "event"
		},
		{
			"anonymous": false,
			"inputs": [
				{
					"indexed": true,
					"internalType": "uint256",
					"name": "campaignId",
					"type": "uint256"
				},
				{
					"indexed": false,
					"internalType": "uint256",
					"name": "userId",
					"type": "uint256"
				},
				{
					"indexed": false,
					"internalType": "uint256",
					"name": "category",
					"type": "uint256"
				}
			],
			"name": "CampaignDeployed",
			"type": "event"
		},
		{
			"anonymous": false,
			"inputs": [
				{
					"indexed": true,
					"internalType": "uint256",
					"name": "campaignId",
					"type": "uint256"
				}
			],
			"name": "CampaignDestroyed",
			"type": "event"
		},
		{
			"anonymous": false,
			"inputs": [
				{
					"indexed": true,
					"internalType": "uint256",
					"name": "campaignId",
					"type": "uint256"
				}
			],
			"name": "CampaignFeaturePaused",
			"type": "event"
		},
		{
			"anonymous": false,
			"inputs": [
				{
					"indexed": true,
					"internalType": "uint256",
					"name": "campaignId",
					"type": "uint256"
				},
				{
					"indexed": false,
					"internalType": "uint256",
					"name": "timeLeft",
					"type": "uint256"
				}
			],
			"name": "CampaignFeatureUnpaused",
			"type": "event"
		},
		{
			"anonymous": false,
			"inputs": [
				{
					"indexed": true,
					"internalType": "uint256",
					"name": "campaignId",
					"type": "uint256"
				},
				{
					"indexed": false,
					"internalType": "uint256",
					"name": "featurePackageId",
					"type": "uint256"
				},
				{
					"indexed": false,
					"internalType": "uint256",
					"name": "amount",
					"type": "uint256"
				}
			],
			"name": "CampaignFeatured",
			"type": "event"
		},
		{
			"anonymous": false,
			"inputs": [
				{
					"indexed": true,
					"internalType": "address",
					"name": "newOwner",
					"type": "address"
				}
			],
			"name": "CampaignOwnershipTransferred",
			"type": "event"
		},
		{
			"anonymous": false,
			"inputs": [
				{
					"indexed": true,
					"internalType": "uint256",
					"name": "categoryId",
					"type": "uint256"
				},
				{
					"indexed": false,
					"internalType": "bool",
					"name": "active",
					"type": "bool"
				}
			],
			"name": "CategoryAdded",
			"type": "event"
		},
		{
			"anonymous": false,
			"inputs": [
				{
					"indexed": true,
					"internalType": "uint256",
					"name": "categoryId",
					"type": "uint256"
				}
			],
			"name": "CategoryDestroyed",
			"type": "event"
		},
		{
			"anonymous": false,
			"inputs": [
				{
					"indexed": true,
					"internalType": "uint256",
					"name": "categoryId",
					"type": "uint256"
				},
				{
					"indexed": false,
					"internalType": "bool",
					"name": "active",
					"type": "bool"
				}
			],
			"name": "CategoryModified",
			"type": "event"
		},
		{
			"anonymous": false,
			"inputs": [
				{
					"indexed": true,
					"internalType": "uint256",
					"name": "packageId",
					"type": "uint256"
				},
				{
					"indexed": false,
					"internalType": "uint256",
					"name": "cost",
					"type": "uint256"
				},
				{
					"indexed": false,
					"internalType": "uint256",
					"name": "time",
					"type": "uint256"
				}
			],
			"name": "FeaturePackageAdded",
			"type": "event"
		},
		{
			"anonymous": false,
			"inputs": [
				{
					"indexed": true,
					"internalType": "uint256",
					"name": "packageId",
					"type": "uint256"
				}
			],
			"name": "FeaturePackageDestroyed",
			"type": "event"
		},
		{
			"anonymous": false,
			"inputs": [
				{
					"indexed": true,
					"internalType": "uint256",
					"name": "packageId",
					"type": "uint256"
				},
				{
					"indexed": false,
					"internalType": "uint256",
					"name": "cost",
					"type": "uint256"
				},
				{
					"indexed": false,
					"internalType": "uint256",
					"name": "time",
					"type": "uint256"
				}
			],
			"name": "FeaturePackageModified",
			"type": "event"
		},
		{
			"anonymous": false,
			"inputs": [
				{
					"indexed": false,
					"internalType": "address",
					"name": "account",
					"type": "address"
				}
			],
			"name": "Paused",
			"type": "event"
		},
		{
			"anonymous": false,
			"inputs": [
				{
					"indexed": true,
					"internalType": "bytes32",
					"name": "role",
					"type": "bytes32"
				},
				{
					"indexed": true,
					"internalType": "bytes32",
					"name": "previousAdminRole",
					"type": "bytes32"
				},
				{
					"indexed": true,
					"internalType": "bytes32",
					"name": "newAdminRole",
					"type": "bytes32"
				}
			],
			"name": "RoleAdminChanged",
			"type": "event"
		},
		{
			"anonymous": false,
			"inputs": [
				{
					"indexed": true,
					"internalType": "bytes32",
					"name": "role",
					"type": "bytes32"
				},
				{
					"indexed": true,
					"internalType": "address",
					"name": "account",
					"type": "address"
				},
				{
					"indexed": true,
					"internalType": "address",
					"name": "sender",
					"type": "address"
				}
			],
			"name": "RoleGranted",
			"type": "event"
		},
		{
			"anonymous": false,
			"inputs": [
				{
					"indexed": true,
					"internalType": "bytes32",
					"name": "role",
					"type": "bytes32"
				},
				{
					"indexed": true,
					"internalType": "address",
					"name": "account",
					"type": "address"
				},
				{
					"indexed": true,
					"internalType": "address",
					"name": "sender",
					"type": "address"
				}
			],
			"name": "RoleRevoked",
			"type": "event"
		},
		{
			"anonymous": false,
			"inputs": [
				{
					"indexed": false,
					"internalType": "address",
					"name": "account",
					"type": "address"
				}
			],
			"name": "Unpaused",
			"type": "event"
		},
		{
			"anonymous": false,
			"inputs": [
				{
					"indexed": true,
					"internalType": "uint256",
					"name": "userId",
					"type": "uint256"
				}
			],
			"name": "UserAdded",
			"type": "event"
		},
		{
			"anonymous": false,
			"inputs": [
				{
					"indexed": true,
					"internalType": "uint256",
					"name": "userId",
					"type": "uint256"
				},
				{
					"indexed": false,
					"internalType": "bool",
					"name": "approval",
					"type": "bool"
				}
			],
			"name": "UserApproval",
			"type": "event"
		},
		{
			"anonymous": false,
			"inputs": [
				{
					"indexed": true,
					"internalType": "uint256",
					"name": "userId",
					"type": "uint256"
				}
			],
			"name": "UserModified",
			"type": "event"
		},
		{
			"anonymous": false,
			"inputs": [
				{
					"indexed": true,
					"internalType": "uint256",
					"name": "userId",
					"type": "uint256"
				}
			],
			"name": "UserRemoved",
			"type": "event"
		},
		{
			"inputs": [],
			"name": "DEFAULT_ADMIN_ROLE",
			"outputs": [
				{
					"internalType": "bytes32",
					"name": "",
					"type": "bytes32"
				}
			],
			"stateMutability": "view",
			"type": "function"
		},
		{
			"inputs": [],
			"name": "MANAGE_CAMPAIGNS",
			"outputs": [
				{
					"internalType": "bytes32",
					"name": "",
					"type": "bytes32"
				}
			],
			"stateMutability": "view",
			"type": "function"
		},
		{
			"inputs": [],
			"name": "MANAGE_CATEGORIES",
			"outputs": [
				{
					"internalType": "bytes32",
					"name": "",
					"type": "bytes32"
				}
			],
			"stateMutability": "view",
			"type": "function"
		},
		{
			"inputs": [],
			"name": "MANAGE_USERS",
			"outputs": [
				{
					"internalType": "bytes32",
					"name": "",
					"type": "bytes32"
				}
			],
			"stateMutability": "view",
			"type": "function"
		},
		{
			"inputs": [
				{
					"internalType": "address payable",
					"name": "_wallet",
					"type": "address"
				}
			],
			"name": "__CampaignFactory_init",
			"outputs": [],
			"stateMutability": "nonpayable",
			"type": "function"
		},
		{
			"inputs": [
				{
					"internalType": "address",
					"name": "_account",
					"type": "address"
				},
				{
					"internalType": "bytes32",
					"name": "_role",
					"type": "bytes32"
				}
			],
			"name": "addRole",
			"outputs": [],
			"stateMutability": "nonpayable",
			"type": "function"
		},
		{
			"inputs": [
				{
					"internalType": "address",
					"name": "_token",
					"type": "address"
				}
			],
			"name": "addToken",
			"outputs": [],
			"stateMutability": "nonpayable",
			"type": "function"
		},
		{
			"inputs": [
				{
					"internalType": "address",
					"name": "_campaign",
					"type": "address"
				}
			],
			"name": "campaignApprovalRequest",
			"outputs": [],
			"stateMutability": "nonpayable",
			"type": "function"
		},
		{
			"inputs": [
				{
					"internalType": "uint256",
					"name": "",
					"type": "uint256"
				}
			],
			"name": "campaignCategories",
			"outputs": [
				{
					"internalType": "uint256",
					"name": "campaignCount",
					"type": "uint256"
				},
				{
					"internalType": "uint256",
					"name": "createdAt",
					"type": "uint256"
				},
				{
					"internalType": "uint256",
					"name": "updatedAt",
					"type": "uint256"
				},
				{
					"internalType": "bool",
					"name": "active",
					"type": "bool"
				},
				{
					"internalType": "bool",
					"name": "exists",
					"type": "bool"
				}
			],
			"stateMutability": "view",
			"type": "function"
		},
		{
			"inputs": [],
			"name": "campaignCount",
			"outputs": [
				{
					"internalType": "uint256",
					"name": "",
					"type": "uint256"
				}
			],
			"stateMutability": "view",
			"type": "function"
		},
		{
			"inputs": [],
			"name": "campaignImplementation",
			"outputs": [
				{
					"internalType": "address",
					"name": "",
					"type": "address"
				}
			],
			"stateMutability": "view",
			"type": "function"
		},
		{
			"inputs": [
				{
					"internalType": "uint256",
					"name": "",
					"type": "uint256"
				}
			],
			"name": "campaignRevenueFromCommissions",
			"outputs": [
				{
					"internalType": "uint256",
					"name": "",
					"type": "uint256"
				}
			],
			"stateMutability": "view",
			"type": "function"
		},
		{
			"inputs": [
				{
					"internalType": "uint256",
					"name": "",
					"type": "uint256"
				}
			],
			"name": "campaignRevenueFromFeatures",
			"outputs": [
				{
					"internalType": "uint256",
					"name": "",
					"type": "uint256"
				}
			],
			"stateMutability": "view",
			"type": "function"
		},
		{
			"inputs": [
				{
					"internalType": "address",
					"name": "",
					"type": "address"
				}
			],
			"name": "campaignToID",
			"outputs": [
				{
					"internalType": "uint256",
					"name": "",
					"type": "uint256"
				}
			],
			"stateMutability": "view",
			"type": "function"
		},
		{
			"inputs": [
				{
					"internalType": "address",
					"name": "",
					"type": "address"
				}
			],
			"name": "campaignToOwner",
			"outputs": [
				{
					"internalType": "address",
					"name": "",
					"type": "address"
				}
			],
			"stateMutability": "view",
			"type": "function"
		},
		{
			"inputs": [
				{
					"internalType": "address",
					"name": "_user",
					"type": "address"
				}
			],
			"name": "canManageCampaigns",
			"outputs": [
				{
					"internalType": "bool",
					"name": "",
					"type": "bool"
				}
			],
			"stateMutability": "view",
			"type": "function"
		},
		{
			"inputs": [
				{
					"internalType": "uint256",
					"name": "",
					"type": "uint256"
				}
			],
			"name": "categoryCommission",
			"outputs": [
				{
					"internalType": "uint256",
					"name": "",
					"type": "uint256"
				}
			],
			"stateMutability": "view",
			"type": "function"
		},
		{
			"inputs": [],
			"name": "categoryCount",
			"outputs": [
				{
					"internalType": "uint256",
					"name": "",
					"type": "uint256"
				}
			],
			"stateMutability": "view",
			"type": "function"
		},
		{
			"inputs": [
				{
					"internalType": "uint256",
					"name": "_categoryId",
					"type": "uint256"
				}
			],
			"name": "createCampaign",
			"outputs": [],
			"stateMutability": "nonpayable",
			"type": "function"
		},
		{
			"inputs": [
				{
					"internalType": "bool",
					"name": "_active",
					"type": "bool"
				}
			],
			"name": "createCategory",
			"outputs": [],
			"stateMutability": "nonpayable",
			"type": "function"
		},
		{
			"inputs": [
				{
					"internalType": "uint256",
					"name": "_cost",
					"type": "uint256"
				},
				{
					"internalType": "uint256",
					"name": "_time",
					"type": "uint256"
				}
			],
			"name": "createFeaturePackage",
			"outputs": [],
			"stateMutability": "nonpayable",
			"type": "function"
		},
		{
			"inputs": [],
			"name": "deadlineStrikesAllowed",
			"outputs": [
				{
					"internalType": "uint256",
					"name": "",
					"type": "uint256"
				}
			],
			"stateMutability": "view",
			"type": "function"
		},
		{
			"inputs": [],
			"name": "defaultCommission",
			"outputs": [
				{
					"internalType": "uint256",
					"name": "",
					"type": "uint256"
				}
			],
			"stateMutability": "view",
			"type": "function"
		},
		{
			"inputs": [
				{
					"internalType": "uint256",
					"name": "",
					"type": "uint256"
				}
			],
			"name": "deployedCampaigns",
			"outputs": [
				{
					"internalType": "address",
					"name": "campaign",
					"type": "address"
				},
				{
					"internalType": "address",
					"name": "owner",
					"type": "address"
				},
				{
					"internalType": "uint256",
					"name": "createdAt",
					"type": "uint256"
				},
				{
					"internalType": "uint256",
					"name": "updatedAt",
					"type": "uint256"
				},
				{
					"internalType": "uint256",
					"name": "category",
					"type": "uint256"
				},
				{
					"internalType": "uint256",
					"name": "featureFor",
					"type": "uint256"
				},
				{
					"internalType": "bool",
					"name": "active",
					"type": "bool"
				},
				{
					"internalType": "bool",
					"name": "approved",
					"type": "bool"
				},
				{
					"internalType": "bool",
					"name": "exists",
					"type": "bool"
				}
			],
			"stateMutability": "view",
			"type": "function"
		},
		{
			"inputs": [
				{
					"internalType": "uint256",
					"name": "_campaignId",
					"type": "uint256"
				}
			],
			"name": "destroyCampaign",
			"outputs": [],
			"stateMutability": "nonpayable",
			"type": "function"
		},
		{
			"inputs": [
				{
					"internalType": "uint256",
					"name": "_categoryId",
					"type": "uint256"
				}
			],
			"name": "destroyCategory",
			"outputs": [],
			"stateMutability": "nonpayable",
			"type": "function"
		},
		{
			"inputs": [
				{
					"internalType": "uint256",
					"name": "_packageId",
					"type": "uint256"
				}
			],
			"name": "destroyFeaturedPackage",
			"outputs": [],
			"stateMutability": "nonpayable",
			"type": "function"
		},
		{
			"inputs": [
				{
					"internalType": "uint256",
					"name": "_userId",
					"type": "uint256"
				}
			],
			"name": "destroyUser",
			"outputs": [],
			"stateMutability": "nonpayable",
			"type": "function"
		},
		{
			"inputs": [],
			"name": "factoryRevenue",
			"outputs": [
				{
					"internalType": "uint256",
					"name": "",
					"type": "uint256"
				}
			],
			"stateMutability": "view",
			"type": "function"
		},
		{
			"inputs": [],
			"name": "factoryWallet",
			"outputs": [
				{
					"internalType": "address payable",
					"name": "",
					"type": "address"
				}
			],
			"stateMutability": "view",
			"type": "function"
		},
		{
			"inputs": [
				{
					"internalType": "uint256",
					"name": "_campaignId",
					"type": "uint256"
				},
				{
					"internalType": "uint256",
					"name": "_featurePackageId",
					"type": "uint256"
				},
				{
					"internalType": "address",
					"name": "_token",
					"type": "address"
				}
			],
			"name": "featureCampaign",
			"outputs": [],
			"stateMutability": "payable",
			"type": "function"
		},
		{
			"inputs": [],
			"name": "featurePackageCount",
			"outputs": [
				{
					"internalType": "uint256",
					"name": "",
					"type": "uint256"
				}
			],
			"stateMutability": "view",
			"type": "function"
		},
		{
			"inputs": [
				{
					"internalType": "uint256",
					"name": "",
					"type": "uint256"
				}
			],
			"name": "featurePackages",
			"outputs": [
				{
					"internalType": "uint256",
					"name": "createdAt",
					"type": "uint256"
				},
				{
					"internalType": "uint256",
					"name": "updatedAt",
					"type": "uint256"
				},
				{
					"internalType": "uint256",
					"name": "time",
					"type": "uint256"
				},
				{
					"internalType": "uint256",
					"name": "cost",
					"type": "uint256"
				},
				{
					"internalType": "bool",
					"name": "exists",
					"type": "bool"
				}
			],
			"stateMutability": "view",
			"type": "function"
		},
		{
			"inputs": [
				{
					"internalType": "uint256",
					"name": "",
					"type": "uint256"
				}
			],
			"name": "featuredCampaignIsPaused",
			"outputs": [
				{
					"internalType": "bool",
					"name": "",
					"type": "bool"
				}
			],
			"stateMutability": "view",
			"type": "function"
		},
		{
			"inputs": [
				{
					"internalType": "bytes32",
					"name": "role",
					"type": "bytes32"
				}
			],
			"name": "getRoleAdmin",
			"outputs": [
				{
					"internalType": "bytes32",
					"name": "",
					"type": "bytes32"
				}
			],
			"stateMutability": "view",
			"type": "function"
		},
		{
			"inputs": [
				{
					"internalType": "bytes32",
					"name": "role",
					"type": "bytes32"
				},
				{
					"internalType": "address",
					"name": "account",
					"type": "address"
				}
			],
			"name": "grantRole",
			"outputs": [],
			"stateMutability": "nonpayable",
			"type": "function"
		},
		{
			"inputs": [
				{
					"internalType": "bytes32",
					"name": "role",
					"type": "bytes32"
				},
				{
					"internalType": "address",
					"name": "account",
					"type": "address"
				}
			],
			"name": "hasRole",
			"outputs": [
				{
					"internalType": "bool",
					"name": "",
					"type": "bool"
				}
			],
			"stateMutability": "view",
			"type": "function"
		},
		{
			"inputs": [],
			"name": "maxDeadline",
			"outputs": [
				{
					"internalType": "uint256",
					"name": "",
					"type": "uint256"
				}
			],
			"stateMutability": "view",
			"type": "function"
		},
		{
			"inputs": [],
			"name": "maxRequestDuration",
			"outputs": [
				{
					"internalType": "uint256",
					"name": "",
					"type": "uint256"
				}
			],
			"stateMutability": "view",
			"type": "function"
		},
		{
			"inputs": [],
			"name": "maximumContributionAllowed",
			"outputs": [
				{
					"internalType": "uint256",
					"name": "",
					"type": "uint256"
				}
			],
			"stateMutability": "view",
			"type": "function"
		},
		{
			"inputs": [],
			"name": "minDeadline",
			"outputs": [
				{
					"internalType": "uint256",
					"name": "",
					"type": "uint256"
				}
			],
			"stateMutability": "view",
			"type": "function"
		},
		{
			"inputs": [],
			"name": "minRequestDuration",
			"outputs": [
				{
					"internalType": "uint256",
					"name": "",
					"type": "uint256"
				}
			],
			"stateMutability": "view",
			"type": "function"
		},
		{
			"inputs": [],
			"name": "minimumContributionAllowed",
			"outputs": [
				{
					"internalType": "uint256",
					"name": "",
					"type": "uint256"
				}
			],
			"stateMutability": "view",
			"type": "function"
		},
		{
			"inputs": [
				{
					"internalType": "uint256",
					"name": "_campaignId",
					"type": "uint256"
				},
				{
					"internalType": "uint256",
					"name": "_newCategoryId",
					"type": "uint256"
				}
			],
			"name": "modifyCampaignCategory",
			"outputs": [],
			"stateMutability": "nonpayable",
			"type": "function"
		},
		{
			"inputs": [
				{
					"internalType": "uint256",
					"name": "_categoryId",
					"type": "uint256"
				},
				{
					"internalType": "bool",
					"name": "_active",
					"type": "bool"
				}
			],
			"name": "modifyCategory",
			"outputs": [],
			"stateMutability": "nonpayable",
			"type": "function"
		},
		{
			"inputs": [
				{
					"internalType": "uint256",
					"name": "_packageId",
					"type": "uint256"
				},
				{
					"internalType": "uint256",
					"name": "_cost",
					"type": "uint256"
				},
				{
					"internalType": "uint256",
					"name": "_time",
					"type": "uint256"
				}
			],
			"name": "modifyFeaturedPackage",
			"outputs": [],
			"stateMutability": "nonpayable",
			"type": "function"
		},
		{
			"inputs": [],
			"name": "pauseCampaign",
			"outputs": [],
			"stateMutability": "nonpayable",
			"type": "function"
		},
		{
			"inputs": [
				{
					"internalType": "uint256",
					"name": "_campaignId",
					"type": "uint256"
				}
			],
			"name": "pauseCampaignFeatured",
			"outputs": [],
			"stateMutability": "nonpayable",
			"type": "function"
		},
		{
			"inputs": [],
			"name": "paused",
			"outputs": [
				{
					"internalType": "bool",
					"name": "",
					"type": "bool"
				}
			],
			"stateMutability": "view",
			"type": "function"
		},
		{
			"inputs": [
				{
					"internalType": "uint256",
					"name": "",
					"type": "uint256"
				}
			],
			"name": "pausedFeaturedCampaignTimeLeft",
			"outputs": [
				{
					"internalType": "uint256",
					"name": "",
					"type": "uint256"
				}
			],
			"stateMutability": "view",
			"type": "function"
		},
		{
			"inputs": [
				{
					"internalType": "uint256",
					"name": "_amount",
					"type": "uint256"
				},
				{
					"internalType": "contract Campaign",
					"name": "_campaign",
					"type": "address"
				}
			],
			"name": "receiveCampaignCommission",
			"outputs": [],
			"stateMutability": "nonpayable",
			"type": "function"
		},
		{
			"inputs": [
				{
					"internalType": "address",
					"name": "_account",
					"type": "address"
				},
				{
					"internalType": "bytes32",
					"name": "_role",
					"type": "bytes32"
				}
			],
			"name": "removeRole",
			"outputs": [],
			"stateMutability": "nonpayable",
			"type": "function"
		},
		{
			"inputs": [],
			"name": "renounceAdmin",
			"outputs": [],
			"stateMutability": "nonpayable",
			"type": "function"
		},
		{
			"inputs": [
				{
					"internalType": "bytes32",
					"name": "role",
					"type": "bytes32"
				},
				{
					"internalType": "address",
					"name": "account",
					"type": "address"
				}
			],
			"name": "renounceRole",
			"outputs": [],
			"stateMutability": "nonpayable",
			"type": "function"
		},
		{
			"inputs": [
				{
					"internalType": "bytes32",
					"name": "role",
					"type": "bytes32"
				},
				{
					"internalType": "address",
					"name": "account",
					"type": "address"
				}
			],
			"name": "revokeRole",
			"outputs": [],
			"stateMutability": "nonpayable",
			"type": "function"
		},
		{
			"inputs": [],
			"name": "root",
			"outputs": [
				{
					"internalType": "address",
					"name": "",
					"type": "address"
				}
			],
			"stateMutability": "view",
			"type": "function"
		},
		{
			"inputs": [
				{
					"internalType": "uint256",
					"name": "_categoryId",
					"type": "uint256"
				},
				{
					"internalType": "uint256",
					"name": "_commission",
					"type": "uint256"
				}
			],
			"name": "setCategoryCommission",
			"outputs": [],
			"stateMutability": "nonpayable",
			"type": "function"
		},
		{
			"inputs": [
				{
					"internalType": "address payable",
					"name": "_wallet",
					"type": "address"
				},
				{
					"internalType": "contract Campaign",
					"name": "_implementation",
					"type": "address"
				},
				{
					"internalType": "uint256",
					"name": "_commission",
					"type": "uint256"
				},
				{
					"internalType": "uint256",
					"name": "_deadlineStrikesAllowed",
					"type": "uint256"
				},
				{
					"internalType": "uint256",
					"name": "_maxDeadline",
					"type": "uint256"
				},
				{
					"internalType": "uint256",
					"name": "_minDeadline",
					"type": "uint256"
				},
				{
					"internalType": "uint256",
					"name": "_minimumContributionAllowed",
					"type": "uint256"
				},
				{
					"internalType": "uint256",
					"name": "_maximumContributionAllowed",
					"type": "uint256"
				},
				{
					"internalType": "uint256",
					"name": "_minRequestDuration",
					"type": "uint256"
				},
				{
					"internalType": "uint256",
					"name": "_maxRequestDuration",
					"type": "uint256"
				}
			],
			"name": "setFactorySettings",
			"outputs": [],
			"stateMutability": "nonpayable",
			"type": "function"
		},
		{
			"inputs": [],
			"name": "signUp",
			"outputs": [],
			"stateMutability": "nonpayable",
			"type": "function"
		},
		{
			"inputs": [
				{
					"internalType": "bytes4",
					"name": "interfaceId",
					"type": "bytes4"
				}
			],
			"name": "supportsInterface",
			"outputs": [
				{
					"internalType": "bool",
					"name": "",
					"type": "bool"
				}
			],
			"stateMutability": "view",
			"type": "function"
		},
		{
			"inputs": [
				{
					"internalType": "address",
					"name": "_token",
					"type": "address"
				},
				{
					"internalType": "bool",
					"name": "_state",
					"type": "bool"
				}
			],
			"name": "toggleAcceptedToken",
			"outputs": [],
			"stateMutability": "nonpayable",
			"type": "function"
		},
		{
			"inputs": [
				{
					"internalType": "uint256",
					"name": "_campaignId",
					"type": "uint256"
				},
				{
					"internalType": "bool",
					"name": "_active",
					"type": "bool"
				}
			],
			"name": "toggleCampaignActive",
			"outputs": [],
			"stateMutability": "nonpayable",
			"type": "function"
		},
		{
			"inputs": [
				{
					"internalType": "uint256",
					"name": "_campaignId",
					"type": "uint256"
				},
				{
					"internalType": "bool",
					"name": "_approval",
					"type": "bool"
				}
			],
			"name": "toggleCampaignApproval",
			"outputs": [],
			"stateMutability": "nonpayable",
			"type": "function"
		},
		{
			"inputs": [
				{
					"internalType": "uint256",
					"name": "_userId",
					"type": "uint256"
				},
				{
					"internalType": "bool",
					"name": "_approval",
					"type": "bool"
				}
			],
			"name": "toggleUserApproval",
			"outputs": [],
			"stateMutability": "nonpayable",
			"type": "function"
		},
		{
			"inputs": [
				{
					"internalType": "address",
					"name": "",
					"type": "address"
				}
			],
			"name": "tokenInList",
			"outputs": [
				{
					"internalType": "bool",
					"name": "",
					"type": "bool"
				}
			],
			"stateMutability": "view",
			"type": "function"
		},
		{
			"inputs": [
				{
					"internalType": "uint256",
					"name": "",
					"type": "uint256"
				}
			],
			"name": "tokenList",
			"outputs": [
				{
					"internalType": "address",
					"name": "",
					"type": "address"
				}
			],
			"stateMutability": "view",
			"type": "function"
		},
		{
			"inputs": [
				{
					"internalType": "address",
					"name": "",
					"type": "address"
				}
			],
			"name": "tokensApproved",
			"outputs": [
				{
					"internalType": "bool",
					"name": "",
					"type": "bool"
				}
			],
			"stateMutability": "view",
			"type": "function"
		},
		{
			"inputs": [
				{
					"internalType": "address",
					"name": "_newOwner",
					"type": "address"
				},
				{
					"internalType": "contract Campaign",
					"name": "_campaign",
					"type": "address"
				}
			],
			"name": "transferCampaignOwnership",
			"outputs": [],
			"stateMutability": "nonpayable",
			"type": "function"
		},
		{
			"inputs": [],
			"name": "unpauseCampaign",
			"outputs": [],
			"stateMutability": "nonpayable",
			"type": "function"
		},
		{
			"inputs": [
				{
					"internalType": "uint256",
					"name": "_campaignId",
					"type": "uint256"
				}
			],
			"name": "unpauseCampaignFeatured",
			"outputs": [],
			"stateMutability": "nonpayable",
			"type": "function"
		},
		{
			"inputs": [],
			"name": "userCount",
			"outputs": [
				{
					"internalType": "uint256",
					"name": "",
					"type": "uint256"
				}
			],
			"stateMutability": "view",
			"type": "function"
		},
		{
			"inputs": [
				{
					"internalType": "address",
					"name": "",
					"type": "address"
				}
			],
			"name": "userID",
			"outputs": [
				{
					"internalType": "uint256",
					"name": "",
					"type": "uint256"
				}
			],
			"stateMutability": "view",
			"type": "function"
		},
		{
			"inputs": [
				{
					"internalType": "uint256",
					"name": "",
					"type": "uint256"
				}
			],
			"name": "users",
			"outputs": [
				{
					"internalType": "address",
					"name": "userAddress",
					"type": "address"
				},
				{
					"internalType": "uint256",
					"name": "joined",
					"type": "uint256"
				},
				{
					"internalType": "uint256",
					"name": "updatedAt",
					"type": "uint256"
				},
				{
					"internalType": "bool",
					"name": "verified",
					"type": "bool"
				},
				{
					"internalType": "bool",
					"name": "exists",
					"type": "bool"
				}
			],
			"stateMutability": "view",
			"type": "function"
		}
	]
}