{
	"data": {
		"bytecode": {
			"linkReferences": {},
			"object": "608060405234801561001057600080fd5b5061574080620000216000396000f3fe6080604052600436106103975760003560e01c806391d14854116101dc578063d4b8399211610102578063ebf52409116100a0578063f4c9b1fd1161006f578063f4c9b1fd14610af4578063f5c75ede14610b20578063f87770f514610b40578063fc7a96a014610b9057600080fd5b8063ebf5240914610a5c578063eff5924f14610a71578063f301af4214610a88578063f3f0801514610ad457600080fd5b8063e007832c116100dc578063e007832c146109b6578063e2274075146109d6578063e83ddcea146109f6578063ebf0c71714610a3b57600080fd5b8063d4b8399214610951578063d547741f14610968578063d753ca7c1461098857600080fd5b8063a446bbb81161017a578063b4e34fd811610149578063b4e34fd8146108da578063bacbe2da146108fa578063d222aba51461091a578063d2411d191461093a57600080fd5b8063a446bbb814610849578063a6e3f61214610869578063aaee6a1f1461089a578063b3035efa146108ba57600080fd5b806395cbd157116101b657806395cbd157146107d657806398407647146107fd5780639c2fcd451461081d578063a217fddf1461083457600080fd5b806391d148541461078c578063937e09b1146107ac57806394a91de8146107c357600080fd5b806348db7f23116102c1578063714bf9081161025f57806382fde0931161022e57806382fde0931461071e5780638632e966146107355780638ef9af721461075557806390ffa70b1461076c57600080fd5b8063714bf90814610650578063794c1018146106815780637e0f9dd1146106a157806381d12c58146106c757600080fd5b80635badbe4c1161029b5780635badbe4c146105ed5780635c975abb146106035780636bbc5c4c1461061b5780636c0ddc121461063b57600080fd5b806348db7f231461059f57806349ed2fa9146105bf57806357414c37146105d657600080fd5b8063248a9ca31161033957806336568abe1161030857806336568abe1461050657806336cb958814610526578063389b753314610546578063451c3d801461056657600080fd5b8063248a9ca31461048a57806329dcb0cf146104ba5780632f2ff15d146104d157806334d71e17146104f157600080fd5b80630a144391116103755780630a144391146104185780630d10f3b5146104495780631c8e541b1461045e5780631f93da251461047357600080fd5b806301fc32791461039c57806301ffc9a7146103c657806303441006146103f6575b600080fd5b3480156103a857600080fd5b506103b361010d5481565b6040519081526020015b60405180910390f35b3480156103d257600080fd5b506103e66103e1366004615307565b610bb2565b60405190151581526020016103bd565b34801561040257600080fd5b506104166104113660046152cb565b610be9565b005b34801561042457600080fd5b506103e66104333660046150f6565b6101116020526000908152604090205460ff1681565b34801561045557600080fd5b5061041661104d565b34801561046a57600080fd5b50610416611103565b34801561047f57600080fd5b506103b361010f5481565b34801561049657600080fd5b506103b36104a53660046152cb565b60009081526065602052604090206001015490565b3480156104c657600080fd5b506103b361010b5481565b3480156104dd57600080fd5b506104166104ec3660046152e3565b6111b6565b3480156104fd57600080fd5b506104166111e1565b34801561051257600080fd5b506104166105213660046152e3565b6113ee565b34801561053257600080fd5b506104166105413660046152cb565b61146c565b34801561055257600080fd5b506104166105613660046152cb565b6115a4565b34801561057257600080fd5b5061010454610587906001600160a01b031681565b6040516001600160a01b0390911681526020016103bd565b3480156105ab57600080fd5b506104166105ba3660046152cb565b6118ee565b3480156105cb57600080fd5b506103b36101055481565b3480156105e257600080fd5b506103b361010c5481565b3480156105f957600080fd5b506103b360fd5481565b34801561060f57600080fd5b5060975460ff166103e6565b34801561062757600080fd5b506104166106363660046151c8565b611a7a565b34801561064757600080fd5b50610416611b63565b34801561065c57600080fd5b506103e661066b3660046150f6565b6101026020526000908152604090205460ff1681565b34801561068d57600080fd5b5061041661069c366004615347565b611cb8565b3480156106ad57600080fd5b5060fb54610587906201000090046001600160a01b031681565b3480156106d357600080fd5b506106e76106e23660046152cb565b611eb8565b604080516001600160a01b0390971687529415156020870152938501929092526060840152608083015260a082015260c0016103bd565b34801561072a57600080fd5b506103b36101095481565b34801561074157600080fd5b5061041661075036600461536b565b611f0f565b34801561076157600080fd5b506103b36101065481565b34801561077857600080fd5b50610416610787366004615293565b6122c5565b34801561079857600080fd5b506103e66107a73660046152e3565b612415565b3480156107b857600080fd5b506103b36101075481565b6103b36107d1366004615209565b612440565b3480156107e257600080fd5b5060fb546107f09060ff1681565b6040516103bd91906154fc565b34801561080957600080fd5b506104166108183660046150f6565b6128f3565b34801561082957600080fd5b506103b36101085481565b34801561084057600080fd5b506103b3600081565b34801561085557600080fd5b50610416610864366004615162565b612a58565b34801561087557600080fd5b506103e66108843660046150f6565b6101006020526000908152604090205460ff1681565b3480156108a657600080fd5b506104166108b5366004615347565b612c23565b3480156108c657600080fd5b506104166108d53660046153a0565b612d50565b3480156108e657600080fd5b506104166108f53660046153fd565b613132565b34801561090657600080fd5b506104166109153660046152cb565b6133f7565b34801561092657600080fd5b506104166109353660046152cb565b613645565b34801561094657600080fd5b506103b36101105481565b34801561095d57600080fd5b506103b361010a5481565b34801561097457600080fd5b506104166109833660046152e3565b613842565b34801561099457600080fd5b506103b36109a33660046150f6565b6101126020526000908152604090205481565b3480156109c257600080fd5b506104166109d13660046152e3565b613868565b3480156109e257600080fd5b506104166109f13660046152cb565b61393b565b348015610a0257600080fd5b50610a16610a113660046152cb565b613b79565b604080516001600160a01b0390941684526020840192909252908201526060016103bd565b348015610a4757600080fd5b5061010354610587906001600160a01b031681565b348015610a6857600080fd5b50610416613bb7565b348015610a7d57600080fd5b506103b361010e5481565b348015610a9457600080fd5b50610aa8610aa33660046152cb565b613d89565b60408051958652602086019490945292840191909152151560608301521515608082015260a0016103bd565b348015610ae057600080fd5b50610416610aef36600461512e565b613dcf565b348015610b0057600080fd5b5060fb54610b1390610100900460ff1681565b6040516103bd91906154ee565b348015610b2c57600080fd5b50610416610b3b3660046152cb565b614241565b348015610b4c57600080fd5b50610b60610b5b3660046152cb565b614335565b604080519485526001600160a01b03909316602085015290151591830191909152151560608201526080016103bd565b348015610b9c57600080fd5b50610104546103e690600160a01b900460ff1681565b60006001600160e01b03198216637965db0b60e01b1480610be357506301ffc9a760e01b6001600160e01b03198316145b92915050565b60fb5460405163f7878c6960e01b8152336004820152620100009091046001600160a01b03169063f7878c699060240160206040518083038186803b158015610c3157600080fd5b505afa158015610c45573d6000803e3d6000fd5b505050506040513d601f19601f82011682018060405250810190610c6991906152af565b80610c7a5750610c7a600033612415565b610c8357600080fd5b600080610ca860fb60029054906101000a90046001600160a01b031661010554614382565b9094509250839150508015610cba5750805b610cc357600080fd5b336000610ce560fb60029054906101000a90046001600160a01b031683614420565b9150819050610cf357600080fd5b60975460ff1615610d1f5760405162461bcd60e51b8152600401610d1690615577565b60405180910390fd5b600260c9541415610d425760405162461bcd60e51b8152600401610d16906155a1565b600260c981905550600060fc8681548110610d6d57634e487b7160e01b600052603260045260246000fd5b90600052602060002090600602019050610d9460026101095461453690919063ffffffff16565b8160020154118015610daf57508054600160a01b900460ff16155b610db857600080fd5b6000610ddc60fb60029054906101000a90046001600160a01b031661010554614549565b90506000610e03612710610dfd8486600101546146cd90919063ffffffff16565b90614536565b905060006040518060400160405280610e298487600101546146d990919063ffffffff16565b8152602090810184905260408051808201825287546001600160a01b03908116825260fb548351632066534160e21b8152935195965060009592948581019462010000909204909216926381994d0492600480840193919291829003018186803b158015610e9657600080fd5b505afa158015610eaa573d6000803e3d6000fd5b505050506040513d601f19601f82011682018060405250810190610ece9190615112565b6001600160a01b03169052855460ff60a01b1916600160a01b17865561010f54909150610efc9060016146e5565b61010f55600185015461010654610f12916146d9565b6101065560fb5460405163e8147c6960e01b815260048101859052306024820152620100009091046001600160a01b03169063e8147c6990604401600060405180830381600087803b158015610f6757600080fd5b505af1158015610f7b573d6000803e3d6000fd5b5050505060005b6002811015610ffe5761010454610fec906001600160a01b031630848460028110610fbd57634e487b7160e01b600052603260045260246000fd5b6020020151868560028110610fe257634e487b7160e01b600052603260045260246000fd5b60200201516146f1565b80610ff68161569d565b915050610f82565b50897fe0306580e174b721f93a4736fbb1cf897fcad9ddb89f57bd1a8419ec3ae6b9a26101055460405161103491815260200190565b60405180910390a25050600160c9555050505050505050565b60975460ff16156110705760405162461bcd60e51b8152600401610d1690615577565b60fb5460405163f7878c6960e01b8152336004820152620100009091046001600160a01b03169063f7878c699060240160206040518083038186803b1580156110b857600080fd5b505afa1580156110cc573d6000803e3d6000fd5b505050506040513d601f19601f820116820180604052508101906110f091906152af565b6110f957600080fd5b611101614751565b565b60975460ff166111255760405162461bcd60e51b8152600401610d1690615549565b60fb5460405163f7878c6960e01b8152336004820152620100009091046001600160a01b03169063f7878c699060240160206040518083038186803b15801561116d57600080fd5b505afa158015611181573d6000803e3d6000fd5b505050506040513d601f19601f820116820180604052508101906111a591906152af565b6111ae57600080fd5b6111016147c6565b6000828152606560205260409020600101546111d28133614819565b6111dc838361487d565b505050565b60fb5460405163f7878c6960e01b8152336004820152620100009091046001600160a01b03169063f7878c699060240160206040518083038186803b15801561122957600080fd5b505afa15801561123d573d6000803e3d6000fd5b505050506040513d601f19601f8201168201806040525081019061126191906152af565b806112725750611272600033612415565b61127b57600080fd5b6000806112a060fb60029054906101000a90046001600160a01b031661010554614382565b90945092508391505080156112b25750805b6112bb57600080fd5b3360006112dd60fb60029054906101000a90046001600160a01b031683614420565b91508190506112eb57600080fd5b60975460ff161561130e5760405162461bcd60e51b8152600401610d1690615577565b600260fb54610100900460ff16600581111561133a57634e487b7160e01b600052602160045260246000fd5b1461134457600080fd5b60fc54600110801561138b57504260fc610110548154811061137657634e487b7160e01b600052603260045260246000fd5b90600052602060002090600602016004015411155b61139457600080fd5b60fb805461ff0019166103001790556113ab614751565b7f769fe02ad955196068a57b86253ea47b981f52918e04cd477b187c58589149046101055460036040516113e09291906155d8565b60405180910390a150505050565b6001600160a01b038116331461145e5760405162461bcd60e51b815260206004820152602f60248201527f416363657373436f6e74726f6c3a2063616e206f6e6c792072656e6f756e636560448201526e103937b632b9903337b91039b2b63360891b6064820152608401610d16565b6114688282614903565b5050565b60fb5460405163f7878c6960e01b8152336004820152620100009091046001600160a01b03169063f7878c699060240160206040518083038186803b1580156114b457600080fd5b505afa1580156114c8573d6000803e3d6000fd5b505050506040513d601f19601f820116820180604052508101906114ec91906152af565b6114f557600080fd5b80600581111561151557634e487b7160e01b600052602160045260246000fd5b60fb805461ff00191661010083600581111561154157634e487b7160e01b600052602160045260246000fd5b02179055507f769fe02ad955196068a57b86253ea47b981f52918e04cd477b187c58589149046101055482600581111561158b57634e487b7160e01b600052602160045260246000fd5b6040516115999291906155d8565b60405180910390a150565b60fb5460405163f7878c6960e01b8152336004820152620100009091046001600160a01b03169063f7878c699060240160206040518083038186803b1580156115ec57600080fd5b505afa158015611600573d6000803e3d6000fd5b505050506040513d601f19601f8201168201806040525081019061162491906152af565b806116355750611635600033612415565b61163e57600080fd5b33600061166060fb60029054906101000a90046001600160a01b031683614420565b915081905061166e57600080fd5b60008061169360fb60029054906101000a90046001600160a01b031661010554614382565b90945092508391505080156116a55750805b6116ae57600080fd5b60975460ff16156116d15760405162461bcd60e51b8152600401610d1690615577565b61010b544211801561176b575060fb60029054906101000a90046001600160a01b03166001600160a01b03166308142b856040518163ffffffff1660e01b815260040160206040518083038186803b15801561172c57600080fd5b505afa158015611740573d6000803e3d6000fd5b505050506040513d601f19601f82011682018060405250810190611764919061532f565b61010c5411155b80156117fc575060fb60029054906101000a90046001600160a01b03166001600160a01b031663de4e42016040518163ffffffff1660e01b815260040160206040518083038186803b1580156117c057600080fd5b505afa1580156117d4573d6000803e3d6000fd5b505050506040513d601f19601f820116820180604052508101906117f8919061532f565b8511155b801561188d575060fb60029054906101000a90046001600160a01b03166001600160a01b031663c5549cc06040518163ffffffff1660e01b815260040160206040518083038186803b15801561185157600080fd5b505afa158015611865573d6000803e3d6000fd5b505050506040513d601f19601f82011682018060405250810190611889919061532f565b8510155b61189657600080fd5b61010b85905561010c546118ab9060016146e5565b61010c55610105546040518681527fe56455a7135d95bc2c0e151523d78eaaac4bf098fcc5dcfc15db81e162480c2a906020015b60405180910390a25050505050565b60fb5460405163f7878c6960e01b8152336004820152620100009091046001600160a01b03169063f7878c699060240160206040518083038186803b15801561193657600080fd5b505afa15801561194a573d6000803e3d6000fd5b505050506040513d601f19601f8201168201806040525081019061196e91906152af565b8061197f575061197f600033612415565b61198857600080fd5b3360006119aa60fb60029054906101000a90046001600160a01b031683614420565b91508190506119b857600080fd5b6000806119dd60fb60029054906101000a90046001600160a01b031661010554614382565b90945092508391505080156119ef5750805b6119f857600080fd5b846001811115611a1857634e487b7160e01b600052602160045260246000fd5b60fb805460ff191660018381811115611a4157634e487b7160e01b600052602160045260246000fd5b0217905550610105546040518681527f64930d980b9ba8b13843c3c0151e5c5007b609fd8d678362c59502df4dbe9217906020016118df565b60fb5460405163f7878c6960e01b8152336004820152620100009091046001600160a01b03169063f7878c699060240160206040518083038186803b158015611ac257600080fd5b505afa158015611ad6573d6000803e3d6000fd5b505050506040513d601f19601f82011682018060405250810190611afa91906152af565b611b0357600080fd5b600260c9541415611b265760405162461bcd60e51b8152600401610d16906155a1565b600260c95560975460ff1615611b4e5760405162461bcd60e51b8152600401610d1690615577565b611b5983828461496a565b5050600160c95550565b336000611b8560fb60029054906101000a90046001600160a01b031683614420565b9150819050611b9357600080fd5b600080611bb860fb60029054906101000a90046001600160a01b031661010554614382565b9094509250839150508015611bca5750805b611bd357600080fd5b60975460ff1615611bf65760405162461bcd60e51b8152600401610d1690615577565b336000908152610111602052604090205460ff168015611c725750600160fb54610100900460ff166005811115611c3d57634e487b7160e01b600052602160045260246000fd5b1480611c725750600260fb54610100900460ff166005811115611c7057634e487b7160e01b600052602160045260246000fd5b145b611c7b57600080fd5b610105546040513381527fbc505b9cf801a19091eaef3ee8c984834c29bd44a9b558942320dcc05755183c9060200160405180910390a250505050565b600080611cdd60fb60029054906101000a90046001600160a01b031661010554614382565b9094509250839150508015611cef5750805b611cf857600080fd5b336000611d1a60fb60029054906101000a90046001600160a01b031683614420565b9150819050611d2857600080fd5b60975460ff1615611d4b5760405162461bcd60e51b8152600401610d1690615577565b60ff8681548110611d6c57634e487b7160e01b600052603260045260246000fd5b906000526020600020906002020160010160149054906101000a900460ff16611d9457600080fd5b336001600160a01b031660ff8781548110611dbf57634e487b7160e01b600052603260045260246000fd5b60009182526020909120600160029092020101546001600160a01b0316148015611df95750336000908152610100602052604090205460ff165b8015611e155750336000908152610111602052604090205460ff165b611e1e57600080fd5b8460ff8781548110611e4057634e487b7160e01b600052603260045260246000fd5b906000526020600020906002020160010160146101000a81548160ff021916908315150217905550857f693dd74b0031adcd76227f30e0ff8fd8c32da74887cc14801ffabc26bf2812696101055487604051611ea89291909182521515602082015260400190565b60405180910390a2505050505050565b60fc8181548110611ec857600080fd5b6000918252602090912060069091020180546001820154600283015460038401546004909401546001600160a01b0384169550600160a01b90930460ff1693919290919086565b60fb5460405163f7878c6960e01b8152336004820152620100009091046001600160a01b03169063f7878c699060240160206040518083038186803b158015611f5757600080fd5b505afa158015611f6b573d6000803e3d6000fd5b505050506040513d601f19601f82011682018060405250810190611f8f91906152af565b80611fa05750611fa0600033612415565b611fa957600080fd5b600080611fce60fb60029054906101000a90046001600160a01b031661010554614382565b9094509250839150508015611fe05750805b611fe957600080fd5b33600061200b60fb60029054906101000a90046001600160a01b031683614420565b915081905061201957600080fd5b60975460ff161561203c5760405162461bcd60e51b8152600401610d1690615577565b60fb60029054906101000a90046001600160a01b03166001600160a01b0316636977aa346040518163ffffffff1660e01b815260040160206040518083038186803b15801561208a57600080fd5b505afa15801561209e573d6000803e3d6000fd5b505050506040513d601f19601f820116820180604052508101906120c2919061532f565b88118015612154575060fb60029054906101000a90046001600160a01b03166001600160a01b03166384f775776040518163ffffffff1660e01b815260040160206040518083038186803b15801561211957600080fd5b505afa15801561212d573d6000803e3d6000fd5b505050506040513d601f19601f82011682018060405250810190612151919061532f565b88105b61215d57600080fd5b6040805160a081018252898152602081018981529181018881526001606083018181528915156080850190815260fe805480850182556000829052955160049096027f54075df80ec1ae6ac9100e1fd0ebf3246c17f5c933137af392011f4c5f61513a81019690965595517f54075df80ec1ae6ac9100e1fd0ebf3246c17f5c933137af392011f4c5f61513b86015592517f54075df80ec1ae6ac9100e1fd0ebf3246c17f5c933137af392011f4c5f61513c850155517f54075df80ec1ae6ac9100e1fd0ebf3246c17f5c933137af392011f4c5f61513d9093018054925115156101000261ff00199415159490941661ffff19909316929092179290921790559054612268916146d9565b6101055460408051918252602082018b905281018990526060810188905286151560808201527f40b61abba35e1f57f79e5b58a215778745844c5b1915468ce8d5d3152d6352479060a00160405180910390a25050505050505050565b3360006122e760fb60029054906101000a90046001600160a01b031683614420565b91508190506122f557600080fd5b60008061231a60fb60029054906101000a90046001600160a01b031661010554614382565b909450925083915050801561232c5750805b61233557600080fd5b60975460ff166123575760405162461bcd60e51b8152600401610d1690615549565b600360fb54610100900460ff16600581111561238357634e487b7160e01b600052602160045260246000fd5b1480156123a15750336000908152610102602052604090205460ff16155b80156123bd5750336000908152610111602052604090205460ff165b6123c657600080fd5b33600090815261010260205260409020805460ff1916600117905584156123fb5761010d546123f69060016146e5565b61010d555b61010e5461240a9060016146e5565b61010e555050505050565b60009182526065602090815260408084206001600160a01b0393909316845291905290205460ff1690565b600080600061246760fb60029054906101000a90046001600160a01b031661010554614382565b90945092508391505080156124795750805b61248257600080fd5b3360006124a460fb60029054906101000a90046001600160a01b031683614420565b91508190506124b257600080fd5b61010b544211156124c257600080fd5b60975460ff16156124e55760405162461bcd60e51b8152600401610d1690615577565b600260c95414156125085760405162461bcd60e51b8152600401610d16906155a1565b600260c955610104546001600160a01b03898116911614801561252e5750610107543410155b80156125bf575060fb60029054906101000a90046001600160a01b03166001600160a01b03166384f775776040518163ffffffff1660e01b815260040160206040518083038186803b15801561258357600080fd5b505afa158015612597573d6000803e3d6000fd5b505050506040513d601f19601f820116820180604052508101906125bb919061532f565b3411155b6125c857600080fd5b610106546000906125d990346146e5565b61010454909150600160a01b900460ff161580156125f957506101065481115b15612615576101065461260d9082906146d9565b9550506128e2565b86156128d85760fe888154811061263c57634e487b7160e01b600052603260045260246000fd5b906000526020600020906004020160000154341015801561268f5750600060fe898154811061267b57634e487b7160e01b600052603260045260246000fd5b906000526020600020906004020160020154115b80156126cf575060fe88815481106126b757634e487b7160e01b600052603260045260246000fd5b600091825260209091206003600490920201015460ff165b8015612717575060fe88815481106126f757634e487b7160e01b600052603260045260246000fd5b906000526020600020906004020160030160019054906101000a900460ff165b61272057600080fd5b6040805160808101825289815233602080830182815260008486018181526060860182815260ff805460018181018355918552975160029098027fe08ec2af2cfc251225e1968fd6ca21e4044f129bffa95bac3503be8bdb30a36781019890985593517fe08ec2af2cfc251225e1968fd6ca21e4044f129bffa95bac3503be8bdb30a3689097018054925191511515600160a81b0260ff60a81b19921515600160a01b026001600160a81b03199094166001600160a01b03998a1617939093179190911691909117905583815261010090925290849020805460ff191690911790556101055460fb5493516376d3bca760e11b81528c947ff6db7806da8881826fb74329ff39f277cd5ae5bf2e80d108044862fdaf12c03c949293620100009091049092169163eda7794e9161286891906004016001600160a01b0391909116815260200190565b60206040518083038186803b15801561288057600080fd5b505afa158015612894573d6000803e3d6000fd5b505050506040513d601f19601f820116820180604052508101906128b8919061532f565b604080519283526020830191909152349082015260600160405180910390a25b6128e0614ba6565b505b5050600160c9555090949350505050565b80600061291560fb60029054906101000a90046001600160a01b031683614420565b915081905061292357600080fd5b60fb5460405163f7878c6960e01b8152336004820152620100009091046001600160a01b03169063f7878c699060240160206040518083038186803b15801561296b57600080fd5b505afa15801561297f573d6000803e3d6000fd5b505050506040513d601f19601f820116820180604052508101906129a391906152af565b6129ac57600080fd5b610103546129c5906000906001600160a01b0316613842565b6129d0600084614d2d565b61010380546001600160a01b0319166001600160a01b0385811691821790925560fb546040516367480d3560e01b81526004810192909252306024830152620100009004909116906367480d3590604401600060405180830381600087803b158015612a3b57600080fd5b505af1158015612a4f573d6000803e3d6000fd5b50505050505050565b600054610100900460ff1680612a71575060005460ff16155b612ad45760405162461bcd60e51b815260206004820152602e60248201527f496e697469616c697a61626c653a20636f6e747261637420697320616c72656160448201526d191e481a5b9a5d1a585b1a5e995960921b6064820152608401610d16565b600054610100900460ff16158015612af6576000805461ffff19166101011790555b6001600160a01b038216612b0957600080fd5b612b14600083614d2d565b60fb805461010380546001600160a01b038681166001600160a01b03199092169190911790915561ff00198682166201000090810291909116610100600160b01b031990931692909217928390556040516331b0c8ff60e21b8152306004820152919092049091169063c6c323fc9060240160206040518083038186803b158015612b9e57600080fd5b505afa158015612bb2573d6000803e3d6000fd5b505050506040513d601f19601f82011682018060405250810190612bd6919061532f565b6101058190556040517fe1926f6dd46837fe59306098ef2779d8e412232f2c497f80b46b7283c6138d4d90600090a2612c0d614751565b80156111dc576000805461ff0019169055505050565b600080612c4860fb60029054906101000a90046001600160a01b031661010554614382565b9094509250839150508015612c5a5750805b612c6357600080fd5b336000612c8560fb60029054906101000a90046001600160a01b031683614420565b9150819050612c9357600080fd5b60fb5460405163f7878c6960e01b8152336004820152620100009091046001600160a01b03169063f7878c699060240160206040518083038186803b158015612cdb57600080fd5b505afa158015612cef573d6000803e3d6000fd5b505050506040513d601f19601f82011682018060405250810190612d1391906152af565b80612d245750612d24600033612415565b612d2d57600080fd5b60975460ff1615611e1e5760405162461bcd60e51b8152600401610d1690615577565b60fb5460405163f7878c6960e01b8152336004820152620100009091046001600160a01b03169063f7878c699060240160206040518083038186803b158015612d9857600080fd5b505afa158015612dac573d6000803e3d6000fd5b505050506040513d601f19601f82011682018060405250810190612dd091906152af565b80612de15750612de1600033612415565b612dea57600080fd5b6000612e0e60fb60029054906101000a90046001600160a01b031661010554614382565b60fb5460405163f7878c6960e01b81523360048201529195506201000090046001600160a01b0316935063f7878c699250602401905060206040518083038186803b158015612e5c57600080fd5b505afa158015612e70573d6000803e3d6000fd5b505050506040513d601f19601f82011682018060405250810190612e9491906152af565b612ea3578015612ea357600080fd5b60fb60029054906101000a90046001600160a01b03166001600160a01b0316636977aa346040518163ffffffff1660e01b815260040160206040518083038186803b158015612ef157600080fd5b505afa158015612f05573d6000803e3d6000fd5b505050506040513d601f19601f82011682018060405250810190612f29919061532f565b8610158015612fbd575060fb60029054906101000a90046001600160a01b03166001600160a01b03166384f775776040518163ffffffff1660e01b815260040160206040518083038186803b158015612f8157600080fd5b505afa158015612f95573d6000803e3d6000fd5b505050506040513d601f19601f82011682018060405250810190612fb9919061532f565b8611155b8015613048575060fb5460405163104b379160e11b81526001600160a01b03858116600483015262010000909204909116906320966f229060240160206040518083038186803b15801561301057600080fd5b505afa158015613024573d6000803e3d6000fd5b505050506040513d601f19601f8201168201806040525081019061304891906152af565b61305157600080fd5b61010a87905561010786905561010b85905583600181111561308357634e487b7160e01b600052602160045260246000fd5b60fb805460ff1916600183818111156130ac57634e487b7160e01b600052602160045260246000fd5b021790555061010480546001600160a01b0385166001600160a81b03199091168117600160a01b85151502179091556101055460408051898152602081018990529081018790526060810192909252907f341c174a159499e44294b546b0fee7036e11f279dbab08d8abd46165954cb94d9060800160405180910390a250505050505050565b60fb5460405163f7878c6960e01b8152336004820152620100009091046001600160a01b03169063f7878c699060240160206040518083038186803b15801561317a57600080fd5b505afa15801561318e573d6000803e3d6000fd5b505050506040513d601f19601f820116820180604052508101906131b291906152af565b806131c357506131c3600033612415565b6131cc57600080fd5b6000806131f160fb60029054906101000a90046001600160a01b031661010554614382565b90945092508391505080156132035750805b61320c57600080fd5b33600061322e60fb60029054906101000a90046001600160a01b031683614420565b915081905061323c57600080fd5b60975460ff161561325f5760405162461bcd60e51b8152600401610d1690615577565b60fe898154811061328057634e487b7160e01b600052603260045260246000fd5b600091825260209091206003600490920201015460ff166132a057600080fd5b8760fe8a815481106132c257634e487b7160e01b600052603260045260246000fd5b9060005260206000209060040201600001819055508660fe8a815481106132f957634e487b7160e01b600052603260045260246000fd5b9060005260206000209060040201600101819055508560fe8a8154811061333057634e487b7160e01b600052603260045260246000fd5b9060005260206000209060040201600201819055508460fe8a8154811061336757634e487b7160e01b600052603260045260246000fd5b600091825260209182902060036004909202010180549215156101000261ff00199093169290921790915561010554604080518c8152928301919091528101899052606081018890526080810187905285151560a08201527fcf748295ad8db10a7feb1837f65de7b13f80501d9720452d7f3732858e057d5d9060c00160405180910390a1505050505050505050565b60008061341c60fb60029054906101000a90046001600160a01b031661010554614382565b909450925083915050801561342e5750805b61343757600080fd5b3360009081526101116020526040902054839060ff16801561349a575060fc818154811061347557634e487b7160e01b600052603260045260246000fd5b600091825260208083203384526005600690930201919091019052604090205460ff16155b80156134d8575060fc81815481106134c257634e487b7160e01b600052603260045260246000fd5b9060005260206000209060060201600401544211155b6134e157600080fd5b33600061350360fb60029054906101000a90046001600160a01b031683614420565b915081905061351157600080fd5b60975460ff16156135345760405162461bcd60e51b8152600401610d1690615577565b600060fc878154811061355757634e487b7160e01b600052603260045260246000fd5b60009182526020808320338452600692909202909101600501905260409020805460ff191691151591909117905560fc80546135ce91600191899081106135ae57634e487b7160e01b600052603260045260246000fd5b9060005260206000209060060201600201546146d990919063ffffffff16565b60fc87815481106135ef57634e487b7160e01b600052603260045260246000fd5b9060005260206000209060060201600201819055507fc7339c6f9b9b0262dd4030219125cd3fb06a12404375dd34e220f57b613447c78660405161363591815260200190565b60405180910390a1505050505050565b60fb5460405163f7878c6960e01b8152336004820152620100009091046001600160a01b03169063f7878c699060240160206040518083038186803b15801561368d57600080fd5b505afa1580156136a1573d6000803e3d6000fd5b505050506040513d601f19601f820116820180604052508101906136c591906152af565b806136d657506136d6600033612415565b6136df57600080fd5b60008061370460fb60029054906101000a90046001600160a01b031661010554614382565b90945092508391505080156137165750805b61371f57600080fd5b33600061374160fb60029054906101000a90046001600160a01b031683614420565b915081905061374f57600080fd5b60975460ff16156137725760405162461bcd60e51b8152600401610d1690615577565b60fe858154811061379357634e487b7160e01b600052603260045260246000fd5b600091825260209091206003600490920201015460ff166137b357600080fd5b60fe85815481106137d457634e487b7160e01b600052603260045260246000fd5b600091825260208220600490910201818155600181018290556002810191909155600301805461ffff191690556040517f41180eac7821509b09c187e6116a43cc97aa2b97ce4e20c974c2c7646eabf9ec906138339087815260200190565b60405180910390a15050505050565b60008281526065602052604090206001015461385e8133614819565b6111dc8383614903565b60008061388d60fb60029054906101000a90046001600160a01b031661010554614382565b909450925083915050801561389f5750805b6138a857600080fd5b3360006138ca60fb60029054906101000a90046001600160a01b031683614420565b91508190506138d857600080fd5b60975460ff16156138fb5760405162461bcd60e51b8152600401610d1690615577565b600260c954141561391e5760405162461bcd60e51b8152600401610d16906155a1565b600260c95561392e33868861496a565b5050600160c95550505050565b60008061396060fb60029054906101000a90046001600160a01b031661010554614382565b90945092508391505080156139725750805b61397b57600080fd5b3360009081526101116020526040902054839060ff1680156139de575060fc81815481106139b957634e487b7160e01b600052603260045260246000fd5b600091825260208083203384526005600690930201919091019052604090205460ff16155b8015613a1c575060fc8181548110613a0657634e487b7160e01b600052603260045260246000fd5b9060005260206000209060060201600401544211155b613a2557600080fd5b336000613a4760fb60029054906101000a90046001600160a01b031683614420565b9150819050613a5557600080fd5b60975460ff1615613a785760405162461bcd60e51b8152600401610d1690615577565b600160fc8781548110613a9b57634e487b7160e01b600052603260045260246000fd5b60009182526020808320338452600692909202909101600501905260409020805460ff191691151591909117905560fc8054613b129160019189908110613af257634e487b7160e01b600052603260045260246000fd5b9060005260206000209060060201600201546146e590919063ffffffff16565b60fc8781548110613b3357634e487b7160e01b600052603260045260246000fd5b9060005260206000209060060201600201819055507f7f511e347bf51eed3be100b3194247d5207f05f3b33de7d31e3e8ee73199a0498660405161363591815260200190565b6101018181548110613b8a57600080fd5b60009182526020909120600390910201805460018201546002909201546001600160a01b03909116925083565b336000613bd960fb60029054906101000a90046001600160a01b031683614420565b9150819050613be757600080fd5b60fb5460405163f7878c6960e01b8152336004820152620100009091046001600160a01b03169063f7878c699060240160206040518083038186803b158015613c2f57600080fd5b505afa158015613c43573d6000803e3d6000fd5b505050506040513d601f19601f82011682018060405250810190613c6791906152af565b80613c785750613c78600033612415565b613c8157600080fd5b600080613ca660fb60029054906101000a90046001600160a01b031661010554614382565b9094509250839150508015613cb85750805b613cc157600080fd5b60975460ff16613ce35760405162461bcd60e51b8152600401610d1690615549565b613d01612710610dfd611f40610109546146cd90919063ffffffff16565b61010d5410158015613d3c5750600360fb54610100900460ff166005811115613d3a57634e487b7160e01b600052602160045260246000fd5b145b613d4557600080fd5b60fb805461ff001916610400179055610105546040517f769fe02ad955196068a57b86253ea47b981f52918e04cd477b187c5858914904916113e0916004906155d8565b60fe8181548110613d9957600080fd5b60009182526020909120600490910201805460018201546002830154600390930154919350919060ff8082169161010090041685565b60fb5460405163f7878c6960e01b8152336004820152620100009091046001600160a01b03169063f7878c699060240160206040518083038186803b158015613e1757600080fd5b505afa158015613e2b573d6000803e3d6000fd5b505050506040513d601f19601f82011682018060405250810190613e4f91906152af565b80613e605750613e60600033612415565b613e6957600080fd5b600080613e8e60fb60029054906101000a90046001600160a01b031661010554614382565b9094509250839150508015613ea05750805b613ea957600080fd5b336000613ecb60fb60029054906101000a90046001600160a01b031683614420565b9150819050613ed957600080fd5b60975460ff1615613efc5760405162461bcd60e51b8152600401610d1690615577565b61010b54421115613f0c57600080fd5b600060fb5460ff166001811115613f3357634e487b7160e01b600052602160045260246000fd5b1415613f4c5761010a54610106541015613f4c57600080fd5b6000613f7060fb60029054906101000a90046001600160a01b031661010554614549565b90506001600160a01b038816613f8557600080fd5b600260fb54610100900460ff166005811115613fb157634e487b7160e01b600052602160045260246000fd5b14613fbb57600080fd5b612710613fc888836146cd565b1015613fd357600080fd5b60fb60029054906101000a90046001600160a01b03166001600160a01b031663035115746040518163ffffffff1660e01b815260040160206040518083038186803b15801561402157600080fd5b505afa158015614035573d6000803e3d6000fd5b505050506040513d601f19601f82011682018060405250810190614059919061532f565b86101580156140ed575060fb60029054906101000a90046001600160a01b03166001600160a01b031663dfef1f1f6040518163ffffffff1660e01b815260040160206040518083038186803b1580156140b157600080fd5b505afa1580156140c5573d6000803e3d6000fd5b505050506040513d601f19601f820116820180604052508101906140e9919061532f565b8611155b6140f657600080fd5b60fc54600111614142574260fc610110548154811061412557634e487b7160e01b600052603260045260246000fd5b906000526020600020906006020160040154111561414257600080fd5b60fc8054600091906141559060016146e5565b8154811061417357634e487b7160e01b600052603260045260246000fd5b60009182526020822060069091020180546001600160a81b0319166001600160a01b038c1617815560018082018b9055600482018a9055600282019290925560fd549092506141c1916146e5565b60fd5560fc546141d29060016146e5565b6101105560fc546141e49060016146d9565b6101055460408051918252602082018a90526001600160a01b038c1682820152606082018b9052517f92b0b16b2af0d04e9225ed4cfd315b60059f7011453bce12e2cbf29a93f00daa9181900360800190a2505050505050505050565b60fb5460405163f7878c6960e01b8152336004820152620100009091046001600160a01b03169063f7878c699060240160206040518083038186803b15801561428957600080fd5b505afa15801561429d573d6000803e3d6000fd5b505050506040513d601f19601f820116820180604052508101906142c191906152af565b6142ca57600080fd5b6000806142ef60fb60029054906101000a90046001600160a01b031661010554614382565b90945092508391505080156143015750805b61430a57600080fd5b60975460ff161561432d5760405162461bcd60e51b8152600401610d1690615577565b505061010c55565b60ff818154811061434557600080fd5b6000918252602090912060029091020180546001909101549091506001600160a01b0381169060ff600160a01b8204811691600160a81b90041684565b600080600080600080600080896001600160a01b031663339d50a58a6040518263ffffffff1660e01b81526004016143bc91815260200190565b60806040518083038186803b1580156143d457600080fd5b505afa1580156143e8573d6000803e3d6000fd5b505050506040513d601f19601f8201168201806040525081019061440c919061523f565b929d919c509a509098509650505050505050565b6000806001600160a01b03831661443657600080fd5b6040516376d3bca760e11b81526001600160a01b038481166004830152600091829187169063365b98b290829063eda7794e9060240160206040518083038186803b15801561448457600080fd5b505afa158015614498573d6000803e3d6000fd5b505050506040513d601f19601f820116820180604052508101906144bc919061532f565b6040518263ffffffff1660e01b81526004016144da91815260200190565b604080518083038186803b1580156144f157600080fd5b505afa158015614505573d6000803e3d6000fd5b505050506040513d601f19601f82011682018060405250810190614529919061519a565b9097909650945050505050565b60006145428284615604565b9392505050565b6000806000846001600160a01b031663339d50a5856040518263ffffffff1660e01b815260040161457c91815260200190565b60806040518083038186803b15801561459457600080fd5b505afa1580156145a8573d6000803e3d6000fd5b505050506040513d601f19601f820116820180604052508101906145cc919061523f565b5050604051634c788de760e11b8152600481018290529093506001600160a01b03871691506398f11bce9060240160206040518083038186803b15801561461257600080fd5b505afa158015614626573d6000803e3d6000fd5b505050506040513d601f19601f8201168201806040525081019061464a919061532f565b9050806146c557846001600160a01b031663b444bba56040518163ffffffff1660e01b815260040160206040518083038186803b15801561468a57600080fd5b505afa15801561469e573d6000803e3d6000fd5b505050506040513d601f19601f820116820180604052508101906146c2919061532f565b90505b949350505050565b60006145428284615624565b60006145428284615643565b600061454282846155ec565b604080516001600160a01b0385811660248301528416604482015260648082018490528251808303909101815260849091019091526020810180516001600160e01b03166323b872dd60e01b17905261474b908590614d37565b50505050565b60975460ff16156147745760405162461bcd60e51b8152600401610d1690615577565b6097805460ff191660011790557f62e78cea01bee320cd4e420270b5ea74000d11b0c9f74754ebdbfc544b05a2586147a93390565b6040516001600160a01b03909116815260200160405180910390a1565b60975460ff166147e85760405162461bcd60e51b8152600401610d1690615549565b6097805460ff191690557f5db9ee0a495bf2e6ff9c91a7834c1ba4fdd244a5e8aa4e537bd38aeae4b073aa336147a9565b6148238282612415565b6114685761483b816001600160a01b03166014614e09565b614846836020614e09565b604051602001614857929190615479565b60408051601f198184030181529082905262461bcd60e51b8252610d1691600401615516565b6148878282612415565b6114685760008281526065602090815260408083206001600160a01b03851684529091529020805460ff191660011790556148bf3390565b6001600160a01b0316816001600160a01b0316837f2f8788117e7eff1d82e926ec794901d17c78024a50270940304540a733656f0d60405160405180910390a45050565b61490d8282612415565b156114685760008281526065602090815260408083206001600160a01b0385168085529252808320805460ff1916905551339285917ff6391f5c32d9c69d2a47ea670b442974b53935d1edc7fd64eb21e047a839171b9190a45050565b600560fb54610100900460ff16600581111561499657634e487b7160e01b600052602160045260246000fd5b146149e057600160fb54610100900460ff1660058111156149c757634e487b7160e01b600052602160045260246000fd5b1480156149d75750600161010f54105b6149e057600080fd5b6001600160a01b0383166000908152610111602052604090205460ff16614a0657600080fd5b6001600160a01b0383166000908152610100602052604090205460ff1615614a4a576001600160a01b038316600090815261010060205260409020805460ff191690555b6001600160a01b038316600090815261011160205260409020805460ff1916905561010954614a7a9060016146d9565b6101095561010654614a8c90826146d9565b610106556001600160a01b03831660009081526101126020526040902054614ab490826146d9565b6001600160a01b038085166000908152610112602052604090209190915561010454614ae391163084846146f1565b6101055460fb546040516376d3bca760e11b81526001600160a01b0386811660048301527f5408b247afe85fbbb951cb76cd7bbc4c7c859497848cada887f5803c625e546392620100009004169063eda7794e9060240160206040518083038186803b158015614b5257600080fd5b505afa158015614b66573d6000803e3d6000fd5b505050506040513d601f19601f82011682018060405250810190614b8a919061532f565b60408051918252602082018590520160405180910390a2505050565b33600090815261011160205260409020805460ff1916600117905561010654614bcf90346146e5565b610106553360009081526101126020526040902054614bee90346146e5565b336000908152610112602052604090205561010a546101065410614c575760fb805461ff00191661020017905561010554610106546040519081527fc995a56db91318a340f1db055a11f0f64825467cfba425ec7b26b03fc4843e3e9060200160405180910390a25b61010454614c70906001600160a01b03163330346146f1565b6101055460fb546040516376d3bca760e11b81523360048201527f6f4c06be47b1bef37c7a0c2e2242486905f2213810fbe7031e61d46fc600ef28916201000090046001600160a01b03169063eda7794e9060240160206040518083038186803b158015614cdd57600080fd5b505afa158015614cf1573d6000803e3d6000fd5b505050506040513d601f19601f82011682018060405250810190614d15919061532f565b604080519182523460208301520160405180910390a2565b611468828261487d565b6000614d8c826040518060400160405280602081526020017f5361666545524332303a206c6f772d6c6576656c2063616c6c206661696c6564815250856001600160a01b0316614feb9092919063ffffffff16565b8051909150156111dc5780806020019051810190614daa91906152af565b6111dc5760405162461bcd60e51b815260206004820152602a60248201527f5361666545524332303a204552433230206f7065726174696f6e20646964206e6044820152691bdd081cdd58d8d9595960b21b6064820152608401610d16565b60606000614e18836002615624565b614e239060026155ec565b67ffffffffffffffff811115614e4957634e487b7160e01b600052604160045260246000fd5b6040519080825280601f01601f191660200182016040528015614e73576020820181803683370190505b509050600360fc1b81600081518110614e9c57634e487b7160e01b600052603260045260246000fd5b60200101906001600160f81b031916908160001a905350600f60fb1b81600181518110614ed957634e487b7160e01b600052603260045260246000fd5b60200101906001600160f81b031916908160001a9053506000614efd846002615624565b614f089060016155ec565b90505b6001811115614f9c576f181899199a1a9b1b9c1cb0b131b232b360811b85600f1660108110614f4a57634e487b7160e01b600052603260045260246000fd5b1a60f81b828281518110614f6e57634e487b7160e01b600052603260045260246000fd5b60200101906001600160f81b031916908160001a90535060049490941c93614f9581615686565b9050614f0b565b5083156145425760405162461bcd60e51b815260206004820181905260248201527f537472696e67733a20686578206c656e67746820696e73756666696369656e746044820152606401610d16565b60606146c5848460008585843b6150445760405162461bcd60e51b815260206004820152601d60248201527f416464726573733a2063616c6c20746f206e6f6e2d636f6e74726163740000006044820152606401610d16565b600080866001600160a01b03168587604051615060919061545d565b60006040518083038185875af1925050503d806000811461509d576040519150601f19603f3d011682016040523d82523d6000602084013e6150a2565b606091505b50915091506150b28282866150bd565b979650505050505050565b606083156150cc575081614542565b8251156150dc5782518084602001fd5b8160405162461bcd60e51b8152600401610d169190615516565b600060208284031215615107578081fd5b8135614542816156e4565b600060208284031215615123578081fd5b8151614542816156e4565b600080600060608486031215615142578182fd5b833561514d816156e4565b95602085013595506040909401359392505050565b60008060408385031215615174578182fd5b823561517f816156e4565b9150602083013561518f816156e4565b809150509250929050565b600080604083850312156151ac578182fd5b82516151b7816156e4565b602084015190925061518f816156fc565b6000806000606084860312156151dc578283fd5b83356151e7816156e4565b92506020840135915060408401356151fe816156e4565b809150509250925092565b60008060006060848603121561521d578283fd5b8335615228816156e4565b92506020840135915060408401356151fe816156fc565b60008060008060808587031215615254578081fd5b845161525f816156e4565b602086015160408701519195509350615277816156fc565b6060860151909250615288816156fc565b939692955090935050565b6000602082840312156152a4578081fd5b8135614542816156fc565b6000602082840312156152c0578081fd5b8151614542816156fc565b6000602082840312156152dc578081fd5b5035919050565b600080604083850312156152f5578182fd5b82359150602083013561518f816156e4565b600060208284031215615318578081fd5b81356001600160e01b031981168114614542578182fd5b600060208284031215615340578081fd5b5051919050565b60008060408385031215615359578182fd5b82359150602083013561518f816156fc565b60008060008060808587031215615380578182fd5b8435935060208501359250604085013591506060850135615288816156fc565b60008060008060008060c087890312156153b8578384fd5b8635955060208701359450604087013593506060870135925060808701356153df816156e4565b915060a08701356153ef816156fc565b809150509295509295509295565b600080600080600060a08688031215615414578283fd5b85359450602086013593506040860135925060608601359150608086013561543b816156fc565b809150509295509295909350565b60068110615459576154596156ce565b9052565b6000825161546f81846020870161565a565b9190910192915050565b7f416363657373436f6e74726f6c3a206163636f756e74200000000000000000008152600083516154b181601785016020880161565a565b7001034b99036b4b9b9b4b733903937b6329607d1b60179184019182015283516154e281602884016020880161565a565b01602801949350505050565b60208101610be38284615449565b6020810160028310615510576155106156ce565b91905290565b602081526000825180602084015261553581604085016020870161565a565b601f01601f19169190910160400192915050565b60208082526014908201527314185d5cd8589b194e881b9bdd081c185d5cd95960621b604082015260600190565b60208082526010908201526f14185d5cd8589b194e881c185d5cd95960821b604082015260600190565b6020808252601f908201527f5265656e7472616e637947756172643a207265656e7472616e742063616c6c00604082015260600190565b828152604081016145426020830184615449565b600082198211156155ff576155ff6156b8565b500190565b60008261561f57634e487b7160e01b81526012600452602481fd5b500490565b600081600019048311821515161561563e5761563e6156b8565b500290565b600082821015615655576156556156b8565b500390565b60005b8381101561567557818101518382015260200161565d565b8381111561474b5750506000910152565b600081615695576156956156b8565b506000190190565b60006000198214156156b1576156b16156b8565b5060010190565b634e487b7160e01b600052601160045260246000fd5b634e487b7160e01b600052602160045260246000fd5b6001600160a01b03811681146156f957600080fd5b50565b80151581146156f957600080fdfea264697066735822122042783c48cb2ca63e6bf441a80ab3294de623623136333868715ab46cacc54b8064736f6c63430008040033",
			"opcodes": "PUSH1 0x80 PUSH1 0x40 MSTORE CALLVALUE DUP1 ISZERO PUSH2 0x10 JUMPI PUSH1 0x0 DUP1 REVERT JUMPDEST POP PUSH2 0x5740 DUP1 PUSH3 0x21 PUSH1 0x0 CODECOPY PUSH1 0x0 RETURN INVALID PUSH1 0x80 PUSH1 0x40 MSTORE PUSH1 0x4 CALLDATASIZE LT PUSH2 0x397 JUMPI PUSH1 0x0 CALLDATALOAD PUSH1 0xE0 SHR DUP1 PUSH4 0x91D14854 GT PUSH2 0x1DC JUMPI DUP1 PUSH4 0xD4B83992 GT PUSH2 0x102 JUMPI DUP1 PUSH4 0xEBF52409 GT PUSH2 0xA0 JUMPI DUP1 PUSH4 0xF4C9B1FD GT PUSH2 0x6F JUMPI DUP1 PUSH4 0xF4C9B1FD EQ PUSH2 0xAF4 JUMPI DUP1 PUSH4 0xF5C75EDE EQ PUSH2 0xB20 JUMPI DUP1 PUSH4 0xF87770F5 EQ PUSH2 0xB40 JUMPI DUP1 PUSH4 0xFC7A96A0 EQ PUSH2 0xB90 JUMPI PUSH1 0x0 DUP1 REVERT JUMPDEST DUP1 PUSH4 0xEBF52409 EQ PUSH2 0xA5C JUMPI DUP1 PUSH4 0xEFF5924F EQ PUSH2 0xA71 JUMPI DUP1 PUSH4 0xF301AF42 EQ PUSH2 0xA88 JUMPI DUP1 PUSH4 0xF3F08015 EQ PUSH2 0xAD4 JUMPI PUSH1 0x0 DUP1 REVERT JUMPDEST DUP1 PUSH4 0xE007832C GT PUSH2 0xDC JUMPI DUP1 PUSH4 0xE007832C EQ PUSH2 0x9B6 JUMPI DUP1 PUSH4 0xE2274075 EQ PUSH2 0x9D6 JUMPI DUP1 PUSH4 0xE83DDCEA EQ PUSH2 0x9F6 JUMPI DUP1 PUSH4 0xEBF0C717 EQ PUSH2 0xA3B JUMPI PUSH1 0x0 DUP1 REVERT JUMPDEST DUP1 PUSH4 0xD4B83992 EQ PUSH2 0x951 JUMPI DUP1 PUSH4 0xD547741F EQ PUSH2 0x968 JUMPI DUP1 PUSH4 0xD753CA7C EQ PUSH2 0x988 JUMPI PUSH1 0x0 DUP1 REVERT JUMPDEST DUP1 PUSH4 0xA446BBB8 GT PUSH2 0x17A JUMPI DUP1 PUSH4 0xB4E34FD8 GT PUSH2 0x149 JUMPI DUP1 PUSH4 0xB4E34FD8 EQ PUSH2 0x8DA JUMPI DUP1 PUSH4 0xBACBE2DA EQ PUSH2 0x8FA JUMPI DUP1 PUSH4 0xD222ABA5 EQ PUSH2 0x91A JUMPI DUP1 PUSH4 0xD2411D19 EQ PUSH2 0x93A JUMPI PUSH1 0x0 DUP1 REVERT JUMPDEST DUP1 PUSH4 0xA446BBB8 EQ PUSH2 0x849 JUMPI DUP1 PUSH4 0xA6E3F612 EQ PUSH2 0x869 JUMPI DUP1 PUSH4 0xAAEE6A1F EQ PUSH2 0x89A JUMPI DUP1 PUSH4 0xB3035EFA EQ PUSH2 0x8BA JUMPI PUSH1 0x0 DUP1 REVERT JUMPDEST DUP1 PUSH4 0x95CBD157 GT PUSH2 0x1B6 JUMPI DUP1 PUSH4 0x95CBD157 EQ PUSH2 0x7D6 JUMPI DUP1 PUSH4 0x98407647 EQ PUSH2 0x7FD JUMPI DUP1 PUSH4 0x9C2FCD45 EQ PUSH2 0x81D JUMPI DUP1 PUSH4 0xA217FDDF EQ PUSH2 0x834 JUMPI PUSH1 0x0 DUP1 REVERT JUMPDEST DUP1 PUSH4 0x91D14854 EQ PUSH2 0x78C JUMPI DUP1 PUSH4 0x937E09B1 EQ PUSH2 0x7AC JUMPI DUP1 PUSH4 0x94A91DE8 EQ PUSH2 0x7C3 JUMPI PUSH1 0x0 DUP1 REVERT JUMPDEST DUP1 PUSH4 0x48DB7F23 GT PUSH2 0x2C1 JUMPI DUP1 PUSH4 0x714BF908 GT PUSH2 0x25F JUMPI DUP1 PUSH4 0x82FDE093 GT PUSH2 0x22E JUMPI DUP1 PUSH4 0x82FDE093 EQ PUSH2 0x71E JUMPI DUP1 PUSH4 0x8632E966 EQ PUSH2 0x735 JUMPI DUP1 PUSH4 0x8EF9AF72 EQ PUSH2 0x755 JUMPI DUP1 PUSH4 0x90FFA70B EQ PUSH2 0x76C JUMPI PUSH1 0x0 DUP1 REVERT JUMPDEST DUP1 PUSH4 0x714BF908 EQ PUSH2 0x650 JUMPI DUP1 PUSH4 0x794C1018 EQ PUSH2 0x681 JUMPI DUP1 PUSH4 0x7E0F9DD1 EQ PUSH2 0x6A1 JUMPI DUP1 PUSH4 0x81D12C58 EQ PUSH2 0x6C7 JUMPI PUSH1 0x0 DUP1 REVERT JUMPDEST DUP1 PUSH4 0x5BADBE4C GT PUSH2 0x29B JUMPI DUP1 PUSH4 0x5BADBE4C EQ PUSH2 0x5ED JUMPI DUP1 PUSH4 0x5C975ABB EQ PUSH2 0x603 JUMPI DUP1 PUSH4 0x6BBC5C4C EQ PUSH2 0x61B JUMPI DUP1 PUSH4 0x6C0DDC12 EQ PUSH2 0x63B JUMPI PUSH1 0x0 DUP1 REVERT JUMPDEST DUP1 PUSH4 0x48DB7F23 EQ PUSH2 0x59F JUMPI DUP1 PUSH4 0x49ED2FA9 EQ PUSH2 0x5BF JUMPI DUP1 PUSH4 0x57414C37 EQ PUSH2 0x5D6 JUMPI PUSH1 0x0 DUP1 REVERT JUMPDEST DUP1 PUSH4 0x248A9CA3 GT PUSH2 0x339 JUMPI DUP1 PUSH4 0x36568ABE GT PUSH2 0x308 JUMPI DUP1 PUSH4 0x36568ABE EQ PUSH2 0x506 JUMPI DUP1 PUSH4 0x36CB9588 EQ PUSH2 0x526 JUMPI DUP1 PUSH4 0x389B7533 EQ PUSH2 0x546 JUMPI DUP1 PUSH4 0x451C3D80 EQ PUSH2 0x566 JUMPI PUSH1 0x0 DUP1 REVERT JUMPDEST DUP1 PUSH4 0x248A9CA3 EQ PUSH2 0x48A JUMPI DUP1 PUSH4 0x29DCB0CF EQ PUSH2 0x4BA JUMPI DUP1 PUSH4 0x2F2FF15D EQ PUSH2 0x4D1 JUMPI DUP1 PUSH4 0x34D71E17 EQ PUSH2 0x4F1 JUMPI PUSH1 0x0 DUP1 REVERT JUMPDEST DUP1 PUSH4 0xA144391 GT PUSH2 0x375 JUMPI DUP1 PUSH4 0xA144391 EQ PUSH2 0x418 JUMPI DUP1 PUSH4 0xD10F3B5 EQ PUSH2 0x449 JUMPI DUP1 PUSH4 0x1C8E541B EQ PUSH2 0x45E JUMPI DUP1 PUSH4 0x1F93DA25 EQ PUSH2 0x473 JUMPI PUSH1 0x0 DUP1 REVERT JUMPDEST DUP1 PUSH4 0x1FC3279 EQ PUSH2 0x39C JUMPI DUP1 PUSH4 0x1FFC9A7 EQ PUSH2 0x3C6 JUMPI DUP1 PUSH4 0x3441006 EQ PUSH2 0x3F6 JUMPI JUMPDEST PUSH1 0x0 DUP1 REVERT JUMPDEST CALLVALUE DUP1 ISZERO PUSH2 0x3A8 JUMPI PUSH1 0x0 DUP1 REVERT JUMPDEST POP PUSH2 0x3B3 PUSH2 0x10D SLOAD DUP2 JUMP JUMPDEST PUSH1 0x40 MLOAD SWAP1 DUP2 MSTORE PUSH1 0x20 ADD JUMPDEST PUSH1 0x40 MLOAD DUP1 SWAP2 SUB SWAP1 RETURN JUMPDEST CALLVALUE DUP1 ISZERO PUSH2 0x3D2 JUMPI PUSH1 0x0 DUP1 REVERT JUMPDEST POP PUSH2 0x3E6 PUSH2 0x3E1 CALLDATASIZE PUSH1 0x4 PUSH2 0x5307 JUMP JUMPDEST PUSH2 0xBB2 JUMP JUMPDEST PUSH1 0x40 MLOAD SWAP1 ISZERO ISZERO DUP2 MSTORE PUSH1 0x20 ADD PUSH2 0x3BD JUMP JUMPDEST CALLVALUE DUP1 ISZERO PUSH2 0x402 JUMPI PUSH1 0x0 DUP1 REVERT JUMPDEST POP PUSH2 0x416 PUSH2 0x411 CALLDATASIZE PUSH1 0x4 PUSH2 0x52CB JUMP JUMPDEST PUSH2 0xBE9 JUMP JUMPDEST STOP JUMPDEST CALLVALUE DUP1 ISZERO PUSH2 0x424 JUMPI PUSH1 0x0 DUP1 REVERT JUMPDEST POP PUSH2 0x3E6 PUSH2 0x433 CALLDATASIZE PUSH1 0x4 PUSH2 0x50F6 JUMP JUMPDEST PUSH2 0x111 PUSH1 0x20 MSTORE PUSH1 0x0 SWAP1 DUP2 MSTORE PUSH1 0x40 SWAP1 KECCAK256 SLOAD PUSH1 0xFF AND DUP2 JUMP JUMPDEST CALLVALUE DUP1 ISZERO PUSH2 0x455 JUMPI PUSH1 0x0 DUP1 REVERT JUMPDEST POP PUSH2 0x416 PUSH2 0x104D JUMP JUMPDEST CALLVALUE DUP1 ISZERO PUSH2 0x46A JUMPI PUSH1 0x0 DUP1 REVERT JUMPDEST POP PUSH2 0x416 PUSH2 0x1103 JUMP JUMPDEST CALLVALUE DUP1 ISZERO PUSH2 0x47F JUMPI PUSH1 0x0 DUP1 REVERT JUMPDEST POP PUSH2 0x3B3 PUSH2 0x10F SLOAD DUP2 JUMP JUMPDEST CALLVALUE DUP1 ISZERO PUSH2 0x496 JUMPI PUSH1 0x0 DUP1 REVERT JUMPDEST POP PUSH2 0x3B3 PUSH2 0x4A5 CALLDATASIZE PUSH1 0x4 PUSH2 0x52CB JUMP JUMPDEST PUSH1 0x0 SWAP1 DUP2 MSTORE PUSH1 0x65 PUSH1 0x20 MSTORE PUSH1 0x40 SWAP1 KECCAK256 PUSH1 0x1 ADD SLOAD SWAP1 JUMP JUMPDEST CALLVALUE DUP1 ISZERO PUSH2 0x4C6 JUMPI PUSH1 0x0 DUP1 REVERT JUMPDEST POP PUSH2 0x3B3 PUSH2 0x10B SLOAD DUP2 JUMP JUMPDEST CALLVALUE DUP1 ISZERO PUSH2 0x4DD JUMPI PUSH1 0x0 DUP1 REVERT JUMPDEST POP PUSH2 0x416 PUSH2 0x4EC CALLDATASIZE PUSH1 0x4 PUSH2 0x52E3 JUMP JUMPDEST PUSH2 0x11B6 JUMP JUMPDEST CALLVALUE DUP1 ISZERO PUSH2 0x4FD JUMPI PUSH1 0x0 DUP1 REVERT JUMPDEST POP PUSH2 0x416 PUSH2 0x11E1 JUMP JUMPDEST CALLVALUE DUP1 ISZERO PUSH2 0x512 JUMPI PUSH1 0x0 DUP1 REVERT JUMPDEST POP PUSH2 0x416 PUSH2 0x521 CALLDATASIZE PUSH1 0x4 PUSH2 0x52E3 JUMP JUMPDEST PUSH2 0x13EE JUMP JUMPDEST CALLVALUE DUP1 ISZERO PUSH2 0x532 JUMPI PUSH1 0x0 DUP1 REVERT JUMPDEST POP PUSH2 0x416 PUSH2 0x541 CALLDATASIZE PUSH1 0x4 PUSH2 0x52CB JUMP JUMPDEST PUSH2 0x146C JUMP JUMPDEST CALLVALUE DUP1 ISZERO PUSH2 0x552 JUMPI PUSH1 0x0 DUP1 REVERT JUMPDEST POP PUSH2 0x416 PUSH2 0x561 CALLDATASIZE PUSH1 0x4 PUSH2 0x52CB JUMP JUMPDEST PUSH2 0x15A4 JUMP JUMPDEST CALLVALUE DUP1 ISZERO PUSH2 0x572 JUMPI PUSH1 0x0 DUP1 REVERT JUMPDEST POP PUSH2 0x104 SLOAD PUSH2 0x587 SWAP1 PUSH1 0x1 PUSH1 0x1 PUSH1 0xA0 SHL SUB AND DUP2 JUMP JUMPDEST PUSH1 0x40 MLOAD PUSH1 0x1 PUSH1 0x1 PUSH1 0xA0 SHL SUB SWAP1 SWAP2 AND DUP2 MSTORE PUSH1 0x20 ADD PUSH2 0x3BD JUMP JUMPDEST CALLVALUE DUP1 ISZERO PUSH2 0x5AB JUMPI PUSH1 0x0 DUP1 REVERT JUMPDEST POP PUSH2 0x416 PUSH2 0x5BA CALLDATASIZE PUSH1 0x4 PUSH2 0x52CB JUMP JUMPDEST PUSH2 0x18EE JUMP JUMPDEST CALLVALUE DUP1 ISZERO PUSH2 0x5CB JUMPI PUSH1 0x0 DUP1 REVERT JUMPDEST POP PUSH2 0x3B3 PUSH2 0x105 SLOAD DUP2 JUMP JUMPDEST CALLVALUE DUP1 ISZERO PUSH2 0x5E2 JUMPI PUSH1 0x0 DUP1 REVERT JUMPDEST POP PUSH2 0x3B3 PUSH2 0x10C SLOAD DUP2 JUMP JUMPDEST CALLVALUE DUP1 ISZERO PUSH2 0x5F9 JUMPI PUSH1 0x0 DUP1 REVERT JUMPDEST POP PUSH2 0x3B3 PUSH1 0xFD SLOAD DUP2 JUMP JUMPDEST CALLVALUE DUP1 ISZERO PUSH2 0x60F JUMPI PUSH1 0x0 DUP1 REVERT JUMPDEST POP PUSH1 0x97 SLOAD PUSH1 0xFF AND PUSH2 0x3E6 JUMP JUMPDEST CALLVALUE DUP1 ISZERO PUSH2 0x627 JUMPI PUSH1 0x0 DUP1 REVERT JUMPDEST POP PUSH2 0x416 PUSH2 0x636 CALLDATASIZE PUSH1 0x4 PUSH2 0x51C8 JUMP JUMPDEST PUSH2 0x1A7A JUMP JUMPDEST CALLVALUE DUP1 ISZERO PUSH2 0x647 JUMPI PUSH1 0x0 DUP1 REVERT JUMPDEST POP PUSH2 0x416 PUSH2 0x1B63 JUMP JUMPDEST CALLVALUE DUP1 ISZERO PUSH2 0x65C JUMPI PUSH1 0x0 DUP1 REVERT JUMPDEST POP PUSH2 0x3E6 PUSH2 0x66B CALLDATASIZE PUSH1 0x4 PUSH2 0x50F6 JUMP JUMPDEST PUSH2 0x102 PUSH1 0x20 MSTORE PUSH1 0x0 SWAP1 DUP2 MSTORE PUSH1 0x40 SWAP1 KECCAK256 SLOAD PUSH1 0xFF AND DUP2 JUMP JUMPDEST CALLVALUE DUP1 ISZERO PUSH2 0x68D JUMPI PUSH1 0x0 DUP1 REVERT JUMPDEST POP PUSH2 0x416 PUSH2 0x69C CALLDATASIZE PUSH1 0x4 PUSH2 0x5347 JUMP JUMPDEST PUSH2 0x1CB8 JUMP JUMPDEST CALLVALUE DUP1 ISZERO PUSH2 0x6AD JUMPI PUSH1 0x0 DUP1 REVERT JUMPDEST POP PUSH1 0xFB SLOAD PUSH2 0x587 SWAP1 PUSH3 0x10000 SWAP1 DIV PUSH1 0x1 PUSH1 0x1 PUSH1 0xA0 SHL SUB AND DUP2 JUMP JUMPDEST CALLVALUE DUP1 ISZERO PUSH2 0x6D3 JUMPI PUSH1 0x0 DUP1 REVERT JUMPDEST POP PUSH2 0x6E7 PUSH2 0x6E2 CALLDATASIZE PUSH1 0x4 PUSH2 0x52CB JUMP JUMPDEST PUSH2 0x1EB8 JUMP JUMPDEST PUSH1 0x40 DUP1 MLOAD PUSH1 0x1 PUSH1 0x1 PUSH1 0xA0 SHL SUB SWAP1 SWAP8 AND DUP8 MSTORE SWAP5 ISZERO ISZERO PUSH1 0x20 DUP8 ADD MSTORE SWAP4 DUP6 ADD SWAP3 SWAP1 SWAP3 MSTORE PUSH1 0x60 DUP5 ADD MSTORE PUSH1 0x80 DUP4 ADD MSTORE PUSH1 0xA0 DUP3 ADD MSTORE PUSH1 0xC0 ADD PUSH2 0x3BD JUMP JUMPDEST CALLVALUE DUP1 ISZERO PUSH2 0x72A JUMPI PUSH1 0x0 DUP1 REVERT JUMPDEST POP PUSH2 0x3B3 PUSH2 0x109 SLOAD DUP2 JUMP JUMPDEST CALLVALUE DUP1 ISZERO PUSH2 0x741 JUMPI PUSH1 0x0 DUP1 REVERT JUMPDEST POP PUSH2 0x416 PUSH2 0x750 CALLDATASIZE PUSH1 0x4 PUSH2 0x536B JUMP JUMPDEST PUSH2 0x1F0F JUMP JUMPDEST CALLVALUE DUP1 ISZERO PUSH2 0x761 JUMPI PUSH1 0x0 DUP1 REVERT JUMPDEST POP PUSH2 0x3B3 PUSH2 0x106 SLOAD DUP2 JUMP JUMPDEST CALLVALUE DUP1 ISZERO PUSH2 0x778 JUMPI PUSH1 0x0 DUP1 REVERT JUMPDEST POP PUSH2 0x416 PUSH2 0x787 CALLDATASIZE PUSH1 0x4 PUSH2 0x5293 JUMP JUMPDEST PUSH2 0x22C5 JUMP JUMPDEST CALLVALUE DUP1 ISZERO PUSH2 0x798 JUMPI PUSH1 0x0 DUP1 REVERT JUMPDEST POP PUSH2 0x3E6 PUSH2 0x7A7 CALLDATASIZE PUSH1 0x4 PUSH2 0x52E3 JUMP JUMPDEST PUSH2 0x2415 JUMP JUMPDEST CALLVALUE DUP1 ISZERO PUSH2 0x7B8 JUMPI PUSH1 0x0 DUP1 REVERT JUMPDEST POP PUSH2 0x3B3 PUSH2 0x107 SLOAD DUP2 JUMP JUMPDEST PUSH2 0x3B3 PUSH2 0x7D1 CALLDATASIZE PUSH1 0x4 PUSH2 0x5209 JUMP JUMPDEST PUSH2 0x2440 JUMP JUMPDEST CALLVALUE DUP1 ISZERO PUSH2 0x7E2 JUMPI PUSH1 0x0 DUP1 REVERT JUMPDEST POP PUSH1 0xFB SLOAD PUSH2 0x7F0 SWAP1 PUSH1 0xFF AND DUP2 JUMP JUMPDEST PUSH1 0x40 MLOAD PUSH2 0x3BD SWAP2 SWAP1 PUSH2 0x54FC JUMP JUMPDEST CALLVALUE DUP1 ISZERO PUSH2 0x809 JUMPI PUSH1 0x0 DUP1 REVERT JUMPDEST POP PUSH2 0x416 PUSH2 0x818 CALLDATASIZE PUSH1 0x4 PUSH2 0x50F6 JUMP JUMPDEST PUSH2 0x28F3 JUMP JUMPDEST CALLVALUE DUP1 ISZERO PUSH2 0x829 JUMPI PUSH1 0x0 DUP1 REVERT JUMPDEST POP PUSH2 0x3B3 PUSH2 0x108 SLOAD DUP2 JUMP JUMPDEST CALLVALUE DUP1 ISZERO PUSH2 0x840 JUMPI PUSH1 0x0 DUP1 REVERT JUMPDEST POP PUSH2 0x3B3 PUSH1 0x0 DUP2 JUMP JUMPDEST CALLVALUE DUP1 ISZERO PUSH2 0x855 JUMPI PUSH1 0x0 DUP1 REVERT JUMPDEST POP PUSH2 0x416 PUSH2 0x864 CALLDATASIZE PUSH1 0x4 PUSH2 0x5162 JUMP JUMPDEST PUSH2 0x2A58 JUMP JUMPDEST CALLVALUE DUP1 ISZERO PUSH2 0x875 JUMPI PUSH1 0x0 DUP1 REVERT JUMPDEST POP PUSH2 0x3E6 PUSH2 0x884 CALLDATASIZE PUSH1 0x4 PUSH2 0x50F6 JUMP JUMPDEST PUSH2 0x100 PUSH1 0x20 MSTORE PUSH1 0x0 SWAP1 DUP2 MSTORE PUSH1 0x40 SWAP1 KECCAK256 SLOAD PUSH1 0xFF AND DUP2 JUMP JUMPDEST CALLVALUE DUP1 ISZERO PUSH2 0x8A6 JUMPI PUSH1 0x0 DUP1 REVERT JUMPDEST POP PUSH2 0x416 PUSH2 0x8B5 CALLDATASIZE PUSH1 0x4 PUSH2 0x5347 JUMP JUMPDEST PUSH2 0x2C23 JUMP JUMPDEST CALLVALUE DUP1 ISZERO PUSH2 0x8C6 JUMPI PUSH1 0x0 DUP1 REVERT JUMPDEST POP PUSH2 0x416 PUSH2 0x8D5 CALLDATASIZE PUSH1 0x4 PUSH2 0x53A0 JUMP JUMPDEST PUSH2 0x2D50 JUMP JUMPDEST CALLVALUE DUP1 ISZERO PUSH2 0x8E6 JUMPI PUSH1 0x0 DUP1 REVERT JUMPDEST POP PUSH2 0x416 PUSH2 0x8F5 CALLDATASIZE PUSH1 0x4 PUSH2 0x53FD JUMP JUMPDEST PUSH2 0x3132 JUMP JUMPDEST CALLVALUE DUP1 ISZERO PUSH2 0x906 JUMPI PUSH1 0x0 DUP1 REVERT JUMPDEST POP PUSH2 0x416 PUSH2 0x915 CALLDATASIZE PUSH1 0x4 PUSH2 0x52CB JUMP JUMPDEST PUSH2 0x33F7 JUMP JUMPDEST CALLVALUE DUP1 ISZERO PUSH2 0x926 JUMPI PUSH1 0x0 DUP1 REVERT JUMPDEST POP PUSH2 0x416 PUSH2 0x935 CALLDATASIZE PUSH1 0x4 PUSH2 0x52CB JUMP JUMPDEST PUSH2 0x3645 JUMP JUMPDEST CALLVALUE DUP1 ISZERO PUSH2 0x946 JUMPI PUSH1 0x0 DUP1 REVERT JUMPDEST POP PUSH2 0x3B3 PUSH2 0x110 SLOAD DUP2 JUMP JUMPDEST CALLVALUE DUP1 ISZERO PUSH2 0x95D JUMPI PUSH1 0x0 DUP1 REVERT JUMPDEST POP PUSH2 0x3B3 PUSH2 0x10A SLOAD DUP2 JUMP JUMPDEST CALLVALUE DUP1 ISZERO PUSH2 0x974 JUMPI PUSH1 0x0 DUP1 REVERT JUMPDEST POP PUSH2 0x416 PUSH2 0x983 CALLDATASIZE PUSH1 0x4 PUSH2 0x52E3 JUMP JUMPDEST PUSH2 0x3842 JUMP JUMPDEST CALLVALUE DUP1 ISZERO PUSH2 0x994 JUMPI PUSH1 0x0 DUP1 REVERT JUMPDEST POP PUSH2 0x3B3 PUSH2 0x9A3 CALLDATASIZE PUSH1 0x4 PUSH2 0x50F6 JUMP JUMPDEST PUSH2 0x112 PUSH1 0x20 MSTORE PUSH1 0x0 SWAP1 DUP2 MSTORE PUSH1 0x40 SWAP1 KECCAK256 SLOAD DUP2 JUMP JUMPDEST CALLVALUE DUP1 ISZERO PUSH2 0x9C2 JUMPI PUSH1 0x0 DUP1 REVERT JUMPDEST POP PUSH2 0x416 PUSH2 0x9D1 CALLDATASIZE PUSH1 0x4 PUSH2 0x52E3 JUMP JUMPDEST PUSH2 0x3868 JUMP JUMPDEST CALLVALUE DUP1 ISZERO PUSH2 0x9E2 JUMPI PUSH1 0x0 DUP1 REVERT JUMPDEST POP PUSH2 0x416 PUSH2 0x9F1 CALLDATASIZE PUSH1 0x4 PUSH2 0x52CB JUMP JUMPDEST PUSH2 0x393B JUMP JUMPDEST CALLVALUE DUP1 ISZERO PUSH2 0xA02 JUMPI PUSH1 0x0 DUP1 REVERT JUMPDEST POP PUSH2 0xA16 PUSH2 0xA11 CALLDATASIZE PUSH1 0x4 PUSH2 0x52CB JUMP JUMPDEST PUSH2 0x3B79 JUMP JUMPDEST PUSH1 0x40 DUP1 MLOAD PUSH1 0x1 PUSH1 0x1 PUSH1 0xA0 SHL SUB SWAP1 SWAP5 AND DUP5 MSTORE PUSH1 0x20 DUP5 ADD SWAP3 SWAP1 SWAP3 MSTORE SWAP1 DUP3 ADD MSTORE PUSH1 0x60 ADD PUSH2 0x3BD JUMP JUMPDEST CALLVALUE DUP1 ISZERO PUSH2 0xA47 JUMPI PUSH1 0x0 DUP1 REVERT JUMPDEST POP PUSH2 0x103 SLOAD PUSH2 0x587 SWAP1 PUSH1 0x1 PUSH1 0x1 PUSH1 0xA0 SHL SUB AND DUP2 JUMP JUMPDEST CALLVALUE DUP1 ISZERO PUSH2 0xA68 JUMPI PUSH1 0x0 DUP1 REVERT JUMPDEST POP PUSH2 0x416 PUSH2 0x3BB7 JUMP JUMPDEST CALLVALUE DUP1 ISZERO PUSH2 0xA7D JUMPI PUSH1 0x0 DUP1 REVERT JUMPDEST POP PUSH2 0x3B3 PUSH2 0x10E SLOAD DUP2 JUMP JUMPDEST CALLVALUE DUP1 ISZERO PUSH2 0xA94 JUMPI PUSH1 0x0 DUP1 REVERT JUMPDEST POP PUSH2 0xAA8 PUSH2 0xAA3 CALLDATASIZE PUSH1 0x4 PUSH2 0x52CB JUMP JUMPDEST PUSH2 0x3D89 JUMP JUMPDEST PUSH1 0x40 DUP1 MLOAD SWAP6 DUP7 MSTORE PUSH1 0x20 DUP7 ADD SWAP5 SWAP1 SWAP5 MSTORE SWAP3 DUP5 ADD SWAP2 SWAP1 SWAP2 MSTORE ISZERO ISZERO PUSH1 0x60 DUP4 ADD MSTORE ISZERO ISZERO PUSH1 0x80 DUP3 ADD MSTORE PUSH1 0xA0 ADD PUSH2 0x3BD JUMP JUMPDEST CALLVALUE DUP1 ISZERO PUSH2 0xAE0 JUMPI PUSH1 0x0 DUP1 REVERT JUMPDEST POP PUSH2 0x416 PUSH2 0xAEF CALLDATASIZE PUSH1 0x4 PUSH2 0x512E JUMP JUMPDEST PUSH2 0x3DCF JUMP JUMPDEST CALLVALUE DUP1 ISZERO PUSH2 0xB00 JUMPI PUSH1 0x0 DUP1 REVERT JUMPDEST POP PUSH1 0xFB SLOAD PUSH2 0xB13 SWAP1 PUSH2 0x100 SWAP1 DIV PUSH1 0xFF AND DUP2 JUMP JUMPDEST PUSH1 0x40 MLOAD PUSH2 0x3BD SWAP2 SWAP1 PUSH2 0x54EE JUMP JUMPDEST CALLVALUE DUP1 ISZERO PUSH2 0xB2C JUMPI PUSH1 0x0 DUP1 REVERT JUMPDEST POP PUSH2 0x416 PUSH2 0xB3B CALLDATASIZE PUSH1 0x4 PUSH2 0x52CB JUMP JUMPDEST PUSH2 0x4241 JUMP JUMPDEST CALLVALUE DUP1 ISZERO PUSH2 0xB4C JUMPI PUSH1 0x0 DUP1 REVERT JUMPDEST POP PUSH2 0xB60 PUSH2 0xB5B CALLDATASIZE PUSH1 0x4 PUSH2 0x52CB JUMP JUMPDEST PUSH2 0x4335 JUMP JUMPDEST PUSH1 0x40 DUP1 MLOAD SWAP5 DUP6 MSTORE PUSH1 0x1 PUSH1 0x1 PUSH1 0xA0 SHL SUB SWAP1 SWAP4 AND PUSH1 0x20 DUP6 ADD MSTORE SWAP1 ISZERO ISZERO SWAP2 DUP4 ADD SWAP2 SWAP1 SWAP2 MSTORE ISZERO ISZERO PUSH1 0x60 DUP3 ADD MSTORE PUSH1 0x80 ADD PUSH2 0x3BD JUMP JUMPDEST CALLVALUE DUP1 ISZERO PUSH2 0xB9C JUMPI PUSH1 0x0 DUP1 REVERT JUMPDEST POP PUSH2 0x104 SLOAD PUSH2 0x3E6 SWAP1 PUSH1 0x1 PUSH1 0xA0 SHL SWAP1 DIV PUSH1 0xFF AND DUP2 JUMP JUMPDEST PUSH1 0x0 PUSH1 0x1 PUSH1 0x1 PUSH1 0xE0 SHL SUB NOT DUP3 AND PUSH4 0x7965DB0B PUSH1 0xE0 SHL EQ DUP1 PUSH2 0xBE3 JUMPI POP PUSH4 0x1FFC9A7 PUSH1 0xE0 SHL PUSH1 0x1 PUSH1 0x1 PUSH1 0xE0 SHL SUB NOT DUP4 AND EQ JUMPDEST SWAP3 SWAP2 POP POP JUMP JUMPDEST PUSH1 0xFB SLOAD PUSH1 0x40 MLOAD PUSH4 0xF7878C69 PUSH1 0xE0 SHL DUP2 MSTORE CALLER PUSH1 0x4 DUP3 ADD MSTORE PUSH3 0x10000 SWAP1 SWAP2 DIV PUSH1 0x1 PUSH1 0x1 PUSH1 0xA0 SHL SUB AND SWAP1 PUSH4 0xF7878C69 SWAP1 PUSH1 0x24 ADD PUSH1 0x20 PUSH1 0x40 MLOAD DUP1 DUP4 SUB DUP2 DUP7 DUP1 EXTCODESIZE ISZERO DUP1 ISZERO PUSH2 0xC31 JUMPI PUSH1 0x0 DUP1 REVERT JUMPDEST POP GAS STATICCALL ISZERO DUP1 ISZERO PUSH2 0xC45 JUMPI RETURNDATASIZE PUSH1 0x0 DUP1 RETURNDATACOPY RETURNDATASIZE PUSH1 0x0 REVERT JUMPDEST POP POP POP POP PUSH1 0x40 MLOAD RETURNDATASIZE PUSH1 0x1F NOT PUSH1 0x1F DUP3 ADD AND DUP3 ADD DUP1 PUSH1 0x40 MSTORE POP DUP2 ADD SWAP1 PUSH2 0xC69 SWAP2 SWAP1 PUSH2 0x52AF JUMP JUMPDEST DUP1 PUSH2 0xC7A JUMPI POP PUSH2 0xC7A PUSH1 0x0 CALLER PUSH2 0x2415 JUMP JUMPDEST PUSH2 0xC83 JUMPI PUSH1 0x0 DUP1 REVERT JUMPDEST PUSH1 0x0 DUP1 PUSH2 0xCA8 PUSH1 0xFB PUSH1 0x2 SWAP1 SLOAD SWAP1 PUSH2 0x100 EXP SWAP1 DIV PUSH1 0x1 PUSH1 0x1 PUSH1 0xA0 SHL SUB AND PUSH2 0x105 SLOAD PUSH2 0x4382 JUMP JUMPDEST SWAP1 SWAP5 POP SWAP3 POP DUP4 SWAP2 POP POP DUP1 ISZERO PUSH2 0xCBA JUMPI POP DUP1 JUMPDEST PUSH2 0xCC3 JUMPI PUSH1 0x0 DUP1 REVERT JUMPDEST CALLER PUSH1 0x0 PUSH2 0xCE5 PUSH1 0xFB PUSH1 0x2 SWAP1 SLOAD SWAP1 PUSH2 0x100 EXP SWAP1 DIV PUSH1 0x1 PUSH1 0x1 PUSH1 0xA0 SHL SUB AND DUP4 PUSH2 0x4420 JUMP JUMPDEST SWAP2 POP DUP2 SWAP1 POP PUSH2 0xCF3 JUMPI PUSH1 0x0 DUP1 REVERT JUMPDEST PUSH1 0x97 SLOAD PUSH1 0xFF AND ISZERO PUSH2 0xD1F JUMPI PUSH1 0x40 MLOAD PUSH3 0x461BCD PUSH1 0xE5 SHL DUP2 MSTORE PUSH1 0x4 ADD PUSH2 0xD16 SWAP1 PUSH2 0x5577 JUMP JUMPDEST PUSH1 0x40 MLOAD DUP1 SWAP2 SUB SWAP1 REVERT JUMPDEST PUSH1 0x2 PUSH1 0xC9 SLOAD EQ ISZERO PUSH2 0xD42 JUMPI PUSH1 0x40 MLOAD PUSH3 0x461BCD PUSH1 0xE5 SHL DUP2 MSTORE PUSH1 0x4 ADD PUSH2 0xD16 SWAP1 PUSH2 0x55A1 JUMP JUMPDEST PUSH1 0x2 PUSH1 0xC9 DUP2 SWAP1 SSTORE POP PUSH1 0x0 PUSH1 0xFC DUP7 DUP2 SLOAD DUP2 LT PUSH2 0xD6D JUMPI PUSH4 0x4E487B71 PUSH1 0xE0 SHL PUSH1 0x0 MSTORE PUSH1 0x32 PUSH1 0x4 MSTORE PUSH1 0x24 PUSH1 0x0 REVERT JUMPDEST SWAP1 PUSH1 0x0 MSTORE PUSH1 0x20 PUSH1 0x0 KECCAK256 SWAP1 PUSH1 0x6 MUL ADD SWAP1 POP PUSH2 0xD94 PUSH1 0x2 PUSH2 0x109 SLOAD PUSH2 0x4536 SWAP1 SWAP2 SWAP1 PUSH4 0xFFFFFFFF AND JUMP JUMPDEST DUP2 PUSH1 0x2 ADD SLOAD GT DUP1 ISZERO PUSH2 0xDAF JUMPI POP DUP1 SLOAD PUSH1 0x1 PUSH1 0xA0 SHL SWAP1 DIV PUSH1 0xFF AND ISZERO JUMPDEST PUSH2 0xDB8 JUMPI PUSH1 0x0 DUP1 REVERT JUMPDEST PUSH1 0x0 PUSH2 0xDDC PUSH1 0xFB PUSH1 0x2 SWAP1 SLOAD SWAP1 PUSH2 0x100 EXP SWAP1 DIV PUSH1 0x1 PUSH1 0x1 PUSH1 0xA0 SHL SUB AND PUSH2 0x105 SLOAD PUSH2 0x4549 JUMP JUMPDEST SWAP1 POP PUSH1 0x0 PUSH2 0xE03 PUSH2 0x2710 PUSH2 0xDFD DUP5 DUP7 PUSH1 0x1 ADD SLOAD PUSH2 0x46CD SWAP1 SWAP2 SWAP1 PUSH4 0xFFFFFFFF AND JUMP JUMPDEST SWAP1 PUSH2 0x4536 JUMP JUMPDEST SWAP1 POP PUSH1 0x0 PUSH1 0x40 MLOAD DUP1 PUSH1 0x40 ADD PUSH1 0x40 MSTORE DUP1 PUSH2 0xE29 DUP5 DUP8 PUSH1 0x1 ADD SLOAD PUSH2 0x46D9 SWAP1 SWAP2 SWAP1 PUSH4 0xFFFFFFFF AND JUMP JUMPDEST DUP2 MSTORE PUSH1 0x20 SWAP1 DUP2 ADD DUP5 SWAP1 MSTORE PUSH1 0x40 DUP1 MLOAD DUP1 DUP3 ADD DUP3 MSTORE DUP8 SLOAD PUSH1 0x1 PUSH1 0x1 PUSH1 0xA0 SHL SUB SWAP1 DUP2 AND DUP3 MSTORE PUSH1 0xFB SLOAD DUP4 MLOAD PUSH4 0x20665341 PUSH1 0xE2 SHL DUP2 MSTORE SWAP4 MLOAD SWAP6 SWAP7 POP PUSH1 0x0 SWAP6 SWAP3 SWAP5 DUP6 DUP2 ADD SWAP5 PUSH3 0x10000 SWAP1 SWAP3 DIV SWAP1 SWAP3 AND SWAP3 PUSH4 0x81994D04 SWAP3 PUSH1 0x4 DUP1 DUP5 ADD SWAP4 SWAP2 SWAP3 SWAP2 DUP3 SWAP1 SUB ADD DUP2 DUP7 DUP1 EXTCODESIZE ISZERO DUP1 ISZERO PUSH2 0xE96 JUMPI PUSH1 0x0 DUP1 REVERT JUMPDEST POP GAS STATICCALL ISZERO DUP1 ISZERO PUSH2 0xEAA JUMPI RETURNDATASIZE PUSH1 0x0 DUP1 RETURNDATACOPY RETURNDATASIZE PUSH1 0x0 REVERT JUMPDEST POP POP POP POP PUSH1 0x40 MLOAD RETURNDATASIZE PUSH1 0x1F NOT PUSH1 0x1F DUP3 ADD AND DUP3 ADD DUP1 PUSH1 0x40 MSTORE POP DUP2 ADD SWAP1 PUSH2 0xECE SWAP2 SWAP1 PUSH2 0x5112 JUMP JUMPDEST PUSH1 0x1 PUSH1 0x1 PUSH1 0xA0 SHL SUB AND SWAP1 MSTORE DUP6 SLOAD PUSH1 0xFF PUSH1 0xA0 SHL NOT AND PUSH1 0x1 PUSH1 0xA0 SHL OR DUP7 SSTORE PUSH2 0x10F SLOAD SWAP1 SWAP2 POP PUSH2 0xEFC SWAP1 PUSH1 0x1 PUSH2 0x46E5 JUMP JUMPDEST PUSH2 0x10F SSTORE PUSH1 0x1 DUP6 ADD SLOAD PUSH2 0x106 SLOAD PUSH2 0xF12 SWAP2 PUSH2 0x46D9 JUMP JUMPDEST PUSH2 0x106 SSTORE PUSH1 0xFB SLOAD PUSH1 0x40 MLOAD PUSH4 0xE8147C69 PUSH1 0xE0 SHL DUP2 MSTORE PUSH1 0x4 DUP2 ADD DUP6 SWAP1 MSTORE ADDRESS PUSH1 0x24 DUP3 ADD MSTORE PUSH3 0x10000 SWAP1 SWAP2 DIV PUSH1 0x1 PUSH1 0x1 PUSH1 0xA0 SHL SUB AND SWAP1 PUSH4 0xE8147C69 SWAP1 PUSH1 0x44 ADD PUSH1 0x0 PUSH1 0x40 MLOAD DUP1 DUP4 SUB DUP2 PUSH1 0x0 DUP8 DUP1 EXTCODESIZE ISZERO DUP1 ISZERO PUSH2 0xF67 JUMPI PUSH1 0x0 DUP1 REVERT JUMPDEST POP GAS CALL ISZERO DUP1 ISZERO PUSH2 0xF7B JUMPI RETURNDATASIZE PUSH1 0x0 DUP1 RETURNDATACOPY RETURNDATASIZE PUSH1 0x0 REVERT JUMPDEST POP POP POP POP PUSH1 0x0 JUMPDEST PUSH1 0x2 DUP2 LT ISZERO PUSH2 0xFFE JUMPI PUSH2 0x104 SLOAD PUSH2 0xFEC SWAP1 PUSH1 0x1 PUSH1 0x1 PUSH1 0xA0 SHL SUB AND ADDRESS DUP5 DUP5 PUSH1 0x2 DUP2 LT PUSH2 0xFBD JUMPI PUSH4 0x4E487B71 PUSH1 0xE0 SHL PUSH1 0x0 MSTORE PUSH1 0x32 PUSH1 0x4 MSTORE PUSH1 0x24 PUSH1 0x0 REVERT JUMPDEST PUSH1 0x20 MUL ADD MLOAD DUP7 DUP6 PUSH1 0x2 DUP2 LT PUSH2 0xFE2 JUMPI PUSH4 0x4E487B71 PUSH1 0xE0 SHL PUSH1 0x0 MSTORE PUSH1 0x32 PUSH1 0x4 MSTORE PUSH1 0x24 PUSH1 0x0 REVERT JUMPDEST PUSH1 0x20 MUL ADD MLOAD PUSH2 0x46F1 JUMP JUMPDEST DUP1 PUSH2 0xFF6 DUP2 PUSH2 0x569D JUMP JUMPDEST SWAP2 POP POP PUSH2 0xF82 JUMP JUMPDEST POP DUP10 PUSH32 0xE0306580E174B721F93A4736FBB1CF897FCAD9DDB89F57BD1A8419EC3AE6B9A2 PUSH2 0x105 SLOAD PUSH1 0x40 MLOAD PUSH2 0x1034 SWAP2 DUP2 MSTORE PUSH1 0x20 ADD SWAP1 JUMP JUMPDEST PUSH1 0x40 MLOAD DUP1 SWAP2 SUB SWAP1 LOG2 POP POP PUSH1 0x1 PUSH1 0xC9 SSTORE POP POP POP POP POP POP POP POP JUMP JUMPDEST PUSH1 0x97 SLOAD PUSH1 0xFF AND ISZERO PUSH2 0x1070 JUMPI PUSH1 0x40 MLOAD PUSH3 0x461BCD PUSH1 0xE5 SHL DUP2 MSTORE PUSH1 0x4 ADD PUSH2 0xD16 SWAP1 PUSH2 0x5577 JUMP JUMPDEST PUSH1 0xFB SLOAD PUSH1 0x40 MLOAD PUSH4 0xF7878C69 PUSH1 0xE0 SHL DUP2 MSTORE CALLER PUSH1 0x4 DUP3 ADD MSTORE PUSH3 0x10000 SWAP1 SWAP2 DIV PUSH1 0x1 PUSH1 0x1 PUSH1 0xA0 SHL SUB AND SWAP1 PUSH4 0xF7878C69 SWAP1 PUSH1 0x24 ADD PUSH1 0x20 PUSH1 0x40 MLOAD DUP1 DUP4 SUB DUP2 DUP7 DUP1 EXTCODESIZE ISZERO DUP1 ISZERO PUSH2 0x10B8 JUMPI PUSH1 0x0 DUP1 REVERT JUMPDEST POP GAS STATICCALL ISZERO DUP1 ISZERO PUSH2 0x10CC JUMPI RETURNDATASIZE PUSH1 0x0 DUP1 RETURNDATACOPY RETURNDATASIZE PUSH1 0x0 REVERT JUMPDEST POP POP POP POP PUSH1 0x40 MLOAD RETURNDATASIZE PUSH1 0x1F NOT PUSH1 0x1F DUP3 ADD AND DUP3 ADD DUP1 PUSH1 0x40 MSTORE POP DUP2 ADD SWAP1 PUSH2 0x10F0 SWAP2 SWAP1 PUSH2 0x52AF JUMP JUMPDEST PUSH2 0x10F9 JUMPI PUSH1 0x0 DUP1 REVERT JUMPDEST PUSH2 0x1101 PUSH2 0x4751 JUMP JUMPDEST JUMP JUMPDEST PUSH1 0x97 SLOAD PUSH1 0xFF AND PUSH2 0x1125 JUMPI PUSH1 0x40 MLOAD PUSH3 0x461BCD PUSH1 0xE5 SHL DUP2 MSTORE PUSH1 0x4 ADD PUSH2 0xD16 SWAP1 PUSH2 0x5549 JUMP JUMPDEST PUSH1 0xFB SLOAD PUSH1 0x40 MLOAD PUSH4 0xF7878C69 PUSH1 0xE0 SHL DUP2 MSTORE CALLER PUSH1 0x4 DUP3 ADD MSTORE PUSH3 0x10000 SWAP1 SWAP2 DIV PUSH1 0x1 PUSH1 0x1 PUSH1 0xA0 SHL SUB AND SWAP1 PUSH4 0xF7878C69 SWAP1 PUSH1 0x24 ADD PUSH1 0x20 PUSH1 0x40 MLOAD DUP1 DUP4 SUB DUP2 DUP7 DUP1 EXTCODESIZE ISZERO DUP1 ISZERO PUSH2 0x116D JUMPI PUSH1 0x0 DUP1 REVERT JUMPDEST POP GAS STATICCALL ISZERO DUP1 ISZERO PUSH2 0x1181 JUMPI RETURNDATASIZE PUSH1 0x0 DUP1 RETURNDATACOPY RETURNDATASIZE PUSH1 0x0 REVERT JUMPDEST POP POP POP POP PUSH1 0x40 MLOAD RETURNDATASIZE PUSH1 0x1F NOT PUSH1 0x1F DUP3 ADD AND DUP3 ADD DUP1 PUSH1 0x40 MSTORE POP DUP2 ADD SWAP1 PUSH2 0x11A5 SWAP2 SWAP1 PUSH2 0x52AF JUMP JUMPDEST PUSH2 0x11AE JUMPI PUSH1 0x0 DUP1 REVERT JUMPDEST PUSH2 0x1101 PUSH2 0x47C6 JUMP JUMPDEST PUSH1 0x0 DUP3 DUP2 MSTORE PUSH1 0x65 PUSH1 0x20 MSTORE PUSH1 0x40 SWAP1 KECCAK256 PUSH1 0x1 ADD SLOAD PUSH2 0x11D2 DUP2 CALLER PUSH2 0x4819 JUMP JUMPDEST PUSH2 0x11DC DUP4 DUP4 PUSH2 0x487D JUMP JUMPDEST POP POP POP JUMP JUMPDEST PUSH1 0xFB SLOAD PUSH1 0x40 MLOAD PUSH4 0xF7878C69 PUSH1 0xE0 SHL DUP2 MSTORE CALLER PUSH1 0x4 DUP3 ADD MSTORE PUSH3 0x10000 SWAP1 SWAP2 DIV PUSH1 0x1 PUSH1 0x1 PUSH1 0xA0 SHL SUB AND SWAP1 PUSH4 0xF7878C69 SWAP1 PUSH1 0x24 ADD PUSH1 0x20 PUSH1 0x40 MLOAD DUP1 DUP4 SUB DUP2 DUP7 DUP1 EXTCODESIZE ISZERO DUP1 ISZERO PUSH2 0x1229 JUMPI PUSH1 0x0 DUP1 REVERT JUMPDEST POP GAS STATICCALL ISZERO DUP1 ISZERO PUSH2 0x123D JUMPI RETURNDATASIZE PUSH1 0x0 DUP1 RETURNDATACOPY RETURNDATASIZE PUSH1 0x0 REVERT JUMPDEST POP POP POP POP PUSH1 0x40 MLOAD RETURNDATASIZE PUSH1 0x1F NOT PUSH1 0x1F DUP3 ADD AND DUP3 ADD DUP1 PUSH1 0x40 MSTORE POP DUP2 ADD SWAP1 PUSH2 0x1261 SWAP2 SWAP1 PUSH2 0x52AF JUMP JUMPDEST DUP1 PUSH2 0x1272 JUMPI POP PUSH2 0x1272 PUSH1 0x0 CALLER PUSH2 0x2415 JUMP JUMPDEST PUSH2 0x127B JUMPI PUSH1 0x0 DUP1 REVERT JUMPDEST PUSH1 0x0 DUP1 PUSH2 0x12A0 PUSH1 0xFB PUSH1 0x2 SWAP1 SLOAD SWAP1 PUSH2 0x100 EXP SWAP1 DIV PUSH1 0x1 PUSH1 0x1 PUSH1 0xA0 SHL SUB AND PUSH2 0x105 SLOAD PUSH2 0x4382 JUMP JUMPDEST SWAP1 SWAP5 POP SWAP3 POP DUP4 SWAP2 POP POP DUP1 ISZERO PUSH2 0x12B2 JUMPI POP DUP1 JUMPDEST PUSH2 0x12BB JUMPI PUSH1 0x0 DUP1 REVERT JUMPDEST CALLER PUSH1 0x0 PUSH2 0x12DD PUSH1 0xFB PUSH1 0x2 SWAP1 SLOAD SWAP1 PUSH2 0x100 EXP SWAP1 DIV PUSH1 0x1 PUSH1 0x1 PUSH1 0xA0 SHL SUB AND DUP4 PUSH2 0x4420 JUMP JUMPDEST SWAP2 POP DUP2 SWAP1 POP PUSH2 0x12EB JUMPI PUSH1 0x0 DUP1 REVERT JUMPDEST PUSH1 0x97 SLOAD PUSH1 0xFF AND ISZERO PUSH2 0x130E JUMPI PUSH1 0x40 MLOAD PUSH3 0x461BCD PUSH1 0xE5 SHL DUP2 MSTORE PUSH1 0x4 ADD PUSH2 0xD16 SWAP1 PUSH2 0x5577 JUMP JUMPDEST PUSH1 0x2 PUSH1 0xFB SLOAD PUSH2 0x100 SWAP1 DIV PUSH1 0xFF AND PUSH1 0x5 DUP2 GT ISZERO PUSH2 0x133A JUMPI PUSH4 0x4E487B71 PUSH1 0xE0 SHL PUSH1 0x0 MSTORE PUSH1 0x21 PUSH1 0x4 MSTORE PUSH1 0x24 PUSH1 0x0 REVERT JUMPDEST EQ PUSH2 0x1344 JUMPI PUSH1 0x0 DUP1 REVERT JUMPDEST PUSH1 0xFC SLOAD PUSH1 0x1 LT DUP1 ISZERO PUSH2 0x138B JUMPI POP TIMESTAMP PUSH1 0xFC PUSH2 0x110 SLOAD DUP2 SLOAD DUP2 LT PUSH2 0x1376 JUMPI PUSH4 0x4E487B71 PUSH1 0xE0 SHL PUSH1 0x0 MSTORE PUSH1 0x32 PUSH1 0x4 MSTORE PUSH1 0x24 PUSH1 0x0 REVERT JUMPDEST SWAP1 PUSH1 0x0 MSTORE PUSH1 0x20 PUSH1 0x0 KECCAK256 SWAP1 PUSH1 0x6 MUL ADD PUSH1 0x4 ADD SLOAD GT ISZERO JUMPDEST PUSH2 0x1394 JUMPI PUSH1 0x0 DUP1 REVERT JUMPDEST PUSH1 0xFB DUP1 SLOAD PUSH2 0xFF00 NOT AND PUSH2 0x300 OR SWAP1 SSTORE PUSH2 0x13AB PUSH2 0x4751 JUMP JUMPDEST PUSH32 0x769FE02AD955196068A57B86253EA47B981F52918E04CD477B187C5858914904 PUSH2 0x105 SLOAD PUSH1 0x3 PUSH1 0x40 MLOAD PUSH2 0x13E0 SWAP3 SWAP2 SWAP1 PUSH2 0x55D8 JUMP JUMPDEST PUSH1 0x40 MLOAD DUP1 SWAP2 SUB SWAP1 LOG1 POP POP POP POP JUMP JUMPDEST PUSH1 0x1 PUSH1 0x1 PUSH1 0xA0 SHL SUB DUP2 AND CALLER EQ PUSH2 0x145E JUMPI PUSH1 0x40 MLOAD PUSH3 0x461BCD PUSH1 0xE5 SHL DUP2 MSTORE PUSH1 0x20 PUSH1 0x4 DUP3 ADD MSTORE PUSH1 0x2F PUSH1 0x24 DUP3 ADD MSTORE PUSH32 0x416363657373436F6E74726F6C3A2063616E206F6E6C792072656E6F756E6365 PUSH1 0x44 DUP3 ADD MSTORE PUSH15 0x103937B632B9903337B91039B2B633 PUSH1 0x89 SHL PUSH1 0x64 DUP3 ADD MSTORE PUSH1 0x84 ADD PUSH2 0xD16 JUMP JUMPDEST PUSH2 0x1468 DUP3 DUP3 PUSH2 0x4903 JUMP JUMPDEST POP POP JUMP JUMPDEST PUSH1 0xFB SLOAD PUSH1 0x40 MLOAD PUSH4 0xF7878C69 PUSH1 0xE0 SHL DUP2 MSTORE CALLER PUSH1 0x4 DUP3 ADD MSTORE PUSH3 0x10000 SWAP1 SWAP2 DIV PUSH1 0x1 PUSH1 0x1 PUSH1 0xA0 SHL SUB AND SWAP1 PUSH4 0xF7878C69 SWAP1 PUSH1 0x24 ADD PUSH1 0x20 PUSH1 0x40 MLOAD DUP1 DUP4 SUB DUP2 DUP7 DUP1 EXTCODESIZE ISZERO DUP1 ISZERO PUSH2 0x14B4 JUMPI PUSH1 0x0 DUP1 REVERT JUMPDEST POP GAS STATICCALL ISZERO DUP1 ISZERO PUSH2 0x14C8 JUMPI RETURNDATASIZE PUSH1 0x0 DUP1 RETURNDATACOPY RETURNDATASIZE PUSH1 0x0 REVERT JUMPDEST POP POP POP POP PUSH1 0x40 MLOAD RETURNDATASIZE PUSH1 0x1F NOT PUSH1 0x1F DUP3 ADD AND DUP3 ADD DUP1 PUSH1 0x40 MSTORE POP DUP2 ADD SWAP1 PUSH2 0x14EC SWAP2 SWAP1 PUSH2 0x52AF JUMP JUMPDEST PUSH2 0x14F5 JUMPI PUSH1 0x0 DUP1 REVERT JUMPDEST DUP1 PUSH1 0x5 DUP2 GT ISZERO PUSH2 0x1515 JUMPI PUSH4 0x4E487B71 PUSH1 0xE0 SHL PUSH1 0x0 MSTORE PUSH1 0x21 PUSH1 0x4 MSTORE PUSH1 0x24 PUSH1 0x0 REVERT JUMPDEST PUSH1 0xFB DUP1 SLOAD PUSH2 0xFF00 NOT AND PUSH2 0x100 DUP4 PUSH1 0x5 DUP2 GT ISZERO PUSH2 0x1541 JUMPI PUSH4 0x4E487B71 PUSH1 0xE0 SHL PUSH1 0x0 MSTORE PUSH1 0x21 PUSH1 0x4 MSTORE PUSH1 0x24 PUSH1 0x0 REVERT JUMPDEST MUL OR SWAP1 SSTORE POP PUSH32 0x769FE02AD955196068A57B86253EA47B981F52918E04CD477B187C5858914904 PUSH2 0x105 SLOAD DUP3 PUSH1 0x5 DUP2 GT ISZERO PUSH2 0x158B JUMPI PUSH4 0x4E487B71 PUSH1 0xE0 SHL PUSH1 0x0 MSTORE PUSH1 0x21 PUSH1 0x4 MSTORE PUSH1 0x24 PUSH1 0x0 REVERT JUMPDEST PUSH1 0x40 MLOAD PUSH2 0x1599 SWAP3 SWAP2 SWAP1 PUSH2 0x55D8 JUMP JUMPDEST PUSH1 0x40 MLOAD DUP1 SWAP2 SUB SWAP1 LOG1 POP JUMP JUMPDEST PUSH1 0xFB SLOAD PUSH1 0x40 MLOAD PUSH4 0xF7878C69 PUSH1 0xE0 SHL DUP2 MSTORE CALLER PUSH1 0x4 DUP3 ADD MSTORE PUSH3 0x10000 SWAP1 SWAP2 DIV PUSH1 0x1 PUSH1 0x1 PUSH1 0xA0 SHL SUB AND SWAP1 PUSH4 0xF7878C69 SWAP1 PUSH1 0x24 ADD PUSH1 0x20 PUSH1 0x40 MLOAD DUP1 DUP4 SUB DUP2 DUP7 DUP1 EXTCODESIZE ISZERO DUP1 ISZERO PUSH2 0x15EC JUMPI PUSH1 0x0 DUP1 REVERT JUMPDEST POP GAS STATICCALL ISZERO DUP1 ISZERO PUSH2 0x1600 JUMPI RETURNDATASIZE PUSH1 0x0 DUP1 RETURNDATACOPY RETURNDATASIZE PUSH1 0x0 REVERT JUMPDEST POP POP POP POP PUSH1 0x40 MLOAD RETURNDATASIZE PUSH1 0x1F NOT PUSH1 0x1F DUP3 ADD AND DUP3 ADD DUP1 PUSH1 0x40 MSTORE POP DUP2 ADD SWAP1 PUSH2 0x1624 SWAP2 SWAP1 PUSH2 0x52AF JUMP JUMPDEST DUP1 PUSH2 0x1635 JUMPI POP PUSH2 0x1635 PUSH1 0x0 CALLER PUSH2 0x2415 JUMP JUMPDEST PUSH2 0x163E JUMPI PUSH1 0x0 DUP1 REVERT JUMPDEST CALLER PUSH1 0x0 PUSH2 0x1660 PUSH1 0xFB PUSH1 0x2 SWAP1 SLOAD SWAP1 PUSH2 0x100 EXP SWAP1 DIV PUSH1 0x1 PUSH1 0x1 PUSH1 0xA0 SHL SUB AND DUP4 PUSH2 0x4420 JUMP JUMPDEST SWAP2 POP DUP2 SWAP1 POP PUSH2 0x166E JUMPI PUSH1 0x0 DUP1 REVERT JUMPDEST PUSH1 0x0 DUP1 PUSH2 0x1693 PUSH1 0xFB PUSH1 0x2 SWAP1 SLOAD SWAP1 PUSH2 0x100 EXP SWAP1 DIV PUSH1 0x1 PUSH1 0x1 PUSH1 0xA0 SHL SUB AND PUSH2 0x105 SLOAD PUSH2 0x4382 JUMP JUMPDEST SWAP1 SWAP5 POP SWAP3 POP DUP4 SWAP2 POP POP DUP1 ISZERO PUSH2 0x16A5 JUMPI POP DUP1 JUMPDEST PUSH2 0x16AE JUMPI PUSH1 0x0 DUP1 REVERT JUMPDEST PUSH1 0x97 SLOAD PUSH1 0xFF AND ISZERO PUSH2 0x16D1 JUMPI PUSH1 0x40 MLOAD PUSH3 0x461BCD PUSH1 0xE5 SHL DUP2 MSTORE PUSH1 0x4 ADD PUSH2 0xD16 SWAP1 PUSH2 0x5577 JUMP JUMPDEST PUSH2 0x10B SLOAD TIMESTAMP GT DUP1 ISZERO PUSH2 0x176B JUMPI POP PUSH1 0xFB PUSH1 0x2 SWAP1 SLOAD SWAP1 PUSH2 0x100 EXP SWAP1 DIV PUSH1 0x1 PUSH1 0x1 PUSH1 0xA0 SHL SUB AND PUSH1 0x1 PUSH1 0x1 PUSH1 0xA0 SHL SUB AND PUSH4 0x8142B85 PUSH1 0x40 MLOAD DUP2 PUSH4 0xFFFFFFFF AND PUSH1 0xE0 SHL DUP2 MSTORE PUSH1 0x4 ADD PUSH1 0x20 PUSH1 0x40 MLOAD DUP1 DUP4 SUB DUP2 DUP7 DUP1 EXTCODESIZE ISZERO DUP1 ISZERO PUSH2 0x172C JUMPI PUSH1 0x0 DUP1 REVERT JUMPDEST POP GAS STATICCALL ISZERO DUP1 ISZERO PUSH2 0x1740 JUMPI RETURNDATASIZE PUSH1 0x0 DUP1 RETURNDATACOPY RETURNDATASIZE PUSH1 0x0 REVERT JUMPDEST POP POP POP POP PUSH1 0x40 MLOAD RETURNDATASIZE PUSH1 0x1F NOT PUSH1 0x1F DUP3 ADD AND DUP3 ADD DUP1 PUSH1 0x40 MSTORE POP DUP2 ADD SWAP1 PUSH2 0x1764 SWAP2 SWAP1 PUSH2 0x532F JUMP JUMPDEST PUSH2 0x10C SLOAD GT ISZERO JUMPDEST DUP1 ISZERO PUSH2 0x17FC JUMPI POP PUSH1 0xFB PUSH1 0x2 SWAP1 SLOAD SWAP1 PUSH2 0x100 EXP SWAP1 DIV PUSH1 0x1 PUSH1 0x1 PUSH1 0xA0 SHL SUB AND PUSH1 0x1 PUSH1 0x1 PUSH1 0xA0 SHL SUB AND PUSH4 0xDE4E4201 PUSH1 0x40 MLOAD DUP2 PUSH4 0xFFFFFFFF AND PUSH1 0xE0 SHL DUP2 MSTORE PUSH1 0x4 ADD PUSH1 0x20 PUSH1 0x40 MLOAD DUP1 DUP4 SUB DUP2 DUP7 DUP1 EXTCODESIZE ISZERO DUP1 ISZERO PUSH2 0x17C0 JUMPI PUSH1 0x0 DUP1 REVERT JUMPDEST POP GAS STATICCALL ISZERO DUP1 ISZERO PUSH2 0x17D4 JUMPI RETURNDATASIZE PUSH1 0x0 DUP1 RETURNDATACOPY RETURNDATASIZE PUSH1 0x0 REVERT JUMPDEST POP POP POP POP PUSH1 0x40 MLOAD RETURNDATASIZE PUSH1 0x1F NOT PUSH1 0x1F DUP3 ADD AND DUP3 ADD DUP1 PUSH1 0x40 MSTORE POP DUP2 ADD SWAP1 PUSH2 0x17F8 SWAP2 SWAP1 PUSH2 0x532F JUMP JUMPDEST DUP6 GT ISZERO JUMPDEST DUP1 ISZERO PUSH2 0x188D JUMPI POP PUSH1 0xFB PUSH1 0x2 SWAP1 SLOAD SWAP1 PUSH2 0x100 EXP SWAP1 DIV PUSH1 0x1 PUSH1 0x1 PUSH1 0xA0 SHL SUB AND PUSH1 0x1 PUSH1 0x1 PUSH1 0xA0 SHL SUB AND PUSH4 0xC5549CC0 PUSH1 0x40 MLOAD DUP2 PUSH4 0xFFFFFFFF AND PUSH1 0xE0 SHL DUP2 MSTORE PUSH1 0x4 ADD PUSH1 0x20 PUSH1 0x40 MLOAD DUP1 DUP4 SUB DUP2 DUP7 DUP1 EXTCODESIZE ISZERO DUP1 ISZERO PUSH2 0x1851 JUMPI PUSH1 0x0 DUP1 REVERT JUMPDEST POP GAS STATICCALL ISZERO DUP1 ISZERO PUSH2 0x1865 JUMPI RETURNDATASIZE PUSH1 0x0 DUP1 RETURNDATACOPY RETURNDATASIZE PUSH1 0x0 REVERT JUMPDEST POP POP POP POP PUSH1 0x40 MLOAD RETURNDATASIZE PUSH1 0x1F NOT PUSH1 0x1F DUP3 ADD AND DUP3 ADD DUP1 PUSH1 0x40 MSTORE POP DUP2 ADD SWAP1 PUSH2 0x1889 SWAP2 SWAP1 PUSH2 0x532F JUMP JUMPDEST DUP6 LT ISZERO JUMPDEST PUSH2 0x1896 JUMPI PUSH1 0x0 DUP1 REVERT JUMPDEST PUSH2 0x10B DUP6 SWAP1 SSTORE PUSH2 0x10C SLOAD PUSH2 0x18AB SWAP1 PUSH1 0x1 PUSH2 0x46E5 JUMP JUMPDEST PUSH2 0x10C SSTORE PUSH2 0x105 SLOAD PUSH1 0x40 MLOAD DUP7 DUP2 MSTORE PUSH32 0xE56455A7135D95BC2C0E151523D78EAAAC4BF098FCC5DCFC15DB81E162480C2A SWAP1 PUSH1 0x20 ADD JUMPDEST PUSH1 0x40 MLOAD DUP1 SWAP2 SUB SWAP1 LOG2 POP POP POP POP POP JUMP JUMPDEST PUSH1 0xFB SLOAD PUSH1 0x40 MLOAD PUSH4 0xF7878C69 PUSH1 0xE0 SHL DUP2 MSTORE CALLER PUSH1 0x4 DUP3 ADD MSTORE PUSH3 0x10000 SWAP1 SWAP2 DIV PUSH1 0x1 PUSH1 0x1 PUSH1 0xA0 SHL SUB AND SWAP1 PUSH4 0xF7878C69 SWAP1 PUSH1 0x24 ADD PUSH1 0x20 PUSH1 0x40 MLOAD DUP1 DUP4 SUB DUP2 DUP7 DUP1 EXTCODESIZE ISZERO DUP1 ISZERO PUSH2 0x1936 JUMPI PUSH1 0x0 DUP1 REVERT JUMPDEST POP GAS STATICCALL ISZERO DUP1 ISZERO PUSH2 0x194A JUMPI RETURNDATASIZE PUSH1 0x0 DUP1 RETURNDATACOPY RETURNDATASIZE PUSH1 0x0 REVERT JUMPDEST POP POP POP POP PUSH1 0x40 MLOAD RETURNDATASIZE PUSH1 0x1F NOT PUSH1 0x1F DUP3 ADD AND DUP3 ADD DUP1 PUSH1 0x40 MSTORE POP DUP2 ADD SWAP1 PUSH2 0x196E SWAP2 SWAP1 PUSH2 0x52AF JUMP JUMPDEST DUP1 PUSH2 0x197F JUMPI POP PUSH2 0x197F PUSH1 0x0 CALLER PUSH2 0x2415 JUMP JUMPDEST PUSH2 0x1988 JUMPI PUSH1 0x0 DUP1 REVERT JUMPDEST CALLER PUSH1 0x0 PUSH2 0x19AA PUSH1 0xFB PUSH1 0x2 SWAP1 SLOAD SWAP1 PUSH2 0x100 EXP SWAP1 DIV PUSH1 0x1 PUSH1 0x1 PUSH1 0xA0 SHL SUB AND DUP4 PUSH2 0x4420 JUMP JUMPDEST SWAP2 POP DUP2 SWAP1 POP PUSH2 0x19B8 JUMPI PUSH1 0x0 DUP1 REVERT JUMPDEST PUSH1 0x0 DUP1 PUSH2 0x19DD PUSH1 0xFB PUSH1 0x2 SWAP1 SLOAD SWAP1 PUSH2 0x100 EXP SWAP1 DIV PUSH1 0x1 PUSH1 0x1 PUSH1 0xA0 SHL SUB AND PUSH2 0x105 SLOAD PUSH2 0x4382 JUMP JUMPDEST SWAP1 SWAP5 POP SWAP3 POP DUP4 SWAP2 POP POP DUP1 ISZERO PUSH2 0x19EF JUMPI POP DUP1 JUMPDEST PUSH2 0x19F8 JUMPI PUSH1 0x0 DUP1 REVERT JUMPDEST DUP5 PUSH1 0x1 DUP2 GT ISZERO PUSH2 0x1A18 JUMPI PUSH4 0x4E487B71 PUSH1 0xE0 SHL PUSH1 0x0 MSTORE PUSH1 0x21 PUSH1 0x4 MSTORE PUSH1 0x24 PUSH1 0x0 REVERT JUMPDEST PUSH1 0xFB DUP1 SLOAD PUSH1 0xFF NOT AND PUSH1 0x1 DUP4 DUP2 DUP2 GT ISZERO PUSH2 0x1A41 JUMPI PUSH4 0x4E487B71 PUSH1 0xE0 SHL PUSH1 0x0 MSTORE PUSH1 0x21 PUSH1 0x4 MSTORE PUSH1 0x24 PUSH1 0x0 REVERT JUMPDEST MUL OR SWAP1 SSTORE POP PUSH2 0x105 SLOAD PUSH1 0x40 MLOAD DUP7 DUP2 MSTORE PUSH32 0x64930D980B9BA8B13843C3C0151E5C5007B609FD8D678362C59502DF4DBE9217 SWAP1 PUSH1 0x20 ADD PUSH2 0x18DF JUMP JUMPDEST PUSH1 0xFB SLOAD PUSH1 0x40 MLOAD PUSH4 0xF7878C69 PUSH1 0xE0 SHL DUP2 MSTORE CALLER PUSH1 0x4 DUP3 ADD MSTORE PUSH3 0x10000 SWAP1 SWAP2 DIV PUSH1 0x1 PUSH1 0x1 PUSH1 0xA0 SHL SUB AND SWAP1 PUSH4 0xF7878C69 SWAP1 PUSH1 0x24 ADD PUSH1 0x20 PUSH1 0x40 MLOAD DUP1 DUP4 SUB DUP2 DUP7 DUP1 EXTCODESIZE ISZERO DUP1 ISZERO PUSH2 0x1AC2 JUMPI PUSH1 0x0 DUP1 REVERT JUMPDEST POP GAS STATICCALL ISZERO DUP1 ISZERO PUSH2 0x1AD6 JUMPI RETURNDATASIZE PUSH1 0x0 DUP1 RETURNDATACOPY RETURNDATASIZE PUSH1 0x0 REVERT JUMPDEST POP POP POP POP PUSH1 0x40 MLOAD RETURNDATASIZE PUSH1 0x1F NOT PUSH1 0x1F DUP3 ADD AND DUP3 ADD DUP1 PUSH1 0x40 MSTORE POP DUP2 ADD SWAP1 PUSH2 0x1AFA SWAP2 SWAP1 PUSH2 0x52AF JUMP JUMPDEST PUSH2 0x1B03 JUMPI PUSH1 0x0 DUP1 REVERT JUMPDEST PUSH1 0x2 PUSH1 0xC9 SLOAD EQ ISZERO PUSH2 0x1B26 JUMPI PUSH1 0x40 MLOAD PUSH3 0x461BCD PUSH1 0xE5 SHL DUP2 MSTORE PUSH1 0x4 ADD PUSH2 0xD16 SWAP1 PUSH2 0x55A1 JUMP JUMPDEST PUSH1 0x2 PUSH1 0xC9 SSTORE PUSH1 0x97 SLOAD PUSH1 0xFF AND ISZERO PUSH2 0x1B4E JUMPI PUSH1 0x40 MLOAD PUSH3 0x461BCD PUSH1 0xE5 SHL DUP2 MSTORE PUSH1 0x4 ADD PUSH2 0xD16 SWAP1 PUSH2 0x5577 JUMP JUMPDEST PUSH2 0x1B59 DUP4 DUP3 DUP5 PUSH2 0x496A JUMP JUMPDEST POP POP PUSH1 0x1 PUSH1 0xC9 SSTORE POP JUMP JUMPDEST CALLER PUSH1 0x0 PUSH2 0x1B85 PUSH1 0xFB PUSH1 0x2 SWAP1 SLOAD SWAP1 PUSH2 0x100 EXP SWAP1 DIV PUSH1 0x1 PUSH1 0x1 PUSH1 0xA0 SHL SUB AND DUP4 PUSH2 0x4420 JUMP JUMPDEST SWAP2 POP DUP2 SWAP1 POP PUSH2 0x1B93 JUMPI PUSH1 0x0 DUP1 REVERT JUMPDEST PUSH1 0x0 DUP1 PUSH2 0x1BB8 PUSH1 0xFB PUSH1 0x2 SWAP1 SLOAD SWAP1 PUSH2 0x100 EXP SWAP1 DIV PUSH1 0x1 PUSH1 0x1 PUSH1 0xA0 SHL SUB AND PUSH2 0x105 SLOAD PUSH2 0x4382 JUMP JUMPDEST SWAP1 SWAP5 POP SWAP3 POP DUP4 SWAP2 POP POP DUP1 ISZERO PUSH2 0x1BCA JUMPI POP DUP1 JUMPDEST PUSH2 0x1BD3 JUMPI PUSH1 0x0 DUP1 REVERT JUMPDEST PUSH1 0x97 SLOAD PUSH1 0xFF AND ISZERO PUSH2 0x1BF6 JUMPI PUSH1 0x40 MLOAD PUSH3 0x461BCD PUSH1 0xE5 SHL DUP2 MSTORE PUSH1 0x4 ADD PUSH2 0xD16 SWAP1 PUSH2 0x5577 JUMP JUMPDEST CALLER PUSH1 0x0 SWAP1 DUP2 MSTORE PUSH2 0x111 PUSH1 0x20 MSTORE PUSH1 0x40 SWAP1 KECCAK256 SLOAD PUSH1 0xFF AND DUP1 ISZERO PUSH2 0x1C72 JUMPI POP PUSH1 0x1 PUSH1 0xFB SLOAD PUSH2 0x100 SWAP1 DIV PUSH1 0xFF AND PUSH1 0x5 DUP2 GT ISZERO PUSH2 0x1C3D JUMPI PUSH4 0x4E487B71 PUSH1 0xE0 SHL PUSH1 0x0 MSTORE PUSH1 0x21 PUSH1 0x4 MSTORE PUSH1 0x24 PUSH1 0x0 REVERT JUMPDEST EQ DUP1 PUSH2 0x1C72 JUMPI POP PUSH1 0x2 PUSH1 0xFB SLOAD PUSH2 0x100 SWAP1 DIV PUSH1 0xFF AND PUSH1 0x5 DUP2 GT ISZERO PUSH2 0x1C70 JUMPI PUSH4 0x4E487B71 PUSH1 0xE0 SHL PUSH1 0x0 MSTORE PUSH1 0x21 PUSH1 0x4 MSTORE PUSH1 0x24 PUSH1 0x0 REVERT JUMPDEST EQ JUMPDEST PUSH2 0x1C7B JUMPI PUSH1 0x0 DUP1 REVERT JUMPDEST PUSH2 0x105 SLOAD PUSH1 0x40 MLOAD CALLER DUP2 MSTORE PUSH32 0xBC505B9CF801A19091EAEF3EE8C984834C29BD44A9B558942320DCC05755183C SWAP1 PUSH1 0x20 ADD PUSH1 0x40 MLOAD DUP1 SWAP2 SUB SWAP1 LOG2 POP POP POP POP JUMP JUMPDEST PUSH1 0x0 DUP1 PUSH2 0x1CDD PUSH1 0xFB PUSH1 0x2 SWAP1 SLOAD SWAP1 PUSH2 0x100 EXP SWAP1 DIV PUSH1 0x1 PUSH1 0x1 PUSH1 0xA0 SHL SUB AND PUSH2 0x105 SLOAD PUSH2 0x4382 JUMP JUMPDEST SWAP1 SWAP5 POP SWAP3 POP DUP4 SWAP2 POP POP DUP1 ISZERO PUSH2 0x1CEF JUMPI POP DUP1 JUMPDEST PUSH2 0x1CF8 JUMPI PUSH1 0x0 DUP1 REVERT JUMPDEST CALLER PUSH1 0x0 PUSH2 0x1D1A PUSH1 0xFB PUSH1 0x2 SWAP1 SLOAD SWAP1 PUSH2 0x100 EXP SWAP1 DIV PUSH1 0x1 PUSH1 0x1 PUSH1 0xA0 SHL SUB AND DUP4 PUSH2 0x4420 JUMP JUMPDEST SWAP2 POP DUP2 SWAP1 POP PUSH2 0x1D28 JUMPI PUSH1 0x0 DUP1 REVERT JUMPDEST PUSH1 0x97 SLOAD PUSH1 0xFF AND ISZERO PUSH2 0x1D4B JUMPI PUSH1 0x40 MLOAD PUSH3 0x461BCD PUSH1 0xE5 SHL DUP2 MSTORE PUSH1 0x4 ADD PUSH2 0xD16 SWAP1 PUSH2 0x5577 JUMP JUMPDEST PUSH1 0xFF DUP7 DUP2 SLOAD DUP2 LT PUSH2 0x1D6C JUMPI PUSH4 0x4E487B71 PUSH1 0xE0 SHL PUSH1 0x0 MSTORE PUSH1 0x32 PUSH1 0x4 MSTORE PUSH1 0x24 PUSH1 0x0 REVERT JUMPDEST SWAP1 PUSH1 0x0 MSTORE PUSH1 0x20 PUSH1 0x0 KECCAK256 SWAP1 PUSH1 0x2 MUL ADD PUSH1 0x1 ADD PUSH1 0x14 SWAP1 SLOAD SWAP1 PUSH2 0x100 EXP SWAP1 DIV PUSH1 0xFF AND PUSH2 0x1D94 JUMPI PUSH1 0x0 DUP1 REVERT JUMPDEST CALLER PUSH1 0x1 PUSH1 0x1 PUSH1 0xA0 SHL SUB AND PUSH1 0xFF DUP8 DUP2 SLOAD DUP2 LT PUSH2 0x1DBF JUMPI PUSH4 0x4E487B71 PUSH1 0xE0 SHL PUSH1 0x0 MSTORE PUSH1 0x32 PUSH1 0x4 MSTORE PUSH1 0x24 PUSH1 0x0 REVERT JUMPDEST PUSH1 0x0 SWAP2 DUP3 MSTORE PUSH1 0x20 SWAP1 SWAP2 KECCAK256 PUSH1 0x1 PUSH1 0x2 SWAP1 SWAP3 MUL ADD ADD SLOAD PUSH1 0x1 PUSH1 0x1 PUSH1 0xA0 SHL SUB AND EQ DUP1 ISZERO PUSH2 0x1DF9 JUMPI POP CALLER PUSH1 0x0 SWAP1 DUP2 MSTORE PUSH2 0x100 PUSH1 0x20 MSTORE PUSH1 0x40 SWAP1 KECCAK256 SLOAD PUSH1 0xFF AND JUMPDEST DUP1 ISZERO PUSH2 0x1E15 JUMPI POP CALLER PUSH1 0x0 SWAP1 DUP2 MSTORE PUSH2 0x111 PUSH1 0x20 MSTORE PUSH1 0x40 SWAP1 KECCAK256 SLOAD PUSH1 0xFF AND JUMPDEST PUSH2 0x1E1E JUMPI PUSH1 0x0 DUP1 REVERT JUMPDEST DUP5 PUSH1 0xFF DUP8 DUP2 SLOAD DUP2 LT PUSH2 0x1E40 JUMPI PUSH4 0x4E487B71 PUSH1 0xE0 SHL PUSH1 0x0 MSTORE PUSH1 0x32 PUSH1 0x4 MSTORE PUSH1 0x24 PUSH1 0x0 REVERT JUMPDEST SWAP1 PUSH1 0x0 MSTORE PUSH1 0x20 PUSH1 0x0 KECCAK256 SWAP1 PUSH1 0x2 MUL ADD PUSH1 0x1 ADD PUSH1 0x14 PUSH2 0x100 EXP DUP2 SLOAD DUP2 PUSH1 0xFF MUL NOT AND SWAP1 DUP4 ISZERO ISZERO MUL OR SWAP1 SSTORE POP DUP6 PUSH32 0x693DD74B0031ADCD76227F30E0FF8FD8C32DA74887CC14801FFABC26BF281269 PUSH2 0x105 SLOAD DUP8 PUSH1 0x40 MLOAD PUSH2 0x1EA8 SWAP3 SWAP2 SWAP1 SWAP2 DUP3 MSTORE ISZERO ISZERO PUSH1 0x20 DUP3 ADD MSTORE PUSH1 0x40 ADD SWAP1 JUMP JUMPDEST PUSH1 0x40 MLOAD DUP1 SWAP2 SUB SWAP1 LOG2 POP POP POP POP POP POP JUMP JUMPDEST PUSH1 0xFC DUP2 DUP2 SLOAD DUP2 LT PUSH2 0x1EC8 JUMPI PUSH1 0x0 DUP1 REVERT JUMPDEST PUSH1 0x0 SWAP2 DUP3 MSTORE PUSH1 0x20 SWAP1 SWAP2 KECCAK256 PUSH1 0x6 SWAP1 SWAP2 MUL ADD DUP1 SLOAD PUSH1 0x1 DUP3 ADD SLOAD PUSH1 0x2 DUP4 ADD SLOAD PUSH1 0x3 DUP5 ADD SLOAD PUSH1 0x4 SWAP1 SWAP5 ADD SLOAD PUSH1 0x1 PUSH1 0x1 PUSH1 0xA0 SHL SUB DUP5 AND SWAP6 POP PUSH1 0x1 PUSH1 0xA0 SHL SWAP1 SWAP4 DIV PUSH1 0xFF AND SWAP4 SWAP2 SWAP3 SWAP1 SWAP2 SWAP1 DUP7 JUMP JUMPDEST PUSH1 0xFB SLOAD PUSH1 0x40 MLOAD PUSH4 0xF7878C69 PUSH1 0xE0 SHL DUP2 MSTORE CALLER PUSH1 0x4 DUP3 ADD MSTORE PUSH3 0x10000 SWAP1 SWAP2 DIV PUSH1 0x1 PUSH1 0x1 PUSH1 0xA0 SHL SUB AND SWAP1 PUSH4 0xF7878C69 SWAP1 PUSH1 0x24 ADD PUSH1 0x20 PUSH1 0x40 MLOAD DUP1 DUP4 SUB DUP2 DUP7 DUP1 EXTCODESIZE ISZERO DUP1 ISZERO PUSH2 0x1F57 JUMPI PUSH1 0x0 DUP1 REVERT JUMPDEST POP GAS STATICCALL ISZERO DUP1 ISZERO PUSH2 0x1F6B JUMPI RETURNDATASIZE PUSH1 0x0 DUP1 RETURNDATACOPY RETURNDATASIZE PUSH1 0x0 REVERT JUMPDEST POP POP POP POP PUSH1 0x40 MLOAD RETURNDATASIZE PUSH1 0x1F NOT PUSH1 0x1F DUP3 ADD AND DUP3 ADD DUP1 PUSH1 0x40 MSTORE POP DUP2 ADD SWAP1 PUSH2 0x1F8F SWAP2 SWAP1 PUSH2 0x52AF JUMP JUMPDEST DUP1 PUSH2 0x1FA0 JUMPI POP PUSH2 0x1FA0 PUSH1 0x0 CALLER PUSH2 0x2415 JUMP JUMPDEST PUSH2 0x1FA9 JUMPI PUSH1 0x0 DUP1 REVERT JUMPDEST PUSH1 0x0 DUP1 PUSH2 0x1FCE PUSH1 0xFB PUSH1 0x2 SWAP1 SLOAD SWAP1 PUSH2 0x100 EXP SWAP1 DIV PUSH1 0x1 PUSH1 0x1 PUSH1 0xA0 SHL SUB AND PUSH2 0x105 SLOAD PUSH2 0x4382 JUMP JUMPDEST SWAP1 SWAP5 POP SWAP3 POP DUP4 SWAP2 POP POP DUP1 ISZERO PUSH2 0x1FE0 JUMPI POP DUP1 JUMPDEST PUSH2 0x1FE9 JUMPI PUSH1 0x0 DUP1 REVERT JUMPDEST CALLER PUSH1 0x0 PUSH2 0x200B PUSH1 0xFB PUSH1 0x2 SWAP1 SLOAD SWAP1 PUSH2 0x100 EXP SWAP1 DIV PUSH1 0x1 PUSH1 0x1 PUSH1 0xA0 SHL SUB AND DUP4 PUSH2 0x4420 JUMP JUMPDEST SWAP2 POP DUP2 SWAP1 POP PUSH2 0x2019 JUMPI PUSH1 0x0 DUP1 REVERT JUMPDEST PUSH1 0x97 SLOAD PUSH1 0xFF AND ISZERO PUSH2 0x203C JUMPI PUSH1 0x40 MLOAD PUSH3 0x461BCD PUSH1 0xE5 SHL DUP2 MSTORE PUSH1 0x4 ADD PUSH2 0xD16 SWAP1 PUSH2 0x5577 JUMP JUMPDEST PUSH1 0xFB PUSH1 0x2 SWAP1 SLOAD SWAP1 PUSH2 0x100 EXP SWAP1 DIV PUSH1 0x1 PUSH1 0x1 PUSH1 0xA0 SHL SUB AND PUSH1 0x1 PUSH1 0x1 PUSH1 0xA0 SHL SUB AND PUSH4 0x6977AA34 PUSH1 0x40 MLOAD DUP2 PUSH4 0xFFFFFFFF AND PUSH1 0xE0 SHL DUP2 MSTORE PUSH1 0x4 ADD PUSH1 0x20 PUSH1 0x40 MLOAD DUP1 DUP4 SUB DUP2 DUP7 DUP1 EXTCODESIZE ISZERO DUP1 ISZERO PUSH2 0x208A JUMPI PUSH1 0x0 DUP1 REVERT JUMPDEST POP GAS STATICCALL ISZERO DUP1 ISZERO PUSH2 0x209E JUMPI RETURNDATASIZE PUSH1 0x0 DUP1 RETURNDATACOPY RETURNDATASIZE PUSH1 0x0 REVERT JUMPDEST POP POP POP POP PUSH1 0x40 MLOAD RETURNDATASIZE PUSH1 0x1F NOT PUSH1 0x1F DUP3 ADD AND DUP3 ADD DUP1 PUSH1 0x40 MSTORE POP DUP2 ADD SWAP1 PUSH2 0x20C2 SWAP2 SWAP1 PUSH2 0x532F JUMP JUMPDEST DUP9 GT DUP1 ISZERO PUSH2 0x2154 JUMPI POP PUSH1 0xFB PUSH1 0x2 SWAP1 SLOAD SWAP1 PUSH2 0x100 EXP SWAP1 DIV PUSH1 0x1 PUSH1 0x1 PUSH1 0xA0 SHL SUB AND PUSH1 0x1 PUSH1 0x1 PUSH1 0xA0 SHL SUB AND PUSH4 0x84F77577 PUSH1 0x40 MLOAD DUP2 PUSH4 0xFFFFFFFF AND PUSH1 0xE0 SHL DUP2 MSTORE PUSH1 0x4 ADD PUSH1 0x20 PUSH1 0x40 MLOAD DUP1 DUP4 SUB DUP2 DUP7 DUP1 EXTCODESIZE ISZERO DUP1 ISZERO PUSH2 0x2119 JUMPI PUSH1 0x0 DUP1 REVERT JUMPDEST POP GAS STATICCALL ISZERO DUP1 ISZERO PUSH2 0x212D JUMPI RETURNDATASIZE PUSH1 0x0 DUP1 RETURNDATACOPY RETURNDATASIZE PUSH1 0x0 REVERT JUMPDEST POP POP POP POP PUSH1 0x40 MLOAD RETURNDATASIZE PUSH1 0x1F NOT PUSH1 0x1F DUP3 ADD AND DUP3 ADD DUP1 PUSH1 0x40 MSTORE POP DUP2 ADD SWAP1 PUSH2 0x2151 SWAP2 SWAP1 PUSH2 0x532F JUMP JUMPDEST DUP9 LT JUMPDEST PUSH2 0x215D JUMPI PUSH1 0x0 DUP1 REVERT JUMPDEST PUSH1 0x40 DUP1 MLOAD PUSH1 0xA0 DUP2 ADD DUP3 MSTORE DUP10 DUP2 MSTORE PUSH1 0x20 DUP2 ADD DUP10 DUP2 MSTORE SWAP2 DUP2 ADD DUP9 DUP2 MSTORE PUSH1 0x1 PUSH1 0x60 DUP4 ADD DUP2 DUP2 MSTORE DUP10 ISZERO ISZERO PUSH1 0x80 DUP6 ADD SWAP1 DUP2 MSTORE PUSH1 0xFE DUP1 SLOAD DUP1 DUP6 ADD DUP3 SSTORE PUSH1 0x0 DUP3 SWAP1 MSTORE SWAP6 MLOAD PUSH1 0x4 SWAP1 SWAP7 MUL PUSH32 0x54075DF80EC1AE6AC9100E1FD0EBF3246C17F5C933137AF392011F4C5F61513A DUP2 ADD SWAP7 SWAP1 SWAP7 SSTORE SWAP6 MLOAD PUSH32 0x54075DF80EC1AE6AC9100E1FD0EBF3246C17F5C933137AF392011F4C5F61513B DUP7 ADD SSTORE SWAP3 MLOAD PUSH32 0x54075DF80EC1AE6AC9100E1FD0EBF3246C17F5C933137AF392011F4C5F61513C DUP6 ADD SSTORE MLOAD PUSH32 0x54075DF80EC1AE6AC9100E1FD0EBF3246C17F5C933137AF392011F4C5F61513D SWAP1 SWAP4 ADD DUP1 SLOAD SWAP3 MLOAD ISZERO ISZERO PUSH2 0x100 MUL PUSH2 0xFF00 NOT SWAP5 ISZERO ISZERO SWAP5 SWAP1 SWAP5 AND PUSH2 0xFFFF NOT SWAP1 SWAP4 AND SWAP3 SWAP1 SWAP3 OR SWAP3 SWAP1 SWAP3 OR SWAP1 SSTORE SWAP1 SLOAD PUSH2 0x2268 SWAP2 PUSH2 0x46D9 JUMP JUMPDEST PUSH2 0x105 SLOAD PUSH1 0x40 DUP1 MLOAD SWAP2 DUP3 MSTORE PUSH1 0x20 DUP3 ADD DUP12 SWAP1 MSTORE DUP2 ADD DUP10 SWAP1 MSTORE PUSH1 0x60 DUP2 ADD DUP9 SWAP1 MSTORE DUP7 ISZERO ISZERO PUSH1 0x80 DUP3 ADD MSTORE PUSH32 0x40B61ABBA35E1F57F79E5B58A215778745844C5B1915468CE8D5D3152D635247 SWAP1 PUSH1 0xA0 ADD PUSH1 0x40 MLOAD DUP1 SWAP2 SUB SWAP1 LOG2 POP POP POP POP POP POP POP POP JUMP JUMPDEST CALLER PUSH1 0x0 PUSH2 0x22E7 PUSH1 0xFB PUSH1 0x2 SWAP1 SLOAD SWAP1 PUSH2 0x100 EXP SWAP1 DIV PUSH1 0x1 PUSH1 0x1 PUSH1 0xA0 SHL SUB AND DUP4 PUSH2 0x4420 JUMP JUMPDEST SWAP2 POP DUP2 SWAP1 POP PUSH2 0x22F5 JUMPI PUSH1 0x0 DUP1 REVERT JUMPDEST PUSH1 0x0 DUP1 PUSH2 0x231A PUSH1 0xFB PUSH1 0x2 SWAP1 SLOAD SWAP1 PUSH2 0x100 EXP SWAP1 DIV PUSH1 0x1 PUSH1 0x1 PUSH1 0xA0 SHL SUB AND PUSH2 0x105 SLOAD PUSH2 0x4382 JUMP JUMPDEST SWAP1 SWAP5 POP SWAP3 POP DUP4 SWAP2 POP POP DUP1 ISZERO PUSH2 0x232C JUMPI POP DUP1 JUMPDEST PUSH2 0x2335 JUMPI PUSH1 0x0 DUP1 REVERT JUMPDEST PUSH1 0x97 SLOAD PUSH1 0xFF AND PUSH2 0x2357 JUMPI PUSH1 0x40 MLOAD PUSH3 0x461BCD PUSH1 0xE5 SHL DUP2 MSTORE PUSH1 0x4 ADD PUSH2 0xD16 SWAP1 PUSH2 0x5549 JUMP JUMPDEST PUSH1 0x3 PUSH1 0xFB SLOAD PUSH2 0x100 SWAP1 DIV PUSH1 0xFF AND PUSH1 0x5 DUP2 GT ISZERO PUSH2 0x2383 JUMPI PUSH4 0x4E487B71 PUSH1 0xE0 SHL PUSH1 0x0 MSTORE PUSH1 0x21 PUSH1 0x4 MSTORE PUSH1 0x24 PUSH1 0x0 REVERT JUMPDEST EQ DUP1 ISZERO PUSH2 0x23A1 JUMPI POP CALLER PUSH1 0x0 SWAP1 DUP2 MSTORE PUSH2 0x102 PUSH1 0x20 MSTORE PUSH1 0x40 SWAP1 KECCAK256 SLOAD PUSH1 0xFF AND ISZERO JUMPDEST DUP1 ISZERO PUSH2 0x23BD JUMPI POP CALLER PUSH1 0x0 SWAP1 DUP2 MSTORE PUSH2 0x111 PUSH1 0x20 MSTORE PUSH1 0x40 SWAP1 KECCAK256 SLOAD PUSH1 0xFF AND JUMPDEST PUSH2 0x23C6 JUMPI PUSH1 0x0 DUP1 REVERT JUMPDEST CALLER PUSH1 0x0 SWAP1 DUP2 MSTORE PUSH2 0x102 PUSH1 0x20 MSTORE PUSH1 0x40 SWAP1 KECCAK256 DUP1 SLOAD PUSH1 0xFF NOT AND PUSH1 0x1 OR SWAP1 SSTORE DUP5 ISZERO PUSH2 0x23FB JUMPI PUSH2 0x10D SLOAD PUSH2 0x23F6 SWAP1 PUSH1 0x1 PUSH2 0x46E5 JUMP JUMPDEST PUSH2 0x10D SSTORE JUMPDEST PUSH2 0x10E SLOAD PUSH2 0x240A SWAP1 PUSH1 0x1 PUSH2 0x46E5 JUMP JUMPDEST PUSH2 0x10E SSTORE POP POP POP POP POP JUMP JUMPDEST PUSH1 0x0 SWAP2 DUP3 MSTORE PUSH1 0x65 PUSH1 0x20 SWAP1 DUP2 MSTORE PUSH1 0x40 DUP1 DUP5 KECCAK256 PUSH1 0x1 PUSH1 0x1 PUSH1 0xA0 SHL SUB SWAP4 SWAP1 SWAP4 AND DUP5 MSTORE SWAP2 SWAP1 MSTORE SWAP1 KECCAK256 SLOAD PUSH1 0xFF AND SWAP1 JUMP JUMPDEST PUSH1 0x0 DUP1 PUSH1 0x0 PUSH2 0x2467 PUSH1 0xFB PUSH1 0x2 SWAP1 SLOAD SWAP1 PUSH2 0x100 EXP SWAP1 DIV PUSH1 0x1 PUSH1 0x1 PUSH1 0xA0 SHL SUB AND PUSH2 0x105 SLOAD PUSH2 0x4382 JUMP JUMPDEST SWAP1 SWAP5 POP SWAP3 POP DUP4 SWAP2 POP POP DUP1 ISZERO PUSH2 0x2479 JUMPI POP DUP1 JUMPDEST PUSH2 0x2482 JUMPI PUSH1 0x0 DUP1 REVERT JUMPDEST CALLER PUSH1 0x0 PUSH2 0x24A4 PUSH1 0xFB PUSH1 0x2 SWAP1 SLOAD SWAP1 PUSH2 0x100 EXP SWAP1 DIV PUSH1 0x1 PUSH1 0x1 PUSH1 0xA0 SHL SUB AND DUP4 PUSH2 0x4420 JUMP JUMPDEST SWAP2 POP DUP2 SWAP1 POP PUSH2 0x24B2 JUMPI PUSH1 0x0 DUP1 REVERT JUMPDEST PUSH2 0x10B SLOAD TIMESTAMP GT ISZERO PUSH2 0x24C2 JUMPI PUSH1 0x0 DUP1 REVERT JUMPDEST PUSH1 0x97 SLOAD PUSH1 0xFF AND ISZERO PUSH2 0x24E5 JUMPI PUSH1 0x40 MLOAD PUSH3 0x461BCD PUSH1 0xE5 SHL DUP2 MSTORE PUSH1 0x4 ADD PUSH2 0xD16 SWAP1 PUSH2 0x5577 JUMP JUMPDEST PUSH1 0x2 PUSH1 0xC9 SLOAD EQ ISZERO PUSH2 0x2508 JUMPI PUSH1 0x40 MLOAD PUSH3 0x461BCD PUSH1 0xE5 SHL DUP2 MSTORE PUSH1 0x4 ADD PUSH2 0xD16 SWAP1 PUSH2 0x55A1 JUMP JUMPDEST PUSH1 0x2 PUSH1 0xC9 SSTORE PUSH2 0x104 SLOAD PUSH1 0x1 PUSH1 0x1 PUSH1 0xA0 SHL SUB DUP10 DUP2 AND SWAP2 AND EQ DUP1 ISZERO PUSH2 0x252E JUMPI POP PUSH2 0x107 SLOAD CALLVALUE LT ISZERO JUMPDEST DUP1 ISZERO PUSH2 0x25BF JUMPI POP PUSH1 0xFB PUSH1 0x2 SWAP1 SLOAD SWAP1 PUSH2 0x100 EXP SWAP1 DIV PUSH1 0x1 PUSH1 0x1 PUSH1 0xA0 SHL SUB AND PUSH1 0x1 PUSH1 0x1 PUSH1 0xA0 SHL SUB AND PUSH4 0x84F77577 PUSH1 0x40 MLOAD DUP2 PUSH4 0xFFFFFFFF AND PUSH1 0xE0 SHL DUP2 MSTORE PUSH1 0x4 ADD PUSH1 0x20 PUSH1 0x40 MLOAD DUP1 DUP4 SUB DUP2 DUP7 DUP1 EXTCODESIZE ISZERO DUP1 ISZERO PUSH2 0x2583 JUMPI PUSH1 0x0 DUP1 REVERT JUMPDEST POP GAS STATICCALL ISZERO DUP1 ISZERO PUSH2 0x2597 JUMPI RETURNDATASIZE PUSH1 0x0 DUP1 RETURNDATACOPY RETURNDATASIZE PUSH1 0x0 REVERT JUMPDEST POP POP POP POP PUSH1 0x40 MLOAD RETURNDATASIZE PUSH1 0x1F NOT PUSH1 0x1F DUP3 ADD AND DUP3 ADD DUP1 PUSH1 0x40 MSTORE POP DUP2 ADD SWAP1 PUSH2 0x25BB SWAP2 SWAP1 PUSH2 0x532F JUMP JUMPDEST CALLVALUE GT ISZERO JUMPDEST PUSH2 0x25C8 JUMPI PUSH1 0x0 DUP1 REVERT JUMPDEST PUSH2 0x106 SLOAD PUSH1 0x0 SWAP1 PUSH2 0x25D9 SWAP1 CALLVALUE PUSH2 0x46E5 JUMP JUMPDEST PUSH2 0x104 SLOAD SWAP1 SWAP2 POP PUSH1 0x1 PUSH1 0xA0 SHL SWAP1 DIV PUSH1 0xFF AND ISZERO DUP1 ISZERO PUSH2 0x25F9 JUMPI POP PUSH2 0x106 SLOAD DUP2 GT JUMPDEST ISZERO PUSH2 0x2615 JUMPI PUSH2 0x106 SLOAD PUSH2 0x260D SWAP1 DUP3 SWAP1 PUSH2 0x46D9 JUMP JUMPDEST SWAP6 POP POP PUSH2 0x28E2 JUMP JUMPDEST DUP7 ISZERO PUSH2 0x28D8 JUMPI PUSH1 0xFE DUP9 DUP2 SLOAD DUP2 LT PUSH2 0x263C JUMPI PUSH4 0x4E487B71 PUSH1 0xE0 SHL PUSH1 0x0 MSTORE PUSH1 0x32 PUSH1 0x4 MSTORE PUSH1 0x24 PUSH1 0x0 REVERT JUMPDEST SWAP1 PUSH1 0x0 MSTORE PUSH1 0x20 PUSH1 0x0 KECCAK256 SWAP1 PUSH1 0x4 MUL ADD PUSH1 0x0 ADD SLOAD CALLVALUE LT ISZERO DUP1 ISZERO PUSH2 0x268F JUMPI POP PUSH1 0x0 PUSH1 0xFE DUP10 DUP2 SLOAD DUP2 LT PUSH2 0x267B JUMPI PUSH4 0x4E487B71 PUSH1 0xE0 SHL PUSH1 0x0 MSTORE PUSH1 0x32 PUSH1 0x4 MSTORE PUSH1 0x24 PUSH1 0x0 REVERT JUMPDEST SWAP1 PUSH1 0x0 MSTORE PUSH1 0x20 PUSH1 0x0 KECCAK256 SWAP1 PUSH1 0x4 MUL ADD PUSH1 0x2 ADD SLOAD GT JUMPDEST DUP1 ISZERO PUSH2 0x26CF JUMPI POP PUSH1 0xFE DUP9 DUP2 SLOAD DUP2 LT PUSH2 0x26B7 JUMPI PUSH4 0x4E487B71 PUSH1 0xE0 SHL PUSH1 0x0 MSTORE PUSH1 0x32 PUSH1 0x4 MSTORE PUSH1 0x24 PUSH1 0x0 REVERT JUMPDEST PUSH1 0x0 SWAP2 DUP3 MSTORE PUSH1 0x20 SWAP1 SWAP2 KECCAK256 PUSH1 0x3 PUSH1 0x4 SWAP1 SWAP3 MUL ADD ADD SLOAD PUSH1 0xFF AND JUMPDEST DUP1 ISZERO PUSH2 0x2717 JUMPI POP PUSH1 0xFE DUP9 DUP2 SLOAD DUP2 LT PUSH2 0x26F7 JUMPI PUSH4 0x4E487B71 PUSH1 0xE0 SHL PUSH1 0x0 MSTORE PUSH1 0x32 PUSH1 0x4 MSTORE PUSH1 0x24 PUSH1 0x0 REVERT JUMPDEST SWAP1 PUSH1 0x0 MSTORE PUSH1 0x20 PUSH1 0x0 KECCAK256 SWAP1 PUSH1 0x4 MUL ADD PUSH1 0x3 ADD PUSH1 0x1 SWAP1 SLOAD SWAP1 PUSH2 0x100 EXP SWAP1 DIV PUSH1 0xFF AND JUMPDEST PUSH2 0x2720 JUMPI PUSH1 0x0 DUP1 REVERT JUMPDEST PUSH1 0x40 DUP1 MLOAD PUSH1 0x80 DUP2 ADD DUP3 MSTORE DUP10 DUP2 MSTORE CALLER PUSH1 0x20 DUP1 DUP4 ADD DUP3 DUP2 MSTORE PUSH1 0x0 DUP5 DUP7 ADD DUP2 DUP2 MSTORE PUSH1 0x60 DUP7 ADD DUP3 DUP2 MSTORE PUSH1 0xFF DUP1 SLOAD PUSH1 0x1 DUP2 DUP2 ADD DUP4 SSTORE SWAP2 DUP6 MSTORE SWAP8 MLOAD PUSH1 0x2 SWAP1 SWAP9 MUL PUSH32 0xE08EC2AF2CFC251225E1968FD6CA21E4044F129BFFA95BAC3503BE8BDB30A367 DUP2 ADD SWAP9 SWAP1 SWAP9 SSTORE SWAP4 MLOAD PUSH32 0xE08EC2AF2CFC251225E1968FD6CA21E4044F129BFFA95BAC3503BE8BDB30A368 SWAP1 SWAP8 ADD DUP1 SLOAD SWAP3 MLOAD SWAP2 MLOAD ISZERO ISZERO PUSH1 0x1 PUSH1 0xA8 SHL MUL PUSH1 0xFF PUSH1 0xA8 SHL NOT SWAP3 ISZERO ISZERO PUSH1 0x1 PUSH1 0xA0 SHL MUL PUSH1 0x1 PUSH1 0x1 PUSH1 0xA8 SHL SUB NOT SWAP1 SWAP5 AND PUSH1 0x1 PUSH1 0x1 PUSH1 0xA0 SHL SUB SWAP10 DUP11 AND OR SWAP4 SWAP1 SWAP4 OR SWAP2 SWAP1 SWAP2 AND SWAP2 SWAP1 SWAP2 OR SWAP1 SSTORE DUP4 DUP2 MSTORE PUSH2 0x100 SWAP1 SWAP3 MSTORE SWAP1 DUP5 SWAP1 KECCAK256 DUP1 SLOAD PUSH1 0xFF NOT AND SWAP1 SWAP2 OR SWAP1 SSTORE PUSH2 0x105 SLOAD PUSH1 0xFB SLOAD SWAP4 MLOAD PUSH4 0x76D3BCA7 PUSH1 0xE1 SHL DUP2 MSTORE DUP13 SWAP5 PUSH32 0xF6DB7806DA8881826FB74329FF39F277CD5AE5BF2E80D108044862FDAF12C03C SWAP5 SWAP3 SWAP4 PUSH3 0x10000 SWAP1 SWAP2 DIV SWAP1 SWAP3 AND SWAP2 PUSH4 0xEDA7794E SWAP2 PUSH2 0x2868 SWAP2 SWAP1 PUSH1 0x4 ADD PUSH1 0x1 PUSH1 0x1 PUSH1 0xA0 SHL SUB SWAP2 SWAP1 SWAP2 AND DUP2 MSTORE PUSH1 0x20 ADD SWAP1 JUMP JUMPDEST PUSH1 0x20 PUSH1 0x40 MLOAD DUP1 DUP4 SUB DUP2 DUP7 DUP1 EXTCODESIZE ISZERO DUP1 ISZERO PUSH2 0x2880 JUMPI PUSH1 0x0 DUP1 REVERT JUMPDEST POP GAS STATICCALL ISZERO DUP1 ISZERO PUSH2 0x2894 JUMPI RETURNDATASIZE PUSH1 0x0 DUP1 RETURNDATACOPY RETURNDATASIZE PUSH1 0x0 REVERT JUMPDEST POP POP POP POP PUSH1 0x40 MLOAD RETURNDATASIZE PUSH1 0x1F NOT PUSH1 0x1F DUP3 ADD AND DUP3 ADD DUP1 PUSH1 0x40 MSTORE POP DUP2 ADD SWAP1 PUSH2 0x28B8 SWAP2 SWAP1 PUSH2 0x532F JUMP JUMPDEST PUSH1 0x40 DUP1 MLOAD SWAP3 DUP4 MSTORE PUSH1 0x20 DUP4 ADD SWAP2 SWAP1 SWAP2 MSTORE CALLVALUE SWAP1 DUP3 ADD MSTORE PUSH1 0x60 ADD PUSH1 0x40 MLOAD DUP1 SWAP2 SUB SWAP1 LOG2 JUMPDEST PUSH2 0x28E0 PUSH2 0x4BA6 JUMP JUMPDEST POP JUMPDEST POP POP PUSH1 0x1 PUSH1 0xC9 SSTORE POP SWAP1 SWAP5 SWAP4 POP POP POP POP JUMP JUMPDEST DUP1 PUSH1 0x0 PUSH2 0x2915 PUSH1 0xFB PUSH1 0x2 SWAP1 SLOAD SWAP1 PUSH2 0x100 EXP SWAP1 DIV PUSH1 0x1 PUSH1 0x1 PUSH1 0xA0 SHL SUB AND DUP4 PUSH2 0x4420 JUMP JUMPDEST SWAP2 POP DUP2 SWAP1 POP PUSH2 0x2923 JUMPI PUSH1 0x0 DUP1 REVERT JUMPDEST PUSH1 0xFB SLOAD PUSH1 0x40 MLOAD PUSH4 0xF7878C69 PUSH1 0xE0 SHL DUP2 MSTORE CALLER PUSH1 0x4 DUP3 ADD MSTORE PUSH3 0x10000 SWAP1 SWAP2 DIV PUSH1 0x1 PUSH1 0x1 PUSH1 0xA0 SHL SUB AND SWAP1 PUSH4 0xF7878C69 SWAP1 PUSH1 0x24 ADD PUSH1 0x20 PUSH1 0x40 MLOAD DUP1 DUP4 SUB DUP2 DUP7 DUP1 EXTCODESIZE ISZERO DUP1 ISZERO PUSH2 0x296B JUMPI PUSH1 0x0 DUP1 REVERT JUMPDEST POP GAS STATICCALL ISZERO DUP1 ISZERO PUSH2 0x297F JUMPI RETURNDATASIZE PUSH1 0x0 DUP1 RETURNDATACOPY RETURNDATASIZE PUSH1 0x0 REVERT JUMPDEST POP POP POP POP PUSH1 0x40 MLOAD RETURNDATASIZE PUSH1 0x1F NOT PUSH1 0x1F DUP3 ADD AND DUP3 ADD DUP1 PUSH1 0x40 MSTORE POP DUP2 ADD SWAP1 PUSH2 0x29A3 SWAP2 SWAP1 PUSH2 0x52AF JUMP JUMPDEST PUSH2 0x29AC JUMPI PUSH1 0x0 DUP1 REVERT JUMPDEST PUSH2 0x103 SLOAD PUSH2 0x29C5 SWAP1 PUSH1 0x0 SWAP1 PUSH1 0x1 PUSH1 0x1 PUSH1 0xA0 SHL SUB AND PUSH2 0x3842 JUMP JUMPDEST PUSH2 0x29D0 PUSH1 0x0 DUP5 PUSH2 0x4D2D JUMP JUMPDEST PUSH2 0x103 DUP1 SLOAD PUSH1 0x1 PUSH1 0x1 PUSH1 0xA0 SHL SUB NOT AND PUSH1 0x1 PUSH1 0x1 PUSH1 0xA0 SHL SUB DUP6 DUP2 AND SWAP2 DUP3 OR SWAP1 SWAP3 SSTORE PUSH1 0xFB SLOAD PUSH1 0x40 MLOAD PUSH4 0x67480D35 PUSH1 0xE0 SHL DUP2 MSTORE PUSH1 0x4 DUP2 ADD SWAP3 SWAP1 SWAP3 MSTORE ADDRESS PUSH1 0x24 DUP4 ADD MSTORE PUSH3 0x10000 SWAP1 DIV SWAP1 SWAP2 AND SWAP1 PUSH4 0x67480D35 SWAP1 PUSH1 0x44 ADD PUSH1 0x0 PUSH1 0x40 MLOAD DUP1 DUP4 SUB DUP2 PUSH1 0x0 DUP8 DUP1 EXTCODESIZE ISZERO DUP1 ISZERO PUSH2 0x2A3B JUMPI PUSH1 0x0 DUP1 REVERT JUMPDEST POP GAS CALL ISZERO DUP1 ISZERO PUSH2 0x2A4F JUMPI RETURNDATASIZE PUSH1 0x0 DUP1 RETURNDATACOPY RETURNDATASIZE PUSH1 0x0 REVERT JUMPDEST POP POP POP POP POP POP POP JUMP JUMPDEST PUSH1 0x0 SLOAD PUSH2 0x100 SWAP1 DIV PUSH1 0xFF AND DUP1 PUSH2 0x2A71 JUMPI POP PUSH1 0x0 SLOAD PUSH1 0xFF AND ISZERO JUMPDEST PUSH2 0x2AD4 JUMPI PUSH1 0x40 MLOAD PUSH3 0x461BCD PUSH1 0xE5 SHL DUP2 MSTORE PUSH1 0x20 PUSH1 0x4 DUP3 ADD MSTORE PUSH1 0x2E PUSH1 0x24 DUP3 ADD MSTORE PUSH32 0x496E697469616C697A61626C653A20636F6E747261637420697320616C726561 PUSH1 0x44 DUP3 ADD MSTORE PUSH14 0x191E481A5B9A5D1A585B1A5E9959 PUSH1 0x92 SHL PUSH1 0x64 DUP3 ADD MSTORE PUSH1 0x84 ADD PUSH2 0xD16 JUMP JUMPDEST PUSH1 0x0 SLOAD PUSH2 0x100 SWAP1 DIV PUSH1 0xFF AND ISZERO DUP1 ISZERO PUSH2 0x2AF6 JUMPI PUSH1 0x0 DUP1 SLOAD PUSH2 0xFFFF NOT AND PUSH2 0x101 OR SWAP1 SSTORE JUMPDEST PUSH1 0x1 PUSH1 0x1 PUSH1 0xA0 SHL SUB DUP3 AND PUSH2 0x2B09 JUMPI PUSH1 0x0 DUP1 REVERT JUMPDEST PUSH2 0x2B14 PUSH1 0x0 DUP4 PUSH2 0x4D2D JUMP JUMPDEST PUSH1 0xFB DUP1 SLOAD PUSH2 0x103 DUP1 SLOAD PUSH1 0x1 PUSH1 0x1 PUSH1 0xA0 SHL SUB DUP7 DUP2 AND PUSH1 0x1 PUSH1 0x1 PUSH1 0xA0 SHL SUB NOT SWAP1 SWAP3 AND SWAP2 SWAP1 SWAP2 OR SWAP1 SWAP2 SSTORE PUSH2 0xFF00 NOT DUP7 DUP3 AND PUSH3 0x10000 SWAP1 DUP2 MUL SWAP2 SWAP1 SWAP2 AND PUSH2 0x100 PUSH1 0x1 PUSH1 0xB0 SHL SUB NOT SWAP1 SWAP4 AND SWAP3 SWAP1 SWAP3 OR SWAP3 DUP4 SWAP1 SSTORE PUSH1 0x40 MLOAD PUSH4 0x31B0C8FF PUSH1 0xE2 SHL DUP2 MSTORE ADDRESS PUSH1 0x4 DUP3 ADD MSTORE SWAP2 SWAP1 SWAP3 DIV SWAP1 SWAP2 AND SWAP1 PUSH4 0xC6C323FC SWAP1 PUSH1 0x24 ADD PUSH1 0x20 PUSH1 0x40 MLOAD DUP1 DUP4 SUB DUP2 DUP7 DUP1 EXTCODESIZE ISZERO DUP1 ISZERO PUSH2 0x2B9E JUMPI PUSH1 0x0 DUP1 REVERT JUMPDEST POP GAS STATICCALL ISZERO DUP1 ISZERO PUSH2 0x2BB2 JUMPI RETURNDATASIZE PUSH1 0x0 DUP1 RETURNDATACOPY RETURNDATASIZE PUSH1 0x0 REVERT JUMPDEST POP POP POP POP PUSH1 0x40 MLOAD RETURNDATASIZE PUSH1 0x1F NOT PUSH1 0x1F DUP3 ADD AND DUP3 ADD DUP1 PUSH1 0x40 MSTORE POP DUP2 ADD SWAP1 PUSH2 0x2BD6 SWAP2 SWAP1 PUSH2 0x532F JUMP JUMPDEST PUSH2 0x105 DUP2 SWAP1 SSTORE PUSH1 0x40 MLOAD PUSH32 0xE1926F6DD46837FE59306098EF2779D8E412232F2C497F80B46B7283C6138D4D SWAP1 PUSH1 0x0 SWAP1 LOG2 PUSH2 0x2C0D PUSH2 0x4751 JUMP JUMPDEST DUP1 ISZERO PUSH2 0x11DC JUMPI PUSH1 0x0 DUP1 SLOAD PUSH2 0xFF00 NOT AND SWAP1 SSTORE POP POP POP JUMP JUMPDEST PUSH1 0x0 DUP1 PUSH2 0x2C48 PUSH1 0xFB PUSH1 0x2 SWAP1 SLOAD SWAP1 PUSH2 0x100 EXP SWAP1 DIV PUSH1 0x1 PUSH1 0x1 PUSH1 0xA0 SHL SUB AND PUSH2 0x105 SLOAD PUSH2 0x4382 JUMP JUMPDEST SWAP1 SWAP5 POP SWAP3 POP DUP4 SWAP2 POP POP DUP1 ISZERO PUSH2 0x2C5A JUMPI POP DUP1 JUMPDEST PUSH2 0x2C63 JUMPI PUSH1 0x0 DUP1 REVERT JUMPDEST CALLER PUSH1 0x0 PUSH2 0x2C85 PUSH1 0xFB PUSH1 0x2 SWAP1 SLOAD SWAP1 PUSH2 0x100 EXP SWAP1 DIV PUSH1 0x1 PUSH1 0x1 PUSH1 0xA0 SHL SUB AND DUP4 PUSH2 0x4420 JUMP JUMPDEST SWAP2 POP DUP2 SWAP1 POP PUSH2 0x2C93 JUMPI PUSH1 0x0 DUP1 REVERT JUMPDEST PUSH1 0xFB SLOAD PUSH1 0x40 MLOAD PUSH4 0xF7878C69 PUSH1 0xE0 SHL DUP2 MSTORE CALLER PUSH1 0x4 DUP3 ADD MSTORE PUSH3 0x10000 SWAP1 SWAP2 DIV PUSH1 0x1 PUSH1 0x1 PUSH1 0xA0 SHL SUB AND SWAP1 PUSH4 0xF7878C69 SWAP1 PUSH1 0x24 ADD PUSH1 0x20 PUSH1 0x40 MLOAD DUP1 DUP4 SUB DUP2 DUP7 DUP1 EXTCODESIZE ISZERO DUP1 ISZERO PUSH2 0x2CDB JUMPI PUSH1 0x0 DUP1 REVERT JUMPDEST POP GAS STATICCALL ISZERO DUP1 ISZERO PUSH2 0x2CEF JUMPI RETURNDATASIZE PUSH1 0x0 DUP1 RETURNDATACOPY RETURNDATASIZE PUSH1 0x0 REVERT JUMPDEST POP POP POP POP PUSH1 0x40 MLOAD RETURNDATASIZE PUSH1 0x1F NOT PUSH1 0x1F DUP3 ADD AND DUP3 ADD DUP1 PUSH1 0x40 MSTORE POP DUP2 ADD SWAP1 PUSH2 0x2D13 SWAP2 SWAP1 PUSH2 0x52AF JUMP JUMPDEST DUP1 PUSH2 0x2D24 JUMPI POP PUSH2 0x2D24 PUSH1 0x0 CALLER PUSH2 0x2415 JUMP JUMPDEST PUSH2 0x2D2D JUMPI PUSH1 0x0 DUP1 REVERT JUMPDEST PUSH1 0x97 SLOAD PUSH1 0xFF AND ISZERO PUSH2 0x1E1E JUMPI PUSH1 0x40 MLOAD PUSH3 0x461BCD PUSH1 0xE5 SHL DUP2 MSTORE PUSH1 0x4 ADD PUSH2 0xD16 SWAP1 PUSH2 0x5577 JUMP JUMPDEST PUSH1 0xFB SLOAD PUSH1 0x40 MLOAD PUSH4 0xF7878C69 PUSH1 0xE0 SHL DUP2 MSTORE CALLER PUSH1 0x4 DUP3 ADD MSTORE PUSH3 0x10000 SWAP1 SWAP2 DIV PUSH1 0x1 PUSH1 0x1 PUSH1 0xA0 SHL SUB AND SWAP1 PUSH4 0xF7878C69 SWAP1 PUSH1 0x24 ADD PUSH1 0x20 PUSH1 0x40 MLOAD DUP1 DUP4 SUB DUP2 DUP7 DUP1 EXTCODESIZE ISZERO DUP1 ISZERO PUSH2 0x2D98 JUMPI PUSH1 0x0 DUP1 REVERT JUMPDEST POP GAS STATICCALL ISZERO DUP1 ISZERO PUSH2 0x2DAC JUMPI RETURNDATASIZE PUSH1 0x0 DUP1 RETURNDATACOPY RETURNDATASIZE PUSH1 0x0 REVERT JUMPDEST POP POP POP POP PUSH1 0x40 MLOAD RETURNDATASIZE PUSH1 0x1F NOT PUSH1 0x1F DUP3 ADD AND DUP3 ADD DUP1 PUSH1 0x40 MSTORE POP DUP2 ADD SWAP1 PUSH2 0x2DD0 SWAP2 SWAP1 PUSH2 0x52AF JUMP JUMPDEST DUP1 PUSH2 0x2DE1 JUMPI POP PUSH2 0x2DE1 PUSH1 0x0 CALLER PUSH2 0x2415 JUMP JUMPDEST PUSH2 0x2DEA JUMPI PUSH1 0x0 DUP1 REVERT JUMPDEST PUSH1 0x0 PUSH2 0x2E0E PUSH1 0xFB PUSH1 0x2 SWAP1 SLOAD SWAP1 PUSH2 0x100 EXP SWAP1 DIV PUSH1 0x1 PUSH1 0x1 PUSH1 0xA0 SHL SUB AND PUSH2 0x105 SLOAD PUSH2 0x4382 JUMP JUMPDEST PUSH1 0xFB SLOAD PUSH1 0x40 MLOAD PUSH4 0xF7878C69 PUSH1 0xE0 SHL DUP2 MSTORE CALLER PUSH1 0x4 DUP3 ADD MSTORE SWAP2 SWAP6 POP PUSH3 0x10000 SWAP1 DIV PUSH1 0x1 PUSH1 0x1 PUSH1 0xA0 SHL SUB AND SWAP4 POP PUSH4 0xF7878C69 SWAP3 POP PUSH1 0x24 ADD SWAP1 POP PUSH1 0x20 PUSH1 0x40 MLOAD DUP1 DUP4 SUB DUP2 DUP7 DUP1 EXTCODESIZE ISZERO DUP1 ISZERO PUSH2 0x2E5C JUMPI PUSH1 0x0 DUP1 REVERT JUMPDEST POP GAS STATICCALL ISZERO DUP1 ISZERO PUSH2 0x2E70 JUMPI RETURNDATASIZE PUSH1 0x0 DUP1 RETURNDATACOPY RETURNDATASIZE PUSH1 0x0 REVERT JUMPDEST POP POP POP POP PUSH1 0x40 MLOAD RETURNDATASIZE PUSH1 0x1F NOT PUSH1 0x1F DUP3 ADD AND DUP3 ADD DUP1 PUSH1 0x40 MSTORE POP DUP2 ADD SWAP1 PUSH2 0x2E94 SWAP2 SWAP1 PUSH2 0x52AF JUMP JUMPDEST PUSH2 0x2EA3 JUMPI DUP1 ISZERO PUSH2 0x2EA3 JUMPI PUSH1 0x0 DUP1 REVERT JUMPDEST PUSH1 0xFB PUSH1 0x2 SWAP1 SLOAD SWAP1 PUSH2 0x100 EXP SWAP1 DIV PUSH1 0x1 PUSH1 0x1 PUSH1 0xA0 SHL SUB AND PUSH1 0x1 PUSH1 0x1 PUSH1 0xA0 SHL SUB AND PUSH4 0x6977AA34 PUSH1 0x40 MLOAD DUP2 PUSH4 0xFFFFFFFF AND PUSH1 0xE0 SHL DUP2 MSTORE PUSH1 0x4 ADD PUSH1 0x20 PUSH1 0x40 MLOAD DUP1 DUP4 SUB DUP2 DUP7 DUP1 EXTCODESIZE ISZERO DUP1 ISZERO PUSH2 0x2EF1 JUMPI PUSH1 0x0 DUP1 REVERT JUMPDEST POP GAS STATICCALL ISZERO DUP1 ISZERO PUSH2 0x2F05 JUMPI RETURNDATASIZE PUSH1 0x0 DUP1 RETURNDATACOPY RETURNDATASIZE PUSH1 0x0 REVERT JUMPDEST POP POP POP POP PUSH1 0x40 MLOAD RETURNDATASIZE PUSH1 0x1F NOT PUSH1 0x1F DUP3 ADD AND DUP3 ADD DUP1 PUSH1 0x40 MSTORE POP DUP2 ADD SWAP1 PUSH2 0x2F29 SWAP2 SWAP1 PUSH2 0x532F JUMP JUMPDEST DUP7 LT ISZERO DUP1 ISZERO PUSH2 0x2FBD JUMPI POP PUSH1 0xFB PUSH1 0x2 SWAP1 SLOAD SWAP1 PUSH2 0x100 EXP SWAP1 DIV PUSH1 0x1 PUSH1 0x1 PUSH1 0xA0 SHL SUB AND PUSH1 0x1 PUSH1 0x1 PUSH1 0xA0 SHL SUB AND PUSH4 0x84F77577 PUSH1 0x40 MLOAD DUP2 PUSH4 0xFFFFFFFF AND PUSH1 0xE0 SHL DUP2 MSTORE PUSH1 0x4 ADD PUSH1 0x20 PUSH1 0x40 MLOAD DUP1 DUP4 SUB DUP2 DUP7 DUP1 EXTCODESIZE ISZERO DUP1 ISZERO PUSH2 0x2F81 JUMPI PUSH1 0x0 DUP1 REVERT JUMPDEST POP GAS STATICCALL ISZERO DUP1 ISZERO PUSH2 0x2F95 JUMPI RETURNDATASIZE PUSH1 0x0 DUP1 RETURNDATACOPY RETURNDATASIZE PUSH1 0x0 REVERT JUMPDEST POP POP POP POP PUSH1 0x40 MLOAD RETURNDATASIZE PUSH1 0x1F NOT PUSH1 0x1F DUP3 ADD AND DUP3 ADD DUP1 PUSH1 0x40 MSTORE POP DUP2 ADD SWAP1 PUSH2 0x2FB9 SWAP2 SWAP1 PUSH2 0x532F JUMP JUMPDEST DUP7 GT ISZERO JUMPDEST DUP1 ISZERO PUSH2 0x3048 JUMPI POP PUSH1 0xFB SLOAD PUSH1 0x40 MLOAD PUSH4 0x104B3791 PUSH1 0xE1 SHL DUP2 MSTORE PUSH1 0x1 PUSH1 0x1 PUSH1 0xA0 SHL SUB DUP6 DUP2 AND PUSH1 0x4 DUP4 ADD MSTORE PUSH3 0x10000 SWAP1 SWAP3 DIV SWAP1 SWAP2 AND SWAP1 PUSH4 0x20966F22 SWAP1 PUSH1 0x24 ADD PUSH1 0x20 PUSH1 0x40 MLOAD DUP1 DUP4 SUB DUP2 DUP7 DUP1 EXTCODESIZE ISZERO DUP1 ISZERO PUSH2 0x3010 JUMPI PUSH1 0x0 DUP1 REVERT JUMPDEST POP GAS STATICCALL ISZERO DUP1 ISZERO PUSH2 0x3024 JUMPI RETURNDATASIZE PUSH1 0x0 DUP1 RETURNDATACOPY RETURNDATASIZE PUSH1 0x0 REVERT JUMPDEST POP POP POP POP PUSH1 0x40 MLOAD RETURNDATASIZE PUSH1 0x1F NOT PUSH1 0x1F DUP3 ADD AND DUP3 ADD DUP1 PUSH1 0x40 MSTORE POP DUP2 ADD SWAP1 PUSH2 0x3048 SWAP2 SWAP1 PUSH2 0x52AF JUMP JUMPDEST PUSH2 0x3051 JUMPI PUSH1 0x0 DUP1 REVERT JUMPDEST PUSH2 0x10A DUP8 SWAP1 SSTORE PUSH2 0x107 DUP7 SWAP1 SSTORE PUSH2 0x10B DUP6 SWAP1 SSTORE DUP4 PUSH1 0x1 DUP2 GT ISZERO PUSH2 0x3083 JUMPI PUSH4 0x4E487B71 PUSH1 0xE0 SHL PUSH1 0x0 MSTORE PUSH1 0x21 PUSH1 0x4 MSTORE PUSH1 0x24 PUSH1 0x0 REVERT JUMPDEST PUSH1 0xFB DUP1 SLOAD PUSH1 0xFF NOT AND PUSH1 0x1 DUP4 DUP2 DUP2 GT ISZERO PUSH2 0x30AC JUMPI PUSH4 0x4E487B71 PUSH1 0xE0 SHL PUSH1 0x0 MSTORE PUSH1 0x21 PUSH1 0x4 MSTORE PUSH1 0x24 PUSH1 0x0 REVERT JUMPDEST MUL OR SWAP1 SSTORE POP PUSH2 0x104 DUP1 SLOAD PUSH1 0x1 PUSH1 0x1 PUSH1 0xA0 SHL SUB DUP6 AND PUSH1 0x1 PUSH1 0x1 PUSH1 0xA8 SHL SUB NOT SWAP1 SWAP2 AND DUP2 OR PUSH1 0x1 PUSH1 0xA0 SHL DUP6 ISZERO ISZERO MUL OR SWAP1 SWAP2 SSTORE PUSH2 0x105 SLOAD PUSH1 0x40 DUP1 MLOAD DUP10 DUP2 MSTORE PUSH1 0x20 DUP2 ADD DUP10 SWAP1 MSTORE SWAP1 DUP2 ADD DUP8 SWAP1 MSTORE PUSH1 0x60 DUP2 ADD SWAP3 SWAP1 SWAP3 MSTORE SWAP1 PUSH32 0x341C174A159499E44294B546B0FEE7036E11F279DBAB08D8ABD46165954CB94D SWAP1 PUSH1 0x80 ADD PUSH1 0x40 MLOAD DUP1 SWAP2 SUB SWAP1 LOG2 POP POP POP POP POP POP POP JUMP JUMPDEST PUSH1 0xFB SLOAD PUSH1 0x40 MLOAD PUSH4 0xF7878C69 PUSH1 0xE0 SHL DUP2 MSTORE CALLER PUSH1 0x4 DUP3 ADD MSTORE PUSH3 0x10000 SWAP1 SWAP2 DIV PUSH1 0x1 PUSH1 0x1 PUSH1 0xA0 SHL SUB AND SWAP1 PUSH4 0xF7878C69 SWAP1 PUSH1 0x24 ADD PUSH1 0x20 PUSH1 0x40 MLOAD DUP1 DUP4 SUB DUP2 DUP7 DUP1 EXTCODESIZE ISZERO DUP1 ISZERO PUSH2 0x317A JUMPI PUSH1 0x0 DUP1 REVERT JUMPDEST POP GAS STATICCALL ISZERO DUP1 ISZERO PUSH2 0x318E JUMPI RETURNDATASIZE PUSH1 0x0 DUP1 RETURNDATACOPY RETURNDATASIZE PUSH1 0x0 REVERT JUMPDEST POP POP POP POP PUSH1 0x40 MLOAD RETURNDATASIZE PUSH1 0x1F NOT PUSH1 0x1F DUP3 ADD AND DUP3 ADD DUP1 PUSH1 0x40 MSTORE POP DUP2 ADD SWAP1 PUSH2 0x31B2 SWAP2 SWAP1 PUSH2 0x52AF JUMP JUMPDEST DUP1 PUSH2 0x31C3 JUMPI POP PUSH2 0x31C3 PUSH1 0x0 CALLER PUSH2 0x2415 JUMP JUMPDEST PUSH2 0x31CC JUMPI PUSH1 0x0 DUP1 REVERT JUMPDEST PUSH1 0x0 DUP1 PUSH2 0x31F1 PUSH1 0xFB PUSH1 0x2 SWAP1 SLOAD SWAP1 PUSH2 0x100 EXP SWAP1 DIV PUSH1 0x1 PUSH1 0x1 PUSH1 0xA0 SHL SUB AND PUSH2 0x105 SLOAD PUSH2 0x4382 JUMP JUMPDEST SWAP1 SWAP5 POP SWAP3 POP DUP4 SWAP2 POP POP DUP1 ISZERO PUSH2 0x3203 JUMPI POP DUP1 JUMPDEST PUSH2 0x320C JUMPI PUSH1 0x0 DUP1 REVERT JUMPDEST CALLER PUSH1 0x0 PUSH2 0x322E PUSH1 0xFB PUSH1 0x2 SWAP1 SLOAD SWAP1 PUSH2 0x100 EXP SWAP1 DIV PUSH1 0x1 PUSH1 0x1 PUSH1 0xA0 SHL SUB AND DUP4 PUSH2 0x4420 JUMP JUMPDEST SWAP2 POP DUP2 SWAP1 POP PUSH2 0x323C JUMPI PUSH1 0x0 DUP1 REVERT JUMPDEST PUSH1 0x97 SLOAD PUSH1 0xFF AND ISZERO PUSH2 0x325F JUMPI PUSH1 0x40 MLOAD PUSH3 0x461BCD PUSH1 0xE5 SHL DUP2 MSTORE PUSH1 0x4 ADD PUSH2 0xD16 SWAP1 PUSH2 0x5577 JUMP JUMPDEST PUSH1 0xFE DUP10 DUP2 SLOAD DUP2 LT PUSH2 0x3280 JUMPI PUSH4 0x4E487B71 PUSH1 0xE0 SHL PUSH1 0x0 MSTORE PUSH1 0x32 PUSH1 0x4 MSTORE PUSH1 0x24 PUSH1 0x0 REVERT JUMPDEST PUSH1 0x0 SWAP2 DUP3 MSTORE PUSH1 0x20 SWAP1 SWAP2 KECCAK256 PUSH1 0x3 PUSH1 0x4 SWAP1 SWAP3 MUL ADD ADD SLOAD PUSH1 0xFF AND PUSH2 0x32A0 JUMPI PUSH1 0x0 DUP1 REVERT JUMPDEST DUP8 PUSH1 0xFE DUP11 DUP2 SLOAD DUP2 LT PUSH2 0x32C2 JUMPI PUSH4 0x4E487B71 PUSH1 0xE0 SHL PUSH1 0x0 MSTORE PUSH1 0x32 PUSH1 0x4 MSTORE PUSH1 0x24 PUSH1 0x0 REVERT JUMPDEST SWAP1 PUSH1 0x0 MSTORE PUSH1 0x20 PUSH1 0x0 KECCAK256 SWAP1 PUSH1 0x4 MUL ADD PUSH1 0x0 ADD DUP2 SWAP1 SSTORE POP DUP7 PUSH1 0xFE DUP11 DUP2 SLOAD DUP2 LT PUSH2 0x32F9 JUMPI PUSH4 0x4E487B71 PUSH1 0xE0 SHL PUSH1 0x0 MSTORE PUSH1 0x32 PUSH1 0x4 MSTORE PUSH1 0x24 PUSH1 0x0 REVERT JUMPDEST SWAP1 PUSH1 0x0 MSTORE PUSH1 0x20 PUSH1 0x0 KECCAK256 SWAP1 PUSH1 0x4 MUL ADD PUSH1 0x1 ADD DUP2 SWAP1 SSTORE POP DUP6 PUSH1 0xFE DUP11 DUP2 SLOAD DUP2 LT PUSH2 0x3330 JUMPI PUSH4 0x4E487B71 PUSH1 0xE0 SHL PUSH1 0x0 MSTORE PUSH1 0x32 PUSH1 0x4 MSTORE PUSH1 0x24 PUSH1 0x0 REVERT JUMPDEST SWAP1 PUSH1 0x0 MSTORE PUSH1 0x20 PUSH1 0x0 KECCAK256 SWAP1 PUSH1 0x4 MUL ADD PUSH1 0x2 ADD DUP2 SWAP1 SSTORE POP DUP5 PUSH1 0xFE DUP11 DUP2 SLOAD DUP2 LT PUSH2 0x3367 JUMPI PUSH4 0x4E487B71 PUSH1 0xE0 SHL PUSH1 0x0 MSTORE PUSH1 0x32 PUSH1 0x4 MSTORE PUSH1 0x24 PUSH1 0x0 REVERT JUMPDEST PUSH1 0x0 SWAP2 DUP3 MSTORE PUSH1 0x20 SWAP2 DUP3 SWAP1 KECCAK256 PUSH1 0x3 PUSH1 0x4 SWAP1 SWAP3 MUL ADD ADD DUP1 SLOAD SWAP3 ISZERO ISZERO PUSH2 0x100 MUL PUSH2 0xFF00 NOT SWAP1 SWAP4 AND SWAP3 SWAP1 SWAP3 OR SWAP1 SWAP2 SSTORE PUSH2 0x105 SLOAD PUSH1 0x40 DUP1 MLOAD DUP13 DUP2 MSTORE SWAP3 DUP4 ADD SWAP2 SWAP1 SWAP2 MSTORE DUP2 ADD DUP10 SWAP1 MSTORE PUSH1 0x60 DUP2 ADD DUP9 SWAP1 MSTORE PUSH1 0x80 DUP2 ADD DUP8 SWAP1 MSTORE DUP6 ISZERO ISZERO PUSH1 0xA0 DUP3 ADD MSTORE PUSH32 0xCF748295AD8DB10A7FEB1837F65DE7B13F80501D9720452D7F3732858E057D5D SWAP1 PUSH1 0xC0 ADD PUSH1 0x40 MLOAD DUP1 SWAP2 SUB SWAP1 LOG1 POP POP POP POP POP POP POP POP POP JUMP JUMPDEST PUSH1 0x0 DUP1 PUSH2 0x341C PUSH1 0xFB PUSH1 0x2 SWAP1 SLOAD SWAP1 PUSH2 0x100 EXP SWAP1 DIV PUSH1 0x1 PUSH1 0x1 PUSH1 0xA0 SHL SUB AND PUSH2 0x105 SLOAD PUSH2 0x4382 JUMP JUMPDEST SWAP1 SWAP5 POP SWAP3 POP DUP4 SWAP2 POP POP DUP1 ISZERO PUSH2 0x342E JUMPI POP DUP1 JUMPDEST PUSH2 0x3437 JUMPI PUSH1 0x0 DUP1 REVERT JUMPDEST CALLER PUSH1 0x0 SWAP1 DUP2 MSTORE PUSH2 0x111 PUSH1 0x20 MSTORE PUSH1 0x40 SWAP1 KECCAK256 SLOAD DUP4 SWAP1 PUSH1 0xFF AND DUP1 ISZERO PUSH2 0x349A JUMPI POP PUSH1 0xFC DUP2 DUP2 SLOAD DUP2 LT PUSH2 0x3475 JUMPI PUSH4 0x4E487B71 PUSH1 0xE0 SHL PUSH1 0x0 MSTORE PUSH1 0x32 PUSH1 0x4 MSTORE PUSH1 0x24 PUSH1 0x0 REVERT JUMPDEST PUSH1 0x0 SWAP2 DUP3 MSTORE PUSH1 0x20 DUP1 DUP4 KECCAK256 CALLER DUP5 MSTORE PUSH1 0x5 PUSH1 0x6 SWAP1 SWAP4 MUL ADD SWAP2 SWAP1 SWAP2 ADD SWAP1 MSTORE PUSH1 0x40 SWAP1 KECCAK256 SLOAD PUSH1 0xFF AND ISZERO JUMPDEST DUP1 ISZERO PUSH2 0x34D8 JUMPI POP PUSH1 0xFC DUP2 DUP2 SLOAD DUP2 LT PUSH2 0x34C2 JUMPI PUSH4 0x4E487B71 PUSH1 0xE0 SHL PUSH1 0x0 MSTORE PUSH1 0x32 PUSH1 0x4 MSTORE PUSH1 0x24 PUSH1 0x0 REVERT JUMPDEST SWAP1 PUSH1 0x0 MSTORE PUSH1 0x20 PUSH1 0x0 KECCAK256 SWAP1 PUSH1 0x6 MUL ADD PUSH1 0x4 ADD SLOAD TIMESTAMP GT ISZERO JUMPDEST PUSH2 0x34E1 JUMPI PUSH1 0x0 DUP1 REVERT JUMPDEST CALLER PUSH1 0x0 PUSH2 0x3503 PUSH1 0xFB PUSH1 0x2 SWAP1 SLOAD SWAP1 PUSH2 0x100 EXP SWAP1 DIV PUSH1 0x1 PUSH1 0x1 PUSH1 0xA0 SHL SUB AND DUP4 PUSH2 0x4420 JUMP JUMPDEST SWAP2 POP DUP2 SWAP1 POP PUSH2 0x3511 JUMPI PUSH1 0x0 DUP1 REVERT JUMPDEST PUSH1 0x97 SLOAD PUSH1 0xFF AND ISZERO PUSH2 0x3534 JUMPI PUSH1 0x40 MLOAD PUSH3 0x461BCD PUSH1 0xE5 SHL DUP2 MSTORE PUSH1 0x4 ADD PUSH2 0xD16 SWAP1 PUSH2 0x5577 JUMP JUMPDEST PUSH1 0x0 PUSH1 0xFC DUP8 DUP2 SLOAD DUP2 LT PUSH2 0x3557 JUMPI PUSH4 0x4E487B71 PUSH1 0xE0 SHL PUSH1 0x0 MSTORE PUSH1 0x32 PUSH1 0x4 MSTORE PUSH1 0x24 PUSH1 0x0 REVERT JUMPDEST PUSH1 0x0 SWAP2 DUP3 MSTORE PUSH1 0x20 DUP1 DUP4 KECCAK256 CALLER DUP5 MSTORE PUSH1 0x6 SWAP3 SWAP1 SWAP3 MUL SWAP1 SWAP2 ADD PUSH1 0x5 ADD SWAP1 MSTORE PUSH1 0x40 SWAP1 KECCAK256 DUP1 SLOAD PUSH1 0xFF NOT AND SWAP2 ISZERO ISZERO SWAP2 SWAP1 SWAP2 OR SWAP1 SSTORE PUSH1 0xFC DUP1 SLOAD PUSH2 0x35CE SWAP2 PUSH1 0x1 SWAP2 DUP10 SWAP1 DUP2 LT PUSH2 0x35AE JUMPI PUSH4 0x4E487B71 PUSH1 0xE0 SHL PUSH1 0x0 MSTORE PUSH1 0x32 PUSH1 0x4 MSTORE PUSH1 0x24 PUSH1 0x0 REVERT JUMPDEST SWAP1 PUSH1 0x0 MSTORE PUSH1 0x20 PUSH1 0x0 KECCAK256 SWAP1 PUSH1 0x6 MUL ADD PUSH1 0x2 ADD SLOAD PUSH2 0x46D9 SWAP1 SWAP2 SWAP1 PUSH4 0xFFFFFFFF AND JUMP JUMPDEST PUSH1 0xFC DUP8 DUP2 SLOAD DUP2 LT PUSH2 0x35EF JUMPI PUSH4 0x4E487B71 PUSH1 0xE0 SHL PUSH1 0x0 MSTORE PUSH1 0x32 PUSH1 0x4 MSTORE PUSH1 0x24 PUSH1 0x0 REVERT JUMPDEST SWAP1 PUSH1 0x0 MSTORE PUSH1 0x20 PUSH1 0x0 KECCAK256 SWAP1 PUSH1 0x6 MUL ADD PUSH1 0x2 ADD DUP2 SWAP1 SSTORE POP PUSH32 0xC7339C6F9B9B0262DD4030219125CD3FB06A12404375DD34E220F57B613447C7 DUP7 PUSH1 0x40 MLOAD PUSH2 0x3635 SWAP2 DUP2 MSTORE PUSH1 0x20 ADD SWAP1 JUMP JUMPDEST PUSH1 0x40 MLOAD DUP1 SWAP2 SUB SWAP1 LOG1 POP POP POP POP POP POP JUMP JUMPDEST PUSH1 0xFB SLOAD PUSH1 0x40 MLOAD PUSH4 0xF7878C69 PUSH1 0xE0 SHL DUP2 MSTORE CALLER PUSH1 0x4 DUP3 ADD MSTORE PUSH3 0x10000 SWAP1 SWAP2 DIV PUSH1 0x1 PUSH1 0x1 PUSH1 0xA0 SHL SUB AND SWAP1 PUSH4 0xF7878C69 SWAP1 PUSH1 0x24 ADD PUSH1 0x20 PUSH1 0x40 MLOAD DUP1 DUP4 SUB DUP2 DUP7 DUP1 EXTCODESIZE ISZERO DUP1 ISZERO PUSH2 0x368D JUMPI PUSH1 0x0 DUP1 REVERT JUMPDEST POP GAS STATICCALL ISZERO DUP1 ISZERO PUSH2 0x36A1 JUMPI RETURNDATASIZE PUSH1 0x0 DUP1 RETURNDATACOPY RETURNDATASIZE PUSH1 0x0 REVERT JUMPDEST POP POP POP POP PUSH1 0x40 MLOAD RETURNDATASIZE PUSH1 0x1F NOT PUSH1 0x1F DUP3 ADD AND DUP3 ADD DUP1 PUSH1 0x40 MSTORE POP DUP2 ADD SWAP1 PUSH2 0x36C5 SWAP2 SWAP1 PUSH2 0x52AF JUMP JUMPDEST DUP1 PUSH2 0x36D6 JUMPI POP PUSH2 0x36D6 PUSH1 0x0 CALLER PUSH2 0x2415 JUMP JUMPDEST PUSH2 0x36DF JUMPI PUSH1 0x0 DUP1 REVERT JUMPDEST PUSH1 0x0 DUP1 PUSH2 0x3704 PUSH1 0xFB PUSH1 0x2 SWAP1 SLOAD SWAP1 PUSH2 0x100 EXP SWAP1 DIV PUSH1 0x1 PUSH1 0x1 PUSH1 0xA0 SHL SUB AND PUSH2 0x105 SLOAD PUSH2 0x4382 JUMP JUMPDEST SWAP1 SWAP5 POP SWAP3 POP DUP4 SWAP2 POP POP DUP1 ISZERO PUSH2 0x3716 JUMPI POP DUP1 JUMPDEST PUSH2 0x371F JUMPI PUSH1 0x0 DUP1 REVERT JUMPDEST CALLER PUSH1 0x0 PUSH2 0x3741 PUSH1 0xFB PUSH1 0x2 SWAP1 SLOAD SWAP1 PUSH2 0x100 EXP SWAP1 DIV PUSH1 0x1 PUSH1 0x1 PUSH1 0xA0 SHL SUB AND DUP4 PUSH2 0x4420 JUMP JUMPDEST SWAP2 POP DUP2 SWAP1 POP PUSH2 0x374F JUMPI PUSH1 0x0 DUP1 REVERT JUMPDEST PUSH1 0x97 SLOAD PUSH1 0xFF AND ISZERO PUSH2 0x3772 JUMPI PUSH1 0x40 MLOAD PUSH3 0x461BCD PUSH1 0xE5 SHL DUP2 MSTORE PUSH1 0x4 ADD PUSH2 0xD16 SWAP1 PUSH2 0x5577 JUMP JUMPDEST PUSH1 0xFE DUP6 DUP2 SLOAD DUP2 LT PUSH2 0x3793 JUMPI PUSH4 0x4E487B71 PUSH1 0xE0 SHL PUSH1 0x0 MSTORE PUSH1 0x32 PUSH1 0x4 MSTORE PUSH1 0x24 PUSH1 0x0 REVERT JUMPDEST PUSH1 0x0 SWAP2 DUP3 MSTORE PUSH1 0x20 SWAP1 SWAP2 KECCAK256 PUSH1 0x3 PUSH1 0x4 SWAP1 SWAP3 MUL ADD ADD SLOAD PUSH1 0xFF AND PUSH2 0x37B3 JUMPI PUSH1 0x0 DUP1 REVERT JUMPDEST PUSH1 0xFE DUP6 DUP2 SLOAD DUP2 LT PUSH2 0x37D4 JUMPI PUSH4 0x4E487B71 PUSH1 0xE0 SHL PUSH1 0x0 MSTORE PUSH1 0x32 PUSH1 0x4 MSTORE PUSH1 0x24 PUSH1 0x0 REVERT JUMPDEST PUSH1 0x0 SWAP2 DUP3 MSTORE PUSH1 0x20 DUP3 KECCAK256 PUSH1 0x4 SWAP1 SWAP2 MUL ADD DUP2 DUP2 SSTORE PUSH1 0x1 DUP2 ADD DUP3 SWAP1 SSTORE PUSH1 0x2 DUP2 ADD SWAP2 SWAP1 SWAP2 SSTORE PUSH1 0x3 ADD DUP1 SLOAD PUSH2 0xFFFF NOT AND SWAP1 SSTORE PUSH1 0x40 MLOAD PUSH32 0x41180EAC7821509B09C187E6116A43CC97AA2B97CE4E20C974C2C7646EABF9EC SWAP1 PUSH2 0x3833 SWAP1 DUP8 DUP2 MSTORE PUSH1 0x20 ADD SWAP1 JUMP JUMPDEST PUSH1 0x40 MLOAD DUP1 SWAP2 SUB SWAP1 LOG1 POP POP POP POP POP JUMP JUMPDEST PUSH1 0x0 DUP3 DUP2 MSTORE PUSH1 0x65 PUSH1 0x20 MSTORE PUSH1 0x40 SWAP1 KECCAK256 PUSH1 0x1 ADD SLOAD PUSH2 0x385E DUP2 CALLER PUSH2 0x4819 JUMP JUMPDEST PUSH2 0x11DC DUP4 DUP4 PUSH2 0x4903 JUMP JUMPDEST PUSH1 0x0 DUP1 PUSH2 0x388D PUSH1 0xFB PUSH1 0x2 SWAP1 SLOAD SWAP1 PUSH2 0x100 EXP SWAP1 DIV PUSH1 0x1 PUSH1 0x1 PUSH1 0xA0 SHL SUB AND PUSH2 0x105 SLOAD PUSH2 0x4382 JUMP JUMPDEST SWAP1 SWAP5 POP SWAP3 POP DUP4 SWAP2 POP POP DUP1 ISZERO PUSH2 0x389F JUMPI POP DUP1 JUMPDEST PUSH2 0x38A8 JUMPI PUSH1 0x0 DUP1 REVERT JUMPDEST CALLER PUSH1 0x0 PUSH2 0x38CA PUSH1 0xFB PUSH1 0x2 SWAP1 SLOAD SWAP1 PUSH2 0x100 EXP SWAP1 DIV PUSH1 0x1 PUSH1 0x1 PUSH1 0xA0 SHL SUB AND DUP4 PUSH2 0x4420 JUMP JUMPDEST SWAP2 POP DUP2 SWAP1 POP PUSH2 0x38D8 JUMPI PUSH1 0x0 DUP1 REVERT JUMPDEST PUSH1 0x97 SLOAD PUSH1 0xFF AND ISZERO PUSH2 0x38FB JUMPI PUSH1 0x40 MLOAD PUSH3 0x461BCD PUSH1 0xE5 SHL DUP2 MSTORE PUSH1 0x4 ADD PUSH2 0xD16 SWAP1 PUSH2 0x5577 JUMP JUMPDEST PUSH1 0x2 PUSH1 0xC9 SLOAD EQ ISZERO PUSH2 0x391E JUMPI PUSH1 0x40 MLOAD PUSH3 0x461BCD PUSH1 0xE5 SHL DUP2 MSTORE PUSH1 0x4 ADD PUSH2 0xD16 SWAP1 PUSH2 0x55A1 JUMP JUMPDEST PUSH1 0x2 PUSH1 0xC9 SSTORE PUSH2 0x392E CALLER DUP7 DUP9 PUSH2 0x496A JUMP JUMPDEST POP POP PUSH1 0x1 PUSH1 0xC9 SSTORE POP POP POP POP JUMP JUMPDEST PUSH1 0x0 DUP1 PUSH2 0x3960 PUSH1 0xFB PUSH1 0x2 SWAP1 SLOAD SWAP1 PUSH2 0x100 EXP SWAP1 DIV PUSH1 0x1 PUSH1 0x1 PUSH1 0xA0 SHL SUB AND PUSH2 0x105 SLOAD PUSH2 0x4382 JUMP JUMPDEST SWAP1 SWAP5 POP SWAP3 POP DUP4 SWAP2 POP POP DUP1 ISZERO PUSH2 0x3972 JUMPI POP DUP1 JUMPDEST PUSH2 0x397B JUMPI PUSH1 0x0 DUP1 REVERT JUMPDEST CALLER PUSH1 0x0 SWAP1 DUP2 MSTORE PUSH2 0x111 PUSH1 0x20 MSTORE PUSH1 0x40 SWAP1 KECCAK256 SLOAD DUP4 SWAP1 PUSH1 0xFF AND DUP1 ISZERO PUSH2 0x39DE JUMPI POP PUSH1 0xFC DUP2 DUP2 SLOAD DUP2 LT PUSH2 0x39B9 JUMPI PUSH4 0x4E487B71 PUSH1 0xE0 SHL PUSH1 0x0 MSTORE PUSH1 0x32 PUSH1 0x4 MSTORE PUSH1 0x24 PUSH1 0x0 REVERT JUMPDEST PUSH1 0x0 SWAP2 DUP3 MSTORE PUSH1 0x20 DUP1 DUP4 KECCAK256 CALLER DUP5 MSTORE PUSH1 0x5 PUSH1 0x6 SWAP1 SWAP4 MUL ADD SWAP2 SWAP1 SWAP2 ADD SWAP1 MSTORE PUSH1 0x40 SWAP1 KECCAK256 SLOAD PUSH1 0xFF AND ISZERO JUMPDEST DUP1 ISZERO PUSH2 0x3A1C JUMPI POP PUSH1 0xFC DUP2 DUP2 SLOAD DUP2 LT PUSH2 0x3A06 JUMPI PUSH4 0x4E487B71 PUSH1 0xE0 SHL PUSH1 0x0 MSTORE PUSH1 0x32 PUSH1 0x4 MSTORE PUSH1 0x24 PUSH1 0x0 REVERT JUMPDEST SWAP1 PUSH1 0x0 MSTORE PUSH1 0x20 PUSH1 0x0 KECCAK256 SWAP1 PUSH1 0x6 MUL ADD PUSH1 0x4 ADD SLOAD TIMESTAMP GT ISZERO JUMPDEST PUSH2 0x3A25 JUMPI PUSH1 0x0 DUP1 REVERT JUMPDEST CALLER PUSH1 0x0 PUSH2 0x3A47 PUSH1 0xFB PUSH1 0x2 SWAP1 SLOAD SWAP1 PUSH2 0x100 EXP SWAP1 DIV PUSH1 0x1 PUSH1 0x1 PUSH1 0xA0 SHL SUB AND DUP4 PUSH2 0x4420 JUMP JUMPDEST SWAP2 POP DUP2 SWAP1 POP PUSH2 0x3A55 JUMPI PUSH1 0x0 DUP1 REVERT JUMPDEST PUSH1 0x97 SLOAD PUSH1 0xFF AND ISZERO PUSH2 0x3A78 JUMPI PUSH1 0x40 MLOAD PUSH3 0x461BCD PUSH1 0xE5 SHL DUP2 MSTORE PUSH1 0x4 ADD PUSH2 0xD16 SWAP1 PUSH2 0x5577 JUMP JUMPDEST PUSH1 0x1 PUSH1 0xFC DUP8 DUP2 SLOAD DUP2 LT PUSH2 0x3A9B JUMPI PUSH4 0x4E487B71 PUSH1 0xE0 SHL PUSH1 0x0 MSTORE PUSH1 0x32 PUSH1 0x4 MSTORE PUSH1 0x24 PUSH1 0x0 REVERT JUMPDEST PUSH1 0x0 SWAP2 DUP3 MSTORE PUSH1 0x20 DUP1 DUP4 KECCAK256 CALLER DUP5 MSTORE PUSH1 0x6 SWAP3 SWAP1 SWAP3 MUL SWAP1 SWAP2 ADD PUSH1 0x5 ADD SWAP1 MSTORE PUSH1 0x40 SWAP1 KECCAK256 DUP1 SLOAD PUSH1 0xFF NOT AND SWAP2 ISZERO ISZERO SWAP2 SWAP1 SWAP2 OR SWAP1 SSTORE PUSH1 0xFC DUP1 SLOAD PUSH2 0x3B12 SWAP2 PUSH1 0x1 SWAP2 DUP10 SWAP1 DUP2 LT PUSH2 0x3AF2 JUMPI PUSH4 0x4E487B71 PUSH1 0xE0 SHL PUSH1 0x0 MSTORE PUSH1 0x32 PUSH1 0x4 MSTORE PUSH1 0x24 PUSH1 0x0 REVERT JUMPDEST SWAP1 PUSH1 0x0 MSTORE PUSH1 0x20 PUSH1 0x0 KECCAK256 SWAP1 PUSH1 0x6 MUL ADD PUSH1 0x2 ADD SLOAD PUSH2 0x46E5 SWAP1 SWAP2 SWAP1 PUSH4 0xFFFFFFFF AND JUMP JUMPDEST PUSH1 0xFC DUP8 DUP2 SLOAD DUP2 LT PUSH2 0x3B33 JUMPI PUSH4 0x4E487B71 PUSH1 0xE0 SHL PUSH1 0x0 MSTORE PUSH1 0x32 PUSH1 0x4 MSTORE PUSH1 0x24 PUSH1 0x0 REVERT JUMPDEST SWAP1 PUSH1 0x0 MSTORE PUSH1 0x20 PUSH1 0x0 KECCAK256 SWAP1 PUSH1 0x6 MUL ADD PUSH1 0x2 ADD DUP2 SWAP1 SSTORE POP PUSH32 0x7F511E347BF51EED3BE100B3194247D5207F05F3B33DE7D31E3E8EE73199A049 DUP7 PUSH1 0x40 MLOAD PUSH2 0x3635 SWAP2 DUP2 MSTORE PUSH1 0x20 ADD SWAP1 JUMP JUMPDEST PUSH2 0x101 DUP2 DUP2 SLOAD DUP2 LT PUSH2 0x3B8A JUMPI PUSH1 0x0 DUP1 REVERT JUMPDEST PUSH1 0x0 SWAP2 DUP3 MSTORE PUSH1 0x20 SWAP1 SWAP2 KECCAK256 PUSH1 0x3 SWAP1 SWAP2 MUL ADD DUP1 SLOAD PUSH1 0x1 DUP3 ADD SLOAD PUSH1 0x2 SWAP1 SWAP3 ADD SLOAD PUSH1 0x1 PUSH1 0x1 PUSH1 0xA0 SHL SUB SWAP1 SWAP2 AND SWAP3 POP DUP4 JUMP JUMPDEST CALLER PUSH1 0x0 PUSH2 0x3BD9 PUSH1 0xFB PUSH1 0x2 SWAP1 SLOAD SWAP1 PUSH2 0x100 EXP SWAP1 DIV PUSH1 0x1 PUSH1 0x1 PUSH1 0xA0 SHL SUB AND DUP4 PUSH2 0x4420 JUMP JUMPDEST SWAP2 POP DUP2 SWAP1 POP PUSH2 0x3BE7 JUMPI PUSH1 0x0 DUP1 REVERT JUMPDEST PUSH1 0xFB SLOAD PUSH1 0x40 MLOAD PUSH4 0xF7878C69 PUSH1 0xE0 SHL DUP2 MSTORE CALLER PUSH1 0x4 DUP3 ADD MSTORE PUSH3 0x10000 SWAP1 SWAP2 DIV PUSH1 0x1 PUSH1 0x1 PUSH1 0xA0 SHL SUB AND SWAP1 PUSH4 0xF7878C69 SWAP1 PUSH1 0x24 ADD PUSH1 0x20 PUSH1 0x40 MLOAD DUP1 DUP4 SUB DUP2 DUP7 DUP1 EXTCODESIZE ISZERO DUP1 ISZERO PUSH2 0x3C2F JUMPI PUSH1 0x0 DUP1 REVERT JUMPDEST POP GAS STATICCALL ISZERO DUP1 ISZERO PUSH2 0x3C43 JUMPI RETURNDATASIZE PUSH1 0x0 DUP1 RETURNDATACOPY RETURNDATASIZE PUSH1 0x0 REVERT JUMPDEST POP POP POP POP PUSH1 0x40 MLOAD RETURNDATASIZE PUSH1 0x1F NOT PUSH1 0x1F DUP3 ADD AND DUP3 ADD DUP1 PUSH1 0x40 MSTORE POP DUP2 ADD SWAP1 PUSH2 0x3C67 SWAP2 SWAP1 PUSH2 0x52AF JUMP JUMPDEST DUP1 PUSH2 0x3C78 JUMPI POP PUSH2 0x3C78 PUSH1 0x0 CALLER PUSH2 0x2415 JUMP JUMPDEST PUSH2 0x3C81 JUMPI PUSH1 0x0 DUP1 REVERT JUMPDEST PUSH1 0x0 DUP1 PUSH2 0x3CA6 PUSH1 0xFB PUSH1 0x2 SWAP1 SLOAD SWAP1 PUSH2 0x100 EXP SWAP1 DIV PUSH1 0x1 PUSH1 0x1 PUSH1 0xA0 SHL SUB AND PUSH2 0x105 SLOAD PUSH2 0x4382 JUMP JUMPDEST SWAP1 SWAP5 POP SWAP3 POP DUP4 SWAP2 POP POP DUP1 ISZERO PUSH2 0x3CB8 JUMPI POP DUP1 JUMPDEST PUSH2 0x3CC1 JUMPI PUSH1 0x0 DUP1 REVERT JUMPDEST PUSH1 0x97 SLOAD PUSH1 0xFF AND PUSH2 0x3CE3 JUMPI PUSH1 0x40 MLOAD PUSH3 0x461BCD PUSH1 0xE5 SHL DUP2 MSTORE PUSH1 0x4 ADD PUSH2 0xD16 SWAP1 PUSH2 0x5549 JUMP JUMPDEST PUSH2 0x3D01 PUSH2 0x2710 PUSH2 0xDFD PUSH2 0x1F40 PUSH2 0x109 SLOAD PUSH2 0x46CD SWAP1 SWAP2 SWAP1 PUSH4 0xFFFFFFFF AND JUMP JUMPDEST PUSH2 0x10D SLOAD LT ISZERO DUP1 ISZERO PUSH2 0x3D3C JUMPI POP PUSH1 0x3 PUSH1 0xFB SLOAD PUSH2 0x100 SWAP1 DIV PUSH1 0xFF AND PUSH1 0x5 DUP2 GT ISZERO PUSH2 0x3D3A JUMPI PUSH4 0x4E487B71 PUSH1 0xE0 SHL PUSH1 0x0 MSTORE PUSH1 0x21 PUSH1 0x4 MSTORE PUSH1 0x24 PUSH1 0x0 REVERT JUMPDEST EQ JUMPDEST PUSH2 0x3D45 JUMPI PUSH1 0x0 DUP1 REVERT JUMPDEST PUSH1 0xFB DUP1 SLOAD PUSH2 0xFF00 NOT AND PUSH2 0x400 OR SWAP1 SSTORE PUSH2 0x105 SLOAD PUSH1 0x40 MLOAD PUSH32 0x769FE02AD955196068A57B86253EA47B981F52918E04CD477B187C5858914904 SWAP2 PUSH2 0x13E0 SWAP2 PUSH1 0x4 SWAP1 PUSH2 0x55D8 JUMP JUMPDEST PUSH1 0xFE DUP2 DUP2 SLOAD DUP2 LT PUSH2 0x3D99 JUMPI PUSH1 0x0 DUP1 REVERT JUMPDEST PUSH1 0x0 SWAP2 DUP3 MSTORE PUSH1 0x20 SWAP1 SWAP2 KECCAK256 PUSH1 0x4 SWAP1 SWAP2 MUL ADD DUP1 SLOAD PUSH1 0x1 DUP3 ADD SLOAD PUSH1 0x2 DUP4 ADD SLOAD PUSH1 0x3 SWAP1 SWAP4 ADD SLOAD SWAP2 SWAP4 POP SWAP2 SWAP1 PUSH1 0xFF DUP1 DUP3 AND SWAP2 PUSH2 0x100 SWAP1 DIV AND DUP6 JUMP JUMPDEST PUSH1 0xFB SLOAD PUSH1 0x40 MLOAD PUSH4 0xF7878C69 PUSH1 0xE0 SHL DUP2 MSTORE CALLER PUSH1 0x4 DUP3 ADD MSTORE PUSH3 0x10000 SWAP1 SWAP2 DIV PUSH1 0x1 PUSH1 0x1 PUSH1 0xA0 SHL SUB AND SWAP1 PUSH4 0xF7878C69 SWAP1 PUSH1 0x24 ADD PUSH1 0x20 PUSH1 0x40 MLOAD DUP1 DUP4 SUB DUP2 DUP7 DUP1 EXTCODESIZE ISZERO DUP1 ISZERO PUSH2 0x3E17 JUMPI PUSH1 0x0 DUP1 REVERT JUMPDEST POP GAS STATICCALL ISZERO DUP1 ISZERO PUSH2 0x3E2B JUMPI RETURNDATASIZE PUSH1 0x0 DUP1 RETURNDATACOPY RETURNDATASIZE PUSH1 0x0 REVERT JUMPDEST POP POP POP POP PUSH1 0x40 MLOAD RETURNDATASIZE PUSH1 0x1F NOT PUSH1 0x1F DUP3 ADD AND DUP3 ADD DUP1 PUSH1 0x40 MSTORE POP DUP2 ADD SWAP1 PUSH2 0x3E4F SWAP2 SWAP1 PUSH2 0x52AF JUMP JUMPDEST DUP1 PUSH2 0x3E60 JUMPI POP PUSH2 0x3E60 PUSH1 0x0 CALLER PUSH2 0x2415 JUMP JUMPDEST PUSH2 0x3E69 JUMPI PUSH1 0x0 DUP1 REVERT JUMPDEST PUSH1 0x0 DUP1 PUSH2 0x3E8E PUSH1 0xFB PUSH1 0x2 SWAP1 SLOAD SWAP1 PUSH2 0x100 EXP SWAP1 DIV PUSH1 0x1 PUSH1 0x1 PUSH1 0xA0 SHL SUB AND PUSH2 0x105 SLOAD PUSH2 0x4382 JUMP JUMPDEST SWAP1 SWAP5 POP SWAP3 POP DUP4 SWAP2 POP POP DUP1 ISZERO PUSH2 0x3EA0 JUMPI POP DUP1 JUMPDEST PUSH2 0x3EA9 JUMPI PUSH1 0x0 DUP1 REVERT JUMPDEST CALLER PUSH1 0x0 PUSH2 0x3ECB PUSH1 0xFB PUSH1 0x2 SWAP1 SLOAD SWAP1 PUSH2 0x100 EXP SWAP1 DIV PUSH1 0x1 PUSH1 0x1 PUSH1 0xA0 SHL SUB AND DUP4 PUSH2 0x4420 JUMP JUMPDEST SWAP2 POP DUP2 SWAP1 POP PUSH2 0x3ED9 JUMPI PUSH1 0x0 DUP1 REVERT JUMPDEST PUSH1 0x97 SLOAD PUSH1 0xFF AND ISZERO PUSH2 0x3EFC JUMPI PUSH1 0x40 MLOAD PUSH3 0x461BCD PUSH1 0xE5 SHL DUP2 MSTORE PUSH1 0x4 ADD PUSH2 0xD16 SWAP1 PUSH2 0x5577 JUMP JUMPDEST PUSH2 0x10B SLOAD TIMESTAMP GT ISZERO PUSH2 0x3F0C JUMPI PUSH1 0x0 DUP1 REVERT JUMPDEST PUSH1 0x0 PUSH1 0xFB SLOAD PUSH1 0xFF AND PUSH1 0x1 DUP2 GT ISZERO PUSH2 0x3F33 JUMPI PUSH4 0x4E487B71 PUSH1 0xE0 SHL PUSH1 0x0 MSTORE PUSH1 0x21 PUSH1 0x4 MSTORE PUSH1 0x24 PUSH1 0x0 REVERT JUMPDEST EQ ISZERO PUSH2 0x3F4C JUMPI PUSH2 0x10A SLOAD PUSH2 0x106 SLOAD LT ISZERO PUSH2 0x3F4C JUMPI PUSH1 0x0 DUP1 REVERT JUMPDEST PUSH1 0x0 PUSH2 0x3F70 PUSH1 0xFB PUSH1 0x2 SWAP1 SLOAD SWAP1 PUSH2 0x100 EXP SWAP1 DIV PUSH1 0x1 PUSH1 0x1 PUSH1 0xA0 SHL SUB AND PUSH2 0x105 SLOAD PUSH2 0x4549 JUMP JUMPDEST SWAP1 POP PUSH1 0x1 PUSH1 0x1 PUSH1 0xA0 SHL SUB DUP9 AND PUSH2 0x3F85 JUMPI PUSH1 0x0 DUP1 REVERT JUMPDEST PUSH1 0x2 PUSH1 0xFB SLOAD PUSH2 0x100 SWAP1 DIV PUSH1 0xFF AND PUSH1 0x5 DUP2 GT ISZERO PUSH2 0x3FB1 JUMPI PUSH4 0x4E487B71 PUSH1 0xE0 SHL PUSH1 0x0 MSTORE PUSH1 0x21 PUSH1 0x4 MSTORE PUSH1 0x24 PUSH1 0x0 REVERT JUMPDEST EQ PUSH2 0x3FBB JUMPI PUSH1 0x0 DUP1 REVERT JUMPDEST PUSH2 0x2710 PUSH2 0x3FC8 DUP9 DUP4 PUSH2 0x46CD JUMP JUMPDEST LT ISZERO PUSH2 0x3FD3 JUMPI PUSH1 0x0 DUP1 REVERT JUMPDEST PUSH1 0xFB PUSH1 0x2 SWAP1 SLOAD SWAP1 PUSH2 0x100 EXP SWAP1 DIV PUSH1 0x1 PUSH1 0x1 PUSH1 0xA0 SHL SUB AND PUSH1 0x1 PUSH1 0x1 PUSH1 0xA0 SHL SUB AND PUSH4 0x3511574 PUSH1 0x40 MLOAD DUP2 PUSH4 0xFFFFFFFF AND PUSH1 0xE0 SHL DUP2 MSTORE PUSH1 0x4 ADD PUSH1 0x20 PUSH1 0x40 MLOAD DUP1 DUP4 SUB DUP2 DUP7 DUP1 EXTCODESIZE ISZERO DUP1 ISZERO PUSH2 0x4021 JUMPI PUSH1 0x0 DUP1 REVERT JUMPDEST POP GAS STATICCALL ISZERO DUP1 ISZERO PUSH2 0x4035 JUMPI RETURNDATASIZE PUSH1 0x0 DUP1 RETURNDATACOPY RETURNDATASIZE PUSH1 0x0 REVERT JUMPDEST POP POP POP POP PUSH1 0x40 MLOAD RETURNDATASIZE PUSH1 0x1F NOT PUSH1 0x1F DUP3 ADD AND DUP3 ADD DUP1 PUSH1 0x40 MSTORE POP DUP2 ADD SWAP1 PUSH2 0x4059 SWAP2 SWAP1 PUSH2 0x532F JUMP JUMPDEST DUP7 LT ISZERO DUP1 ISZERO PUSH2 0x40ED JUMPI POP PUSH1 0xFB PUSH1 0x2 SWAP1 SLOAD SWAP1 PUSH2 0x100 EXP SWAP1 DIV PUSH1 0x1 PUSH1 0x1 PUSH1 0xA0 SHL SUB AND PUSH1 0x1 PUSH1 0x1 PUSH1 0xA0 SHL SUB AND PUSH4 0xDFEF1F1F PUSH1 0x40 MLOAD DUP2 PUSH4 0xFFFFFFFF AND PUSH1 0xE0 SHL DUP2 MSTORE PUSH1 0x4 ADD PUSH1 0x20 PUSH1 0x40 MLOAD DUP1 DUP4 SUB DUP2 DUP7 DUP1 EXTCODESIZE ISZERO DUP1 ISZERO PUSH2 0x40B1 JUMPI PUSH1 0x0 DUP1 REVERT JUMPDEST POP GAS STATICCALL ISZERO DUP1 ISZERO PUSH2 0x40C5 JUMPI RETURNDATASIZE PUSH1 0x0 DUP1 RETURNDATACOPY RETURNDATASIZE PUSH1 0x0 REVERT JUMPDEST POP POP POP POP PUSH1 0x40 MLOAD RETURNDATASIZE PUSH1 0x1F NOT PUSH1 0x1F DUP3 ADD AND DUP3 ADD DUP1 PUSH1 0x40 MSTORE POP DUP2 ADD SWAP1 PUSH2 0x40E9 SWAP2 SWAP1 PUSH2 0x532F JUMP JUMPDEST DUP7 GT ISZERO JUMPDEST PUSH2 0x40F6 JUMPI PUSH1 0x0 DUP1 REVERT JUMPDEST PUSH1 0xFC SLOAD PUSH1 0x1 GT PUSH2 0x4142 JUMPI TIMESTAMP PUSH1 0xFC PUSH2 0x110 SLOAD DUP2 SLOAD DUP2 LT PUSH2 0x4125 JUMPI PUSH4 0x4E487B71 PUSH1 0xE0 SHL PUSH1 0x0 MSTORE PUSH1 0x32 PUSH1 0x4 MSTORE PUSH1 0x24 PUSH1 0x0 REVERT JUMPDEST SWAP1 PUSH1 0x0 MSTORE PUSH1 0x20 PUSH1 0x0 KECCAK256 SWAP1 PUSH1 0x6 MUL ADD PUSH1 0x4 ADD SLOAD GT ISZERO PUSH2 0x4142 JUMPI PUSH1 0x0 DUP1 REVERT JUMPDEST PUSH1 0xFC DUP1 SLOAD PUSH1 0x0 SWAP2 SWAP1 PUSH2 0x4155 SWAP1 PUSH1 0x1 PUSH2 0x46E5 JUMP JUMPDEST DUP2 SLOAD DUP2 LT PUSH2 0x4173 JUMPI PUSH4 0x4E487B71 PUSH1 0xE0 SHL PUSH1 0x0 MSTORE PUSH1 0x32 PUSH1 0x4 MSTORE PUSH1 0x24 PUSH1 0x0 REVERT JUMPDEST PUSH1 0x0 SWAP2 DUP3 MSTORE PUSH1 0x20 DUP3 KECCAK256 PUSH1 0x6 SWAP1 SWAP2 MUL ADD DUP1 SLOAD PUSH1 0x1 PUSH1 0x1 PUSH1 0xA8 SHL SUB NOT AND PUSH1 0x1 PUSH1 0x1 PUSH1 0xA0 SHL SUB DUP13 AND OR DUP2 SSTORE PUSH1 0x1 DUP1 DUP3 ADD DUP12 SWAP1 SSTORE PUSH1 0x4 DUP3 ADD DUP11 SWAP1 SSTORE PUSH1 0x2 DUP3 ADD SWAP3 SWAP1 SWAP3 SSTORE PUSH1 0xFD SLOAD SWAP1 SWAP3 POP PUSH2 0x41C1 SWAP2 PUSH2 0x46E5 JUMP JUMPDEST PUSH1 0xFD SSTORE PUSH1 0xFC SLOAD PUSH2 0x41D2 SWAP1 PUSH1 0x1 PUSH2 0x46E5 JUMP JUMPDEST PUSH2 0x110 SSTORE PUSH1 0xFC SLOAD PUSH2 0x41E4 SWAP1 PUSH1 0x1 PUSH2 0x46D9 JUMP JUMPDEST PUSH2 0x105 SLOAD PUSH1 0x40 DUP1 MLOAD SWAP2 DUP3 MSTORE PUSH1 0x20 DUP3 ADD DUP11 SWAP1 MSTORE PUSH1 0x1 PUSH1 0x1 PUSH1 0xA0 SHL SUB DUP13 AND DUP3 DUP3 ADD MSTORE PUSH1 0x60 DUP3 ADD DUP12 SWAP1 MSTORE MLOAD PUSH32 0x92B0B16B2AF0D04E9225ED4CFD315B60059F7011453BCE12E2CBF29A93F00DAA SWAP2 DUP2 SWAP1 SUB PUSH1 0x80 ADD SWAP1 LOG2 POP POP POP POP POP POP POP POP POP JUMP JUMPDEST PUSH1 0xFB SLOAD PUSH1 0x40 MLOAD PUSH4 0xF7878C69 PUSH1 0xE0 SHL DUP2 MSTORE CALLER PUSH1 0x4 DUP3 ADD MSTORE PUSH3 0x10000 SWAP1 SWAP2 DIV PUSH1 0x1 PUSH1 0x1 PUSH1 0xA0 SHL SUB AND SWAP1 PUSH4 0xF7878C69 SWAP1 PUSH1 0x24 ADD PUSH1 0x20 PUSH1 0x40 MLOAD DUP1 DUP4 SUB DUP2 DUP7 DUP1 EXTCODESIZE ISZERO DUP1 ISZERO PUSH2 0x4289 JUMPI PUSH1 0x0 DUP1 REVERT JUMPDEST POP GAS STATICCALL ISZERO DUP1 ISZERO PUSH2 0x429D JUMPI RETURNDATASIZE PUSH1 0x0 DUP1 RETURNDATACOPY RETURNDATASIZE PUSH1 0x0 REVERT JUMPDEST POP POP POP POP PUSH1 0x40 MLOAD RETURNDATASIZE PUSH1 0x1F NOT PUSH1 0x1F DUP3 ADD AND DUP3 ADD DUP1 PUSH1 0x40 MSTORE POP DUP2 ADD SWAP1 PUSH2 0x42C1 SWAP2 SWAP1 PUSH2 0x52AF JUMP JUMPDEST PUSH2 0x42CA JUMPI PUSH1 0x0 DUP1 REVERT JUMPDEST PUSH1 0x0 DUP1 PUSH2 0x42EF PUSH1 0xFB PUSH1 0x2 SWAP1 SLOAD SWAP1 PUSH2 0x100 EXP SWAP1 DIV PUSH1 0x1 PUSH1 0x1 PUSH1 0xA0 SHL SUB AND PUSH2 0x105 SLOAD PUSH2 0x4382 JUMP JUMPDEST SWAP1 SWAP5 POP SWAP3 POP DUP4 SWAP2 POP POP DUP1 ISZERO PUSH2 0x4301 JUMPI POP DUP1 JUMPDEST PUSH2 0x430A JUMPI PUSH1 0x0 DUP1 REVERT JUMPDEST PUSH1 0x97 SLOAD PUSH1 0xFF AND ISZERO PUSH2 0x432D JUMPI PUSH1 0x40 MLOAD PUSH3 0x461BCD PUSH1 0xE5 SHL DUP2 MSTORE PUSH1 0x4 ADD PUSH2 0xD16 SWAP1 PUSH2 0x5577 JUMP JUMPDEST POP POP PUSH2 0x10C SSTORE JUMP JUMPDEST PUSH1 0xFF DUP2 DUP2 SLOAD DUP2 LT PUSH2 0x4345 JUMPI PUSH1 0x0 DUP1 REVERT JUMPDEST PUSH1 0x0 SWAP2 DUP3 MSTORE PUSH1 0x20 SWAP1 SWAP2 KECCAK256 PUSH1 0x2 SWAP1 SWAP2 MUL ADD DUP1 SLOAD PUSH1 0x1 SWAP1 SWAP2 ADD SLOAD SWAP1 SWAP2 POP PUSH1 0x1 PUSH1 0x1 PUSH1 0xA0 SHL SUB DUP2 AND SWAP1 PUSH1 0xFF PUSH1 0x1 PUSH1 0xA0 SHL DUP3 DIV DUP2 AND SWAP2 PUSH1 0x1 PUSH1 0xA8 SHL SWAP1 DIV AND DUP5 JUMP JUMPDEST PUSH1 0x0 DUP1 PUSH1 0x0 DUP1 PUSH1 0x0 DUP1 PUSH1 0x0 DUP1 DUP10 PUSH1 0x1 PUSH1 0x1 PUSH1 0xA0 SHL SUB AND PUSH4 0x339D50A5 DUP11 PUSH1 0x40 MLOAD DUP3 PUSH4 0xFFFFFFFF AND PUSH1 0xE0 SHL DUP2 MSTORE PUSH1 0x4 ADD PUSH2 0x43BC SWAP2 DUP2 MSTORE PUSH1 0x20 ADD SWAP1 JUMP JUMPDEST PUSH1 0x80 PUSH1 0x40 MLOAD DUP1 DUP4 SUB DUP2 DUP7 DUP1 EXTCODESIZE ISZERO DUP1 ISZERO PUSH2 0x43D4 JUMPI PUSH1 0x0 DUP1 REVERT JUMPDEST POP GAS STATICCALL ISZERO DUP1 ISZERO PUSH2 0x43E8 JUMPI RETURNDATASIZE PUSH1 0x0 DUP1 RETURNDATACOPY RETURNDATASIZE PUSH1 0x0 REVERT JUMPDEST POP POP POP POP PUSH1 0x40 MLOAD RETURNDATASIZE PUSH1 0x1F NOT PUSH1 0x1F DUP3 ADD AND DUP3 ADD DUP1 PUSH1 0x40 MSTORE POP DUP2 ADD SWAP1 PUSH2 0x440C SWAP2 SWAP1 PUSH2 0x523F JUMP JUMPDEST SWAP3 SWAP14 SWAP2 SWAP13 POP SWAP11 POP SWAP1 SWAP9 POP SWAP7 POP POP POP POP POP POP POP JUMP JUMPDEST PUSH1 0x0 DUP1 PUSH1 0x1 PUSH1 0x1 PUSH1 0xA0 SHL SUB DUP4 AND PUSH2 0x4436 JUMPI PUSH1 0x0 DUP1 REVERT JUMPDEST PUSH1 0x40 MLOAD PUSH4 0x76D3BCA7 PUSH1 0xE1 SHL DUP2 MSTORE PUSH1 0x1 PUSH1 0x1 PUSH1 0xA0 SHL SUB DUP5 DUP2 AND PUSH1 0x4 DUP4 ADD MSTORE PUSH1 0x0 SWAP2 DUP3 SWAP2 DUP8 AND SWAP1 PUSH4 0x365B98B2 SWAP1 DUP3 SWAP1 PUSH4 0xEDA7794E SWAP1 PUSH1 0x24 ADD PUSH1 0x20 PUSH1 0x40 MLOAD DUP1 DUP4 SUB DUP2 DUP7 DUP1 EXTCODESIZE ISZERO DUP1 ISZERO PUSH2 0x4484 JUMPI PUSH1 0x0 DUP1 REVERT JUMPDEST POP GAS STATICCALL ISZERO DUP1 ISZERO PUSH2 0x4498 JUMPI RETURNDATASIZE PUSH1 0x0 DUP1 RETURNDATACOPY RETURNDATASIZE PUSH1 0x0 REVERT JUMPDEST POP POP POP POP PUSH1 0x40 MLOAD RETURNDATASIZE PUSH1 0x1F NOT PUSH1 0x1F DUP3 ADD AND DUP3 ADD DUP1 PUSH1 0x40 MSTORE POP DUP2 ADD SWAP1 PUSH2 0x44BC SWAP2 SWAP1 PUSH2 0x532F JUMP JUMPDEST PUSH1 0x40 MLOAD DUP3 PUSH4 0xFFFFFFFF AND PUSH1 0xE0 SHL DUP2 MSTORE PUSH1 0x4 ADD PUSH2 0x44DA SWAP2 DUP2 MSTORE PUSH1 0x20 ADD SWAP1 JUMP JUMPDEST PUSH1 0x40 DUP1 MLOAD DUP1 DUP4 SUB DUP2 DUP7 DUP1 EXTCODESIZE ISZERO DUP1 ISZERO PUSH2 0x44F1 JUMPI PUSH1 0x0 DUP1 REVERT JUMPDEST POP GAS STATICCALL ISZERO DUP1 ISZERO PUSH2 0x4505 JUMPI RETURNDATASIZE PUSH1 0x0 DUP1 RETURNDATACOPY RETURNDATASIZE PUSH1 0x0 REVERT JUMPDEST POP POP POP POP PUSH1 0x40 MLOAD RETURNDATASIZE PUSH1 0x1F NOT PUSH1 0x1F DUP3 ADD AND DUP3 ADD DUP1 PUSH1 0x40 MSTORE POP DUP2 ADD SWAP1 PUSH2 0x4529 SWAP2 SWAP1 PUSH2 0x519A JUMP JUMPDEST SWAP1 SWAP8 SWAP1 SWAP7 POP SWAP5 POP POP POP POP POP JUMP JUMPDEST PUSH1 0x0 PUSH2 0x4542 DUP3 DUP5 PUSH2 0x5604 JUMP JUMPDEST SWAP4 SWAP3 POP POP POP JUMP JUMPDEST PUSH1 0x0 DUP1 PUSH1 0x0 DUP5 PUSH1 0x1 PUSH1 0x1 PUSH1 0xA0 SHL SUB AND PUSH4 0x339D50A5 DUP6 PUSH1 0x40 MLOAD DUP3 PUSH4 0xFFFFFFFF AND PUSH1 0xE0 SHL DUP2 MSTORE PUSH1 0x4 ADD PUSH2 0x457C SWAP2 DUP2 MSTORE PUSH1 0x20 ADD SWAP1 JUMP JUMPDEST PUSH1 0x80 PUSH1 0x40 MLOAD DUP1 DUP4 SUB DUP2 DUP7 DUP1 EXTCODESIZE ISZERO DUP1 ISZERO PUSH2 0x4594 JUMPI PUSH1 0x0 DUP1 REVERT JUMPDEST POP GAS STATICCALL ISZERO DUP1 ISZERO PUSH2 0x45A8 JUMPI RETURNDATASIZE PUSH1 0x0 DUP1 RETURNDATACOPY RETURNDATASIZE PUSH1 0x0 REVERT JUMPDEST POP POP POP POP PUSH1 0x40 MLOAD RETURNDATASIZE PUSH1 0x1F NOT PUSH1 0x1F DUP3 ADD AND DUP3 ADD DUP1 PUSH1 0x40 MSTORE POP DUP2 ADD SWAP1 PUSH2 0x45CC SWAP2 SWAP1 PUSH2 0x523F JUMP JUMPDEST POP POP PUSH1 0x40 MLOAD PUSH4 0x4C788DE7 PUSH1 0xE1 SHL DUP2 MSTORE PUSH1 0x4 DUP2 ADD DUP3 SWAP1 MSTORE SWAP1 SWAP4 POP PUSH1 0x1 PUSH1 0x1 PUSH1 0xA0 SHL SUB DUP8 AND SWAP2 POP PUSH4 0x98F11BCE SWAP1 PUSH1 0x24 ADD PUSH1 0x20 PUSH1 0x40 MLOAD DUP1 DUP4 SUB DUP2 DUP7 DUP1 EXTCODESIZE ISZERO DUP1 ISZERO PUSH2 0x4612 JUMPI PUSH1 0x0 DUP1 REVERT JUMPDEST POP GAS STATICCALL ISZERO DUP1 ISZERO PUSH2 0x4626 JUMPI RETURNDATASIZE PUSH1 0x0 DUP1 RETURNDATACOPY RETURNDATASIZE PUSH1 0x0 REVERT JUMPDEST POP POP POP POP PUSH1 0x40 MLOAD RETURNDATASIZE PUSH1 0x1F NOT PUSH1 0x1F DUP3 ADD AND DUP3 ADD DUP1 PUSH1 0x40 MSTORE POP DUP2 ADD SWAP1 PUSH2 0x464A SWAP2 SWAP1 PUSH2 0x532F JUMP JUMPDEST SWAP1 POP DUP1 PUSH2 0x46C5 JUMPI DUP5 PUSH1 0x1 PUSH1 0x1 PUSH1 0xA0 SHL SUB AND PUSH4 0xB444BBA5 PUSH1 0x40 MLOAD DUP2 PUSH4 0xFFFFFFFF AND PUSH1 0xE0 SHL DUP2 MSTORE PUSH1 0x4 ADD PUSH1 0x20 PUSH1 0x40 MLOAD DUP1 DUP4 SUB DUP2 DUP7 DUP1 EXTCODESIZE ISZERO DUP1 ISZERO PUSH2 0x468A JUMPI PUSH1 0x0 DUP1 REVERT JUMPDEST POP GAS STATICCALL ISZERO DUP1 ISZERO PUSH2 0x469E JUMPI RETURNDATASIZE PUSH1 0x0 DUP1 RETURNDATACOPY RETURNDATASIZE PUSH1 0x0 REVERT JUMPDEST POP POP POP POP PUSH1 0x40 MLOAD RETURNDATASIZE PUSH1 0x1F NOT PUSH1 0x1F DUP3 ADD AND DUP3 ADD DUP1 PUSH1 0x40 MSTORE POP DUP2 ADD SWAP1 PUSH2 0x46C2 SWAP2 SWAP1 PUSH2 0x532F JUMP JUMPDEST SWAP1 POP JUMPDEST SWAP5 SWAP4 POP POP POP POP JUMP JUMPDEST PUSH1 0x0 PUSH2 0x4542 DUP3 DUP5 PUSH2 0x5624 JUMP JUMPDEST PUSH1 0x0 PUSH2 0x4542 DUP3 DUP5 PUSH2 0x5643 JUMP JUMPDEST PUSH1 0x0 PUSH2 0x4542 DUP3 DUP5 PUSH2 0x55EC JUMP JUMPDEST PUSH1 0x40 DUP1 MLOAD PUSH1 0x1 PUSH1 0x1 PUSH1 0xA0 SHL SUB DUP6 DUP2 AND PUSH1 0x24 DUP4 ADD MSTORE DUP5 AND PUSH1 0x44 DUP3 ADD MSTORE PUSH1 0x64 DUP1 DUP3 ADD DUP5 SWAP1 MSTORE DUP3 MLOAD DUP1 DUP4 SUB SWAP1 SWAP2 ADD DUP2 MSTORE PUSH1 0x84 SWAP1 SWAP2 ADD SWAP1 SWAP2 MSTORE PUSH1 0x20 DUP2 ADD DUP1 MLOAD PUSH1 0x1 PUSH1 0x1 PUSH1 0xE0 SHL SUB AND PUSH4 0x23B872DD PUSH1 0xE0 SHL OR SWAP1 MSTORE PUSH2 0x474B SWAP1 DUP6 SWAP1 PUSH2 0x4D37 JUMP JUMPDEST POP POP POP POP JUMP JUMPDEST PUSH1 0x97 SLOAD PUSH1 0xFF AND ISZERO PUSH2 0x4774 JUMPI PUSH1 0x40 MLOAD PUSH3 0x461BCD PUSH1 0xE5 SHL DUP2 MSTORE PUSH1 0x4 ADD PUSH2 0xD16 SWAP1 PUSH2 0x5577 JUMP JUMPDEST PUSH1 0x97 DUP1 SLOAD PUSH1 0xFF NOT AND PUSH1 0x1 OR SWAP1 SSTORE PUSH32 0x62E78CEA01BEE320CD4E420270B5EA74000D11B0C9F74754EBDBFC544B05A258 PUSH2 0x47A9 CALLER SWAP1 JUMP JUMPDEST PUSH1 0x40 MLOAD PUSH1 0x1 PUSH1 0x1 PUSH1 0xA0 SHL SUB SWAP1 SWAP2 AND DUP2 MSTORE PUSH1 0x20 ADD PUSH1 0x40 MLOAD DUP1 SWAP2 SUB SWAP1 LOG1 JUMP JUMPDEST PUSH1 0x97 SLOAD PUSH1 0xFF AND PUSH2 0x47E8 JUMPI PUSH1 0x40 MLOAD PUSH3 0x461BCD PUSH1 0xE5 SHL DUP2 MSTORE PUSH1 0x4 ADD PUSH2 0xD16 SWAP1 PUSH2 0x5549 JUMP JUMPDEST PUSH1 0x97 DUP1 SLOAD PUSH1 0xFF NOT AND SWAP1 SSTORE PUSH32 0x5DB9EE0A495BF2E6FF9C91A7834C1BA4FDD244A5E8AA4E537BD38AEAE4B073AA CALLER PUSH2 0x47A9 JUMP JUMPDEST PUSH2 0x4823 DUP3 DUP3 PUSH2 0x2415 JUMP JUMPDEST PUSH2 0x1468 JUMPI PUSH2 0x483B DUP2 PUSH1 0x1 PUSH1 0x1 PUSH1 0xA0 SHL SUB AND PUSH1 0x14 PUSH2 0x4E09 JUMP JUMPDEST PUSH2 0x4846 DUP4 PUSH1 0x20 PUSH2 0x4E09 JUMP JUMPDEST PUSH1 0x40 MLOAD PUSH1 0x20 ADD PUSH2 0x4857 SWAP3 SWAP2 SWAP1 PUSH2 0x5479 JUMP JUMPDEST PUSH1 0x40 DUP1 MLOAD PUSH1 0x1F NOT DUP2 DUP5 SUB ADD DUP2 MSTORE SWAP1 DUP3 SWAP1 MSTORE PUSH3 0x461BCD PUSH1 0xE5 SHL DUP3 MSTORE PUSH2 0xD16 SWAP2 PUSH1 0x4 ADD PUSH2 0x5516 JUMP JUMPDEST PUSH2 0x4887 DUP3 DUP3 PUSH2 0x2415 JUMP JUMPDEST PUSH2 0x1468 JUMPI PUSH1 0x0 DUP3 DUP2 MSTORE PUSH1 0x65 PUSH1 0x20 SWAP1 DUP2 MSTORE PUSH1 0x40 DUP1 DUP4 KECCAK256 PUSH1 0x1 PUSH1 0x1 PUSH1 0xA0 SHL SUB DUP6 AND DUP5 MSTORE SWAP1 SWAP2 MSTORE SWAP1 KECCAK256 DUP1 SLOAD PUSH1 0xFF NOT AND PUSH1 0x1 OR SWAP1 SSTORE PUSH2 0x48BF CALLER SWAP1 JUMP JUMPDEST PUSH1 0x1 PUSH1 0x1 PUSH1 0xA0 SHL SUB AND DUP2 PUSH1 0x1 PUSH1 0x1 PUSH1 0xA0 SHL SUB AND DUP4 PUSH32 0x2F8788117E7EFF1D82E926EC794901D17C78024A50270940304540A733656F0D PUSH1 0x40 MLOAD PUSH1 0x40 MLOAD DUP1 SWAP2 SUB SWAP1 LOG4 POP POP JUMP JUMPDEST PUSH2 0x490D DUP3 DUP3 PUSH2 0x2415 JUMP JUMPDEST ISZERO PUSH2 0x1468 JUMPI PUSH1 0x0 DUP3 DUP2 MSTORE PUSH1 0x65 PUSH1 0x20 SWAP1 DUP2 MSTORE PUSH1 0x40 DUP1 DUP4 KECCAK256 PUSH1 0x1 PUSH1 0x1 PUSH1 0xA0 SHL SUB DUP6 AND DUP1 DUP6 MSTORE SWAP3 MSTORE DUP1 DUP4 KECCAK256 DUP1 SLOAD PUSH1 0xFF NOT AND SWAP1 SSTORE MLOAD CALLER SWAP3 DUP6 SWAP2 PUSH32 0xF6391F5C32D9C69D2A47EA670B442974B53935D1EDC7FD64EB21E047A839171B SWAP2 SWAP1 LOG4 POP POP JUMP JUMPDEST PUSH1 0x5 PUSH1 0xFB SLOAD PUSH2 0x100 SWAP1 DIV PUSH1 0xFF AND PUSH1 0x5 DUP2 GT ISZERO PUSH2 0x4996 JUMPI PUSH4 0x4E487B71 PUSH1 0xE0 SHL PUSH1 0x0 MSTORE PUSH1 0x21 PUSH1 0x4 MSTORE PUSH1 0x24 PUSH1 0x0 REVERT JUMPDEST EQ PUSH2 0x49E0 JUMPI PUSH1 0x1 PUSH1 0xFB SLOAD PUSH2 0x100 SWAP1 DIV PUSH1 0xFF AND PUSH1 0x5 DUP2 GT ISZERO PUSH2 0x49C7 JUMPI PUSH4 0x4E487B71 PUSH1 0xE0 SHL PUSH1 0x0 MSTORE PUSH1 0x21 PUSH1 0x4 MSTORE PUSH1 0x24 PUSH1 0x0 REVERT JUMPDEST EQ DUP1 ISZERO PUSH2 0x49D7 JUMPI POP PUSH1 0x1 PUSH2 0x10F SLOAD LT JUMPDEST PUSH2 0x49E0 JUMPI PUSH1 0x0 DUP1 REVERT JUMPDEST PUSH1 0x1 PUSH1 0x1 PUSH1 0xA0 SHL SUB DUP4 AND PUSH1 0x0 SWAP1 DUP2 MSTORE PUSH2 0x111 PUSH1 0x20 MSTORE PUSH1 0x40 SWAP1 KECCAK256 SLOAD PUSH1 0xFF AND PUSH2 0x4A06 JUMPI PUSH1 0x0 DUP1 REVERT JUMPDEST PUSH1 0x1 PUSH1 0x1 PUSH1 0xA0 SHL SUB DUP4 AND PUSH1 0x0 SWAP1 DUP2 MSTORE PUSH2 0x100 PUSH1 0x20 MSTORE PUSH1 0x40 SWAP1 KECCAK256 SLOAD PUSH1 0xFF AND ISZERO PUSH2 0x4A4A JUMPI PUSH1 0x1 PUSH1 0x1 PUSH1 0xA0 SHL SUB DUP4 AND PUSH1 0x0 SWAP1 DUP2 MSTORE PUSH2 0x100 PUSH1 0x20 MSTORE PUSH1 0x40 SWAP1 KECCAK256 DUP1 SLOAD PUSH1 0xFF NOT AND SWAP1 SSTORE JUMPDEST PUSH1 0x1 PUSH1 0x1 PUSH1 0xA0 SHL SUB DUP4 AND PUSH1 0x0 SWAP1 DUP2 MSTORE PUSH2 0x111 PUSH1 0x20 MSTORE PUSH1 0x40 SWAP1 KECCAK256 DUP1 SLOAD PUSH1 0xFF NOT AND SWAP1 SSTORE PUSH2 0x109 SLOAD PUSH2 0x4A7A SWAP1 PUSH1 0x1 PUSH2 0x46D9 JUMP JUMPDEST PUSH2 0x109 SSTORE PUSH2 0x106 SLOAD PUSH2 0x4A8C SWAP1 DUP3 PUSH2 0x46D9 JUMP JUMPDEST PUSH2 0x106 SSTORE PUSH1 0x1 PUSH1 0x1 PUSH1 0xA0 SHL SUB DUP4 AND PUSH1 0x0 SWAP1 DUP2 MSTORE PUSH2 0x112 PUSH1 0x20 MSTORE PUSH1 0x40 SWAP1 KECCAK256 SLOAD PUSH2 0x4AB4 SWAP1 DUP3 PUSH2 0x46D9 JUMP JUMPDEST PUSH1 0x1 PUSH1 0x1 PUSH1 0xA0 SHL SUB DUP1 DUP6 AND PUSH1 0x0 SWAP1 DUP2 MSTORE PUSH2 0x112 PUSH1 0x20 MSTORE PUSH1 0x40 SWAP1 KECCAK256 SWAP2 SWAP1 SWAP2 SSTORE PUSH2 0x104 SLOAD PUSH2 0x4AE3 SWAP2 AND ADDRESS DUP5 DUP5 PUSH2 0x46F1 JUMP JUMPDEST PUSH2 0x105 SLOAD PUSH1 0xFB SLOAD PUSH1 0x40 MLOAD PUSH4 0x76D3BCA7 PUSH1 0xE1 SHL DUP2 MSTORE PUSH1 0x1 PUSH1 0x1 PUSH1 0xA0 SHL SUB DUP7 DUP2 AND PUSH1 0x4 DUP4 ADD MSTORE PUSH32 0x5408B247AFE85FBBB951CB76CD7BBC4C7C859497848CADA887F5803C625E5463 SWAP3 PUSH3 0x10000 SWAP1 DIV AND SWAP1 PUSH4 0xEDA7794E SWAP1 PUSH1 0x24 ADD PUSH1 0x20 PUSH1 0x40 MLOAD DUP1 DUP4 SUB DUP2 DUP7 DUP1 EXTCODESIZE ISZERO DUP1 ISZERO PUSH2 0x4B52 JUMPI PUSH1 0x0 DUP1 REVERT JUMPDEST POP GAS STATICCALL ISZERO DUP1 ISZERO PUSH2 0x4B66 JUMPI RETURNDATASIZE PUSH1 0x0 DUP1 RETURNDATACOPY RETURNDATASIZE PUSH1 0x0 REVERT JUMPDEST POP POP POP POP PUSH1 0x40 MLOAD RETURNDATASIZE PUSH1 0x1F NOT PUSH1 0x1F DUP3 ADD AND DUP3 ADD DUP1 PUSH1 0x40 MSTORE POP DUP2 ADD SWAP1 PUSH2 0x4B8A SWAP2 SWAP1 PUSH2 0x532F JUMP JUMPDEST PUSH1 0x40 DUP1 MLOAD SWAP2 DUP3 MSTORE PUSH1 0x20 DUP3 ADD DUP6 SWAP1 MSTORE ADD PUSH1 0x40 MLOAD DUP1 SWAP2 SUB SWAP1 LOG2 POP POP POP JUMP JUMPDEST CALLER PUSH1 0x0 SWAP1 DUP2 MSTORE PUSH2 0x111 PUSH1 0x20 MSTORE PUSH1 0x40 SWAP1 KECCAK256 DUP1 SLOAD PUSH1 0xFF NOT AND PUSH1 0x1 OR SWAP1 SSTORE PUSH2 0x106 SLOAD PUSH2 0x4BCF SWAP1 CALLVALUE PUSH2 0x46E5 JUMP JUMPDEST PUSH2 0x106 SSTORE CALLER PUSH1 0x0 SWAP1 DUP2 MSTORE PUSH2 0x112 PUSH1 0x20 MSTORE PUSH1 0x40 SWAP1 KECCAK256 SLOAD PUSH2 0x4BEE SWAP1 CALLVALUE PUSH2 0x46E5 JUMP JUMPDEST CALLER PUSH1 0x0 SWAP1 DUP2 MSTORE PUSH2 0x112 PUSH1 0x20 MSTORE PUSH1 0x40 SWAP1 KECCAK256 SSTORE PUSH2 0x10A SLOAD PUSH2 0x106 SLOAD LT PUSH2 0x4C57 JUMPI PUSH1 0xFB DUP1 SLOAD PUSH2 0xFF00 NOT AND PUSH2 0x200 OR SWAP1 SSTORE PUSH2 0x105 SLOAD PUSH2 0x106 SLOAD PUSH1 0x40 MLOAD SWAP1 DUP2 MSTORE PUSH32 0xC995A56DB91318A340F1DB055A11F0F64825467CFBA425EC7B26B03FC4843E3E SWAP1 PUSH1 0x20 ADD PUSH1 0x40 MLOAD DUP1 SWAP2 SUB SWAP1 LOG2 JUMPDEST PUSH2 0x104 SLOAD PUSH2 0x4C70 SWAP1 PUSH1 0x1 PUSH1 0x1 PUSH1 0xA0 SHL SUB AND CALLER ADDRESS CALLVALUE PUSH2 0x46F1 JUMP JUMPDEST PUSH2 0x105 SLOAD PUSH1 0xFB SLOAD PUSH1 0x40 MLOAD PUSH4 0x76D3BCA7 PUSH1 0xE1 SHL DUP2 MSTORE CALLER PUSH1 0x4 DUP3 ADD MSTORE PUSH32 0x6F4C06BE47B1BEF37C7A0C2E2242486905F2213810FBE7031E61D46FC600EF28 SWAP2 PUSH3 0x10000 SWAP1 DIV PUSH1 0x1 PUSH1 0x1 PUSH1 0xA0 SHL SUB AND SWAP1 PUSH4 0xEDA7794E SWAP1 PUSH1 0x24 ADD PUSH1 0x20 PUSH1 0x40 MLOAD DUP1 DUP4 SUB DUP2 DUP7 DUP1 EXTCODESIZE ISZERO DUP1 ISZERO PUSH2 0x4CDD JUMPI PUSH1 0x0 DUP1 REVERT JUMPDEST POP GAS STATICCALL ISZERO DUP1 ISZERO PUSH2 0x4CF1 JUMPI RETURNDATASIZE PUSH1 0x0 DUP1 RETURNDATACOPY RETURNDATASIZE PUSH1 0x0 REVERT JUMPDEST POP POP POP POP PUSH1 0x40 MLOAD RETURNDATASIZE PUSH1 0x1F NOT PUSH1 0x1F DUP3 ADD AND DUP3 ADD DUP1 PUSH1 0x40 MSTORE POP DUP2 ADD SWAP1 PUSH2 0x4D15 SWAP2 SWAP1 PUSH2 0x532F JUMP JUMPDEST PUSH1 0x40 DUP1 MLOAD SWAP2 DUP3 MSTORE CALLVALUE PUSH1 0x20 DUP4 ADD MSTORE ADD PUSH1 0x40 MLOAD DUP1 SWAP2 SUB SWAP1 LOG2 JUMP JUMPDEST PUSH2 0x1468 DUP3 DUP3 PUSH2 0x487D JUMP JUMPDEST PUSH1 0x0 PUSH2 0x4D8C DUP3 PUSH1 0x40 MLOAD DUP1 PUSH1 0x40 ADD PUSH1 0x40 MSTORE DUP1 PUSH1 0x20 DUP2 MSTORE PUSH1 0x20 ADD PUSH32 0x5361666545524332303A206C6F772D6C6576656C2063616C6C206661696C6564 DUP2 MSTORE POP DUP6 PUSH1 0x1 PUSH1 0x1 PUSH1 0xA0 SHL SUB AND PUSH2 0x4FEB SWAP1 SWAP3 SWAP2 SWAP1 PUSH4 0xFFFFFFFF AND JUMP JUMPDEST DUP1 MLOAD SWAP1 SWAP2 POP ISZERO PUSH2 0x11DC JUMPI DUP1 DUP1 PUSH1 0x20 ADD SWAP1 MLOAD DUP2 ADD SWAP1 PUSH2 0x4DAA SWAP2 SWAP1 PUSH2 0x52AF JUMP JUMPDEST PUSH2 0x11DC JUMPI PUSH1 0x40 MLOAD PUSH3 0x461BCD PUSH1 0xE5 SHL DUP2 MSTORE PUSH1 0x20 PUSH1 0x4 DUP3 ADD MSTORE PUSH1 0x2A PUSH1 0x24 DUP3 ADD MSTORE PUSH32 0x5361666545524332303A204552433230206F7065726174696F6E20646964206E PUSH1 0x44 DUP3 ADD MSTORE PUSH10 0x1BDD081CDD58D8D95959 PUSH1 0xB2 SHL PUSH1 0x64 DUP3 ADD MSTORE PUSH1 0x84 ADD PUSH2 0xD16 JUMP JUMPDEST PUSH1 0x60 PUSH1 0x0 PUSH2 0x4E18 DUP4 PUSH1 0x2 PUSH2 0x5624 JUMP JUMPDEST PUSH2 0x4E23 SWAP1 PUSH1 0x2 PUSH2 0x55EC JUMP JUMPDEST PUSH8 0xFFFFFFFFFFFFFFFF DUP2 GT ISZERO PUSH2 0x4E49 JUMPI PUSH4 0x4E487B71 PUSH1 0xE0 SHL PUSH1 0x0 MSTORE PUSH1 0x41 PUSH1 0x4 MSTORE PUSH1 0x24 PUSH1 0x0 REVERT JUMPDEST PUSH1 0x40 MLOAD SWAP1 DUP1 DUP3 MSTORE DUP1 PUSH1 0x1F ADD PUSH1 0x1F NOT AND PUSH1 0x20 ADD DUP3 ADD PUSH1 0x40 MSTORE DUP1 ISZERO PUSH2 0x4E73 JUMPI PUSH1 0x20 DUP3 ADD DUP2 DUP1 CALLDATASIZE DUP4 CALLDATACOPY ADD SWAP1 POP JUMPDEST POP SWAP1 POP PUSH1 0x3 PUSH1 0xFC SHL DUP2 PUSH1 0x0 DUP2 MLOAD DUP2 LT PUSH2 0x4E9C JUMPI PUSH4 0x4E487B71 PUSH1 0xE0 SHL PUSH1 0x0 MSTORE PUSH1 0x32 PUSH1 0x4 MSTORE PUSH1 0x24 PUSH1 0x0 REVERT JUMPDEST PUSH1 0x20 ADD ADD SWAP1 PUSH1 0x1 PUSH1 0x1 PUSH1 0xF8 SHL SUB NOT AND SWAP1 DUP2 PUSH1 0x0 BYTE SWAP1 MSTORE8 POP PUSH1 0xF PUSH1 0xFB SHL DUP2 PUSH1 0x1 DUP2 MLOAD DUP2 LT PUSH2 0x4ED9 JUMPI PUSH4 0x4E487B71 PUSH1 0xE0 SHL PUSH1 0x0 MSTORE PUSH1 0x32 PUSH1 0x4 MSTORE PUSH1 0x24 PUSH1 0x0 REVERT JUMPDEST PUSH1 0x20 ADD ADD SWAP1 PUSH1 0x1 PUSH1 0x1 PUSH1 0xF8 SHL SUB NOT AND SWAP1 DUP2 PUSH1 0x0 BYTE SWAP1 MSTORE8 POP PUSH1 0x0 PUSH2 0x4EFD DUP5 PUSH1 0x2 PUSH2 0x5624 JUMP JUMPDEST PUSH2 0x4F08 SWAP1 PUSH1 0x1 PUSH2 0x55EC JUMP JUMPDEST SWAP1 POP JUMPDEST PUSH1 0x1 DUP2 GT ISZERO PUSH2 0x4F9C JUMPI PUSH16 0x181899199A1A9B1B9C1CB0B131B232B3 PUSH1 0x81 SHL DUP6 PUSH1 0xF AND PUSH1 0x10 DUP2 LT PUSH2 0x4F4A JUMPI PUSH4 0x4E487B71 PUSH1 0xE0 SHL PUSH1 0x0 MSTORE PUSH1 0x32 PUSH1 0x4 MSTORE PUSH1 0x24 PUSH1 0x0 REVERT JUMPDEST BYTE PUSH1 0xF8 SHL DUP3 DUP3 DUP2 MLOAD DUP2 LT PUSH2 0x4F6E JUMPI PUSH4 0x4E487B71 PUSH1 0xE0 SHL PUSH1 0x0 MSTORE PUSH1 0x32 PUSH1 0x4 MSTORE PUSH1 0x24 PUSH1 0x0 REVERT JUMPDEST PUSH1 0x20 ADD ADD SWAP1 PUSH1 0x1 PUSH1 0x1 PUSH1 0xF8 SHL SUB NOT AND SWAP1 DUP2 PUSH1 0x0 BYTE SWAP1 MSTORE8 POP PUSH1 0x4 SWAP5 SWAP1 SWAP5 SHR SWAP4 PUSH2 0x4F95 DUP2 PUSH2 0x5686 JUMP JUMPDEST SWAP1 POP PUSH2 0x4F0B JUMP JUMPDEST POP DUP4 ISZERO PUSH2 0x4542 JUMPI PUSH1 0x40 MLOAD PUSH3 0x461BCD PUSH1 0xE5 SHL DUP2 MSTORE PUSH1 0x20 PUSH1 0x4 DUP3 ADD DUP2 SWAP1 MSTORE PUSH1 0x24 DUP3 ADD MSTORE PUSH32 0x537472696E67733A20686578206C656E67746820696E73756666696369656E74 PUSH1 0x44 DUP3 ADD MSTORE PUSH1 0x64 ADD PUSH2 0xD16 JUMP JUMPDEST PUSH1 0x60 PUSH2 0x46C5 DUP5 DUP5 PUSH1 0x0 DUP6 DUP6 DUP5 EXTCODESIZE PUSH2 0x5044 JUMPI PUSH1 0x40 MLOAD PUSH3 0x461BCD PUSH1 0xE5 SHL DUP2 MSTORE PUSH1 0x20 PUSH1 0x4 DUP3 ADD MSTORE PUSH1 0x1D PUSH1 0x24 DUP3 ADD MSTORE PUSH32 0x416464726573733A2063616C6C20746F206E6F6E2D636F6E7472616374000000 PUSH1 0x44 DUP3 ADD MSTORE PUSH1 0x64 ADD PUSH2 0xD16 JUMP JUMPDEST PUSH1 0x0 DUP1 DUP7 PUSH1 0x1 PUSH1 0x1 PUSH1 0xA0 SHL SUB AND DUP6 DUP8 PUSH1 0x40 MLOAD PUSH2 0x5060 SWAP2 SWAP1 PUSH2 0x545D JUMP JUMPDEST PUSH1 0x0 PUSH1 0x40 MLOAD DUP1 DUP4 SUB DUP2 DUP6 DUP8 GAS CALL SWAP3 POP POP POP RETURNDATASIZE DUP1 PUSH1 0x0 DUP2 EQ PUSH2 0x509D JUMPI PUSH1 0x40 MLOAD SWAP2 POP PUSH1 0x1F NOT PUSH1 0x3F RETURNDATASIZE ADD AND DUP3 ADD PUSH1 0x40 MSTORE RETURNDATASIZE DUP3 MSTORE RETURNDATASIZE PUSH1 0x0 PUSH1 0x20 DUP5 ADD RETURNDATACOPY PUSH2 0x50A2 JUMP JUMPDEST PUSH1 0x60 SWAP2 POP JUMPDEST POP SWAP2 POP SWAP2 POP PUSH2 0x50B2 DUP3 DUP3 DUP7 PUSH2 0x50BD JUMP JUMPDEST SWAP8 SWAP7 POP POP POP POP POP POP POP JUMP JUMPDEST PUSH1 0x60 DUP4 ISZERO PUSH2 0x50CC JUMPI POP DUP2 PUSH2 0x4542 JUMP JUMPDEST DUP3 MLOAD ISZERO PUSH2 0x50DC JUMPI DUP3 MLOAD DUP1 DUP5 PUSH1 0x20 ADD REVERT JUMPDEST DUP2 PUSH1 0x40 MLOAD PUSH3 0x461BCD PUSH1 0xE5 SHL DUP2 MSTORE PUSH1 0x4 ADD PUSH2 0xD16 SWAP2 SWAP1 PUSH2 0x5516 JUMP JUMPDEST PUSH1 0x0 PUSH1 0x20 DUP3 DUP5 SUB SLT ISZERO PUSH2 0x5107 JUMPI DUP1 DUP2 REVERT JUMPDEST DUP2 CALLDATALOAD PUSH2 0x4542 DUP2 PUSH2 0x56E4 JUMP JUMPDEST PUSH1 0x0 PUSH1 0x20 DUP3 DUP5 SUB SLT ISZERO PUSH2 0x5123 JUMPI DUP1 DUP2 REVERT JUMPDEST DUP2 MLOAD PUSH2 0x4542 DUP2 PUSH2 0x56E4 JUMP JUMPDEST PUSH1 0x0 DUP1 PUSH1 0x0 PUSH1 0x60 DUP5 DUP7 SUB SLT ISZERO PUSH2 0x5142 JUMPI DUP2 DUP3 REVERT JUMPDEST DUP4 CALLDATALOAD PUSH2 0x514D DUP2 PUSH2 0x56E4 JUMP JUMPDEST SWAP6 PUSH1 0x20 DUP6 ADD CALLDATALOAD SWAP6 POP PUSH1 0x40 SWAP1 SWAP5 ADD CALLDATALOAD SWAP4 SWAP3 POP POP POP JUMP JUMPDEST PUSH1 0x0 DUP1 PUSH1 0x40 DUP4 DUP6 SUB SLT ISZERO PUSH2 0x5174 JUMPI DUP2 DUP3 REVERT JUMPDEST DUP3 CALLDATALOAD PUSH2 0x517F DUP2 PUSH2 0x56E4 JUMP JUMPDEST SWAP2 POP PUSH1 0x20 DUP4 ADD CALLDATALOAD PUSH2 0x518F DUP2 PUSH2 0x56E4 JUMP JUMPDEST DUP1 SWAP2 POP POP SWAP3 POP SWAP3 SWAP1 POP JUMP JUMPDEST PUSH1 0x0 DUP1 PUSH1 0x40 DUP4 DUP6 SUB SLT ISZERO PUSH2 0x51AC JUMPI DUP2 DUP3 REVERT JUMPDEST DUP3 MLOAD PUSH2 0x51B7 DUP2 PUSH2 0x56E4 JUMP JUMPDEST PUSH1 0x20 DUP5 ADD MLOAD SWAP1 SWAP3 POP PUSH2 0x518F DUP2 PUSH2 0x56FC JUMP JUMPDEST PUSH1 0x0 DUP1 PUSH1 0x0 PUSH1 0x60 DUP5 DUP7 SUB SLT ISZERO PUSH2 0x51DC JUMPI DUP3 DUP4 REVERT JUMPDEST DUP4 CALLDATALOAD PUSH2 0x51E7 DUP2 PUSH2 0x56E4 JUMP JUMPDEST SWAP3 POP PUSH1 0x20 DUP5 ADD CALLDATALOAD SWAP2 POP PUSH1 0x40 DUP5 ADD CALLDATALOAD PUSH2 0x51FE DUP2 PUSH2 0x56E4 JUMP JUMPDEST DUP1 SWAP2 POP POP SWAP3 POP SWAP3 POP SWAP3 JUMP JUMPDEST PUSH1 0x0 DUP1 PUSH1 0x0 PUSH1 0x60 DUP5 DUP7 SUB SLT ISZERO PUSH2 0x521D JUMPI DUP3 DUP4 REVERT JUMPDEST DUP4 CALLDATALOAD PUSH2 0x5228 DUP2 PUSH2 0x56E4 JUMP JUMPDEST SWAP3 POP PUSH1 0x20 DUP5 ADD CALLDATALOAD SWAP2 POP PUSH1 0x40 DUP5 ADD CALLDATALOAD PUSH2 0x51FE DUP2 PUSH2 0x56FC JUMP JUMPDEST PUSH1 0x0 DUP1 PUSH1 0x0 DUP1 PUSH1 0x80 DUP6 DUP8 SUB SLT ISZERO PUSH2 0x5254 JUMPI DUP1 DUP2 REVERT JUMPDEST DUP5 MLOAD PUSH2 0x525F DUP2 PUSH2 0x56E4 JUMP JUMPDEST PUSH1 0x20 DUP7 ADD MLOAD PUSH1 0x40 DUP8 ADD MLOAD SWAP2 SWAP6 POP SWAP4 POP PUSH2 0x5277 DUP2 PUSH2 0x56FC JUMP JUMPDEST PUSH1 0x60 DUP7 ADD MLOAD SWAP1 SWAP3 POP PUSH2 0x5288 DUP2 PUSH2 0x56FC JUMP JUMPDEST SWAP4 SWAP7 SWAP3 SWAP6 POP SWAP1 SWAP4 POP POP JUMP JUMPDEST PUSH1 0x0 PUSH1 0x20 DUP3 DUP5 SUB SLT ISZERO PUSH2 0x52A4 JUMPI DUP1 DUP2 REVERT JUMPDEST DUP2 CALLDATALOAD PUSH2 0x4542 DUP2 PUSH2 0x56FC JUMP JUMPDEST PUSH1 0x0 PUSH1 0x20 DUP3 DUP5 SUB SLT ISZERO PUSH2 0x52C0 JUMPI DUP1 DUP2 REVERT JUMPDEST DUP2 MLOAD PUSH2 0x4542 DUP2 PUSH2 0x56FC JUMP JUMPDEST PUSH1 0x0 PUSH1 0x20 DUP3 DUP5 SUB SLT ISZERO PUSH2 0x52DC JUMPI DUP1 DUP2 REVERT JUMPDEST POP CALLDATALOAD SWAP2 SWAP1 POP JUMP JUMPDEST PUSH1 0x0 DUP1 PUSH1 0x40 DUP4 DUP6 SUB SLT ISZERO PUSH2 0x52F5 JUMPI DUP2 DUP3 REVERT JUMPDEST DUP3 CALLDATALOAD SWAP2 POP PUSH1 0x20 DUP4 ADD CALLDATALOAD PUSH2 0x518F DUP2 PUSH2 0x56E4 JUMP JUMPDEST PUSH1 0x0 PUSH1 0x20 DUP3 DUP5 SUB SLT ISZERO PUSH2 0x5318 JUMPI DUP1 DUP2 REVERT JUMPDEST DUP2 CALLDATALOAD PUSH1 0x1 PUSH1 0x1 PUSH1 0xE0 SHL SUB NOT DUP2 AND DUP2 EQ PUSH2 0x4542 JUMPI DUP2 DUP3 REVERT JUMPDEST PUSH1 0x0 PUSH1 0x20 DUP3 DUP5 SUB SLT ISZERO PUSH2 0x5340 JUMPI DUP1 DUP2 REVERT JUMPDEST POP MLOAD SWAP2 SWAP1 POP JUMP JUMPDEST PUSH1 0x0 DUP1 PUSH1 0x40 DUP4 DUP6 SUB SLT ISZERO PUSH2 0x5359 JUMPI DUP2 DUP3 REVERT JUMPDEST DUP3 CALLDATALOAD SWAP2 POP PUSH1 0x20 DUP4 ADD CALLDATALOAD PUSH2 0x518F DUP2 PUSH2 0x56FC JUMP JUMPDEST PUSH1 0x0 DUP1 PUSH1 0x0 DUP1 PUSH1 0x80 DUP6 DUP8 SUB SLT ISZERO PUSH2 0x5380 JUMPI DUP2 DUP3 REVERT JUMPDEST DUP5 CALLDATALOAD SWAP4 POP PUSH1 0x20 DUP6 ADD CALLDATALOAD SWAP3 POP PUSH1 0x40 DUP6 ADD CALLDATALOAD SWAP2 POP PUSH1 0x60 DUP6 ADD CALLDATALOAD PUSH2 0x5288 DUP2 PUSH2 0x56FC JUMP JUMPDEST PUSH1 0x0 DUP1 PUSH1 0x0 DUP1 PUSH1 0x0 DUP1 PUSH1 0xC0 DUP8 DUP10 SUB SLT ISZERO PUSH2 0x53B8 JUMPI DUP4 DUP5 REVERT JUMPDEST DUP7 CALLDATALOAD SWAP6 POP PUSH1 0x20 DUP8 ADD CALLDATALOAD SWAP5 POP PUSH1 0x40 DUP8 ADD CALLDATALOAD SWAP4 POP PUSH1 0x60 DUP8 ADD CALLDATALOAD SWAP3 POP PUSH1 0x80 DUP8 ADD CALLDATALOAD PUSH2 0x53DF DUP2 PUSH2 0x56E4 JUMP JUMPDEST SWAP2 POP PUSH1 0xA0 DUP8 ADD CALLDATALOAD PUSH2 0x53EF DUP2 PUSH2 0x56FC JUMP JUMPDEST DUP1 SWAP2 POP POP SWAP3 SWAP6 POP SWAP3 SWAP6 POP SWAP3 SWAP6 JUMP JUMPDEST PUSH1 0x0 DUP1 PUSH1 0x0 DUP1 PUSH1 0x0 PUSH1 0xA0 DUP7 DUP9 SUB SLT ISZERO PUSH2 0x5414 JUMPI DUP3 DUP4 REVERT JUMPDEST DUP6 CALLDATALOAD SWAP5 POP PUSH1 0x20 DUP7 ADD CALLDATALOAD SWAP4 POP PUSH1 0x40 DUP7 ADD CALLDATALOAD SWAP3 POP PUSH1 0x60 DUP7 ADD CALLDATALOAD SWAP2 POP PUSH1 0x80 DUP7 ADD CALLDATALOAD PUSH2 0x543B DUP2 PUSH2 0x56FC JUMP JUMPDEST DUP1 SWAP2 POP POP SWAP3 SWAP6 POP SWAP3 SWAP6 SWAP1 SWAP4 POP JUMP JUMPDEST PUSH1 0x6 DUP2 LT PUSH2 0x5459 JUMPI PUSH2 0x5459 PUSH2 0x56CE JUMP JUMPDEST SWAP1 MSTORE JUMP JUMPDEST PUSH1 0x0 DUP3 MLOAD PUSH2 0x546F DUP2 DUP5 PUSH1 0x20 DUP8 ADD PUSH2 0x565A JUMP JUMPDEST SWAP2 SWAP1 SWAP2 ADD SWAP3 SWAP2 POP POP JUMP JUMPDEST PUSH32 0x416363657373436F6E74726F6C3A206163636F756E7420000000000000000000 DUP2 MSTORE PUSH1 0x0 DUP4 MLOAD PUSH2 0x54B1 DUP2 PUSH1 0x17 DUP6 ADD PUSH1 0x20 DUP9 ADD PUSH2 0x565A JUMP JUMPDEST PUSH17 0x1034B99036B4B9B9B4B733903937B6329 PUSH1 0x7D SHL PUSH1 0x17 SWAP2 DUP5 ADD SWAP2 DUP3 ADD MSTORE DUP4 MLOAD PUSH2 0x54E2 DUP2 PUSH1 0x28 DUP5 ADD PUSH1 0x20 DUP9 ADD PUSH2 0x565A JUMP JUMPDEST ADD PUSH1 0x28 ADD SWAP5 SWAP4 POP POP POP POP JUMP JUMPDEST PUSH1 0x20 DUP2 ADD PUSH2 0xBE3 DUP3 DUP5 PUSH2 0x5449 JUMP JUMPDEST PUSH1 0x20 DUP2 ADD PUSH1 0x2 DUP4 LT PUSH2 0x5510 JUMPI PUSH2 0x5510 PUSH2 0x56CE JUMP JUMPDEST SWAP2 SWAP1 MSTORE SWAP1 JUMP JUMPDEST PUSH1 0x20 DUP2 MSTORE PUSH1 0x0 DUP3 MLOAD DUP1 PUSH1 0x20 DUP5 ADD MSTORE PUSH2 0x5535 DUP2 PUSH1 0x40 DUP6 ADD PUSH1 0x20 DUP8 ADD PUSH2 0x565A JUMP JUMPDEST PUSH1 0x1F ADD PUSH1 0x1F NOT AND SWAP2 SWAP1 SWAP2 ADD PUSH1 0x40 ADD SWAP3 SWAP2 POP POP JUMP JUMPDEST PUSH1 0x20 DUP1 DUP3 MSTORE PUSH1 0x14 SWAP1 DUP3 ADD MSTORE PUSH20 0x14185D5CD8589B194E881B9BDD081C185D5CD959 PUSH1 0x62 SHL PUSH1 0x40 DUP3 ADD MSTORE PUSH1 0x60 ADD SWAP1 JUMP JUMPDEST PUSH1 0x20 DUP1 DUP3 MSTORE PUSH1 0x10 SWAP1 DUP3 ADD MSTORE PUSH16 0x14185D5CD8589B194E881C185D5CD959 PUSH1 0x82 SHL PUSH1 0x40 DUP3 ADD MSTORE PUSH1 0x60 ADD SWAP1 JUMP JUMPDEST PUSH1 0x20 DUP1 DUP3 MSTORE PUSH1 0x1F SWAP1 DUP3 ADD MSTORE PUSH32 0x5265656E7472616E637947756172643A207265656E7472616E742063616C6C00 PUSH1 0x40 DUP3 ADD MSTORE PUSH1 0x60 ADD SWAP1 JUMP JUMPDEST DUP3 DUP2 MSTORE PUSH1 0x40 DUP2 ADD PUSH2 0x4542 PUSH1 0x20 DUP4 ADD DUP5 PUSH2 0x5449 JUMP JUMPDEST PUSH1 0x0 DUP3 NOT DUP3 GT ISZERO PUSH2 0x55FF JUMPI PUSH2 0x55FF PUSH2 0x56B8 JUMP JUMPDEST POP ADD SWAP1 JUMP JUMPDEST PUSH1 0x0 DUP3 PUSH2 0x561F JUMPI PUSH4 0x4E487B71 PUSH1 0xE0 SHL DUP2 MSTORE PUSH1 0x12 PUSH1 0x4 MSTORE PUSH1 0x24 DUP2 REVERT JUMPDEST POP DIV SWAP1 JUMP JUMPDEST PUSH1 0x0 DUP2 PUSH1 0x0 NOT DIV DUP4 GT DUP3 ISZERO ISZERO AND ISZERO PUSH2 0x563E JUMPI PUSH2 0x563E PUSH2 0x56B8 JUMP JUMPDEST POP MUL SWAP1 JUMP JUMPDEST PUSH1 0x0 DUP3 DUP3 LT ISZERO PUSH2 0x5655 JUMPI PUSH2 0x5655 PUSH2 0x56B8 JUMP JUMPDEST POP SUB SWAP1 JUMP JUMPDEST PUSH1 0x0 JUMPDEST DUP4 DUP2 LT ISZERO PUSH2 0x5675 JUMPI DUP2 DUP2 ADD MLOAD DUP4 DUP3 ADD MSTORE PUSH1 0x20 ADD PUSH2 0x565D JUMP JUMPDEST DUP4 DUP2 GT ISZERO PUSH2 0x474B JUMPI POP POP PUSH1 0x0 SWAP2 ADD MSTORE JUMP JUMPDEST PUSH1 0x0 DUP2 PUSH2 0x5695 JUMPI PUSH2 0x5695 PUSH2 0x56B8 JUMP JUMPDEST POP PUSH1 0x0 NOT ADD SWAP1 JUMP JUMPDEST PUSH1 0x0 PUSH1 0x0 NOT DUP3 EQ ISZERO PUSH2 0x56B1 JUMPI PUSH2 0x56B1 PUSH2 0x56B8 JUMP JUMPDEST POP PUSH1 0x1 ADD SWAP1 JUMP JUMPDEST PUSH4 0x4E487B71 PUSH1 0xE0 SHL PUSH1 0x0 MSTORE PUSH1 0x11 PUSH1 0x4 MSTORE PUSH1 0x24 PUSH1 0x0 REVERT JUMPDEST PUSH4 0x4E487B71 PUSH1 0xE0 SHL PUSH1 0x0 MSTORE PUSH1 0x21 PUSH1 0x4 MSTORE PUSH1 0x24 PUSH1 0x0 REVERT JUMPDEST PUSH1 0x1 PUSH1 0x1 PUSH1 0xA0 SHL SUB DUP2 AND DUP2 EQ PUSH2 0x56F9 JUMPI PUSH1 0x0 DUP1 REVERT JUMPDEST POP JUMP JUMPDEST DUP1 ISZERO ISZERO DUP2 EQ PUSH2 0x56F9 JUMPI PUSH1 0x0 DUP1 REVERT INVALID LOG2 PUSH5 0x6970667358 0x22 SLT KECCAK256 TIMESTAMP PUSH25 0x3C48CB2CA63E6BF441A80AB3294DE623623136333868715AB4 PUSH13 0xACC54B8064736F6C6343000804 STOP CALLER "
		},
		"gasEstimates": {
			"creation": {
				"codeDepositCost": "4467200",
				"executionCost": "5190",
				"totalCost": "4472390"
			},
			"external": {
				"DEFAULT_ADMIN_ROLE()": "318",
				"__Campaign_init(address,address)": "infinite",
				"acceptedToken()": "1171",
				"allowContributionAfterTargetIsMet()": "1159",
				"approvers(address)": "1294",
				"approversCount()": "1051",
				"campaignFactoryContract()": "1160",
				"campaignID()": "1075",
				"campaignSentReward(uint256,bool)": "infinite",
				"campaignState()": "1162",
				"cancelVote(uint256)": "infinite",
				"contribute(address,uint256,bool)": "infinite",
				"createRequest(address,uint256,uint256)": "infinite",
				"createReward(uint256,uint256,uint256,bool)": "infinite",
				"currentRunningRequest()": "1117",
				"deadline()": "1075",
				"deadlineSetTimes()": "1097",
				"destroyReward(uint256)": "infinite",
				"extendDeadline(uint256)": "infinite",
				"finalizeRequest(uint256)": "infinite",
				"finalizedRequestCount()": "1119",
				"getRoleAdmin(bytes32)": "1202",
				"goalType()": "1119",
				"grantRole(bytes32,address)": "infinite",
				"hasRole(bytes32,address)": "1433",
				"markCampaignComplete()": "infinite",
				"maximumContribution()": "1096",
				"minimumContribution()": "1075",
				"modifyReward(uint256,uint256,uint256,uint256,bool)": "infinite",
				"pauseCampaign()": "infinite",
				"paused()": "1094",
				"positiveReviewCount()": "1054",
				"renounceRole(bytes32,address)": "24368",
				"reportCampaign()": "infinite",
				"requestCount()": "1052",
				"requests(uint256)": "5547",
				"resetDeadlineSetTimes(uint256)": "infinite",
				"reviewCampaignPerformance(bool)": "infinite",
				"reviewCount()": "1073",
				"reviewMode()": "infinite",
				"reviewed(address)": "1293",
				"reviews(uint256)": "3811",
				"revokeRole(bytes32,address)": "infinite",
				"rewardees(uint256)": "3086",
				"rewards(uint256)": "4664",
				"root()": "1170",
				"setCampaignSettings(uint256,uint256,uint256,uint256,address,bool)": "infinite",
				"setCampaignState(uint256)": "infinite",
				"setGoalType(uint256)": "infinite",
				"supportsInterface(bytes4)": "529",
				"target()": "1052",
				"totalCampaignContribution()": "1095",
				"transferCampaignOwnership(address)": "infinite",
				"unpauseCampaign()": "infinite",
				"userHasReward(address)": "1315",
				"userReceivedCampaignReward(uint256,bool)": "infinite",
				"userTotalContribution(address)": "1314",
				"voteOnRequest(uint256)": "infinite",
				"withdrawContributionForUser(address,uint256,address)": "infinite",
				"withdrawOwnContribution(uint256,address)": "infinite"
			},
			"internal": {
				"_contribute()": "infinite",
				"_withdrawContribution(address,address,uint256)": "infinite"
			}
		},
		"methodIdentifiers": {
			"DEFAULT_ADMIN_ROLE()": "a217fddf",
			"__Campaign_init(address,address)": "a446bbb8",
			"acceptedToken()": "451c3d80",
			"allowContributionAfterTargetIsMet()": "fc7a96a0",
			"approvers(address)": "0a144391",
			"approversCount()": "82fde093",
			"campaignFactoryContract()": "7e0f9dd1",
			"campaignID()": "49ed2fa9",
			"campaignSentReward(uint256,bool)": "aaee6a1f",
			"campaignState()": "f4c9b1fd",
			"cancelVote(uint256)": "bacbe2da",
			"contribute(address,uint256,bool)": "94a91de8",
			"createRequest(address,uint256,uint256)": "f3f08015",
			"createReward(uint256,uint256,uint256,bool)": "8632e966",
			"currentRunningRequest()": "d2411d19",
			"deadline()": "29dcb0cf",
			"deadlineSetTimes()": "57414c37",
			"destroyReward(uint256)": "d222aba5",
			"extendDeadline(uint256)": "389b7533",
			"finalizeRequest(uint256)": "03441006",
			"finalizedRequestCount()": "1f93da25",
			"getRoleAdmin(bytes32)": "248a9ca3",
			"goalType()": "95cbd157",
			"grantRole(bytes32,address)": "2f2ff15d",
			"hasRole(bytes32,address)": "91d14854",
			"markCampaignComplete()": "ebf52409",
			"maximumContribution()": "9c2fcd45",
			"minimumContribution()": "937e09b1",
			"modifyReward(uint256,uint256,uint256,uint256,bool)": "b4e34fd8",
			"pauseCampaign()": "0d10f3b5",
			"paused()": "5c975abb",
			"positiveReviewCount()": "01fc3279",
			"renounceRole(bytes32,address)": "36568abe",
			"reportCampaign()": "6c0ddc12",
			"requestCount()": "5badbe4c",
			"requests(uint256)": "81d12c58",
			"resetDeadlineSetTimes(uint256)": "f5c75ede",
			"reviewCampaignPerformance(bool)": "90ffa70b",
			"reviewCount()": "eff5924f",
			"reviewMode()": "34d71e17",
			"reviewed(address)": "714bf908",
			"reviews(uint256)": "e83ddcea",
			"revokeRole(bytes32,address)": "d547741f",
			"rewardees(uint256)": "f87770f5",
			"rewards(uint256)": "f301af42",
			"root()": "ebf0c717",
			"setCampaignSettings(uint256,uint256,uint256,uint256,address,bool)": "b3035efa",
			"setCampaignState(uint256)": "36cb9588",
			"setGoalType(uint256)": "48db7f23",
			"supportsInterface(bytes4)": "01ffc9a7",
			"target()": "d4b83992",
			"totalCampaignContribution()": "8ef9af72",
			"transferCampaignOwnership(address)": "98407647",
			"unpauseCampaign()": "1c8e541b",
			"userHasReward(address)": "a6e3f612",
			"userReceivedCampaignReward(uint256,bool)": "794c1018",
			"userTotalContribution(address)": "d753ca7c",
			"voteOnRequest(uint256)": "e2274075",
			"withdrawContributionForUser(address,uint256,address)": "6bbc5c4c",
			"withdrawOwnContribution(uint256,address)": "e007832c"
		}
	},
	"abi": [
		{
			"anonymous": false,
			"inputs": [
				{
					"indexed": true,
					"internalType": "uint256",
					"name": "campaignId",
					"type": "uint256"
				},
				{
					"indexed": false,
					"internalType": "uint256",
					"name": "time",
					"type": "uint256"
				}
			],
			"name": "CampaignDeadlineExtended",
			"type": "event"
		},
		{
			"anonymous": false,
			"inputs": [
				{
					"indexed": true,
					"internalType": "uint256",
					"name": "campaignId",
					"type": "uint256"
				},
				{
					"indexed": false,
					"internalType": "uint256",
					"name": "minimumContribution",
					"type": "uint256"
				},
				{
					"indexed": false,
					"internalType": "uint256",
					"name": "deadline",
					"type": "uint256"
				},
				{
					"indexed": false,
					"internalType": "uint256",
					"name": "goalType",
					"type": "uint256"
				},
				{
					"indexed": false,
					"internalType": "address",
					"name": "token",
					"type": "address"
				}
			],
			"name": "CampaignDetailsModified",
			"type": "event"
		},
		{
			"anonymous": false,
			"inputs": [
				{
					"indexed": true,
					"internalType": "uint256",
					"name": "campaignId",
					"type": "uint256"
				},
				{
					"indexed": false,
					"internalType": "uint256",
					"name": "goalType",
					"type": "uint256"
				}
			],
			"name": "CampaignGoalTypeChange",
			"type": "event"
		},
		{
			"anonymous": false,
			"inputs": [
				{
					"indexed": true,
					"internalType": "uint256",
					"name": "campaignId",
					"type": "uint256"
				}
			],
			"name": "CampaignIDset",
			"type": "event"
		},
		{
			"anonymous": false,
			"inputs": [
				{
					"indexed": true,
					"internalType": "uint256",
					"name": "campaignId",
					"type": "uint256"
				},
				{
					"indexed": false,
					"internalType": "address",
					"name": "user",
					"type": "address"
				}
			],
			"name": "CampaignReported",
			"type": "event"
		},
		{
			"anonymous": false,
			"inputs": [
				{
					"indexed": false,
					"internalType": "uint256",
					"name": "campaignId",
					"type": "uint256"
				},
				{
					"indexed": false,
					"internalType": "enum Campaign.CAMPAIGN_STATE",
					"name": "state",
					"type": "uint8"
				}
			],
			"name": "CampaignStateChange",
			"type": "event"
		},
		{
			"anonymous": false,
			"inputs": [
				{
					"indexed": true,
					"internalType": "uint256",
					"name": "campaignId",
					"type": "uint256"
				},
				{
					"indexed": false,
					"internalType": "uint256",
					"name": "userId",
					"type": "uint256"
				},
				{
					"indexed": false,
					"internalType": "uint256",
					"name": "amount",
					"type": "uint256"
				}
			],
			"name": "ContributionMade",
			"type": "event"
		},
		{
			"anonymous": false,
			"inputs": [
				{
					"indexed": true,
					"internalType": "uint256",
					"name": "campaignId",
					"type": "uint256"
				},
				{
					"indexed": false,
					"internalType": "uint256",
					"name": "userId",
					"type": "uint256"
				},
				{
					"indexed": false,
					"internalType": "uint256",
					"name": "amount",
					"type": "uint256"
				}
			],
			"name": "ContributionWithdrawn",
			"type": "event"
		},
		{
			"anonymous": false,
			"inputs": [
				{
					"indexed": false,
					"internalType": "address",
					"name": "account",
					"type": "address"
				}
			],
			"name": "Paused",
			"type": "event"
		},
		{
			"anonymous": false,
			"inputs": [
				{
					"indexed": true,
					"internalType": "uint256",
					"name": "requestId",
					"type": "uint256"
				},
				{
					"indexed": false,
					"internalType": "uint256",
					"name": "campaignId",
					"type": "uint256"
				},
				{
					"indexed": false,
					"internalType": "uint256",
					"name": "duration",
					"type": "uint256"
				},
				{
					"indexed": false,
					"internalType": "address",
					"name": "recipient",
					"type": "address"
				},
				{
					"indexed": false,
					"internalType": "uint256",
					"name": "value",
					"type": "uint256"
				}
			],
			"name": "RequestAdded",
			"type": "event"
		},
		{
			"anonymous": false,
			"inputs": [
				{
					"indexed": true,
					"internalType": "uint256",
					"name": "requestId",
					"type": "uint256"
				},
				{
					"indexed": false,
					"internalType": "uint256",
					"name": "campaignId",
					"type": "uint256"
				}
			],
			"name": "RequestComplete",
			"type": "event"
		},
		{
			"anonymous": false,
			"inputs": [
				{
					"indexed": true,
					"internalType": "uint256",
					"name": "rewardId",
					"type": "uint256"
				},
				{
					"indexed": false,
					"internalType": "uint256",
					"name": "campaignId",
					"type": "uint256"
				},
				{
					"indexed": false,
					"internalType": "uint256",
					"name": "value",
					"type": "uint256"
				},
				{
					"indexed": false,
					"internalType": "uint256",
					"name": "deliveryDate",
					"type": "uint256"
				},
				{
					"indexed": false,
					"internalType": "uint256",
					"name": "stock",
					"type": "uint256"
				},
				{
					"indexed": false,
					"internalType": "bool",
					"name": "active",
					"type": "bool"
				}
			],
			"name": "RewardCreated",
			"type": "event"
		},
		{
			"anonymous": false,
			"inputs": [
				{
					"indexed": false,
					"internalType": "uint256",
					"name": "rewardId",
					"type": "uint256"
				}
			],
			"name": "RewardDestroyed",
			"type": "event"
		},
		{
			"anonymous": false,
			"inputs": [
				{
					"indexed": false,
					"internalType": "uint256",
					"name": "rewardId",
					"type": "uint256"
				},
				{
					"indexed": false,
					"internalType": "uint256",
					"name": "campaignId",
					"type": "uint256"
				},
				{
					"indexed": false,
					"internalType": "uint256",
					"name": "value",
					"type": "uint256"
				},
				{
					"indexed": false,
					"internalType": "uint256",
					"name": "deliveryDate",
					"type": "uint256"
				},
				{
					"indexed": false,
					"internalType": "uint256",
					"name": "stock",
					"type": "uint256"
				},
				{
					"indexed": false,
					"internalType": "bool",
					"name": "active",
					"type": "bool"
				}
			],
			"name": "RewardModified",
			"type": "event"
		},
		{
			"anonymous": false,
			"inputs": [
				{
					"indexed": true,
					"internalType": "uint256",
					"name": "rewardId",
					"type": "uint256"
				},
				{
					"indexed": false,
					"internalType": "uint256",
					"name": "campaignId",
					"type": "uint256"
				},
				{
					"indexed": false,
					"internalType": "uint256",
					"name": "user",
					"type": "uint256"
				},
				{
					"indexed": false,
					"internalType": "uint256",
					"name": "amount",
					"type": "uint256"
				}
			],
			"name": "RewardeeAdded",
			"type": "event"
		},
		{
			"anonymous": false,
			"inputs": [
				{
					"indexed": true,
					"internalType": "uint256",
					"name": "rewardeeId",
					"type": "uint256"
				},
				{
					"indexed": false,
					"internalType": "uint256",
					"name": "campaignId",
					"type": "uint256"
				},
				{
					"indexed": false,
					"internalType": "bool",
					"name": "status",
					"type": "bool"
				}
			],
			"name": "RewardeeApproval",
			"type": "event"
		},
		{
			"anonymous": false,
			"inputs": [
				{
					"indexed": true,
					"internalType": "bytes32",
					"name": "role",
					"type": "bytes32"
				},
				{
					"indexed": true,
					"internalType": "bytes32",
					"name": "previousAdminRole",
					"type": "bytes32"
				},
				{
					"indexed": true,
					"internalType": "bytes32",
					"name": "newAdminRole",
					"type": "bytes32"
				}
			],
			"name": "RoleAdminChanged",
			"type": "event"
		},
		{
			"anonymous": false,
			"inputs": [
				{
					"indexed": true,
					"internalType": "bytes32",
					"name": "role",
					"type": "bytes32"
				},
				{
					"indexed": true,
					"internalType": "address",
					"name": "account",
					"type": "address"
				},
				{
					"indexed": true,
					"internalType": "address",
					"name": "sender",
					"type": "address"
				}
			],
			"name": "RoleGranted",
			"type": "event"
		},
		{
			"anonymous": false,
			"inputs": [
				{
					"indexed": true,
					"internalType": "bytes32",
					"name": "role",
					"type": "bytes32"
				},
				{
					"indexed": true,
					"internalType": "address",
					"name": "account",
					"type": "address"
				},
				{
					"indexed": true,
					"internalType": "address",
					"name": "sender",
					"type": "address"
				}
			],
			"name": "RoleRevoked",
			"type": "event"
		},
		{
			"anonymous": false,
			"inputs": [
				{
					"indexed": true,
					"internalType": "uint256",
					"name": "campaignId",
					"type": "uint256"
				},
				{
					"indexed": false,
					"internalType": "uint256",
					"name": "amount",
					"type": "uint256"
				}
			],
			"name": "TargetMet",
			"type": "event"
		},
		{
			"anonymous": false,
			"inputs": [
				{
					"indexed": false,
					"internalType": "address",
					"name": "account",
					"type": "address"
				}
			],
			"name": "Unpaused",
			"type": "event"
		},
		{
			"anonymous": false,
			"inputs": [
				{
					"indexed": false,
					"internalType": "uint256",
					"name": "requestId",
					"type": "uint256"
				}
			],
			"name": "VoteCancelled",
			"type": "event"
		},
		{
			"anonymous": false,
			"inputs": [
				{
					"indexed": false,
					"internalType": "uint256",
					"name": "requestId",
					"type": "uint256"
				}
			],
			"name": "Voted",
			"type": "event"
		},
		{
			"inputs": [],
			"name": "DEFAULT_ADMIN_ROLE",
			"outputs": [
				{
					"internalType": "bytes32",
					"name": "",
					"type": "bytes32"
				}
			],
			"stateMutability": "view",
			"type": "function"
		},
		{
			"inputs": [
				{
					"internalType": "address",
					"name": "_campaignFactory",
					"type": "address"
				},
				{
					"internalType": "address",
					"name": "_root",
					"type": "address"
				}
			],
			"name": "__Campaign_init",
			"outputs": [],
			"stateMutability": "nonpayable",
			"type": "function"
		},
		{
			"inputs": [],
			"name": "acceptedToken",
			"outputs": [
				{
					"internalType": "address",
					"name": "",
					"type": "address"
				}
			],
			"stateMutability": "view",
			"type": "function"
		},
		{
			"inputs": [],
			"name": "allowContributionAfterTargetIsMet",
			"outputs": [
				{
					"internalType": "bool",
					"name": "",
					"type": "bool"
				}
			],
			"stateMutability": "view",
			"type": "function"
		},
		{
			"inputs": [
				{
					"internalType": "address",
					"name": "",
					"type": "address"
				}
			],
			"name": "approvers",
			"outputs": [
				{
					"internalType": "bool",
					"name": "",
					"type": "bool"
				}
			],
			"stateMutability": "view",
			"type": "function"
		},
		{
			"inputs": [],
			"name": "approversCount",
			"outputs": [
				{
					"internalType": "uint256",
					"name": "",
					"type": "uint256"
				}
			],
			"stateMutability": "view",
			"type": "function"
		},
		{
			"inputs": [],
			"name": "campaignFactoryContract",
			"outputs": [
				{
					"internalType": "contract CampaignFactoryInterface",
					"name": "",
					"type": "address"
				}
			],
			"stateMutability": "view",
			"type": "function"
		},
		{
			"inputs": [],
			"name": "campaignID",
			"outputs": [
				{
					"internalType": "uint256",
					"name": "",
					"type": "uint256"
				}
			],
			"stateMutability": "view",
			"type": "function"
		},
		{
			"inputs": [
				{
					"internalType": "uint256",
					"name": "_rewardeeId",
					"type": "uint256"
				},
				{
					"internalType": "bool",
					"name": "_status",
					"type": "bool"
				}
			],
			"name": "campaignSentReward",
			"outputs": [],
			"stateMutability": "nonpayable",
			"type": "function"
		},
		{
			"inputs": [],
			"name": "campaignState",
			"outputs": [
				{
					"internalType": "enum Campaign.CAMPAIGN_STATE",
					"name": "",
					"type": "uint8"
				}
			],
			"stateMutability": "view",
			"type": "function"
		},
		{
			"inputs": [
				{
					"internalType": "uint256",
					"name": "_requestId",
					"type": "uint256"
				}
			],
			"name": "cancelVote",
			"outputs": [],
			"stateMutability": "nonpayable",
			"type": "function"
		},
		{
			"inputs": [
				{
					"internalType": "address",
					"name": "_token",
					"type": "address"
				},
				{
					"internalType": "uint256",
					"name": "_rewardId",
					"type": "uint256"
				},
				{
					"internalType": "bool",
					"name": "_withReward",
					"type": "bool"
				}
			],
			"name": "contribute",
			"outputs": [
				{
					"internalType": "uint256",
					"name": "targetCompletionValue",
					"type": "uint256"
				}
			],
			"stateMutability": "payable",
			"type": "function"
		},
		{
			"inputs": [
				{
					"internalType": "address payable",
					"name": "_recipient",
					"type": "address"
				},
				{
					"internalType": "uint256",
					"name": "_value",
					"type": "uint256"
				},
				{
					"internalType": "uint256",
					"name": "_duration",
					"type": "uint256"
				}
			],
			"name": "createRequest",
			"outputs": [],
			"stateMutability": "nonpayable",
			"type": "function"
		},
		{
			"inputs": [
				{
					"internalType": "uint256",
					"name": "_value",
					"type": "uint256"
				},
				{
					"internalType": "uint256",
					"name": "_deliveryDate",
					"type": "uint256"
				},
				{
					"internalType": "uint256",
					"name": "_stock",
					"type": "uint256"
				},
				{
					"internalType": "bool",
					"name": "_active",
					"type": "bool"
				}
			],
			"name": "createReward",
			"outputs": [],
			"stateMutability": "nonpayable",
			"type": "function"
		},
		{
			"inputs": [],
			"name": "currentRunningRequest",
			"outputs": [
				{
					"internalType": "uint256",
					"name": "",
					"type": "uint256"
				}
			],
			"stateMutability": "view",
			"type": "function"
		},
		{
			"inputs": [],
			"name": "deadline",
			"outputs": [
				{
					"internalType": "uint256",
					"name": "",
					"type": "uint256"
				}
			],
			"stateMutability": "view",
			"type": "function"
		},
		{
			"inputs": [],
			"name": "deadlineSetTimes",
			"outputs": [
				{
					"internalType": "uint256",
					"name": "",
					"type": "uint256"
				}
			],
			"stateMutability": "view",
			"type": "function"
		},
		{
			"inputs": [
				{
					"internalType": "uint256",
					"name": "_rewardId",
					"type": "uint256"
				}
			],
			"name": "destroyReward",
			"outputs": [],
			"stateMutability": "nonpayable",
			"type": "function"
		},
		{
			"inputs": [
				{
					"internalType": "uint256",
					"name": "_time",
					"type": "uint256"
				}
			],
			"name": "extendDeadline",
			"outputs": [],
			"stateMutability": "nonpayable",
			"type": "function"
		},
		{
			"inputs": [
				{
					"internalType": "uint256",
					"name": "_requestId",
					"type": "uint256"
				}
			],
			"name": "finalizeRequest",
			"outputs": [],
			"stateMutability": "nonpayable",
			"type": "function"
		},
		{
			"inputs": [],
			"name": "finalizedRequestCount",
			"outputs": [
				{
					"internalType": "uint256",
					"name": "",
					"type": "uint256"
				}
			],
			"stateMutability": "view",
			"type": "function"
		},
		{
			"inputs": [
				{
					"internalType": "bytes32",
					"name": "role",
					"type": "bytes32"
				}
			],
			"name": "getRoleAdmin",
			"outputs": [
				{
					"internalType": "bytes32",
					"name": "",
					"type": "bytes32"
				}
			],
			"stateMutability": "view",
			"type": "function"
		},
		{
			"inputs": [],
			"name": "goalType",
			"outputs": [
				{
					"internalType": "enum Campaign.GOALTYPE",
					"name": "",
					"type": "uint8"
				}
			],
			"stateMutability": "view",
			"type": "function"
		},
		{
			"inputs": [
				{
					"internalType": "bytes32",
					"name": "role",
					"type": "bytes32"
				},
				{
					"internalType": "address",
					"name": "account",
					"type": "address"
				}
			],
			"name": "grantRole",
			"outputs": [],
			"stateMutability": "nonpayable",
			"type": "function"
		},
		{
			"inputs": [
				{
					"internalType": "bytes32",
					"name": "role",
					"type": "bytes32"
				},
				{
					"internalType": "address",
					"name": "account",
					"type": "address"
				}
			],
			"name": "hasRole",
			"outputs": [
				{
					"internalType": "bool",
					"name": "",
					"type": "bool"
				}
			],
			"stateMutability": "view",
			"type": "function"
		},
		{
			"inputs": [],
			"name": "markCampaignComplete",
			"outputs": [],
			"stateMutability": "nonpayable",
			"type": "function"
		},
		{
			"inputs": [],
			"name": "maximumContribution",
			"outputs": [
				{
					"internalType": "uint256",
					"name": "",
					"type": "uint256"
				}
			],
			"stateMutability": "view",
			"type": "function"
		},
		{
			"inputs": [],
			"name": "minimumContribution",
			"outputs": [
				{
					"internalType": "uint256",
					"name": "",
					"type": "uint256"
				}
			],
			"stateMutability": "view",
			"type": "function"
		},
		{
			"inputs": [
				{
					"internalType": "uint256",
					"name": "_id",
					"type": "uint256"
				},
				{
					"internalType": "uint256",
					"name": "_value",
					"type": "uint256"
				},
				{
					"internalType": "uint256",
					"name": "_deliveryDate",
					"type": "uint256"
				},
				{
					"internalType": "uint256",
					"name": "_stock",
					"type": "uint256"
				},
				{
					"internalType": "bool",
					"name": "_active",
					"type": "bool"
				}
			],
			"name": "modifyReward",
			"outputs": [],
			"stateMutability": "nonpayable",
			"type": "function"
		},
		{
			"inputs": [],
			"name": "pauseCampaign",
			"outputs": [],
			"stateMutability": "nonpayable",
			"type": "function"
		},
		{
			"inputs": [],
			"name": "paused",
			"outputs": [
				{
					"internalType": "bool",
					"name": "",
					"type": "bool"
				}
			],
			"stateMutability": "view",
			"type": "function"
		},
		{
			"inputs": [],
			"name": "positiveReviewCount",
			"outputs": [
				{
					"internalType": "uint256",
					"name": "",
					"type": "uint256"
				}
			],
			"stateMutability": "view",
			"type": "function"
		},
		{
			"inputs": [
				{
					"internalType": "bytes32",
					"name": "role",
					"type": "bytes32"
				},
				{
					"internalType": "address",
					"name": "account",
					"type": "address"
				}
			],
			"name": "renounceRole",
			"outputs": [],
			"stateMutability": "nonpayable",
			"type": "function"
		},
		{
			"inputs": [],
			"name": "reportCampaign",
			"outputs": [],
			"stateMutability": "nonpayable",
			"type": "function"
		},
		{
			"inputs": [],
			"name": "requestCount",
			"outputs": [
				{
					"internalType": "uint256",
					"name": "",
					"type": "uint256"
				}
			],
			"stateMutability": "view",
			"type": "function"
		},
		{
			"inputs": [
				{
					"internalType": "uint256",
					"name": "",
					"type": "uint256"
				}
			],
			"name": "requests",
			"outputs": [
				{
					"internalType": "address payable",
					"name": "recepient",
					"type": "address"
				},
				{
					"internalType": "bool",
					"name": "complete",
					"type": "bool"
				},
				{
					"internalType": "uint256",
					"name": "value",
					"type": "uint256"
				},
				{
					"internalType": "uint256",
					"name": "approvalCount",
					"type": "uint256"
				},
				{
					"internalType": "uint256",
					"name": "disapprovalCount",
					"type": "uint256"
				},
				{
					"internalType": "uint256",
					"name": "duration",
					"type": "uint256"
				}
			],
			"stateMutability": "view",
			"type": "function"
		},
		{
			"inputs": [
				{
					"internalType": "uint256",
					"name": "_count",
					"type": "uint256"
				}
			],
			"name": "resetDeadlineSetTimes",
			"outputs": [],
			"stateMutability": "nonpayable",
			"type": "function"
		},
		{
			"inputs": [
				{
					"internalType": "bool",
					"name": "_approval",
					"type": "bool"
				}
			],
			"name": "reviewCampaignPerformance",
			"outputs": [],
			"stateMutability": "nonpayable",
			"type": "function"
		},
		{
			"inputs": [],
			"name": "reviewCount",
			"outputs": [
				{
					"internalType": "uint256",
					"name": "",
					"type": "uint256"
				}
			],
			"stateMutability": "view",
			"type": "function"
		},
		{
			"inputs": [],
			"name": "reviewMode",
			"outputs": [],
			"stateMutability": "nonpayable",
			"type": "function"
		},
		{
			"inputs": [
				{
					"internalType": "address",
					"name": "",
					"type": "address"
				}
			],
			"name": "reviewed",
			"outputs": [
				{
					"internalType": "bool",
					"name": "",
					"type": "bool"
				}
			],
			"stateMutability": "view",
			"type": "function"
		},
		{
			"inputs": [
				{
					"internalType": "uint256",
					"name": "",
					"type": "uint256"
				}
			],
			"name": "reviews",
			"outputs": [
				{
					"internalType": "address",
					"name": "user",
					"type": "address"
				},
				{
					"internalType": "uint256",
					"name": "rating",
					"type": "uint256"
				},
				{
					"internalType": "uint256",
					"name": "createdAt",
					"type": "uint256"
				}
			],
			"stateMutability": "view",
			"type": "function"
		},
		{
			"inputs": [
				{
					"internalType": "bytes32",
					"name": "role",
					"type": "bytes32"
				},
				{
					"internalType": "address",
					"name": "account",
					"type": "address"
				}
			],
			"name": "revokeRole",
			"outputs": [],
			"stateMutability": "nonpayable",
			"type": "function"
		},
		{
			"inputs": [
				{
					"internalType": "uint256",
					"name": "",
					"type": "uint256"
				}
			],
			"name": "rewardees",
			"outputs": [
				{
					"internalType": "uint256",
					"name": "rewardId",
					"type": "uint256"
				},
				{
					"internalType": "address",
					"name": "user",
					"type": "address"
				},
				{
					"internalType": "bool",
					"name": "deliveryConfirmedByCampaign",
					"type": "bool"
				},
				{
					"internalType": "bool",
					"name": "deliveryConfirmedByUser",
					"type": "bool"
				}
			],
			"stateMutability": "view",
			"type": "function"
		},
		{
			"inputs": [
				{
					"internalType": "uint256",
					"name": "",
					"type": "uint256"
				}
			],
			"name": "rewards",
			"outputs": [
				{
					"internalType": "uint256",
					"name": "value",
					"type": "uint256"
				},
				{
					"internalType": "uint256",
					"name": "deliveryDate",
					"type": "uint256"
				},
				{
					"internalType": "uint256",
					"name": "stock",
					"type": "uint256"
				},
				{
					"internalType": "bool",
					"name": "exists",
					"type": "bool"
				},
				{
					"internalType": "bool",
					"name": "active",
					"type": "bool"
				}
			],
			"stateMutability": "view",
			"type": "function"
		},
		{
			"inputs": [],
			"name": "root",
			"outputs": [
				{
					"internalType": "address",
					"name": "",
					"type": "address"
				}
			],
			"stateMutability": "view",
			"type": "function"
		},
		{
			"inputs": [
				{
					"internalType": "uint256",
					"name": "_target",
					"type": "uint256"
				},
				{
					"internalType": "uint256",
					"name": "_minimumContribution",
					"type": "uint256"
				},
				{
					"internalType": "uint256",
					"name": "_duration",
					"type": "uint256"
				},
				{
					"internalType": "uint256",
					"name": "_goalType",
					"type": "uint256"
				},
				{
					"internalType": "address",
					"name": "_token",
					"type": "address"
				},
				{
					"internalType": "bool",
					"name": "_allowContributionAfterTargetIsMet",
					"type": "bool"
				}
			],
			"name": "setCampaignSettings",
			"outputs": [],
			"stateMutability": "nonpayable",
			"type": "function"
		},
		{
			"inputs": [
				{
					"internalType": "uint256",
					"name": "_state",
					"type": "uint256"
				}
			],
			"name": "setCampaignState",
			"outputs": [],
			"stateMutability": "nonpayable",
			"type": "function"
		},
		{
			"inputs": [
				{
					"internalType": "uint256",
					"name": "_type",
					"type": "uint256"
				}
			],
			"name": "setGoalType",
			"outputs": [],
			"stateMutability": "nonpayable",
			"type": "function"
		},
		{
			"inputs": [
				{
					"internalType": "bytes4",
					"name": "interfaceId",
					"type": "bytes4"
				}
			],
			"name": "supportsInterface",
			"outputs": [
				{
					"internalType": "bool",
					"name": "",
					"type": "bool"
				}
			],
			"stateMutability": "view",
			"type": "function"
		},
		{
			"inputs": [],
			"name": "target",
			"outputs": [
				{
					"internalType": "uint256",
					"name": "",
					"type": "uint256"
				}
			],
			"stateMutability": "view",
			"type": "function"
		},
		{
			"inputs": [],
			"name": "totalCampaignContribution",
			"outputs": [
				{
					"internalType": "uint256",
					"name": "",
					"type": "uint256"
				}
			],
			"stateMutability": "view",
			"type": "function"
		},
		{
			"inputs": [
				{
					"internalType": "address",
					"name": "_newOwner",
					"type": "address"
				}
			],
			"name": "transferCampaignOwnership",
			"outputs": [],
			"stateMutability": "nonpayable",
			"type": "function"
		},
		{
			"inputs": [],
			"name": "unpauseCampaign",
			"outputs": [],
			"stateMutability": "nonpayable",
			"type": "function"
		},
		{
			"inputs": [
				{
					"internalType": "address",
					"name": "",
					"type": "address"
				}
			],
			"name": "userHasReward",
			"outputs": [
				{
					"internalType": "bool",
					"name": "",
					"type": "bool"
				}
			],
			"stateMutability": "view",
			"type": "function"
		},
		{
			"inputs": [
				{
					"internalType": "uint256",
					"name": "_rewardeeId",
					"type": "uint256"
				},
				{
					"internalType": "bool",
					"name": "_status",
					"type": "bool"
				}
			],
			"name": "userReceivedCampaignReward",
			"outputs": [],
			"stateMutability": "nonpayable",
			"type": "function"
		},
		{
			"inputs": [
				{
					"internalType": "address",
					"name": "",
					"type": "address"
				}
			],
			"name": "userTotalContribution",
			"outputs": [
				{
					"internalType": "uint256",
					"name": "",
					"type": "uint256"
				}
			],
			"stateMutability": "view",
			"type": "function"
		},
		{
			"inputs": [
				{
					"internalType": "uint256",
					"name": "_requestId",
					"type": "uint256"
				}
			],
			"name": "voteOnRequest",
			"outputs": [],
			"stateMutability": "nonpayable",
			"type": "function"
		},
		{
			"inputs": [
				{
					"internalType": "address",
					"name": "_user",
					"type": "address"
				},
				{
					"internalType": "uint256",
					"name": "_amount",
					"type": "uint256"
				},
				{
					"internalType": "address payable",
					"name": "_wallet",
					"type": "address"
				}
			],
			"name": "withdrawContributionForUser",
			"outputs": [],
			"stateMutability": "nonpayable",
			"type": "function"
		},
		{
			"inputs": [
				{
					"internalType": "uint256",
					"name": "_amount",
					"type": "uint256"
				},
				{
					"internalType": "address payable",
					"name": "_wallet",
					"type": "address"
				}
			],
			"name": "withdrawOwnContribution",
			"outputs": [],
			"stateMutability": "nonpayable",
			"type": "function"
		}
	]
}